{
  "_format": "hh-sol-artifact-1",
  "contractName": "BetWaveDAO",
  "sourceName": "contracts/BetWaveDAO.sol",
  "abi": [
    {
      "inputs": [],
      "name": "insufficientBalance",
      "type": "error"
    },
    {
      "inputs": [],
      "name": "notRegistered",
      "type": "error"
    },
    {
      "inputs": [],
      "name": "notValidator",
      "type": "error"
    },
    {
      "anonymous": false,
      "inputs": [
        {
          "indexed": false,
          "internalType": "address",
          "name": "",
          "type": "address"
        },
        {
          "indexed": false,
          "internalType": "uint256",
          "name": "",
          "type": "uint256"
        }
      ],
      "name": "newUser",
      "type": "event"
    },
    {
      "anonymous": false,
      "inputs": [
        {
          "indexed": false,
          "internalType": "uint256",
          "name": "",
          "type": "uint256"
        }
      ],
      "name": "voteRejected",
      "type": "event"
    },
    {
      "stateMutability": "payable",
      "type": "fallback"
    },
    {
      "inputs": [],
      "name": "DAOQuorum",
      "outputs": [
        {
          "internalType": "uint256",
          "name": "",
          "type": "uint256"
        }
      ],
      "stateMutability": "view",
      "type": "function"
    },
    {
      "inputs": [
        {
          "internalType": "uint256",
          "name": "",
          "type": "uint256"
        }
      ],
      "name": "DAOVoteList",
      "outputs": [
        {
          "internalType": "enum BetWaveDAO.VoteType",
          "name": "voteType",
          "type": "uint8"
        },
        {
          "internalType": "uint256",
          "name": "voteFor",
          "type": "uint256"
        },
        {
          "internalType": "uint256",
          "name": "voteAgainst",
          "type": "uint256"
        },
        {
          "internalType": "uint256",
          "name": "newValue",
          "type": "uint256"
        }
      ],
      "stateMutability": "view",
      "type": "function"
    },
    {
      "inputs": [],
      "name": "addUser",
      "outputs": [],
      "stateMutability": "nonpayable",
      "type": "function"
    },
    {
      "inputs": [],
      "name": "addValidators",
      "outputs": [],
      "stateMutability": "payable",
      "type": "function"
    },
    {
      "inputs": [
        {
          "internalType": "enum BetWaveDAO.VoteType",
          "name": "_voteType",
          "type": "uint8"
        },
        {
          "internalType": "uint256",
          "name": "_newValue",
          "type": "uint256"
        }
      ],
      "name": "askDAOVote",
      "outputs": [],
      "stateMutability": "nonpayable",
      "type": "function"
    },
    {
      "inputs": [],
      "name": "betQuorum",
      "outputs": [
        {
          "internalType": "uint256",
          "name": "",
          "type": "uint256"
        }
      ],
      "stateMutability": "view",
      "type": "function"
    },
    {
      "inputs": [],
      "name": "creatorFees",
      "outputs": [
        {
          "internalType": "uint256",
          "name": "",
          "type": "uint256"
        }
      ],
      "stateMutability": "view",
      "type": "function"
    },
    {
      "inputs": [],
      "name": "daoVoteNumber",
      "outputs": [
        {
          "internalType": "uint256",
          "name": "",
          "type": "uint256"
        }
      ],
      "stateMutability": "view",
      "type": "function"
    },
    {
      "inputs": [],
      "name": "getDaoControlValue",
      "outputs": [
        {
          "internalType": "uint256",
          "name": "",
          "type": "uint256"
        },
        {
          "internalType": "uint256",
          "name": "",
          "type": "uint256"
        },
        {
          "internalType": "uint256",
          "name": "",
          "type": "uint256"
        },
        {
          "internalType": "uint256",
          "name": "",
          "type": "uint256"
        },
        {
          "internalType": "uint256",
          "name": "",
          "type": "uint256"
        },
        {
          "internalType": "uint256",
          "name": "",
          "type": "uint256"
        }
      ],
      "stateMutability": "view",
      "type": "function"
    },
    {
      "inputs": [
        {
          "internalType": "uint256",
          "name": "_id",
          "type": "uint256"
        }
      ],
      "name": "getDaoVoteHasVoted",
      "outputs": [
        {
          "internalType": "bool",
          "name": "",
          "type": "bool"
        }
      ],
      "stateMutability": "view",
      "type": "function"
    },
    {
      "inputs": [],
      "name": "platformFees",
      "outputs": [
        {
          "internalType": "uint256",
          "name": "",
          "type": "uint256"
        }
      ],
      "stateMutability": "view",
      "type": "function"
    },
    {
      "inputs": [
        {
          "internalType": "uint256",
          "name": "_id",
          "type": "uint256"
        },
        {
          "internalType": "uint256",
          "name": "_option",
          "type": "uint256"
        }
      ],
      "name": "setDaoVote",
      "outputs": [],
      "stateMutability": "nonpayable",
      "type": "function"
    },
    {
      "inputs": [
        {
          "internalType": "uint256",
          "name": "",
          "type": "uint256"
        }
      ],
      "name": "userList",
      "outputs": [
        {
          "internalType": "address",
          "name": "",
          "type": "address"
        }
      ],
      "stateMutability": "view",
      "type": "function"
    },
    {
      "inputs": [],
      "name": "userNumber",
      "outputs": [
        {
          "internalType": "uint256",
          "name": "",
          "type": "uint256"
        }
      ],
      "stateMutability": "view",
      "type": "function"
    },
    {
      "inputs": [
        {
          "internalType": "address",
          "name": "",
          "type": "address"
        }
      ],
      "name": "userToId",
      "outputs": [
        {
          "internalType": "uint256",
          "name": "",
          "type": "uint256"
        }
      ],
      "stateMutability": "view",
      "type": "function"
    },
    {
      "inputs": [],
      "name": "validatorFees",
      "outputs": [
        {
          "internalType": "uint256",
          "name": "",
          "type": "uint256"
        }
      ],
      "stateMutability": "view",
      "type": "function"
    },
    {
      "inputs": [],
      "name": "validatorNumber",
      "outputs": [
        {
          "internalType": "uint256",
          "name": "",
          "type": "uint256"
        }
      ],
      "stateMutability": "view",
      "type": "function"
    },
    {
      "inputs": [],
      "name": "validatorNumberRequired",
      "outputs": [
        {
          "internalType": "uint256",
          "name": "",
          "type": "uint256"
        }
      ],
      "stateMutability": "view",
      "type": "function"
    },
    {
      "inputs": [
        {
          "internalType": "address",
          "name": "",
          "type": "address"
        }
      ],
      "name": "validators",
      "outputs": [
        {
          "internalType": "address payable",
          "name": "userAddress",
          "type": "address"
        },
        {
          "internalType": "bool",
          "name": "isBlacklisted",
          "type": "bool"
        },
        {
          "internalType": "uint256",
          "name": "strike",
          "type": "uint256"
        }
      ],
      "stateMutability": "view",
      "type": "function"
    },
    {
      "inputs": [],
      "name": "withdrawFromValidators",
      "outputs": [],
      "stateMutability": "payable",
      "type": "function"
    },
    {
      "stateMutability": "payable",
      "type": "receive"
    }
  ],
  "bytecode": "0x60806040526040518060400160405280600c81526020017f6566626c7671687362646c670000000000000000000000000000000000000000815250600090816200004a9190620002fc565b50600460015560966002556032600355604b600455604b600555600a60065560016007553480156200007b57600080fd5b50620003e3565b600081519050919050565b7f4e487b7100000000000000000000000000000000000000000000000000000000600052604160045260246000fd5b7f4e487b7100000000000000000000000000000000000000000000000000000000600052602260045260246000fd5b600060028204905060018216806200010457607f821691505b6020821081036200011a5762000119620000bc565b5b50919050565b60008190508160005260206000209050919050565b60006020601f8301049050919050565b600082821b905092915050565b600060088302620001847fffffffffffffffffffffffffffffffffffffffffffffffffffffffffffffffff8262000145565b62000190868362000145565b95508019841693508086168417925050509392505050565b6000819050919050565b6000819050919050565b6000620001dd620001d7620001d184620001a8565b620001b2565b620001a8565b9050919050565b6000819050919050565b620001f983620001bc565b620002116200020882620001e4565b84845462000152565b825550505050565b600090565b6200022862000219565b62000235818484620001ee565b505050565b5b818110156200025d57620002516000826200021e565b6001810190506200023b565b5050565b601f821115620002ac57620002768162000120565b620002818462000135565b8101602085101562000291578190505b620002a9620002a08562000135565b8301826200023a565b50505b505050565b600082821c905092915050565b6000620002d160001984600802620002b1565b1980831691505092915050565b6000620002ec8383620002be565b9150826002028217905092915050565b620003078262000082565b67ffffffffffffffff8111156200032357620003226200008d565b5b6200032f8254620000eb565b6200033c82828562000261565b600060209050601f8311600181146200037457600084156200035f578287015190505b6200036b8582620002de565b865550620003db565b601f198416620003848662000120565b60005b82811015620003ae5784890151825560018201915060208501945060208101905062000387565b86831015620003ce5784890151620003ca601f891682620002be565b8355505b6001600288020188555050505b505050505050565b611f0380620003f36000396000f3fe6080604052600436106101235760003560e01c806353db7e77116100a05780639f4216e8116100645780639f4216e814610460578063c5ee74eb1461049d578063cb61bd8c146104a7578063dc070671146104d2578063fa52c7d8146104dc5761016f565b806353db7e77146103765780636694ba61146103a157806372e24fdd146103cc57806373a8b6c8146103f7578063860734fb146104205761016f565b80631b2d6a7c116100e75780631b2d6a7c1461029e5780632b4e8413146102c7578063455c928c146102f257806346123d821461030957806353241b4f146103395761016f565b80630b4805d3146101b55780630b85000d146101f25780630ed337ad1461021d578063139f29a114610248578063194a4e7e146102735761016f565b3661016f5761c35034101561016d576040517f08c379a000000000000000000000000000000000000000000000000000000000815260040161016490611391565b60405180910390fd5b005b6040518060400160405280601e81526020017f46616c6c6261636b2066756e6374696f6e206973206578656375746564210000815250600090816101b39190611601565b005b3480156101c157600080fd5b506101dc60048036038101906101d79190611736565b61051b565b6040516101e99190611772565b60405180910390f35b3480156101fe57600080fd5b50610207610533565b6040516102149190611772565b60405180910390f35b34801561022957600080fd5b50610232610539565b60405161023f9190611772565b60405180910390f35b34801561025457600080fd5b5061025d61053f565b60405161026a9190611772565b60405180910390f35b34801561027f57600080fd5b50610288610545565b6040516102959190611772565b60405180910390f35b3480156102aa57600080fd5b506102c560048036038101906102c091906117de565b61054b565b005b3480156102d357600080fd5b506102dc610687565b6040516102e99190611772565b60405180910390f35b3480156102fe57600080fd5b5061030761068d565b005b34801561031557600080fd5b5061031e610806565b6040516103309695949392919061181e565b60405180910390f35b34801561034557600080fd5b50610360600480360381019061035b919061187f565b610835565b60405161036d91906118c7565b60405180910390f35b34801561038257600080fd5b5061038b61089f565b6040516103989190611772565b60405180910390f35b3480156103ad57600080fd5b506103b66108a5565b6040516103c39190611772565b60405180910390f35b3480156103d857600080fd5b506103e16108ab565b6040516103ee9190611772565b60405180910390f35b34801561040357600080fd5b5061041e600480360381019061041991906118e2565b6108b1565b005b34801561042c57600080fd5b506104476004803603810190610442919061187f565b610bef565b6040516104579493929190611999565b60405180910390f35b34801561046c57600080fd5b506104876004803603810190610482919061187f565b610c2c565b60405161049491906119ed565b60405180910390f35b6104a5610c5f565b005b3480156104b357600080fd5b506104bc610e3d565b6040516104c99190611772565b60405180910390f35b6104da610e43565b005b3480156104e857600080fd5b5061050360048036038101906104fe9190611736565b6110d5565b60405161051293929190611a29565b60405180910390f35b600d6020528060005260406000206000915090505481565b60045481565b60095481565b60085481565b60025481565b3373ffffffffffffffffffffffffffffffffffffffff16600b60003373ffffffffffffffffffffffffffffffffffffffff1673ffffffffffffffffffffffffffffffffffffffff16815260200190815260200160002060000160009054906101000a900473ffffffffffffffffffffffffffffffffffffffff1673ffffffffffffffffffffffffffffffffffffffff1614610612576040517fec752d2a00000000000000000000000000000000000000000000000000000000815260040160405180910390fd5b81600a6000600954815260200190815260200160002060000160006101000a81548160ff0219169083600581111561064d5761064c611922565b5b021790555080600a60006009600081548092919061066a90611a8f565b919050558152602001908152602001600020600301819055505050565b60075481565b6000600d60003373ffffffffffffffffffffffffffffffffffffffff1673ffffffffffffffffffffffffffffffffffffffff168152602001908152602001600020541461070f576040517f08c379a000000000000000000000000000000000000000000000000000000000815260040161070690611b23565b60405180910390fd5b600754600d60003373ffffffffffffffffffffffffffffffffffffffff1673ffffffffffffffffffffffffffffffffffffffff1681526020019081526020016000208190555033600c60006007600081548092919061076d90611a8f565b91905055815260200190815260200160002060006101000a81548173ffffffffffffffffffffffffffffffffffffffff021916908373ffffffffffffffffffffffffffffffffffffffff1602179055507ff9ac505b144a1879609b52f02d3441e478cdd9c19c5d198a2712ac5184ecef673360016007546107ee9190611b43565b6040516107fc929190611b77565b60405180910390a1565b600080600080600080600154600254600354600454600554600654955095509550955095509550909192939495565b6000600a600083815260200190815260200160002060040160003373ffffffffffffffffffffffffffffffffffffffff1673ffffffffffffffffffffffffffffffffffffffff16815260200190815260200160002060009054906101000a900460ff169050919050565b60015481565b60035481565b60065481565b3373ffffffffffffffffffffffffffffffffffffffff16600b60003373ffffffffffffffffffffffffffffffffffffffff1673ffffffffffffffffffffffffffffffffffffffff16815260200190815260200160002060000160009054906101000a900473ffffffffffffffffffffffffffffffffffffffff1673ffffffffffffffffffffffffffffffffffffffff1614610978576040517fec752d2a00000000000000000000000000000000000000000000000000000000815260040160405180910390fd5b60001515600a600084815260200190815260200160002060040160003373ffffffffffffffffffffffffffffffffffffffff1673ffffffffffffffffffffffffffffffffffffffff16815260200190815260200160002060009054906101000a900460ff16151514610a1f576040517f08c379a0000000000000000000000000000000000000000000000000000000008152600401610a1690611bec565b60405180910390fd5b60018103610a5857600a60008381526020019081526020016000206001016000815480929190610a4e90611a8f565b9190505550610a8e565b60028103610a8d57600a60008381526020019081526020016000206002016000815480929190610a8790611a8f565b91905055505b5b6001600a600084815260200190815260200160002060040160003373ffffffffffffffffffffffffffffffffffffffff1673ffffffffffffffffffffffffffffffffffffffff16815260200190815260200160002060006101000a81548160ff0219169083151502179055506005546008546064600a600086815260200190815260200160002060010154610b239190611c0c565b610b2d9190611c7d565b10610b7a57610b75600a600084815260200190815260200160002060000160009054906101000a900460ff16600a60008581526020019081526020016000206003015461112c565b610beb565b6005546008546064600a600086815260200190815260200160002060020154610ba39190611c0c565b610bad9190611c7d565b10610bea577f91944425928af46b7fe486868fbdd04cd88c32637b4c91612caa1781c1b91f8c82604051610be19190611772565b60405180910390a15b5b5050565b600a6020528060005260406000206000915090508060000160009054906101000a900460ff16908060010154908060020154908060030154905084565b600c6020528060005260406000206000915054906101000a900473ffffffffffffffffffffffffffffffffffffffff1681565b30670de0b6b3a76400008173ffffffffffffffffffffffffffffffffffffffff163111610cb8576040517f47108e3e00000000000000000000000000000000000000000000000000000000815260040160405180910390fd5b3373ffffffffffffffffffffffffffffffffffffffff16600b60003373ffffffffffffffffffffffffffffffffffffffff1673ffffffffffffffffffffffffffffffffffffffff16815260200190815260200160002060000160009054906101000a900473ffffffffffffffffffffffffffffffffffffffff1673ffffffffffffffffffffffffffffffffffffffff1614610d88576040517f08c379a0000000000000000000000000000000000000000000000000000000008152600401610d7f90611cfa565b60405180910390fd5b6000670de0b6b3a76400009050610d9f3382611280565b6000600b60003373ffffffffffffffffffffffffffffffffffffffff1673ffffffffffffffffffffffffffffffffffffffff16815260200190815260200160002060000160006101000a81548173ffffffffffffffffffffffffffffffffffffffff021916908373ffffffffffffffffffffffffffffffffffffffff16021790555060086000815480929190610e3490611d1a565b91905055505050565b60055481565b6000600d60003373ffffffffffffffffffffffffffffffffffffffff1673ffffffffffffffffffffffffffffffffffffffff1681526020019081526020016000205403610ebc576040517f3a70817d00000000000000000000000000000000000000000000000000000000815260040160405180910390fd5b33670de0b6b3a76400008173ffffffffffffffffffffffffffffffffffffffff163111610f15576040517f47108e3e00000000000000000000000000000000000000000000000000000000815260040160405180910390fd5b670de0b6b3a76400003414610f5f576040517f08c379a0000000000000000000000000000000000000000000000000000000008152600401610f5690611d8f565b60405180910390fd5b3373ffffffffffffffffffffffffffffffffffffffff16600b60003373ffffffffffffffffffffffffffffffffffffffff1673ffffffffffffffffffffffffffffffffffffffff16815260200190815260200160002060000160009054906101000a900473ffffffffffffffffffffffffffffffffffffffff1673ffffffffffffffffffffffffffffffffffffffff160361102f576040517f08c379a000000000000000000000000000000000000000000000000000000000815260040161102690611dfb565b60405180910390fd5b6110393034611280565b33600b60003373ffffffffffffffffffffffffffffffffffffffff1673ffffffffffffffffffffffffffffffffffffffff16815260200190815260200160002060000160006101000a81548173ffffffffffffffffffffffffffffffffffffffff021916908373ffffffffffffffffffffffffffffffffffffffff160217905550600860008154809291906110cd90611a8f565b919050555050565b600b6020528060005260406000206000915090508060000160009054906101000a900473ffffffffffffffffffffffffffffffffffffffff16908060000160149054906101000a900460ff16908060010154905083565b600060058111156111405761113f611922565b5b82600581111561115357611152611922565b5b03611164578060028190555061127c565b6001600581111561117857611177611922565b5b82600581111561118b5761118a611922565b5b0361119c578060038190555061127b565b600260058111156111b0576111af611922565b5b8260058111156111c3576111c2611922565b5b036111d4578060048190555061127a565b600360058111156111e8576111e7611922565b5b8260058111156111fb576111fa611922565b5b0361120c5780600581905550611279565b600460058111156112205761121f611922565b5b82600581111561123357611232611922565b5b036112445780600181905550611278565b60058081111561125757611256611922565b5b82600581111561126a57611269611922565b5b0361127757806006819055505b5b5b5b5b5b5050565b6000808373ffffffffffffffffffffffffffffffffffffffff16836040516112a790611e4c565b60006040518083038185875af1925050503d80600081146112e4576040519150601f19603f3d011682016040523d82523d6000602084013e6112e9565b606091505b50915091508161132e576040517f08c379a000000000000000000000000000000000000000000000000000000000815260040161132590611ead565b60405180910390fd5b50505050565b600082825260208201905092915050565b7f796f752063616e27742073656e64206c657373207468616e2035306b20776569600082015250565b600061137b602083611334565b915061138682611345565b602082019050919050565b600060208201905081810360008301526113aa8161136e565b9050919050565b600081519050919050565b7f4e487b7100000000000000000000000000000000000000000000000000000000600052604160045260246000fd5b7f4e487b7100000000000000000000000000000000000000000000000000000000600052602260045260246000fd5b6000600282049050600182168061143257607f821691505b602082108103611445576114446113eb565b5b50919050565b60008190508160005260206000209050919050565b60006020601f8301049050919050565b600082821b905092915050565b6000600883026114ad7fffffffffffffffffffffffffffffffffffffffffffffffffffffffffffffffff82611470565b6114b78683611470565b95508019841693508086168417925050509392505050565b6000819050919050565b6000819050919050565b60006114fe6114f96114f4846114cf565b6114d9565b6114cf565b9050919050565b6000819050919050565b611518836114e3565b61152c61152482611505565b84845461147d565b825550505050565b600090565b611541611534565b61154c81848461150f565b505050565b5b8181101561157057611565600082611539565b600181019050611552565b5050565b601f8211156115b5576115868161144b565b61158f84611460565b8101602085101561159e578190505b6115b26115aa85611460565b830182611551565b50505b505050565b600082821c905092915050565b60006115d8600019846008026115ba565b1980831691505092915050565b60006115f183836115c7565b9150826002028217905092915050565b61160a826113b1565b67ffffffffffffffff811115611623576116226113bc565b5b61162d825461141a565b611638828285611574565b600060209050601f83116001811461166b5760008415611659578287015190505b61166385826115e5565b8655506116cb565b601f1984166116798661144b565b60005b828110156116a15784890151825560018201915060208501945060208101905061167c565b868310156116be57848901516116ba601f8916826115c7565b8355505b6001600288020188555050505b505050505050565b600080fd5b600073ffffffffffffffffffffffffffffffffffffffff82169050919050565b6000611703826116d8565b9050919050565b611713816116f8565b811461171e57600080fd5b50565b6000813590506117308161170a565b92915050565b60006020828403121561174c5761174b6116d3565b5b600061175a84828501611721565b91505092915050565b61176c816114cf565b82525050565b60006020820190506117876000830184611763565b92915050565b6006811061179a57600080fd5b50565b6000813590506117ac8161178d565b92915050565b6117bb816114cf565b81146117c657600080fd5b50565b6000813590506117d8816117b2565b92915050565b600080604083850312156117f5576117f46116d3565b5b60006118038582860161179d565b9250506020611814858286016117c9565b9150509250929050565b600060c0820190506118336000830189611763565b6118406020830188611763565b61184d6040830187611763565b61185a6060830186611763565b6118676080830185611763565b61187460a0830184611763565b979650505050505050565b600060208284031215611895576118946116d3565b5b60006118a3848285016117c9565b91505092915050565b60008115159050919050565b6118c1816118ac565b82525050565b60006020820190506118dc60008301846118b8565b92915050565b600080604083850312156118f9576118f86116d3565b5b6000611907858286016117c9565b9250506020611918858286016117c9565b9150509250929050565b7f4e487b7100000000000000000000000000000000000000000000000000000000600052602160045260246000fd5b6006811061196257611961611922565b5b50565b600081905061197382611951565b919050565b600061198382611965565b9050919050565b61199381611978565b82525050565b60006080820190506119ae600083018761198a565b6119bb6020830186611763565b6119c86040830185611763565b6119d56060830184611763565b95945050505050565b6119e7816116f8565b82525050565b6000602082019050611a0260008301846119de565b92915050565b6000611a13826116d8565b9050919050565b611a2381611a08565b82525050565b6000606082019050611a3e6000830186611a1a565b611a4b60208301856118b8565b611a586040830184611763565b949350505050565b7f4e487b7100000000000000000000000000000000000000000000000000000000600052601160045260246000fd5b6000611a9a826114cf565b91507fffffffffffffffffffffffffffffffffffffffffffffffffffffffffffffffff8203611acc57611acb611a60565b5b600182019050919050565b7f7573657220616c72656164792065786973740000000000000000000000000000600082015250565b6000611b0d601283611334565b9150611b1882611ad7565b602082019050919050565b60006020820190508181036000830152611b3c81611b00565b9050919050565b6000611b4e826114cf565b9150611b59836114cf565b9250828203905081811115611b7157611b70611a60565b5b92915050565b6000604082019050611b8c60008301856119de565b611b996020830184611763565b9392505050565b7f616c726561647920766f74656400000000000000000000000000000000000000600082015250565b6000611bd6600d83611334565b9150611be182611ba0565b602082019050919050565b60006020820190508181036000830152611c0581611bc9565b9050919050565b6000611c17826114cf565b9150611c22836114cf565b9250828202611c30816114cf565b91508282048414831517611c4757611c46611a60565b5b5092915050565b7f4e487b7100000000000000000000000000000000000000000000000000000000600052601260045260246000fd5b6000611c88826114cf565b9150611c93836114cf565b925082611ca357611ca2611c4e565b5b828204905092915050565b7f596f7520617265206e6f742076616c696461746f727300000000000000000000600082015250565b6000611ce4601683611334565b9150611cef82611cae565b602082019050919050565b60006020820190508181036000830152611d1381611cd7565b9050919050565b6000611d25826114cf565b915060008203611d3857611d37611a60565b5b600182039050919050565b7f73656e6420312065746800000000000000000000000000000000000000000000600082015250565b6000611d79600a83611334565b9150611d8482611d43565b602082019050919050565b60006020820190508181036000830152611da881611d6c565b9050919050565b7f596f7520616c7265616479206172650000000000000000000000000000000000600082015250565b6000611de5600f83611334565b9150611df082611daf565b602082019050919050565b60006020820190508181036000830152611e1481611dd8565b9050919050565b600081905092915050565b50565b6000611e36600083611e1b565b9150611e4182611e26565b600082019050919050565b6000611e5782611e29565b9150819050919050565b7f4661696c656420746f2073656e64204574686572000000000000000000000000600082015250565b6000611e97601483611334565b9150611ea282611e61565b602082019050919050565b60006020820190508181036000830152611ec681611e8a565b905091905056fea2646970667358221220bb37c17e9f352a07deb0067205e581f50d94f33ac119daf236b68f550b6c9fe964736f6c63430008150033",
  "linkReferences": {},
  "deployedLinkReferences": {}
}