{
  "_format": "hh-sol-artifact-1",
  "contractName": "BetWaveDAO",
  "sourceName": "contracts/BetWaveDAO.sol",
  "abi": [
    {
      "inputs": [],
      "name": "ReentrancyGuardReentrantCall",
      "type": "error"
    },
    {
      "inputs": [],
      "name": "insufficientBalance",
      "type": "error"
    },
    {
      "inputs": [],
      "name": "notRegistered",
      "type": "error"
    },
    {
      "inputs": [],
      "name": "notValidator",
      "type": "error"
    },
    {
      "anonymous": false,
      "inputs": [
        {
          "indexed": false,
          "internalType": "enum BetWaveDAO.VoteType",
          "name": "",
          "type": "uint8"
        },
        {
          "indexed": false,
          "internalType": "uint256",
          "name": "",
          "type": "uint256"
        }
      ],
      "name": "newDAOVote",
      "type": "event"
    },
    {
      "anonymous": false,
      "inputs": [
        {
          "indexed": false,
          "internalType": "address",
          "name": "",
          "type": "address"
        },
        {
          "indexed": false,
          "internalType": "uint256",
          "name": "",
          "type": "uint256"
        }
      ],
      "name": "newUser",
      "type": "event"
    },
    {
      "anonymous": false,
      "inputs": [
        {
          "indexed": false,
          "internalType": "address",
          "name": "",
          "type": "address"
        }
      ],
      "name": "newValidator",
      "type": "event"
    },
    {
      "anonymous": false,
      "inputs": [
        {
          "indexed": false,
          "internalType": "address",
          "name": "",
          "type": "address"
        },
        {
          "indexed": false,
          "internalType": "uint256",
          "name": "",
          "type": "uint256"
        },
        {
          "indexed": false,
          "internalType": "uint256",
          "name": "",
          "type": "uint256"
        }
      ],
      "name": "setDAOVote",
      "type": "event"
    },
    {
      "anonymous": false,
      "inputs": [
        {
          "indexed": false,
          "internalType": "uint256",
          "name": "",
          "type": "uint256"
        }
      ],
      "name": "voteRejected",
      "type": "event"
    },
    {
      "anonymous": false,
      "inputs": [
        {
          "indexed": false,
          "internalType": "address",
          "name": "",
          "type": "address"
        },
        {
          "indexed": false,
          "internalType": "uint256",
          "name": "",
          "type": "uint256"
        }
      ],
      "name": "withdrawValidator",
      "type": "event"
    },
    {
      "stateMutability": "payable",
      "type": "fallback"
    },
    {
      "inputs": [],
      "name": "DAOQuorum",
      "outputs": [
        {
          "internalType": "uint8",
          "name": "",
          "type": "uint8"
        }
      ],
      "stateMutability": "view",
      "type": "function"
    },
    {
      "inputs": [
        {
          "internalType": "uint64",
          "name": "",
          "type": "uint64"
        }
      ],
      "name": "DAOVoteList",
      "outputs": [
        {
          "internalType": "enum BetWaveDAO.VoteType",
          "name": "voteType",
          "type": "uint8"
        },
        {
          "internalType": "uint256",
          "name": "voteFor",
          "type": "uint256"
        },
        {
          "internalType": "uint256",
          "name": "voteAgainst",
          "type": "uint256"
        },
        {
          "internalType": "uint8",
          "name": "newValue",
          "type": "uint8"
        },
        {
          "internalType": "bool",
          "name": "voteEnded",
          "type": "bool"
        }
      ],
      "stateMutability": "view",
      "type": "function"
    },
    {
      "inputs": [],
      "name": "addUser",
      "outputs": [],
      "stateMutability": "nonpayable",
      "type": "function"
    },
    {
      "inputs": [],
      "name": "addValidators",
      "outputs": [],
      "stateMutability": "payable",
      "type": "function"
    },
    {
      "inputs": [
        {
          "internalType": "enum BetWaveDAO.VoteType",
          "name": "_voteType",
          "type": "uint8"
        },
        {
          "internalType": "uint8",
          "name": "_newValue",
          "type": "uint8"
        }
      ],
      "name": "askDAOVote",
      "outputs": [],
      "stateMutability": "nonpayable",
      "type": "function"
    },
    {
      "inputs": [],
      "name": "betQuorum",
      "outputs": [
        {
          "internalType": "uint8",
          "name": "",
          "type": "uint8"
        }
      ],
      "stateMutability": "view",
      "type": "function"
    },
    {
      "inputs": [],
      "name": "creatorFees",
      "outputs": [
        {
          "internalType": "uint8",
          "name": "",
          "type": "uint8"
        }
      ],
      "stateMutability": "view",
      "type": "function"
    },
    {
      "inputs": [],
      "name": "daoVoteNumber",
      "outputs": [
        {
          "internalType": "uint64",
          "name": "",
          "type": "uint64"
        }
      ],
      "stateMutability": "view",
      "type": "function"
    },
    {
      "inputs": [],
      "name": "getDaoControlValue",
      "outputs": [
        {
          "internalType": "uint256",
          "name": "",
          "type": "uint256"
        },
        {
          "internalType": "uint256",
          "name": "",
          "type": "uint256"
        },
        {
          "internalType": "uint256",
          "name": "",
          "type": "uint256"
        },
        {
          "internalType": "uint256",
          "name": "",
          "type": "uint256"
        },
        {
          "internalType": "uint256",
          "name": "",
          "type": "uint256"
        },
        {
          "internalType": "uint256",
          "name": "",
          "type": "uint256"
        }
      ],
      "stateMutability": "view",
      "type": "function"
    },
    {
      "inputs": [
        {
          "internalType": "uint64",
          "name": "_id",
          "type": "uint64"
        }
      ],
      "name": "getDaoVoteHasVoted",
      "outputs": [
        {
          "internalType": "bool",
          "name": "",
          "type": "bool"
        }
      ],
      "stateMutability": "view",
      "type": "function"
    },
    {
      "inputs": [],
      "name": "platformFees",
      "outputs": [
        {
          "internalType": "uint8",
          "name": "",
          "type": "uint8"
        }
      ],
      "stateMutability": "view",
      "type": "function"
    },
    {
      "inputs": [
        {
          "internalType": "uint64",
          "name": "_id",
          "type": "uint64"
        },
        {
          "internalType": "uint8",
          "name": "_option",
          "type": "uint8"
        }
      ],
      "name": "setDaoVote",
      "outputs": [],
      "stateMutability": "nonpayable",
      "type": "function"
    },
    {
      "inputs": [
        {
          "internalType": "uint64",
          "name": "",
          "type": "uint64"
        }
      ],
      "name": "userList",
      "outputs": [
        {
          "internalType": "address",
          "name": "",
          "type": "address"
        }
      ],
      "stateMutability": "view",
      "type": "function"
    },
    {
      "inputs": [],
      "name": "userNumber",
      "outputs": [
        {
          "internalType": "uint64",
          "name": "",
          "type": "uint64"
        }
      ],
      "stateMutability": "view",
      "type": "function"
    },
    {
      "inputs": [
        {
          "internalType": "address",
          "name": "",
          "type": "address"
        }
      ],
      "name": "userToId",
      "outputs": [
        {
          "internalType": "uint64",
          "name": "",
          "type": "uint64"
        }
      ],
      "stateMutability": "view",
      "type": "function"
    },
    {
      "inputs": [],
      "name": "validatorFees",
      "outputs": [
        {
          "internalType": "uint8",
          "name": "",
          "type": "uint8"
        }
      ],
      "stateMutability": "view",
      "type": "function"
    },
    {
      "inputs": [],
      "name": "validatorNumber",
      "outputs": [
        {
          "internalType": "uint16",
          "name": "",
          "type": "uint16"
        }
      ],
      "stateMutability": "view",
      "type": "function"
    },
    {
      "inputs": [],
      "name": "validatorNumberRequired",
      "outputs": [
        {
          "internalType": "uint16",
          "name": "",
          "type": "uint16"
        }
      ],
      "stateMutability": "view",
      "type": "function"
    },
    {
      "inputs": [
        {
          "internalType": "address",
          "name": "",
          "type": "address"
        }
      ],
      "name": "validators",
      "outputs": [
        {
          "internalType": "address payable",
          "name": "userAddress",
          "type": "address"
        },
        {
          "internalType": "bool",
          "name": "isBlacklisted",
          "type": "bool"
        },
        {
          "internalType": "uint256",
          "name": "strike",
          "type": "uint256"
        }
      ],
      "stateMutability": "view",
      "type": "function"
    },
    {
      "inputs": [],
      "name": "withdrawFromValidators",
      "outputs": [],
      "stateMutability": "payable",
      "type": "function"
    },
    {
      "stateMutability": "payable",
      "type": "receive"
    }
  ],
  "bytecode": "0x60806040526096600160006101000a81548160ff021916908360ff16021790555060326001806101000a81548160ff021916908360ff160217905550604b600160026101000a81548160ff021916908360ff160217905550604b600160036101000a81548160ff021916908360ff160217905550600a600160046101000a81548160ff021916908360ff1602179055506004600160056101000a81548161ffff021916908361ffff16021790555060018060096101000a81548167ffffffffffffffff021916908367ffffffffffffffff1602179055503480156100e257600080fd5b5060016000819055506124e8806100fa6000396000f3fe6080604052600436106101235760003560e01c8063494c3ee3116100a0578063cb61bd8c11610064578063cb61bd8c14610444578063d495e0571461046f578063dc07067114610498578063e55bd9d0146104a2578063fa52c7d8146104df5761016f565b8063494c3ee31461039057806353db7e77146103b95780636694ba61146103e457806372e24fdd1461040f578063c5ee74eb1461043a5761016f565b806318dc4295116100e757806318dc4295146102b6578063194a4e7e146102f35780632b4e84131461031e578063455c928c1461034957806346123d82146103605761016f565b80630b4805d3146101b75780630b85000d146101f45780630ed337ad1461021f578063139f29a11461024a57806313bb35a5146102755761016f565b3661016f5761c35034101561016d576040517f08c379a0000000000000000000000000000000000000000000000000000000008152600401610164906119b3565b60405180910390fd5b005b600080369050146101b5576040517f08c379a00000000000000000000000000000000000000000000000000000000081526004016101ac90611a1f565b60405180910390fd5b005b3480156101c357600080fd5b506101de60048036038101906101d99190611aa2565b61051e565b6040516101eb9190611af2565b60405180910390f35b34801561020057600080fd5b50610209610545565b6040516102169190611b29565b60405180910390f35b34801561022b57600080fd5b50610234610558565b6040516102419190611af2565b60405180910390f35b34801561025657600080fd5b5061025f610572565b60405161026c9190611b61565b60405180910390f35b34801561028157600080fd5b5061029c60048036038101906102979190611ba8565b610586565b6040516102ad959493929190611c80565b60405180910390f35b3480156102c257600080fd5b506102dd60048036038101906102d89190611ba8565b6105e3565b6040516102ea9190611ce2565b60405180910390f35b3480156102ff57600080fd5b50610308610616565b6040516103159190611b29565b60405180910390f35b34801561032a57600080fd5b50610333610629565b6040516103409190611af2565b60405180910390f35b34801561035557600080fd5b5061035e610643565b005b34801561036c57600080fd5b5061037561086c565b60405161038796959493929190611cfd565b60405180910390f35b34801561039c57600080fd5b506103b760048036038101906103b29190611d8a565b61090d565b005b3480156103c557600080fd5b506103ce610e03565b6040516103db9190611b61565b60405180910390f35b3480156103f057600080fd5b506103f9610e17565b6040516104069190611b29565b60405180910390f35b34801561041b57600080fd5b50610424610e28565b6040516104319190611b29565b60405180910390f35b610442610e3b565b005b34801561045057600080fd5b50610459611095565b6040516104669190611b29565b60405180910390f35b34801561047b57600080fd5b5061049660048036038101906104919190611def565b6110a8565b005b6104a06112a2565b005b3480156104ae57600080fd5b506104c960048036038101906104c49190611ba8565b6115ad565b6040516104d69190611e2f565b60405180910390f35b3480156104eb57600080fd5b5061050660048036038101906105019190611aa2565b61162b565b60405161051593929190611e6b565b60405180910390f35b60056020528060005260406000206000915054906101000a900467ffffffffffffffff1681565b600160029054906101000a900460ff1681565b600160119054906101000a900467ffffffffffffffff1681565b600160079054906101000a900461ffff1681565b60026020528060005260406000206000915090508060000160009054906101000a900460ff16908060010154908060020154908060030160009054906101000a900460ff16908060030160019054906101000a900460ff16905085565b60046020528060005260406000206000915054906101000a900473ffffffffffffffffffffffffffffffffffffffff1681565b600160009054906101000a900460ff1681565b600160099054906101000a900467ffffffffffffffff1681565b6000600560003373ffffffffffffffffffffffffffffffffffffffff1673ffffffffffffffffffffffffffffffffffffffff16815260200190815260200160002060009054906101000a900467ffffffffffffffff1667ffffffffffffffff16146106e3576040517f08c379a00000000000000000000000000000000000000000000000000000000081526004016106da90611eee565b60405180910390fd5b600160099054906101000a900467ffffffffffffffff16600560003373ffffffffffffffffffffffffffffffffffffffff1673ffffffffffffffffffffffffffffffffffffffff16815260200190815260200160002060006101000a81548167ffffffffffffffff021916908367ffffffffffffffff16021790555033600460006001600981819054906101000a900467ffffffffffffffff168092919061078a90611f3d565b91906101000a81548167ffffffffffffffff021916908367ffffffffffffffff16021790555067ffffffffffffffff1667ffffffffffffffff16815260200190815260200160002060006101000a81548173ffffffffffffffffffffffffffffffffffffffff021916908373ffffffffffffffffffffffffffffffffffffffff1602179055507ff9ac505b144a1879609b52f02d3441e478cdd9c19c5d198a2712ac5184ecef673360018060099054906101000a900467ffffffffffffffff166108549190611f6d565b604051610862929190611fe4565b60405180910390a1565b600080600080600080600160059054906101000a900461ffff16600160009054906101000a900460ff1660018054906101000a900460ff16600160029054906101000a900460ff16600160039054906101000a900460ff16600160049054906101000a900460ff168561ffff1695508460ff1694508360ff1693508260ff1692508160ff1691508060ff169050955095509550955095509550909192939495565b3373ffffffffffffffffffffffffffffffffffffffff16600360003373ffffffffffffffffffffffffffffffffffffffff1673ffffffffffffffffffffffffffffffffffffffff16815260200190815260200160002060000160009054906101000a900473ffffffffffffffffffffffffffffffffffffffff1673ffffffffffffffffffffffffffffffffffffffff16146109d4576040517fec752d2a00000000000000000000000000000000000000000000000000000000815260040160405180910390fd5b60001515600260008467ffffffffffffffff1667ffffffffffffffff16815260200190815260200160002060040160003373ffffffffffffffffffffffffffffffffffffffff1673ffffffffffffffffffffffffffffffffffffffff16815260200190815260200160002060009054906101000a900460ff16151514610a8f576040517f08c379a0000000000000000000000000000000000000000000000000000000008152600401610a8690612059565b60405180910390fd5b60018160ff1603610adf57600260008367ffffffffffffffff1667ffffffffffffffff1681526020019081526020016000206001016000815480929190610ad590612079565b9190505550610b2c565b60028160ff1603610b2b57600260008367ffffffffffffffff1667ffffffffffffffff1681526020019081526020016000206002016000815480929190610b2590612079565b91905055505b5b6001600260008467ffffffffffffffff1667ffffffffffffffff16815260200190815260200160002060040160003373ffffffffffffffffffffffffffffffffffffffff1673ffffffffffffffffffffffffffffffffffffffff16815260200190815260200160002060006101000a81548160ff0219169083151502179055507f57fa7ee32e77146f6e9aadee04f4b229dea9dd0ee4e030569ae2c317a6635f86338383604051610bdf939291906120f2565b60405180910390a1600160039054906101000a900460ff1660ff16600160079054906101000a900461ffff1661ffff166064600260008667ffffffffffffffff1667ffffffffffffffff16815260200190815260200160002060010154610c469190612129565b610c50919061219a565b10610d1557610ccd600260008467ffffffffffffffff1667ffffffffffffffff16815260200190815260200160002060000160009054906101000a900460ff16600260008567ffffffffffffffff1667ffffffffffffffff16815260200190815260200160002060030160009054906101000a900460ff16611682565b6001600260008467ffffffffffffffff1667ffffffffffffffff16815260200190815260200160002060030160016101000a81548160ff021916908315150217905550610dff565b600160039054906101000a900460ff1660ff16600160079054906101000a900461ffff1661ffff166064600260008667ffffffffffffffff1667ffffffffffffffff16815260200190815260200160002060020154610d749190612129565b610d7e919061219a565b10610dfe576001600260008467ffffffffffffffff1667ffffffffffffffff16815260200190815260200160002060030160016101000a81548160ff0219169083151502179055507f91944425928af46b7fe486868fbdd04cd88c32637b4c91612caa1781c1b91f8c82604051610df591906121cb565b60405180910390a15b5b5050565b600160059054906101000a900461ffff1681565b60018054906101000a900460ff1681565b600160049054906101000a900460ff1681565b610e43611852565b30670de0b6b3a76400008173ffffffffffffffffffffffffffffffffffffffff163111610e9c576040517f47108e3e00000000000000000000000000000000000000000000000000000000815260040160405180910390fd5b3373ffffffffffffffffffffffffffffffffffffffff16600360003373ffffffffffffffffffffffffffffffffffffffff1673ffffffffffffffffffffffffffffffffffffffff16815260200190815260200160002060000160009054906101000a900473ffffffffffffffffffffffffffffffffffffffff1673ffffffffffffffffffffffffffffffffffffffff1614610f6c576040517f08c379a0000000000000000000000000000000000000000000000000000000008152600401610f6390612232565b60405180910390fd5b6000670de0b6b3a76400009050610f833382611898565b6000600360003373ffffffffffffffffffffffffffffffffffffffff1673ffffffffffffffffffffffffffffffffffffffff16815260200190815260200160002060000160006101000a81548173ffffffffffffffffffffffffffffffffffffffff021916908373ffffffffffffffffffffffffffffffffffffffff1602179055506001600781819054906101000a900461ffff168092919061102590612252565b91906101000a81548161ffff021916908361ffff160217905550507fb3bc30c2eb83dd1ef4aad192471c667c224e080e78df2817341b34cc3f7c0cdb33600160079054906101000a900461ffff166040516110819291906122ac565b60405180910390a1505061109361194c565b565b600160039054906101000a900460ff1681565b3373ffffffffffffffffffffffffffffffffffffffff16600360003373ffffffffffffffffffffffffffffffffffffffff1673ffffffffffffffffffffffffffffffffffffffff16815260200190815260200160002060000160009054906101000a900473ffffffffffffffffffffffffffffffffffffffff1673ffffffffffffffffffffffffffffffffffffffff161461116f576040517fec752d2a00000000000000000000000000000000000000000000000000000000815260040160405180910390fd5b8160026000600160119054906101000a900467ffffffffffffffff1667ffffffffffffffff1667ffffffffffffffff16815260200190815260200160002060000160006101000a81548160ff021916908360058111156111d2576111d1611bd5565b5b021790555080600260006001601181819054906101000a900467ffffffffffffffff168092919061120290611f3d565b91906101000a81548167ffffffffffffffff021916908367ffffffffffffffff16021790555067ffffffffffffffff1667ffffffffffffffff16815260200190815260200160002060030160006101000a81548160ff021916908360ff1602179055507f7db73385b391e7e7978c190c3b502ccedba9406d603a02455ab6abf83edaf73382826040516112969291906122d5565b60405180910390a15050565b6000600560003373ffffffffffffffffffffffffffffffffffffffff1673ffffffffffffffffffffffffffffffffffffffff16815260200190815260200160002060009054906101000a900467ffffffffffffffff1667ffffffffffffffff1603611339576040517f3a70817d00000000000000000000000000000000000000000000000000000000815260040160405180910390fd5b33670de0b6b3a76400008173ffffffffffffffffffffffffffffffffffffffff163111611392576040517f47108e3e00000000000000000000000000000000000000000000000000000000815260040160405180910390fd5b670de0b6b3a76400003410156113dd576040517f08c379a00000000000000000000000000000000000000000000000000000000081526004016113d49061234a565b60405180910390fd5b3373ffffffffffffffffffffffffffffffffffffffff16600360003373ffffffffffffffffffffffffffffffffffffffff1673ffffffffffffffffffffffffffffffffffffffff16815260200190815260200160002060000160009054906101000a900473ffffffffffffffffffffffffffffffffffffffff1673ffffffffffffffffffffffffffffffffffffffff16036114ad576040517f08c379a00000000000000000000000000000000000000000000000000000000081526004016114a4906123b6565b60405180910390fd5b6114b73034611898565b33600360003373ffffffffffffffffffffffffffffffffffffffff1673ffffffffffffffffffffffffffffffffffffffff16815260200190815260200160002060000160006101000a81548173ffffffffffffffffffffffffffffffffffffffff021916908373ffffffffffffffffffffffffffffffffffffffff1602179055506001600781819054906101000a900461ffff1680929190611558906123d6565b91906101000a81548161ffff021916908361ffff160217905550507f065c11cc5f89e47625944fdc09a187635ac139aaa42f9632d675d57e39b1473d336040516115a29190611ce2565b60405180910390a150565b6000600260008367ffffffffffffffff1667ffffffffffffffff16815260200190815260200160002060040160003373ffffffffffffffffffffffffffffffffffffffff1673ffffffffffffffffffffffffffffffffffffffff16815260200190815260200160002060009054906101000a900460ff169050919050565b60036020528060005260406000206000915090508060000160009054906101000a900473ffffffffffffffffffffffffffffffffffffffff16908060000160149054906101000a900460ff16908060010154905083565b6000600581111561169657611695611bd5565b5b8260058111156116a9576116a8611bd5565b5b036116ce5780600160006101000a81548160ff021916908360ff16021790555061184e565b600160058111156116e2576116e1611bd5565b5b8260058111156116f5576116f4611bd5565b5b0361171957806001806101000a81548160ff021916908360ff16021790555061184d565b6002600581111561172d5761172c611bd5565b5b8260058111156117405761173f611bd5565b5b036117655780600160026101000a81548160ff021916908360ff16021790555061184c565b6003600581111561177957611778611bd5565b5b82600581111561178c5761178b611bd5565b5b036117b15780600160036101000a81548160ff021916908360ff16021790555061184b565b600460058111156117c5576117c4611bd5565b5b8260058111156117d8576117d7611bd5565b5b03611802578060ff16600160056101000a81548161ffff021916908361ffff16021790555061184a565b60058081111561181557611814611bd5565b5b82600581111561182857611827611bd5565b5b036118495780600160046101000a81548160ff021916908360ff1602179055505b5b5b5b5b5b5050565b60026000540361188e576040517f3ee5aeb500000000000000000000000000000000000000000000000000000000815260040160405180910390fd5b6002600081905550565b6000808373ffffffffffffffffffffffffffffffffffffffff16836040516118bf90612431565b60006040518083038185875af1925050503d80600081146118fc576040519150601f19603f3d011682016040523d82523d6000602084013e611901565b606091505b509150915081611946576040517f08c379a000000000000000000000000000000000000000000000000000000000815260040161193d90612492565b60405180910390fd5b50505050565b6001600081905550565b600082825260208201905092915050565b7f796f752063616e27742073656e64206c657373207468616e2035306b20776569600082015250565b600061199d602083611956565b91506119a882611967565b602082019050919050565b600060208201905081810360008301526119cc81611990565b9050919050565b7f4e6f2066616c6c6261636b206465736972656400000000000000000000000000600082015250565b6000611a09601383611956565b9150611a14826119d3565b602082019050919050565b60006020820190508181036000830152611a38816119fc565b9050919050565b600080fd5b600073ffffffffffffffffffffffffffffffffffffffff82169050919050565b6000611a6f82611a44565b9050919050565b611a7f81611a64565b8114611a8a57600080fd5b50565b600081359050611a9c81611a76565b92915050565b600060208284031215611ab857611ab7611a3f565b5b6000611ac684828501611a8d565b91505092915050565b600067ffffffffffffffff82169050919050565b611aec81611acf565b82525050565b6000602082019050611b076000830184611ae3565b92915050565b600060ff82169050919050565b611b2381611b0d565b82525050565b6000602082019050611b3e6000830184611b1a565b92915050565b600061ffff82169050919050565b611b5b81611b44565b82525050565b6000602082019050611b766000830184611b52565b92915050565b611b8581611acf565b8114611b9057600080fd5b50565b600081359050611ba281611b7c565b92915050565b600060208284031215611bbe57611bbd611a3f565b5b6000611bcc84828501611b93565b91505092915050565b7f4e487b7100000000000000000000000000000000000000000000000000000000600052602160045260246000fd5b60068110611c1557611c14611bd5565b5b50565b6000819050611c2682611c04565b919050565b6000611c3682611c18565b9050919050565b611c4681611c2b565b82525050565b6000819050919050565b611c5f81611c4c565b82525050565b60008115159050919050565b611c7a81611c65565b82525050565b600060a082019050611c956000830188611c3d565b611ca26020830187611c56565b611caf6040830186611c56565b611cbc6060830185611b1a565b611cc96080830184611c71565b9695505050505050565b611cdc81611a64565b82525050565b6000602082019050611cf76000830184611cd3565b92915050565b600060c082019050611d126000830189611c56565b611d1f6020830188611c56565b611d2c6040830187611c56565b611d396060830186611c56565b611d466080830185611c56565b611d5360a0830184611c56565b979650505050505050565b611d6781611b0d565b8114611d7257600080fd5b50565b600081359050611d8481611d5e565b92915050565b60008060408385031215611da157611da0611a3f565b5b6000611daf85828601611b93565b9250506020611dc085828601611d75565b9150509250929050565b60068110611dd757600080fd5b50565b600081359050611de981611dca565b92915050565b60008060408385031215611e0657611e05611a3f565b5b6000611e1485828601611dda565b9250506020611e2585828601611d75565b9150509250929050565b6000602082019050611e446000830184611c71565b92915050565b6000611e5582611a44565b9050919050565b611e6581611e4a565b82525050565b6000606082019050611e806000830186611e5c565b611e8d6020830185611c71565b611e9a6040830184611c56565b949350505050565b7f7573657220616c72656164792065786973740000000000000000000000000000600082015250565b6000611ed8601283611956565b9150611ee382611ea2565b602082019050919050565b60006020820190508181036000830152611f0781611ecb565b9050919050565b7f4e487b7100000000000000000000000000000000000000000000000000000000600052601160045260246000fd5b6000611f4882611acf565b915067ffffffffffffffff8203611f6257611f61611f0e565b5b600182019050919050565b6000611f7882611acf565b9150611f8383611acf565b9250828203905067ffffffffffffffff811115611fa357611fa2611f0e565b5b92915050565b6000819050919050565b6000611fce611fc9611fc484611acf565b611fa9565b611c4c565b9050919050565b611fde81611fb3565b82525050565b6000604082019050611ff96000830185611cd3565b6120066020830184611fd5565b9392505050565b7f616c726561647920766f74656400000000000000000000000000000000000000600082015250565b6000612043600d83611956565b915061204e8261200d565b602082019050919050565b6000602082019050818103600083015261207281612036565b9050919050565b600061208482611c4c565b91507fffffffffffffffffffffffffffffffffffffffffffffffffffffffffffffffff82036120b6576120b5611f0e565b5b600182019050919050565b60006120dc6120d76120d284611b0d565b611fa9565b611c4c565b9050919050565b6120ec816120c1565b82525050565b60006060820190506121076000830186611cd3565b6121146020830185611fd5565b61212160408301846120e3565b949350505050565b600061213482611c4c565b915061213f83611c4c565b925082820261214d81611c4c565b9150828204841483151761216457612163611f0e565b5b5092915050565b7f4e487b7100000000000000000000000000000000000000000000000000000000600052601260045260246000fd5b60006121a582611c4c565b91506121b083611c4c565b9250826121c0576121bf61216b565b5b828204905092915050565b60006020820190506121e06000830184611fd5565b92915050565b7f596f7520617265206e6f742076616c696461746f727300000000000000000000600082015250565b600061221c601683611956565b9150612227826121e6565b602082019050919050565b6000602082019050818103600083015261224b8161220f565b9050919050565b600061225d82611b44565b9150600082036122705761226f611f0e565b5b600182039050919050565b600061229661229161228c84611b44565b611fa9565b611c4c565b9050919050565b6122a68161227b565b82525050565b60006040820190506122c16000830185611cd3565b6122ce602083018461229d565b9392505050565b60006040820190506122ea6000830185611c3d565b6122f760208301846120e3565b9392505050565b7f73656e6420312065746800000000000000000000000000000000000000000000600082015250565b6000612334600a83611956565b915061233f826122fe565b602082019050919050565b6000602082019050818103600083015261236381612327565b9050919050565b7f596f7520616c7265616479206172650000000000000000000000000000000000600082015250565b60006123a0600f83611956565b91506123ab8261236a565b602082019050919050565b600060208201905081810360008301526123cf81612393565b9050919050565b60006123e182611b44565b915061ffff82036123f5576123f4611f0e565b5b600182019050919050565b600081905092915050565b50565b600061241b600083612400565b91506124268261240b565b600082019050919050565b600061243c8261240e565b9150819050919050565b7f4661696c656420746f2073656e64204574686572000000000000000000000000600082015250565b600061247c601483611956565b915061248782612446565b602082019050919050565b600060208201905081810360008301526124ab8161246f565b905091905056fea264697066735822122040da9f5485aa68e7c777cdf72ffdb889076bc39ec027ca94ad638998f6844a2264736f6c63430008150033",
  "linkReferences": {},
  "deployedLinkReferences": {}
}