{
  "_format": "hh-sol-artifact-1",
  "contractName": "BetWaveDAO",
  "sourceName": "contracts/BetWaveDAO.sol",
  "abi": [
    {
      "inputs": [],
      "name": "insufficientBalance",
      "type": "error"
    },
    {
      "inputs": [],
      "name": "notRegistered",
      "type": "error"
    },
    {
      "inputs": [],
      "name": "notValidator",
      "type": "error"
    },
    {
      "anonymous": false,
      "inputs": [
        {
          "indexed": false,
          "internalType": "address",
          "name": "",
          "type": "address"
        },
        {
          "indexed": false,
          "internalType": "uint256",
          "name": "",
          "type": "uint256"
        }
      ],
      "name": "newUser",
      "type": "event"
    },
    {
      "anonymous": false,
      "inputs": [
        {
          "indexed": false,
          "internalType": "uint256",
          "name": "",
          "type": "uint256"
        }
      ],
      "name": "voteRejected",
      "type": "event"
    },
    {
      "stateMutability": "payable",
      "type": "fallback"
    },
    {
      "inputs": [],
      "name": "DAOQuorum",
      "outputs": [
        {
          "internalType": "uint256",
          "name": "",
          "type": "uint256"
        }
      ],
      "stateMutability": "view",
      "type": "function"
    },
    {
      "inputs": [
        {
          "internalType": "uint256",
          "name": "",
          "type": "uint256"
        }
      ],
      "name": "DAOVoteList",
      "outputs": [
        {
          "internalType": "enum BetWaveDAO.VoteType",
          "name": "voteType",
          "type": "uint8"
        },
        {
          "internalType": "uint256",
          "name": "voteFor",
          "type": "uint256"
        },
        {
          "internalType": "uint256",
          "name": "voteAgainst",
          "type": "uint256"
        },
        {
          "internalType": "uint256",
          "name": "newValue",
          "type": "uint256"
        }
      ],
      "stateMutability": "view",
      "type": "function"
    },
    {
      "inputs": [],
      "name": "addUser",
      "outputs": [],
      "stateMutability": "nonpayable",
      "type": "function"
    },
    {
      "inputs": [],
      "name": "addValidators",
      "outputs": [],
      "stateMutability": "payable",
      "type": "function"
    },
    {
      "inputs": [
        {
          "internalType": "enum BetWaveDAO.VoteType",
          "name": "_voteType",
          "type": "uint8"
        },
        {
          "internalType": "uint256",
          "name": "_newValue",
          "type": "uint256"
        }
      ],
      "name": "askDAOVote",
      "outputs": [],
      "stateMutability": "nonpayable",
      "type": "function"
    },
    {
      "inputs": [],
      "name": "betQuorum",
      "outputs": [
        {
          "internalType": "uint256",
          "name": "",
          "type": "uint256"
        }
      ],
      "stateMutability": "view",
      "type": "function"
    },
    {
      "inputs": [],
      "name": "creatorFees",
      "outputs": [
        {
          "internalType": "uint256",
          "name": "",
          "type": "uint256"
        }
      ],
      "stateMutability": "view",
      "type": "function"
    },
    {
      "inputs": [],
      "name": "daoVoteNumber",
      "outputs": [
        {
          "internalType": "uint256",
          "name": "",
          "type": "uint256"
        }
      ],
      "stateMutability": "view",
      "type": "function"
    },
    {
      "inputs": [],
      "name": "getDaoControlValue",
      "outputs": [
        {
          "internalType": "uint256",
          "name": "",
          "type": "uint256"
        },
        {
          "internalType": "uint256",
          "name": "",
          "type": "uint256"
        },
        {
          "internalType": "uint256",
          "name": "",
          "type": "uint256"
        },
        {
          "internalType": "uint256",
          "name": "",
          "type": "uint256"
        },
        {
          "internalType": "uint256",
          "name": "",
          "type": "uint256"
        },
        {
          "internalType": "uint256",
          "name": "",
          "type": "uint256"
        }
      ],
      "stateMutability": "view",
      "type": "function"
    },
    {
      "inputs": [
        {
          "internalType": "uint256",
          "name": "_id",
          "type": "uint256"
        }
      ],
      "name": "getDaoVoteHasVoted",
      "outputs": [
        {
          "internalType": "bool",
          "name": "",
          "type": "bool"
        }
      ],
      "stateMutability": "view",
      "type": "function"
    },
    {
      "inputs": [],
      "name": "platformFees",
      "outputs": [
        {
          "internalType": "uint256",
          "name": "",
          "type": "uint256"
        }
      ],
      "stateMutability": "view",
      "type": "function"
    },
    {
      "inputs": [
        {
          "internalType": "uint256",
          "name": "_id",
          "type": "uint256"
        },
        {
          "internalType": "uint256",
          "name": "_option",
          "type": "uint256"
        }
      ],
      "name": "setDaoVote",
      "outputs": [],
      "stateMutability": "nonpayable",
      "type": "function"
    },
    {
      "inputs": [
        {
          "internalType": "uint256",
          "name": "",
          "type": "uint256"
        }
      ],
      "name": "userList",
      "outputs": [
        {
          "internalType": "address",
          "name": "",
          "type": "address"
        }
      ],
      "stateMutability": "view",
      "type": "function"
    },
    {
      "inputs": [],
      "name": "userNumber",
      "outputs": [
        {
          "internalType": "uint256",
          "name": "",
          "type": "uint256"
        }
      ],
      "stateMutability": "view",
      "type": "function"
    },
    {
      "inputs": [
        {
          "internalType": "address",
          "name": "",
          "type": "address"
        }
      ],
      "name": "userToId",
      "outputs": [
        {
          "internalType": "uint256",
          "name": "",
          "type": "uint256"
        }
      ],
      "stateMutability": "view",
      "type": "function"
    },
    {
      "inputs": [],
      "name": "validatorFees",
      "outputs": [
        {
          "internalType": "uint256",
          "name": "",
          "type": "uint256"
        }
      ],
      "stateMutability": "view",
      "type": "function"
    },
    {
      "inputs": [],
      "name": "validatorNumber",
      "outputs": [
        {
          "internalType": "uint256",
          "name": "",
          "type": "uint256"
        }
      ],
      "stateMutability": "view",
      "type": "function"
    },
    {
      "inputs": [],
      "name": "validatorNumberRequired",
      "outputs": [
        {
          "internalType": "uint256",
          "name": "",
          "type": "uint256"
        }
      ],
      "stateMutability": "view",
      "type": "function"
    },
    {
      "inputs": [
        {
          "internalType": "address",
          "name": "",
          "type": "address"
        }
      ],
      "name": "validators",
      "outputs": [
        {
          "internalType": "address payable",
          "name": "userAddress",
          "type": "address"
        },
        {
          "internalType": "bool",
          "name": "isBlacklisted",
          "type": "bool"
        },
        {
          "internalType": "uint256",
          "name": "strike",
          "type": "uint256"
        }
      ],
      "stateMutability": "view",
      "type": "function"
    },
    {
      "inputs": [],
      "name": "withdrawFromValidators",
      "outputs": [],
      "stateMutability": "payable",
      "type": "function"
    },
    {
      "stateMutability": "payable",
      "type": "receive"
    }
  ],
  "bytecode": "0x60806040526040518060400160405280600c81526020017f6566626c7671687362646c670000000000000000000000000000000000000000815250600090816200004a9190620002fc565b50600460015560966002556032600355604b600455604b600555600a60065560016007553480156200007b57600080fd5b50620003e3565b600081519050919050565b7f4e487b7100000000000000000000000000000000000000000000000000000000600052604160045260246000fd5b7f4e487b7100000000000000000000000000000000000000000000000000000000600052602260045260246000fd5b600060028204905060018216806200010457607f821691505b6020821081036200011a5762000119620000bc565b5b50919050565b60008190508160005260206000209050919050565b60006020601f8301049050919050565b600082821b905092915050565b600060088302620001847fffffffffffffffffffffffffffffffffffffffffffffffffffffffffffffffff8262000145565b62000190868362000145565b95508019841693508086168417925050509392505050565b6000819050919050565b6000819050919050565b6000620001dd620001d7620001d184620001a8565b620001b2565b620001a8565b9050919050565b6000819050919050565b620001f983620001bc565b620002116200020882620001e4565b84845462000152565b825550505050565b600090565b6200022862000219565b62000235818484620001ee565b505050565b5b818110156200025d57620002516000826200021e565b6001810190506200023b565b5050565b601f821115620002ac57620002768162000120565b620002818462000135565b8101602085101562000291578190505b620002a9620002a08562000135565b8301826200023a565b50505b505050565b600082821c905092915050565b6000620002d160001984600802620002b1565b1980831691505092915050565b6000620002ec8383620002be565b9150826002028217905092915050565b620003078262000082565b67ffffffffffffffff8111156200032357620003226200008d565b5b6200032f8254620000eb565b6200033c82828562000261565b600060209050601f8311600181146200037457600084156200035f578287015190505b6200036b8582620002de565b865550620003db565b601f198416620003848662000120565b60005b82811015620003ae5784890151825560018201915060208501945060208101905062000387565b86831015620003ce5784890151620003ca601f891682620002be565b8355505b6001600288020188555050505b505050505050565b612ae180620003f36000396000f3fe6080604052600436106101235760003560e01c806353db7e77116100a05780639f4216e8116100645780639f4216e8146104c4578063c5ee74eb14610501578063cb61bd8c1461050b578063dc07067114610536578063fa52c7d814610540576101ab565b806353db7e77146103da5780636694ba611461040557806372e24fdd1461043057806373a8b6c81461045b578063860734fb14610484576101ab565b80631b2d6a7c116100e75780631b2d6a7c146103025780632b4e84131461032b578063455c928c1461035657806346123d821461036d57806353241b4f1461039d576101ab565b80630b4805d3146102195780630b85000d146102565780630ed337ad14610281578063139f29a1146102ac578063194a4e7e146102d7576101ab565b366101ab5761013c6781553af48258a79d60c01b61057f565b61015067e471cb8257f5f58060c01b61057f565b61c350341015610195576040517f08c379a000000000000000000000000000000000000000000000000000000000815260040161018c90611f6f565b60405180910390fd5b6101a9677150c45eeb099adf60c01b61057f565b005b6101bf6767b6fa987bad051b60c01b61057f565b6101d36775d5ff581820243f60c01b61057f565b6040518060400160405280601e81526020017f46616c6c6261636b2066756e6374696f6e2069732065786563757465642100008152506000908161021791906121df565b005b34801561022557600080fd5b50610240600480360381019061023b9190612314565b610582565b60405161024d9190612350565b60405180910390f35b34801561026257600080fd5b5061026b61059a565b6040516102789190612350565b60405180910390f35b34801561028d57600080fd5b506102966105a0565b6040516102a39190612350565b60405180910390f35b3480156102b857600080fd5b506102c16105a6565b6040516102ce9190612350565b60405180910390f35b3480156102e357600080fd5b506102ec6105ac565b6040516102f99190612350565b60405180910390f35b34801561030e57600080fd5b50610329600480360381019061032491906123bc565b6105b2565b005b34801561033757600080fd5b506103406107de565b60405161034d9190612350565b60405180910390f35b34801561036257600080fd5b5061036b6107e4565b005b34801561037957600080fd5b50610382610a11565b604051610394969594939291906123fc565b60405180910390f35b3480156103a957600080fd5b506103c460048036038101906103bf919061245d565b610a7c565b6040516103d191906124a5565b60405180910390f35b3480156103e657600080fd5b506103ef610b22565b6040516103fc9190612350565b60405180910390f35b34801561041157600080fd5b5061041a610b28565b6040516104279190612350565b60405180910390f35b34801561043c57600080fd5b50610445610b2e565b6040516104529190612350565b60405180910390f35b34801561046757600080fd5b50610482600480360381019061047d91906124c0565b610b34565b005b34801561049057600080fd5b506104ab60048036038101906104a6919061245d565b611138565b6040516104bb9493929190612577565b60405180910390f35b3480156104d057600080fd5b506104eb60048036038101906104e6919061245d565b611175565b6040516104f891906125cb565b60405180910390f35b6105096111a8565b005b34801561051757600080fd5b50610520611516565b60405161052d9190612350565b60405180910390f35b61053e61151c565b005b34801561054c57600080fd5b5061056760048036038101906105629190612314565b611a1a565b60405161057693929190612607565b60405180910390f35b50565b600d6020528060005260406000206000915090505481565b60045481565b60095481565b60085481565b60025481565b6105c667e39919ac5adc293e60c01b61057f565b6105da67c39e01f2e81a64ed60c01b61057f565b6105ee671093c09d48d5c07d60c01b61057f565b61060267166918ecb438923760c01b61057f565b3373ffffffffffffffffffffffffffffffffffffffff16600b60003373ffffffffffffffffffffffffffffffffffffffff1673ffffffffffffffffffffffffffffffffffffffff16815260200190815260200160002060000160009054906101000a900473ffffffffffffffffffffffffffffffffffffffff1673ffffffffffffffffffffffffffffffffffffffff16146106f1576106ab67cd217b5d4b23f23e60c01b61057f565b6106bf676fc06e684a128eac60c01b61057f565b6040517fec752d2a00000000000000000000000000000000000000000000000000000000815260040160405180910390fd5b610705670205e7c71082503b60c01b61057f565b610719675fd384b70e0f1a4060c01b61057f565b61072d67e49aff096070294c60c01b61057f565b610741677ee2475f2633667560c01b61057f565b610755674f7648ff0f91dece60c01b61057f565b81600a6000600954815260200190815260200160002060000160006101000a81548160ff021916908360058111156107905761078f612500565b5b02179055506107a967b5a6799eaedbe0c660c01b61057f565b80600a6000600960008154809291906107c19061266d565b919050558152602001908152602001600020600301819055505050565b60075481565b6107f86786b748461beae52860c01b61057f565b61080c67defaabf061d7697960c01b61057f565b61082067b1c95cadfca16d9060c01b61057f565b61083467e8400db039b434a160c01b61057f565b6000600d60003373ffffffffffffffffffffffffffffffffffffffff1673ffffffffffffffffffffffffffffffffffffffff16815260200190815260200160002054146108b6576040517f08c379a00000000000000000000000000000000000000000000000000000000081526004016108ad90612701565b60405180910390fd5b6108ca6783b866a29681856260c01b61057f565b6108de6788d72cfdab712af760c01b61057f565b600754600d60003373ffffffffffffffffffffffffffffffffffffffff1673ffffffffffffffffffffffffffffffffffffffff16815260200190815260200160002081905550610938678154ba973fe6229a60c01b61057f565b33600c6000600760008154809291906109509061266d565b91905055815260200190815260200160002060006101000a81548173ffffffffffffffffffffffffffffffffffffffff021916908373ffffffffffffffffffffffffffffffffffffffff1602179055506109b4678904270491a295c360c01b61057f565b6109c8672f7f66551c7feb5960c01b61057f565b7ff9ac505b144a1879609b52f02d3441e478cdd9c19c5d198a2712ac5184ecef673360016007546109f99190612721565b604051610a07929190612755565b60405180910390a1565b600080600080600080610a2e672b662b167f28c68860c01b61057f565b610a4267ed4b423ed24a8c5f60c01b61057f565b610a56678f0d8e2aef8735fd60c01b61057f565b600154600254600354600454600554600654955095509550955095509550909192939495565b6000610a92675dbbf65b127543b660c01b61057f565b610aa6674752488fe3331d2760c01b61057f565b610aba6743dfe1df271f9ca760c01b61057f565b600a600083815260200190815260200160002060040160003373ffffffffffffffffffffffffffffffffffffffff1673ffffffffffffffffffffffffffffffffffffffff16815260200190815260200160002060009054906101000a900460ff169050919050565b60015481565b60035481565b60065481565b610b486701c93fd326444bd460c01b61057f565b610b5c67c39e01f2e81a64ed60c01b61057f565b610b70671093c09d48d5c07d60c01b61057f565b610b8467166918ecb438923760c01b61057f565b3373ffffffffffffffffffffffffffffffffffffffff16600b60003373ffffffffffffffffffffffffffffffffffffffff1673ffffffffffffffffffffffffffffffffffffffff16815260200190815260200160002060000160009054906101000a900473ffffffffffffffffffffffffffffffffffffffff1673ffffffffffffffffffffffffffffffffffffffff1614610c7357610c2d67cd217b5d4b23f23e60c01b61057f565b610c41676fc06e684a128eac60c01b61057f565b6040517fec752d2a00000000000000000000000000000000000000000000000000000000815260040160405180910390fd5b610c87670205e7c71082503b60c01b61057f565b610c9b675fd384b70e0f1a4060c01b61057f565b610caf67a848fbd2b7e9ad7460c01b61057f565b610cc3671b75ae5aaf556caf60c01b61057f565b610cd767e66b1f7add59752460c01b61057f565b610ceb67c6dc24b1b3e3726160c01b61057f565b610cff67794f7c57815f215560c01b61057f565b60001515600a600084815260200190815260200160002060040160003373ffffffffffffffffffffffffffffffffffffffff1673ffffffffffffffffffffffffffffffffffffffff16815260200190815260200160002060009054906101000a900460ff16151514610da6576040517f08c379a0000000000000000000000000000000000000000000000000000000008152600401610d9d906127ca565b60405180910390fd5b610dba678c61afc21f3c929960c01b61057f565b610dce67b8b386f9d4dd07ea60c01b61057f565b610de267b5cb6b893d80ab7160c01b61057f565b60018103610e4357610dfe674d3910f0bb780e3b60c01b61057f565b610e12677d362880eeada7e760c01b61057f565b600a60008381526020019081526020016000206001016000815480929190610e399061266d565b9190505550610ee2565b610e5767c073c9f5441ac58e60c01b61057f565b610e6b6739d3c8d7cecd0f9160c01b61057f565b60028103610ecc57610e876765962366134dfd5460c01b61057f565b610e9b672f04a550496904fc60c01b61057f565b600a60008381526020019081526020016000206002016000815480929190610ec29061266d565b9190505550610ee1565b610ee067d463ffd912fba0a460c01b61057f565b5b5b610ef667aa2dfb23bae8df4b60c01b61057f565b6001600a600084815260200190815260200160002060040160003373ffffffffffffffffffffffffffffffffffffffff1673ffffffffffffffffffffffffffffffffffffffff16815260200190815260200160002060006101000a81548160ff021916908315150217905550610f7667eda05cf104aa14bf60c01b61057f565b610f8a677e7efb95dd36decb60c01b61057f565b6005546008546064600a600086815260200190815260200160002060010154610fb391906127ea565b610fbd919061285b565b1061104657610fd6676e46cf4e27fce8c460c01b61057f565b610fea674ee6fe4b92e54b5660c01b61057f565b610ffe67be30a162b350931e60c01b61057f565b611041600a600084815260200190815260200160002060000160009054906101000a900460ff16600a600085815260200190815260200160002060030154611a71565b611134565b61105a678a21e7652ca0184760c01b61057f565b61106e670fb32a6c10284cba60c01b61057f565b6005546008546064600a60008681526020019081526020016000206002015461109791906127ea565b6110a1919061285b565b1061111e576110ba6712c5bb31accc942060c01b61057f565b6110ce675ec542e2a60992c960c01b61057f565b6110e2674c271bbd968cf21860c01b61057f565b7f91944425928af46b7fe486868fbdd04cd88c32637b4c91612caa1781c1b91f8c826040516111119190612350565b60405180910390a1611133565b61113267dab2d40cd2dfa72f60c01b61057f565b5b5b5050565b600a6020528060005260406000206000915090508060000160009054906101000a900460ff16908060010154908060020154908060030154905084565b600c6020528060005260406000206000915054906101000a900473ffffffffffffffffffffffffffffffffffffffff1681565b6111bc67217257742e51d03f60c01b61057f565b306111d1678a584450036e6bc560c01b61057f565b6111e5672ec241db15387ac460c01b61057f565b6111f967a593865dbf8413a060c01b61057f565b670de0b6b3a76400008173ffffffffffffffffffffffffffffffffffffffff1631116112795761123367032680fffe7a4f1660c01b61057f565b6112476754ee283c138a83f660c01b61057f565b6040517f47108e3e00000000000000000000000000000000000000000000000000000000815260040160405180910390fd5b61128d67865f41178dc90e2660c01b61057f565b6112a1670b2c3b19117c7b2960c01b61057f565b6112b567283021dc7a0e521d60c01b61057f565b6112c9674d5299672d9fb3a560c01b61057f565b6112dd679df0f99ff2714a2c60c01b61057f565b6112f167110be5f3da87538b60c01b61057f565b611305674110285267017c6f60c01b61057f565b3373ffffffffffffffffffffffffffffffffffffffff16600b60003373ffffffffffffffffffffffffffffffffffffffff1673ffffffffffffffffffffffffffffffffffffffff16815260200190815260200160002060000160009054906101000a900473ffffffffffffffffffffffffffffffffffffffff1673ffffffffffffffffffffffffffffffffffffffff16146113d5576040517f08c379a00000000000000000000000000000000000000000000000000000000081526004016113cc906128d8565b60405180910390fd5b6113e9670aef0b94fb9cd5cc60c01b61057f565b6113fd67dd8f40c205f079b560c01b61057f565b61141167076548d576e8eba760c01b61057f565b6000670de0b6b3a764000090506114326744e2a30d6ef736b560c01b61057f565b611446675e4fe3962a34e8b960c01b61057f565b6114503382611dd2565b61146467e69045755a9d80bc60c01b61057f565b6000600b60003373ffffffffffffffffffffffffffffffffffffffff1673ffffffffffffffffffffffffffffffffffffffff16815260200190815260200160002060000160006101000a81548173ffffffffffffffffffffffffffffffffffffffff021916908373ffffffffffffffffffffffffffffffffffffffff1602179055506114fa67fe1a1719680b08c460c01b61057f565b6008600081548092919061150d906128f8565b91905055505050565b60055481565b61153067d1c56bd72f8d191260c01b61057f565b611544675e6d6089a319f19060c01b61057f565b6115586726c6f4fb67a0abc360c01b61057f565b61156c67cc0b1bc0d1cc22d460c01b61057f565b6000600d60003373ffffffffffffffffffffffffffffffffffffffff1673ffffffffffffffffffffffffffffffffffffffff168152602001908152602001600020540361160d576115c767ca1c0e4207c7b80760c01b61057f565b6115db67bb8f2b0f503f4bc360c01b61057f565b6040517f3a70817d00000000000000000000000000000000000000000000000000000000815260040160405180910390fd5b611621677f5b22327590e0ee60c01b61057f565b61163567ff64821a119ac7fd60c01b61057f565b611649676a51959d6bcca74a60c01b61057f565b61165d67cd7c7e6781e7c59a60c01b61057f565b33611672678a584450036e6bc560c01b61057f565b611686672ec241db15387ac460c01b61057f565b61169a67a593865dbf8413a060c01b61057f565b670de0b6b3a76400008173ffffffffffffffffffffffffffffffffffffffff16311161171a576116d467032680fffe7a4f1660c01b61057f565b6116e86754ee283c138a83f660c01b61057f565b6040517f47108e3e00000000000000000000000000000000000000000000000000000000815260040160405180910390fd5b61172e67865f41178dc90e2660c01b61057f565b611742670b2c3b19117c7b2960c01b61057f565b611756672a6e7ad132affab760c01b61057f565b61176a6731786c5c7d86e59f60c01b61057f565b61177e6747437d38104f418360c01b61057f565b61179267772bfe49fce1587c60c01b61057f565b6117a667fc88e31ce071051260c01b61057f565b670de0b6b3a764000034146117f0576040517f08c379a00000000000000000000000000000000000000000000000000000000081526004016117e79061296d565b60405180910390fd5b61180467e7af006c9e78faa360c01b61057f565b61181867bd72337121c3197760c01b61057f565b61182c67da668b72dab8640060c01b61057f565b611840672597e18973413b8e60c01b61057f565b3373ffffffffffffffffffffffffffffffffffffffff16600b60003373ffffffffffffffffffffffffffffffffffffffff1673ffffffffffffffffffffffffffffffffffffffff16815260200190815260200160002060000160009054906101000a900473ffffffffffffffffffffffffffffffffffffffff1673ffffffffffffffffffffffffffffffffffffffff1603611910576040517f08c379a0000000000000000000000000000000000000000000000000000000008152600401611907906129d9565b60405180910390fd5b61192467044e64d632b89cec60c01b61057f565b61193867bce0c21e52c7ec4b60c01b61057f565b61194c67fdbceed259fc897260c01b61057f565b6119563034611dd2565b61196a671f6959b1fa4178fc60c01b61057f565b33600b60003373ffffffffffffffffffffffffffffffffffffffff1673ffffffffffffffffffffffffffffffffffffffff16815260200190815260200160002060000160006101000a81548173ffffffffffffffffffffffffffffffffffffffff021916908373ffffffffffffffffffffffffffffffffffffffff1602179055506119ff677ed7b2361928463360c01b61057f565b60086000815480929190611a129061266d565b919050555050565b600b6020528060005260406000206000915090508060000160009054906101000a900473ffffffffffffffffffffffffffffffffffffffff16908060000160149054906101000a900460ff16908060010154905083565b611a856725fd0b192ceba09060c01b61057f565b611a99673b45b6d8c8b21a2160c01b61057f565b611aad67c294cd6f675050e260c01b61057f565b60006005811115611ac157611ac0612500565b5b826005811115611ad457611ad3612500565b5b03611b0d57611aed676b5f7ae4ac2e8a4d60c01b61057f565b611b0167bea0cc63d6ecd2b960c01b61057f565b80600281905550611dce565b611b2167b45d1608c77f61f360c01b61057f565b611b3567d49ffddfad9bd04a60c01b61057f565b60016005811115611b4957611b48612500565b5b826005811115611b5c57611b5b612500565b5b03611b9557611b7567c5b01b9f08e0d12d60c01b61057f565b611b896714791446cc4ae26060c01b61057f565b80600381905550611dcd565b611ba967f6150d086bf3bd6160c01b61057f565b611bbd67b952b2465288f41060c01b61057f565b60026005811115611bd157611bd0612500565b5b826005811115611be457611be3612500565b5b03611c1d57611bfd67b74f299772cdcd6360c01b61057f565b611c1167ce48930c41dcb73460c01b61057f565b80600481905550611dcc565b611c31678ff0523c7f307fee60c01b61057f565b611c456728be07ecf355ca3760c01b61057f565b60036005811115611c5957611c58612500565b5b826005811115611c6c57611c6b612500565b5b03611ca557611c856722ec0661a33ab84360c01b61057f565b611c99677fad8ca235aaf71b60c01b61057f565b80600581905550611dcb565b611cb967c4532fc54a7a1cbe60c01b61057f565b611ccd6783bf0330e0adc99f60c01b61057f565b60046005811115611ce157611ce0612500565b5b826005811115611cf457611cf3612500565b5b03611d2d57611d0d67719613562946a2ef60c01b61057f565b611d216721a046ff5948754960c01b61057f565b80600181905550611dca565b611d41677093d9b091f0c6c460c01b61057f565b611d55678930747aba7911a160c01b61057f565b600580811115611d6857611d67612500565b5b826005811115611d7b57611d7a612500565b5b03611db457611d946771ea4c20d3122fba60c01b61057f565b611da8675eea24daaac7fcb560c01b61057f565b80600681905550611dc9565b611dc86716e35be17b047a4160c01b61057f565b5b5b5b5b5b5b5050565b611de667ecb67d033aeaee8e60c01b61057f565b611dfa6731d68ed1dc2fd6d060c01b61057f565b611e0e673a5ba3b30351211160c01b61057f565b6000808373ffffffffffffffffffffffffffffffffffffffff1683604051611e3590612a2a565b60006040518083038185875af1925050503d8060008114611e72576040519150601f19603f3d011682016040523d82523d6000602084013e611e77565b606091505b5091509150611e9067de620e88bf45ba8c60c01b61057f565b611ea4674929ce39cd014b7460c01b61057f565b611eb8673e94c73366bb18d460c01b61057f565b81611ef8576040517f08c379a0000000000000000000000000000000000000000000000000000000008152600401611eef90612a8b565b60405180910390fd5b611f0c67b78fb1e308201aa060c01b61057f565b50505050565b600082825260208201905092915050565b7f796f752063616e27742073656e64206c657373207468616e2035306b20776569600082015250565b6000611f59602083611f12565b9150611f6482611f23565b602082019050919050565b60006020820190508181036000830152611f8881611f4c565b9050919050565b600081519050919050565b7f4e487b7100000000000000000000000000000000000000000000000000000000600052604160045260246000fd5b7f4e487b7100000000000000000000000000000000000000000000000000000000600052602260045260246000fd5b6000600282049050600182168061201057607f821691505b60208210810361202357612022611fc9565b5b50919050565b60008190508160005260206000209050919050565b60006020601f8301049050919050565b600082821b905092915050565b60006008830261208b7fffffffffffffffffffffffffffffffffffffffffffffffffffffffffffffffff8261204e565b612095868361204e565b95508019841693508086168417925050509392505050565b6000819050919050565b6000819050919050565b60006120dc6120d76120d2846120ad565b6120b7565b6120ad565b9050919050565b6000819050919050565b6120f6836120c1565b61210a612102826120e3565b84845461205b565b825550505050565b600090565b61211f612112565b61212a8184846120ed565b505050565b5b8181101561214e57612143600082612117565b600181019050612130565b5050565b601f8211156121935761216481612029565b61216d8461203e565b8101602085101561217c578190505b6121906121888561203e565b83018261212f565b50505b505050565b600082821c905092915050565b60006121b660001984600802612198565b1980831691505092915050565b60006121cf83836121a5565b9150826002028217905092915050565b6121e882611f8f565b67ffffffffffffffff81111561220157612200611f9a565b5b61220b8254611ff8565b612216828285612152565b600060209050601f8311600181146122495760008415612237578287015190505b61224185826121c3565b8655506122a9565b601f19841661225786612029565b60005b8281101561227f5784890151825560018201915060208501945060208101905061225a565b8683101561229c5784890151612298601f8916826121a5565b8355505b6001600288020188555050505b505050505050565b600080fd5b600073ffffffffffffffffffffffffffffffffffffffff82169050919050565b60006122e1826122b6565b9050919050565b6122f1816122d6565b81146122fc57600080fd5b50565b60008135905061230e816122e8565b92915050565b60006020828403121561232a576123296122b1565b5b6000612338848285016122ff565b91505092915050565b61234a816120ad565b82525050565b60006020820190506123656000830184612341565b92915050565b6006811061237857600080fd5b50565b60008135905061238a8161236b565b92915050565b612399816120ad565b81146123a457600080fd5b50565b6000813590506123b681612390565b92915050565b600080604083850312156123d3576123d26122b1565b5b60006123e18582860161237b565b92505060206123f2858286016123a7565b9150509250929050565b600060c0820190506124116000830189612341565b61241e6020830188612341565b61242b6040830187612341565b6124386060830186612341565b6124456080830185612341565b61245260a0830184612341565b979650505050505050565b600060208284031215612473576124726122b1565b5b6000612481848285016123a7565b91505092915050565b60008115159050919050565b61249f8161248a565b82525050565b60006020820190506124ba6000830184612496565b92915050565b600080604083850312156124d7576124d66122b1565b5b60006124e5858286016123a7565b92505060206124f6858286016123a7565b9150509250929050565b7f4e487b7100000000000000000000000000000000000000000000000000000000600052602160045260246000fd5b600681106125405761253f612500565b5b50565b60008190506125518261252f565b919050565b600061256182612543565b9050919050565b61257181612556565b82525050565b600060808201905061258c6000830187612568565b6125996020830186612341565b6125a66040830185612341565b6125b36060830184612341565b95945050505050565b6125c5816122d6565b82525050565b60006020820190506125e060008301846125bc565b92915050565b60006125f1826122b6565b9050919050565b612601816125e6565b82525050565b600060608201905061261c60008301866125f8565b6126296020830185612496565b6126366040830184612341565b949350505050565b7f4e487b7100000000000000000000000000000000000000000000000000000000600052601160045260246000fd5b6000612678826120ad565b91507fffffffffffffffffffffffffffffffffffffffffffffffffffffffffffffffff82036126aa576126a961263e565b5b600182019050919050565b7f7573657220616c72656164792065786973740000000000000000000000000000600082015250565b60006126eb601283611f12565b91506126f6826126b5565b602082019050919050565b6000602082019050818103600083015261271a816126de565b9050919050565b600061272c826120ad565b9150612737836120ad565b925082820390508181111561274f5761274e61263e565b5b92915050565b600060408201905061276a60008301856125bc565b6127776020830184612341565b9392505050565b7f616c726561647920766f74656400000000000000000000000000000000000000600082015250565b60006127b4600d83611f12565b91506127bf8261277e565b602082019050919050565b600060208201905081810360008301526127e3816127a7565b9050919050565b60006127f5826120ad565b9150612800836120ad565b925082820261280e816120ad565b915082820484148315176128255761282461263e565b5b5092915050565b7f4e487b7100000000000000000000000000000000000000000000000000000000600052601260045260246000fd5b6000612866826120ad565b9150612871836120ad565b9250826128815761288061282c565b5b828204905092915050565b7f596f7520617265206e6f742076616c696461746f727300000000000000000000600082015250565b60006128c2601683611f12565b91506128cd8261288c565b602082019050919050565b600060208201905081810360008301526128f1816128b5565b9050919050565b6000612903826120ad565b9150600082036129165761291561263e565b5b600182039050919050565b7f73656e6420312065746800000000000000000000000000000000000000000000600082015250565b6000612957600a83611f12565b915061296282612921565b602082019050919050565b600060208201905081810360008301526129868161294a565b9050919050565b7f596f7520616c7265616479206172650000000000000000000000000000000000600082015250565b60006129c3600f83611f12565b91506129ce8261298d565b602082019050919050565b600060208201905081810360008301526129f2816129b6565b9050919050565b600081905092915050565b50565b6000612a146000836129f9565b9150612a1f82612a04565b600082019050919050565b6000612a3582612a07565b9150819050919050565b7f4661696c656420746f2073656e64204574686572000000000000000000000000600082015250565b6000612a75601483611f12565b9150612a8082612a3f565b602082019050919050565b60006020820190508181036000830152612aa481612a68565b905091905056fea26469706673582212206cc3bfcc5b0bc3f7f5cb7ada8ccb6dfaa14212f9f7da3aa3a9aefef640fcc2a364736f6c63430008150033",
  "linkReferences": {},
  "deployedLinkReferences": {}
}