{
  "_format": "hh-sol-artifact-1",
  "contractName": "BetWaveDAO",
  "sourceName": "contracts/BetWaveDAO.sol",
  "abi": [
    {
      "inputs": [],
      "name": "insufficientBalance",
      "type": "error"
    },
    {
      "inputs": [],
      "name": "notRegistered",
      "type": "error"
    },
    {
      "inputs": [],
      "name": "notValidator",
      "type": "error"
    },
    {
      "anonymous": false,
      "inputs": [
        {
          "indexed": false,
          "internalType": "address",
          "name": "",
          "type": "address"
        },
        {
          "indexed": false,
          "internalType": "uint256",
          "name": "",
          "type": "uint256"
        }
      ],
      "name": "newUser",
      "type": "event"
    },
    {
      "anonymous": false,
      "inputs": [
        {
          "indexed": false,
          "internalType": "uint256",
          "name": "",
          "type": "uint256"
        }
      ],
      "name": "voteRejected",
      "type": "event"
    },
    {
      "stateMutability": "payable",
      "type": "fallback"
    },
    {
      "inputs": [],
      "name": "DAOQuorum",
      "outputs": [
        {
          "internalType": "uint256",
          "name": "",
          "type": "uint256"
        }
      ],
      "stateMutability": "view",
      "type": "function"
    },
    {
      "inputs": [
        {
          "internalType": "uint256",
          "name": "",
          "type": "uint256"
        }
      ],
      "name": "DAOVoteList",
      "outputs": [
        {
          "internalType": "enum BetWaveDAO.VoteType",
          "name": "voteType",
          "type": "uint8"
        },
        {
          "internalType": "uint256",
          "name": "voteFor",
          "type": "uint256"
        },
        {
          "internalType": "uint256",
          "name": "voteAgainst",
          "type": "uint256"
        },
        {
          "internalType": "uint256",
          "name": "newValue",
          "type": "uint256"
        }
      ],
      "stateMutability": "view",
      "type": "function"
    },
    {
      "inputs": [],
      "name": "addUser",
      "outputs": [],
      "stateMutability": "nonpayable",
      "type": "function"
    },
    {
      "inputs": [],
      "name": "addValidators",
      "outputs": [],
      "stateMutability": "payable",
      "type": "function"
    },
    {
      "inputs": [
        {
          "internalType": "enum BetWaveDAO.VoteType",
          "name": "_voteType",
          "type": "uint8"
        },
        {
          "internalType": "uint256",
          "name": "_newValue",
          "type": "uint256"
        }
      ],
      "name": "askDAOVote",
      "outputs": [],
      "stateMutability": "nonpayable",
      "type": "function"
    },
    {
      "inputs": [],
      "name": "betQuorum",
      "outputs": [
        {
          "internalType": "uint256",
          "name": "",
          "type": "uint256"
        }
      ],
      "stateMutability": "view",
      "type": "function"
    },
    {
      "inputs": [],
      "name": "creatorFees",
      "outputs": [
        {
          "internalType": "uint256",
          "name": "",
          "type": "uint256"
        }
      ],
      "stateMutability": "view",
      "type": "function"
    },
    {
      "inputs": [],
      "name": "daoVoteNumber",
      "outputs": [
        {
          "internalType": "uint256",
          "name": "",
          "type": "uint256"
        }
      ],
      "stateMutability": "view",
      "type": "function"
    },
    {
      "inputs": [
        {
          "internalType": "uint256",
          "name": "_id",
          "type": "uint256"
        }
      ],
      "name": "getDaoVoteHasVoted",
      "outputs": [
        {
          "internalType": "bool",
          "name": "",
          "type": "bool"
        }
      ],
      "stateMutability": "view",
      "type": "function"
    },
    {
      "inputs": [],
      "name": "platformFees",
      "outputs": [
        {
          "internalType": "uint256",
          "name": "",
          "type": "uint256"
        }
      ],
      "stateMutability": "view",
      "type": "function"
    },
    {
      "inputs": [
        {
          "internalType": "uint256",
          "name": "_id",
          "type": "uint256"
        },
        {
          "internalType": "uint256",
          "name": "_option",
          "type": "uint256"
        }
      ],
      "name": "setDaoVote",
      "outputs": [],
      "stateMutability": "nonpayable",
      "type": "function"
    },
    {
      "inputs": [
        {
          "internalType": "uint256",
          "name": "",
          "type": "uint256"
        }
      ],
      "name": "userList",
      "outputs": [
        {
          "internalType": "address",
          "name": "",
          "type": "address"
        }
      ],
      "stateMutability": "view",
      "type": "function"
    },
    {
      "inputs": [],
      "name": "userNumber",
      "outputs": [
        {
          "internalType": "uint256",
          "name": "",
          "type": "uint256"
        }
      ],
      "stateMutability": "view",
      "type": "function"
    },
    {
      "inputs": [
        {
          "internalType": "address",
          "name": "",
          "type": "address"
        }
      ],
      "name": "userToId",
      "outputs": [
        {
          "internalType": "uint256",
          "name": "",
          "type": "uint256"
        }
      ],
      "stateMutability": "view",
      "type": "function"
    },
    {
      "inputs": [],
      "name": "validatorFees",
      "outputs": [
        {
          "internalType": "uint256",
          "name": "",
          "type": "uint256"
        }
      ],
      "stateMutability": "view",
      "type": "function"
    },
    {
      "inputs": [],
      "name": "validatorNumber",
      "outputs": [
        {
          "internalType": "uint256",
          "name": "",
          "type": "uint256"
        }
      ],
      "stateMutability": "view",
      "type": "function"
    },
    {
      "inputs": [],
      "name": "validatorNumberRequired",
      "outputs": [
        {
          "internalType": "uint256",
          "name": "",
          "type": "uint256"
        }
      ],
      "stateMutability": "view",
      "type": "function"
    },
    {
      "inputs": [
        {
          "internalType": "address",
          "name": "",
          "type": "address"
        }
      ],
      "name": "validators",
      "outputs": [
        {
          "internalType": "address payable",
          "name": "userAddress",
          "type": "address"
        },
        {
          "internalType": "bool",
          "name": "isBlacklisted",
          "type": "bool"
        },
        {
          "internalType": "uint256",
          "name": "strike",
          "type": "uint256"
        }
      ],
      "stateMutability": "view",
      "type": "function"
    },
    {
      "inputs": [],
      "name": "withdrawFromValidators",
      "outputs": [],
      "stateMutability": "payable",
      "type": "function"
    },
    {
      "stateMutability": "payable",
      "type": "receive"
    }
  ],
  "bytecode": "0x60806040526040518060400160405280600c81526020017f6566626c7671687362646c670000000000000000000000000000000000000000815250600090816200004a9190620002fc565b50600460015560966002556032600355604b600455604b600555600a60065560016007553480156200007b57600080fd5b50620003e3565b600081519050919050565b7f4e487b7100000000000000000000000000000000000000000000000000000000600052604160045260246000fd5b7f4e487b7100000000000000000000000000000000000000000000000000000000600052602260045260246000fd5b600060028204905060018216806200010457607f821691505b6020821081036200011a5762000119620000bc565b5b50919050565b60008190508160005260206000209050919050565b60006020601f8301049050919050565b600082821b905092915050565b600060088302620001847fffffffffffffffffffffffffffffffffffffffffffffffffffffffffffffffff8262000145565b62000190868362000145565b95508019841693508086168417925050509392505050565b6000819050919050565b6000819050919050565b6000620001dd620001d7620001d184620001a8565b620001b2565b620001a8565b9050919050565b6000819050919050565b620001f983620001bc565b620002116200020882620001e4565b84845462000152565b825550505050565b600090565b6200022862000219565b62000235818484620001ee565b505050565b5b818110156200025d57620002516000826200021e565b6001810190506200023b565b5050565b601f821115620002ac57620002768162000120565b620002818462000135565b8101602085101562000291578190505b620002a9620002a08562000135565b8301826200023a565b50505b505050565b600082821c905092915050565b6000620002d160001984600802620002b1565b1980831691505092915050565b6000620002ec8383620002be565b9150826002028217905092915050565b620003078262000082565b67ffffffffffffffff8111156200032357620003226200008d565b5b6200032f8254620000eb565b6200033c82828562000261565b600060209050601f8311600181146200037457600084156200035f578287015190505b6200036b8582620002de565b865550620003db565b601f198416620003848662000120565b60005b82811015620003ae5784890151825560018201915060208501945060208101905062000387565b86831015620003ce5784890151620003ca601f891682620002be565b8355505b6001600288020188555050505b505050505050565b6129d980620003f36000396000f3fe6080604052600436106101185760003560e01c806353db7e77116100a05780639f4216e8116100645780639f4216e814610489578063c5ee74eb146104c6578063cb61bd8c146104d0578063dc070671146104fb578063fa52c7d814610505576101a0565b806353db7e771461039f5780636694ba61146103ca57806372e24fdd146103f557806373a8b6c814610420578063860734fb14610449576101a0565b8063194a4e7e116100e7578063194a4e7e146102cc5780631b2d6a7c146102f75780632b4e841314610320578063455c928c1461034b57806353241b4f14610362576101a0565b80630b4805d31461020e5780630b85000d1461024b5780630ed337ad14610276578063139f29a1146102a1576101a0565b366101a05761013167a15aaf0bbfcb443860c01b610544565b61014567fe6683a37682b9be60c01b610544565b61c35034101561018a576040517f08c379a000000000000000000000000000000000000000000000000000000000815260040161018190611ec8565b60405180910390fd5b61019e679143a76a5e0bfa0760c01b610544565b005b6101b467a740b0399ea588ac60c01b610544565b6101c86755c6fb07053bdcd560c01b610544565b6040518060400160405280601e81526020017f46616c6c6261636b2066756e6374696f6e2069732065786563757465642100008152506000908161020c9190612138565b005b34801561021a57600080fd5b506102356004803603810190610230919061226d565b610547565b60405161024291906122a9565b60405180910390f35b34801561025757600080fd5b5061026061055f565b60405161026d91906122a9565b60405180910390f35b34801561028257600080fd5b5061028b610565565b60405161029891906122a9565b60405180910390f35b3480156102ad57600080fd5b506102b661056b565b6040516102c391906122a9565b60405180910390f35b3480156102d857600080fd5b506102e1610571565b6040516102ee91906122a9565b60405180910390f35b34801561030357600080fd5b5061031e60048036038101906103199190612315565b610577565b005b34801561032c57600080fd5b506103356107a3565b60405161034291906122a9565b60405180910390f35b34801561035757600080fd5b506103606107a9565b005b34801561036e57600080fd5b5061038960048036038101906103849190612355565b6109d5565b604051610396919061239d565b60405180910390f35b3480156103ab57600080fd5b506103b4610a7b565b6040516103c191906122a9565b60405180910390f35b3480156103d657600080fd5b506103df610a81565b6040516103ec91906122a9565b60405180910390f35b34801561040157600080fd5b5061040a610a87565b60405161041791906122a9565b60405180910390f35b34801561042c57600080fd5b50610447600480360381019061044291906123b8565b610a8d565b005b34801561045557600080fd5b50610470600480360381019061046b9190612355565b611091565b604051610480949392919061246f565b60405180910390f35b34801561049557600080fd5b506104b060048036038101906104ab9190612355565b6110ce565b6040516104bd91906124c3565b60405180910390f35b6104ce611101565b005b3480156104dc57600080fd5b506104e561146f565b6040516104f291906122a9565b60405180910390f35b610503611475565b005b34801561051157600080fd5b5061052c6004803603810190610527919061226d565b611973565b60405161053b939291906124ff565b60405180910390f35b50565b600d6020528060005260406000206000915090505481565b60045481565b60095481565b60085481565b60025481565b61058b67db4d5f2e879e39d060c01b610544565b61059f67d128787db894d25460c01b610544565b6105b367e184f23922037a0e60c01b610544565b6105c767cb1a2e565054844a60c01b610544565b3373ffffffffffffffffffffffffffffffffffffffff16600b60003373ffffffffffffffffffffffffffffffffffffffff1673ffffffffffffffffffffffffffffffffffffffff16815260200190815260200160002060000160009054906101000a900473ffffffffffffffffffffffffffffffffffffffff1673ffffffffffffffffffffffffffffffffffffffff16146106b65761067067e66ace9d32e7c0c160c01b610544565b61068467a614531cc29ea75460c01b610544565b6040517fec752d2a00000000000000000000000000000000000000000000000000000000815260040160405180910390fd5b6106ca6742220e1cf1a9492c60c01b610544565b6106de67f5b4cf851b722a2b60c01b610544565b6106f267308ca2c36b55225e60c01b610544565b61070667cec3fe638a40899a60c01b610544565b61071a67feed15e9668b292c60c01b610544565b81600a6000600954815260200190815260200160002060000160006101000a81548160ff02191690836005811115610755576107546123f8565b5b021790555061076e6751e909a117112d3c60c01b610544565b80600a60006009600081548092919061078690612565565b919050558152602001908152602001600020600301819055505050565b60075481565b6107bd672e5230ba4a0a8a8560c01b610544565b6107d1677e15e77c9221f6c460c01b610544565b6107e56709cfb8565e2a251260c01b610544565b6107f967394dad0379fb5ffb60c01b610544565b6000600d60003373ffffffffffffffffffffffffffffffffffffffff1673ffffffffffffffffffffffffffffffffffffffff168152602001908152602001600020541461087b576040517f08c379a0000000000000000000000000000000000000000000000000000000008152600401610872906125f9565b60405180910390fd5b61088f67c592c5f5db7e06eb60c01b610544565b6108a2660a266c5110f12a60c01b610544565b600754600d60003373ffffffffffffffffffffffffffffffffffffffff1673ffffffffffffffffffffffffffffffffffffffff168152602001908152602001600020819055506108fc671267d372323f7ba660c01b610544565b33600c60006007600081548092919061091490612565565b91905055815260200190815260200160002060006101000a81548173ffffffffffffffffffffffffffffffffffffffff021916908373ffffffffffffffffffffffffffffffffffffffff1602179055506109786748da7ae8482148e660c01b610544565b61098c678610c3982be03d1a60c01b610544565b7ff9ac505b144a1879609b52f02d3441e478cdd9c19c5d198a2712ac5184ecef673360016007546109bd9190612619565b6040516109cb92919061264d565b60405180910390a1565b60006109eb67c7ed9156dad3070c60c01b610544565b6109ff67e2287e9255d683a360c01b610544565b610a13678edad1148e0d446b60c01b610544565b600a600083815260200190815260200160002060040160003373ffffffffffffffffffffffffffffffffffffffff1673ffffffffffffffffffffffffffffffffffffffff16815260200190815260200160002060009054906101000a900460ff169050919050565b60015481565b60035481565b60065481565b610aa1672f9e5a5558cbee3260c01b610544565b610ab567d128787db894d25460c01b610544565b610ac967e184f23922037a0e60c01b610544565b610add67cb1a2e565054844a60c01b610544565b3373ffffffffffffffffffffffffffffffffffffffff16600b60003373ffffffffffffffffffffffffffffffffffffffff1673ffffffffffffffffffffffffffffffffffffffff16815260200190815260200160002060000160009054906101000a900473ffffffffffffffffffffffffffffffffffffffff1673ffffffffffffffffffffffffffffffffffffffff1614610bcc57610b8667e66ace9d32e7c0c160c01b610544565b610b9a67a614531cc29ea75460c01b610544565b6040517fec752d2a00000000000000000000000000000000000000000000000000000000815260040160405180910390fd5b610be06742220e1cf1a9492c60c01b610544565b610bf467f5b4cf851b722a2b60c01b610544565b610c08671dfbd9162729f0d260c01b610544565b610c1c67c6e19879b04f2c5960c01b610544565b610c306776f2a2b33ccbb26560c01b610544565b610c44671aa8c0d9fd302aea60c01b610544565b610c5867dcb76502ad76029660c01b610544565b60001515600a600084815260200190815260200160002060040160003373ffffffffffffffffffffffffffffffffffffffff1673ffffffffffffffffffffffffffffffffffffffff16815260200190815260200160002060009054906101000a900460ff16151514610cff576040517f08c379a0000000000000000000000000000000000000000000000000000000008152600401610cf6906126c2565b60405180910390fd5b610d1367cee68a04a349556d60c01b610544565b610d27673af5bc2f559738ff60c01b610544565b610d3b67c7a41fa2204b46e360c01b610544565b60018103610d9c57610d5767a139ab45d3792c8760c01b610544565b610d6b675e172f339e4652ef60c01b610544565b600a60008381526020019081526020016000206001016000815480929190610d9290612565565b9190505550610e3b565b610db067f505c9b75f45f68460c01b610544565b610dc4673b9d201c6e23fc8b60c01b610544565b60028103610e2557610de067756b84d3ff88f91460c01b610544565b610df4674b6c7c9854c1067460c01b610544565b600a60008381526020019081526020016000206002016000815480929190610e1b90612565565b9190505550610e3a565b610e396770974aed5e7fabac60c01b610544565b5b5b610e4f67e00d5d12d1a51e4e60c01b610544565b6001600a600084815260200190815260200160002060040160003373ffffffffffffffffffffffffffffffffffffffff1673ffffffffffffffffffffffffffffffffffffffff16815260200190815260200160002060006101000a81548160ff021916908315150217905550610ecf6779034a807b8c808e60c01b610544565b610ee36786b35554fd59437360c01b610544565b6005546008546064600a600086815260200190815260200160002060010154610f0c91906126e2565b610f169190612753565b10610f9f57610f2f6776deaa75c44473c560c01b610544565b610f4367de36849b1b404f6c60c01b610544565b610f57671abcd73d20eece6360c01b610544565b610f9a600a600084815260200190815260200160002060000160009054906101000a900460ff16600a6000858152602001908152602001600020600301546119ca565b61108d565b610fb36770b8792710ef0cea60c01b610544565b610fc7674079a66ed84da98960c01b610544565b6005546008546064600a600086815260200190815260200160002060020154610ff091906126e2565b610ffa9190612753565b106110775761101367f4974313327c3adb60c01b610544565b61102767856ef94a9c69e23e60c01b610544565b61103b67eab327910d0e62b960c01b610544565b7f91944425928af46b7fe486868fbdd04cd88c32637b4c91612caa1781c1b91f8c8260405161106a91906122a9565b60405180910390a161108c565b61108b67872ba8a7e92c5fa860c01b610544565b5b5b5050565b600a6020528060005260406000206000915090508060000160009054906101000a900460ff16908060010154908060020154908060030154905084565b600c6020528060005260406000206000915054906101000a900473ffffffffffffffffffffffffffffffffffffffff1681565b61111567074bc74ca1d4e5b160c01b610544565b3061112a67136da02e533b82cd60c01b610544565b61113e67209b55f8b320547560c01b610544565b611152676a28261d9943a9d960c01b610544565b670de0b6b3a76400008173ffffffffffffffffffffffffffffffffffffffff1631116111d25761118c67389c049825b9fa5460c01b610544565b6111a067a2c8751e8e2daa7160c01b610544565b6040517f47108e3e00000000000000000000000000000000000000000000000000000000815260040160405180910390fd5b6111e6675497109226d52ea260c01b610544565b6111fa67bb0738733438747960c01b610544565b61120e67d9ce2405fb82b25460c01b610544565b61122267e82cb70725545fd760c01b610544565b61123667c4b37ad433d2d68e60c01b610544565b61124a67b8e64898db16fa0d60c01b610544565b61125e6764240195e7c901fb60c01b610544565b3373ffffffffffffffffffffffffffffffffffffffff16600b60003373ffffffffffffffffffffffffffffffffffffffff1673ffffffffffffffffffffffffffffffffffffffff16815260200190815260200160002060000160009054906101000a900473ffffffffffffffffffffffffffffffffffffffff1673ffffffffffffffffffffffffffffffffffffffff161461132e576040517f08c379a0000000000000000000000000000000000000000000000000000000008152600401611325906127d0565b60405180910390fd5b61134267f378894da803dcf260c01b610544565b611356676f1156f3b1f0c86060c01b610544565b61136a670c78e2b7436e079060c01b610544565b6000670de0b6b3a7640000905061138b67674493d77298967c60c01b610544565b61139f67d64d6d195cd51b1a60c01b610544565b6113a93382611d2b565b6113bd67f585eea6435ab33c60c01b610544565b6000600b60003373ffffffffffffffffffffffffffffffffffffffff1673ffffffffffffffffffffffffffffffffffffffff16815260200190815260200160002060000160006101000a81548173ffffffffffffffffffffffffffffffffffffffff021916908373ffffffffffffffffffffffffffffffffffffffff16021790555061145367bc3d876f667579b160c01b610544565b60086000815480929190611466906127f0565b91905055505050565b60055481565b6114896714db2310befc488060c01b610544565b61149d67698f3e0ee90c387160c01b610544565b6114b1678c349b55b730988860c01b610544565b6114c5671aca70163851570e60c01b610544565b6000600d60003373ffffffffffffffffffffffffffffffffffffffff1673ffffffffffffffffffffffffffffffffffffffff168152602001908152602001600020540361156657611520679d30861a492e9cda60c01b610544565b611534678c9d06dd0e14763560c01b610544565b6040517f3a70817d00000000000000000000000000000000000000000000000000000000815260040160405180910390fd5b61157a67b4ef19437ab44d4a60c01b610544565b61158e67693c450d850bbf4560c01b610544565b6115a26795404e0b63c2435560c01b610544565b6115b66744f5c8dc1c9b853f60c01b610544565b336115cb67136da02e533b82cd60c01b610544565b6115df67209b55f8b320547560c01b610544565b6115f3676a28261d9943a9d960c01b610544565b670de0b6b3a76400008173ffffffffffffffffffffffffffffffffffffffff1631116116735761162d67389c049825b9fa5460c01b610544565b61164167a2c8751e8e2daa7160c01b610544565b6040517f47108e3e00000000000000000000000000000000000000000000000000000000815260040160405180910390fd5b611687675497109226d52ea260c01b610544565b61169b67bb0738733438747960c01b610544565b6116af673e04b6e7511aaa9260c01b610544565b6116c3670179fd82c7f6eccb60c01b610544565b6116d76725194325dcfd1f5e60c01b610544565b6116eb67600648dc8f445dcb60c01b610544565b6116ff67fcbe4e829641c80d60c01b610544565b670de0b6b3a76400003414611749576040517f08c379a000000000000000000000000000000000000000000000000000000000815260040161174090612865565b60405180910390fd5b61175d67f42c02d644e9755f60c01b610544565b6117716710439ef341cd73de60c01b610544565b611785676818fcea189ede9660c01b610544565b61179967664945351de7a4e960c01b610544565b3373ffffffffffffffffffffffffffffffffffffffff16600b60003373ffffffffffffffffffffffffffffffffffffffff1673ffffffffffffffffffffffffffffffffffffffff16815260200190815260200160002060000160009054906101000a900473ffffffffffffffffffffffffffffffffffffffff1673ffffffffffffffffffffffffffffffffffffffff1603611869576040517f08c379a0000000000000000000000000000000000000000000000000000000008152600401611860906128d1565b60405180910390fd5b61187d6709864cd3bfeaaadd60c01b610544565b611891676fca4fd3ad8b9c5860c01b610544565b6118a5676a89bc144a93d89e60c01b610544565b6118af3034611d2b565b6118c36797e9dae473b4410f60c01b610544565b33600b60003373ffffffffffffffffffffffffffffffffffffffff1673ffffffffffffffffffffffffffffffffffffffff16815260200190815260200160002060000160006101000a81548173ffffffffffffffffffffffffffffffffffffffff021916908373ffffffffffffffffffffffffffffffffffffffff160217905550611958674b2296909b4ddc3160c01b610544565b6008600081548092919061196b90612565565b919050555050565b600b6020528060005260406000206000915090508060000160009054906101000a900473ffffffffffffffffffffffffffffffffffffffff16908060000160149054906101000a900460ff16908060010154905083565b6119de6765e7a79278d5bf7260c01b610544565b6119f2673420c6820c9ed3c760c01b610544565b611a06678390c81b49a5e62360c01b610544565b60006005811115611a1a57611a196123f8565b5b826005811115611a2d57611a2c6123f8565b5b03611a6657611a46679def52038bc1b38d60c01b610544565b611a5a672b26d78186b1bb0860c01b610544565b80600281905550611d27565b611a7a677346c6f75e467a3c60c01b610544565b611a8e6737bf1cbf8acb34e860c01b610544565b60016005811115611aa257611aa16123f8565b5b826005811115611ab557611ab46123f8565b5b03611aee57611ace6769aa217d2115783760c01b610544565b611ae2672f39790983672c9b60c01b610544565b80600381905550611d26565b611b0267288142a055b76c8a60c01b610544565b611b1667a049a38731ec224660c01b610544565b60026005811115611b2a57611b296123f8565b5b826005811115611b3d57611b3c6123f8565b5b03611b7657611b566768052db4b406e36a60c01b610544565b611b6a673686c77991ea3d9260c01b610544565b80600481905550611d25565b611b8a67dab5cee8678d61e560c01b610544565b611b9e671c00f0ca30a1901960c01b610544565b60036005811115611bb257611bb16123f8565b5b826005811115611bc557611bc46123f8565b5b03611bfe57611bde6704081b8fca38e3cb60c01b610544565b611bf2673992ba92eded57b760c01b610544565b80600581905550611d24565b611c1267316ca1e2171abcfa60c01b610544565b611c2667802f32b07f4b322160c01b610544565b60046005811115611c3a57611c396123f8565b5b826005811115611c4d57611c4c6123f8565b5b03611c8657611c6667d18a2824bfa870d860c01b610544565b611c7a67c96f807082e192cc60c01b610544565b80600181905550611d23565b611c9a67d83f938f7f69220f60c01b610544565b611cae6726703521036ec41460c01b610544565b600580811115611cc157611cc06123f8565b5b826005811115611cd457611cd36123f8565b5b03611d0d57611ced678bbcc1b73e42aa8060c01b610544565b611d016784fc27a7ac9c410b60c01b610544565b80600681905550611d22565b611d2167a5b390bcc1fbacdd60c01b610544565b5b5b5b5b5b5b5050565b611d3f67c2d731a4a0a90d5d60c01b610544565b611d5367246fac22a72adb5760c01b610544565b611d67679734d76458b4889f60c01b610544565b6000808373ffffffffffffffffffffffffffffffffffffffff1683604051611d8e90612922565b60006040518083038185875af1925050503d8060008114611dcb576040519150601f19603f3d011682016040523d82523d6000602084013e611dd0565b606091505b5091509150611de967b93f12f57981ea3b60c01b610544565b611dfd67c788f4ab91ca5b4460c01b610544565b611e1167fd1b5f9b8d26a86d60c01b610544565b81611e51576040517f08c379a0000000000000000000000000000000000000000000000000000000008152600401611e4890612983565b60405180910390fd5b611e65671dea001f363b935960c01b610544565b50505050565b600082825260208201905092915050565b7f796f752063616e27742073656e64206c657373207468616e2035306b20776569600082015250565b6000611eb2602083611e6b565b9150611ebd82611e7c565b602082019050919050565b60006020820190508181036000830152611ee181611ea5565b9050919050565b600081519050919050565b7f4e487b7100000000000000000000000000000000000000000000000000000000600052604160045260246000fd5b7f4e487b7100000000000000000000000000000000000000000000000000000000600052602260045260246000fd5b60006002820490506001821680611f6957607f821691505b602082108103611f7c57611f7b611f22565b5b50919050565b60008190508160005260206000209050919050565b60006020601f8301049050919050565b600082821b905092915050565b600060088302611fe47fffffffffffffffffffffffffffffffffffffffffffffffffffffffffffffffff82611fa7565b611fee8683611fa7565b95508019841693508086168417925050509392505050565b6000819050919050565b6000819050919050565b600061203561203061202b84612006565b612010565b612006565b9050919050565b6000819050919050565b61204f8361201a565b61206361205b8261203c565b848454611fb4565b825550505050565b600090565b61207861206b565b612083818484612046565b505050565b5b818110156120a75761209c600082612070565b600181019050612089565b5050565b601f8211156120ec576120bd81611f82565b6120c684611f97565b810160208510156120d5578190505b6120e96120e185611f97565b830182612088565b50505b505050565b600082821c905092915050565b600061210f600019846008026120f1565b1980831691505092915050565b600061212883836120fe565b9150826002028217905092915050565b61214182611ee8565b67ffffffffffffffff81111561215a57612159611ef3565b5b6121648254611f51565b61216f8282856120ab565b600060209050601f8311600181146121a25760008415612190578287015190505b61219a858261211c565b865550612202565b601f1984166121b086611f82565b60005b828110156121d8578489015182556001820191506020850194506020810190506121b3565b868310156121f557848901516121f1601f8916826120fe565b8355505b6001600288020188555050505b505050505050565b600080fd5b600073ffffffffffffffffffffffffffffffffffffffff82169050919050565b600061223a8261220f565b9050919050565b61224a8161222f565b811461225557600080fd5b50565b60008135905061226781612241565b92915050565b6000602082840312156122835761228261220a565b5b600061229184828501612258565b91505092915050565b6122a381612006565b82525050565b60006020820190506122be600083018461229a565b92915050565b600681106122d157600080fd5b50565b6000813590506122e3816122c4565b92915050565b6122f281612006565b81146122fd57600080fd5b50565b60008135905061230f816122e9565b92915050565b6000806040838503121561232c5761232b61220a565b5b600061233a858286016122d4565b925050602061234b85828601612300565b9150509250929050565b60006020828403121561236b5761236a61220a565b5b600061237984828501612300565b91505092915050565b60008115159050919050565b61239781612382565b82525050565b60006020820190506123b2600083018461238e565b92915050565b600080604083850312156123cf576123ce61220a565b5b60006123dd85828601612300565b92505060206123ee85828601612300565b9150509250929050565b7f4e487b7100000000000000000000000000000000000000000000000000000000600052602160045260246000fd5b60068110612438576124376123f8565b5b50565b600081905061244982612427565b919050565b60006124598261243b565b9050919050565b6124698161244e565b82525050565b60006080820190506124846000830187612460565b612491602083018661229a565b61249e604083018561229a565b6124ab606083018461229a565b95945050505050565b6124bd8161222f565b82525050565b60006020820190506124d860008301846124b4565b92915050565b60006124e98261220f565b9050919050565b6124f9816124de565b82525050565b600060608201905061251460008301866124f0565b612521602083018561238e565b61252e604083018461229a565b949350505050565b7f4e487b7100000000000000000000000000000000000000000000000000000000600052601160045260246000fd5b600061257082612006565b91507fffffffffffffffffffffffffffffffffffffffffffffffffffffffffffffffff82036125a2576125a1612536565b5b600182019050919050565b7f7573657220616c72656164792065786973740000000000000000000000000000600082015250565b60006125e3601283611e6b565b91506125ee826125ad565b602082019050919050565b60006020820190508181036000830152612612816125d6565b9050919050565b600061262482612006565b915061262f83612006565b925082820390508181111561264757612646612536565b5b92915050565b600060408201905061266260008301856124b4565b61266f602083018461229a565b9392505050565b7f616c726561647920766f74656400000000000000000000000000000000000000600082015250565b60006126ac600d83611e6b565b91506126b782612676565b602082019050919050565b600060208201905081810360008301526126db8161269f565b9050919050565b60006126ed82612006565b91506126f883612006565b925082820261270681612006565b9150828204841483151761271d5761271c612536565b5b5092915050565b7f4e487b7100000000000000000000000000000000000000000000000000000000600052601260045260246000fd5b600061275e82612006565b915061276983612006565b92508261277957612778612724565b5b828204905092915050565b7f596f7520617265206e6f742076616c696461746f727300000000000000000000600082015250565b60006127ba601683611e6b565b91506127c582612784565b602082019050919050565b600060208201905081810360008301526127e9816127ad565b9050919050565b60006127fb82612006565b91506000820361280e5761280d612536565b5b600182039050919050565b7f73656e6420312065746800000000000000000000000000000000000000000000600082015250565b600061284f600a83611e6b565b915061285a82612819565b602082019050919050565b6000602082019050818103600083015261287e81612842565b9050919050565b7f596f7520616c7265616479206172650000000000000000000000000000000000600082015250565b60006128bb600f83611e6b565b91506128c682612885565b602082019050919050565b600060208201905081810360008301526128ea816128ae565b9050919050565b600081905092915050565b50565b600061290c6000836128f1565b9150612917826128fc565b600082019050919050565b600061292d826128ff565b9150819050919050565b7f4661696c656420746f2073656e64204574686572000000000000000000000000600082015250565b600061296d601483611e6b565b915061297882612937565b602082019050919050565b6000602082019050818103600083015261299c81612960565b905091905056fea264697066735822122075674e21f2a1e9d9f59ab0fee5f8f9fa6ac369a4e45250bf2dafb52a1821f21964736f6c63430008150033",
  "linkReferences": {},
  "deployedLinkReferences": {}
}