{
  "_format": "hh-sol-artifact-1",
  "contractName": "BetWaveDAO",
  "sourceName": "contracts/BetWaveDAO.sol",
  "abi": [
    {
      "inputs": [],
      "name": "insufficientBalance",
      "type": "error"
    },
    {
      "inputs": [],
      "name": "notRegistered",
      "type": "error"
    },
    {
      "inputs": [],
      "name": "notValidator",
      "type": "error"
    },
    {
      "anonymous": false,
      "inputs": [
        {
          "indexed": false,
          "internalType": "address",
          "name": "",
          "type": "address"
        },
        {
          "indexed": false,
          "internalType": "uint256",
          "name": "",
          "type": "uint256"
        }
      ],
      "name": "newUser",
      "type": "event"
    },
    {
      "anonymous": false,
      "inputs": [
        {
          "indexed": false,
          "internalType": "uint256",
          "name": "",
          "type": "uint256"
        }
      ],
      "name": "voteRejected",
      "type": "event"
    },
    {
      "stateMutability": "payable",
      "type": "fallback"
    },
    {
      "inputs": [],
      "name": "DAOQuorum",
      "outputs": [
        {
          "internalType": "uint256",
          "name": "",
          "type": "uint256"
        }
      ],
      "stateMutability": "view",
      "type": "function"
    },
    {
      "inputs": [
        {
          "internalType": "uint256",
          "name": "",
          "type": "uint256"
        }
      ],
      "name": "DAOVoteList",
      "outputs": [
        {
          "internalType": "enum BetWaveDAO.VoteType",
          "name": "voteType",
          "type": "uint8"
        },
        {
          "internalType": "uint256",
          "name": "voteFor",
          "type": "uint256"
        },
        {
          "internalType": "uint256",
          "name": "voteAgainst",
          "type": "uint256"
        },
        {
          "internalType": "uint256",
          "name": "newValue",
          "type": "uint256"
        }
      ],
      "stateMutability": "view",
      "type": "function"
    },
    {
      "inputs": [],
      "name": "addUser",
      "outputs": [],
      "stateMutability": "nonpayable",
      "type": "function"
    },
    {
      "inputs": [],
      "name": "addValidators",
      "outputs": [],
      "stateMutability": "payable",
      "type": "function"
    },
    {
      "inputs": [
        {
          "internalType": "enum BetWaveDAO.VoteType",
          "name": "_voteType",
          "type": "uint8"
        },
        {
          "internalType": "uint256",
          "name": "_newValue",
          "type": "uint256"
        }
      ],
      "name": "askDAOVote",
      "outputs": [],
      "stateMutability": "nonpayable",
      "type": "function"
    },
    {
      "inputs": [],
      "name": "betQuorum",
      "outputs": [
        {
          "internalType": "uint256",
          "name": "",
          "type": "uint256"
        }
      ],
      "stateMutability": "view",
      "type": "function"
    },
    {
      "inputs": [],
      "name": "creatorFees",
      "outputs": [
        {
          "internalType": "uint256",
          "name": "",
          "type": "uint256"
        }
      ],
      "stateMutability": "view",
      "type": "function"
    },
    {
      "inputs": [],
      "name": "daoVoteNumber",
      "outputs": [
        {
          "internalType": "uint256",
          "name": "",
          "type": "uint256"
        }
      ],
      "stateMutability": "view",
      "type": "function"
    },
    {
      "inputs": [
        {
          "internalType": "uint256",
          "name": "_id",
          "type": "uint256"
        }
      ],
      "name": "getDaoVoteHasVoted",
      "outputs": [
        {
          "internalType": "bool",
          "name": "",
          "type": "bool"
        }
      ],
      "stateMutability": "view",
      "type": "function"
    },
    {
      "inputs": [],
      "name": "platformFees",
      "outputs": [
        {
          "internalType": "uint256",
          "name": "",
          "type": "uint256"
        }
      ],
      "stateMutability": "view",
      "type": "function"
    },
    {
      "inputs": [
        {
          "internalType": "uint256",
          "name": "_id",
          "type": "uint256"
        },
        {
          "internalType": "uint256",
          "name": "_option",
          "type": "uint256"
        }
      ],
      "name": "setDaoVote",
      "outputs": [],
      "stateMutability": "nonpayable",
      "type": "function"
    },
    {
      "inputs": [
        {
          "internalType": "uint256",
          "name": "",
          "type": "uint256"
        }
      ],
      "name": "userList",
      "outputs": [
        {
          "internalType": "address",
          "name": "",
          "type": "address"
        }
      ],
      "stateMutability": "view",
      "type": "function"
    },
    {
      "inputs": [],
      "name": "userNumber",
      "outputs": [
        {
          "internalType": "uint256",
          "name": "",
          "type": "uint256"
        }
      ],
      "stateMutability": "view",
      "type": "function"
    },
    {
      "inputs": [
        {
          "internalType": "address",
          "name": "",
          "type": "address"
        }
      ],
      "name": "userToId",
      "outputs": [
        {
          "internalType": "uint256",
          "name": "",
          "type": "uint256"
        }
      ],
      "stateMutability": "view",
      "type": "function"
    },
    {
      "inputs": [],
      "name": "validatorFees",
      "outputs": [
        {
          "internalType": "uint256",
          "name": "",
          "type": "uint256"
        }
      ],
      "stateMutability": "view",
      "type": "function"
    },
    {
      "inputs": [],
      "name": "validatorNumber",
      "outputs": [
        {
          "internalType": "uint256",
          "name": "",
          "type": "uint256"
        }
      ],
      "stateMutability": "view",
      "type": "function"
    },
    {
      "inputs": [],
      "name": "validatorNumberRequired",
      "outputs": [
        {
          "internalType": "uint256",
          "name": "",
          "type": "uint256"
        }
      ],
      "stateMutability": "view",
      "type": "function"
    },
    {
      "inputs": [
        {
          "internalType": "address",
          "name": "",
          "type": "address"
        }
      ],
      "name": "validators",
      "outputs": [
        {
          "internalType": "address payable",
          "name": "userAddress",
          "type": "address"
        },
        {
          "internalType": "bool",
          "name": "isBlacklisted",
          "type": "bool"
        },
        {
          "internalType": "uint256",
          "name": "strike",
          "type": "uint256"
        }
      ],
      "stateMutability": "view",
      "type": "function"
    },
    {
      "inputs": [],
      "name": "withdrawFromValidators",
      "outputs": [],
      "stateMutability": "payable",
      "type": "function"
    },
    {
      "stateMutability": "payable",
      "type": "receive"
    }
  ],
  "bytecode": "0x60806040526040518060400160405280600c81526020017f6566626c7671687362646c670000000000000000000000000000000000000000815250600090816200004a9190620002fc565b506004600155609660025560326003556055600455604b600555600a60065560016007553480156200007b57600080fd5b50620003e3565b600081519050919050565b7f4e487b7100000000000000000000000000000000000000000000000000000000600052604160045260246000fd5b7f4e487b7100000000000000000000000000000000000000000000000000000000600052602260045260246000fd5b600060028204905060018216806200010457607f821691505b6020821081036200011a5762000119620000bc565b5b50919050565b60008190508160005260206000209050919050565b60006020601f8301049050919050565b600082821b905092915050565b600060088302620001847fffffffffffffffffffffffffffffffffffffffffffffffffffffffffffffffff8262000145565b62000190868362000145565b95508019841693508086168417925050509392505050565b6000819050919050565b6000819050919050565b6000620001dd620001d7620001d184620001a8565b620001b2565b620001a8565b9050919050565b6000819050919050565b620001f983620001bc565b620002116200020882620001e4565b84845462000152565b825550505050565b600090565b6200022862000219565b62000235818484620001ee565b505050565b5b818110156200025d57620002516000826200021e565b6001810190506200023b565b5050565b601f821115620002ac57620002768162000120565b620002818462000135565b8101602085101562000291578190505b620002a9620002a08562000135565b8301826200023a565b50505b505050565b600082821c905092915050565b6000620002d160001984600802620002b1565b1980831691505092915050565b6000620002ec8383620002be565b9150826002028217905092915050565b620003078262000082565b67ffffffffffffffff8111156200032357620003226200008d565b5b6200032f8254620000eb565b6200033c82828562000261565b600060209050601f8311600181146200037457600084156200035f578287015190505b6200036b8582620002de565b865550620003db565b601f198416620003848662000120565b60005b82811015620003ae5784890151825560018201915060208501945060208101905062000387565b86831015620003ce5784890151620003ca601f891682620002be565b8355505b6001600288020188555050505b505050505050565b611e3880620003f36000396000f3fe6080604052600436106101185760003560e01c806353db7e77116100a05780639f4216e8116100645780639f4216e814610425578063c5ee74eb14610462578063cb61bd8c1461046c578063dc07067114610497578063fa52c7d8146104a157610164565b806353db7e771461033b5780636694ba611461036657806372e24fdd1461039157806373a8b6c8146103bc578063860734fb146103e557610164565b8063194a4e7e116100e7578063194a4e7e146102685780631b2d6a7c146102935780632b4e8413146102bc578063455c928c146102e757806353241b4f146102fe57610164565b80630b4805d3146101aa5780630b85000d146101e75780630ed337ad14610212578063139f29a11461023d57610164565b366101645761c350341015610162576040517f08c379a000000000000000000000000000000000000000000000000000000000815260040161015990611327565b60405180910390fd5b005b6040518060400160405280601e81526020017f46616c6c6261636b2066756e6374696f6e206973206578656375746564210000815250600090816101a89190611597565b005b3480156101b657600080fd5b506101d160048036038101906101cc91906116cc565b6104e0565b6040516101de9190611708565b60405180910390f35b3480156101f357600080fd5b506101fc6104f8565b6040516102099190611708565b60405180910390f35b34801561021e57600080fd5b506102276104fe565b6040516102349190611708565b60405180910390f35b34801561024957600080fd5b50610252610504565b60405161025f9190611708565b60405180910390f35b34801561027457600080fd5b5061027d61050a565b60405161028a9190611708565b60405180910390f35b34801561029f57600080fd5b506102ba60048036038101906102b59190611774565b610510565b005b3480156102c857600080fd5b506102d161064c565b6040516102de9190611708565b60405180910390f35b3480156102f357600080fd5b506102fc610652565b005b34801561030a57600080fd5b50610325600480360381019061032091906117b4565b6107cb565b60405161033291906117fc565b60405180910390f35b34801561034757600080fd5b50610350610835565b60405161035d9190611708565b60405180910390f35b34801561037257600080fd5b5061037b61083b565b6040516103889190611708565b60405180910390f35b34801561039d57600080fd5b506103a6610841565b6040516103b39190611708565b60405180910390f35b3480156103c857600080fd5b506103e360048036038101906103de9190611817565b610847565b005b3480156103f157600080fd5b5061040c600480360381019061040791906117b4565b610b85565b60405161041c94939291906118ce565b60405180910390f35b34801561043157600080fd5b5061044c600480360381019061044791906117b4565b610bc2565b6040516104599190611922565b60405180910390f35b61046a610bf5565b005b34801561047857600080fd5b50610481610dd3565b60405161048e9190611708565b60405180910390f35b61049f610dd9565b005b3480156104ad57600080fd5b506104c860048036038101906104c391906116cc565b61106b565b6040516104d79392919061195e565b60405180910390f35b600d6020528060005260406000206000915090505481565b60045481565b60095481565b60085481565b60025481565b3373ffffffffffffffffffffffffffffffffffffffff16600b60003373ffffffffffffffffffffffffffffffffffffffff1673ffffffffffffffffffffffffffffffffffffffff16815260200190815260200160002060000160009054906101000a900473ffffffffffffffffffffffffffffffffffffffff1673ffffffffffffffffffffffffffffffffffffffff16146105d7576040517fec752d2a00000000000000000000000000000000000000000000000000000000815260040160405180910390fd5b81600a6000600954815260200190815260200160002060000160006101000a81548160ff0219169083600581111561061257610611611857565b5b021790555080600a60006009600081548092919061062f906119c4565b919050558152602001908152602001600020600301819055505050565b60075481565b6000600d60003373ffffffffffffffffffffffffffffffffffffffff1673ffffffffffffffffffffffffffffffffffffffff16815260200190815260200160002054146106d4576040517f08c379a00000000000000000000000000000000000000000000000000000000081526004016106cb90611a58565b60405180910390fd5b600754600d60003373ffffffffffffffffffffffffffffffffffffffff1673ffffffffffffffffffffffffffffffffffffffff1681526020019081526020016000208190555033600c600060076000815480929190610732906119c4565b91905055815260200190815260200160002060006101000a81548173ffffffffffffffffffffffffffffffffffffffff021916908373ffffffffffffffffffffffffffffffffffffffff1602179055507ff9ac505b144a1879609b52f02d3441e478cdd9c19c5d198a2712ac5184ecef673360016007546107b39190611a78565b6040516107c1929190611aac565b60405180910390a1565b6000600a600083815260200190815260200160002060040160003373ffffffffffffffffffffffffffffffffffffffff1673ffffffffffffffffffffffffffffffffffffffff16815260200190815260200160002060009054906101000a900460ff169050919050565b60015481565b60035481565b60065481565b3373ffffffffffffffffffffffffffffffffffffffff16600b60003373ffffffffffffffffffffffffffffffffffffffff1673ffffffffffffffffffffffffffffffffffffffff16815260200190815260200160002060000160009054906101000a900473ffffffffffffffffffffffffffffffffffffffff1673ffffffffffffffffffffffffffffffffffffffff161461090e576040517fec752d2a00000000000000000000000000000000000000000000000000000000815260040160405180910390fd5b60001515600a600084815260200190815260200160002060040160003373ffffffffffffffffffffffffffffffffffffffff1673ffffffffffffffffffffffffffffffffffffffff16815260200190815260200160002060009054906101000a900460ff161515146109b5576040517f08c379a00000000000000000000000000000000000000000000000000000000081526004016109ac90611b21565b60405180910390fd5b600181036109ee57600a600083815260200190815260200160002060010160008154809291906109e4906119c4565b9190505550610a24565b60028103610a2357600a60008381526020019081526020016000206002016000815480929190610a1d906119c4565b91905055505b5b6001600a600084815260200190815260200160002060040160003373ffffffffffffffffffffffffffffffffffffffff1673ffffffffffffffffffffffffffffffffffffffff16815260200190815260200160002060006101000a81548160ff0219169083151502179055506005546008546064600a600086815260200190815260200160002060010154610ab99190611b41565b610ac39190611bb2565b10610b1057610b0b600a600084815260200190815260200160002060000160009054906101000a900460ff16600a6000858152602001908152602001600020600301546110c2565b610b81565b6005546008546064600a600086815260200190815260200160002060020154610b399190611b41565b610b439190611bb2565b10610b80577f91944425928af46b7fe486868fbdd04cd88c32637b4c91612caa1781c1b91f8c82604051610b779190611708565b60405180910390a15b5b5050565b600a6020528060005260406000206000915090508060000160009054906101000a900460ff16908060010154908060020154908060030154905084565b600c6020528060005260406000206000915054906101000a900473ffffffffffffffffffffffffffffffffffffffff1681565b30670de0b6b3a76400008173ffffffffffffffffffffffffffffffffffffffff163111610c4e576040517f47108e3e00000000000000000000000000000000000000000000000000000000815260040160405180910390fd5b3373ffffffffffffffffffffffffffffffffffffffff16600b60003373ffffffffffffffffffffffffffffffffffffffff1673ffffffffffffffffffffffffffffffffffffffff16815260200190815260200160002060000160009054906101000a900473ffffffffffffffffffffffffffffffffffffffff1673ffffffffffffffffffffffffffffffffffffffff1614610d1e576040517f08c379a0000000000000000000000000000000000000000000000000000000008152600401610d1590611c2f565b60405180910390fd5b6000670de0b6b3a76400009050610d353382611216565b6000600b60003373ffffffffffffffffffffffffffffffffffffffff1673ffffffffffffffffffffffffffffffffffffffff16815260200190815260200160002060000160006101000a81548173ffffffffffffffffffffffffffffffffffffffff021916908373ffffffffffffffffffffffffffffffffffffffff16021790555060086000815480929190610dca90611c4f565b91905055505050565b60055481565b6000600d60003373ffffffffffffffffffffffffffffffffffffffff1673ffffffffffffffffffffffffffffffffffffffff1681526020019081526020016000205403610e52576040517f3a70817d00000000000000000000000000000000000000000000000000000000815260040160405180910390fd5b33670de0b6b3a76400008173ffffffffffffffffffffffffffffffffffffffff163111610eab576040517f47108e3e00000000000000000000000000000000000000000000000000000000815260040160405180910390fd5b670de0b6b3a76400003414610ef5576040517f08c379a0000000000000000000000000000000000000000000000000000000008152600401610eec90611cc4565b60405180910390fd5b3373ffffffffffffffffffffffffffffffffffffffff16600b60003373ffffffffffffffffffffffffffffffffffffffff1673ffffffffffffffffffffffffffffffffffffffff16815260200190815260200160002060000160009054906101000a900473ffffffffffffffffffffffffffffffffffffffff1673ffffffffffffffffffffffffffffffffffffffff1603610fc5576040517f08c379a0000000000000000000000000000000000000000000000000000000008152600401610fbc90611d30565b60405180910390fd5b610fcf3034611216565b33600b60003373ffffffffffffffffffffffffffffffffffffffff1673ffffffffffffffffffffffffffffffffffffffff16815260200190815260200160002060000160006101000a81548173ffffffffffffffffffffffffffffffffffffffff021916908373ffffffffffffffffffffffffffffffffffffffff16021790555060086000815480929190611063906119c4565b919050555050565b600b6020528060005260406000206000915090508060000160009054906101000a900473ffffffffffffffffffffffffffffffffffffffff16908060000160149054906101000a900460ff16908060010154905083565b600060058111156110d6576110d5611857565b5b8260058111156110e9576110e8611857565b5b036110fa5780600281905550611212565b6001600581111561110e5761110d611857565b5b82600581111561112157611120611857565b5b036111325780600381905550611211565b6002600581111561114657611145611857565b5b82600581111561115957611158611857565b5b0361116a5780600481905550611210565b6003600581111561117e5761117d611857565b5b82600581111561119157611190611857565b5b036111a2578060058190555061120f565b600460058111156111b6576111b5611857565b5b8260058111156111c9576111c8611857565b5b036111da578060018190555061120e565b6005808111156111ed576111ec611857565b5b826005811115611200576111ff611857565b5b0361120d57806006819055505b5b5b5b5b5b5050565b6000808373ffffffffffffffffffffffffffffffffffffffff168360405161123d90611d81565b60006040518083038185875af1925050503d806000811461127a576040519150601f19603f3d011682016040523d82523d6000602084013e61127f565b606091505b5091509150816112c4576040517f08c379a00000000000000000000000000000000000000000000000000000000081526004016112bb90611de2565b60405180910390fd5b50505050565b600082825260208201905092915050565b7f796f752063616e27742073656e64206c657373207468616e2035306b20776569600082015250565b60006113116020836112ca565b915061131c826112db565b602082019050919050565b6000602082019050818103600083015261134081611304565b9050919050565b600081519050919050565b7f4e487b7100000000000000000000000000000000000000000000000000000000600052604160045260246000fd5b7f4e487b7100000000000000000000000000000000000000000000000000000000600052602260045260246000fd5b600060028204905060018216806113c857607f821691505b6020821081036113db576113da611381565b5b50919050565b60008190508160005260206000209050919050565b60006020601f8301049050919050565b600082821b905092915050565b6000600883026114437fffffffffffffffffffffffffffffffffffffffffffffffffffffffffffffffff82611406565b61144d8683611406565b95508019841693508086168417925050509392505050565b6000819050919050565b6000819050919050565b600061149461148f61148a84611465565b61146f565b611465565b9050919050565b6000819050919050565b6114ae83611479565b6114c26114ba8261149b565b848454611413565b825550505050565b600090565b6114d76114ca565b6114e28184846114a5565b505050565b5b81811015611506576114fb6000826114cf565b6001810190506114e8565b5050565b601f82111561154b5761151c816113e1565b611525846113f6565b81016020851015611534578190505b611548611540856113f6565b8301826114e7565b50505b505050565b600082821c905092915050565b600061156e60001984600802611550565b1980831691505092915050565b6000611587838361155d565b9150826002028217905092915050565b6115a082611347565b67ffffffffffffffff8111156115b9576115b8611352565b5b6115c382546113b0565b6115ce82828561150a565b600060209050601f83116001811461160157600084156115ef578287015190505b6115f9858261157b565b865550611661565b601f19841661160f866113e1565b60005b8281101561163757848901518255600182019150602085019450602081019050611612565b868310156116545784890151611650601f89168261155d565b8355505b6001600288020188555050505b505050505050565b600080fd5b600073ffffffffffffffffffffffffffffffffffffffff82169050919050565b60006116998261166e565b9050919050565b6116a98161168e565b81146116b457600080fd5b50565b6000813590506116c6816116a0565b92915050565b6000602082840312156116e2576116e1611669565b5b60006116f0848285016116b7565b91505092915050565b61170281611465565b82525050565b600060208201905061171d60008301846116f9565b92915050565b6006811061173057600080fd5b50565b60008135905061174281611723565b92915050565b61175181611465565b811461175c57600080fd5b50565b60008135905061176e81611748565b92915050565b6000806040838503121561178b5761178a611669565b5b600061179985828601611733565b92505060206117aa8582860161175f565b9150509250929050565b6000602082840312156117ca576117c9611669565b5b60006117d88482850161175f565b91505092915050565b60008115159050919050565b6117f6816117e1565b82525050565b600060208201905061181160008301846117ed565b92915050565b6000806040838503121561182e5761182d611669565b5b600061183c8582860161175f565b925050602061184d8582860161175f565b9150509250929050565b7f4e487b7100000000000000000000000000000000000000000000000000000000600052602160045260246000fd5b6006811061189757611896611857565b5b50565b60008190506118a882611886565b919050565b60006118b88261189a565b9050919050565b6118c8816118ad565b82525050565b60006080820190506118e360008301876118bf565b6118f060208301866116f9565b6118fd60408301856116f9565b61190a60608301846116f9565b95945050505050565b61191c8161168e565b82525050565b60006020820190506119376000830184611913565b92915050565b60006119488261166e565b9050919050565b6119588161193d565b82525050565b6000606082019050611973600083018661194f565b61198060208301856117ed565b61198d60408301846116f9565b949350505050565b7f4e487b7100000000000000000000000000000000000000000000000000000000600052601160045260246000fd5b60006119cf82611465565b91507fffffffffffffffffffffffffffffffffffffffffffffffffffffffffffffffff8203611a0157611a00611995565b5b600182019050919050565b7f7573657220616c72656164792065786973740000000000000000000000000000600082015250565b6000611a426012836112ca565b9150611a4d82611a0c565b602082019050919050565b60006020820190508181036000830152611a7181611a35565b9050919050565b6000611a8382611465565b9150611a8e83611465565b9250828203905081811115611aa657611aa5611995565b5b92915050565b6000604082019050611ac16000830185611913565b611ace60208301846116f9565b9392505050565b7f616c726561647920766f74656400000000000000000000000000000000000000600082015250565b6000611b0b600d836112ca565b9150611b1682611ad5565b602082019050919050565b60006020820190508181036000830152611b3a81611afe565b9050919050565b6000611b4c82611465565b9150611b5783611465565b9250828202611b6581611465565b91508282048414831517611b7c57611b7b611995565b5b5092915050565b7f4e487b7100000000000000000000000000000000000000000000000000000000600052601260045260246000fd5b6000611bbd82611465565b9150611bc883611465565b925082611bd857611bd7611b83565b5b828204905092915050565b7f596f7520617265206e6f742076616c696461746f727300000000000000000000600082015250565b6000611c196016836112ca565b9150611c2482611be3565b602082019050919050565b60006020820190508181036000830152611c4881611c0c565b9050919050565b6000611c5a82611465565b915060008203611c6d57611c6c611995565b5b600182039050919050565b7f73656e6420312065746800000000000000000000000000000000000000000000600082015250565b6000611cae600a836112ca565b9150611cb982611c78565b602082019050919050565b60006020820190508181036000830152611cdd81611ca1565b9050919050565b7f596f7520616c7265616479206172650000000000000000000000000000000000600082015250565b6000611d1a600f836112ca565b9150611d2582611ce4565b602082019050919050565b60006020820190508181036000830152611d4981611d0d565b9050919050565b600081905092915050565b50565b6000611d6b600083611d50565b9150611d7682611d5b565b600082019050919050565b6000611d8c82611d5e565b9150819050919050565b7f4661696c656420746f2073656e64204574686572000000000000000000000000600082015250565b6000611dcc6014836112ca565b9150611dd782611d96565b602082019050919050565b60006020820190508181036000830152611dfb81611dbf565b905091905056fea26469706673582212201046d5df8398fba48cee8d598fb12430e68f0681afb582b1b97517bb3d7547c664736f6c63430008150033",
  "linkReferences": {},
  "deployedLinkReferences": {}
}