{
  "_format": "hh-sol-artifact-1",
  "contractName": "BetWaveOrganizer",
  "sourceName": "contracts/BetWaveOrganizer.sol",
  "abi": [
    {
      "inputs": [
        {
          "internalType": "address",
          "name": "_betWaveDAOAddress",
          "type": "address"
        }
      ],
      "stateMutability": "payable",
      "type": "constructor"
    },
    {
      "inputs": [],
      "name": "noWinner",
      "type": "error"
    },
    {
      "inputs": [],
      "name": "notOwner",
      "type": "error"
    },
    {
      "inputs": [],
      "name": "notRegistered",
      "type": "error"
    },
    {
      "inputs": [],
      "name": "notValidator",
      "type": "error"
    },
    {
      "inputs": [],
      "name": "wrongStep",
      "type": "error"
    },
    {
      "anonymous": false,
      "inputs": [
        {
          "indexed": false,
          "internalType": "address",
          "name": "",
          "type": "address"
        },
        {
          "indexed": false,
          "internalType": "string",
          "name": "",
          "type": "string"
        },
        {
          "indexed": false,
          "internalType": "string",
          "name": "",
          "type": "string"
        }
      ],
      "name": "newBet",
      "type": "event"
    },
    {
      "anonymous": false,
      "inputs": [
        {
          "indexed": false,
          "internalType": "address",
          "name": "",
          "type": "address"
        }
      ],
      "name": "startCount",
      "type": "event"
    },
    {
      "anonymous": false,
      "inputs": [
        {
          "indexed": false,
          "internalType": "address",
          "name": "",
          "type": "address"
        }
      ],
      "name": "startValidation",
      "type": "event"
    },
    {
      "stateMutability": "payable",
      "type": "fallback"
    },
    {
      "inputs": [
        {
          "internalType": "address",
          "name": "",
          "type": "address"
        }
      ],
      "name": "betList",
      "outputs": [
        {
          "internalType": "string",
          "name": "compName1",
          "type": "string"
        },
        {
          "internalType": "string",
          "name": "compName2",
          "type": "string"
        },
        {
          "internalType": "address",
          "name": "owner",
          "type": "address"
        },
        {
          "internalType": "uint256",
          "name": "voteCount",
          "type": "uint256"
        },
        {
          "internalType": "uint256",
          "name": "comp1VoteCount",
          "type": "uint256"
        },
        {
          "internalType": "uint256",
          "name": "comp2VoteCount",
          "type": "uint256"
        },
        {
          "internalType": "enum BetWaveOrganizer.BetStatus",
          "name": "betStatus",
          "type": "uint8"
        }
      ],
      "stateMutability": "view",
      "type": "function"
    },
    {
      "inputs": [
        {
          "internalType": "string",
          "name": "_compName1",
          "type": "string"
        },
        {
          "internalType": "string",
          "name": "_compName2",
          "type": "string"
        }
      ],
      "name": "deployNewBet",
      "outputs": [],
      "stateMutability": "nonpayable",
      "type": "function"
    },
    {
      "inputs": [
        {
          "internalType": "address",
          "name": "_betAddress",
          "type": "address"
        }
      ],
      "name": "getBetValidatorsResult",
      "outputs": [
        {
          "internalType": "uint256",
          "name": "",
          "type": "uint256"
        }
      ],
      "stateMutability": "view",
      "type": "function"
    },
    {
      "inputs": [
        {
          "internalType": "address",
          "name": "_betAddress",
          "type": "address"
        },
        {
          "internalType": "uint256",
          "name": "_id",
          "type": "uint256"
        }
      ],
      "name": "getvalidatorAddress",
      "outputs": [
        {
          "internalType": "address",
          "name": "",
          "type": "address"
        }
      ],
      "stateMutability": "view",
      "type": "function"
    },
    {
      "inputs": [],
      "name": "lastSimpleBetAddress",
      "outputs": [
        {
          "internalType": "address",
          "name": "",
          "type": "address"
        }
      ],
      "stateMutability": "view",
      "type": "function"
    },
    {
      "inputs": [
        {
          "internalType": "uint256",
          "name": "_compId",
          "type": "uint256"
        },
        {
          "internalType": "address",
          "name": "_betAddress",
          "type": "address"
        }
      ],
      "name": "setBetVote",
      "outputs": [],
      "stateMutability": "nonpayable",
      "type": "function"
    },
    {
      "inputs": [
        {
          "internalType": "address",
          "name": "_betAddress",
          "type": "address"
        }
      ],
      "name": "startBetValidation",
      "outputs": [],
      "stateMutability": "nonpayable",
      "type": "function"
    },
    {
      "inputs": [],
      "name": "test1",
      "outputs": [
        {
          "internalType": "uint256",
          "name": "",
          "type": "uint256"
        }
      ],
      "stateMutability": "view",
      "type": "function"
    },
    {
      "inputs": [],
      "name": "test2",
      "outputs": [
        {
          "internalType": "uint256",
          "name": "",
          "type": "uint256"
        }
      ],
      "stateMutability": "view",
      "type": "function"
    },
    {
      "inputs": [],
      "name": "test3",
      "outputs": [
        {
          "internalType": "uint256",
          "name": "",
          "type": "uint256"
        }
      ],
      "stateMutability": "view",
      "type": "function"
    },
    {
      "stateMutability": "payable",
      "type": "receive"
    }
  ],
  "bytecode": "0x60806040526040518060400160405280600881526020017f616c626174726f73000000000000000000000000000000000000000000000000815250600090816200004a919062000332565b50604051620055d1380380620055d1833981810160405281019062000070919062000483565b80600260006101000a81548173ffffffffffffffffffffffffffffffffffffffff021916908373ffffffffffffffffffffffffffffffffffffffff16021790555050620004b5565b600081519050919050565b7f4e487b7100000000000000000000000000000000000000000000000000000000600052604160045260246000fd5b7f4e487b7100000000000000000000000000000000000000000000000000000000600052602260045260246000fd5b600060028204905060018216806200013a57607f821691505b60208210810362000150576200014f620000f2565b5b50919050565b60008190508160005260206000209050919050565b60006020601f8301049050919050565b600082821b905092915050565b600060088302620001ba7fffffffffffffffffffffffffffffffffffffffffffffffffffffffffffffffff826200017b565b620001c686836200017b565b95508019841693508086168417925050509392505050565b6000819050919050565b6000819050919050565b6000620002136200020d6200020784620001de565b620001e8565b620001de565b9050919050565b6000819050919050565b6200022f83620001f2565b620002476200023e826200021a565b84845462000188565b825550505050565b600090565b6200025e6200024f565b6200026b81848462000224565b505050565b5b8181101562000293576200028760008262000254565b60018101905062000271565b5050565b601f821115620002e257620002ac8162000156565b620002b7846200016b565b81016020851015620002c7578190505b620002df620002d6856200016b565b83018262000270565b50505b505050565b600082821c905092915050565b60006200030760001984600802620002e7565b1980831691505092915050565b6000620003228383620002f4565b9150826002028217905092915050565b6200033d82620000b8565b67ffffffffffffffff811115620003595762000358620000c3565b5b62000365825462000121565b6200037282828562000297565b600060209050601f831160018114620003aa576000841562000395578287015190505b620003a1858262000314565b86555062000411565b601f198416620003ba8662000156565b60005b82811015620003e457848901518255600182019150602085019450602081019050620003bd565b8683101562000404578489015162000400601f891682620002f4565b8355505b6001600288020188555050505b505050505050565b600080fd5b600073ffffffffffffffffffffffffffffffffffffffff82169050919050565b60006200044b826200041e565b9050919050565b6200045d816200043e565b81146200046957600080fd5b50565b6000815190506200047d8162000452565b92915050565b6000602082840312156200049c576200049b62000419565b5b6000620004ac848285016200046c565b91505092915050565b61510c80620004c56000396000f3fe608060405260043610620000a35760003560e01c80636b59084d11620000615780636b59084d146200023d578063a5f9b643146200026d578063cef84a62146200029b578063ee9c036214620002e5578063fd3393fe146200032957620000f3565b80630a8e8e01146200013b57806341178651146200016b578063458f6f6f14620001995780636310956e14620001dd57806366e41cb7146200020d57620000f3565b36620000f35761c350341015620000f1576040517f08c379a0000000000000000000000000000000000000000000000000000000008152600401620000e89062001f12565b60405180910390fd5b005b6040518060400160405280601e81526020017f46616c6c6261636b2066756e6374696f6e20697320657865637574656421000081525060009081620001399190620021ae565b005b3480156200014857600080fd5b506200015362000357565b604051620001629190620022a6565b60405180910390f35b3480156200017857600080fd5b506200019760048036038101906200019191906200236d565b6200035d565b005b348015620001a657600080fd5b50620001c56004803603810190620001bf9190620023b4565b62000ace565b604051620001d491906200240c565b60405180910390f35b348015620001ea57600080fd5b50620001f562000b5a565b6040516200020491906200240c565b60405180910390f35b3480156200021a57600080fd5b506200022562000b80565b604051620002349190620022a6565b60405180910390f35b3480156200024a57600080fd5b506200025562000b86565b604051620002649190620022a6565b60405180910390f35b3480156200027a57600080fd5b506200029960048036038101906200029391906200255c565b62000b8c565b005b348015620002a857600080fd5b50620002c76004803603810190620002c19190620025e1565b6200104e565b604051620002dc979695949392919062002700565b60405180910390f35b348015620002f257600080fd5b506200031160048036038101906200030b9190620025e1565b620011dd565b604051620003209190620022a6565b60405180910390f35b3480156200033657600080fd5b506200035560048036038101906200034f9190620025e1565b62001266565b005b60065481565b60018181600381111562000376576200037562002680565b5b600160008373ffffffffffffffffffffffffffffffffffffffff1673ffffffffffffffffffffffffffffffffffffffff16815260200190815260200160002060080160009054906101000a900460ff166003811115620003db57620003da62002680565b5b1462000413576040517f248d543200000000000000000000000000000000000000000000000000000000815260040160405180910390fd5b6002841062000459576040517f08c379a00000000000000000000000000000000000000000000000000000000081526004016200045090620027db565b60405180910390fd5b6000600260009054906101000a900473ffffffffffffffffffffffffffffffffffffffff1673ffffffffffffffffffffffffffffffffffffffff1663fa52c7d8336040518263ffffffff1660e01b8152600401620004b891906200240c565b606060405180830381865afa158015620004d6573d6000803e3d6000fd5b505050506040513d601f19601f82011682018060405250810190620004fc919062002896565b505090503373ffffffffffffffffffffffffffffffffffffffff168173ffffffffffffffffffffffffffffffffffffffff161462000566576040517fec752d2a00000000000000000000000000000000000000000000000000000000815260040160405180910390fd5b600085036200075157600160008573ffffffffffffffffffffffffffffffffffffffff1673ffffffffffffffffffffffffffffffffffffffff1681526020019081526020016000206006016000815480929190620005c49062002921565b9190505550600160008573ffffffffffffffffffffffffffffffffffffffff1673ffffffffffffffffffffffffffffffffffffffff16815260200190815260200160002060050160008154809291906200061e9062002921565b91905055506000600160008673ffffffffffffffffffffffffffffffffffffffff1673ffffffffffffffffffffffffffffffffffffffff16815260200190815260200160002060030160003373ffffffffffffffffffffffffffffffffffffffff1673ffffffffffffffffffffffffffffffffffffffff16815260200190815260200160002081905550600160008573ffffffffffffffffffffffffffffffffffffffff1673ffffffffffffffffffffffffffffffffffffffff168152602001908152602001600020600401339080600181540180825580915050600190039060005260206000200160009091909190916101000a81548173ffffffffffffffffffffffffffffffffffffffff021916908373ffffffffffffffffffffffffffffffffffffffff16021790555062000937565b600185036200093657600160008573ffffffffffffffffffffffffffffffffffffffff1673ffffffffffffffffffffffffffffffffffffffff1681526020019081526020016000206007016000815480929190620007af9062002921565b9190505550600160008573ffffffffffffffffffffffffffffffffffffffff1673ffffffffffffffffffffffffffffffffffffffff1681526020019081526020016000206005016000815480929190620008099062002921565b919050555060018060008673ffffffffffffffffffffffffffffffffffffffff1673ffffffffffffffffffffffffffffffffffffffff16815260200190815260200160002060030160003373ffffffffffffffffffffffffffffffffffffffff1673ffffffffffffffffffffffffffffffffffffffff16815260200190815260200160002081905550600160008573ffffffffffffffffffffffffffffffffffffffff1673ffffffffffffffffffffffffffffffffffffffff168152602001908152602001600020600401339080600181540180825580915050600190039060005260206000200160009091909190916101000a81548173ffffffffffffffffffffffffffffffffffffffff021916908373ffffffffffffffffffffffffffffffffffffffff1602179055505b5b600260009054906101000a900473ffffffffffffffffffffffffffffffffffffffff1673ffffffffffffffffffffffffffffffffffffffff166353db7e776040518163ffffffff1660e01b8152600401602060405180830381865afa158015620009a5573d6000803e3d6000fd5b505050506040513d601f19601f82011682018060405250810190620009cb91906200296e565b600160008673ffffffffffffffffffffffffffffffffffffffff1673ffffffffffffffffffffffffffffffffffffffff168152602001908152602001600020600501541062000ac7576002600160008673ffffffffffffffffffffffffffffffffffffffff1673ffffffffffffffffffffffffffffffffffffffff16815260200190815260200160002060080160006101000a81548160ff0219169083600381111562000a7d5762000a7c62002680565b5b02179055507fc7e162d919b6b9aab852a8c03449630d12cd29ba4c4219786db08ee9d51c9b608460405162000ab391906200240c565b60405180910390a162000ac68462001491565b5b5050505050565b6000600160008473ffffffffffffffffffffffffffffffffffffffff1673ffffffffffffffffffffffffffffffffffffffff168152602001908152602001600020600401828154811062000b275762000b26620029a0565b5b9060005260206000200160009054906101000a900473ffffffffffffffffffffffffffffffffffffffff16905092915050565b600360009054906101000a900473ffffffffffffffffffffffffffffffffffffffff1681565b60055481565b60045481565b6000600260009054906101000a900473ffffffffffffffffffffffffffffffffffffffff1673ffffffffffffffffffffffffffffffffffffffff16630b4805d3336040518263ffffffff1660e01b815260040162000beb91906200240c565b602060405180830381865afa15801562000c09573d6000803e3d6000fd5b505050506040513d601f19601f8201168201806040525081019062000c2f91906200296e565b0362000c67576040517f3a70817d00000000000000000000000000000000000000000000000000000000815260040160405180910390fd5b600260009054906101000a900473ffffffffffffffffffffffffffffffffffffffff1673ffffffffffffffffffffffffffffffffffffffff166353db7e776040518163ffffffff1660e01b8152600401602060405180830381865afa15801562000cd5573d6000803e3d6000fd5b505050506040513d601f19601f8201168201806040525081019062000cfb91906200296e565b600260009054906101000a900473ffffffffffffffffffffffffffffffffffffffff1673ffffffffffffffffffffffffffffffffffffffff1663139f29a16040518163ffffffff1660e01b8152600401602060405180830381865afa15801562000d69573d6000803e3d6000fd5b505050506040513d601f19601f8201168201806040525081019062000d8f91906200296e565b101562000dd3576040517f08c379a000000000000000000000000000000000000000000000000000000000815260040162000dca9062002a1f565b60405180910390fd5b6000828230600260009054906101000a900473ffffffffffffffffffffffffffffffffffffffff1660405162000e099062001ea3565b62000e18949392919062002a41565b604051809103906000f08015801562000e35573d6000803e3d6000fd5b50905080600360006101000a81548173ffffffffffffffffffffffffffffffffffffffff021916908373ffffffffffffffffffffffffffffffffffffffff16021790555082600160008373ffffffffffffffffffffffffffffffffffffffff1673ffffffffffffffffffffffffffffffffffffffff168152602001908152602001600020600001908162000eca9190620021ae565b5081600160008373ffffffffffffffffffffffffffffffffffffffff1673ffffffffffffffffffffffffffffffffffffffff168152602001908152602001600020600101908162000f1c9190620021ae565b5033600160008373ffffffffffffffffffffffffffffffffffffffff1673ffffffffffffffffffffffffffffffffffffffff16815260200190815260200160002060020160006101000a81548173ffffffffffffffffffffffffffffffffffffffff021916908373ffffffffffffffffffffffffffffffffffffffff1602179055506000600160008373ffffffffffffffffffffffffffffffffffffffff1673ffffffffffffffffffffffffffffffffffffffff16815260200190815260200160002060080160006101000a81548160ff0219169083600381111562001007576200100662002680565b5b02179055507f909e36e1d400e483a06621ce59ea23139b7a5c694c10b1e889d0e79ce49922f2818484604051620010419392919062002a9c565b60405180910390a1505050565b6001602052806000526040600020600091509050806000018054620010739062001f9d565b80601f0160208091040260200160405190810160405280929190818152602001828054620010a19062001f9d565b8015620010f25780601f10620010c657610100808354040283529160200191620010f2565b820191906000526020600020905b815481529060010190602001808311620010d457829003601f168201915b505050505090806001018054620011099062001f9d565b80601f0160208091040260200160405190810160405280929190818152602001828054620011379062001f9d565b8015620011885780601f106200115c5761010080835404028352916020019162001188565b820191906000526020600020905b8154815290600101906020018083116200116a57829003601f168201915b5050505050908060020160009054906101000a900473ffffffffffffffffffffffffffffffffffffffff16908060050154908060060154908060070154908060080160009054906101000a900460ff16905087565b6000600160008373ffffffffffffffffffffffffffffffffffffffff1673ffffffffffffffffffffffffffffffffffffffff16815260200190815260200160002060030160003373ffffffffffffffffffffffffffffffffffffffff1673ffffffffffffffffffffffffffffffffffffffff168152602001908152602001600020549050919050565b803373ffffffffffffffffffffffffffffffffffffffff16600160008373ffffffffffffffffffffffffffffffffffffffff1673ffffffffffffffffffffffffffffffffffffffff16815260200190815260200160002060020160009054906101000a900473ffffffffffffffffffffffffffffffffffffffff1673ffffffffffffffffffffffffffffffffffffffff16146200132f576040517f251c9d6300000000000000000000000000000000000000000000000000000000815260040160405180910390fd5b60008281600381111562001348576200134762002680565b5b600160008373ffffffffffffffffffffffffffffffffffffffff1673ffffffffffffffffffffffffffffffffffffffff16815260200190815260200160002060080160009054906101000a900460ff166003811115620013ad57620013ac62002680565b5b14620013e5576040517f248d543200000000000000000000000000000000000000000000000000000000815260040160405180910390fd5b60018060008673ffffffffffffffffffffffffffffffffffffffff1673ffffffffffffffffffffffffffffffffffffffff16815260200190815260200160002060080160006101000a81548160ff021916908360038111156200144d576200144c62002680565b5b02179055507f8ebce6dadff954899922e37e6884f44f19ef94b282a760a548c170743cc892e1846040516200148391906200240c565b60405180910390a150505050565b600160008273ffffffffffffffffffffffffffffffffffffffff1673ffffffffffffffffffffffffffffffffffffffff16815260200190815260200160002060070154600160008373ffffffffffffffffffffffffffffffffffffffff1673ffffffffffffffffffffffffffffffffffffffff1681526020019081526020016000206006015411156200168a57600260009054906101000a900473ffffffffffffffffffffffffffffffffffffffff1673ffffffffffffffffffffffffffffffffffffffff16630b85000d6040518163ffffffff1660e01b8152600401602060405180830381865afa1580156200158c573d6000803e3d6000fd5b505050506040513d601f19601f82011682018060405250810190620015b291906200296e565b600160008373ffffffffffffffffffffffffffffffffffffffff1673ffffffffffffffffffffffffffffffffffffffff168152602001908152602001600020600501546064600160008573ffffffffffffffffffffffffffffffffffffffff1673ffffffffffffffffffffffffffffffffffffffff1681526020019081526020016000206006015462001646919062002ae7565b62001652919062002b61565b106200168457620016658160006200189b565b8073ffffffffffffffffffffffffffffffffffffffff16316006819055505b62001898565b600160008273ffffffffffffffffffffffffffffffffffffffff1673ffffffffffffffffffffffffffffffffffffffff16815260200190815260200160002060070154600160008373ffffffffffffffffffffffffffffffffffffffff1673ffffffffffffffffffffffffffffffffffffffff1681526020019081526020016000206006015410156200186557600260009054906101000a900473ffffffffffffffffffffffffffffffffffffffff1673ffffffffffffffffffffffffffffffffffffffff16630b85000d6040518163ffffffff1660e01b8152600401602060405180830381865afa15801562001785573d6000803e3d6000fd5b505050506040513d601f19601f82011682018060405250810190620017ab91906200296e565b600160008373ffffffffffffffffffffffffffffffffffffffff1673ffffffffffffffffffffffffffffffffffffffff168152602001908152602001600020600501546064600160008573ffffffffffffffffffffffffffffffffffffffff1673ffffffffffffffffffffffffffffffffffffffff168152602001908152602001600020600701546200183f919062002ae7565b6200184b919062002b61565b106200185f576200185e8160016200189b565b5b62001897565b6040517fbc7316f200000000000000000000000000000000000000000000000000000000815260040160405180910390fd5b5b50565b8173ffffffffffffffffffffffffffffffffffffffff16635c3a3e5c600260009054906101000a900473ffffffffffffffffffffffffffffffffffffffff1673ffffffffffffffffffffffffffffffffffffffff1663194a4e7e6040518163ffffffff1660e01b8152600401602060405180830381865afa15801562001925573d6000803e3d6000fd5b505050506040513d601f19601f820116820180604052508101906200194b91906200296e565b600260009054906101000a900473ffffffffffffffffffffffffffffffffffffffff1673ffffffffffffffffffffffffffffffffffffffff16636694ba616040518163ffffffff1660e01b8152600401602060405180830381865afa158015620019b9573d6000803e3d6000fd5b505050506040513d601f19601f82011682018060405250810190620019df91906200296e565b600160008773ffffffffffffffffffffffffffffffffffffffff1673ffffffffffffffffffffffffffffffffffffffff16815260200190815260200160002060020160009054906101000a900473ffffffffffffffffffffffffffffffffffffffff166040518463ffffffff1660e01b815260040162001a629392919062002b99565b600060405180830381600087803b15801562001a7d57600080fd5b505af115801562001a92573d6000803e3d6000fd5b505050508173ffffffffffffffffffffffffffffffffffffffff163160058190555060008273ffffffffffffffffffffffffffffffffffffffff1663ebfb6652600260009054906101000a900473ffffffffffffffffffffffffffffffffffffffff1673ffffffffffffffffffffffffffffffffffffffff166372e24fdd6040518163ffffffff1660e01b8152600401602060405180830381865afa15801562001b40573d6000803e3d6000fd5b505050506040513d601f19601f8201168201806040525081019062001b6691906200296e565b6040518263ffffffff1660e01b815260040162001b849190620022a6565b6020604051808303816000875af115801562001ba4573d6000803e3d6000fd5b505050506040513d601f19601f8201168201806040525081019062001bca91906200296e565b90508060048190555060005b600160008573ffffffffffffffffffffffffffffffffffffffff1673ffffffffffffffffffffffffffffffffffffffff1681526020019081526020016000206004018054905081101562001e3b5782600160008673ffffffffffffffffffffffffffffffffffffffff1673ffffffffffffffffffffffffffffffffffffffff1681526020019081526020016000206003016000600160008873ffffffffffffffffffffffffffffffffffffffff1673ffffffffffffffffffffffffffffffffffffffff168152602001908152602001600020600401848154811062001cc05762001cbf620029a0565b5b9060005260206000200160009054906101000a900473ffffffffffffffffffffffffffffffffffffffff1673ffffffffffffffffffffffffffffffffffffffff1673ffffffffffffffffffffffffffffffffffffffff168152602001908152602001600020540362001e24578373ffffffffffffffffffffffffffffffffffffffff1663cf959429600160008773ffffffffffffffffffffffffffffffffffffffff1673ffffffffffffffffffffffffffffffffffffffff168152602001908152602001600020600401838154811062001d9f5762001d9e620029a0565b5b9060005260206000200160009054906101000a900473ffffffffffffffffffffffffffffffffffffffff16846040518363ffffffff1660e01b815260040162001dea92919062002bd6565b600060405180830381600087803b15801562001e0557600080fd5b505af115801562001e1a573d6000803e3d6000fd5b5050505062001e25565b5b808062001e329062002921565b91505062001bd6565b508273ffffffffffffffffffffffffffffffffffffffff1663a99073ae6040518163ffffffff1660e01b8152600401600060405180830381600087803b15801562001e8557600080fd5b505af115801562001e9a573d6000803e3d6000fd5b50505050505050565b6124d38062002c0483390190565b600082825260208201905092915050565b7f796f752063616e27742073656e64206c657373207468616e2035306b20776569600082015250565b600062001efa60208362001eb1565b915062001f078262001ec2565b602082019050919050565b6000602082019050818103600083015262001f2d8162001eeb565b9050919050565b600081519050919050565b7f4e487b7100000000000000000000000000000000000000000000000000000000600052604160045260246000fd5b7f4e487b7100000000000000000000000000000000000000000000000000000000600052602260045260246000fd5b6000600282049050600182168062001fb657607f821691505b60208210810362001fcc5762001fcb62001f6e565b5b50919050565b60008190508160005260206000209050919050565b60006020601f8301049050919050565b600082821b905092915050565b600060088302620020367fffffffffffffffffffffffffffffffffffffffffffffffffffffffffffffffff8262001ff7565b62002042868362001ff7565b95508019841693508086168417925050509392505050565b6000819050919050565b6000819050919050565b60006200208f6200208962002083846200205a565b62002064565b6200205a565b9050919050565b6000819050919050565b620020ab836200206e565b620020c3620020ba8262002096565b84845462002004565b825550505050565b600090565b620020da620020cb565b620020e7818484620020a0565b505050565b5b818110156200210f5762002103600082620020d0565b600181019050620020ed565b5050565b601f8211156200215e57620021288162001fd2565b620021338462001fe7565b8101602085101562002143578190505b6200215b620021528562001fe7565b830182620020ec565b50505b505050565b600082821c905092915050565b6000620021836000198460080262002163565b1980831691505092915050565b60006200219e838362002170565b9150826002028217905092915050565b620021b98262001f34565b67ffffffffffffffff811115620021d557620021d462001f3f565b5b620021e1825462001f9d565b620021ee82828562002113565b600060209050601f83116001811462002226576000841562002211578287015190505b6200221d858262002190565b8655506200228d565b601f198416620022368662001fd2565b60005b82811015620022605784890151825560018201915060208501945060208101905062002239565b868310156200228057848901516200227c601f89168262002170565b8355505b6001600288020188555050505b505050505050565b620022a0816200205a565b82525050565b6000602082019050620022bd600083018462002295565b92915050565b6000604051905090565b600080fd5b600080fd5b620022e2816200205a565b8114620022ee57600080fd5b50565b6000813590506200230281620022d7565b92915050565b600073ffffffffffffffffffffffffffffffffffffffff82169050919050565b6000620023358262002308565b9050919050565b620023478162002328565b81146200235357600080fd5b50565b60008135905062002367816200233c565b92915050565b60008060408385031215620023875762002386620022cd565b5b60006200239785828601620022f1565b9250506020620023aa8582860162002356565b9150509250929050565b60008060408385031215620023ce57620023cd620022cd565b5b6000620023de8582860162002356565b9250506020620023f185828601620022f1565b9150509250929050565b620024068162002328565b82525050565b6000602082019050620024236000830184620023fb565b92915050565b600080fd5b600080fd5b6000601f19601f8301169050919050565b6200244f8262002433565b810181811067ffffffffffffffff8211171562002471576200247062001f3f565b5b80604052505050565b600062002486620022c3565b905062002494828262002444565b919050565b600067ffffffffffffffff821115620024b757620024b662001f3f565b5b620024c28262002433565b9050602081019050919050565b82818337600083830152505050565b6000620024f5620024ef8462002499565b6200247a565b9050828152602081018484840111156200251457620025136200242e565b5b62002521848285620024cf565b509392505050565b600082601f83011262002541576200254062002429565b5b813562002553848260208601620024de565b91505092915050565b60008060408385031215620025765762002575620022cd565b5b600083013567ffffffffffffffff811115620025975762002596620022d2565b5b620025a58582860162002529565b925050602083013567ffffffffffffffff811115620025c957620025c8620022d2565b5b620025d78582860162002529565b9150509250929050565b600060208284031215620025fa57620025f9620022cd565b5b60006200260a8482850162002356565b91505092915050565b60005b838110156200263357808201518184015260208101905062002616565b60008484015250505050565b60006200264c8262001f34565b62002658818562001eb1565b93506200266a81856020860162002613565b620026758162002433565b840191505092915050565b7f4e487b7100000000000000000000000000000000000000000000000000000000600052602160045260246000fd5b60048110620026c357620026c262002680565b5b50565b6000819050620026d682620026af565b919050565b6000620026e882620026c6565b9050919050565b620026fa81620026db565b82525050565b600060e08201905081810360008301526200271c818a6200263f565b905081810360208301526200273281896200263f565b9050620027436040830188620023fb565b62002752606083018762002295565b62002761608083018662002295565b6200277060a083018562002295565b6200277f60c0830184620026ef565b98975050505050505050565b7f756e6578697374696e6720636f6d70657469746f727300000000000000000000600082015250565b6000620027c360168362001eb1565b9150620027d0826200278b565b602082019050919050565b60006020820190508181036000830152620027f681620027b4565b9050919050565b60006200280a8262002308565b9050919050565b6200281c81620027fd565b81146200282857600080fd5b50565b6000815190506200283c8162002811565b92915050565b60008115159050919050565b620028598162002842565b81146200286557600080fd5b50565b60008151905062002879816200284e565b92915050565b6000815190506200289081620022d7565b92915050565b600080600060608486031215620028b257620028b1620022cd565b5b6000620028c2868287016200282b565b9350506020620028d58682870162002868565b9250506040620028e8868287016200287f565b9150509250925092565b7f4e487b7100000000000000000000000000000000000000000000000000000000600052601160045260246000fd5b60006200292e826200205a565b91507fffffffffffffffffffffffffffffffffffffffffffffffffffffffffffffffff8203620029635762002962620028f2565b5b600182019050919050565b600060208284031215620029875762002986620022cd565b5b600062002997848285016200287f565b91505092915050565b7f4e487b7100000000000000000000000000000000000000000000000000000000600052603260045260246000fd5b7f6e6f7420656e6f7567682076616c696461746f72000000000000000000000000600082015250565b600062002a0760148362001eb1565b915062002a1482620029cf565b602082019050919050565b6000602082019050818103600083015262002a3a81620029f8565b9050919050565b6000608082019050818103600083015262002a5d81876200263f565b9050818103602083015262002a7381866200263f565b905062002a846040830185620023fb565b62002a936060830184620023fb565b95945050505050565b600060608201905062002ab36000830186620023fb565b818103602083015262002ac781856200263f565b9050818103604083015262002add81846200263f565b9050949350505050565b600062002af4826200205a565b915062002b01836200205a565b925082820262002b11816200205a565b9150828204841483151762002b2b5762002b2a620028f2565b5b5092915050565b7f4e487b7100000000000000000000000000000000000000000000000000000000600052601260045260246000fd5b600062002b6e826200205a565b915062002b7b836200205a565b92508262002b8e5762002b8d62002b32565b5b828204905092915050565b600060608201905062002bb0600083018662002295565b62002bbf602083018562002295565b62002bce6040830184620023fb565b949350505050565b600060408201905062002bed6000830185620023fb565b62002bfc602083018462002295565b939250505056fe6080604052604051620024d3380380620024d383398181016040528101906200002991906200037c565b81600260006101000a81548173ffffffffffffffffffffffffffffffffffffffff021916908373ffffffffffffffffffffffffffffffffffffffff16021790555080600360006101000a81548173ffffffffffffffffffffffffffffffffffffffff021916908373ffffffffffffffffffffffffffffffffffffffff16021790555083600960008081526020019081526020016000206000019081620000d0919062000677565b508260096000600181526020019081526020016000206000019081620000f7919062000677565b5081600b60006101000a81548173ffffffffffffffffffffffffffffffffffffffff021916908373ffffffffffffffffffffffffffffffffffffffff16021790555080600c60006101000a81548173ffffffffffffffffffffffffffffffffffffffff021916908373ffffffffffffffffffffffffffffffffffffffff160217905550505050506200075e565b6000604051905090565b600080fd5b600080fd5b600080fd5b600080fd5b6000601f19601f8301169050919050565b7f4e487b7100000000000000000000000000000000000000000000000000000000600052604160045260246000fd5b620001ed82620001a2565b810181811067ffffffffffffffff821117156200020f576200020e620001b3565b5b80604052505050565b60006200022462000184565b9050620002328282620001e2565b919050565b600067ffffffffffffffff821115620002555762000254620001b3565b5b6200026082620001a2565b9050602081019050919050565b60005b838110156200028d57808201518184015260208101905062000270565b60008484015250505050565b6000620002b0620002aa8462000237565b62000218565b905082815260208101848484011115620002cf57620002ce6200019d565b5b620002dc8482856200026d565b509392505050565b600082601f830112620002fc57620002fb62000198565b5b81516200030e84826020860162000299565b91505092915050565b600073ffffffffffffffffffffffffffffffffffffffff82169050919050565b6000620003448262000317565b9050919050565b620003568162000337565b81146200036257600080fd5b50565b60008151905062000376816200034b565b92915050565b600080600080608085870312156200039957620003986200018e565b5b600085015167ffffffffffffffff811115620003ba57620003b962000193565b5b620003c887828801620002e4565b945050602085015167ffffffffffffffff811115620003ec57620003eb62000193565b5b620003fa87828801620002e4565b93505060406200040d8782880162000365565b9250506060620004208782880162000365565b91505092959194509250565b600081519050919050565b7f4e487b7100000000000000000000000000000000000000000000000000000000600052602260045260246000fd5b600060028204905060018216806200047f57607f821691505b60208210810362000495576200049462000437565b5b50919050565b60008190508160005260206000209050919050565b60006020601f8301049050919050565b600082821b905092915050565b600060088302620004ff7fffffffffffffffffffffffffffffffffffffffffffffffffffffffffffffffff82620004c0565b6200050b8683620004c0565b95508019841693508086168417925050509392505050565b6000819050919050565b6000819050919050565b600062000558620005526200054c8462000523565b6200052d565b62000523565b9050919050565b6000819050919050565b620005748362000537565b6200058c62000583826200055f565b848454620004cd565b825550505050565b600090565b620005a362000594565b620005b081848462000569565b505050565b5b81811015620005d857620005cc60008262000599565b600181019050620005b6565b5050565b601f8211156200062757620005f1816200049b565b620005fc84620004b0565b810160208510156200060c578190505b620006246200061b85620004b0565b830182620005b5565b50505b505050565b600082821c905092915050565b60006200064c600019846008026200062c565b1980831691505092915050565b600062000667838362000639565b9150826002028217905092915050565b62000682826200042c565b67ffffffffffffffff8111156200069e576200069d620001b3565b5b620006aa825462000466565b620006b7828285620005dc565b600060209050601f831160018114620006ef5760008415620006da578287015190505b620006e6858262000659565b86555062000756565b601f198416620006ff866200049b565b60005b82811015620007295784890151825560018201915060208501945060208101905062000702565b8683101562000749578489015162000745601f89168262000639565b8355505b6001600288020188555050505b505050505050565b611d65806200076e6000396000f3fe6080604052600436106100ec5760003560e01c8063ad05d9c31161008a578063e8399cc611610059578063e8399cc614610386578063ebfb6652146103a2578063f8a8fd6d146103df578063fe5e18531461040a57610176565b8063ad05d9c3146102fd578063c6073c6614610307578063cf95942914610332578063d93e03b01461035b57610176565b80639d86801f116100c65780639d86801f14610250578063a14de02814610290578063a32b3487146102bb578063a99073ae146102e657610176565b806322010c1f146101bc5780635c3a3e5c146101fc5780636f9fb98a1461022557610176565b3661017657640b68a0aa00341161012f576040517f78e9f1ba00000000000000000000000000000000000000000000000000000000815260040160405180910390fd5b61c350341015610174576040517f08c379a000000000000000000000000000000000000000000000000000000000815260040161016b90611297565b60405180910390fd5b005b6040518060400160405280601e81526020017f46616c6c6261636b2066756e6374696f6e206973206578656375746564210000815250600090816101ba9190611507565b005b3480156101c857600080fd5b506101e360048036038101906101de919061163c565b610435565b6040516101f39493929190611699565b60405180910390f35b34801561020857600080fd5b50610223600480360381019061021e919061170a565b610485565b005b34801561023157600080fd5b5061023a610600565b604051610247919061175d565b60405180910390f35b34801561025c57600080fd5b5061027760048036038101906102729190611778565b610608565b6040516102879493929190611819565b60405180910390f35b34801561029c57600080fd5b506102a56106c0565b6040516102b2919061175d565b60405180910390f35b3480156102c757600080fd5b506102d06106c6565b6040516102dd919061175d565b60405180910390f35b3480156102f257600080fd5b506102fb6106cc565b005b610305610778565b005b34801561031357600080fd5b5061031c610983565b6040516103299190611874565b60405180910390f35b34801561033e57600080fd5b506103596004803603810190610354919061188f565b6109a9565b005b34801561036757600080fd5b50610370610a80565b60405161037d9190611874565b60405180910390f35b6103a0600480360381019061039b9190611778565b610aa6565b005b3480156103ae57600080fd5b506103c960048036038101906103c49190611778565b610e7d565b6040516103d6919061175d565b60405180910390f35b3480156103eb57600080fd5b506103f4610f52565b604051610401919061175d565b60405180910390f35b34801561041657600080fd5b5061041f610f58565b60405161042c919061175d565b60405180910390f35b600a6020528060005260406000206000915090508060000160009054906101000a900473ffffffffffffffffffffffffffffffffffffffff16908060010154908060020154908060030154905084565b600047116104bf576040517f47108e3e00000000000000000000000000000000000000000000000000000000815260040160405180910390fd5b600b60009054906101000a900473ffffffffffffffffffffffffffffffffffffffff1673ffffffffffffffffffffffffffffffffffffffff163373ffffffffffffffffffffffffffffffffffffffff1614610546576040517f8679b0c000000000000000000000000000000000000000000000000000000000815260040160405180910390fd5b600c60149054906101000a900460ff1615610596576040517f08c379a000000000000000000000000000000000000000000000000000000000815260040161058d9061191b565b60405180910390fd5b60006105a0610600565b9050600084826105b09190611999565b9050600084836105c09190611999565b90506105ee600c60009054906101000a900473ffffffffffffffffffffffffffffffffffffffff1683610f5e565b6105f88482610f5e565b505050505050565b600047905090565b600960205280600052604060002060009150905080600001805461062b90611320565b80601f016020809104026020016040519081016040528092919081815260200182805461065790611320565b80156106a45780601f10610679576101008083540402835291602001916106a4565b820191906000526020600020905b81548152906001019060200180831161068757829003601f168201915b5050505050908060010154908060020154908060030154905084565b60045481565b60055481565b600b60009054906101000a900473ffffffffffffffffffffffffffffffffffffffff1673ffffffffffffffffffffffffffffffffffffffff163373ffffffffffffffffffffffffffffffffffffffff1614610753576040517f8679b0c000000000000000000000000000000000000000000000000000000000815260040160405180910390fd5b6001600c60146101000a81548160ff021916908315150217905550610776611012565b565b600c60149054906101000a900460ff166107be576040517f0541f1f000000000000000000000000000000000000000000000000000000000815260040160405180910390fd5b600c60149054906101000a900460ff1661080d576040517f08c379a000000000000000000000000000000000000000000000000000000000815260040161080490611a16565b60405180910390fd5b600754600a60003373ffffffffffffffffffffffffffffffffffffffff1673ffffffffffffffffffffffffffffffffffffffff1681526020019081526020016000206001015414610893576040517f08c379a000000000000000000000000000000000000000000000000000000000815260040161088a90611a82565b60405180910390fd5b6064600854600a60003373ffffffffffffffffffffffffffffffffffffffff1673ffffffffffffffffffffffffffffffffffffffff168152602001908152602001600020600201546108e59190611aa2565b6108ef9190611999565b600a60003373ffffffffffffffffffffffffffffffffffffffff1673ffffffffffffffffffffffffffffffffffffffff1681526020019081526020016000206003018190555061098133600a60003373ffffffffffffffffffffffffffffffffffffffff1673ffffffffffffffffffffffffffffffffffffffff16815260200190815260200160002060030154610f5e565b565b600b60009054906101000a900473ffffffffffffffffffffffffffffffffffffffff1681565b600b60009054906101000a900473ffffffffffffffffffffffffffffffffffffffff1673ffffffffffffffffffffffffffffffffffffffff163373ffffffffffffffffffffffffffffffffffffffff1614610a30576040517f8679b0c000000000000000000000000000000000000000000000000000000000815260040160405180910390fd5b60004711610a6a576040517f47108e3e00000000000000000000000000000000000000000000000000000000815260040160405180910390fd5b610a748282610f5e565b6002600d819055505050565b600c60009054906101000a900473ffffffffffffffffffffffffffffffffffffffff1681565b343373ffffffffffffffffffffffffffffffffffffffff16311015610af7576040517f47108e3e00000000000000000000000000000000000000000000000000000000815260040160405180910390fd5b640b68a0aa003411610b35576040517f78e9f1ba00000000000000000000000000000000000000000000000000000000815260040160405180910390fd5b3373ffffffffffffffffffffffffffffffffffffffff16600a60003373ffffffffffffffffffffffffffffffffffffffff1673ffffffffffffffffffffffffffffffffffffffff16815260200190815260200160002060000160009054906101000a900473ffffffffffffffffffffffffffffffffffffffff1673ffffffffffffffffffffffffffffffffffffffff1603610bfc576040517f8424505800000000000000000000000000000000000000000000000000000000815260040160405180910390fd5b6000600360009054906101000a900473ffffffffffffffffffffffffffffffffffffffff1673ffffffffffffffffffffffffffffffffffffffff16630b4805d3336040518263ffffffff1660e01b8152600401610c599190611874565b602060405180830381865afa158015610c76573d6000803e3d6000fd5b505050506040513d601f19601f82011682018060405250810190610c9a9190611af9565b03610cd1576040517f3a70817d00000000000000000000000000000000000000000000000000000000815260040160405180910390fd5b6001811115610d15576040517f08c379a0000000000000000000000000000000000000000000000000000000008152600401610d0c90611b72565b60405180910390fd5b610d1f3034610f5e565b60066000815480929190610d3290611b92565b9190505550600960008281526020019081526020016000206002016000815480929190610d5e90611b92565b9190505550346009600083815260200190815260200160002060030154610d859190611bda565b6009600083815260200190815260200160002060030181905550610da7611090565b610db081611128565b7fbabd4d8ad6be16c6a1ac0b279aaad4eb273f40de86a3c6ac350147fc9bbdbda330600960008081526020019081526020016000206002015460096000808152602001908152602001600020600301546009600080815260200190815260200160002060010154600960006001815260200190815260200160002060020154600960006001815260200190815260200160002060030154600960006001815260200190815260200160002060010154604051610e729796959493929190611c0e565b60405180910390a150565b6000804711610eb8576040517f47108e3e00000000000000000000000000000000000000000000000000000000815260040160405180910390fd5b600b60009054906101000a900473ffffffffffffffffffffffffffffffffffffffff1673ffffffffffffffffffffffffffffffffffffffff163373ffffffffffffffffffffffffffffffffffffffff1614610f3f576040517f8679b0c000000000000000000000000000000000000000000000000000000000815260040160405180910390fd5b8147610f4b9190611999565b9050919050565b600d5481565b60065481565b6000808373ffffffffffffffffffffffffffffffffffffffff1683604051610f8590611cae565b60006040518083038185875af1925050503d8060008114610fc2576040519150601f19603f3d011682016040523d82523d6000602084013e610fc7565b606091505b50915091508161100c576040517f08c379a000000000000000000000000000000000000000000000000000000000815260040161100390611d0f565b60405180910390fd5b50505050565b600c60149054906101000a900460ff16611058576040517f0541f1f000000000000000000000000000000000000000000000000000000000815260040160405180910390fd5b6009600060075481526020019081526020016000206003015460644761107e9190611aa2565b6110889190611999565b600881905550565b600654606460096000808152602001908152602001600020600201546110b69190611aa2565b6110c09190611999565b600960008081526020019081526020016000206001018190555060065460646009600060018152602001908152602001600020600201546111019190611aa2565b61110b9190611999565b600960006001815260200190815260200160002060010181905550565b33600a60003373ffffffffffffffffffffffffffffffffffffffff1673ffffffffffffffffffffffffffffffffffffffff16815260200190815260200160002060000160006101000a81548173ffffffffffffffffffffffffffffffffffffffff021916908373ffffffffffffffffffffffffffffffffffffffff16021790555080600a60003373ffffffffffffffffffffffffffffffffffffffff1673ffffffffffffffffffffffffffffffffffffffff1681526020019081526020016000206001018190555034600a60003373ffffffffffffffffffffffffffffffffffffffff1673ffffffffffffffffffffffffffffffffffffffff1681526020019081526020016000206002018190555050565b600082825260208201905092915050565b7f796f752063616e27742073656e64206c657373207468616e2035306b20776569600082015250565b600061128160208361123a565b915061128c8261124b565b602082019050919050565b600060208201905081810360008301526112b081611274565b9050919050565b600081519050919050565b7f4e487b7100000000000000000000000000000000000000000000000000000000600052604160045260246000fd5b7f4e487b7100000000000000000000000000000000000000000000000000000000600052602260045260246000fd5b6000600282049050600182168061133857607f821691505b60208210810361134b5761134a6112f1565b5b50919050565b60008190508160005260206000209050919050565b60006020601f8301049050919050565b600082821b905092915050565b6000600883026113b37fffffffffffffffffffffffffffffffffffffffffffffffffffffffffffffffff82611376565b6113bd8683611376565b95508019841693508086168417925050509392505050565b6000819050919050565b6000819050919050565b60006114046113ff6113fa846113d5565b6113df565b6113d5565b9050919050565b6000819050919050565b61141e836113e9565b61143261142a8261140b565b848454611383565b825550505050565b600090565b61144761143a565b611452818484611415565b505050565b5b818110156114765761146b60008261143f565b600181019050611458565b5050565b601f8211156114bb5761148c81611351565b61149584611366565b810160208510156114a4578190505b6114b86114b085611366565b830182611457565b50505b505050565b600082821c905092915050565b60006114de600019846008026114c0565b1980831691505092915050565b60006114f783836114cd565b9150826002028217905092915050565b611510826112b7565b67ffffffffffffffff811115611529576115286112c2565b5b6115338254611320565b61153e82828561147a565b600060209050601f831160018114611571576000841561155f578287015190505b61156985826114eb565b8655506115d1565b601f19841661157f86611351565b60005b828110156115a757848901518255600182019150602085019450602081019050611582565b868310156115c457848901516115c0601f8916826114cd565b8355505b6001600288020188555050505b505050505050565b600080fd5b600073ffffffffffffffffffffffffffffffffffffffff82169050919050565b6000611609826115de565b9050919050565b611619816115fe565b811461162457600080fd5b50565b60008135905061163681611610565b92915050565b600060208284031215611652576116516115d9565b5b600061166084828501611627565b91505092915050565b6000611674826115de565b9050919050565b61168481611669565b82525050565b611693816113d5565b82525050565b60006080820190506116ae600083018761167b565b6116bb602083018661168a565b6116c8604083018561168a565b6116d5606083018461168a565b95945050505050565b6116e7816113d5565b81146116f257600080fd5b50565b600081359050611704816116de565b92915050565b600080600060608486031215611723576117226115d9565b5b6000611731868287016116f5565b9350506020611742868287016116f5565b925050604061175386828701611627565b9150509250925092565b6000602082019050611772600083018461168a565b92915050565b60006020828403121561178e5761178d6115d9565b5b600061179c848285016116f5565b91505092915050565b60005b838110156117c35780820151818401526020810190506117a8565b60008484015250505050565b6000601f19601f8301169050919050565b60006117eb826112b7565b6117f5818561123a565b93506118058185602086016117a5565b61180e816117cf565b840191505092915050565b6000608082019050818103600083015261183381876117e0565b9050611842602083018661168a565b61184f604083018561168a565b61185c606083018461168a565b95945050505050565b61186e816115fe565b82525050565b60006020820190506118896000830184611865565b92915050565b600080604083850312156118a6576118a56115d9565b5b60006118b485828601611627565b92505060206118c5858286016116f5565b9150509250929050565b7f66656520616c7265616479207061696400000000000000000000000000000000600082015250565b600061190560108361123a565b9150611910826118cf565b602082019050919050565b60006020820190508181036000830152611934816118f8565b9050919050565b7f4e487b7100000000000000000000000000000000000000000000000000000000600052601260045260246000fd5b7f4e487b7100000000000000000000000000000000000000000000000000000000600052601160045260246000fd5b60006119a4826113d5565b91506119af836113d5565b9250826119bf576119be61193b565b5b828204905092915050565b7f70617920706c6174666f726d2066656520666972737400000000000000000000600082015250565b6000611a0060168361123a565b9150611a0b826119ca565b602082019050919050565b60006020820190508181036000830152611a2f816119f3565b9050919050565b7f6e6f206761696e00000000000000000000000000000000000000000000000000600082015250565b6000611a6c60078361123a565b9150611a7782611a36565b602082019050919050565b60006020820190508181036000830152611a9b81611a5f565b9050919050565b6000611aad826113d5565b9150611ab8836113d5565b9250828202611ac6816113d5565b91508282048414831517611add57611adc61196a565b5b5092915050565b600081519050611af3816116de565b92915050565b600060208284031215611b0f57611b0e6115d9565b5b6000611b1d84828501611ae4565b91505092915050565b7f636f6d70657469746f7220646f6e277420657869737400000000000000000000600082015250565b6000611b5c60168361123a565b9150611b6782611b26565b602082019050919050565b60006020820190508181036000830152611b8b81611b4f565b9050919050565b6000611b9d826113d5565b91507fffffffffffffffffffffffffffffffffffffffffffffffffffffffffffffffff8203611bcf57611bce61196a565b5b600182019050919050565b6000611be5826113d5565b9150611bf0836113d5565b9250828201905080821115611c0857611c0761196a565b5b92915050565b600060e082019050611c23600083018a611865565b611c30602083018961168a565b611c3d604083018861168a565b611c4a606083018761168a565b611c57608083018661168a565b611c6460a083018561168a565b611c7160c083018461168a565b98975050505050505050565b600081905092915050565b50565b6000611c98600083611c7d565b9150611ca382611c88565b600082019050919050565b6000611cb982611c8b565b9150819050919050565b7f4661696c656420746f2073656e64204574686572000000000000000000000000600082015250565b6000611cf960148361123a565b9150611d0482611cc3565b602082019050919050565b60006020820190508181036000830152611d2881611cec565b905091905056fea26469706673582212209134accc048f7693f75b40823fc578736e8f3b945a0fe6a3a71e3f2f6e162f7f64736f6c63430008150033a26469706673582212207c3f77c10118c19a167acbb5fffe773b81d909d454f27c463a360a6cf834574364736f6c63430008150033",
  "linkReferences": {},
  "deployedLinkReferences": {}
}