{
  "_format": "hh-sol-artifact-1",
  "contractName": "BetWaveOrganizer",
  "sourceName": "contracts/BetWaveOrganizer.sol",
  "abi": [
    {
      "inputs": [
        {
          "internalType": "address",
          "name": "_betWaveDAOAddress",
          "type": "address"
        }
      ],
      "stateMutability": "payable",
      "type": "constructor"
    },
    {
      "inputs": [],
      "name": "noWinner",
      "type": "error"
    },
    {
      "inputs": [],
      "name": "notOwner",
      "type": "error"
    },
    {
      "inputs": [],
      "name": "notRegistered",
      "type": "error"
    },
    {
      "inputs": [],
      "name": "notValidator",
      "type": "error"
    },
    {
      "inputs": [],
      "name": "wrongStep",
      "type": "error"
    },
    {
      "anonymous": false,
      "inputs": [
        {
          "indexed": false,
          "internalType": "address",
          "name": "",
          "type": "address"
        },
        {
          "indexed": false,
          "internalType": "string",
          "name": "",
          "type": "string"
        },
        {
          "indexed": false,
          "internalType": "string",
          "name": "",
          "type": "string"
        }
      ],
      "name": "newBet",
      "type": "event"
    },
    {
      "anonymous": false,
      "inputs": [
        {
          "indexed": false,
          "internalType": "address",
          "name": "",
          "type": "address"
        }
      ],
      "name": "startCount",
      "type": "event"
    },
    {
      "anonymous": false,
      "inputs": [
        {
          "indexed": false,
          "internalType": "address",
          "name": "",
          "type": "address"
        }
      ],
      "name": "startValidation",
      "type": "event"
    },
    {
      "stateMutability": "payable",
      "type": "fallback"
    },
    {
      "inputs": [
        {
          "internalType": "address",
          "name": "",
          "type": "address"
        }
      ],
      "name": "betList",
      "outputs": [
        {
          "internalType": "uint256",
          "name": "validationNumber",
          "type": "uint256"
        },
        {
          "internalType": "string",
          "name": "compName1",
          "type": "string"
        },
        {
          "internalType": "string",
          "name": "compName2",
          "type": "string"
        },
        {
          "internalType": "address",
          "name": "owner",
          "type": "address"
        },
        {
          "internalType": "uint256",
          "name": "voteCount",
          "type": "uint256"
        },
        {
          "internalType": "uint256",
          "name": "comp1VoteCount",
          "type": "uint256"
        },
        {
          "internalType": "uint256",
          "name": "comp2VoteCount",
          "type": "uint256"
        },
        {
          "internalType": "enum BetWaveOrganizer.BetStatus",
          "name": "betStatus",
          "type": "uint8"
        }
      ],
      "stateMutability": "view",
      "type": "function"
    },
    {
      "inputs": [
        {
          "internalType": "string",
          "name": "_compName1",
          "type": "string"
        },
        {
          "internalType": "string",
          "name": "_compName2",
          "type": "string"
        }
      ],
      "name": "deployNewBet",
      "outputs": [],
      "stateMutability": "nonpayable",
      "type": "function"
    },
    {
      "inputs": [
        {
          "internalType": "address",
          "name": "_betAddress",
          "type": "address"
        }
      ],
      "name": "getBetValidatorsResult",
      "outputs": [
        {
          "internalType": "uint256",
          "name": "",
          "type": "uint256"
        }
      ],
      "stateMutability": "view",
      "type": "function"
    },
    {
      "inputs": [
        {
          "internalType": "address",
          "name": "_betAddress",
          "type": "address"
        },
        {
          "internalType": "uint256",
          "name": "_id",
          "type": "uint256"
        }
      ],
      "name": "getvalidatorAddress",
      "outputs": [
        {
          "internalType": "address",
          "name": "",
          "type": "address"
        }
      ],
      "stateMutability": "view",
      "type": "function"
    },
    {
      "inputs": [],
      "name": "lastSimpleBetAddress",
      "outputs": [
        {
          "internalType": "address",
          "name": "",
          "type": "address"
        }
      ],
      "stateMutability": "view",
      "type": "function"
    },
    {
      "inputs": [
        {
          "internalType": "uint256",
          "name": "_compId",
          "type": "uint256"
        },
        {
          "internalType": "address",
          "name": "_betAddress",
          "type": "address"
        }
      ],
      "name": "setBetVote",
      "outputs": [],
      "stateMutability": "nonpayable",
      "type": "function"
    },
    {
      "inputs": [
        {
          "internalType": "address",
          "name": "_betAddress",
          "type": "address"
        }
      ],
      "name": "startBetValidation",
      "outputs": [],
      "stateMutability": "nonpayable",
      "type": "function"
    },
    {
      "inputs": [
        {
          "internalType": "address",
          "name": "_betAddress",
          "type": "address"
        }
      ],
      "name": "tallyVote",
      "outputs": [],
      "stateMutability": "nonpayable",
      "type": "function"
    },
    {
      "inputs": [],
      "name": "test1",
      "outputs": [
        {
          "internalType": "uint256",
          "name": "",
          "type": "uint256"
        }
      ],
      "stateMutability": "view",
      "type": "function"
    },
    {
      "inputs": [],
      "name": "test2",
      "outputs": [
        {
          "internalType": "uint256",
          "name": "",
          "type": "uint256"
        }
      ],
      "stateMutability": "view",
      "type": "function"
    },
    {
      "inputs": [],
      "name": "test3",
      "outputs": [
        {
          "internalType": "uint256",
          "name": "",
          "type": "uint256"
        }
      ],
      "stateMutability": "view",
      "type": "function"
    },
    {
      "stateMutability": "payable",
      "type": "receive"
    }
  ],
  "bytecode": "0x60806040526040518060400160405280600881526020017f616c626174726f73000000000000000000000000000000000000000000000000815250600090816200004a91906200036d565b506040516200736e3803806200736e8339818101604052810190620000709190620004be565b6200008c676958fac58eeff01860c01b620000f060201b60201c565b620000a867a218883de68aa27560c01b620000f060201b60201c565b80600260006101000a81548173ffffffffffffffffffffffffffffffffffffffff021916908373ffffffffffffffffffffffffffffffffffffffff16021790555050620004f0565b50565b600081519050919050565b7f4e487b7100000000000000000000000000000000000000000000000000000000600052604160045260246000fd5b7f4e487b7100000000000000000000000000000000000000000000000000000000600052602260045260246000fd5b600060028204905060018216806200017557607f821691505b6020821081036200018b576200018a6200012d565b5b50919050565b60008190508160005260206000209050919050565b60006020601f8301049050919050565b600082821b905092915050565b600060088302620001f57fffffffffffffffffffffffffffffffffffffffffffffffffffffffffffffffff82620001b6565b620002018683620001b6565b95508019841693508086168417925050509392505050565b6000819050919050565b6000819050919050565b60006200024e62000248620002428462000219565b62000223565b62000219565b9050919050565b6000819050919050565b6200026a836200022d565b62000282620002798262000255565b848454620001c3565b825550505050565b600090565b620002996200028a565b620002a68184846200025f565b505050565b5b81811015620002ce57620002c26000826200028f565b600181019050620002ac565b5050565b601f8211156200031d57620002e78162000191565b620002f284620001a6565b8101602085101562000302578190505b6200031a6200031185620001a6565b830182620002ab565b50505b505050565b600082821c905092915050565b6000620003426000198460080262000322565b1980831691505092915050565b60006200035d83836200032f565b9150826002028217905092915050565b6200037882620000f3565b67ffffffffffffffff811115620003945762000393620000fe565b5b620003a082546200015c565b620003ad828285620002d2565b600060209050601f831160018114620003e55760008415620003d0578287015190505b620003dc85826200034f565b8655506200044c565b601f198416620003f58662000191565b60005b828110156200041f57848901518255600182019150602085019450602081019050620003f8565b868310156200043f57848901516200043b601f8916826200032f565b8355505b6001600288020188555050505b505050505050565b600080fd5b600073ffffffffffffffffffffffffffffffffffffffff82169050919050565b6000620004868262000459565b9050919050565b620004988162000479565b8114620004a457600080fd5b50565b600081519050620004b8816200048d565b92915050565b600060208284031215620004d757620004d662000454565b5b6000620004e784828501620004a7565b91505092915050565b616e6e80620005006000396000f3fe608060405260043610620000af5760003560e01c80636b59084d116200006d5780636b59084d14620002b75780639aa7ca4214620002e7578063a5f9b6431462000315578063cef84a621462000343578063ee9c0362146200038e578063fd3393fe14620003d25762000141565b80630a8e8e0114620001b55780634117865114620001e5578063458f6f6f14620002135780636310956e146200025757806366e41cb714620002875762000141565b366200014157620000cb67268594c374e2da3c60c01b62000400565b620000e1674e76f66acbb5c6ad60c01b62000400565b61c35034101562000129576040517f08c379a0000000000000000000000000000000000000000000000000000000008152600401620001209062002e21565b60405180910390fd5b6200013f6706dfb5fc8a772de060c01b62000400565b005b6200015767927aaa74105e15e060c01b62000400565b6200016d67af40dba8cdca6c3760c01b62000400565b6040518060400160405280601e81526020017f46616c6c6261636b2066756e6374696f6e20697320657865637574656421000081525060009081620001b39190620030bd565b005b348015620001c257600080fd5b50620001cd62000403565b604051620001dc9190620031b5565b60405180910390f35b348015620001f257600080fd5b506200021160048036038101906200020b91906200327c565b62000409565b005b3480156200022057600080fd5b506200023f6004803603810190620002399190620032c3565b62000f43565b6040516200024e91906200331b565b60405180910390f35b3480156200026457600080fd5b506200026f62001011565b6040516200027e91906200331b565b60405180910390f35b3480156200029457600080fd5b506200029f62001037565b604051620002ae9190620031b5565b60405180910390f35b348015620002c457600080fd5b50620002cf6200103d565b604051620002de9190620031b5565b60405180910390f35b348015620002f457600080fd5b506200031360048036038101906200030d919062003338565b62001043565b005b3480156200032257600080fd5b506200034160048036038101906200033b91906200349d565b6200191f565b005b3480156200035057600080fd5b506200036f600480360381019062000369919062003338565b62001fdb565b604051620003859897969594939291906200360f565b60405180910390f35b3480156200039b57600080fd5b50620003ba6004803603810190620003b4919062003338565b62002170565b604051620003c99190620031b5565b60405180910390f35b348015620003df57600080fd5b50620003fe6004803603810190620003f8919062003338565b6200223b565b005b50565b60065481565b6200041f67b94400d57e8d7f3660c01b62000400565b600181620004386705840b1bb6124cb360c01b62000400565b6200044e674267da6335769cf260c01b62000400565b6200046467a42c88aa4ffcb59c60c01b62000400565b8160038111156200047a57620004796200358f565b5b600160008373ffffffffffffffffffffffffffffffffffffffff1673ffffffffffffffffffffffffffffffffffffffff16815260200190815260200160002060090160009054906101000a900460ff166003811115620004df57620004de6200358f565b5b146200054357620004fb67dfacacbf8df4157360c01b62000400565b6200051167a32fc8368cca38c560c01b62000400565b6040517f248d543200000000000000000000000000000000000000000000000000000000815260040160405180910390fd5b6200055967bbcb8e3ec629a84860c01b62000400565b6200056f676d63ee0d5396fc1560c01b62000400565b62000585670f521cda39f2a12060c01b62000400565b6200059b674e5f60074cdd6ce560c01b62000400565b620005b167f72ec2726c2f1c2060c01b62000400565b620005c767fcfc863e7319fdbd60c01b62000400565b620005dd67b036180e10d436eb60c01b62000400565b6002841062000623576040517f08c379a00000000000000000000000000000000000000000000000000000000081526004016200061a90620036fb565b60405180910390fd5b6200063967c97c45ea6bf0fdfe60c01b62000400565b6200064f670740fa52f3bd1e7060c01b62000400565b620006656713133fc82a80fbd360c01b62000400565b6000600260009054906101000a900473ffffffffffffffffffffffffffffffffffffffff1673ffffffffffffffffffffffffffffffffffffffff1663fa52c7d8336040518263ffffffff1660e01b8152600401620006c491906200331b565b606060405180830381865afa158015620006e2573d6000803e3d6000fd5b505050506040513d601f19601f82011682018060405250810190620007089190620037b6565b5050905062000722673a30758e8c15129c60c01b62000400565b62000738670e1018cfb4f76a6660c01b62000400565b3373ffffffffffffffffffffffffffffffffffffffff168173ffffffffffffffffffffffffffffffffffffffff1614620007b457620007826737c501e75fc8f7cc60c01b62000400565b6040517fec752d2a00000000000000000000000000000000000000000000000000000000815260040160405180910390fd5b620007ca675329fb0ec830991360c01b62000400565b620007e067aa6863202b16e05560c01b62000400565b620007f66770acb21815afaa4460c01b62000400565b6000850362000a6557620008156792f22ab15f89002b60c01b62000400565b6200082b67520c5d00481cfcd760c01b62000400565b600160008573ffffffffffffffffffffffffffffffffffffffff1673ffffffffffffffffffffffffffffffffffffffff1681526020019081526020016000206007016000815480929190620008809062003841565b91905055506200089b670aad5c231b54562460c01b62000400565b600160008573ffffffffffffffffffffffffffffffffffffffff1673ffffffffffffffffffffffffffffffffffffffff1681526020019081526020016000206006016000815480929190620008f09062003841565b91905055506200090b6745ac007e21eb2abe60c01b62000400565b6000600160008673ffffffffffffffffffffffffffffffffffffffff1673ffffffffffffffffffffffffffffffffffffffff16815260200190815260200160002060040160003373ffffffffffffffffffffffffffffffffffffffff1673ffffffffffffffffffffffffffffffffffffffff16815260200190815260200160002081905550620009a6671f11b3749ac0e0ad60c01b62000400565b620009bc679cedd68b7e797c4b60c01b62000400565b600160008573ffffffffffffffffffffffffffffffffffffffff1673ffffffffffffffffffffffffffffffffffffffff168152602001908152602001600020600501339080600181540180825580915050600190039060005260206000200160009091909190916101000a81548173ffffffffffffffffffffffffffffffffffffffff021916908373ffffffffffffffffffffffffffffffffffffffff16021790555062000d17565b62000a7b67f21c160921d4cc7860c01b62000400565b62000a9167c37775336788768260c01b62000400565b6001850362000cff5762000ab067391a4e56744f402160c01b62000400565b62000ac66764b98cbdfd3e02f160c01b62000400565b600160008573ffffffffffffffffffffffffffffffffffffffff1673ffffffffffffffffffffffffffffffffffffffff168152602001908152602001600020600801600081548092919062000b1b9062003841565b919050555062000b36676a8ed21d7298add460c01b62000400565b600160008573ffffffffffffffffffffffffffffffffffffffff1673ffffffffffffffffffffffffffffffffffffffff168152602001908152602001600020600601600081548092919062000b8b9062003841565b919050555062000ba6671d43f4046c41b37060c01b62000400565b60018060008673ffffffffffffffffffffffffffffffffffffffff1673ffffffffffffffffffffffffffffffffffffffff16815260200190815260200160002060040160003373ffffffffffffffffffffffffffffffffffffffff1673ffffffffffffffffffffffffffffffffffffffff1681526020019081526020016000208190555062000c40678f2e03bb2f1ae5a760c01b62000400565b62000c56677bca78134acc8b4060c01b62000400565b600160008573ffffffffffffffffffffffffffffffffffffffff1673ffffffffffffffffffffffffffffffffffffffff168152602001908152602001600020600501339080600181540180825580915050600190039060005260206000200160009091909190916101000a81548173ffffffffffffffffffffffffffffffffffffffff021916908373ffffffffffffffffffffffffffffffffffffffff16021790555062000d16565b62000d1567411f71e71e2df57760c01b62000400565b5b5b62000d2d67188047c1929fabb260c01b62000400565b62000d4367b0ad774c311e793360c01b62000400565b600260009054906101000a900473ffffffffffffffffffffffffffffffffffffffff1673ffffffffffffffffffffffffffffffffffffffff166353db7e776040518163ffffffff1660e01b8152600401602060405180830381865afa15801562000db1573d6000803e3d6000fd5b505050506040513d601f19601f8201168201806040525081019062000dd791906200388e565b600160008673ffffffffffffffffffffffffffffffffffffffff1673ffffffffffffffffffffffffffffffffffffffff168152602001908152602001600020600601541062000f255762000e366707684a681575d88b60c01b62000400565b62000e4c6791786c5e70094bea60c01b62000400565b6002600160008673ffffffffffffffffffffffffffffffffffffffff1673ffffffffffffffffffffffffffffffffffffffff16815260200190815260200160002060090160006101000a81548160ff0219169083600381111562000eb55762000eb46200358f565b5b021790555062000ed067ca623786ae7b496460c01b62000400565b62000ee6671b07a2b4839fbb1560c01b62000400565b7fc7e162d919b6b9aab852a8c03449630d12cd29ba4c4219786db08ee9d51c9b608460405162000f1791906200331b565b60405180910390a162000f3c565b62000f3b67d7bc410a400133f160c01b62000400565b5b5050505050565b600062000f5b67238c6000b5c7096460c01b62000400565b62000f71677da8d3cd55f007ff60c01b62000400565b62000f87674bea1191f9c2b5e060c01b62000400565b600160008473ffffffffffffffffffffffffffffffffffffffff1673ffffffffffffffffffffffffffffffffffffffff168152602001908152602001600020600501828154811062000fde5762000fdd620038c0565b5b9060005260206000200160009054906101000a900473ffffffffffffffffffffffffffffffffffffffff16905092915050565b600360009054906101000a900473ffffffffffffffffffffffffffffffffffffffff1681565b60055481565b60045481565b6200105967d0939e353dea636a60c01b62000400565b8062001070671694f5507738b0a860c01b62000400565b62001086675245244d9ee4e57d60c01b62000400565b6200109c677bb6c70046be178360c01b62000400565b3373ffffffffffffffffffffffffffffffffffffffff16600160008373ffffffffffffffffffffffffffffffffffffffff1673ffffffffffffffffffffffffffffffffffffffff16815260200190815260200160002060030160009054906101000a900473ffffffffffffffffffffffffffffffffffffffff1673ffffffffffffffffffffffffffffffffffffffff16146200117a5762001148676970186bc424cb7a60c01b62000400565b6040517f251c9d6300000000000000000000000000000000000000000000000000000000815260040160405180910390fd5b620011906762ddd3c1f49dd35060c01b62000400565b620011a66762576728a05c3b3a60c01b62000400565b620011bc67725bb1e9fa2b8ce460c01b62000400565b620011d267fdb680271b73746760c01b62000400565b600282620011eb6705840b1bb6124cb360c01b62000400565b62001201674267da6335769cf260c01b62000400565b6200121767a42c88aa4ffcb59c60c01b62000400565b8160038111156200122d576200122c6200358f565b5b600160008373ffffffffffffffffffffffffffffffffffffffff1673ffffffffffffffffffffffffffffffffffffffff16815260200190815260200160002060090160009054906101000a900460ff1660038111156200129257620012916200358f565b5b14620012f657620012ae67dfacacbf8df4157360c01b62000400565b620012c467a32fc8368cca38c560c01b62000400565b6040517f248d543200000000000000000000000000000000000000000000000000000000815260040160405180910390fd5b6200130c67bbcb8e3ec629a84860c01b62000400565b62001322676d63ee0d5396fc1560c01b62000400565b6200133867f7d4a383d5cc054460c01b62000400565b6200134e672d51df1926362f2b60c01b62000400565b620013646795e929ad417531ec60c01b62000400565b6200137a67ec3cbdf1f3b25c4060c01b62000400565b600160008573ffffffffffffffffffffffffffffffffffffffff1673ffffffffffffffffffffffffffffffffffffffff16815260200190815260200160002060080154600160008673ffffffffffffffffffffffffffffffffffffffff1673ffffffffffffffffffffffffffffffffffffffff16815260200190815260200160002060070154111562001629576200141d67c16653d1f6a5794a60c01b62000400565b620014336741caade618199d1060c01b62000400565b620014496787052e304948bc6260c01b62000400565b600260009054906101000a900473ffffffffffffffffffffffffffffffffffffffff1673ffffffffffffffffffffffffffffffffffffffff16630b85000d6040518163ffffffff1660e01b8152600401602060405180830381865afa158015620014b7573d6000803e3d6000fd5b505050506040513d601f19601f82011682018060405250810190620014dd91906200388e565b600160008673ffffffffffffffffffffffffffffffffffffffff1673ffffffffffffffffffffffffffffffffffffffff168152602001908152602001600020600601546064600160008873ffffffffffffffffffffffffffffffffffffffff1673ffffffffffffffffffffffffffffffffffffffff16815260200190815260200160002060070154620015719190620038ef565b6200157d919062003969565b106200160c57620015996775954ae7790fb8b760c01b62000400565b620015af6790cb830716f927b860c01b62000400565b620015c5670b9aa69beb5d280860c01b62000400565b620015d284600062002634565b620015e867ccdaa0619360f96360c01b62000400565b8373ffffffffffffffffffffffffffffffffffffffff163160068190555062001623565b6200162267b2b947ece71b16f860c01b62000400565b5b62001919565b6200163f67c6b79ef4602e5d3c60c01b62000400565b6200165567b62c76ed0bb4892b60c01b62000400565b600160008573ffffffffffffffffffffffffffffffffffffffff1673ffffffffffffffffffffffffffffffffffffffff16815260200190815260200160002060080154600160008673ffffffffffffffffffffffffffffffffffffffff1673ffffffffffffffffffffffffffffffffffffffff168152602001908152602001600020600701541015620018d057620016f8672e9ff12810046f3960c01b62000400565b6200170e672d4ebc30502a145860c01b62000400565b6200172467e7376686d8a1767d60c01b62000400565b600260009054906101000a900473ffffffffffffffffffffffffffffffffffffffff1673ffffffffffffffffffffffffffffffffffffffff16630b85000d6040518163ffffffff1660e01b8152600401602060405180830381865afa15801562001792573d6000803e3d6000fd5b505050506040513d601f19601f82011682018060405250810190620017b891906200388e565b600160008673ffffffffffffffffffffffffffffffffffffffff1673ffffffffffffffffffffffffffffffffffffffff168152602001908152602001600020600601546064600160008873ffffffffffffffffffffffffffffffffffffffff1673ffffffffffffffffffffffffffffffffffffffff168152602001908152602001600020600801546200184c9190620038ef565b62001858919062003969565b10620018b3576200187467c3d38feb5e365a2260c01b62000400565b6200188a677cc29083ad276ec160c01b62000400565b620018a067f24cfc71128b416560c01b62000400565b620018ad84600162002634565b620018ca565b620018c9677b9ee3c018f61e8060c01b62000400565b5b62001918565b620018e6678a284a0ef098e16060c01b62000400565b6040517fbc7316f200000000000000000000000000000000000000000000000000000000815260040160405180910390fd5b5b50505050565b6200193567e446f5fcd54ac0b460c01b62000400565b6200194b673f1dd29e51c9430e60c01b62000400565b62001961678b6eff04ef6830b360c01b62000400565b62001977677b18fbdb491e7d4360c01b62000400565b6000600260009054906101000a900473ffffffffffffffffffffffffffffffffffffffff1673ffffffffffffffffffffffffffffffffffffffff16630b4805d3336040518263ffffffff1660e01b8152600401620019d691906200331b565b602060405180830381865afa158015620019f4573d6000803e3d6000fd5b505050506040513d601f19601f8201168201806040525081019062001a1a91906200388e565b0362001a7e5762001a366757268fae5ca46a4560c01b62000400565b62001a4c6797a47cfb949223e960c01b62000400565b6040517f3a70817d00000000000000000000000000000000000000000000000000000000815260040160405180910390fd5b62001a9467f6ef23e277f08ddb60c01b62000400565b62001aaa67a538b5c40288831460c01b62000400565b62001ac0671dc6d3ac69ee6f7360c01b62000400565b62001ad667ce3c968b2642fbee60c01b62000400565b62001aec67ea67aa396b83247960c01b62000400565b62001b0267522b4a75ca34f86f60c01b62000400565b62001b18677f52020cb772325960c01b62000400565b600260009054906101000a900473ffffffffffffffffffffffffffffffffffffffff1673ffffffffffffffffffffffffffffffffffffffff166353db7e776040518163ffffffff1660e01b8152600401602060405180830381865afa15801562001b86573d6000803e3d6000fd5b505050506040513d601f19601f8201168201806040525081019062001bac91906200388e565b600260009054906101000a900473ffffffffffffffffffffffffffffffffffffffff1673ffffffffffffffffffffffffffffffffffffffff1663139f29a16040518163ffffffff1660e01b8152600401602060405180830381865afa15801562001c1a573d6000803e3d6000fd5b505050506040513d601f19601f8201168201806040525081019062001c4091906200388e565b101562001c84576040517f08c379a000000000000000000000000000000000000000000000000000000000815260040162001c7b90620039f1565b60405180910390fd5b62001c9a671ce809ac7dd8f8d960c01b62000400565b62001cb0674e96052afe49791e60c01b62000400565b62001cc66725603cd23c9e952e60c01b62000400565b6000828230600260009054906101000a900473ffffffffffffffffffffffffffffffffffffffff1660405162001cfc9062002db2565b62001d0b949392919062003a13565b604051809103906000f08015801562001d28573d6000803e3d6000fd5b50905062001d41672f9f6425e34f1a6160c01b62000400565b80600360006101000a81548173ffffffffffffffffffffffffffffffffffffffff021916908373ffffffffffffffffffffffffffffffffffffffff16021790555062001d98674b12a55f4e818fa260c01b62000400565b82600160008373ffffffffffffffffffffffffffffffffffffffff1673ffffffffffffffffffffffffffffffffffffffff168152602001908152602001600020600101908162001de99190620030bd565b5062001e0067e9c6daa577439fc760c01b62000400565b81600160008373ffffffffffffffffffffffffffffffffffffffff1673ffffffffffffffffffffffffffffffffffffffff168152602001908152602001600020600201908162001e519190620030bd565b5062001e68676d7d5974f4db7c1360c01b62000400565b33600160008373ffffffffffffffffffffffffffffffffffffffff1673ffffffffffffffffffffffffffffffffffffffff16815260200190815260200160002060030160006101000a81548173ffffffffffffffffffffffffffffffffffffffff021916908373ffffffffffffffffffffffffffffffffffffffff16021790555062001eff67b173118f2d6a436360c01b62000400565b6000600160008373ffffffffffffffffffffffffffffffffffffffff1673ffffffffffffffffffffffffffffffffffffffff16815260200190815260200160002060090160006101000a81548160ff0219169083600381111562001f685762001f676200358f565b5b021790555062001f83671672cf97d02bdfd960c01b62000400565b62001f996738e6d1f578baea6760c01b62000400565b7f909e36e1d400e483a06621ce59ea23139b7a5c694c10b1e889d0e79ce49922f281848460405162001fce9392919062003a6e565b60405180910390a1505050565b6001602052806000526040600020600091509050806000015490806001018054620020069062002eac565b80601f0160208091040260200160405190810160405280929190818152602001828054620020349062002eac565b8015620020855780601f10620020595761010080835404028352916020019162002085565b820191906000526020600020905b8154815290600101906020018083116200206757829003601f168201915b5050505050908060020180546200209c9062002eac565b80601f0160208091040260200160405190810160405280929190818152602001828054620020ca9062002eac565b80156200211b5780601f10620020ef576101008083540402835291602001916200211b565b820191906000526020600020905b815481529060010190602001808311620020fd57829003601f168201915b5050505050908060030160009054906101000a900473ffffffffffffffffffffffffffffffffffffffff16908060060154908060070154908060080154908060090160009054906101000a900460ff16905088565b6000620021886793e60090fcf804c860c01b62000400565b6200219e677606de6ea64d396e60c01b62000400565b620021b4678dd1e11f7936d12160c01b62000400565b600160008373ffffffffffffffffffffffffffffffffffffffff1673ffffffffffffffffffffffffffffffffffffffff16815260200190815260200160002060040160003373ffffffffffffffffffffffffffffffffffffffff1673ffffffffffffffffffffffffffffffffffffffff168152602001908152602001600020549050919050565b620022516765654ef833b3519760c01b62000400565b8062002268671694f5507738b0a860c01b62000400565b6200227e675245244d9ee4e57d60c01b62000400565b62002294677bb6c70046be178360c01b62000400565b3373ffffffffffffffffffffffffffffffffffffffff16600160008373ffffffffffffffffffffffffffffffffffffffff1673ffffffffffffffffffffffffffffffffffffffff16815260200190815260200160002060030160009054906101000a900473ffffffffffffffffffffffffffffffffffffffff1673ffffffffffffffffffffffffffffffffffffffff1614620023725762002340676970186bc424cb7a60c01b62000400565b6040517f251c9d6300000000000000000000000000000000000000000000000000000000815260040160405180910390fd5b620023886762ddd3c1f49dd35060c01b62000400565b6200239e6762576728a05c3b3a60c01b62000400565b620023b467d7fc6698c577b99260c01b62000400565b620023ca67e7810d1275e5fef460c01b62000400565b600082620023e36705840b1bb6124cb360c01b62000400565b620023f9674267da6335769cf260c01b62000400565b6200240f67a42c88aa4ffcb59c60c01b62000400565b8160038111156200242557620024246200358f565b5b600160008373ffffffffffffffffffffffffffffffffffffffff1673ffffffffffffffffffffffffffffffffffffffff16815260200190815260200160002060090160009054906101000a900460ff1660038111156200248a57620024896200358f565b5b14620024ee57620024a667dfacacbf8df4157360c01b62000400565b620024bc67a32fc8368cca38c560c01b62000400565b6040517f248d543200000000000000000000000000000000000000000000000000000000815260040160405180910390fd5b6200250467bbcb8e3ec629a84860c01b62000400565b6200251a676d63ee0d5396fc1560c01b62000400565b6200253067d9cbc184d887721360c01b62000400565b6200254667c9790b7fe121bf4f60c01b62000400565b6200255c673ba47348b0bab95360c01b62000400565b60018060008673ffffffffffffffffffffffffffffffffffffffff1673ffffffffffffffffffffffffffffffffffffffff16815260200190815260200160002060090160006101000a81548160ff02191690836003811115620025c457620025c36200358f565b5b0217905550620025df67331e0f664bcba1ff60c01b62000400565b620025f56771bb071ef0a2c23160c01b62000400565b7f8ebce6dadff954899922e37e6884f44f19ef94b282a760a548c170743cc892e1846040516200262691906200331b565b60405180910390a150505050565b6200264a67a80e3f2b35d3d62360c01b62000400565b6200266067cf65951efc4c1c0560c01b62000400565b62002676673a2d14ea6cc883b760c01b62000400565b8173ffffffffffffffffffffffffffffffffffffffff16635c3a3e5c600260009054906101000a900473ffffffffffffffffffffffffffffffffffffffff1673ffffffffffffffffffffffffffffffffffffffff1663194a4e7e6040518163ffffffff1660e01b8152600401602060405180830381865afa15801562002700573d6000803e3d6000fd5b505050506040513d601f19601f820116820180604052508101906200272691906200388e565b600260009054906101000a900473ffffffffffffffffffffffffffffffffffffffff1673ffffffffffffffffffffffffffffffffffffffff16636694ba616040518163ffffffff1660e01b8152600401602060405180830381865afa15801562002794573d6000803e3d6000fd5b505050506040513d601f19601f82011682018060405250810190620027ba91906200388e565b600160008773ffffffffffffffffffffffffffffffffffffffff1673ffffffffffffffffffffffffffffffffffffffff16815260200190815260200160002060030160009054906101000a900473ffffffffffffffffffffffffffffffffffffffff166040518463ffffffff1660e01b81526004016200283d9392919062003ab9565b600060405180830381600087803b1580156200285857600080fd5b505af11580156200286d573d6000803e3d6000fd5b5050505062002887673cb8b3c09757ba8760c01b62000400565b8173ffffffffffffffffffffffffffffffffffffffff1631600581905550620028bb6757879b3062890ed760c01b62000400565b620028d167986cc8ab33a25aea60c01b62000400565b60008273ffffffffffffffffffffffffffffffffffffffff1663ebfb6652600260009054906101000a900473ffffffffffffffffffffffffffffffffffffffff1673ffffffffffffffffffffffffffffffffffffffff166372e24fdd6040518163ffffffff1660e01b8152600401602060405180830381865afa1580156200295d573d6000803e3d6000fd5b505050506040513d601f19601f820116820180604052508101906200298391906200388e565b6040518263ffffffff1660e01b8152600401620029a19190620031b5565b6020604051808303816000875af1158015620029c1573d6000803e3d6000fd5b505050506040513d601f19601f82011682018060405250810190620029e791906200388e565b9050620029ff679b9ee7127194248960c01b62000400565b8060048190555062002a1c673f898e52a0c4bbf860c01b62000400565b62002a3267bf057e41abfbf55a60c01b62000400565b60005b600160008573ffffffffffffffffffffffffffffffffffffffff1673ffffffffffffffffffffffffffffffffffffffff1681526020019081526020016000206005018054905081101562002d1e5762002a9967a916ffc401d57deb60c01b62000400565b62002aaf67ab60b5e6ca97729760c01b62000400565b82600160008673ffffffffffffffffffffffffffffffffffffffff1673ffffffffffffffffffffffffffffffffffffffff1681526020019081526020016000206004016000600160008873ffffffffffffffffffffffffffffffffffffffff1673ffffffffffffffffffffffffffffffffffffffff168152602001908152602001600020600501848154811062002b4b5762002b4a620038c0565b5b9060005260206000200160009054906101000a900473ffffffffffffffffffffffffffffffffffffffff1673ffffffffffffffffffffffffffffffffffffffff1673ffffffffffffffffffffffffffffffffffffffff168152602001908152602001600020540362002cf15762002bcd673227cfc689fc326460c01b62000400565b62002be367a535ced11cd8c07460c01b62000400565b62002bf967f548776f8f5182c960c01b62000400565b8373ffffffffffffffffffffffffffffffffffffffff1663cf959429600160008773ffffffffffffffffffffffffffffffffffffffff1673ffffffffffffffffffffffffffffffffffffffff168152602001908152602001600020600501838154811062002c6c5762002c6b620038c0565b5b9060005260206000200160009054906101000a900473ffffffffffffffffffffffffffffffffffffffff16846040518363ffffffff1660e01b815260040162002cb792919062003af6565b600060405180830381600087803b15801562002cd257600080fd5b505af115801562002ce7573d6000803e3d6000fd5b5050505062002d08565b62002d0767b060ab97ceb9251b60c01b62000400565b5b808062002d159062003841565b91505062002a35565b5062002d3567c2ba8c35cfa4856e60c01b62000400565b62002d4b67633de75456e1adc260c01b62000400565b8273ffffffffffffffffffffffffffffffffffffffff1663a99073ae6040518163ffffffff1660e01b8152600401600060405180830381600087803b15801562002d9457600080fd5b505af115801562002da9573d6000803e3d6000fd5b50505050505050565b6133158062003b2483390190565b600082825260208201905092915050565b7f796f752063616e27742073656e64206c657373207468616e2035306b20776569600082015250565b600062002e0960208362002dc0565b915062002e168262002dd1565b602082019050919050565b6000602082019050818103600083015262002e3c8162002dfa565b9050919050565b600081519050919050565b7f4e487b7100000000000000000000000000000000000000000000000000000000600052604160045260246000fd5b7f4e487b7100000000000000000000000000000000000000000000000000000000600052602260045260246000fd5b6000600282049050600182168062002ec557607f821691505b60208210810362002edb5762002eda62002e7d565b5b50919050565b60008190508160005260206000209050919050565b60006020601f8301049050919050565b600082821b905092915050565b60006008830262002f457fffffffffffffffffffffffffffffffffffffffffffffffffffffffffffffffff8262002f06565b62002f51868362002f06565b95508019841693508086168417925050509392505050565b6000819050919050565b6000819050919050565b600062002f9e62002f9862002f928462002f69565b62002f73565b62002f69565b9050919050565b6000819050919050565b62002fba8362002f7d565b62002fd262002fc98262002fa5565b84845462002f13565b825550505050565b600090565b62002fe962002fda565b62002ff681848462002faf565b505050565b5b818110156200301e576200301260008262002fdf565b60018101905062002ffc565b5050565b601f8211156200306d57620030378162002ee1565b620030428462002ef6565b8101602085101562003052578190505b6200306a620030618562002ef6565b83018262002ffb565b50505b505050565b600082821c905092915050565b6000620030926000198460080262003072565b1980831691505092915050565b6000620030ad83836200307f565b9150826002028217905092915050565b620030c88262002e43565b67ffffffffffffffff811115620030e457620030e362002e4e565b5b620030f0825462002eac565b620030fd82828562003022565b600060209050601f83116001811462003135576000841562003120578287015190505b6200312c85826200309f565b8655506200319c565b601f198416620031458662002ee1565b60005b828110156200316f5784890151825560018201915060208501945060208101905062003148565b868310156200318f57848901516200318b601f8916826200307f565b8355505b6001600288020188555050505b505050505050565b620031af8162002f69565b82525050565b6000602082019050620031cc6000830184620031a4565b92915050565b6000604051905090565b600080fd5b600080fd5b620031f18162002f69565b8114620031fd57600080fd5b50565b6000813590506200321181620031e6565b92915050565b600073ffffffffffffffffffffffffffffffffffffffff82169050919050565b6000620032448262003217565b9050919050565b620032568162003237565b81146200326257600080fd5b50565b60008135905062003276816200324b565b92915050565b60008060408385031215620032965762003295620031dc565b5b6000620032a68582860162003200565b9250506020620032b98582860162003265565b9150509250929050565b60008060408385031215620032dd57620032dc620031dc565b5b6000620032ed8582860162003265565b9250506020620033008582860162003200565b9150509250929050565b620033158162003237565b82525050565b60006020820190506200333260008301846200330a565b92915050565b600060208284031215620033515762003350620031dc565b5b6000620033618482850162003265565b91505092915050565b600080fd5b600080fd5b6000601f19601f8301169050919050565b620033908262003374565b810181811067ffffffffffffffff82111715620033b257620033b162002e4e565b5b80604052505050565b6000620033c7620031d2565b9050620033d5828262003385565b919050565b600067ffffffffffffffff821115620033f857620033f762002e4e565b5b620034038262003374565b9050602081019050919050565b82818337600083830152505050565b6000620034366200343084620033da565b620033bb565b9050828152602081018484840111156200345557620034546200336f565b5b6200346284828562003410565b509392505050565b600082601f8301126200348257620034816200336a565b5b8135620034948482602086016200341f565b91505092915050565b60008060408385031215620034b757620034b6620031dc565b5b600083013567ffffffffffffffff811115620034d857620034d7620031e1565b5b620034e6858286016200346a565b925050602083013567ffffffffffffffff8111156200350a5762003509620031e1565b5b62003518858286016200346a565b9150509250929050565b60005b838110156200354257808201518184015260208101905062003525565b60008484015250505050565b60006200355b8262002e43565b62003567818562002dc0565b93506200357981856020860162003522565b620035848162003374565b840191505092915050565b7f4e487b7100000000000000000000000000000000000000000000000000000000600052602160045260246000fd5b60048110620035d257620035d16200358f565b5b50565b6000819050620035e582620035be565b919050565b6000620035f782620035d5565b9050919050565b6200360981620035ea565b82525050565b60006101008201905062003627600083018b620031a4565b81810360208301526200363b818a6200354e565b905081810360408301526200365181896200354e565b90506200366260608301886200330a565b620036716080830187620031a4565b6200368060a0830186620031a4565b6200368f60c0830185620031a4565b6200369e60e0830184620035fe565b9998505050505050505050565b7f756e6578697374696e6720636f6d70657469746f727300000000000000000000600082015250565b6000620036e360168362002dc0565b9150620036f082620036ab565b602082019050919050565b600060208201905081810360008301526200371681620036d4565b9050919050565b60006200372a8262003217565b9050919050565b6200373c816200371d565b81146200374857600080fd5b50565b6000815190506200375c8162003731565b92915050565b60008115159050919050565b620037798162003762565b81146200378557600080fd5b50565b60008151905062003799816200376e565b92915050565b600081519050620037b081620031e6565b92915050565b600080600060608486031215620037d257620037d1620031dc565b5b6000620037e2868287016200374b565b9350506020620037f58682870162003788565b925050604062003808868287016200379f565b9150509250925092565b7f4e487b7100000000000000000000000000000000000000000000000000000000600052601160045260246000fd5b60006200384e8262002f69565b91507fffffffffffffffffffffffffffffffffffffffffffffffffffffffffffffffff820362003883576200388262003812565b5b600182019050919050565b600060208284031215620038a757620038a6620031dc565b5b6000620038b7848285016200379f565b91505092915050565b7f4e487b7100000000000000000000000000000000000000000000000000000000600052603260045260246000fd5b6000620038fc8262002f69565b9150620039098362002f69565b9250828202620039198162002f69565b9150828204841483151762003933576200393262003812565b5b5092915050565b7f4e487b7100000000000000000000000000000000000000000000000000000000600052601260045260246000fd5b6000620039768262002f69565b9150620039838362002f69565b9250826200399657620039956200393a565b5b828204905092915050565b7f6e6f7420656e6f7567682076616c696461746f72000000000000000000000000600082015250565b6000620039d960148362002dc0565b9150620039e682620039a1565b602082019050919050565b6000602082019050818103600083015262003a0c81620039ca565b9050919050565b6000608082019050818103600083015262003a2f81876200354e565b9050818103602083015262003a4581866200354e565b905062003a5660408301856200330a565b62003a6560608301846200330a565b95945050505050565b600060608201905062003a8560008301866200330a565b818103602083015262003a9981856200354e565b9050818103604083015262003aaf81846200354e565b9050949350505050565b600060608201905062003ad06000830186620031a4565b62003adf6020830185620031a4565b62003aee60408301846200330a565b949350505050565b600060408201905062003b0d60008301856200330a565b62003b1c6020830184620031a4565b939250505056fe60806040526040516200331538038062003315833981810160405281019062000029919062000443565b62000045673880fe76a92d674f60c01b6200024860201b60201c565b6200006167d370d7552a8ba41460c01b6200024860201b60201c565b81600260006101000a81548173ffffffffffffffffffffffffffffffffffffffff021916908373ffffffffffffffffffffffffffffffffffffffff160217905550620000be670e6f88412f2a500a60c01b6200024860201b60201c565b80600360006101000a81548173ffffffffffffffffffffffffffffffffffffffff021916908373ffffffffffffffffffffffffffffffffffffffff1602179055506200011b6792416254f3f5f39260c01b6200024860201b60201c565b836009600080815260200190815260200160002060000190816200014091906200073e565b506200015d6771fad64d18f364c260c01b6200024860201b60201c565b82600960006001815260200190815260200160002060000190816200018391906200073e565b50620001a06780d820ec3fe7565360c01b6200024860201b60201c565b81600b60006101000a81548173ffffffffffffffffffffffffffffffffffffffff021916908373ffffffffffffffffffffffffffffffffffffffff160217905550620001fd67778c36277c14216c60c01b6200024860201b60201c565b80600c60006101000a81548173ffffffffffffffffffffffffffffffffffffffff021916908373ffffffffffffffffffffffffffffffffffffffff1602179055505050505062000825565b50565b6000604051905090565b600080fd5b600080fd5b600080fd5b600080fd5b6000601f19601f8301169050919050565b7f4e487b7100000000000000000000000000000000000000000000000000000000600052604160045260246000fd5b620002b48262000269565b810181811067ffffffffffffffff82111715620002d657620002d56200027a565b5b80604052505050565b6000620002eb6200024b565b9050620002f98282620002a9565b919050565b600067ffffffffffffffff8211156200031c576200031b6200027a565b5b620003278262000269565b9050602081019050919050565b60005b838110156200035457808201518184015260208101905062000337565b60008484015250505050565b6000620003776200037184620002fe565b620002df565b90508281526020810184848401111562000396576200039562000264565b5b620003a384828562000334565b509392505050565b600082601f830112620003c357620003c26200025f565b5b8151620003d584826020860162000360565b91505092915050565b600073ffffffffffffffffffffffffffffffffffffffff82169050919050565b60006200040b82620003de565b9050919050565b6200041d81620003fe565b81146200042957600080fd5b50565b6000815190506200043d8162000412565b92915050565b6000806000806080858703121562000460576200045f62000255565b5b600085015167ffffffffffffffff8111156200048157620004806200025a565b5b6200048f87828801620003ab565b945050602085015167ffffffffffffffff811115620004b357620004b26200025a565b5b620004c187828801620003ab565b9350506040620004d4878288016200042c565b9250506060620004e7878288016200042c565b91505092959194509250565b600081519050919050565b7f4e487b7100000000000000000000000000000000000000000000000000000000600052602260045260246000fd5b600060028204905060018216806200054657607f821691505b6020821081036200055c576200055b620004fe565b5b50919050565b60008190508160005260206000209050919050565b60006020601f8301049050919050565b600082821b905092915050565b600060088302620005c67fffffffffffffffffffffffffffffffffffffffffffffffffffffffffffffffff8262000587565b620005d2868362000587565b95508019841693508086168417925050509392505050565b6000819050919050565b6000819050919050565b60006200061f620006196200061384620005ea565b620005f4565b620005ea565b9050919050565b6000819050919050565b6200063b83620005fe565b620006536200064a8262000626565b84845462000594565b825550505050565b600090565b6200066a6200065b565b6200067781848462000630565b505050565b5b818110156200069f576200069360008262000660565b6001810190506200067d565b5050565b601f821115620006ee57620006b88162000562565b620006c38462000577565b81016020851015620006d3578190505b620006eb620006e28562000577565b8301826200067c565b50505b505050565b600082821c905092915050565b60006200071360001984600802620006f3565b1980831691505092915050565b60006200072e838362000700565b9150826002028217905092915050565b6200074982620004f3565b67ffffffffffffffff8111156200076557620007646200027a565b5b6200077182546200052d565b6200077e828285620006a3565b600060209050601f831160018114620007b65760008415620007a1578287015190505b620007ad858262000720565b8655506200081d565b601f198416620007c68662000562565b60005b82811015620007f057848901518255600182019150602085019450602081019050620007c9565b868310156200081057848901516200080c601f89168262000700565b8355505b6001600288020188555050505b505050505050565b612ae080620008356000396000f3fe6080604052600436106100ec5760003560e01c8063ad05d9c31161008a578063e8399cc611610059578063e8399cc614610462578063ebfb66521461047e578063f8a8fd6d146104bb578063fe5e1853146104e65761022a565b8063ad05d9c3146103d9578063c6073c66146103e3578063cf9594291461040e578063d93e03b0146104375761022a565b80639d86801f116100c65780639d86801f1461032c578063a14de0281461036c578063a32b348714610397578063a99073ae146103c25761022a565b806322010c1f146102985780635c3a3e5c146102d85780636f9fb98a146103015761022a565b3661022a57610105677a245f6148412ddb60c01b610511565b61011967b84de5277767965d60c01b610511565b61012d6712cc2603b5b2e29d60c01b610511565b640b68a0aa00341161017f5761014d678f8e33d99c66770d60c01b610511565b6040517f78e9f1ba00000000000000000000000000000000000000000000000000000000815260040160405180910390fd5b610193675e3f871480821b4960c01b610511565b6101a7676812f97330221e6d60c01b610511565b6101bb67c6be74cdde27ffc960c01b610511565b6101cf67f80bf3b10e6a5eee60c01b610511565b61c350341015610214576040517f08c379a000000000000000000000000000000000000000000000000000000000815260040161020b90612081565b60405180910390fd5b61022867112fdbfa84dc6a3060c01b610511565b005b61023e67842cb75314fa904d60c01b610511565b61025267497259b76d8a65fd60c01b610511565b6040518060400160405280601e81526020017f46616c6c6261636b2066756e6374696f6e2069732065786563757465642100008152506000908161029691906122f1565b005b3480156102a457600080fd5b506102bf60048036038101906102ba9190612426565b610514565b6040516102cf9493929190612483565b60405180910390f35b3480156102e457600080fd5b506102ff60048036038101906102fa91906124f4565b610564565b005b34801561030d57600080fd5b5061031661094b565b6040516103239190612547565b60405180910390f35b34801561033857600080fd5b50610353600480360381019061034e9190612562565b61098f565b6040516103639493929190612603565b60405180910390f35b34801561037857600080fd5b50610381610a47565b60405161038e9190612547565b60405180910390f35b3480156103a357600080fd5b506103ac610a4d565b6040516103b99190612547565b60405180910390f35b3480156103ce57600080fd5b506103d7610a53565b005b6103e1610bef565b005b3480156103ef57600080fd5b506103f8610f8a565b604051610405919061265e565b60405180910390f35b34801561041a57600080fd5b5061043560048036038101906104309190612679565b610fb0565b005b34801561044357600080fd5b5061044c611217565b604051610459919061265e565b60405180910390f35b61047c60048036038101906104779190612562565b61123d565b005b34801561048a57600080fd5b506104a560048036038101906104a09190612562565b61190a565b6040516104b29190612547565b60405180910390f35b3480156104c757600080fd5b506104d0611b5c565b6040516104dd9190612547565b60405180910390f35b3480156104f257600080fd5b506104fb611b62565b6040516105089190612547565b60405180910390f35b50565b600a6020528060005260406000206000915090508060000160009054906101000a900473ffffffffffffffffffffffffffffffffffffffff16908060010154908060020154908060030154905084565b610578676fb55fc867f496e460c01b610511565b61058c674a3f504aedaadb3960c01b610511565b6105a067b6b8fdae206bcbf060c01b610511565b6105b467703a5cfa23fd47e460c01b610511565b60004711610602576105d067fc4f2ff22208851e60c01b610511565b6040517f47108e3e00000000000000000000000000000000000000000000000000000000815260040160405180910390fd5b61061667c9aaa878a83e103960c01b610511565b61062a675e2d6fa3a618635f60c01b610511565b61063e67f90a619496be4d8460c01b610511565b610652673a6aa172235a4c1c60c01b610511565b61066667c2d2dcba7866d44760c01b610511565b61067a67024dd3ff4045dd9960c01b610511565b61068e674f2a86fb35cd86e560c01b610511565b600b60009054906101000a900473ffffffffffffffffffffffffffffffffffffffff1673ffffffffffffffffffffffffffffffffffffffff163373ffffffffffffffffffffffffffffffffffffffff1614610729576106f7674b3ff8817c4dcc8e60c01b610511565b6040517f8679b0c000000000000000000000000000000000000000000000000000000000815260040160405180910390fd5b61073d67d7556efa17e0745160c01b610511565b61075167dcdae9d18e29cd9860c01b610511565b61076567b6a30b52d7c9c8a160c01b610511565b61077967e47e8ab56f4e441160c01b610511565b61078d674ae95d39cd38678660c01b610511565b6107a1674a4bfaf50706ca7b60c01b610511565b6107b5670fdf4ac60a9e7e1560c01b610511565b600c60149054906101000a900460ff1615610805576040517f08c379a00000000000000000000000000000000000000000000000000000000081526004016107fc90612705565b60405180910390fd5b6108196766f5dda09482896f60c01b610511565b61082d67c4b03493abe2156360c01b610511565b61084167590a4197a67574c160c01b610511565b600061084b61094b565b90506108616705922466f1c4e7e360c01b610511565b61087567c0e958e40105a33460c01b610511565b600084826108839190612783565b905061089967df25ef21b9074d5f60c01b610511565b6108ad6746c3f04a4334f51760c01b610511565b600084836108bb9190612783565b90506108d16772bcc64897a19d5260c01b610511565b6108e56775adc06e7cbd273a60c01b610511565b610911600c60009054906101000a900473ffffffffffffffffffffffffffffffffffffffff1683611b68565b61092567c5cf6a138dd2df9e60c01b610511565b610939678d9ce24b07d3448660c01b610511565b6109438482611b68565b505050505050565b6000610961671ae065f67493a9f060c01b610511565b6109756718802ec8ac08a86660c01b610511565b61098967f594723c62f57de360c01b610511565b47905090565b60096020528060005260406000206000915090508060000180546109b29061210a565b80601f01602080910402602001604051908101604052809291908181526020018280546109de9061210a565b8015610a2b5780601f10610a0057610100808354040283529160200191610a2b565b820191906000526020600020905b815481529060010190602001808311610a0e57829003601f168201915b5050505050908060010154908060020154908060030154905084565b60045481565b60055481565b610a6767e7b0405549c6c5bb60c01b610511565b610a7b67c2d2dcba7866d44760c01b610511565b610a8f67024dd3ff4045dd9960c01b610511565b610aa3674f2a86fb35cd86e560c01b610511565b600b60009054906101000a900473ffffffffffffffffffffffffffffffffffffffff1673ffffffffffffffffffffffffffffffffffffffff163373ffffffffffffffffffffffffffffffffffffffff1614610b3e57610b0c674b3ff8817c4dcc8e60c01b610511565b6040517f8679b0c000000000000000000000000000000000000000000000000000000000815260040160405180910390fd5b610b5267d7556efa17e0745160c01b610511565b610b6667dcdae9d18e29cd9860c01b610511565b610b7a67747be599609615d960c01b610511565b610b8e6792d59493b53a1beb60c01b610511565b610ba267a4b332afb43ae6f360c01b610511565b6001600c60146101000a81548160ff021916908315150217905550610bd16783afdea2d2fb0fe160c01b610511565b610be5675de0d9e53a020fab60c01b610511565b610bed611ca8565b565b610c03675e9aef25c362106860c01b610511565b610c17678912d1796af006b060c01b610511565b610c2b677eac87a1e0949e8660c01b610511565b610c3f67e74ff6fcd0f08ca660c01b610511565b600c60149054906101000a900460ff16610c9957610c6767485cbf8e35bb6b6960c01b610511565b6040517f0541f1f000000000000000000000000000000000000000000000000000000000815260040160405180910390fd5b610cad67feb909de3d5aafeb60c01b610511565b610cc1673aa5af05e897f65060c01b610511565b610cd567ed19f2977735470860c01b610511565b610ce9675e40841fbf020af260c01b610511565b610cfd67819dbe880bc1071860c01b610511565b610d1167dc869c47f0d5b16f60c01b610511565b610d25677e87afa7da809c2660c01b610511565b600c60149054906101000a900460ff16610d74576040517f08c379a0000000000000000000000000000000000000000000000000000000008152600401610d6b90612800565b60405180910390fd5b610d8867ca37594536d9c47e60c01b610511565b610d9c67dd23c844588525d060c01b610511565b610db0671e9f9a68a41f34f660c01b610511565b610dc4673c7cde1dc7156f0b60c01b610511565b600754600a60003373ffffffffffffffffffffffffffffffffffffffff1673ffffffffffffffffffffffffffffffffffffffff1681526020019081526020016000206001015414610e4a576040517f08c379a0000000000000000000000000000000000000000000000000000000008152600401610e419061286c565b60405180910390fd5b610e5e67e6b9b3385702204660c01b610511565b610e7267f43df02a913d4ce960c01b610511565b6064600854600a60003373ffffffffffffffffffffffffffffffffffffffff1673ffffffffffffffffffffffffffffffffffffffff16815260200190815260200160002060020154610ec4919061288c565b610ece9190612783565b600a60003373ffffffffffffffffffffffffffffffffffffffff1673ffffffffffffffffffffffffffffffffffffffff16815260200190815260200160002060030181905550610f286702229733223f4ff860c01b610511565b610f3c67f45af4e37a2f4aa460c01b610511565b610f8833600a60003373ffffffffffffffffffffffffffffffffffffffff1673ffffffffffffffffffffffffffffffffffffffff16815260200190815260200160002060030154611b68565b565b600b60009054906101000a900473ffffffffffffffffffffffffffffffffffffffff1681565b610fc467abe0825008d943c660c01b610511565b610fd867c2d2dcba7866d44760c01b610511565b610fec67024dd3ff4045dd9960c01b610511565b611000674f2a86fb35cd86e560c01b610511565b600b60009054906101000a900473ffffffffffffffffffffffffffffffffffffffff1673ffffffffffffffffffffffffffffffffffffffff163373ffffffffffffffffffffffffffffffffffffffff161461109b57611069674b3ff8817c4dcc8e60c01b610511565b6040517f8679b0c000000000000000000000000000000000000000000000000000000000815260040160405180910390fd5b6110af67d7556efa17e0745160c01b610511565b6110c367dcdae9d18e29cd9860c01b610511565b6110d7671444885072c8251160c01b610511565b6110eb6738ba07092691a5c860c01b610511565b6110ff674a3f504aedaadb3960c01b610511565b61111367b6b8fdae206bcbf060c01b610511565b61112767703a5cfa23fd47e460c01b610511565b600047116111755761114367fc4f2ff22208851e60c01b610511565b6040517f47108e3e00000000000000000000000000000000000000000000000000000000815260040160405180910390fd5b61118967c9aaa878a83e103960c01b610511565b61119d675e2d6fa3a618635f60c01b610511565b6111b167485210bc64b0980f60c01b610511565b6111c567f8860e22e4da57e160c01b610511565b6111d9679714be1be2d3c95e60c01b610511565b6111ed6787b0a100e5eb9aad60c01b610511565b6111f78282611b68565b61120b671215d68a640bc4bf60c01b610511565b6002600d819055505050565b600c60009054906101000a900473ffffffffffffffffffffffffffffffffffffffff1681565b61125167b959726c747216b360c01b610511565b611265676b5d767f9ba39de160c01b610511565b6112796755398537b4c6ec9c60c01b610511565b61128d676c3f4f578d8222b060c01b610511565b343373ffffffffffffffffffffffffffffffffffffffff163110156112f2576112c067e1ae4143159aa6af60c01b610511565b6040517f47108e3e00000000000000000000000000000000000000000000000000000000815260040160405180910390fd5b61130667c6bb87e4cc2da5fc60c01b610511565b61131a6719acf6420e1ac1f260c01b610511565b61132e67f2311fb6ac3ed3ec60c01b610511565b61134267d27fab3e0c505c7e60c01b610511565b611356677a245f6148412ddb60c01b610511565b61136a67b84de5277767965d60c01b610511565b61137e6712cc2603b5b2e29d60c01b610511565b640b68a0aa0034116113d05761139e678f8e33d99c66770d60c01b610511565b6040517f78e9f1ba00000000000000000000000000000000000000000000000000000000815260040160405180910390fd5b6113e4675e3f871480821b4960c01b610511565b6113f8676812f97330221e6d60c01b610511565b61140c679569ff1bb69bc7ba60c01b610511565b61142067a21bd7cc99fc63de60c01b610511565b6114346739c6a9c0c401c01e60c01b610511565b61144867071e2ed143bc581b60c01b610511565b61145c670ef97a26126c57a760c01b610511565b3373ffffffffffffffffffffffffffffffffffffffff16600a60003373ffffffffffffffffffffffffffffffffffffffff1673ffffffffffffffffffffffffffffffffffffffff16815260200190815260200160002060000160009054906101000a900473ffffffffffffffffffffffffffffffffffffffff1673ffffffffffffffffffffffffffffffffffffffff160361154b5761150567ac0d63dfa374b0c560c01b610511565b611519679b6cef1a70d2fda560c01b610511565b6040517f8424505800000000000000000000000000000000000000000000000000000000815260040160405180910390fd5b61155f67233ad61f64e3313560c01b610511565b6115736756f1c15ab8a3a47b60c01b610511565b6115876707fb9a15754bfd4a60c01b610511565b61159b67afac4194645c9c8960c01b610511565b6115af67a9989d08d4a0ac1960c01b610511565b6115c36771dadaad48ca409d60c01b610511565b6115d76707623a5eacbc904560c01b610511565b6000600360009054906101000a900473ffffffffffffffffffffffffffffffffffffffff1673ffffffffffffffffffffffffffffffffffffffff16630b4805d3336040518263ffffffff1660e01b8152600401611634919061265e565b602060405180830381865afa158015611651573d6000803e3d6000fd5b505050506040513d601f19601f8201168201806040525081019061167591906128e3565b036116d45761168e677f943d31914e0d0b60c01b610511565b6116a26780fbc1021c4809f960c01b610511565b6040517f3a70817d00000000000000000000000000000000000000000000000000000000815260040160405180910390fd5b6116e867dd1878dd8bab9ec960c01b610511565b6116fc67499637d15d11b8ad60c01b610511565b61171067a0bb5002a13755e060c01b610511565b6117246760964f858316fb7860c01b610511565b61173867d86956e44f2b951a60c01b610511565b61174c679c4345fa03e7255b60c01b610511565b61176067d16d962622064b1360c01b610511565b60018111156117a4576040517f08c379a000000000000000000000000000000000000000000000000000000000815260040161179b9061295c565b60405180910390fd5b6117b867a8e53e19bf8d45cd60c01b610511565b6117cc671a8a5167347b76d460c01b610511565b6117e067510316ab606d16f160c01b610511565b6117ea3034611b68565b6117fe671b41f3eeef2c461860c01b610511565b600660008154809291906118119061297c565b919050555061182a67d301c13fd27a001560c01b610511565b6009600082815260200190815260200160002060020160008154809291906118519061297c565b919050555061186a67597bb8f25a7959b260c01b610511565b34600960008381526020019081526020016000206003015461188c91906129c4565b60096000838152602001908152602001600020600301819055506118ba677036b7533fcf9cce60c01b610511565b6118ce6773ecff5826e1a21b60c01b610511565b6118d6611dee565b6118ea670f337603154b6e9560c01b610511565b6118fe67bf3fe7eb6e42083560c01b610511565b61190781611ec2565b50565b600061192067387cfe2da3a3536b60c01b610511565b611934674a3f504aedaadb3960c01b610511565b61194867b6b8fdae206bcbf060c01b610511565b61195c67703a5cfa23fd47e460c01b610511565b600047116119aa5761197867fc4f2ff22208851e60c01b610511565b6040517f47108e3e00000000000000000000000000000000000000000000000000000000815260040160405180910390fd5b6119be67c9aaa878a83e103960c01b610511565b6119d2675e2d6fa3a618635f60c01b610511565b6119e6679c05b7b1d1c6d5bf60c01b610511565b6119fa6779162328c7b07e0e60c01b610511565b611a0e67c2d2dcba7866d44760c01b610511565b611a2267024dd3ff4045dd9960c01b610511565b611a36674f2a86fb35cd86e560c01b610511565b600b60009054906101000a900473ffffffffffffffffffffffffffffffffffffffff1673ffffffffffffffffffffffffffffffffffffffff163373ffffffffffffffffffffffffffffffffffffffff1614611ad157611a9f674b3ff8817c4dcc8e60c01b610511565b6040517f8679b0c000000000000000000000000000000000000000000000000000000000815260040160405180910390fd5b611ae567d7556efa17e0745160c01b610511565b611af967dcdae9d18e29cd9860c01b610511565b611b0d6722785441bcab6b6e60c01b610511565b611b2167d843e5b69679218060c01b610511565b611b3567ff4a1f460033b03160c01b610511565b611b4967d687015831fb3c6460c01b610511565b8147611b559190612783565b9050919050565b600d5481565b60065481565b611b7c6766b164eb6413f16c60c01b610511565b611b90679e8f3afdcb85835a60c01b610511565b611ba4675e7ea7c80a123e0360c01b610511565b6000808373ffffffffffffffffffffffffffffffffffffffff1683604051611bcb90612a29565b60006040518083038185875af1925050503d8060008114611c08576040519150601f19603f3d011682016040523d82523d6000602084013e611c0d565b606091505b5091509150611c26672f891e15d04adf0760c01b610511565b611c3a673e86a90d476db8a860c01b610511565b611c4e6730066836f597776060c01b610511565b81611c8e576040517f08c379a0000000000000000000000000000000000000000000000000000000008152600401611c8590612a8a565b60405180910390fd5b611ca26759d75cc18cbf3c4d60c01b610511565b50505050565b611cbc671fa434171190f94560c01b610511565b611cd0678912d1796af006b060c01b610511565b611ce4677eac87a1e0949e8660c01b610511565b611cf867e74ff6fcd0f08ca660c01b610511565b600c60149054906101000a900460ff16611d5257611d2067485cbf8e35bb6b6960c01b610511565b6040517f0541f1f000000000000000000000000000000000000000000000000000000000815260040160405180910390fd5b611d6667feb909de3d5aafeb60c01b610511565b611d7a673aa5af05e897f65060c01b610511565b611d8e67595a75ac3e31cfe660c01b610511565b611da267a23d1148f21b7da860c01b610511565b611db66750f0565ef191661b60c01b610511565b60096000600754815260200190815260200160002060030154606447611ddc919061288c565b611de69190612783565b600881905550565b611e026789fcbbf4e17b77a560c01b610511565b611e1667927137bc5687fe8860c01b610511565b60065460646009600080815260200190815260200160002060020154611e3c919061288c565b611e469190612783565b6009600080815260200190815260200160002060010181905550611e74672992ae469deb20e960c01b610511565b6006546064600960006001815260200190815260200160002060020154611e9b919061288c565b611ea59190612783565b600960006001815260200190815260200160002060010181905550565b611ed66702ec26ec9be2374d60c01b610511565b611eea67cd551c12e7c7717a60c01b610511565b33600a60003373ffffffffffffffffffffffffffffffffffffffff1673ffffffffffffffffffffffffffffffffffffffff16815260200190815260200160002060000160006101000a81548173ffffffffffffffffffffffffffffffffffffffff021916908373ffffffffffffffffffffffffffffffffffffffff160217905550611f7f67ccab0a1c885ec6ef60c01b610511565b80600a60003373ffffffffffffffffffffffffffffffffffffffff1673ffffffffffffffffffffffffffffffffffffffff16815260200190815260200160002060010181905550611fda67e1ccacf34c004f0e60c01b610511565b34600a60003373ffffffffffffffffffffffffffffffffffffffff1673ffffffffffffffffffffffffffffffffffffffff1681526020019081526020016000206002018190555050565b600082825260208201905092915050565b7f796f752063616e27742073656e64206c657373207468616e2035306b20776569600082015250565b600061206b602083612024565b915061207682612035565b602082019050919050565b6000602082019050818103600083015261209a8161205e565b9050919050565b600081519050919050565b7f4e487b7100000000000000000000000000000000000000000000000000000000600052604160045260246000fd5b7f4e487b7100000000000000000000000000000000000000000000000000000000600052602260045260246000fd5b6000600282049050600182168061212257607f821691505b602082108103612135576121346120db565b5b50919050565b60008190508160005260206000209050919050565b60006020601f8301049050919050565b600082821b905092915050565b60006008830261219d7fffffffffffffffffffffffffffffffffffffffffffffffffffffffffffffffff82612160565b6121a78683612160565b95508019841693508086168417925050509392505050565b6000819050919050565b6000819050919050565b60006121ee6121e96121e4846121bf565b6121c9565b6121bf565b9050919050565b6000819050919050565b612208836121d3565b61221c612214826121f5565b84845461216d565b825550505050565b600090565b612231612224565b61223c8184846121ff565b505050565b5b8181101561226057612255600082612229565b600181019050612242565b5050565b601f8211156122a5576122768161213b565b61227f84612150565b8101602085101561228e578190505b6122a261229a85612150565b830182612241565b50505b505050565b600082821c905092915050565b60006122c8600019846008026122aa565b1980831691505092915050565b60006122e183836122b7565b9150826002028217905092915050565b6122fa826120a1565b67ffffffffffffffff811115612313576123126120ac565b5b61231d825461210a565b612328828285612264565b600060209050601f83116001811461235b5760008415612349578287015190505b61235385826122d5565b8655506123bb565b601f1984166123698661213b565b60005b828110156123915784890151825560018201915060208501945060208101905061236c565b868310156123ae57848901516123aa601f8916826122b7565b8355505b6001600288020188555050505b505050505050565b600080fd5b600073ffffffffffffffffffffffffffffffffffffffff82169050919050565b60006123f3826123c8565b9050919050565b612403816123e8565b811461240e57600080fd5b50565b600081359050612420816123fa565b92915050565b60006020828403121561243c5761243b6123c3565b5b600061244a84828501612411565b91505092915050565b600061245e826123c8565b9050919050565b61246e81612453565b82525050565b61247d816121bf565b82525050565b60006080820190506124986000830187612465565b6124a56020830186612474565b6124b26040830185612474565b6124bf6060830184612474565b95945050505050565b6124d1816121bf565b81146124dc57600080fd5b50565b6000813590506124ee816124c8565b92915050565b60008060006060848603121561250d5761250c6123c3565b5b600061251b868287016124df565b935050602061252c868287016124df565b925050604061253d86828701612411565b9150509250925092565b600060208201905061255c6000830184612474565b92915050565b600060208284031215612578576125776123c3565b5b6000612586848285016124df565b91505092915050565b60005b838110156125ad578082015181840152602081019050612592565b60008484015250505050565b6000601f19601f8301169050919050565b60006125d5826120a1565b6125df8185612024565b93506125ef81856020860161258f565b6125f8816125b9565b840191505092915050565b6000608082019050818103600083015261261d81876125ca565b905061262c6020830186612474565b6126396040830185612474565b6126466060830184612474565b95945050505050565b612658816123e8565b82525050565b6000602082019050612673600083018461264f565b92915050565b600080604083850312156126905761268f6123c3565b5b600061269e85828601612411565b92505060206126af858286016124df565b9150509250929050565b7f66656520616c7265616479207061696400000000000000000000000000000000600082015250565b60006126ef601083612024565b91506126fa826126b9565b602082019050919050565b6000602082019050818103600083015261271e816126e2565b9050919050565b7f4e487b7100000000000000000000000000000000000000000000000000000000600052601260045260246000fd5b7f4e487b7100000000000000000000000000000000000000000000000000000000600052601160045260246000fd5b600061278e826121bf565b9150612799836121bf565b9250826127a9576127a8612725565b5b828204905092915050565b7f70617920706c6174666f726d2066656520666972737400000000000000000000600082015250565b60006127ea601683612024565b91506127f5826127b4565b602082019050919050565b60006020820190508181036000830152612819816127dd565b9050919050565b7f6e6f206761696e00000000000000000000000000000000000000000000000000600082015250565b6000612856600783612024565b915061286182612820565b602082019050919050565b6000602082019050818103600083015261288581612849565b9050919050565b6000612897826121bf565b91506128a2836121bf565b92508282026128b0816121bf565b915082820484148315176128c7576128c6612754565b5b5092915050565b6000815190506128dd816124c8565b92915050565b6000602082840312156128f9576128f86123c3565b5b6000612907848285016128ce565b91505092915050565b7f636f6d70657469746f7220646f6e277420657869737400000000000000000000600082015250565b6000612946601683612024565b915061295182612910565b602082019050919050565b6000602082019050818103600083015261297581612939565b9050919050565b6000612987826121bf565b91507fffffffffffffffffffffffffffffffffffffffffffffffffffffffffffffffff82036129b9576129b8612754565b5b600182019050919050565b60006129cf826121bf565b91506129da836121bf565b92508282019050808211156129f2576129f1612754565b5b92915050565b600081905092915050565b50565b6000612a136000836129f8565b9150612a1e82612a03565b600082019050919050565b6000612a3482612a06565b9150819050919050565b7f4661696c656420746f2073656e64204574686572000000000000000000000000600082015250565b6000612a74601483612024565b9150612a7f82612a3e565b602082019050919050565b60006020820190508181036000830152612aa381612a67565b905091905056fea2646970667358221220044580523586d9e8dc8ca61b857a2420d345e40ad1c04a9ef2caad44b0c7ae0064736f6c63430008150033a26469706673582212205bdbd4c87447a8a2bc035b6d98dd0e1acc88aac92058735cee0389c2abfa283964736f6c63430008150033",
  "linkReferences": {},
  "deployedLinkReferences": {}
}