{
  "_format": "hh-sol-artifact-1",
  "contractName": "BetWaveOrganizer",
  "sourceName": "contracts/BetWaveOrganizer.sol",
  "abi": [
    {
      "inputs": [
        {
          "internalType": "address",
          "name": "_betWaveDAOAddress",
          "type": "address"
        }
      ],
      "stateMutability": "payable",
      "type": "constructor"
    },
    {
      "inputs": [],
      "name": "noWinner",
      "type": "error"
    },
    {
      "inputs": [],
      "name": "notOwner",
      "type": "error"
    },
    {
      "inputs": [],
      "name": "notRegistered",
      "type": "error"
    },
    {
      "inputs": [],
      "name": "notValidator",
      "type": "error"
    },
    {
      "inputs": [],
      "name": "wrongStep",
      "type": "error"
    },
    {
      "anonymous": false,
      "inputs": [
        {
          "indexed": false,
          "internalType": "address",
          "name": "",
          "type": "address"
        },
        {
          "indexed": false,
          "internalType": "string",
          "name": "",
          "type": "string"
        },
        {
          "indexed": false,
          "internalType": "string",
          "name": "",
          "type": "string"
        }
      ],
      "name": "newBet",
      "type": "event"
    },
    {
      "anonymous": false,
      "inputs": [
        {
          "indexed": false,
          "internalType": "address",
          "name": "",
          "type": "address"
        }
      ],
      "name": "startCount",
      "type": "event"
    },
    {
      "anonymous": false,
      "inputs": [
        {
          "indexed": false,
          "internalType": "address",
          "name": "",
          "type": "address"
        }
      ],
      "name": "startValidation",
      "type": "event"
    },
    {
      "stateMutability": "payable",
      "type": "fallback"
    },
    {
      "inputs": [
        {
          "internalType": "address",
          "name": "",
          "type": "address"
        }
      ],
      "name": "betList",
      "outputs": [
        {
          "internalType": "uint256",
          "name": "validationNumber",
          "type": "uint256"
        },
        {
          "internalType": "string",
          "name": "compName1",
          "type": "string"
        },
        {
          "internalType": "string",
          "name": "compName2",
          "type": "string"
        },
        {
          "internalType": "address",
          "name": "owner",
          "type": "address"
        },
        {
          "internalType": "uint256",
          "name": "voteCount",
          "type": "uint256"
        },
        {
          "internalType": "uint256",
          "name": "comp1VoteCount",
          "type": "uint256"
        },
        {
          "internalType": "uint256",
          "name": "comp2VoteCount",
          "type": "uint256"
        },
        {
          "internalType": "enum BetWaveOrganizer.BetStatus",
          "name": "betStatus",
          "type": "uint8"
        }
      ],
      "stateMutability": "view",
      "type": "function"
    },
    {
      "inputs": [
        {
          "internalType": "string",
          "name": "_compName1",
          "type": "string"
        },
        {
          "internalType": "string",
          "name": "_compName2",
          "type": "string"
        }
      ],
      "name": "deployNewBet",
      "outputs": [],
      "stateMutability": "nonpayable",
      "type": "function"
    },
    {
      "inputs": [
        {
          "internalType": "address",
          "name": "_betAddress",
          "type": "address"
        }
      ],
      "name": "getBetValidatorsResult",
      "outputs": [
        {
          "internalType": "uint256",
          "name": "",
          "type": "uint256"
        }
      ],
      "stateMutability": "view",
      "type": "function"
    },
    {
      "inputs": [
        {
          "internalType": "address",
          "name": "_betAddress",
          "type": "address"
        },
        {
          "internalType": "uint256",
          "name": "_id",
          "type": "uint256"
        }
      ],
      "name": "getvalidatorAddress",
      "outputs": [
        {
          "internalType": "address",
          "name": "",
          "type": "address"
        }
      ],
      "stateMutability": "view",
      "type": "function"
    },
    {
      "inputs": [
        {
          "internalType": "uint256",
          "name": "_compId",
          "type": "uint256"
        },
        {
          "internalType": "address",
          "name": "_betAddress",
          "type": "address"
        }
      ],
      "name": "setBetVote",
      "outputs": [],
      "stateMutability": "nonpayable",
      "type": "function"
    },
    {
      "inputs": [
        {
          "internalType": "address",
          "name": "_betAddress",
          "type": "address"
        }
      ],
      "name": "startBetValidation",
      "outputs": [],
      "stateMutability": "nonpayable",
      "type": "function"
    },
    {
      "inputs": [
        {
          "internalType": "address",
          "name": "_betAddress",
          "type": "address"
        }
      ],
      "name": "tallyVote",
      "outputs": [],
      "stateMutability": "nonpayable",
      "type": "function"
    },
    {
      "stateMutability": "payable",
      "type": "receive"
    }
  ],
  "bytecode": "0x60806040526040518060400160405280600881526020017f616c626174726f73000000000000000000000000000000000000000000000000815250600090816200004a919062000332565b506040516200540c3803806200540c833981810160405281019062000070919062000483565b80600260006101000a81548173ffffffffffffffffffffffffffffffffffffffff021916908373ffffffffffffffffffffffffffffffffffffffff16021790555050620004b5565b600081519050919050565b7f4e487b7100000000000000000000000000000000000000000000000000000000600052604160045260246000fd5b7f4e487b7100000000000000000000000000000000000000000000000000000000600052602260045260246000fd5b600060028204905060018216806200013a57607f821691505b60208210810362000150576200014f620000f2565b5b50919050565b60008190508160005260206000209050919050565b60006020601f8301049050919050565b600082821b905092915050565b600060088302620001ba7fffffffffffffffffffffffffffffffffffffffffffffffffffffffffffffffff826200017b565b620001c686836200017b565b95508019841693508086168417925050509392505050565b6000819050919050565b6000819050919050565b6000620002136200020d6200020784620001de565b620001e8565b620001de565b9050919050565b6000819050919050565b6200022f83620001f2565b620002476200023e826200021a565b84845462000188565b825550505050565b600090565b6200025e6200024f565b6200026b81848462000224565b505050565b5b8181101562000293576200028760008262000254565b60018101905062000271565b5050565b601f821115620002e257620002ac8162000156565b620002b7846200016b565b81016020851015620002c7578190505b620002df620002d6856200016b565b83018262000270565b50505b505050565b600082821c905092915050565b60006200030760001984600802620002e7565b1980831691505092915050565b6000620003228383620002f4565b9150826002028217905092915050565b6200033d82620000b8565b67ffffffffffffffff811115620003595762000358620000c3565b5b62000365825462000121565b6200037282828562000297565b600060209050601f831160018114620003aa576000841562000395578287015190505b620003a1858262000314565b86555062000411565b601f198416620003ba8662000156565b60005b82811015620003e457848901518255600182019150602085019450602081019050620003bd565b8683101562000404578489015162000400601f891682620002f4565b8355505b6001600288020188555050505b505050505050565b600080fd5b600073ffffffffffffffffffffffffffffffffffffffff82169050919050565b60006200044b826200041e565b9050919050565b6200045d816200043e565b81146200046957600080fd5b50565b6000815190506200047d8162000452565b92915050565b6000602082840312156200049c576200049b62000419565b5b6000620004ac848285016200046c565b91505092915050565b614f4780620004c56000396000f3fe6080604052600436106200007f5760003560e01c8063a5f9b6431162000055578063a5f9b64314620001b7578063cef84a6214620001e5578063ee9c03621462000230578063fd3393fe146200027457620000cf565b8063411786511462000117578063458f6f6f14620001455780639aa7ca42146200018957620000cf565b36620000cf5761c350341015620000cd576040517f08c379a0000000000000000000000000000000000000000000000000000000008152600401620000c49062001ebb565b60405180910390fd5b005b6040518060400160405280601e81526020017f46616c6c6261636b2066756e6374696f6e2069732065786563757465642100008152506000908162000115919062002157565b005b3480156200012457600080fd5b506200014360048036038101906200013d9190620022e8565b620002a2565b005b3480156200015257600080fd5b506200017160048036038101906200016b91906200232f565b62000a08565b60405162000180919062002387565b60405180910390f35b3480156200019657600080fd5b50620001b56004803603810190620001af9190620023a4565b62000a94565b005b348015620001c457600080fd5b50620001e36004803603810190620001dd919062002509565b62001005565b005b348015620001f257600080fd5b506200021160048036038101906200020b9190620023a4565b62001486565b604051620002279897969594939291906200268c565b60405180910390f35b3480156200023d57600080fd5b506200025c6004803603810190620002569190620023a4565b6200161b565b6040516200026b919062002728565b60405180910390f35b3480156200028157600080fd5b50620002a060048036038101906200029a9190620023a4565b620016a4565b005b600181816003811115620002bb57620002ba6200260c565b5b600160008373ffffffffffffffffffffffffffffffffffffffff1673ffffffffffffffffffffffffffffffffffffffff16815260200190815260200160002060090160009054906101000a900460ff16600381111562000320576200031f6200260c565b5b1462000358576040517f248d543200000000000000000000000000000000000000000000000000000000815260040160405180910390fd5b600284106200039e576040517f08c379a0000000000000000000000000000000000000000000000000000000008152600401620003959062002795565b60405180910390fd5b6000600260009054906101000a900473ffffffffffffffffffffffffffffffffffffffff1673ffffffffffffffffffffffffffffffffffffffff1663fa52c7d8336040518263ffffffff1660e01b8152600401620003fd919062002387565b606060405180830381865afa1580156200041b573d6000803e3d6000fd5b505050506040513d601f19601f8201168201806040525081019062000441919062002850565b505090503373ffffffffffffffffffffffffffffffffffffffff168173ffffffffffffffffffffffffffffffffffffffff1614620004ab576040517fec752d2a00000000000000000000000000000000000000000000000000000000815260040160405180910390fd5b600085036200069657600160008573ffffffffffffffffffffffffffffffffffffffff1673ffffffffffffffffffffffffffffffffffffffff16815260200190815260200160002060070160008154809291906200050990620028db565b9190505550600160008573ffffffffffffffffffffffffffffffffffffffff1673ffffffffffffffffffffffffffffffffffffffff16815260200190815260200160002060060160008154809291906200056390620028db565b91905055506000600160008673ffffffffffffffffffffffffffffffffffffffff1673ffffffffffffffffffffffffffffffffffffffff16815260200190815260200160002060040160003373ffffffffffffffffffffffffffffffffffffffff1673ffffffffffffffffffffffffffffffffffffffff16815260200190815260200160002081905550600160008573ffffffffffffffffffffffffffffffffffffffff1673ffffffffffffffffffffffffffffffffffffffff168152602001908152602001600020600501339080600181540180825580915050600190039060005260206000200160009091909190916101000a81548173ffffffffffffffffffffffffffffffffffffffff021916908373ffffffffffffffffffffffffffffffffffffffff1602179055506200087c565b600185036200087b57600160008573ffffffffffffffffffffffffffffffffffffffff1673ffffffffffffffffffffffffffffffffffffffff1681526020019081526020016000206008016000815480929190620006f490620028db565b9190505550600160008573ffffffffffffffffffffffffffffffffffffffff1673ffffffffffffffffffffffffffffffffffffffff16815260200190815260200160002060060160008154809291906200074e90620028db565b919050555060018060008673ffffffffffffffffffffffffffffffffffffffff1673ffffffffffffffffffffffffffffffffffffffff16815260200190815260200160002060040160003373ffffffffffffffffffffffffffffffffffffffff1673ffffffffffffffffffffffffffffffffffffffff16815260200190815260200160002081905550600160008573ffffffffffffffffffffffffffffffffffffffff1673ffffffffffffffffffffffffffffffffffffffff168152602001908152602001600020600501339080600181540180825580915050600190039060005260206000200160009091909190916101000a81548173ffffffffffffffffffffffffffffffffffffffff021916908373ffffffffffffffffffffffffffffffffffffffff1602179055505b5b600260009054906101000a900473ffffffffffffffffffffffffffffffffffffffff1673ffffffffffffffffffffffffffffffffffffffff166353db7e776040518163ffffffff1660e01b8152600401602060405180830381865afa158015620008ea573d6000803e3d6000fd5b505050506040513d601f19601f8201168201806040525081019062000910919062002928565b600160008673ffffffffffffffffffffffffffffffffffffffff1673ffffffffffffffffffffffffffffffffffffffff168152602001908152602001600020600601541062000a01576002600160008673ffffffffffffffffffffffffffffffffffffffff1673ffffffffffffffffffffffffffffffffffffffff16815260200190815260200160002060090160006101000a81548160ff02191690836003811115620009c257620009c16200260c565b5b02179055507fc7e162d919b6b9aab852a8c03449630d12cd29ba4c4219786db08ee9d51c9b6084604051620009f8919062002387565b60405180910390a15b5050505050565b6000600160008473ffffffffffffffffffffffffffffffffffffffff1673ffffffffffffffffffffffffffffffffffffffff168152602001908152602001600020600501828154811062000a615762000a606200295a565b5b9060005260206000200160009054906101000a900473ffffffffffffffffffffffffffffffffffffffff16905092915050565b803373ffffffffffffffffffffffffffffffffffffffff16600160008373ffffffffffffffffffffffffffffffffffffffff1673ffffffffffffffffffffffffffffffffffffffff16815260200190815260200160002060030160009054906101000a900473ffffffffffffffffffffffffffffffffffffffff1673ffffffffffffffffffffffffffffffffffffffff161462000b5d576040517f251c9d6300000000000000000000000000000000000000000000000000000000815260040160405180910390fd5b60028281600381111562000b765762000b756200260c565b5b600160008373ffffffffffffffffffffffffffffffffffffffff1673ffffffffffffffffffffffffffffffffffffffff16815260200190815260200160002060090160009054906101000a900460ff16600381111562000bdb5762000bda6200260c565b5b1462000c13576040517f248d543200000000000000000000000000000000000000000000000000000000815260040160405180910390fd5b6000600160008673ffffffffffffffffffffffffffffffffffffffff1673ffffffffffffffffffffffffffffffffffffffff16815260200190815260200160002060080154600160008773ffffffffffffffffffffffffffffffffffffffff1673ffffffffffffffffffffffffffffffffffffffff16815260200190815260200160002060070154111562000df057600260009054906101000a900473ffffffffffffffffffffffffffffffffffffffff1673ffffffffffffffffffffffffffffffffffffffff16630b85000d6040518163ffffffff1660e01b8152600401602060405180830381865afa15801562000d10573d6000803e3d6000fd5b505050506040513d601f19601f8201168201806040525081019062000d36919062002928565b600160008773ffffffffffffffffffffffffffffffffffffffff1673ffffffffffffffffffffffffffffffffffffffff168152602001908152602001600020600601546064600160008973ffffffffffffffffffffffffffffffffffffffff1673ffffffffffffffffffffffffffffffffffffffff1681526020019081526020016000206007015462000dca919062002989565b62000dd6919062002a03565b1062000dea5762000de9856000620018cf565b5b62000ffe565b600160008673ffffffffffffffffffffffffffffffffffffffff1673ffffffffffffffffffffffffffffffffffffffff16815260200190815260200160002060080154600160008773ffffffffffffffffffffffffffffffffffffffff1673ffffffffffffffffffffffffffffffffffffffff16815260200190815260200160002060070154101562000fcb57600260009054906101000a900473ffffffffffffffffffffffffffffffffffffffff1673ffffffffffffffffffffffffffffffffffffffff16630b85000d6040518163ffffffff1660e01b8152600401602060405180830381865afa15801562000eeb573d6000803e3d6000fd5b505050506040513d601f19601f8201168201806040525081019062000f11919062002928565b600160008773ffffffffffffffffffffffffffffffffffffffff1673ffffffffffffffffffffffffffffffffffffffff168152602001908152602001600020600601546064600160008973ffffffffffffffffffffffffffffffffffffffff1673ffffffffffffffffffffffffffffffffffffffff1681526020019081526020016000206008015462000fa5919062002989565b62000fb1919062002a03565b1062000fc55762000fc4856001620018cf565b5b62000ffd565b6040517fbc7316f200000000000000000000000000000000000000000000000000000000815260040160405180910390fd5b5b5050505050565b6000600260009054906101000a900473ffffffffffffffffffffffffffffffffffffffff1673ffffffffffffffffffffffffffffffffffffffff16630b4805d3336040518263ffffffff1660e01b815260040162001064919062002387565b602060405180830381865afa15801562001082573d6000803e3d6000fd5b505050506040513d601f19601f82011682018060405250810190620010a8919062002928565b03620010e0576040517f3a70817d00000000000000000000000000000000000000000000000000000000815260040160405180910390fd5b600260009054906101000a900473ffffffffffffffffffffffffffffffffffffffff1673ffffffffffffffffffffffffffffffffffffffff166353db7e776040518163ffffffff1660e01b8152600401602060405180830381865afa1580156200114e573d6000803e3d6000fd5b505050506040513d601f19601f8201168201806040525081019062001174919062002928565b600260009054906101000a900473ffffffffffffffffffffffffffffffffffffffff1673ffffffffffffffffffffffffffffffffffffffff1663139f29a16040518163ffffffff1660e01b8152600401602060405180830381865afa158015620011e2573d6000803e3d6000fd5b505050506040513d601f19601f8201168201806040525081019062001208919062002928565b10156200124c576040517f08c379a0000000000000000000000000000000000000000000000000000000008152600401620012439062002a8b565b60405180910390fd5b6000828230600260009054906101000a900473ffffffffffffffffffffffffffffffffffffffff16604051620012829062001e4c565b62001291949392919062002aad565b604051809103906000f080158015620012ae573d6000803e3d6000fd5b50905082600160008373ffffffffffffffffffffffffffffffffffffffff1673ffffffffffffffffffffffffffffffffffffffff168152602001908152602001600020600101908162001302919062002157565b5081600160008373ffffffffffffffffffffffffffffffffffffffff1673ffffffffffffffffffffffffffffffffffffffff168152602001908152602001600020600201908162001354919062002157565b5033600160008373ffffffffffffffffffffffffffffffffffffffff1673ffffffffffffffffffffffffffffffffffffffff16815260200190815260200160002060030160006101000a81548173ffffffffffffffffffffffffffffffffffffffff021916908373ffffffffffffffffffffffffffffffffffffffff1602179055506000600160008373ffffffffffffffffffffffffffffffffffffffff1673ffffffffffffffffffffffffffffffffffffffff16815260200190815260200160002060090160006101000a81548160ff021916908360038111156200143f576200143e6200260c565b5b02179055507f909e36e1d400e483a06621ce59ea23139b7a5c694c10b1e889d0e79ce49922f2818484604051620014799392919062002b08565b60405180910390a1505050565b6001602052806000526040600020600091509050806000015490806001018054620014b19062001f46565b80601f0160208091040260200160405190810160405280929190818152602001828054620014df9062001f46565b8015620015305780601f10620015045761010080835404028352916020019162001530565b820191906000526020600020905b8154815290600101906020018083116200151257829003601f168201915b505050505090806002018054620015479062001f46565b80601f0160208091040260200160405190810160405280929190818152602001828054620015759062001f46565b8015620015c65780601f106200159a57610100808354040283529160200191620015c6565b820191906000526020600020905b815481529060010190602001808311620015a857829003601f168201915b5050505050908060030160009054906101000a900473ffffffffffffffffffffffffffffffffffffffff16908060060154908060070154908060080154908060090160009054906101000a900460ff16905088565b6000600160008373ffffffffffffffffffffffffffffffffffffffff1673ffffffffffffffffffffffffffffffffffffffff16815260200190815260200160002060040160003373ffffffffffffffffffffffffffffffffffffffff1673ffffffffffffffffffffffffffffffffffffffff168152602001908152602001600020549050919050565b803373ffffffffffffffffffffffffffffffffffffffff16600160008373ffffffffffffffffffffffffffffffffffffffff1673ffffffffffffffffffffffffffffffffffffffff16815260200190815260200160002060030160009054906101000a900473ffffffffffffffffffffffffffffffffffffffff1673ffffffffffffffffffffffffffffffffffffffff16146200176d576040517f251c9d6300000000000000000000000000000000000000000000000000000000815260040160405180910390fd5b6000828160038111156200178657620017856200260c565b5b600160008373ffffffffffffffffffffffffffffffffffffffff1673ffffffffffffffffffffffffffffffffffffffff16815260200190815260200160002060090160009054906101000a900460ff166003811115620017eb57620017ea6200260c565b5b1462001823576040517f248d543200000000000000000000000000000000000000000000000000000000815260040160405180910390fd5b60018060008673ffffffffffffffffffffffffffffffffffffffff1673ffffffffffffffffffffffffffffffffffffffff16815260200190815260200160002060090160006101000a81548160ff021916908360038111156200188b576200188a6200260c565b5b02179055507f8ebce6dadff954899922e37e6884f44f19ef94b282a760a548c170743cc892e184604051620018c1919062002387565b60405180910390a150505050565b8173ffffffffffffffffffffffffffffffffffffffff16631df79b65600260009054906101000a900473ffffffffffffffffffffffffffffffffffffffff1673ffffffffffffffffffffffffffffffffffffffff1663194a4e7e6040518163ffffffff1660e01b8152600401602060405180830381865afa15801562001959573d6000803e3d6000fd5b505050506040513d601f19601f820116820180604052508101906200197f919062002928565b600260009054906101000a900473ffffffffffffffffffffffffffffffffffffffff1673ffffffffffffffffffffffffffffffffffffffff16636694ba616040518163ffffffff1660e01b8152600401602060405180830381865afa158015620019ed573d6000803e3d6000fd5b505050506040513d601f19601f8201168201806040525081019062001a13919062002928565b6040518363ffffffff1660e01b815260040162001a3292919062002b53565b600060405180830381600087803b15801562001a4d57600080fd5b505af115801562001a62573d6000803e3d6000fd5b5050505060008273ffffffffffffffffffffffffffffffffffffffff1663ebfb6652600260009054906101000a900473ffffffffffffffffffffffffffffffffffffffff1673ffffffffffffffffffffffffffffffffffffffff166372e24fdd6040518163ffffffff1660e01b8152600401602060405180830381865afa15801562001af2573d6000803e3d6000fd5b505050506040513d601f19601f8201168201806040525081019062001b18919062002928565b6040518263ffffffff1660e01b815260040162001b36919062002728565b602060405180830381865afa15801562001b54573d6000803e3d6000fd5b505050506040513d601f19601f8201168201806040525081019062001b7a919062002928565b905060005b600160008573ffffffffffffffffffffffffffffffffffffffff1673ffffffffffffffffffffffffffffffffffffffff1681526020019081526020016000206005018054905081101562001de45782600160008673ffffffffffffffffffffffffffffffffffffffff1673ffffffffffffffffffffffffffffffffffffffff1681526020019081526020016000206004016000600160008873ffffffffffffffffffffffffffffffffffffffff1673ffffffffffffffffffffffffffffffffffffffff168152602001908152602001600020600501848154811062001c695762001c686200295a565b5b9060005260206000200160009054906101000a900473ffffffffffffffffffffffffffffffffffffffff1673ffffffffffffffffffffffffffffffffffffffff1673ffffffffffffffffffffffffffffffffffffffff168152602001908152602001600020540362001dcd578373ffffffffffffffffffffffffffffffffffffffff1663cf959429600160008773ffffffffffffffffffffffffffffffffffffffff1673ffffffffffffffffffffffffffffffffffffffff168152602001908152602001600020600501838154811062001d485762001d476200295a565b5b9060005260206000200160009054906101000a900473ffffffffffffffffffffffffffffffffffffffff16846040518363ffffffff1660e01b815260040162001d9392919062002b80565b600060405180830381600087803b15801562001dae57600080fd5b505af115801562001dc3573d6000803e3d6000fd5b5050505062001dce565b5b808062001ddb90620028db565b91505062001b7f565b508273ffffffffffffffffffffffffffffffffffffffff1663a99073ae6040518163ffffffff1660e01b8152600401600060405180830381600087803b15801562001e2e57600080fd5b505af115801562001e43573d6000803e3d6000fd5b50505050505050565b6123648062002bae83390190565b600082825260208201905092915050565b7f796f752063616e27742073656e64206c657373207468616e2035306b20776569600082015250565b600062001ea360208362001e5a565b915062001eb08262001e6b565b602082019050919050565b6000602082019050818103600083015262001ed68162001e94565b9050919050565b600081519050919050565b7f4e487b7100000000000000000000000000000000000000000000000000000000600052604160045260246000fd5b7f4e487b7100000000000000000000000000000000000000000000000000000000600052602260045260246000fd5b6000600282049050600182168062001f5f57607f821691505b60208210810362001f755762001f7462001f17565b5b50919050565b60008190508160005260206000209050919050565b60006020601f8301049050919050565b600082821b905092915050565b60006008830262001fdf7fffffffffffffffffffffffffffffffffffffffffffffffffffffffffffffffff8262001fa0565b62001feb868362001fa0565b95508019841693508086168417925050509392505050565b6000819050919050565b6000819050919050565b600062002038620020326200202c8462002003565b6200200d565b62002003565b9050919050565b6000819050919050565b620020548362002017565b6200206c62002063826200203f565b84845462001fad565b825550505050565b600090565b6200208362002074565b6200209081848462002049565b505050565b5b81811015620020b857620020ac60008262002079565b60018101905062002096565b5050565b601f8211156200210757620020d18162001f7b565b620020dc8462001f90565b81016020851015620020ec578190505b62002104620020fb8562001f90565b83018262002095565b50505b505050565b600082821c905092915050565b60006200212c600019846008026200210c565b1980831691505092915050565b600062002147838362002119565b9150826002028217905092915050565b620021628262001edd565b67ffffffffffffffff8111156200217e576200217d62001ee8565b5b6200218a825462001f46565b62002197828285620020bc565b600060209050601f831160018114620021cf5760008415620021ba578287015190505b620021c6858262002139565b86555062002236565b601f198416620021df8662001f7b565b60005b828110156200220957848901518255600182019150602085019450602081019050620021e2565b8683101562002229578489015162002225601f89168262002119565b8355505b6001600288020188555050505b505050505050565b6000604051905090565b600080fd5b600080fd5b6200225d8162002003565b81146200226957600080fd5b50565b6000813590506200227d8162002252565b92915050565b600073ffffffffffffffffffffffffffffffffffffffff82169050919050565b6000620022b08262002283565b9050919050565b620022c281620022a3565b8114620022ce57600080fd5b50565b600081359050620022e281620022b7565b92915050565b6000806040838503121562002302576200230162002248565b5b600062002312858286016200226c565b92505060206200232585828601620022d1565b9150509250929050565b6000806040838503121562002349576200234862002248565b5b60006200235985828601620022d1565b92505060206200236c858286016200226c565b9150509250929050565b6200238181620022a3565b82525050565b60006020820190506200239e600083018462002376565b92915050565b600060208284031215620023bd57620023bc62002248565b5b6000620023cd84828501620022d1565b91505092915050565b600080fd5b600080fd5b6000601f19601f8301169050919050565b620023fc82620023e0565b810181811067ffffffffffffffff821117156200241e576200241d62001ee8565b5b80604052505050565b6000620024336200223e565b9050620024418282620023f1565b919050565b600067ffffffffffffffff82111562002464576200246362001ee8565b5b6200246f82620023e0565b9050602081019050919050565b82818337600083830152505050565b6000620024a26200249c8462002446565b62002427565b905082815260208101848484011115620024c157620024c0620023db565b5b620024ce8482856200247c565b509392505050565b600082601f830112620024ee57620024ed620023d6565b5b8135620025008482602086016200248b565b91505092915050565b6000806040838503121562002523576200252262002248565b5b600083013567ffffffffffffffff8111156200254457620025436200224d565b5b6200255285828601620024d6565b925050602083013567ffffffffffffffff8111156200257657620025756200224d565b5b6200258485828601620024d6565b9150509250929050565b620025998162002003565b82525050565b60005b83811015620025bf578082015181840152602081019050620025a2565b60008484015250505050565b6000620025d88262001edd565b620025e4818562001e5a565b9350620025f68185602086016200259f565b6200260181620023e0565b840191505092915050565b7f4e487b7100000000000000000000000000000000000000000000000000000000600052602160045260246000fd5b600481106200264f576200264e6200260c565b5b50565b600081905062002662826200263b565b919050565b6000620026748262002652565b9050919050565b620026868162002667565b82525050565b600061010082019050620026a4600083018b6200258e565b8181036020830152620026b8818a620025cb565b90508181036040830152620026ce8189620025cb565b9050620026df606083018862002376565b620026ee60808301876200258e565b620026fd60a08301866200258e565b6200270c60c08301856200258e565b6200271b60e08301846200267b565b9998505050505050505050565b60006020820190506200273f60008301846200258e565b92915050565b7f756e6578697374696e6720636f6d70657469746f727300000000000000000000600082015250565b60006200277d60168362001e5a565b91506200278a8262002745565b602082019050919050565b60006020820190508181036000830152620027b0816200276e565b9050919050565b6000620027c48262002283565b9050919050565b620027d681620027b7565b8114620027e257600080fd5b50565b600081519050620027f681620027cb565b92915050565b60008115159050919050565b6200281381620027fc565b81146200281f57600080fd5b50565b600081519050620028338162002808565b92915050565b6000815190506200284a8162002252565b92915050565b6000806000606084860312156200286c576200286b62002248565b5b60006200287c86828701620027e5565b93505060206200288f8682870162002822565b9250506040620028a28682870162002839565b9150509250925092565b7f4e487b7100000000000000000000000000000000000000000000000000000000600052601160045260246000fd5b6000620028e88262002003565b91507fffffffffffffffffffffffffffffffffffffffffffffffffffffffffffffffff82036200291d576200291c620028ac565b5b600182019050919050565b60006020828403121562002941576200294062002248565b5b6000620029518482850162002839565b91505092915050565b7f4e487b7100000000000000000000000000000000000000000000000000000000600052603260045260246000fd5b6000620029968262002003565b9150620029a38362002003565b9250828202620029b38162002003565b91508282048414831517620029cd57620029cc620028ac565b5b5092915050565b7f4e487b7100000000000000000000000000000000000000000000000000000000600052601260045260246000fd5b600062002a108262002003565b915062002a1d8362002003565b92508262002a305762002a2f620029d4565b5b828204905092915050565b7f6e6f7420656e6f7567682076616c696461746f72000000000000000000000000600082015250565b600062002a7360148362001e5a565b915062002a808262002a3b565b602082019050919050565b6000602082019050818103600083015262002aa68162002a64565b9050919050565b6000608082019050818103600083015262002ac98187620025cb565b9050818103602083015262002adf8186620025cb565b905062002af0604083018562002376565b62002aff606083018462002376565b95945050505050565b600060608201905062002b1f600083018662002376565b818103602083015262002b338185620025cb565b9050818103604083015262002b498184620025cb565b9050949350505050565b600060408201905062002b6a60008301856200258e565b62002b7960208301846200258e565b9392505050565b600060408201905062002b97600083018562002376565b62002ba660208301846200258e565b939250505056fe6080604052604051620023643803806200236483398181016040528101906200002991906200037c565b81600260006101000a81548173ffffffffffffffffffffffffffffffffffffffff021916908373ffffffffffffffffffffffffffffffffffffffff16021790555080600360006101000a81548173ffffffffffffffffffffffffffffffffffffffff021916908373ffffffffffffffffffffffffffffffffffffffff16021790555083600960008081526020019081526020016000206000019081620000d0919062000677565b508260096000600181526020019081526020016000206000019081620000f7919062000677565b5081600b60006101000a81548173ffffffffffffffffffffffffffffffffffffffff021916908373ffffffffffffffffffffffffffffffffffffffff16021790555080600c60006101000a81548173ffffffffffffffffffffffffffffffffffffffff021916908373ffffffffffffffffffffffffffffffffffffffff160217905550505050506200075e565b6000604051905090565b600080fd5b600080fd5b600080fd5b600080fd5b6000601f19601f8301169050919050565b7f4e487b7100000000000000000000000000000000000000000000000000000000600052604160045260246000fd5b620001ed82620001a2565b810181811067ffffffffffffffff821117156200020f576200020e620001b3565b5b80604052505050565b60006200022462000184565b9050620002328282620001e2565b919050565b600067ffffffffffffffff821115620002555762000254620001b3565b5b6200026082620001a2565b9050602081019050919050565b60005b838110156200028d57808201518184015260208101905062000270565b60008484015250505050565b6000620002b0620002aa8462000237565b62000218565b905082815260208101848484011115620002cf57620002ce6200019d565b5b620002dc8482856200026d565b509392505050565b600082601f830112620002fc57620002fb62000198565b5b81516200030e84826020860162000299565b91505092915050565b600073ffffffffffffffffffffffffffffffffffffffff82169050919050565b6000620003448262000317565b9050919050565b620003568162000337565b81146200036257600080fd5b50565b60008151905062000376816200034b565b92915050565b600080600080608085870312156200039957620003986200018e565b5b600085015167ffffffffffffffff811115620003ba57620003b962000193565b5b620003c887828801620002e4565b945050602085015167ffffffffffffffff811115620003ec57620003eb62000193565b5b620003fa87828801620002e4565b93505060406200040d8782880162000365565b9250506060620004208782880162000365565b91505092959194509250565b600081519050919050565b7f4e487b7100000000000000000000000000000000000000000000000000000000600052602260045260246000fd5b600060028204905060018216806200047f57607f821691505b60208210810362000495576200049462000437565b5b50919050565b60008190508160005260206000209050919050565b60006020601f8301049050919050565b600082821b905092915050565b600060088302620004ff7fffffffffffffffffffffffffffffffffffffffffffffffffffffffffffffffff82620004c0565b6200050b8683620004c0565b95508019841693508086168417925050509392505050565b6000819050919050565b6000819050919050565b600062000558620005526200054c8462000523565b6200052d565b62000523565b9050919050565b6000819050919050565b620005748362000537565b6200058c62000583826200055f565b848454620004cd565b825550505050565b600090565b620005a362000594565b620005b081848462000569565b505050565b5b81811015620005d857620005cc60008262000599565b600181019050620005b6565b5050565b601f8211156200062757620005f1816200049b565b620005fc84620004b0565b810160208510156200060c578190505b620006246200061b85620004b0565b830182620005b5565b50505b505050565b600082821c905092915050565b60006200064c600019846008026200062c565b1980831691505092915050565b600062000667838362000639565b9150826002028217905092915050565b62000682826200042c565b67ffffffffffffffff8111156200069e576200069d620001b3565b5b620006aa825462000466565b620006b7828285620005dc565b600060209050601f831160018114620006ef5760008415620006da578287015190505b620006e6858262000659565b86555062000756565b601f198416620006ff866200049b565b60005b82811015620007295784890151825560018201915060208501945060208101905062000702565b8683101562000749578489015162000745601f89168262000639565b8355505b6001600288020188555050505b505050505050565b611bf6806200076e6000396000f3fe6080604052600436106100e15760003560e01c8063ad05d9c31161007f578063d93e03b011610059578063d93e03b014610350578063e8399cc61461037b578063ebfb665214610397578063fe5e1853146103d45761016b565b8063ad05d9c3146102f2578063c6073c66146102fc578063cf959429146103275761016b565b80639d86801f116100bb5780639d86801f14610245578063a14de02814610285578063a32b3487146102b0578063a99073ae146102db5761016b565b80631df79b65146101b157806322010c1f146101da5780636f9fb98a1461021a5761016b565b3661016b57640b68a0aa003411610124576040517f78e9f1ba00000000000000000000000000000000000000000000000000000000815260040160405180910390fd5b61c350341015610169576040517f08c379a0000000000000000000000000000000000000000000000000000000008152600401610160906111aa565b60405180910390fd5b005b6040518060400160405280601e81526020017f46616c6c6261636b2066756e6374696f6e206973206578656375746564210000815250600090816101af919061141a565b005b3480156101bd57600080fd5b506101d860048036038101906101d3919061151d565b6103ff565b005b3480156101e657600080fd5b5061020160048036038101906101fc91906115bb565b61059b565b6040516102119493929190611618565b60405180910390f35b34801561022657600080fd5b5061022f6105eb565b60405161023c919061165d565b60405180910390f35b34801561025157600080fd5b5061026c60048036038101906102679190611678565b6105f3565b60405161027c9493929190611719565b60405180910390f35b34801561029157600080fd5b5061029a6106ab565b6040516102a7919061165d565b60405180910390f35b3480156102bc57600080fd5b506102c56106b1565b6040516102d2919061165d565b60405180910390f35b3480156102e757600080fd5b506102f06106b7565b005b6102fa610763565b005b34801561030857600080fd5b5061031161096e565b60405161031e9190611774565b60405180910390f35b34801561033357600080fd5b5061034e6004803603810190610349919061178f565b610994565b005b34801561035c57600080fd5b50610365610a63565b6040516103729190611774565b60405180910390f35b61039560048036038101906103909190611678565b610a89565b005b3480156103a357600080fd5b506103be60048036038101906103b99190611678565b610d96565b6040516103cb919061165d565b60405180910390f35b3480156103e057600080fd5b506103e9610e6b565b6040516103f6919061165d565b60405180910390f35b60004711610439576040517f47108e3e00000000000000000000000000000000000000000000000000000000815260040160405180910390fd5b600b60009054906101000a900473ffffffffffffffffffffffffffffffffffffffff1673ffffffffffffffffffffffffffffffffffffffff163373ffffffffffffffffffffffffffffffffffffffff16146104c0576040517f8679b0c000000000000000000000000000000000000000000000000000000000815260040160405180910390fd5b600c60149054906101000a900460ff1615610510576040517f08c379a00000000000000000000000000000000000000000000000000000000081526004016105079061181b565b60405180910390fd5b600061051a6105eb565b90506000838261052a9190611899565b90506000838361053a9190611899565b9050610568600c60009054906101000a900473ffffffffffffffffffffffffffffffffffffffff1683610e71565b610594600c60009054906101000a900473ffffffffffffffffffffffffffffffffffffffff1682610e71565b5050505050565b600a6020528060005260406000206000915090508060000160009054906101000a900473ffffffffffffffffffffffffffffffffffffffff16908060010154908060020154908060030154905084565b600047905090565b600960205280600052604060002060009150905080600001805461061690611233565b80601f016020809104026020016040519081016040528092919081815260200182805461064290611233565b801561068f5780601f106106645761010080835404028352916020019161068f565b820191906000526020600020905b81548152906001019060200180831161067257829003601f168201915b5050505050908060010154908060020154908060030154905084565b60045481565b60055481565b600b60009054906101000a900473ffffffffffffffffffffffffffffffffffffffff1673ffffffffffffffffffffffffffffffffffffffff163373ffffffffffffffffffffffffffffffffffffffff161461073e576040517f8679b0c000000000000000000000000000000000000000000000000000000000815260040160405180910390fd5b6001600c60146101000a81548160ff021916908315150217905550610761610f25565b565b600c60149054906101000a900460ff166107a9576040517f0541f1f000000000000000000000000000000000000000000000000000000000815260040160405180910390fd5b600c60149054906101000a900460ff166107f8576040517f08c379a00000000000000000000000000000000000000000000000000000000081526004016107ef90611916565b60405180910390fd5b600754600a60003373ffffffffffffffffffffffffffffffffffffffff1673ffffffffffffffffffffffffffffffffffffffff168152602001908152602001600020600101541461087e576040517f08c379a000000000000000000000000000000000000000000000000000000000815260040161087590611982565b60405180910390fd5b6064600854600a60003373ffffffffffffffffffffffffffffffffffffffff1673ffffffffffffffffffffffffffffffffffffffff168152602001908152602001600020600201546108d091906119a2565b6108da9190611899565b600a60003373ffffffffffffffffffffffffffffffffffffffff1673ffffffffffffffffffffffffffffffffffffffff1681526020019081526020016000206003018190555061096c33600a60003373ffffffffffffffffffffffffffffffffffffffff1673ffffffffffffffffffffffffffffffffffffffff16815260200190815260200160002060030154610e71565b565b600b60009054906101000a900473ffffffffffffffffffffffffffffffffffffffff1681565b600b60009054906101000a900473ffffffffffffffffffffffffffffffffffffffff1673ffffffffffffffffffffffffffffffffffffffff163373ffffffffffffffffffffffffffffffffffffffff1614610a1b576040517f8679b0c000000000000000000000000000000000000000000000000000000000815260040160405180910390fd5b60004711610a55576040517f47108e3e00000000000000000000000000000000000000000000000000000000815260040160405180910390fd5b610a5f8282610e71565b5050565b600c60009054906101000a900473ffffffffffffffffffffffffffffffffffffffff1681565b343373ffffffffffffffffffffffffffffffffffffffff16311015610ada576040517f47108e3e00000000000000000000000000000000000000000000000000000000815260040160405180910390fd5b640b68a0aa003411610b18576040517f78e9f1ba00000000000000000000000000000000000000000000000000000000815260040160405180910390fd5b3373ffffffffffffffffffffffffffffffffffffffff16600a60003373ffffffffffffffffffffffffffffffffffffffff1673ffffffffffffffffffffffffffffffffffffffff16815260200190815260200160002060000160009054906101000a900473ffffffffffffffffffffffffffffffffffffffff1673ffffffffffffffffffffffffffffffffffffffff1603610bdf576040517f8424505800000000000000000000000000000000000000000000000000000000815260040160405180910390fd5b6000600360009054906101000a900473ffffffffffffffffffffffffffffffffffffffff1673ffffffffffffffffffffffffffffffffffffffff16630b4805d3336040518263ffffffff1660e01b8152600401610c3c9190611774565b602060405180830381865afa158015610c59573d6000803e3d6000fd5b505050506040513d601f19601f82011682018060405250810190610c7d91906119f9565b03610cb4576040517f3a70817d00000000000000000000000000000000000000000000000000000000815260040160405180910390fd5b6001811115610cf8576040517f08c379a0000000000000000000000000000000000000000000000000000000008152600401610cef90611a72565b60405180910390fd5b610d023034610e71565b60066000815480929190610d1590611a92565b9190505550600960008281526020019081526020016000206002016000815480929190610d4190611a92565b9190505550346009600083815260200190815260200160002060030154610d689190611ada565b6009600083815260200190815260200160002060030181905550610d8a610fa3565b610d938161103b565b50565b6000804711610dd1576040517f47108e3e00000000000000000000000000000000000000000000000000000000815260040160405180910390fd5b600b60009054906101000a900473ffffffffffffffffffffffffffffffffffffffff1673ffffffffffffffffffffffffffffffffffffffff163373ffffffffffffffffffffffffffffffffffffffff1614610e58576040517f8679b0c000000000000000000000000000000000000000000000000000000000815260040160405180910390fd5b8147610e649190611899565b9050919050565b60065481565b6000808373ffffffffffffffffffffffffffffffffffffffff1683604051610e9890611b3f565b60006040518083038185875af1925050503d8060008114610ed5576040519150601f19603f3d011682016040523d82523d6000602084013e610eda565b606091505b509150915081610f1f576040517f08c379a0000000000000000000000000000000000000000000000000000000008152600401610f1690611ba0565b60405180910390fd5b50505050565b600c60149054906101000a900460ff16610f6b576040517f0541f1f000000000000000000000000000000000000000000000000000000000815260040160405180910390fd5b60096000600754815260200190815260200160002060030154606447610f9191906119a2565b610f9b9190611899565b600881905550565b60065460646009600080815260200190815260200160002060020154610fc991906119a2565b610fd39190611899565b6009600080815260200190815260200160002060010181905550600654606460096000600181526020019081526020016000206002015461101491906119a2565b61101e9190611899565b600960006001815260200190815260200160002060010181905550565b33600a60003373ffffffffffffffffffffffffffffffffffffffff1673ffffffffffffffffffffffffffffffffffffffff16815260200190815260200160002060000160006101000a81548173ffffffffffffffffffffffffffffffffffffffff021916908373ffffffffffffffffffffffffffffffffffffffff16021790555080600a60003373ffffffffffffffffffffffffffffffffffffffff1673ffffffffffffffffffffffffffffffffffffffff1681526020019081526020016000206001018190555034600a60003373ffffffffffffffffffffffffffffffffffffffff1673ffffffffffffffffffffffffffffffffffffffff1681526020019081526020016000206002018190555050565b600082825260208201905092915050565b7f796f752063616e27742073656e64206c657373207468616e2035306b20776569600082015250565b600061119460208361114d565b915061119f8261115e565b602082019050919050565b600060208201905081810360008301526111c381611187565b9050919050565b600081519050919050565b7f4e487b7100000000000000000000000000000000000000000000000000000000600052604160045260246000fd5b7f4e487b7100000000000000000000000000000000000000000000000000000000600052602260045260246000fd5b6000600282049050600182168061124b57607f821691505b60208210810361125e5761125d611204565b5b50919050565b60008190508160005260206000209050919050565b60006020601f8301049050919050565b600082821b905092915050565b6000600883026112c67fffffffffffffffffffffffffffffffffffffffffffffffffffffffffffffffff82611289565b6112d08683611289565b95508019841693508086168417925050509392505050565b6000819050919050565b6000819050919050565b600061131761131261130d846112e8565b6112f2565b6112e8565b9050919050565b6000819050919050565b611331836112fc565b61134561133d8261131e565b848454611296565b825550505050565b600090565b61135a61134d565b611365818484611328565b505050565b5b818110156113895761137e600082611352565b60018101905061136b565b5050565b601f8211156113ce5761139f81611264565b6113a884611279565b810160208510156113b7578190505b6113cb6113c385611279565b83018261136a565b50505b505050565b600082821c905092915050565b60006113f1600019846008026113d3565b1980831691505092915050565b600061140a83836113e0565b9150826002028217905092915050565b611423826111ca565b67ffffffffffffffff81111561143c5761143b6111d5565b5b6114468254611233565b61145182828561138d565b600060209050601f8311600181146114845760008415611472578287015190505b61147c85826113fe565b8655506114e4565b601f19841661149286611264565b60005b828110156114ba57848901518255600182019150602085019450602081019050611495565b868310156114d757848901516114d3601f8916826113e0565b8355505b6001600288020188555050505b505050505050565b600080fd5b6114fa816112e8565b811461150557600080fd5b50565b600081359050611517816114f1565b92915050565b60008060408385031215611534576115336114ec565b5b600061154285828601611508565b925050602061155385828601611508565b9150509250929050565b600073ffffffffffffffffffffffffffffffffffffffff82169050919050565b60006115888261155d565b9050919050565b6115988161157d565b81146115a357600080fd5b50565b6000813590506115b58161158f565b92915050565b6000602082840312156115d1576115d06114ec565b5b60006115df848285016115a6565b91505092915050565b60006115f38261155d565b9050919050565b611603816115e8565b82525050565b611612816112e8565b82525050565b600060808201905061162d60008301876115fa565b61163a6020830186611609565b6116476040830185611609565b6116546060830184611609565b95945050505050565b60006020820190506116726000830184611609565b92915050565b60006020828403121561168e5761168d6114ec565b5b600061169c84828501611508565b91505092915050565b60005b838110156116c35780820151818401526020810190506116a8565b60008484015250505050565b6000601f19601f8301169050919050565b60006116eb826111ca565b6116f5818561114d565b93506117058185602086016116a5565b61170e816116cf565b840191505092915050565b6000608082019050818103600083015261173381876116e0565b90506117426020830186611609565b61174f6040830185611609565b61175c6060830184611609565b95945050505050565b61176e8161157d565b82525050565b60006020820190506117896000830184611765565b92915050565b600080604083850312156117a6576117a56114ec565b5b60006117b4858286016115a6565b92505060206117c585828601611508565b9150509250929050565b7f66656520616c7265616479207061696400000000000000000000000000000000600082015250565b600061180560108361114d565b9150611810826117cf565b602082019050919050565b60006020820190508181036000830152611834816117f8565b9050919050565b7f4e487b7100000000000000000000000000000000000000000000000000000000600052601260045260246000fd5b7f4e487b7100000000000000000000000000000000000000000000000000000000600052601160045260246000fd5b60006118a4826112e8565b91506118af836112e8565b9250826118bf576118be61183b565b5b828204905092915050565b7f70617920706c6174666f726d2066656520666972737400000000000000000000600082015250565b600061190060168361114d565b915061190b826118ca565b602082019050919050565b6000602082019050818103600083015261192f816118f3565b9050919050565b7f6e6f206761696e00000000000000000000000000000000000000000000000000600082015250565b600061196c60078361114d565b915061197782611936565b602082019050919050565b6000602082019050818103600083015261199b8161195f565b9050919050565b60006119ad826112e8565b91506119b8836112e8565b92508282026119c6816112e8565b915082820484148315176119dd576119dc61186a565b5b5092915050565b6000815190506119f3816114f1565b92915050565b600060208284031215611a0f57611a0e6114ec565b5b6000611a1d848285016119e4565b91505092915050565b7f636f6d70657469746f7220646f6e277420657869737400000000000000000000600082015250565b6000611a5c60168361114d565b9150611a6782611a26565b602082019050919050565b60006020820190508181036000830152611a8b81611a4f565b9050919050565b6000611a9d826112e8565b91507fffffffffffffffffffffffffffffffffffffffffffffffffffffffffffffffff8203611acf57611ace61186a565b5b600182019050919050565b6000611ae5826112e8565b9150611af0836112e8565b9250828201905080821115611b0857611b0761186a565b5b92915050565b600081905092915050565b50565b6000611b29600083611b0e565b9150611b3482611b19565b600082019050919050565b6000611b4a82611b1c565b9150819050919050565b7f4661696c656420746f2073656e64204574686572000000000000000000000000600082015250565b6000611b8a60148361114d565b9150611b9582611b54565b602082019050919050565b60006020820190508181036000830152611bb981611b7d565b905091905056fea2646970667358221220a8de0595f33aa2c7edabf3807041ad304fbe9c61805fb2e006b44e3e323cbbf164736f6c63430008150033a26469706673582212209de6369cb554abb77b9904bfef42686b3c41091790ff00fb270448fe5d60e1cb64736f6c63430008150033",
  "linkReferences": {},
  "deployedLinkReferences": {}
}