{
  "_format": "hh-sol-artifact-1",
  "contractName": "BetWaveOrganizer",
  "sourceName": "contracts/BetWaveOrganizer.sol",
  "abi": [
    {
      "inputs": [
        {
          "internalType": "address",
          "name": "_betWaveDAOAddress",
          "type": "address"
        }
      ],
      "stateMutability": "payable",
      "type": "constructor"
    },
    {
      "inputs": [],
      "name": "noWinner",
      "type": "error"
    },
    {
      "inputs": [],
      "name": "notOwner",
      "type": "error"
    },
    {
      "inputs": [],
      "name": "notRegistered",
      "type": "error"
    },
    {
      "inputs": [],
      "name": "notValidator",
      "type": "error"
    },
    {
      "inputs": [],
      "name": "wrongStep",
      "type": "error"
    },
    {
      "anonymous": false,
      "inputs": [
        {
          "indexed": false,
          "internalType": "address",
          "name": "",
          "type": "address"
        },
        {
          "indexed": false,
          "internalType": "string",
          "name": "",
          "type": "string"
        },
        {
          "indexed": false,
          "internalType": "string",
          "name": "",
          "type": "string"
        }
      ],
      "name": "newBet",
      "type": "event"
    },
    {
      "anonymous": false,
      "inputs": [
        {
          "indexed": false,
          "internalType": "address",
          "name": "",
          "type": "address"
        }
      ],
      "name": "startCount",
      "type": "event"
    },
    {
      "anonymous": false,
      "inputs": [
        {
          "indexed": false,
          "internalType": "address",
          "name": "",
          "type": "address"
        }
      ],
      "name": "startValidation",
      "type": "event"
    },
    {
      "stateMutability": "payable",
      "type": "fallback"
    },
    {
      "inputs": [
        {
          "internalType": "address",
          "name": "",
          "type": "address"
        }
      ],
      "name": "betList",
      "outputs": [
        {
          "internalType": "string",
          "name": "compName1",
          "type": "string"
        },
        {
          "internalType": "string",
          "name": "compName2",
          "type": "string"
        },
        {
          "internalType": "address",
          "name": "owner",
          "type": "address"
        },
        {
          "internalType": "uint256",
          "name": "voteCount",
          "type": "uint256"
        },
        {
          "internalType": "uint256",
          "name": "comp1VoteCount",
          "type": "uint256"
        },
        {
          "internalType": "uint256",
          "name": "comp2VoteCount",
          "type": "uint256"
        },
        {
          "internalType": "enum BetWaveOrganizer.BetStatus",
          "name": "betStatus",
          "type": "uint8"
        }
      ],
      "stateMutability": "view",
      "type": "function"
    },
    {
      "inputs": [
        {
          "internalType": "string",
          "name": "_compName1",
          "type": "string"
        },
        {
          "internalType": "string",
          "name": "_compName2",
          "type": "string"
        }
      ],
      "name": "deployNewBet",
      "outputs": [],
      "stateMutability": "nonpayable",
      "type": "function"
    },
    {
      "inputs": [
        {
          "internalType": "address",
          "name": "_betAddress",
          "type": "address"
        }
      ],
      "name": "getBetValidatorsResult",
      "outputs": [
        {
          "internalType": "uint256",
          "name": "",
          "type": "uint256"
        }
      ],
      "stateMutability": "view",
      "type": "function"
    },
    {
      "inputs": [
        {
          "internalType": "address",
          "name": "_betAddress",
          "type": "address"
        },
        {
          "internalType": "uint256",
          "name": "_id",
          "type": "uint256"
        }
      ],
      "name": "getvalidatorAddress",
      "outputs": [
        {
          "internalType": "address",
          "name": "",
          "type": "address"
        }
      ],
      "stateMutability": "view",
      "type": "function"
    },
    {
      "inputs": [],
      "name": "lastSimpleBetAddress",
      "outputs": [
        {
          "internalType": "address",
          "name": "",
          "type": "address"
        }
      ],
      "stateMutability": "view",
      "type": "function"
    },
    {
      "inputs": [
        {
          "internalType": "uint256",
          "name": "_compId",
          "type": "uint256"
        },
        {
          "internalType": "address",
          "name": "_betAddress",
          "type": "address"
        }
      ],
      "name": "setBetVote",
      "outputs": [],
      "stateMutability": "nonpayable",
      "type": "function"
    },
    {
      "inputs": [
        {
          "internalType": "address",
          "name": "_betAddress",
          "type": "address"
        }
      ],
      "name": "startBetValidation",
      "outputs": [],
      "stateMutability": "nonpayable",
      "type": "function"
    },
    {
      "inputs": [],
      "name": "test1",
      "outputs": [
        {
          "internalType": "uint256",
          "name": "",
          "type": "uint256"
        }
      ],
      "stateMutability": "view",
      "type": "function"
    },
    {
      "inputs": [],
      "name": "test2",
      "outputs": [
        {
          "internalType": "uint256",
          "name": "",
          "type": "uint256"
        }
      ],
      "stateMutability": "view",
      "type": "function"
    },
    {
      "inputs": [],
      "name": "test3",
      "outputs": [
        {
          "internalType": "uint256",
          "name": "",
          "type": "uint256"
        }
      ],
      "stateMutability": "view",
      "type": "function"
    },
    {
      "stateMutability": "payable",
      "type": "receive"
    }
  ],
  "bytecode": "0x60806040526040518060400160405280600881526020017f616c626174726f73000000000000000000000000000000000000000000000000815250600090816200004a919062000332565b506040516200593038038062005930833981810160405281019062000070919062000483565b80600260006101000a81548173ffffffffffffffffffffffffffffffffffffffff021916908373ffffffffffffffffffffffffffffffffffffffff16021790555050620004b5565b600081519050919050565b7f4e487b7100000000000000000000000000000000000000000000000000000000600052604160045260246000fd5b7f4e487b7100000000000000000000000000000000000000000000000000000000600052602260045260246000fd5b600060028204905060018216806200013a57607f821691505b60208210810362000150576200014f620000f2565b5b50919050565b60008190508160005260206000209050919050565b60006020601f8301049050919050565b600082821b905092915050565b600060088302620001ba7fffffffffffffffffffffffffffffffffffffffffffffffffffffffffffffffff826200017b565b620001c686836200017b565b95508019841693508086168417925050509392505050565b6000819050919050565b6000819050919050565b6000620002136200020d6200020784620001de565b620001e8565b620001de565b9050919050565b6000819050919050565b6200022f83620001f2565b620002476200023e826200021a565b84845462000188565b825550505050565b600090565b6200025e6200024f565b6200026b81848462000224565b505050565b5b8181101562000293576200028760008262000254565b60018101905062000271565b5050565b601f821115620002e257620002ac8162000156565b620002b7846200016b565b81016020851015620002c7578190505b620002df620002d6856200016b565b83018262000270565b50505b505050565b600082821c905092915050565b60006200030760001984600802620002e7565b1980831691505092915050565b6000620003228383620002f4565b9150826002028217905092915050565b6200033d82620000b8565b67ffffffffffffffff811115620003595762000358620000c3565b5b62000365825462000121565b6200037282828562000297565b600060209050601f831160018114620003aa576000841562000395578287015190505b620003a1858262000314565b86555062000411565b601f198416620003ba8662000156565b60005b82811015620003e457848901518255600182019150602085019450602081019050620003bd565b8683101562000404578489015162000400601f891682620002f4565b8355505b6001600288020188555050505b505050505050565b600080fd5b600073ffffffffffffffffffffffffffffffffffffffff82169050919050565b60006200044b826200041e565b9050919050565b6200045d816200043e565b81146200046957600080fd5b50565b6000815190506200047d8162000452565b92915050565b6000602082840312156200049c576200049b62000419565b5b6000620004ac848285016200046c565b91505092915050565b61546b80620004c56000396000f3fe608060405260043610620000a35760003560e01c80636b59084d11620000615780636b59084d146200023d578063a5f9b643146200026d578063cef84a62146200029b578063ee9c036214620002e5578063fd3393fe146200032957620000f3565b80630a8e8e01146200013b57806341178651146200016b578063458f6f6f14620001995780636310956e14620001dd57806366e41cb7146200020d57620000f3565b36620000f35761c350341015620000f1576040517f08c379a0000000000000000000000000000000000000000000000000000000008152600401620000e890620020b0565b60405180910390fd5b005b6040518060400160405280601e81526020017f46616c6c6261636b2066756e6374696f6e206973206578656375746564210000815250600090816200013991906200234c565b005b3480156200014857600080fd5b506200015362000357565b60405162000162919062002444565b60405180910390f35b3480156200017857600080fd5b506200019760048036038101906200019191906200250b565b6200035d565b005b348015620001a657600080fd5b50620001c56004803603810190620001bf919062002552565b62000a60565b604051620001d49190620025aa565b60405180910390f35b348015620001ea57600080fd5b50620001f562000aec565b604051620002049190620025aa565b60405180910390f35b3480156200021a57600080fd5b506200022562000b12565b60405162000234919062002444565b60405180910390f35b3480156200024a57600080fd5b506200025562000b18565b60405162000264919062002444565b60405180910390f35b3480156200027a57600080fd5b50620002996004803603810190620002939190620026fa565b62000b1e565b005b348015620002a857600080fd5b50620002c76004803603810190620002c191906200277f565b62000fe0565b604051620002dc97969594939291906200289e565b60405180910390f35b348015620002f257600080fd5b506200031160048036038101906200030b91906200277f565b6200116f565b60405162000320919062002444565b60405180910390f35b3480156200033657600080fd5b506200035560048036038101906200034f91906200277f565b620011f8565b005b60065481565b6001818160028111156200037657620003756200281e565b5b600160008373ffffffffffffffffffffffffffffffffffffffff1673ffffffffffffffffffffffffffffffffffffffff16815260200190815260200160002060080160009054906101000a900460ff166002811115620003db57620003da6200281e565b5b1462000413576040517f248d543200000000000000000000000000000000000000000000000000000000815260040160405180910390fd5b6002841062000459576040517f08c379a0000000000000000000000000000000000000000000000000000000008152600401620004509062002979565b60405180910390fd5b6000600260009054906101000a900473ffffffffffffffffffffffffffffffffffffffff1673ffffffffffffffffffffffffffffffffffffffff1663fa52c7d8336040518263ffffffff1660e01b8152600401620004b89190620025aa565b606060405180830381865afa158015620004d6573d6000803e3d6000fd5b505050506040513d601f19601f82011682018060405250810190620004fc919062002a34565b505090503373ffffffffffffffffffffffffffffffffffffffff168173ffffffffffffffffffffffffffffffffffffffff161462000566576040517fec752d2a00000000000000000000000000000000000000000000000000000000815260040160405180910390fd5b600085036200075157600160008573ffffffffffffffffffffffffffffffffffffffff1673ffffffffffffffffffffffffffffffffffffffff1681526020019081526020016000206006016000815480929190620005c49062002abf565b9190505550600160008573ffffffffffffffffffffffffffffffffffffffff1673ffffffffffffffffffffffffffffffffffffffff16815260200190815260200160002060050160008154809291906200061e9062002abf565b91905055506000600160008673ffffffffffffffffffffffffffffffffffffffff1673ffffffffffffffffffffffffffffffffffffffff16815260200190815260200160002060030160003373ffffffffffffffffffffffffffffffffffffffff1673ffffffffffffffffffffffffffffffffffffffff16815260200190815260200160002081905550600160008573ffffffffffffffffffffffffffffffffffffffff1673ffffffffffffffffffffffffffffffffffffffff168152602001908152602001600020600401339080600181540180825580915050600190039060005260206000200160009091909190916101000a81548173ffffffffffffffffffffffffffffffffffffffff021916908373ffffffffffffffffffffffffffffffffffffffff16021790555062000937565b600185036200093657600160008573ffffffffffffffffffffffffffffffffffffffff1673ffffffffffffffffffffffffffffffffffffffff1681526020019081526020016000206007016000815480929190620007af9062002abf565b9190505550600160008573ffffffffffffffffffffffffffffffffffffffff1673ffffffffffffffffffffffffffffffffffffffff1681526020019081526020016000206005016000815480929190620008099062002abf565b919050555060018060008673ffffffffffffffffffffffffffffffffffffffff1673ffffffffffffffffffffffffffffffffffffffff16815260200190815260200160002060030160003373ffffffffffffffffffffffffffffffffffffffff1673ffffffffffffffffffffffffffffffffffffffff16815260200190815260200160002081905550600160008573ffffffffffffffffffffffffffffffffffffffff1673ffffffffffffffffffffffffffffffffffffffff168152602001908152602001600020600401339080600181540180825580915050600190039060005260206000200160009091909190916101000a81548173ffffffffffffffffffffffffffffffffffffffff021916908373ffffffffffffffffffffffffffffffffffffffff1602179055505b5b600260009054906101000a900473ffffffffffffffffffffffffffffffffffffffff1673ffffffffffffffffffffffffffffffffffffffff166353db7e776040518163ffffffff1660e01b8152600401602060405180830381865afa158015620009a5573d6000803e3d6000fd5b505050506040513d601f19601f82011682018060405250810190620009cb919062002b0c565b600160008673ffffffffffffffffffffffffffffffffffffffff1673ffffffffffffffffffffffffffffffffffffffff168152602001908152602001600020600501541062000a59577fc7e162d919b6b9aab852a8c03449630d12cd29ba4c4219786db08ee9d51c9b608460405162000a459190620025aa565b60405180910390a162000a588462001423565b5b5050505050565b6000600160008473ffffffffffffffffffffffffffffffffffffffff1673ffffffffffffffffffffffffffffffffffffffff168152602001908152602001600020600401828154811062000ab95762000ab862002b3e565b5b9060005260206000200160009054906101000a900473ffffffffffffffffffffffffffffffffffffffff16905092915050565b600360009054906101000a900473ffffffffffffffffffffffffffffffffffffffff1681565b60055481565b60045481565b6000600260009054906101000a900473ffffffffffffffffffffffffffffffffffffffff1673ffffffffffffffffffffffffffffffffffffffff16630b4805d3336040518263ffffffff1660e01b815260040162000b7d9190620025aa565b602060405180830381865afa15801562000b9b573d6000803e3d6000fd5b505050506040513d601f19601f8201168201806040525081019062000bc1919062002b0c565b0362000bf9576040517f3a70817d00000000000000000000000000000000000000000000000000000000815260040160405180910390fd5b600260009054906101000a900473ffffffffffffffffffffffffffffffffffffffff1673ffffffffffffffffffffffffffffffffffffffff166353db7e776040518163ffffffff1660e01b8152600401602060405180830381865afa15801562000c67573d6000803e3d6000fd5b505050506040513d601f19601f8201168201806040525081019062000c8d919062002b0c565b600260009054906101000a900473ffffffffffffffffffffffffffffffffffffffff1673ffffffffffffffffffffffffffffffffffffffff1663139f29a16040518163ffffffff1660e01b8152600401602060405180830381865afa15801562000cfb573d6000803e3d6000fd5b505050506040513d601f19601f8201168201806040525081019062000d21919062002b0c565b101562000d65576040517f08c379a000000000000000000000000000000000000000000000000000000000815260040162000d5c9062002bbd565b60405180910390fd5b6000828230600260009054906101000a900473ffffffffffffffffffffffffffffffffffffffff1660405162000d9b9062002041565b62000daa949392919062002bdf565b604051809103906000f08015801562000dc7573d6000803e3d6000fd5b50905080600360006101000a81548173ffffffffffffffffffffffffffffffffffffffff021916908373ffffffffffffffffffffffffffffffffffffffff16021790555082600160008373ffffffffffffffffffffffffffffffffffffffff1673ffffffffffffffffffffffffffffffffffffffff168152602001908152602001600020600001908162000e5c91906200234c565b5081600160008373ffffffffffffffffffffffffffffffffffffffff1673ffffffffffffffffffffffffffffffffffffffff168152602001908152602001600020600101908162000eae91906200234c565b5033600160008373ffffffffffffffffffffffffffffffffffffffff1673ffffffffffffffffffffffffffffffffffffffff16815260200190815260200160002060020160006101000a81548173ffffffffffffffffffffffffffffffffffffffff021916908373ffffffffffffffffffffffffffffffffffffffff1602179055506000600160008373ffffffffffffffffffffffffffffffffffffffff1673ffffffffffffffffffffffffffffffffffffffff16815260200190815260200160002060080160006101000a81548160ff0219169083600281111562000f995762000f986200281e565b5b02179055507f909e36e1d400e483a06621ce59ea23139b7a5c694c10b1e889d0e79ce49922f281848460405162000fd39392919062002c3a565b60405180910390a1505050565b600160205280600052604060002060009150905080600001805462001005906200213b565b80601f016020809104026020016040519081016040528092919081815260200182805462001033906200213b565b8015620010845780601f10620010585761010080835404028352916020019162001084565b820191906000526020600020905b8154815290600101906020018083116200106657829003601f168201915b5050505050908060010180546200109b906200213b565b80601f0160208091040260200160405190810160405280929190818152602001828054620010c9906200213b565b80156200111a5780601f10620010ee576101008083540402835291602001916200111a565b820191906000526020600020905b815481529060010190602001808311620010fc57829003601f168201915b5050505050908060020160009054906101000a900473ffffffffffffffffffffffffffffffffffffffff16908060050154908060060154908060070154908060080160009054906101000a900460ff16905087565b6000600160008373ffffffffffffffffffffffffffffffffffffffff1673ffffffffffffffffffffffffffffffffffffffff16815260200190815260200160002060030160003373ffffffffffffffffffffffffffffffffffffffff1673ffffffffffffffffffffffffffffffffffffffff168152602001908152602001600020549050919050565b803373ffffffffffffffffffffffffffffffffffffffff16600160008373ffffffffffffffffffffffffffffffffffffffff1673ffffffffffffffffffffffffffffffffffffffff16815260200190815260200160002060020160009054906101000a900473ffffffffffffffffffffffffffffffffffffffff1673ffffffffffffffffffffffffffffffffffffffff1614620012c1576040517f251c9d6300000000000000000000000000000000000000000000000000000000815260040160405180910390fd5b600082816002811115620012da57620012d96200281e565b5b600160008373ffffffffffffffffffffffffffffffffffffffff1673ffffffffffffffffffffffffffffffffffffffff16815260200190815260200160002060080160009054906101000a900460ff1660028111156200133f576200133e6200281e565b5b1462001377576040517f248d543200000000000000000000000000000000000000000000000000000000815260040160405180910390fd5b60018060008673ffffffffffffffffffffffffffffffffffffffff1673ffffffffffffffffffffffffffffffffffffffff16815260200190815260200160002060080160006101000a81548160ff02191690836002811115620013df57620013de6200281e565b5b02179055507f8ebce6dadff954899922e37e6884f44f19ef94b282a760a548c170743cc892e184604051620014159190620025aa565b60405180910390a150505050565b600160008273ffffffffffffffffffffffffffffffffffffffff1673ffffffffffffffffffffffffffffffffffffffff16815260200190815260200160002060070154600160008373ffffffffffffffffffffffffffffffffffffffff1673ffffffffffffffffffffffffffffffffffffffff168152602001908152602001600020600601541115620016dc57600260009054906101000a900473ffffffffffffffffffffffffffffffffffffffff1673ffffffffffffffffffffffffffffffffffffffff16630b85000d6040518163ffffffff1660e01b8152600401602060405180830381865afa1580156200151e573d6000803e3d6000fd5b505050506040513d601f19601f8201168201806040525081019062001544919062002b0c565b600160008373ffffffffffffffffffffffffffffffffffffffff1673ffffffffffffffffffffffffffffffffffffffff168152602001908152602001600020600501546064600160008573ffffffffffffffffffffffffffffffffffffffff1673ffffffffffffffffffffffffffffffffffffffff16815260200190815260200160002060060154620015d8919062002c85565b620015e4919062002cff565b10620016d6578073ffffffffffffffffffffffffffffffffffffffff1663dc09f68260006040518263ffffffff1660e01b815260040162001626919062002d7a565b600060405180830381600087803b1580156200164157600080fd5b505af115801562001656573d6000803e3d6000fd5b505050506200166781600062001a39565b6002600160008373ffffffffffffffffffffffffffffffffffffffff1673ffffffffffffffffffffffffffffffffffffffff16815260200190815260200160002060080160006101000a81548160ff02191690836002811115620016d057620016cf6200281e565b5b02179055505b62001a36565b600160008273ffffffffffffffffffffffffffffffffffffffff1673ffffffffffffffffffffffffffffffffffffffff16815260200190815260200160002060070154600160008373ffffffffffffffffffffffffffffffffffffffff1673ffffffffffffffffffffffffffffffffffffffff1681526020019081526020016000206006015410156200199557600260009054906101000a900473ffffffffffffffffffffffffffffffffffffffff1673ffffffffffffffffffffffffffffffffffffffff16630b85000d6040518163ffffffff1660e01b8152600401602060405180830381865afa158015620017d7573d6000803e3d6000fd5b505050506040513d601f19601f82011682018060405250810190620017fd919062002b0c565b600160008373ffffffffffffffffffffffffffffffffffffffff1673ffffffffffffffffffffffffffffffffffffffff168152602001908152602001600020600501546064600160008573ffffffffffffffffffffffffffffffffffffffff1673ffffffffffffffffffffffffffffffffffffffff1681526020019081526020016000206007015462001891919062002c85565b6200189d919062002cff565b106200198f578073ffffffffffffffffffffffffffffffffffffffff1663dc09f68260016040518263ffffffff1660e01b8152600401620018df919062002dda565b600060405180830381600087803b158015620018fa57600080fd5b505af11580156200190f573d6000803e3d6000fd5b505050506200192081600162001a39565b6002600160008373ffffffffffffffffffffffffffffffffffffffff1673ffffffffffffffffffffffffffffffffffffffff16815260200190815260200160002060080160006101000a81548160ff021916908360028111156200198957620019886200281e565b5b02179055505b62001a35565b6002600160008373ffffffffffffffffffffffffffffffffffffffff1673ffffffffffffffffffffffffffffffffffffffff16815260200190815260200160002060080160006101000a81548160ff02191690836002811115620019fe57620019fd6200281e565b5b02179055506040517fbc7316f200000000000000000000000000000000000000000000000000000000815260040160405180910390fd5b5b50565b8173ffffffffffffffffffffffffffffffffffffffff16635c3a3e5c600260009054906101000a900473ffffffffffffffffffffffffffffffffffffffff1673ffffffffffffffffffffffffffffffffffffffff1663194a4e7e6040518163ffffffff1660e01b8152600401602060405180830381865afa15801562001ac3573d6000803e3d6000fd5b505050506040513d601f19601f8201168201806040525081019062001ae9919062002b0c565b600260009054906101000a900473ffffffffffffffffffffffffffffffffffffffff1673ffffffffffffffffffffffffffffffffffffffff16636694ba616040518163ffffffff1660e01b8152600401602060405180830381865afa15801562001b57573d6000803e3d6000fd5b505050506040513d601f19601f8201168201806040525081019062001b7d919062002b0c565b600160008773ffffffffffffffffffffffffffffffffffffffff1673ffffffffffffffffffffffffffffffffffffffff16815260200190815260200160002060020160009054906101000a900473ffffffffffffffffffffffffffffffffffffffff166040518463ffffffff1660e01b815260040162001c009392919062002df7565b600060405180830381600087803b15801562001c1b57600080fd5b505af115801562001c30573d6000803e3d6000fd5b505050508173ffffffffffffffffffffffffffffffffffffffff163160058190555060008273ffffffffffffffffffffffffffffffffffffffff1663ebfb6652600260009054906101000a900473ffffffffffffffffffffffffffffffffffffffff1673ffffffffffffffffffffffffffffffffffffffff166372e24fdd6040518163ffffffff1660e01b8152600401602060405180830381865afa15801562001cde573d6000803e3d6000fd5b505050506040513d601f19601f8201168201806040525081019062001d04919062002b0c565b6040518263ffffffff1660e01b815260040162001d22919062002444565b6020604051808303816000875af115801562001d42573d6000803e3d6000fd5b505050506040513d601f19601f8201168201806040525081019062001d68919062002b0c565b90508060048190555060005b600160008573ffffffffffffffffffffffffffffffffffffffff1673ffffffffffffffffffffffffffffffffffffffff1681526020019081526020016000206004018054905081101562001fd95782600160008673ffffffffffffffffffffffffffffffffffffffff1673ffffffffffffffffffffffffffffffffffffffff1681526020019081526020016000206003016000600160008873ffffffffffffffffffffffffffffffffffffffff1673ffffffffffffffffffffffffffffffffffffffff168152602001908152602001600020600401848154811062001e5e5762001e5d62002b3e565b5b9060005260206000200160009054906101000a900473ffffffffffffffffffffffffffffffffffffffff1673ffffffffffffffffffffffffffffffffffffffff1673ffffffffffffffffffffffffffffffffffffffff168152602001908152602001600020540362001fc2578373ffffffffffffffffffffffffffffffffffffffff1663cf959429600160008773ffffffffffffffffffffffffffffffffffffffff1673ffffffffffffffffffffffffffffffffffffffff168152602001908152602001600020600401838154811062001f3d5762001f3c62002b3e565b5b9060005260206000200160009054906101000a900473ffffffffffffffffffffffffffffffffffffffff16846040518363ffffffff1660e01b815260040162001f8892919062002e34565b600060405180830381600087803b15801562001fa357600080fd5b505af115801562001fb8573d6000803e3d6000fd5b5050505062001fc3565b5b808062001fd09062002abf565b91505062001d74565b508273ffffffffffffffffffffffffffffffffffffffff1663a99073ae6040518163ffffffff1660e01b8152600401600060405180830381600087803b1580156200202357600080fd5b505af115801562002038573d6000803e3d6000fd5b50505050505050565b6125d48062002e6283390190565b600082825260208201905092915050565b7f796f752063616e27742073656e64206c657373207468616e2035306b20776569600082015250565b6000620020986020836200204f565b9150620020a58262002060565b602082019050919050565b60006020820190508181036000830152620020cb8162002089565b9050919050565b600081519050919050565b7f4e487b7100000000000000000000000000000000000000000000000000000000600052604160045260246000fd5b7f4e487b7100000000000000000000000000000000000000000000000000000000600052602260045260246000fd5b600060028204905060018216806200215457607f821691505b6020821081036200216a57620021696200210c565b5b50919050565b60008190508160005260206000209050919050565b60006020601f8301049050919050565b600082821b905092915050565b600060088302620021d47fffffffffffffffffffffffffffffffffffffffffffffffffffffffffffffffff8262002195565b620021e0868362002195565b95508019841693508086168417925050509392505050565b6000819050919050565b6000819050919050565b60006200222d620022276200222184620021f8565b62002202565b620021f8565b9050919050565b6000819050919050565b62002249836200220c565b62002261620022588262002234565b848454620021a2565b825550505050565b600090565b6200227862002269565b620022858184846200223e565b505050565b5b81811015620022ad57620022a16000826200226e565b6001810190506200228b565b5050565b601f821115620022fc57620022c68162002170565b620022d18462002185565b81016020851015620022e1578190505b620022f9620022f08562002185565b8301826200228a565b50505b505050565b600082821c905092915050565b6000620023216000198460080262002301565b1980831691505092915050565b60006200233c83836200230e565b9150826002028217905092915050565b6200235782620020d2565b67ffffffffffffffff811115620023735762002372620020dd565b5b6200237f82546200213b565b6200238c828285620022b1565b600060209050601f831160018114620023c45760008415620023af578287015190505b620023bb85826200232e565b8655506200242b565b601f198416620023d48662002170565b60005b82811015620023fe57848901518255600182019150602085019450602081019050620023d7565b868310156200241e57848901516200241a601f8916826200230e565b8355505b6001600288020188555050505b505050505050565b6200243e81620021f8565b82525050565b60006020820190506200245b600083018462002433565b92915050565b6000604051905090565b600080fd5b600080fd5b6200248081620021f8565b81146200248c57600080fd5b50565b600081359050620024a08162002475565b92915050565b600073ffffffffffffffffffffffffffffffffffffffff82169050919050565b6000620024d382620024a6565b9050919050565b620024e581620024c6565b8114620024f157600080fd5b50565b6000813590506200250581620024da565b92915050565b600080604083850312156200252557620025246200246b565b5b600062002535858286016200248f565b92505060206200254885828601620024f4565b9150509250929050565b600080604083850312156200256c576200256b6200246b565b5b60006200257c85828601620024f4565b92505060206200258f858286016200248f565b9150509250929050565b620025a481620024c6565b82525050565b6000602082019050620025c1600083018462002599565b92915050565b600080fd5b600080fd5b6000601f19601f8301169050919050565b620025ed82620025d1565b810181811067ffffffffffffffff821117156200260f576200260e620020dd565b5b80604052505050565b60006200262462002461565b9050620026328282620025e2565b919050565b600067ffffffffffffffff821115620026555762002654620020dd565b5b6200266082620025d1565b9050602081019050919050565b82818337600083830152505050565b6000620026936200268d8462002637565b62002618565b905082815260208101848484011115620026b257620026b1620025cc565b5b620026bf8482856200266d565b509392505050565b600082601f830112620026df57620026de620025c7565b5b8135620026f18482602086016200267c565b91505092915050565b600080604083850312156200271457620027136200246b565b5b600083013567ffffffffffffffff81111562002735576200273462002470565b5b6200274385828601620026c7565b925050602083013567ffffffffffffffff81111562002767576200276662002470565b5b6200277585828601620026c7565b9150509250929050565b6000602082840312156200279857620027976200246b565b5b6000620027a884828501620024f4565b91505092915050565b60005b83811015620027d1578082015181840152602081019050620027b4565b60008484015250505050565b6000620027ea82620020d2565b620027f681856200204f565b935062002808818560208601620027b1565b6200281381620025d1565b840191505092915050565b7f4e487b7100000000000000000000000000000000000000000000000000000000600052602160045260246000fd5b600381106200286157620028606200281e565b5b50565b600081905062002874826200284d565b919050565b6000620028868262002864565b9050919050565b620028988162002879565b82525050565b600060e0820190508181036000830152620028ba818a620027dd565b90508181036020830152620028d08189620027dd565b9050620028e1604083018862002599565b620028f0606083018762002433565b620028ff608083018662002433565b6200290e60a083018562002433565b6200291d60c08301846200288d565b98975050505050505050565b7f756e6578697374696e6720636f6d70657469746f727300000000000000000000600082015250565b6000620029616016836200204f565b91506200296e8262002929565b602082019050919050565b60006020820190508181036000830152620029948162002952565b9050919050565b6000620029a882620024a6565b9050919050565b620029ba816200299b565b8114620029c657600080fd5b50565b600081519050620029da81620029af565b92915050565b60008115159050919050565b620029f781620029e0565b811462002a0357600080fd5b50565b60008151905062002a1781620029ec565b92915050565b60008151905062002a2e8162002475565b92915050565b60008060006060848603121562002a505762002a4f6200246b565b5b600062002a6086828701620029c9565b935050602062002a738682870162002a06565b925050604062002a868682870162002a1d565b9150509250925092565b7f4e487b7100000000000000000000000000000000000000000000000000000000600052601160045260246000fd5b600062002acc82620021f8565b91507fffffffffffffffffffffffffffffffffffffffffffffffffffffffffffffffff820362002b015762002b0062002a90565b5b600182019050919050565b60006020828403121562002b255762002b246200246b565b5b600062002b358482850162002a1d565b91505092915050565b7f4e487b7100000000000000000000000000000000000000000000000000000000600052603260045260246000fd5b7f6e6f7420656e6f7567682076616c696461746f72000000000000000000000000600082015250565b600062002ba56014836200204f565b915062002bb28262002b6d565b602082019050919050565b6000602082019050818103600083015262002bd88162002b96565b9050919050565b6000608082019050818103600083015262002bfb8187620027dd565b9050818103602083015262002c118186620027dd565b905062002c22604083018562002599565b62002c31606083018462002599565b95945050505050565b600060608201905062002c51600083018662002599565b818103602083015262002c658185620027dd565b9050818103604083015262002c7b8184620027dd565b9050949350505050565b600062002c9282620021f8565b915062002c9f83620021f8565b925082820262002caf81620021f8565b9150828204841483151762002cc95762002cc862002a90565b5b5092915050565b7f4e487b7100000000000000000000000000000000000000000000000000000000600052601260045260246000fd5b600062002d0c82620021f8565b915062002d1983620021f8565b92508262002d2c5762002d2b62002cd0565b5b828204905092915050565b6000819050919050565b600062002d6262002d5c62002d568462002d37565b62002202565b620021f8565b9050919050565b62002d748162002d41565b82525050565b600060208201905062002d91600083018462002d69565b92915050565b6000819050919050565b600062002dc262002dbc62002db68462002d97565b62002202565b620021f8565b9050919050565b62002dd48162002da1565b82525050565b600060208201905062002df1600083018462002dc9565b92915050565b600060608201905062002e0e600083018662002433565b62002e1d602083018562002433565b62002e2c604083018462002599565b949350505050565b600060408201905062002e4b600083018562002599565b62002e5a602083018462002433565b939250505056fe6080604052604051620025d4380380620025d483398181016040528101906200002991906200037c565b81600260006101000a81548173ffffffffffffffffffffffffffffffffffffffff021916908373ffffffffffffffffffffffffffffffffffffffff16021790555080600360006101000a81548173ffffffffffffffffffffffffffffffffffffffff021916908373ffffffffffffffffffffffffffffffffffffffff16021790555083600960008081526020019081526020016000206000019081620000d0919062000677565b508260096000600181526020019081526020016000206000019081620000f7919062000677565b5081600b60006101000a81548173ffffffffffffffffffffffffffffffffffffffff021916908373ffffffffffffffffffffffffffffffffffffffff16021790555080600c60006101000a81548173ffffffffffffffffffffffffffffffffffffffff021916908373ffffffffffffffffffffffffffffffffffffffff160217905550505050506200075e565b6000604051905090565b600080fd5b600080fd5b600080fd5b600080fd5b6000601f19601f8301169050919050565b7f4e487b7100000000000000000000000000000000000000000000000000000000600052604160045260246000fd5b620001ed82620001a2565b810181811067ffffffffffffffff821117156200020f576200020e620001b3565b5b80604052505050565b60006200022462000184565b9050620002328282620001e2565b919050565b600067ffffffffffffffff821115620002555762000254620001b3565b5b6200026082620001a2565b9050602081019050919050565b60005b838110156200028d57808201518184015260208101905062000270565b60008484015250505050565b6000620002b0620002aa8462000237565b62000218565b905082815260208101848484011115620002cf57620002ce6200019d565b5b620002dc8482856200026d565b509392505050565b600082601f830112620002fc57620002fb62000198565b5b81516200030e84826020860162000299565b91505092915050565b600073ffffffffffffffffffffffffffffffffffffffff82169050919050565b6000620003448262000317565b9050919050565b620003568162000337565b81146200036257600080fd5b50565b60008151905062000376816200034b565b92915050565b600080600080608085870312156200039957620003986200018e565b5b600085015167ffffffffffffffff811115620003ba57620003b962000193565b5b620003c887828801620002e4565b945050602085015167ffffffffffffffff811115620003ec57620003eb62000193565b5b620003fa87828801620002e4565b93505060406200040d8782880162000365565b9250506060620004208782880162000365565b91505092959194509250565b600081519050919050565b7f4e487b7100000000000000000000000000000000000000000000000000000000600052602260045260246000fd5b600060028204905060018216806200047f57607f821691505b60208210810362000495576200049462000437565b5b50919050565b60008190508160005260206000209050919050565b60006020601f8301049050919050565b600082821b905092915050565b600060088302620004ff7fffffffffffffffffffffffffffffffffffffffffffffffffffffffffffffffff82620004c0565b6200050b8683620004c0565b95508019841693508086168417925050509392505050565b6000819050919050565b6000819050919050565b600062000558620005526200054c8462000523565b6200052d565b62000523565b9050919050565b6000819050919050565b620005748362000537565b6200058c62000583826200055f565b848454620004cd565b825550505050565b600090565b620005a362000594565b620005b081848462000569565b505050565b5b81811015620005d857620005cc60008262000599565b600181019050620005b6565b5050565b601f8211156200062757620005f1816200049b565b620005fc84620004b0565b810160208510156200060c578190505b620006246200061b85620004b0565b830182620005b5565b50505b505050565b600082821c905092915050565b60006200064c600019846008026200062c565b1980831691505092915050565b600062000667838362000639565b9150826002028217905092915050565b62000682826200042c565b67ffffffffffffffff8111156200069e576200069d620001b3565b5b620006aa825462000466565b620006b7828285620005dc565b600060209050601f831160018114620006ef5760008415620006da578287015190505b620006e6858262000659565b86555062000756565b601f198416620006ff866200049b565b60005b82811015620007295784890151825560018201915060208501945060208101905062000702565b8683101562000749578489015162000745601f89168262000639565b8355505b6001600288020188555050505b505050505050565b611e66806200076e6000396000f3fe6080604052600436106101025760003560e01c8063ad05d9c311610095578063dc09f68211610064578063dc09f682146103c7578063e8399cc6146103f0578063ebfb66521461040c578063f8a8fd6d14610449578063fe5e1853146104745761018c565b8063ad05d9c31461033e578063c6073c6614610348578063cf95942914610373578063d93e03b01461039c5761018c565b80639d86801f116100d15780639d86801f14610291578063a14de028146102d1578063a32b3487146102fc578063a99073ae146103275761018c565b806322010c1f146101d25780635c3a3e5c146102125780636f9fb98a1461023b57806391e0d593146102665761018c565b3661018c57640b68a0aa003411610145576040517f78e9f1ba00000000000000000000000000000000000000000000000000000000815260040160405180910390fd5b61c35034101561018a576040517f08c379a000000000000000000000000000000000000000000000000000000000815260040161018190611398565b60405180910390fd5b005b6040518060400160405280601e81526020017f46616c6c6261636b2066756e6374696f6e206973206578656375746564210000815250600090816101d09190611608565b005b3480156101de57600080fd5b506101f960048036038101906101f4919061173d565b61049f565b604051610209949392919061179a565b60405180910390f35b34801561021e57600080fd5b506102396004803603810190610234919061180b565b6104ef565b005b34801561024757600080fd5b5061025061066a565b60405161025d919061185e565b60405180910390f35b34801561027257600080fd5b5061027b610672565b604051610288919061185e565b60405180910390f35b34801561029d57600080fd5b506102b860048036038101906102b39190611879565b610678565b6040516102c8949392919061191a565b60405180910390f35b3480156102dd57600080fd5b506102e6610730565b6040516102f3919061185e565b60405180910390f35b34801561030857600080fd5b50610311610736565b60405161031e919061185e565b60405180910390f35b34801561033357600080fd5b5061033c61073c565b005b6103466107e8565b005b34801561035457600080fd5b5061035d6109f3565b60405161036a9190611975565b60405180910390f35b34801561037f57600080fd5b5061039a60048036038101906103959190611990565b610a19565b005b3480156103a857600080fd5b506103b1610af0565b6040516103be9190611975565b60405180910390f35b3480156103d357600080fd5b506103ee60048036038101906103e99190611879565b610b16565b005b61040a60048036038101906104059190611879565b610ba7565b005b34801561041857600080fd5b50610433600480360381019061042e9190611879565b610f7e565b604051610440919061185e565b60405180910390f35b34801561045557600080fd5b5061045e611053565b60405161046b919061185e565b60405180910390f35b34801561048057600080fd5b50610489611059565b604051610496919061185e565b60405180910390f35b600a6020528060005260406000206000915090508060000160009054906101000a900473ffffffffffffffffffffffffffffffffffffffff16908060010154908060020154908060030154905084565b60004711610529576040517f47108e3e00000000000000000000000000000000000000000000000000000000815260040160405180910390fd5b600b60009054906101000a900473ffffffffffffffffffffffffffffffffffffffff1673ffffffffffffffffffffffffffffffffffffffff163373ffffffffffffffffffffffffffffffffffffffff16146105b0576040517f8679b0c000000000000000000000000000000000000000000000000000000000815260040160405180910390fd5b600c60149054906101000a900460ff1615610600576040517f08c379a00000000000000000000000000000000000000000000000000000000081526004016105f790611a1c565b60405180910390fd5b600061060a61066a565b90506000848261061a9190611a9a565b90506000848361062a9190611a9a565b9050610658600c60009054906101000a900473ffffffffffffffffffffffffffffffffffffffff168361105f565b610662848261105f565b505050505050565b600047905090565b60075481565b600960205280600052604060002060009150905080600001805461069b90611421565b80601f01602080910402602001604051908101604052809291908181526020018280546106c790611421565b80156107145780601f106106e957610100808354040283529160200191610714565b820191906000526020600020905b8154815290600101906020018083116106f757829003601f168201915b5050505050908060010154908060020154908060030154905084565b60045481565b60055481565b600b60009054906101000a900473ffffffffffffffffffffffffffffffffffffffff1673ffffffffffffffffffffffffffffffffffffffff163373ffffffffffffffffffffffffffffffffffffffff16146107c3576040517f8679b0c000000000000000000000000000000000000000000000000000000000815260040160405180910390fd5b6001600c60146101000a81548160ff0219169083151502179055506107e6611113565b565b600c60149054906101000a900460ff1661082e576040517f0541f1f000000000000000000000000000000000000000000000000000000000815260040160405180910390fd5b600c60149054906101000a900460ff1661087d576040517f08c379a000000000000000000000000000000000000000000000000000000000815260040161087490611b17565b60405180910390fd5b600754600a60003373ffffffffffffffffffffffffffffffffffffffff1673ffffffffffffffffffffffffffffffffffffffff1681526020019081526020016000206001015414610903576040517f08c379a00000000000000000000000000000000000000000000000000000000081526004016108fa90611b83565b60405180910390fd5b6064600854600a60003373ffffffffffffffffffffffffffffffffffffffff1673ffffffffffffffffffffffffffffffffffffffff168152602001908152602001600020600201546109559190611ba3565b61095f9190611a9a565b600a60003373ffffffffffffffffffffffffffffffffffffffff1673ffffffffffffffffffffffffffffffffffffffff168152602001908152602001600020600301819055506109f133600a60003373ffffffffffffffffffffffffffffffffffffffff1673ffffffffffffffffffffffffffffffffffffffff1681526020019081526020016000206003015461105f565b565b600b60009054906101000a900473ffffffffffffffffffffffffffffffffffffffff1681565b600b60009054906101000a900473ffffffffffffffffffffffffffffffffffffffff1673ffffffffffffffffffffffffffffffffffffffff163373ffffffffffffffffffffffffffffffffffffffff1614610aa0576040517f8679b0c000000000000000000000000000000000000000000000000000000000815260040160405180910390fd5b60004711610ada576040517f47108e3e00000000000000000000000000000000000000000000000000000000815260040160405180910390fd5b610ae4828261105f565b6002600d819055505050565b600c60009054906101000a900473ffffffffffffffffffffffffffffffffffffffff1681565b600b60009054906101000a900473ffffffffffffffffffffffffffffffffffffffff1673ffffffffffffffffffffffffffffffffffffffff163373ffffffffffffffffffffffffffffffffffffffff1614610b9d576040517f8679b0c000000000000000000000000000000000000000000000000000000000815260040160405180910390fd5b8060078190555050565b343373ffffffffffffffffffffffffffffffffffffffff16311015610bf8576040517f47108e3e00000000000000000000000000000000000000000000000000000000815260040160405180910390fd5b640b68a0aa003411610c36576040517f78e9f1ba00000000000000000000000000000000000000000000000000000000815260040160405180910390fd5b3373ffffffffffffffffffffffffffffffffffffffff16600a60003373ffffffffffffffffffffffffffffffffffffffff1673ffffffffffffffffffffffffffffffffffffffff16815260200190815260200160002060000160009054906101000a900473ffffffffffffffffffffffffffffffffffffffff1673ffffffffffffffffffffffffffffffffffffffff1603610cfd576040517f8424505800000000000000000000000000000000000000000000000000000000815260040160405180910390fd5b6000600360009054906101000a900473ffffffffffffffffffffffffffffffffffffffff1673ffffffffffffffffffffffffffffffffffffffff16630b4805d3336040518263ffffffff1660e01b8152600401610d5a9190611975565b602060405180830381865afa158015610d77573d6000803e3d6000fd5b505050506040513d601f19601f82011682018060405250810190610d9b9190611bfa565b03610dd2576040517f3a70817d00000000000000000000000000000000000000000000000000000000815260040160405180910390fd5b6001811115610e16576040517f08c379a0000000000000000000000000000000000000000000000000000000008152600401610e0d90611c73565b60405180910390fd5b610e20303461105f565b60066000815480929190610e3390611c93565b9190505550600960008281526020019081526020016000206002016000815480929190610e5f90611c93565b9190505550346009600083815260200190815260200160002060030154610e869190611cdb565b6009600083815260200190815260200160002060030181905550610ea8611191565b610eb181611229565b7fbabd4d8ad6be16c6a1ac0b279aaad4eb273f40de86a3c6ac350147fc9bbdbda330600960008081526020019081526020016000206002015460096000808152602001908152602001600020600301546009600080815260200190815260200160002060010154600960006001815260200190815260200160002060020154600960006001815260200190815260200160002060030154600960006001815260200190815260200160002060010154604051610f739796959493929190611d0f565b60405180910390a150565b6000804711610fb9576040517f47108e3e00000000000000000000000000000000000000000000000000000000815260040160405180910390fd5b600b60009054906101000a900473ffffffffffffffffffffffffffffffffffffffff1673ffffffffffffffffffffffffffffffffffffffff163373ffffffffffffffffffffffffffffffffffffffff1614611040576040517f8679b0c000000000000000000000000000000000000000000000000000000000815260040160405180910390fd5b814761104c9190611a9a565b9050919050565b600d5481565b60065481565b6000808373ffffffffffffffffffffffffffffffffffffffff168360405161108690611daf565b60006040518083038185875af1925050503d80600081146110c3576040519150601f19603f3d011682016040523d82523d6000602084013e6110c8565b606091505b50915091508161110d576040517f08c379a000000000000000000000000000000000000000000000000000000000815260040161110490611e10565b60405180910390fd5b50505050565b600c60149054906101000a900460ff16611159576040517f0541f1f000000000000000000000000000000000000000000000000000000000815260040160405180910390fd5b6009600060075481526020019081526020016000206003015460644761117f9190611ba3565b6111899190611a9a565b600881905550565b600654606460096000808152602001908152602001600020600201546111b79190611ba3565b6111c19190611a9a565b600960008081526020019081526020016000206001018190555060065460646009600060018152602001908152602001600020600201546112029190611ba3565b61120c9190611a9a565b600960006001815260200190815260200160002060010181905550565b33600a60003373ffffffffffffffffffffffffffffffffffffffff1673ffffffffffffffffffffffffffffffffffffffff16815260200190815260200160002060000160006101000a81548173ffffffffffffffffffffffffffffffffffffffff021916908373ffffffffffffffffffffffffffffffffffffffff16021790555080600a60003373ffffffffffffffffffffffffffffffffffffffff1673ffffffffffffffffffffffffffffffffffffffff1681526020019081526020016000206001018190555034600a60003373ffffffffffffffffffffffffffffffffffffffff1673ffffffffffffffffffffffffffffffffffffffff1681526020019081526020016000206002018190555050565b600082825260208201905092915050565b7f796f752063616e27742073656e64206c657373207468616e2035306b20776569600082015250565b600061138260208361133b565b915061138d8261134c565b602082019050919050565b600060208201905081810360008301526113b181611375565b9050919050565b600081519050919050565b7f4e487b7100000000000000000000000000000000000000000000000000000000600052604160045260246000fd5b7f4e487b7100000000000000000000000000000000000000000000000000000000600052602260045260246000fd5b6000600282049050600182168061143957607f821691505b60208210810361144c5761144b6113f2565b5b50919050565b60008190508160005260206000209050919050565b60006020601f8301049050919050565b600082821b905092915050565b6000600883026114b47fffffffffffffffffffffffffffffffffffffffffffffffffffffffffffffffff82611477565b6114be8683611477565b95508019841693508086168417925050509392505050565b6000819050919050565b6000819050919050565b60006115056115006114fb846114d6565b6114e0565b6114d6565b9050919050565b6000819050919050565b61151f836114ea565b61153361152b8261150c565b848454611484565b825550505050565b600090565b61154861153b565b611553818484611516565b505050565b5b818110156115775761156c600082611540565b600181019050611559565b5050565b601f8211156115bc5761158d81611452565b61159684611467565b810160208510156115a5578190505b6115b96115b185611467565b830182611558565b50505b505050565b600082821c905092915050565b60006115df600019846008026115c1565b1980831691505092915050565b60006115f883836115ce565b9150826002028217905092915050565b611611826113b8565b67ffffffffffffffff81111561162a576116296113c3565b5b6116348254611421565b61163f82828561157b565b600060209050601f8311600181146116725760008415611660578287015190505b61166a85826115ec565b8655506116d2565b601f19841661168086611452565b60005b828110156116a857848901518255600182019150602085019450602081019050611683565b868310156116c557848901516116c1601f8916826115ce565b8355505b6001600288020188555050505b505050505050565b600080fd5b600073ffffffffffffffffffffffffffffffffffffffff82169050919050565b600061170a826116df565b9050919050565b61171a816116ff565b811461172557600080fd5b50565b60008135905061173781611711565b92915050565b600060208284031215611753576117526116da565b5b600061176184828501611728565b91505092915050565b6000611775826116df565b9050919050565b6117858161176a565b82525050565b611794816114d6565b82525050565b60006080820190506117af600083018761177c565b6117bc602083018661178b565b6117c9604083018561178b565b6117d6606083018461178b565b95945050505050565b6117e8816114d6565b81146117f357600080fd5b50565b600081359050611805816117df565b92915050565b600080600060608486031215611824576118236116da565b5b6000611832868287016117f6565b9350506020611843868287016117f6565b925050604061185486828701611728565b9150509250925092565b6000602082019050611873600083018461178b565b92915050565b60006020828403121561188f5761188e6116da565b5b600061189d848285016117f6565b91505092915050565b60005b838110156118c45780820151818401526020810190506118a9565b60008484015250505050565b6000601f19601f8301169050919050565b60006118ec826113b8565b6118f6818561133b565b93506119068185602086016118a6565b61190f816118d0565b840191505092915050565b6000608082019050818103600083015261193481876118e1565b9050611943602083018661178b565b611950604083018561178b565b61195d606083018461178b565b95945050505050565b61196f816116ff565b82525050565b600060208201905061198a6000830184611966565b92915050565b600080604083850312156119a7576119a66116da565b5b60006119b585828601611728565b92505060206119c6858286016117f6565b9150509250929050565b7f66656520616c7265616479207061696400000000000000000000000000000000600082015250565b6000611a0660108361133b565b9150611a11826119d0565b602082019050919050565b60006020820190508181036000830152611a35816119f9565b9050919050565b7f4e487b7100000000000000000000000000000000000000000000000000000000600052601260045260246000fd5b7f4e487b7100000000000000000000000000000000000000000000000000000000600052601160045260246000fd5b6000611aa5826114d6565b9150611ab0836114d6565b925082611ac057611abf611a3c565b5b828204905092915050565b7f70617920706c6174666f726d2066656520666972737400000000000000000000600082015250565b6000611b0160168361133b565b9150611b0c82611acb565b602082019050919050565b60006020820190508181036000830152611b3081611af4565b9050919050565b7f6e6f206761696e00000000000000000000000000000000000000000000000000600082015250565b6000611b6d60078361133b565b9150611b7882611b37565b602082019050919050565b60006020820190508181036000830152611b9c81611b60565b9050919050565b6000611bae826114d6565b9150611bb9836114d6565b9250828202611bc7816114d6565b91508282048414831517611bde57611bdd611a6b565b5b5092915050565b600081519050611bf4816117df565b92915050565b600060208284031215611c1057611c0f6116da565b5b6000611c1e84828501611be5565b91505092915050565b7f636f6d70657469746f7220646f6e277420657869737400000000000000000000600082015250565b6000611c5d60168361133b565b9150611c6882611c27565b602082019050919050565b60006020820190508181036000830152611c8c81611c50565b9050919050565b6000611c9e826114d6565b91507fffffffffffffffffffffffffffffffffffffffffffffffffffffffffffffffff8203611cd057611ccf611a6b565b5b600182019050919050565b6000611ce6826114d6565b9150611cf1836114d6565b9250828201905080821115611d0957611d08611a6b565b5b92915050565b600060e082019050611d24600083018a611966565b611d31602083018961178b565b611d3e604083018861178b565b611d4b606083018761178b565b611d58608083018661178b565b611d6560a083018561178b565b611d7260c083018461178b565b98975050505050505050565b600081905092915050565b50565b6000611d99600083611d7e565b9150611da482611d89565b600082019050919050565b6000611dba82611d8c565b9150819050919050565b7f4661696c656420746f2073656e64204574686572000000000000000000000000600082015250565b6000611dfa60148361133b565b9150611e0582611dc4565b602082019050919050565b60006020820190508181036000830152611e2981611ded565b905091905056fea2646970667358221220ded3aaa65fdd8d4576350cfb57f8a260bf35bc1cc419f6f8bbd0a58e47bb9e7864736f6c63430008150033a2646970667358221220d4f46a1f9d2af44fa98dab4621944d8bf7eb46b44f8dafdf923172314f28e1a464736f6c63430008150033",
  "linkReferences": {},
  "deployedLinkReferences": {}
}