{
  "_format": "hh-sol-artifact-1",
  "contractName": "SimpleBet",
  "sourceName": "contracts/SimpleBet.sol",
  "abi": [
    {
      "inputs": [
        {
          "internalType": "string",
          "name": "_compName1",
          "type": "string"
        },
        {
          "internalType": "string",
          "name": "_compName2",
          "type": "string"
        },
        {
          "internalType": "address",
          "name": "_betWavesOrganizerAddress",
          "type": "address"
        },
        {
          "internalType": "address",
          "name": "_betWaveDaoAddress",
          "type": "address"
        }
      ],
      "stateMutability": "payable",
      "type": "constructor"
    },
    {
      "inputs": [],
      "name": "alreadyBet",
      "type": "error"
    },
    {
      "inputs": [],
      "name": "feesNotPaid",
      "type": "error"
    },
    {
      "inputs": [],
      "name": "forbidden",
      "type": "error"
    },
    {
      "inputs": [],
      "name": "insufficientBalance",
      "type": "error"
    },
    {
      "inputs": [],
      "name": "minimumBetAmount",
      "type": "error"
    },
    {
      "inputs": [],
      "name": "notRegistered",
      "type": "error"
    },
    {
      "anonymous": false,
      "inputs": [
        {
          "indexed": false,
          "internalType": "address",
          "name": "",
          "type": "address"
        },
        {
          "indexed": false,
          "internalType": "uint256",
          "name": "",
          "type": "uint256"
        },
        {
          "indexed": false,
          "internalType": "uint256",
          "name": "",
          "type": "uint256"
        },
        {
          "indexed": false,
          "internalType": "uint256",
          "name": "",
          "type": "uint256"
        },
        {
          "indexed": false,
          "internalType": "uint256",
          "name": "",
          "type": "uint256"
        },
        {
          "indexed": false,
          "internalType": "uint256",
          "name": "",
          "type": "uint256"
        },
        {
          "indexed": false,
          "internalType": "uint256",
          "name": "",
          "type": "uint256"
        }
      ],
      "name": "newBid",
      "type": "event"
    },
    {
      "stateMutability": "payable",
      "type": "fallback"
    },
    {
      "inputs": [],
      "name": "beginEventTimestamp",
      "outputs": [
        {
          "internalType": "uint256",
          "name": "",
          "type": "uint256"
        }
      ],
      "stateMutability": "view",
      "type": "function"
    },
    {
      "inputs": [],
      "name": "betWaveDaoAddress",
      "outputs": [
        {
          "internalType": "address",
          "name": "",
          "type": "address"
        }
      ],
      "stateMutability": "view",
      "type": "function"
    },
    {
      "inputs": [],
      "name": "betWavesOrganizerAddress",
      "outputs": [
        {
          "internalType": "address",
          "name": "",
          "type": "address"
        }
      ],
      "stateMutability": "view",
      "type": "function"
    },
    {
      "inputs": [
        {
          "internalType": "address",
          "name": "",
          "type": "address"
        }
      ],
      "name": "bettors",
      "outputs": [
        {
          "internalType": "address payable",
          "name": "bettorAddress",
          "type": "address"
        },
        {
          "internalType": "uint256",
          "name": "betId",
          "type": "uint256"
        },
        {
          "internalType": "uint256",
          "name": "bettingAmout",
          "type": "uint256"
        },
        {
          "internalType": "uint256",
          "name": "bettingReward",
          "type": "uint256"
        }
      ],
      "stateMutability": "view",
      "type": "function"
    },
    {
      "inputs": [
        {
          "internalType": "uint256",
          "name": "_validatorFees",
          "type": "uint256"
        }
      ],
      "name": "calculateValidatorReward",
      "outputs": [
        {
          "internalType": "uint256",
          "name": "",
          "type": "uint256"
        }
      ],
      "stateMutability": "nonpayable",
      "type": "function"
    },
    {
      "inputs": [
        {
          "internalType": "uint256",
          "name": "",
          "type": "uint256"
        }
      ],
      "name": "competitors",
      "outputs": [
        {
          "internalType": "string",
          "name": "name",
          "type": "string"
        },
        {
          "internalType": "uint256",
          "name": "odd",
          "type": "uint256"
        },
        {
          "internalType": "uint256",
          "name": "betNumber",
          "type": "uint256"
        },
        {
          "internalType": "uint256",
          "name": "betAmount",
          "type": "uint256"
        }
      ],
      "stateMutability": "view",
      "type": "function"
    },
    {
      "inputs": [],
      "name": "endEventTimestamp",
      "outputs": [
        {
          "internalType": "uint256",
          "name": "",
          "type": "uint256"
        }
      ],
      "stateMutability": "view",
      "type": "function"
    },
    {
      "inputs": [],
      "name": "getContractBalance",
      "outputs": [
        {
          "internalType": "uint256",
          "name": "",
          "type": "uint256"
        }
      ],
      "stateMutability": "view",
      "type": "function"
    },
    {
      "inputs": [],
      "name": "redeemToBettor",
      "outputs": [],
      "stateMutability": "payable",
      "type": "function"
    },
    {
      "inputs": [
        {
          "internalType": "uint256",
          "name": "_plateformeFees",
          "type": "uint256"
        },
        {
          "internalType": "uint256",
          "name": "_creatorFees",
          "type": "uint256"
        },
        {
          "internalType": "address",
          "name": "_ownerAddress",
          "type": "address"
        }
      ],
      "name": "sendPlatfromAndCreatorFees",
      "outputs": [],
      "stateMutability": "nonpayable",
      "type": "function"
    },
    {
      "inputs": [
        {
          "internalType": "address",
          "name": "_validatorAddress",
          "type": "address"
        },
        {
          "internalType": "uint256",
          "name": "_validatorReward",
          "type": "uint256"
        }
      ],
      "name": "sendValidatorFees",
      "outputs": [],
      "stateMutability": "nonpayable",
      "type": "function"
    },
    {
      "inputs": [
        {
          "internalType": "uint256",
          "name": "_betId",
          "type": "uint256"
        }
      ],
      "name": "setBet",
      "outputs": [],
      "stateMutability": "payable",
      "type": "function"
    },
    {
      "inputs": [],
      "name": "setFeesBooleanToTrue",
      "outputs": [],
      "stateMutability": "nonpayable",
      "type": "function"
    },
    {
      "inputs": [],
      "name": "test",
      "outputs": [
        {
          "internalType": "uint256",
          "name": "",
          "type": "uint256"
        }
      ],
      "stateMutability": "view",
      "type": "function"
    },
    {
      "inputs": [],
      "name": "totalBet",
      "outputs": [
        {
          "internalType": "uint256",
          "name": "",
          "type": "uint256"
        }
      ],
      "stateMutability": "view",
      "type": "function"
    },
    {
      "stateMutability": "payable",
      "type": "receive"
    }
  ],
  "bytecode": "0x6080604052604051620024d3380380620024d383398181016040528101906200002991906200037c565b81600260006101000a81548173ffffffffffffffffffffffffffffffffffffffff021916908373ffffffffffffffffffffffffffffffffffffffff16021790555080600360006101000a81548173ffffffffffffffffffffffffffffffffffffffff021916908373ffffffffffffffffffffffffffffffffffffffff16021790555083600960008081526020019081526020016000206000019081620000d0919062000677565b508260096000600181526020019081526020016000206000019081620000f7919062000677565b5081600b60006101000a81548173ffffffffffffffffffffffffffffffffffffffff021916908373ffffffffffffffffffffffffffffffffffffffff16021790555080600c60006101000a81548173ffffffffffffffffffffffffffffffffffffffff021916908373ffffffffffffffffffffffffffffffffffffffff160217905550505050506200075e565b6000604051905090565b600080fd5b600080fd5b600080fd5b600080fd5b6000601f19601f8301169050919050565b7f4e487b7100000000000000000000000000000000000000000000000000000000600052604160045260246000fd5b620001ed82620001a2565b810181811067ffffffffffffffff821117156200020f576200020e620001b3565b5b80604052505050565b60006200022462000184565b9050620002328282620001e2565b919050565b600067ffffffffffffffff821115620002555762000254620001b3565b5b6200026082620001a2565b9050602081019050919050565b60005b838110156200028d57808201518184015260208101905062000270565b60008484015250505050565b6000620002b0620002aa8462000237565b62000218565b905082815260208101848484011115620002cf57620002ce6200019d565b5b620002dc8482856200026d565b509392505050565b600082601f830112620002fc57620002fb62000198565b5b81516200030e84826020860162000299565b91505092915050565b600073ffffffffffffffffffffffffffffffffffffffff82169050919050565b6000620003448262000317565b9050919050565b620003568162000337565b81146200036257600080fd5b50565b60008151905062000376816200034b565b92915050565b600080600080608085870312156200039957620003986200018e565b5b600085015167ffffffffffffffff811115620003ba57620003b962000193565b5b620003c887828801620002e4565b945050602085015167ffffffffffffffff811115620003ec57620003eb62000193565b5b620003fa87828801620002e4565b93505060406200040d8782880162000365565b9250506060620004208782880162000365565b91505092959194509250565b600081519050919050565b7f4e487b7100000000000000000000000000000000000000000000000000000000600052602260045260246000fd5b600060028204905060018216806200047f57607f821691505b60208210810362000495576200049462000437565b5b50919050565b60008190508160005260206000209050919050565b60006020601f8301049050919050565b600082821b905092915050565b600060088302620004ff7fffffffffffffffffffffffffffffffffffffffffffffffffffffffffffffffff82620004c0565b6200050b8683620004c0565b95508019841693508086168417925050509392505050565b6000819050919050565b6000819050919050565b600062000558620005526200054c8462000523565b6200052d565b62000523565b9050919050565b6000819050919050565b620005748362000537565b6200058c62000583826200055f565b848454620004cd565b825550505050565b600090565b620005a362000594565b620005b081848462000569565b505050565b5b81811015620005d857620005cc60008262000599565b600181019050620005b6565b5050565b601f8211156200062757620005f1816200049b565b620005fc84620004b0565b810160208510156200060c578190505b620006246200061b85620004b0565b830182620005b5565b50505b505050565b600082821c905092915050565b60006200064c600019846008026200062c565b1980831691505092915050565b600062000667838362000639565b9150826002028217905092915050565b62000682826200042c565b67ffffffffffffffff8111156200069e576200069d620001b3565b5b620006aa825462000466565b620006b7828285620005dc565b600060209050601f831160018114620006ef5760008415620006da578287015190505b620006e6858262000659565b86555062000756565b601f198416620006ff866200049b565b60005b82811015620007295784890151825560018201915060208501945060208101905062000702565b8683101562000749578489015162000745601f89168262000639565b8355505b6001600288020188555050505b505050505050565b611d65806200076e6000396000f3fe6080604052600436106100ec5760003560e01c8063ad05d9c31161008a578063e8399cc611610059578063e8399cc614610386578063ebfb6652146103a2578063f8a8fd6d146103df578063fe5e18531461040a57610176565b8063ad05d9c3146102fd578063c6073c6614610307578063cf95942914610332578063d93e03b01461035b57610176565b80639d86801f116100c65780639d86801f14610250578063a14de02814610290578063a32b3487146102bb578063a99073ae146102e657610176565b806322010c1f146101bc5780635c3a3e5c146101fc5780636f9fb98a1461022557610176565b3661017657640b68a0aa00341161012f576040517f78e9f1ba00000000000000000000000000000000000000000000000000000000815260040160405180910390fd5b61c350341015610174576040517f08c379a000000000000000000000000000000000000000000000000000000000815260040161016b90611297565b60405180910390fd5b005b6040518060400160405280601e81526020017f46616c6c6261636b2066756e6374696f6e206973206578656375746564210000815250600090816101ba9190611507565b005b3480156101c857600080fd5b506101e360048036038101906101de919061163c565b610435565b6040516101f39493929190611699565b60405180910390f35b34801561020857600080fd5b50610223600480360381019061021e919061170a565b610485565b005b34801561023157600080fd5b5061023a610600565b604051610247919061175d565b60405180910390f35b34801561025c57600080fd5b5061027760048036038101906102729190611778565b610608565b6040516102879493929190611819565b60405180910390f35b34801561029c57600080fd5b506102a56106c0565b6040516102b2919061175d565b60405180910390f35b3480156102c757600080fd5b506102d06106c6565b6040516102dd919061175d565b60405180910390f35b3480156102f257600080fd5b506102fb6106cc565b005b610305610778565b005b34801561031357600080fd5b5061031c610983565b6040516103299190611874565b60405180910390f35b34801561033e57600080fd5b506103596004803603810190610354919061188f565b6109a9565b005b34801561036757600080fd5b50610370610a80565b60405161037d9190611874565b60405180910390f35b6103a0600480360381019061039b9190611778565b610aa6565b005b3480156103ae57600080fd5b506103c960048036038101906103c49190611778565b610e7d565b6040516103d6919061175d565b60405180910390f35b3480156103eb57600080fd5b506103f4610f52565b604051610401919061175d565b60405180910390f35b34801561041657600080fd5b5061041f610f58565b60405161042c919061175d565b60405180910390f35b600a6020528060005260406000206000915090508060000160009054906101000a900473ffffffffffffffffffffffffffffffffffffffff16908060010154908060020154908060030154905084565b600047116104bf576040517f47108e3e00000000000000000000000000000000000000000000000000000000815260040160405180910390fd5b600b60009054906101000a900473ffffffffffffffffffffffffffffffffffffffff1673ffffffffffffffffffffffffffffffffffffffff163373ffffffffffffffffffffffffffffffffffffffff1614610546576040517f8679b0c000000000000000000000000000000000000000000000000000000000815260040160405180910390fd5b600c60149054906101000a900460ff1615610596576040517f08c379a000000000000000000000000000000000000000000000000000000000815260040161058d9061191b565b60405180910390fd5b60006105a0610600565b9050600084826105b09190611999565b9050600084836105c09190611999565b90506105ee600c60009054906101000a900473ffffffffffffffffffffffffffffffffffffffff1683610f5e565b6105f88482610f5e565b505050505050565b600047905090565b600960205280600052604060002060009150905080600001805461062b90611320565b80601f016020809104026020016040519081016040528092919081815260200182805461065790611320565b80156106a45780601f10610679576101008083540402835291602001916106a4565b820191906000526020600020905b81548152906001019060200180831161068757829003601f168201915b5050505050908060010154908060020154908060030154905084565b60045481565b60055481565b600b60009054906101000a900473ffffffffffffffffffffffffffffffffffffffff1673ffffffffffffffffffffffffffffffffffffffff163373ffffffffffffffffffffffffffffffffffffffff1614610753576040517f8679b0c000000000000000000000000000000000000000000000000000000000815260040160405180910390fd5b6001600c60146101000a81548160ff021916908315150217905550610776611012565b565b600c60149054906101000a900460ff166107be576040517f0541f1f000000000000000000000000000000000000000000000000000000000815260040160405180910390fd5b600c60149054906101000a900460ff1661080d576040517f08c379a000000000000000000000000000000000000000000000000000000000815260040161080490611a16565b60405180910390fd5b600754600a60003373ffffffffffffffffffffffffffffffffffffffff1673ffffffffffffffffffffffffffffffffffffffff1681526020019081526020016000206001015414610893576040517f08c379a000000000000000000000000000000000000000000000000000000000815260040161088a90611a82565b60405180910390fd5b6064600854600a60003373ffffffffffffffffffffffffffffffffffffffff1673ffffffffffffffffffffffffffffffffffffffff168152602001908152602001600020600201546108e59190611aa2565b6108ef9190611999565b600a60003373ffffffffffffffffffffffffffffffffffffffff1673ffffffffffffffffffffffffffffffffffffffff1681526020019081526020016000206003018190555061098133600a60003373ffffffffffffffffffffffffffffffffffffffff1673ffffffffffffffffffffffffffffffffffffffff16815260200190815260200160002060030154610f5e565b565b600b60009054906101000a900473ffffffffffffffffffffffffffffffffffffffff1681565b600b60009054906101000a900473ffffffffffffffffffffffffffffffffffffffff1673ffffffffffffffffffffffffffffffffffffffff163373ffffffffffffffffffffffffffffffffffffffff1614610a30576040517f8679b0c000000000000000000000000000000000000000000000000000000000815260040160405180910390fd5b60004711610a6a576040517f47108e3e00000000000000000000000000000000000000000000000000000000815260040160405180910390fd5b610a748282610f5e565b6002600d819055505050565b600c60009054906101000a900473ffffffffffffffffffffffffffffffffffffffff1681565b343373ffffffffffffffffffffffffffffffffffffffff16311015610af7576040517f47108e3e00000000000000000000000000000000000000000000000000000000815260040160405180910390fd5b640b68a0aa003411610b35576040517f78e9f1ba00000000000000000000000000000000000000000000000000000000815260040160405180910390fd5b3373ffffffffffffffffffffffffffffffffffffffff16600a60003373ffffffffffffffffffffffffffffffffffffffff1673ffffffffffffffffffffffffffffffffffffffff16815260200190815260200160002060000160009054906101000a900473ffffffffffffffffffffffffffffffffffffffff1673ffffffffffffffffffffffffffffffffffffffff1603610bfc576040517f8424505800000000000000000000000000000000000000000000000000000000815260040160405180910390fd5b6000600360009054906101000a900473ffffffffffffffffffffffffffffffffffffffff1673ffffffffffffffffffffffffffffffffffffffff16630b4805d3336040518263ffffffff1660e01b8152600401610c599190611874565b602060405180830381865afa158015610c76573d6000803e3d6000fd5b505050506040513d601f19601f82011682018060405250810190610c9a9190611af9565b03610cd1576040517f3a70817d00000000000000000000000000000000000000000000000000000000815260040160405180910390fd5b6001811115610d15576040517f08c379a0000000000000000000000000000000000000000000000000000000008152600401610d0c90611b72565b60405180910390fd5b610d1f3034610f5e565b60066000815480929190610d3290611b92565b9190505550600960008281526020019081526020016000206002016000815480929190610d5e90611b92565b9190505550346009600083815260200190815260200160002060030154610d859190611bda565b6009600083815260200190815260200160002060030181905550610da7611090565b610db081611128565b7fbabd4d8ad6be16c6a1ac0b279aaad4eb273f40de86a3c6ac350147fc9bbdbda330600960008081526020019081526020016000206002015460096000808152602001908152602001600020600301546009600080815260200190815260200160002060010154600960006001815260200190815260200160002060020154600960006001815260200190815260200160002060030154600960006001815260200190815260200160002060010154604051610e729796959493929190611c0e565b60405180910390a150565b6000804711610eb8576040517f47108e3e00000000000000000000000000000000000000000000000000000000815260040160405180910390fd5b600b60009054906101000a900473ffffffffffffffffffffffffffffffffffffffff1673ffffffffffffffffffffffffffffffffffffffff163373ffffffffffffffffffffffffffffffffffffffff1614610f3f576040517f8679b0c000000000000000000000000000000000000000000000000000000000815260040160405180910390fd5b8147610f4b9190611999565b9050919050565b600d5481565b60065481565b6000808373ffffffffffffffffffffffffffffffffffffffff1683604051610f8590611cae565b60006040518083038185875af1925050503d8060008114610fc2576040519150601f19603f3d011682016040523d82523d6000602084013e610fc7565b606091505b50915091508161100c576040517f08c379a000000000000000000000000000000000000000000000000000000000815260040161100390611d0f565b60405180910390fd5b50505050565b600c60149054906101000a900460ff16611058576040517f0541f1f000000000000000000000000000000000000000000000000000000000815260040160405180910390fd5b6009600060075481526020019081526020016000206003015460644761107e9190611aa2565b6110889190611999565b600881905550565b600654606460096000808152602001908152602001600020600201546110b69190611aa2565b6110c09190611999565b600960008081526020019081526020016000206001018190555060065460646009600060018152602001908152602001600020600201546111019190611aa2565b61110b9190611999565b600960006001815260200190815260200160002060010181905550565b33600a60003373ffffffffffffffffffffffffffffffffffffffff1673ffffffffffffffffffffffffffffffffffffffff16815260200190815260200160002060000160006101000a81548173ffffffffffffffffffffffffffffffffffffffff021916908373ffffffffffffffffffffffffffffffffffffffff16021790555080600a60003373ffffffffffffffffffffffffffffffffffffffff1673ffffffffffffffffffffffffffffffffffffffff1681526020019081526020016000206001018190555034600a60003373ffffffffffffffffffffffffffffffffffffffff1673ffffffffffffffffffffffffffffffffffffffff1681526020019081526020016000206002018190555050565b600082825260208201905092915050565b7f796f752063616e27742073656e64206c657373207468616e2035306b20776569600082015250565b600061128160208361123a565b915061128c8261124b565b602082019050919050565b600060208201905081810360008301526112b081611274565b9050919050565b600081519050919050565b7f4e487b7100000000000000000000000000000000000000000000000000000000600052604160045260246000fd5b7f4e487b7100000000000000000000000000000000000000000000000000000000600052602260045260246000fd5b6000600282049050600182168061133857607f821691505b60208210810361134b5761134a6112f1565b5b50919050565b60008190508160005260206000209050919050565b60006020601f8301049050919050565b600082821b905092915050565b6000600883026113b37fffffffffffffffffffffffffffffffffffffffffffffffffffffffffffffffff82611376565b6113bd8683611376565b95508019841693508086168417925050509392505050565b6000819050919050565b6000819050919050565b60006114046113ff6113fa846113d5565b6113df565b6113d5565b9050919050565b6000819050919050565b61141e836113e9565b61143261142a8261140b565b848454611383565b825550505050565b600090565b61144761143a565b611452818484611415565b505050565b5b818110156114765761146b60008261143f565b600181019050611458565b5050565b601f8211156114bb5761148c81611351565b61149584611366565b810160208510156114a4578190505b6114b86114b085611366565b830182611457565b50505b505050565b600082821c905092915050565b60006114de600019846008026114c0565b1980831691505092915050565b60006114f783836114cd565b9150826002028217905092915050565b611510826112b7565b67ffffffffffffffff811115611529576115286112c2565b5b6115338254611320565b61153e82828561147a565b600060209050601f831160018114611571576000841561155f578287015190505b61156985826114eb565b8655506115d1565b601f19841661157f86611351565b60005b828110156115a757848901518255600182019150602085019450602081019050611582565b868310156115c457848901516115c0601f8916826114cd565b8355505b6001600288020188555050505b505050505050565b600080fd5b600073ffffffffffffffffffffffffffffffffffffffff82169050919050565b6000611609826115de565b9050919050565b611619816115fe565b811461162457600080fd5b50565b60008135905061163681611610565b92915050565b600060208284031215611652576116516115d9565b5b600061166084828501611627565b91505092915050565b6000611674826115de565b9050919050565b61168481611669565b82525050565b611693816113d5565b82525050565b60006080820190506116ae600083018761167b565b6116bb602083018661168a565b6116c8604083018561168a565b6116d5606083018461168a565b95945050505050565b6116e7816113d5565b81146116f257600080fd5b50565b600081359050611704816116de565b92915050565b600080600060608486031215611723576117226115d9565b5b6000611731868287016116f5565b9350506020611742868287016116f5565b925050604061175386828701611627565b9150509250925092565b6000602082019050611772600083018461168a565b92915050565b60006020828403121561178e5761178d6115d9565b5b600061179c848285016116f5565b91505092915050565b60005b838110156117c35780820151818401526020810190506117a8565b60008484015250505050565b6000601f19601f8301169050919050565b60006117eb826112b7565b6117f5818561123a565b93506118058185602086016117a5565b61180e816117cf565b840191505092915050565b6000608082019050818103600083015261183381876117e0565b9050611842602083018661168a565b61184f604083018561168a565b61185c606083018461168a565b95945050505050565b61186e816115fe565b82525050565b60006020820190506118896000830184611865565b92915050565b600080604083850312156118a6576118a56115d9565b5b60006118b485828601611627565b92505060206118c5858286016116f5565b9150509250929050565b7f66656520616c7265616479207061696400000000000000000000000000000000600082015250565b600061190560108361123a565b9150611910826118cf565b602082019050919050565b60006020820190508181036000830152611934816118f8565b9050919050565b7f4e487b7100000000000000000000000000000000000000000000000000000000600052601260045260246000fd5b7f4e487b7100000000000000000000000000000000000000000000000000000000600052601160045260246000fd5b60006119a4826113d5565b91506119af836113d5565b9250826119bf576119be61193b565b5b828204905092915050565b7f70617920706c6174666f726d2066656520666972737400000000000000000000600082015250565b6000611a0060168361123a565b9150611a0b826119ca565b602082019050919050565b60006020820190508181036000830152611a2f816119f3565b9050919050565b7f6e6f206761696e00000000000000000000000000000000000000000000000000600082015250565b6000611a6c60078361123a565b9150611a7782611a36565b602082019050919050565b60006020820190508181036000830152611a9b81611a5f565b9050919050565b6000611aad826113d5565b9150611ab8836113d5565b9250828202611ac6816113d5565b91508282048414831517611add57611adc61196a565b5b5092915050565b600081519050611af3816116de565b92915050565b600060208284031215611b0f57611b0e6115d9565b5b6000611b1d84828501611ae4565b91505092915050565b7f636f6d70657469746f7220646f6e277420657869737400000000000000000000600082015250565b6000611b5c60168361123a565b9150611b6782611b26565b602082019050919050565b60006020820190508181036000830152611b8b81611b4f565b9050919050565b6000611b9d826113d5565b91507fffffffffffffffffffffffffffffffffffffffffffffffffffffffffffffffff8203611bcf57611bce61196a565b5b600182019050919050565b6000611be5826113d5565b9150611bf0836113d5565b9250828201905080821115611c0857611c0761196a565b5b92915050565b600060e082019050611c23600083018a611865565b611c30602083018961168a565b611c3d604083018861168a565b611c4a606083018761168a565b611c57608083018661168a565b611c6460a083018561168a565b611c7160c083018461168a565b98975050505050505050565b600081905092915050565b50565b6000611c98600083611c7d565b9150611ca382611c88565b600082019050919050565b6000611cb982611c8b565b9150819050919050565b7f4661696c656420746f2073656e64204574686572000000000000000000000000600082015250565b6000611cf960148361123a565b9150611d0482611cc3565b602082019050919050565b60006020820190508181036000830152611d2881611cec565b905091905056fea26469706673582212209134accc048f7693f75b40823fc578736e8f3b945a0fe6a3a71e3f2f6e162f7f64736f6c63430008150033",
  "linkReferences": {},
  "deployedLinkReferences": {}
}