{
  "_format": "hh-sol-artifact-1",
  "contractName": "SimpleBet",
  "sourceName": "contracts/SimpleBet.sol",
  "abi": [
    {
      "inputs": [
        {
          "internalType": "string",
          "name": "_compName1",
          "type": "string"
        },
        {
          "internalType": "string",
          "name": "_compName2",
          "type": "string"
        },
        {
          "internalType": "address",
          "name": "_betWavesOrganizerAddress",
          "type": "address"
        },
        {
          "internalType": "address",
          "name": "_betWaveDaoAddress",
          "type": "address"
        }
      ],
      "stateMutability": "payable",
      "type": "constructor"
    },
    {
      "inputs": [],
      "name": "alreadyBet",
      "type": "error"
    },
    {
      "inputs": [],
      "name": "feesNotPaid",
      "type": "error"
    },
    {
      "inputs": [],
      "name": "forbidden",
      "type": "error"
    },
    {
      "inputs": [],
      "name": "insufficientBalance",
      "type": "error"
    },
    {
      "inputs": [],
      "name": "minimumBetAmount",
      "type": "error"
    },
    {
      "inputs": [],
      "name": "notRegistered",
      "type": "error"
    },
    {
      "anonymous": false,
      "inputs": [
        {
          "indexed": false,
          "internalType": "address",
          "name": "",
          "type": "address"
        },
        {
          "indexed": false,
          "internalType": "uint256",
          "name": "",
          "type": "uint256"
        },
        {
          "indexed": false,
          "internalType": "uint256",
          "name": "",
          "type": "uint256"
        },
        {
          "indexed": false,
          "internalType": "uint256",
          "name": "",
          "type": "uint256"
        },
        {
          "indexed": false,
          "internalType": "uint256",
          "name": "",
          "type": "uint256"
        },
        {
          "indexed": false,
          "internalType": "uint256",
          "name": "",
          "type": "uint256"
        },
        {
          "indexed": false,
          "internalType": "uint256",
          "name": "",
          "type": "uint256"
        }
      ],
      "name": "newBid",
      "type": "event"
    },
    {
      "stateMutability": "payable",
      "type": "fallback"
    },
    {
      "inputs": [],
      "name": "beginEventTimestamp",
      "outputs": [
        {
          "internalType": "uint256",
          "name": "",
          "type": "uint256"
        }
      ],
      "stateMutability": "view",
      "type": "function"
    },
    {
      "inputs": [],
      "name": "betWaveDaoAddress",
      "outputs": [
        {
          "internalType": "address",
          "name": "",
          "type": "address"
        }
      ],
      "stateMutability": "view",
      "type": "function"
    },
    {
      "inputs": [],
      "name": "betWavesOrganizerAddress",
      "outputs": [
        {
          "internalType": "address",
          "name": "",
          "type": "address"
        }
      ],
      "stateMutability": "view",
      "type": "function"
    },
    {
      "inputs": [
        {
          "internalType": "address",
          "name": "",
          "type": "address"
        }
      ],
      "name": "bettors",
      "outputs": [
        {
          "internalType": "address payable",
          "name": "bettorAddress",
          "type": "address"
        },
        {
          "internalType": "uint256",
          "name": "betId",
          "type": "uint256"
        },
        {
          "internalType": "uint256",
          "name": "bettingAmout",
          "type": "uint256"
        },
        {
          "internalType": "uint256",
          "name": "bettingReward",
          "type": "uint256"
        }
      ],
      "stateMutability": "view",
      "type": "function"
    },
    {
      "inputs": [
        {
          "internalType": "uint256",
          "name": "_validatorFees",
          "type": "uint256"
        }
      ],
      "name": "calculateValidatorReward",
      "outputs": [
        {
          "internalType": "uint256",
          "name": "",
          "type": "uint256"
        }
      ],
      "stateMutability": "nonpayable",
      "type": "function"
    },
    {
      "inputs": [
        {
          "internalType": "uint256",
          "name": "",
          "type": "uint256"
        }
      ],
      "name": "competitors",
      "outputs": [
        {
          "internalType": "string",
          "name": "name",
          "type": "string"
        },
        {
          "internalType": "uint256",
          "name": "odd",
          "type": "uint256"
        },
        {
          "internalType": "uint256",
          "name": "betNumber",
          "type": "uint256"
        },
        {
          "internalType": "uint256",
          "name": "betAmount",
          "type": "uint256"
        }
      ],
      "stateMutability": "view",
      "type": "function"
    },
    {
      "inputs": [],
      "name": "endEventTimestamp",
      "outputs": [
        {
          "internalType": "uint256",
          "name": "",
          "type": "uint256"
        }
      ],
      "stateMutability": "view",
      "type": "function"
    },
    {
      "inputs": [],
      "name": "getContractBalance",
      "outputs": [
        {
          "internalType": "uint256",
          "name": "",
          "type": "uint256"
        }
      ],
      "stateMutability": "view",
      "type": "function"
    },
    {
      "inputs": [],
      "name": "redeemToBettor",
      "outputs": [],
      "stateMutability": "payable",
      "type": "function"
    },
    {
      "inputs": [
        {
          "internalType": "uint256",
          "name": "_plateformeFees",
          "type": "uint256"
        },
        {
          "internalType": "uint256",
          "name": "_creatorFees",
          "type": "uint256"
        },
        {
          "internalType": "address",
          "name": "_ownerAddress",
          "type": "address"
        }
      ],
      "name": "sendPlatfromAndCreatorFees",
      "outputs": [],
      "stateMutability": "nonpayable",
      "type": "function"
    },
    {
      "inputs": [
        {
          "internalType": "address",
          "name": "_validatorAddress",
          "type": "address"
        },
        {
          "internalType": "uint256",
          "name": "_validatorReward",
          "type": "uint256"
        }
      ],
      "name": "sendValidatorFees",
      "outputs": [],
      "stateMutability": "nonpayable",
      "type": "function"
    },
    {
      "inputs": [
        {
          "internalType": "uint256",
          "name": "_betId",
          "type": "uint256"
        }
      ],
      "name": "setBet",
      "outputs": [],
      "stateMutability": "payable",
      "type": "function"
    },
    {
      "inputs": [],
      "name": "setFeesBooleanToTrue",
      "outputs": [],
      "stateMutability": "nonpayable",
      "type": "function"
    },
    {
      "inputs": [
        {
          "internalType": "uint256",
          "name": "_winnerId",
          "type": "uint256"
        }
      ],
      "name": "setWinnerId",
      "outputs": [],
      "stateMutability": "nonpayable",
      "type": "function"
    },
    {
      "inputs": [],
      "name": "test",
      "outputs": [
        {
          "internalType": "uint256",
          "name": "",
          "type": "uint256"
        }
      ],
      "stateMutability": "view",
      "type": "function"
    },
    {
      "inputs": [],
      "name": "totalBet",
      "outputs": [
        {
          "internalType": "uint256",
          "name": "",
          "type": "uint256"
        }
      ],
      "stateMutability": "view",
      "type": "function"
    },
    {
      "inputs": [],
      "name": "winnerId",
      "outputs": [
        {
          "internalType": "uint256",
          "name": "",
          "type": "uint256"
        }
      ],
      "stateMutability": "view",
      "type": "function"
    },
    {
      "stateMutability": "payable",
      "type": "receive"
    }
  ],
  "bytecode": "0x6080604052604051620025d4380380620025d483398181016040528101906200002991906200037c565b81600260006101000a81548173ffffffffffffffffffffffffffffffffffffffff021916908373ffffffffffffffffffffffffffffffffffffffff16021790555080600360006101000a81548173ffffffffffffffffffffffffffffffffffffffff021916908373ffffffffffffffffffffffffffffffffffffffff16021790555083600960008081526020019081526020016000206000019081620000d0919062000677565b508260096000600181526020019081526020016000206000019081620000f7919062000677565b5081600b60006101000a81548173ffffffffffffffffffffffffffffffffffffffff021916908373ffffffffffffffffffffffffffffffffffffffff16021790555080600c60006101000a81548173ffffffffffffffffffffffffffffffffffffffff021916908373ffffffffffffffffffffffffffffffffffffffff160217905550505050506200075e565b6000604051905090565b600080fd5b600080fd5b600080fd5b600080fd5b6000601f19601f8301169050919050565b7f4e487b7100000000000000000000000000000000000000000000000000000000600052604160045260246000fd5b620001ed82620001a2565b810181811067ffffffffffffffff821117156200020f576200020e620001b3565b5b80604052505050565b60006200022462000184565b9050620002328282620001e2565b919050565b600067ffffffffffffffff821115620002555762000254620001b3565b5b6200026082620001a2565b9050602081019050919050565b60005b838110156200028d57808201518184015260208101905062000270565b60008484015250505050565b6000620002b0620002aa8462000237565b62000218565b905082815260208101848484011115620002cf57620002ce6200019d565b5b620002dc8482856200026d565b509392505050565b600082601f830112620002fc57620002fb62000198565b5b81516200030e84826020860162000299565b91505092915050565b600073ffffffffffffffffffffffffffffffffffffffff82169050919050565b6000620003448262000317565b9050919050565b620003568162000337565b81146200036257600080fd5b50565b60008151905062000376816200034b565b92915050565b600080600080608085870312156200039957620003986200018e565b5b600085015167ffffffffffffffff811115620003ba57620003b962000193565b5b620003c887828801620002e4565b945050602085015167ffffffffffffffff811115620003ec57620003eb62000193565b5b620003fa87828801620002e4565b93505060406200040d8782880162000365565b9250506060620004208782880162000365565b91505092959194509250565b600081519050919050565b7f4e487b7100000000000000000000000000000000000000000000000000000000600052602260045260246000fd5b600060028204905060018216806200047f57607f821691505b60208210810362000495576200049462000437565b5b50919050565b60008190508160005260206000209050919050565b60006020601f8301049050919050565b600082821b905092915050565b600060088302620004ff7fffffffffffffffffffffffffffffffffffffffffffffffffffffffffffffffff82620004c0565b6200050b8683620004c0565b95508019841693508086168417925050509392505050565b6000819050919050565b6000819050919050565b600062000558620005526200054c8462000523565b6200052d565b62000523565b9050919050565b6000819050919050565b620005748362000537565b6200058c62000583826200055f565b848454620004cd565b825550505050565b600090565b620005a362000594565b620005b081848462000569565b505050565b5b81811015620005d857620005cc60008262000599565b600181019050620005b6565b5050565b601f8211156200062757620005f1816200049b565b620005fc84620004b0565b810160208510156200060c578190505b620006246200061b85620004b0565b830182620005b5565b50505b505050565b600082821c905092915050565b60006200064c600019846008026200062c565b1980831691505092915050565b600062000667838362000639565b9150826002028217905092915050565b62000682826200042c565b67ffffffffffffffff8111156200069e576200069d620001b3565b5b620006aa825462000466565b620006b7828285620005dc565b600060209050601f831160018114620006ef5760008415620006da578287015190505b620006e6858262000659565b86555062000756565b601f198416620006ff866200049b565b60005b82811015620007295784890151825560018201915060208501945060208101905062000702565b8683101562000749578489015162000745601f89168262000639565b8355505b6001600288020188555050505b505050505050565b611e66806200076e6000396000f3fe6080604052600436106101025760003560e01c8063ad05d9c311610095578063dc09f68211610064578063dc09f682146103c7578063e8399cc6146103f0578063ebfb66521461040c578063f8a8fd6d14610449578063fe5e1853146104745761018c565b8063ad05d9c31461033e578063c6073c6614610348578063cf95942914610373578063d93e03b01461039c5761018c565b80639d86801f116100d15780639d86801f14610291578063a14de028146102d1578063a32b3487146102fc578063a99073ae146103275761018c565b806322010c1f146101d25780635c3a3e5c146102125780636f9fb98a1461023b57806391e0d593146102665761018c565b3661018c57640b68a0aa003411610145576040517f78e9f1ba00000000000000000000000000000000000000000000000000000000815260040160405180910390fd5b61c35034101561018a576040517f08c379a000000000000000000000000000000000000000000000000000000000815260040161018190611398565b60405180910390fd5b005b6040518060400160405280601e81526020017f46616c6c6261636b2066756e6374696f6e206973206578656375746564210000815250600090816101d09190611608565b005b3480156101de57600080fd5b506101f960048036038101906101f4919061173d565b61049f565b604051610209949392919061179a565b60405180910390f35b34801561021e57600080fd5b506102396004803603810190610234919061180b565b6104ef565b005b34801561024757600080fd5b5061025061066a565b60405161025d919061185e565b60405180910390f35b34801561027257600080fd5b5061027b610672565b604051610288919061185e565b60405180910390f35b34801561029d57600080fd5b506102b860048036038101906102b39190611879565b610678565b6040516102c8949392919061191a565b60405180910390f35b3480156102dd57600080fd5b506102e6610730565b6040516102f3919061185e565b60405180910390f35b34801561030857600080fd5b50610311610736565b60405161031e919061185e565b60405180910390f35b34801561033357600080fd5b5061033c61073c565b005b6103466107e8565b005b34801561035457600080fd5b5061035d6109f3565b60405161036a9190611975565b60405180910390f35b34801561037f57600080fd5b5061039a60048036038101906103959190611990565b610a19565b005b3480156103a857600080fd5b506103b1610af0565b6040516103be9190611975565b60405180910390f35b3480156103d357600080fd5b506103ee60048036038101906103e99190611879565b610b16565b005b61040a60048036038101906104059190611879565b610ba7565b005b34801561041857600080fd5b50610433600480360381019061042e9190611879565b610f7e565b604051610440919061185e565b60405180910390f35b34801561045557600080fd5b5061045e611053565b60405161046b919061185e565b60405180910390f35b34801561048057600080fd5b50610489611059565b604051610496919061185e565b60405180910390f35b600a6020528060005260406000206000915090508060000160009054906101000a900473ffffffffffffffffffffffffffffffffffffffff16908060010154908060020154908060030154905084565b60004711610529576040517f47108e3e00000000000000000000000000000000000000000000000000000000815260040160405180910390fd5b600b60009054906101000a900473ffffffffffffffffffffffffffffffffffffffff1673ffffffffffffffffffffffffffffffffffffffff163373ffffffffffffffffffffffffffffffffffffffff16146105b0576040517f8679b0c000000000000000000000000000000000000000000000000000000000815260040160405180910390fd5b600c60149054906101000a900460ff1615610600576040517f08c379a00000000000000000000000000000000000000000000000000000000081526004016105f790611a1c565b60405180910390fd5b600061060a61066a565b90506000848261061a9190611a9a565b90506000848361062a9190611a9a565b9050610658600c60009054906101000a900473ffffffffffffffffffffffffffffffffffffffff168361105f565b610662848261105f565b505050505050565b600047905090565b60075481565b600960205280600052604060002060009150905080600001805461069b90611421565b80601f01602080910402602001604051908101604052809291908181526020018280546106c790611421565b80156107145780601f106106e957610100808354040283529160200191610714565b820191906000526020600020905b8154815290600101906020018083116106f757829003601f168201915b5050505050908060010154908060020154908060030154905084565b60045481565b60055481565b600b60009054906101000a900473ffffffffffffffffffffffffffffffffffffffff1673ffffffffffffffffffffffffffffffffffffffff163373ffffffffffffffffffffffffffffffffffffffff16146107c3576040517f8679b0c000000000000000000000000000000000000000000000000000000000815260040160405180910390fd5b6001600c60146101000a81548160ff0219169083151502179055506107e6611113565b565b600c60149054906101000a900460ff1661082e576040517f0541f1f000000000000000000000000000000000000000000000000000000000815260040160405180910390fd5b600c60149054906101000a900460ff1661087d576040517f08c379a000000000000000000000000000000000000000000000000000000000815260040161087490611b17565b60405180910390fd5b600754600a60003373ffffffffffffffffffffffffffffffffffffffff1673ffffffffffffffffffffffffffffffffffffffff1681526020019081526020016000206001015414610903576040517f08c379a00000000000000000000000000000000000000000000000000000000081526004016108fa90611b83565b60405180910390fd5b6064600854600a60003373ffffffffffffffffffffffffffffffffffffffff1673ffffffffffffffffffffffffffffffffffffffff168152602001908152602001600020600201546109559190611ba3565b61095f9190611a9a565b600a60003373ffffffffffffffffffffffffffffffffffffffff1673ffffffffffffffffffffffffffffffffffffffff168152602001908152602001600020600301819055506109f133600a60003373ffffffffffffffffffffffffffffffffffffffff1673ffffffffffffffffffffffffffffffffffffffff1681526020019081526020016000206003015461105f565b565b600b60009054906101000a900473ffffffffffffffffffffffffffffffffffffffff1681565b600b60009054906101000a900473ffffffffffffffffffffffffffffffffffffffff1673ffffffffffffffffffffffffffffffffffffffff163373ffffffffffffffffffffffffffffffffffffffff1614610aa0576040517f8679b0c000000000000000000000000000000000000000000000000000000000815260040160405180910390fd5b60004711610ada576040517f47108e3e00000000000000000000000000000000000000000000000000000000815260040160405180910390fd5b610ae4828261105f565b6002600d819055505050565b600c60009054906101000a900473ffffffffffffffffffffffffffffffffffffffff1681565b600b60009054906101000a900473ffffffffffffffffffffffffffffffffffffffff1673ffffffffffffffffffffffffffffffffffffffff163373ffffffffffffffffffffffffffffffffffffffff1614610b9d576040517f8679b0c000000000000000000000000000000000000000000000000000000000815260040160405180910390fd5b8060078190555050565b343373ffffffffffffffffffffffffffffffffffffffff16311015610bf8576040517f47108e3e00000000000000000000000000000000000000000000000000000000815260040160405180910390fd5b640b68a0aa003411610c36576040517f78e9f1ba00000000000000000000000000000000000000000000000000000000815260040160405180910390fd5b3373ffffffffffffffffffffffffffffffffffffffff16600a60003373ffffffffffffffffffffffffffffffffffffffff1673ffffffffffffffffffffffffffffffffffffffff16815260200190815260200160002060000160009054906101000a900473ffffffffffffffffffffffffffffffffffffffff1673ffffffffffffffffffffffffffffffffffffffff1603610cfd576040517f8424505800000000000000000000000000000000000000000000000000000000815260040160405180910390fd5b6000600360009054906101000a900473ffffffffffffffffffffffffffffffffffffffff1673ffffffffffffffffffffffffffffffffffffffff16630b4805d3336040518263ffffffff1660e01b8152600401610d5a9190611975565b602060405180830381865afa158015610d77573d6000803e3d6000fd5b505050506040513d601f19601f82011682018060405250810190610d9b9190611bfa565b03610dd2576040517f3a70817d00000000000000000000000000000000000000000000000000000000815260040160405180910390fd5b6001811115610e16576040517f08c379a0000000000000000000000000000000000000000000000000000000008152600401610e0d90611c73565b60405180910390fd5b610e20303461105f565b60066000815480929190610e3390611c93565b9190505550600960008281526020019081526020016000206002016000815480929190610e5f90611c93565b9190505550346009600083815260200190815260200160002060030154610e869190611cdb565b6009600083815260200190815260200160002060030181905550610ea8611191565b610eb181611229565b7fbabd4d8ad6be16c6a1ac0b279aaad4eb273f40de86a3c6ac350147fc9bbdbda330600960008081526020019081526020016000206002015460096000808152602001908152602001600020600301546009600080815260200190815260200160002060010154600960006001815260200190815260200160002060020154600960006001815260200190815260200160002060030154600960006001815260200190815260200160002060010154604051610f739796959493929190611d0f565b60405180910390a150565b6000804711610fb9576040517f47108e3e00000000000000000000000000000000000000000000000000000000815260040160405180910390fd5b600b60009054906101000a900473ffffffffffffffffffffffffffffffffffffffff1673ffffffffffffffffffffffffffffffffffffffff163373ffffffffffffffffffffffffffffffffffffffff1614611040576040517f8679b0c000000000000000000000000000000000000000000000000000000000815260040160405180910390fd5b814761104c9190611a9a565b9050919050565b600d5481565b60065481565b6000808373ffffffffffffffffffffffffffffffffffffffff168360405161108690611daf565b60006040518083038185875af1925050503d80600081146110c3576040519150601f19603f3d011682016040523d82523d6000602084013e6110c8565b606091505b50915091508161110d576040517f08c379a000000000000000000000000000000000000000000000000000000000815260040161110490611e10565b60405180910390fd5b50505050565b600c60149054906101000a900460ff16611159576040517f0541f1f000000000000000000000000000000000000000000000000000000000815260040160405180910390fd5b6009600060075481526020019081526020016000206003015460644761117f9190611ba3565b6111899190611a9a565b600881905550565b600654606460096000808152602001908152602001600020600201546111b79190611ba3565b6111c19190611a9a565b600960008081526020019081526020016000206001018190555060065460646009600060018152602001908152602001600020600201546112029190611ba3565b61120c9190611a9a565b600960006001815260200190815260200160002060010181905550565b33600a60003373ffffffffffffffffffffffffffffffffffffffff1673ffffffffffffffffffffffffffffffffffffffff16815260200190815260200160002060000160006101000a81548173ffffffffffffffffffffffffffffffffffffffff021916908373ffffffffffffffffffffffffffffffffffffffff16021790555080600a60003373ffffffffffffffffffffffffffffffffffffffff1673ffffffffffffffffffffffffffffffffffffffff1681526020019081526020016000206001018190555034600a60003373ffffffffffffffffffffffffffffffffffffffff1673ffffffffffffffffffffffffffffffffffffffff1681526020019081526020016000206002018190555050565b600082825260208201905092915050565b7f796f752063616e27742073656e64206c657373207468616e2035306b20776569600082015250565b600061138260208361133b565b915061138d8261134c565b602082019050919050565b600060208201905081810360008301526113b181611375565b9050919050565b600081519050919050565b7f4e487b7100000000000000000000000000000000000000000000000000000000600052604160045260246000fd5b7f4e487b7100000000000000000000000000000000000000000000000000000000600052602260045260246000fd5b6000600282049050600182168061143957607f821691505b60208210810361144c5761144b6113f2565b5b50919050565b60008190508160005260206000209050919050565b60006020601f8301049050919050565b600082821b905092915050565b6000600883026114b47fffffffffffffffffffffffffffffffffffffffffffffffffffffffffffffffff82611477565b6114be8683611477565b95508019841693508086168417925050509392505050565b6000819050919050565b6000819050919050565b60006115056115006114fb846114d6565b6114e0565b6114d6565b9050919050565b6000819050919050565b61151f836114ea565b61153361152b8261150c565b848454611484565b825550505050565b600090565b61154861153b565b611553818484611516565b505050565b5b818110156115775761156c600082611540565b600181019050611559565b5050565b601f8211156115bc5761158d81611452565b61159684611467565b810160208510156115a5578190505b6115b96115b185611467565b830182611558565b50505b505050565b600082821c905092915050565b60006115df600019846008026115c1565b1980831691505092915050565b60006115f883836115ce565b9150826002028217905092915050565b611611826113b8565b67ffffffffffffffff81111561162a576116296113c3565b5b6116348254611421565b61163f82828561157b565b600060209050601f8311600181146116725760008415611660578287015190505b61166a85826115ec565b8655506116d2565b601f19841661168086611452565b60005b828110156116a857848901518255600182019150602085019450602081019050611683565b868310156116c557848901516116c1601f8916826115ce565b8355505b6001600288020188555050505b505050505050565b600080fd5b600073ffffffffffffffffffffffffffffffffffffffff82169050919050565b600061170a826116df565b9050919050565b61171a816116ff565b811461172557600080fd5b50565b60008135905061173781611711565b92915050565b600060208284031215611753576117526116da565b5b600061176184828501611728565b91505092915050565b6000611775826116df565b9050919050565b6117858161176a565b82525050565b611794816114d6565b82525050565b60006080820190506117af600083018761177c565b6117bc602083018661178b565b6117c9604083018561178b565b6117d6606083018461178b565b95945050505050565b6117e8816114d6565b81146117f357600080fd5b50565b600081359050611805816117df565b92915050565b600080600060608486031215611824576118236116da565b5b6000611832868287016117f6565b9350506020611843868287016117f6565b925050604061185486828701611728565b9150509250925092565b6000602082019050611873600083018461178b565b92915050565b60006020828403121561188f5761188e6116da565b5b600061189d848285016117f6565b91505092915050565b60005b838110156118c45780820151818401526020810190506118a9565b60008484015250505050565b6000601f19601f8301169050919050565b60006118ec826113b8565b6118f6818561133b565b93506119068185602086016118a6565b61190f816118d0565b840191505092915050565b6000608082019050818103600083015261193481876118e1565b9050611943602083018661178b565b611950604083018561178b565b61195d606083018461178b565b95945050505050565b61196f816116ff565b82525050565b600060208201905061198a6000830184611966565b92915050565b600080604083850312156119a7576119a66116da565b5b60006119b585828601611728565b92505060206119c6858286016117f6565b9150509250929050565b7f66656520616c7265616479207061696400000000000000000000000000000000600082015250565b6000611a0660108361133b565b9150611a11826119d0565b602082019050919050565b60006020820190508181036000830152611a35816119f9565b9050919050565b7f4e487b7100000000000000000000000000000000000000000000000000000000600052601260045260246000fd5b7f4e487b7100000000000000000000000000000000000000000000000000000000600052601160045260246000fd5b6000611aa5826114d6565b9150611ab0836114d6565b925082611ac057611abf611a3c565b5b828204905092915050565b7f70617920706c6174666f726d2066656520666972737400000000000000000000600082015250565b6000611b0160168361133b565b9150611b0c82611acb565b602082019050919050565b60006020820190508181036000830152611b3081611af4565b9050919050565b7f6e6f206761696e00000000000000000000000000000000000000000000000000600082015250565b6000611b6d60078361133b565b9150611b7882611b37565b602082019050919050565b60006020820190508181036000830152611b9c81611b60565b9050919050565b6000611bae826114d6565b9150611bb9836114d6565b9250828202611bc7816114d6565b91508282048414831517611bde57611bdd611a6b565b5b5092915050565b600081519050611bf4816117df565b92915050565b600060208284031215611c1057611c0f6116da565b5b6000611c1e84828501611be5565b91505092915050565b7f636f6d70657469746f7220646f6e277420657869737400000000000000000000600082015250565b6000611c5d60168361133b565b9150611c6882611c27565b602082019050919050565b60006020820190508181036000830152611c8c81611c50565b9050919050565b6000611c9e826114d6565b91507fffffffffffffffffffffffffffffffffffffffffffffffffffffffffffffffff8203611cd057611ccf611a6b565b5b600182019050919050565b6000611ce6826114d6565b9150611cf1836114d6565b9250828201905080821115611d0957611d08611a6b565b5b92915050565b600060e082019050611d24600083018a611966565b611d31602083018961178b565b611d3e604083018861178b565b611d4b606083018761178b565b611d58608083018661178b565b611d6560a083018561178b565b611d7260c083018461178b565b98975050505050505050565b600081905092915050565b50565b6000611d99600083611d7e565b9150611da482611d89565b600082019050919050565b6000611dba82611d8c565b9150819050919050565b7f4661696c656420746f2073656e64204574686572000000000000000000000000600082015250565b6000611dfa60148361133b565b9150611e0582611dc4565b602082019050919050565b60006020820190508181036000830152611e2981611ded565b905091905056fea2646970667358221220ded3aaa65fdd8d4576350cfb57f8a260bf35bc1cc419f6f8bbd0a58e47bb9e7864736f6c63430008150033",
  "linkReferences": {},
  "deployedLinkReferences": {}
}