{
  "_format": "hh-sol-artifact-1",
  "contractName": "SimpleBet",
  "sourceName": "contracts/SimpleBet.sol",
  "abi": [
    {
      "inputs": [
        {
          "internalType": "string",
          "name": "_compName1",
          "type": "string"
        },
        {
          "internalType": "string",
          "name": "_compName2",
          "type": "string"
        },
        {
          "internalType": "address",
          "name": "_betWavesOrganizerAddress",
          "type": "address"
        },
        {
          "internalType": "address",
          "name": "_betWaveDaoAddress",
          "type": "address"
        }
      ],
      "stateMutability": "payable",
      "type": "constructor"
    },
    {
      "inputs": [],
      "name": "alreadyBet",
      "type": "error"
    },
    {
      "inputs": [],
      "name": "feesNotPaid",
      "type": "error"
    },
    {
      "inputs": [],
      "name": "forbidden",
      "type": "error"
    },
    {
      "inputs": [],
      "name": "insufficientBalance",
      "type": "error"
    },
    {
      "inputs": [],
      "name": "minimumBetAmount",
      "type": "error"
    },
    {
      "inputs": [],
      "name": "notRegistered",
      "type": "error"
    },
    {
      "stateMutability": "payable",
      "type": "fallback"
    },
    {
      "inputs": [],
      "name": "beginEventTimestamp",
      "outputs": [
        {
          "internalType": "uint256",
          "name": "",
          "type": "uint256"
        }
      ],
      "stateMutability": "view",
      "type": "function"
    },
    {
      "inputs": [],
      "name": "betWaveDaoAddress",
      "outputs": [
        {
          "internalType": "address",
          "name": "",
          "type": "address"
        }
      ],
      "stateMutability": "view",
      "type": "function"
    },
    {
      "inputs": [],
      "name": "betWavesOrganizerAddress",
      "outputs": [
        {
          "internalType": "address",
          "name": "",
          "type": "address"
        }
      ],
      "stateMutability": "view",
      "type": "function"
    },
    {
      "inputs": [
        {
          "internalType": "address",
          "name": "",
          "type": "address"
        }
      ],
      "name": "bettors",
      "outputs": [
        {
          "internalType": "address payable",
          "name": "bettorAddress",
          "type": "address"
        },
        {
          "internalType": "uint256",
          "name": "betId",
          "type": "uint256"
        },
        {
          "internalType": "uint256",
          "name": "bettingAmout",
          "type": "uint256"
        },
        {
          "internalType": "uint256",
          "name": "bettingReward",
          "type": "uint256"
        }
      ],
      "stateMutability": "view",
      "type": "function"
    },
    {
      "inputs": [
        {
          "internalType": "uint256",
          "name": "_validatorFees",
          "type": "uint256"
        }
      ],
      "name": "calculateValidatorReward",
      "outputs": [
        {
          "internalType": "uint256",
          "name": "",
          "type": "uint256"
        }
      ],
      "stateMutability": "view",
      "type": "function"
    },
    {
      "inputs": [
        {
          "internalType": "uint256",
          "name": "",
          "type": "uint256"
        }
      ],
      "name": "competitors",
      "outputs": [
        {
          "internalType": "string",
          "name": "name",
          "type": "string"
        },
        {
          "internalType": "uint256",
          "name": "odd",
          "type": "uint256"
        },
        {
          "internalType": "uint256",
          "name": "betNumber",
          "type": "uint256"
        },
        {
          "internalType": "uint256",
          "name": "betAmount",
          "type": "uint256"
        }
      ],
      "stateMutability": "view",
      "type": "function"
    },
    {
      "inputs": [],
      "name": "endEventTimestamp",
      "outputs": [
        {
          "internalType": "uint256",
          "name": "",
          "type": "uint256"
        }
      ],
      "stateMutability": "view",
      "type": "function"
    },
    {
      "inputs": [],
      "name": "getContractBalance",
      "outputs": [
        {
          "internalType": "uint256",
          "name": "",
          "type": "uint256"
        }
      ],
      "stateMutability": "view",
      "type": "function"
    },
    {
      "inputs": [],
      "name": "redeemToBettor",
      "outputs": [],
      "stateMutability": "payable",
      "type": "function"
    },
    {
      "inputs": [
        {
          "internalType": "uint256",
          "name": "_plateformeFees",
          "type": "uint256"
        },
        {
          "internalType": "uint256",
          "name": "_creatorFees",
          "type": "uint256"
        }
      ],
      "name": "sendPlatfromAndCreatorFees",
      "outputs": [],
      "stateMutability": "nonpayable",
      "type": "function"
    },
    {
      "inputs": [
        {
          "internalType": "address",
          "name": "_validatorAddress",
          "type": "address"
        },
        {
          "internalType": "uint256",
          "name": "_validatorReward",
          "type": "uint256"
        }
      ],
      "name": "sendValidatorFees",
      "outputs": [],
      "stateMutability": "nonpayable",
      "type": "function"
    },
    {
      "inputs": [
        {
          "internalType": "uint256",
          "name": "_betId",
          "type": "uint256"
        }
      ],
      "name": "setBet",
      "outputs": [],
      "stateMutability": "payable",
      "type": "function"
    },
    {
      "inputs": [],
      "name": "setFeesBooleanToTrue",
      "outputs": [],
      "stateMutability": "nonpayable",
      "type": "function"
    },
    {
      "inputs": [],
      "name": "totalBet",
      "outputs": [
        {
          "internalType": "uint256",
          "name": "",
          "type": "uint256"
        }
      ],
      "stateMutability": "view",
      "type": "function"
    },
    {
      "stateMutability": "payable",
      "type": "receive"
    }
  ],
  "bytecode": "0x6080604052604051620023643803806200236483398181016040528101906200002991906200037c565b81600260006101000a81548173ffffffffffffffffffffffffffffffffffffffff021916908373ffffffffffffffffffffffffffffffffffffffff16021790555080600360006101000a81548173ffffffffffffffffffffffffffffffffffffffff021916908373ffffffffffffffffffffffffffffffffffffffff16021790555083600960008081526020019081526020016000206000019081620000d0919062000677565b508260096000600181526020019081526020016000206000019081620000f7919062000677565b5081600b60006101000a81548173ffffffffffffffffffffffffffffffffffffffff021916908373ffffffffffffffffffffffffffffffffffffffff16021790555080600c60006101000a81548173ffffffffffffffffffffffffffffffffffffffff021916908373ffffffffffffffffffffffffffffffffffffffff160217905550505050506200075e565b6000604051905090565b600080fd5b600080fd5b600080fd5b600080fd5b6000601f19601f8301169050919050565b7f4e487b7100000000000000000000000000000000000000000000000000000000600052604160045260246000fd5b620001ed82620001a2565b810181811067ffffffffffffffff821117156200020f576200020e620001b3565b5b80604052505050565b60006200022462000184565b9050620002328282620001e2565b919050565b600067ffffffffffffffff821115620002555762000254620001b3565b5b6200026082620001a2565b9050602081019050919050565b60005b838110156200028d57808201518184015260208101905062000270565b60008484015250505050565b6000620002b0620002aa8462000237565b62000218565b905082815260208101848484011115620002cf57620002ce6200019d565b5b620002dc8482856200026d565b509392505050565b600082601f830112620002fc57620002fb62000198565b5b81516200030e84826020860162000299565b91505092915050565b600073ffffffffffffffffffffffffffffffffffffffff82169050919050565b6000620003448262000317565b9050919050565b620003568162000337565b81146200036257600080fd5b50565b60008151905062000376816200034b565b92915050565b600080600080608085870312156200039957620003986200018e565b5b600085015167ffffffffffffffff811115620003ba57620003b962000193565b5b620003c887828801620002e4565b945050602085015167ffffffffffffffff811115620003ec57620003eb62000193565b5b620003fa87828801620002e4565b93505060406200040d8782880162000365565b9250506060620004208782880162000365565b91505092959194509250565b600081519050919050565b7f4e487b7100000000000000000000000000000000000000000000000000000000600052602260045260246000fd5b600060028204905060018216806200047f57607f821691505b60208210810362000495576200049462000437565b5b50919050565b60008190508160005260206000209050919050565b60006020601f8301049050919050565b600082821b905092915050565b600060088302620004ff7fffffffffffffffffffffffffffffffffffffffffffffffffffffffffffffffff82620004c0565b6200050b8683620004c0565b95508019841693508086168417925050509392505050565b6000819050919050565b6000819050919050565b600062000558620005526200054c8462000523565b6200052d565b62000523565b9050919050565b6000819050919050565b620005748362000537565b6200058c62000583826200055f565b848454620004cd565b825550505050565b600090565b620005a362000594565b620005b081848462000569565b505050565b5b81811015620005d857620005cc60008262000599565b600181019050620005b6565b5050565b601f8211156200062757620005f1816200049b565b620005fc84620004b0565b810160208510156200060c578190505b620006246200061b85620004b0565b830182620005b5565b50505b505050565b600082821c905092915050565b60006200064c600019846008026200062c565b1980831691505092915050565b600062000667838362000639565b9150826002028217905092915050565b62000682826200042c565b67ffffffffffffffff8111156200069e576200069d620001b3565b5b620006aa825462000466565b620006b7828285620005dc565b600060209050601f831160018114620006ef5760008415620006da578287015190505b620006e6858262000659565b86555062000756565b601f198416620006ff866200049b565b60005b82811015620007295784890151825560018201915060208501945060208101905062000702565b8683101562000749578489015162000745601f89168262000639565b8355505b6001600288020188555050505b505050505050565b611bf6806200076e6000396000f3fe6080604052600436106100e15760003560e01c8063ad05d9c31161007f578063d93e03b011610059578063d93e03b014610350578063e8399cc61461037b578063ebfb665214610397578063fe5e1853146103d45761016b565b8063ad05d9c3146102f2578063c6073c66146102fc578063cf959429146103275761016b565b80639d86801f116100bb5780639d86801f14610245578063a14de02814610285578063a32b3487146102b0578063a99073ae146102db5761016b565b80631df79b65146101b157806322010c1f146101da5780636f9fb98a1461021a5761016b565b3661016b57640b68a0aa003411610124576040517f78e9f1ba00000000000000000000000000000000000000000000000000000000815260040160405180910390fd5b61c350341015610169576040517f08c379a0000000000000000000000000000000000000000000000000000000008152600401610160906111aa565b60405180910390fd5b005b6040518060400160405280601e81526020017f46616c6c6261636b2066756e6374696f6e206973206578656375746564210000815250600090816101af919061141a565b005b3480156101bd57600080fd5b506101d860048036038101906101d3919061151d565b6103ff565b005b3480156101e657600080fd5b5061020160048036038101906101fc91906115bb565b61059b565b6040516102119493929190611618565b60405180910390f35b34801561022657600080fd5b5061022f6105eb565b60405161023c919061165d565b60405180910390f35b34801561025157600080fd5b5061026c60048036038101906102679190611678565b6105f3565b60405161027c9493929190611719565b60405180910390f35b34801561029157600080fd5b5061029a6106ab565b6040516102a7919061165d565b60405180910390f35b3480156102bc57600080fd5b506102c56106b1565b6040516102d2919061165d565b60405180910390f35b3480156102e757600080fd5b506102f06106b7565b005b6102fa610763565b005b34801561030857600080fd5b5061031161096e565b60405161031e9190611774565b60405180910390f35b34801561033357600080fd5b5061034e6004803603810190610349919061178f565b610994565b005b34801561035c57600080fd5b50610365610a63565b6040516103729190611774565b60405180910390f35b61039560048036038101906103909190611678565b610a89565b005b3480156103a357600080fd5b506103be60048036038101906103b99190611678565b610d96565b6040516103cb919061165d565b60405180910390f35b3480156103e057600080fd5b506103e9610e6b565b6040516103f6919061165d565b60405180910390f35b60004711610439576040517f47108e3e00000000000000000000000000000000000000000000000000000000815260040160405180910390fd5b600b60009054906101000a900473ffffffffffffffffffffffffffffffffffffffff1673ffffffffffffffffffffffffffffffffffffffff163373ffffffffffffffffffffffffffffffffffffffff16146104c0576040517f8679b0c000000000000000000000000000000000000000000000000000000000815260040160405180910390fd5b600c60149054906101000a900460ff1615610510576040517f08c379a00000000000000000000000000000000000000000000000000000000081526004016105079061181b565b60405180910390fd5b600061051a6105eb565b90506000838261052a9190611899565b90506000838361053a9190611899565b9050610568600c60009054906101000a900473ffffffffffffffffffffffffffffffffffffffff1683610e71565b610594600c60009054906101000a900473ffffffffffffffffffffffffffffffffffffffff1682610e71565b5050505050565b600a6020528060005260406000206000915090508060000160009054906101000a900473ffffffffffffffffffffffffffffffffffffffff16908060010154908060020154908060030154905084565b600047905090565b600960205280600052604060002060009150905080600001805461061690611233565b80601f016020809104026020016040519081016040528092919081815260200182805461064290611233565b801561068f5780601f106106645761010080835404028352916020019161068f565b820191906000526020600020905b81548152906001019060200180831161067257829003601f168201915b5050505050908060010154908060020154908060030154905084565b60045481565b60055481565b600b60009054906101000a900473ffffffffffffffffffffffffffffffffffffffff1673ffffffffffffffffffffffffffffffffffffffff163373ffffffffffffffffffffffffffffffffffffffff161461073e576040517f8679b0c000000000000000000000000000000000000000000000000000000000815260040160405180910390fd5b6001600c60146101000a81548160ff021916908315150217905550610761610f25565b565b600c60149054906101000a900460ff166107a9576040517f0541f1f000000000000000000000000000000000000000000000000000000000815260040160405180910390fd5b600c60149054906101000a900460ff166107f8576040517f08c379a00000000000000000000000000000000000000000000000000000000081526004016107ef90611916565b60405180910390fd5b600754600a60003373ffffffffffffffffffffffffffffffffffffffff1673ffffffffffffffffffffffffffffffffffffffff168152602001908152602001600020600101541461087e576040517f08c379a000000000000000000000000000000000000000000000000000000000815260040161087590611982565b60405180910390fd5b6064600854600a60003373ffffffffffffffffffffffffffffffffffffffff1673ffffffffffffffffffffffffffffffffffffffff168152602001908152602001600020600201546108d091906119a2565b6108da9190611899565b600a60003373ffffffffffffffffffffffffffffffffffffffff1673ffffffffffffffffffffffffffffffffffffffff1681526020019081526020016000206003018190555061096c33600a60003373ffffffffffffffffffffffffffffffffffffffff1673ffffffffffffffffffffffffffffffffffffffff16815260200190815260200160002060030154610e71565b565b600b60009054906101000a900473ffffffffffffffffffffffffffffffffffffffff1681565b600b60009054906101000a900473ffffffffffffffffffffffffffffffffffffffff1673ffffffffffffffffffffffffffffffffffffffff163373ffffffffffffffffffffffffffffffffffffffff1614610a1b576040517f8679b0c000000000000000000000000000000000000000000000000000000000815260040160405180910390fd5b60004711610a55576040517f47108e3e00000000000000000000000000000000000000000000000000000000815260040160405180910390fd5b610a5f8282610e71565b5050565b600c60009054906101000a900473ffffffffffffffffffffffffffffffffffffffff1681565b343373ffffffffffffffffffffffffffffffffffffffff16311015610ada576040517f47108e3e00000000000000000000000000000000000000000000000000000000815260040160405180910390fd5b640b68a0aa003411610b18576040517f78e9f1ba00000000000000000000000000000000000000000000000000000000815260040160405180910390fd5b3373ffffffffffffffffffffffffffffffffffffffff16600a60003373ffffffffffffffffffffffffffffffffffffffff1673ffffffffffffffffffffffffffffffffffffffff16815260200190815260200160002060000160009054906101000a900473ffffffffffffffffffffffffffffffffffffffff1673ffffffffffffffffffffffffffffffffffffffff1603610bdf576040517f8424505800000000000000000000000000000000000000000000000000000000815260040160405180910390fd5b6000600360009054906101000a900473ffffffffffffffffffffffffffffffffffffffff1673ffffffffffffffffffffffffffffffffffffffff16630b4805d3336040518263ffffffff1660e01b8152600401610c3c9190611774565b602060405180830381865afa158015610c59573d6000803e3d6000fd5b505050506040513d601f19601f82011682018060405250810190610c7d91906119f9565b03610cb4576040517f3a70817d00000000000000000000000000000000000000000000000000000000815260040160405180910390fd5b6001811115610cf8576040517f08c379a0000000000000000000000000000000000000000000000000000000008152600401610cef90611a72565b60405180910390fd5b610d023034610e71565b60066000815480929190610d1590611a92565b9190505550600960008281526020019081526020016000206002016000815480929190610d4190611a92565b9190505550346009600083815260200190815260200160002060030154610d689190611ada565b6009600083815260200190815260200160002060030181905550610d8a610fa3565b610d938161103b565b50565b6000804711610dd1576040517f47108e3e00000000000000000000000000000000000000000000000000000000815260040160405180910390fd5b600b60009054906101000a900473ffffffffffffffffffffffffffffffffffffffff1673ffffffffffffffffffffffffffffffffffffffff163373ffffffffffffffffffffffffffffffffffffffff1614610e58576040517f8679b0c000000000000000000000000000000000000000000000000000000000815260040160405180910390fd5b8147610e649190611899565b9050919050565b60065481565b6000808373ffffffffffffffffffffffffffffffffffffffff1683604051610e9890611b3f565b60006040518083038185875af1925050503d8060008114610ed5576040519150601f19603f3d011682016040523d82523d6000602084013e610eda565b606091505b509150915081610f1f576040517f08c379a0000000000000000000000000000000000000000000000000000000008152600401610f1690611ba0565b60405180910390fd5b50505050565b600c60149054906101000a900460ff16610f6b576040517f0541f1f000000000000000000000000000000000000000000000000000000000815260040160405180910390fd5b60096000600754815260200190815260200160002060030154606447610f9191906119a2565b610f9b9190611899565b600881905550565b60065460646009600080815260200190815260200160002060020154610fc991906119a2565b610fd39190611899565b6009600080815260200190815260200160002060010181905550600654606460096000600181526020019081526020016000206002015461101491906119a2565b61101e9190611899565b600960006001815260200190815260200160002060010181905550565b33600a60003373ffffffffffffffffffffffffffffffffffffffff1673ffffffffffffffffffffffffffffffffffffffff16815260200190815260200160002060000160006101000a81548173ffffffffffffffffffffffffffffffffffffffff021916908373ffffffffffffffffffffffffffffffffffffffff16021790555080600a60003373ffffffffffffffffffffffffffffffffffffffff1673ffffffffffffffffffffffffffffffffffffffff1681526020019081526020016000206001018190555034600a60003373ffffffffffffffffffffffffffffffffffffffff1673ffffffffffffffffffffffffffffffffffffffff1681526020019081526020016000206002018190555050565b600082825260208201905092915050565b7f796f752063616e27742073656e64206c657373207468616e2035306b20776569600082015250565b600061119460208361114d565b915061119f8261115e565b602082019050919050565b600060208201905081810360008301526111c381611187565b9050919050565b600081519050919050565b7f4e487b7100000000000000000000000000000000000000000000000000000000600052604160045260246000fd5b7f4e487b7100000000000000000000000000000000000000000000000000000000600052602260045260246000fd5b6000600282049050600182168061124b57607f821691505b60208210810361125e5761125d611204565b5b50919050565b60008190508160005260206000209050919050565b60006020601f8301049050919050565b600082821b905092915050565b6000600883026112c67fffffffffffffffffffffffffffffffffffffffffffffffffffffffffffffffff82611289565b6112d08683611289565b95508019841693508086168417925050509392505050565b6000819050919050565b6000819050919050565b600061131761131261130d846112e8565b6112f2565b6112e8565b9050919050565b6000819050919050565b611331836112fc565b61134561133d8261131e565b848454611296565b825550505050565b600090565b61135a61134d565b611365818484611328565b505050565b5b818110156113895761137e600082611352565b60018101905061136b565b5050565b601f8211156113ce5761139f81611264565b6113a884611279565b810160208510156113b7578190505b6113cb6113c385611279565b83018261136a565b50505b505050565b600082821c905092915050565b60006113f1600019846008026113d3565b1980831691505092915050565b600061140a83836113e0565b9150826002028217905092915050565b611423826111ca565b67ffffffffffffffff81111561143c5761143b6111d5565b5b6114468254611233565b61145182828561138d565b600060209050601f8311600181146114845760008415611472578287015190505b61147c85826113fe565b8655506114e4565b601f19841661149286611264565b60005b828110156114ba57848901518255600182019150602085019450602081019050611495565b868310156114d757848901516114d3601f8916826113e0565b8355505b6001600288020188555050505b505050505050565b600080fd5b6114fa816112e8565b811461150557600080fd5b50565b600081359050611517816114f1565b92915050565b60008060408385031215611534576115336114ec565b5b600061154285828601611508565b925050602061155385828601611508565b9150509250929050565b600073ffffffffffffffffffffffffffffffffffffffff82169050919050565b60006115888261155d565b9050919050565b6115988161157d565b81146115a357600080fd5b50565b6000813590506115b58161158f565b92915050565b6000602082840312156115d1576115d06114ec565b5b60006115df848285016115a6565b91505092915050565b60006115f38261155d565b9050919050565b611603816115e8565b82525050565b611612816112e8565b82525050565b600060808201905061162d60008301876115fa565b61163a6020830186611609565b6116476040830185611609565b6116546060830184611609565b95945050505050565b60006020820190506116726000830184611609565b92915050565b60006020828403121561168e5761168d6114ec565b5b600061169c84828501611508565b91505092915050565b60005b838110156116c35780820151818401526020810190506116a8565b60008484015250505050565b6000601f19601f8301169050919050565b60006116eb826111ca565b6116f5818561114d565b93506117058185602086016116a5565b61170e816116cf565b840191505092915050565b6000608082019050818103600083015261173381876116e0565b90506117426020830186611609565b61174f6040830185611609565b61175c6060830184611609565b95945050505050565b61176e8161157d565b82525050565b60006020820190506117896000830184611765565b92915050565b600080604083850312156117a6576117a56114ec565b5b60006117b4858286016115a6565b92505060206117c585828601611508565b9150509250929050565b7f66656520616c7265616479207061696400000000000000000000000000000000600082015250565b600061180560108361114d565b9150611810826117cf565b602082019050919050565b60006020820190508181036000830152611834816117f8565b9050919050565b7f4e487b7100000000000000000000000000000000000000000000000000000000600052601260045260246000fd5b7f4e487b7100000000000000000000000000000000000000000000000000000000600052601160045260246000fd5b60006118a4826112e8565b91506118af836112e8565b9250826118bf576118be61183b565b5b828204905092915050565b7f70617920706c6174666f726d2066656520666972737400000000000000000000600082015250565b600061190060168361114d565b915061190b826118ca565b602082019050919050565b6000602082019050818103600083015261192f816118f3565b9050919050565b7f6e6f206761696e00000000000000000000000000000000000000000000000000600082015250565b600061196c60078361114d565b915061197782611936565b602082019050919050565b6000602082019050818103600083015261199b8161195f565b9050919050565b60006119ad826112e8565b91506119b8836112e8565b92508282026119c6816112e8565b915082820484148315176119dd576119dc61186a565b5b5092915050565b6000815190506119f3816114f1565b92915050565b600060208284031215611a0f57611a0e6114ec565b5b6000611a1d848285016119e4565b91505092915050565b7f636f6d70657469746f7220646f6e277420657869737400000000000000000000600082015250565b6000611a5c60168361114d565b9150611a6782611a26565b602082019050919050565b60006020820190508181036000830152611a8b81611a4f565b9050919050565b6000611a9d826112e8565b91507fffffffffffffffffffffffffffffffffffffffffffffffffffffffffffffffff8203611acf57611ace61186a565b5b600182019050919050565b6000611ae5826112e8565b9150611af0836112e8565b9250828201905080821115611b0857611b0761186a565b5b92915050565b600081905092915050565b50565b6000611b29600083611b0e565b9150611b3482611b19565b600082019050919050565b6000611b4a82611b1c565b9150819050919050565b7f4661696c656420746f2073656e64204574686572000000000000000000000000600082015250565b6000611b8a60148361114d565b9150611b9582611b54565b602082019050919050565b60006020820190508181036000830152611bb981611b7d565b905091905056fea2646970667358221220a8de0595f33aa2c7edabf3807041ad304fbe9c61805fb2e006b44e3e323cbbf164736f6c63430008150033",
  "linkReferences": {},
  "deployedLinkReferences": {}
}