{
  "_format": "hh-sol-artifact-1",
  "contractName": "SimpleBet",
  "sourceName": "contracts/SimpleBet.sol",
  "abi": [
    {
      "inputs": [
        {
          "internalType": "string",
          "name": "_betName",
          "type": "string"
        },
        {
          "internalType": "string",
          "name": "_compName1",
          "type": "string"
        },
        {
          "internalType": "string",
          "name": "_compName2",
          "type": "string"
        },
        {
          "internalType": "address",
          "name": "_betWavesOrganizerAddress",
          "type": "address"
        },
        {
          "internalType": "address",
          "name": "_betWaveDaoAddress",
          "type": "address"
        }
      ],
      "stateMutability": "payable",
      "type": "constructor"
    },
    {
      "inputs": [],
      "name": "ReentrancyGuardReentrantCall",
      "type": "error"
    },
    {
      "inputs": [],
      "name": "alreadyBet",
      "type": "error"
    },
    {
      "inputs": [],
      "name": "feesNotPaid",
      "type": "error"
    },
    {
      "inputs": [],
      "name": "forbidden",
      "type": "error"
    },
    {
      "inputs": [],
      "name": "insufficientBalance",
      "type": "error"
    },
    {
      "inputs": [],
      "name": "minimumBetAmount",
      "type": "error"
    },
    {
      "inputs": [],
      "name": "notRegistered",
      "type": "error"
    },
    {
      "anonymous": false,
      "inputs": [
        {
          "indexed": false,
          "internalType": "address",
          "name": "",
          "type": "address"
        },
        {
          "indexed": false,
          "internalType": "uint256",
          "name": "",
          "type": "uint256"
        },
        {
          "indexed": false,
          "internalType": "uint256",
          "name": "",
          "type": "uint256"
        },
        {
          "indexed": false,
          "internalType": "uint256",
          "name": "",
          "type": "uint256"
        },
        {
          "indexed": false,
          "internalType": "uint256",
          "name": "",
          "type": "uint256"
        },
        {
          "indexed": false,
          "internalType": "uint256",
          "name": "",
          "type": "uint256"
        },
        {
          "indexed": false,
          "internalType": "uint256",
          "name": "",
          "type": "uint256"
        }
      ],
      "name": "newBid",
      "type": "event"
    },
    {
      "stateMutability": "payable",
      "type": "fallback"
    },
    {
      "inputs": [],
      "name": "beginEventTimestamp",
      "outputs": [
        {
          "internalType": "uint256",
          "name": "",
          "type": "uint256"
        }
      ],
      "stateMutability": "view",
      "type": "function"
    },
    {
      "inputs": [],
      "name": "betName",
      "outputs": [
        {
          "internalType": "string",
          "name": "",
          "type": "string"
        }
      ],
      "stateMutability": "view",
      "type": "function"
    },
    {
      "inputs": [],
      "name": "betWaveDaoAddress",
      "outputs": [
        {
          "internalType": "address",
          "name": "",
          "type": "address"
        }
      ],
      "stateMutability": "view",
      "type": "function"
    },
    {
      "inputs": [],
      "name": "betWavesOrganizerAddress",
      "outputs": [
        {
          "internalType": "address",
          "name": "",
          "type": "address"
        }
      ],
      "stateMutability": "view",
      "type": "function"
    },
    {
      "inputs": [
        {
          "internalType": "address",
          "name": "",
          "type": "address"
        }
      ],
      "name": "bettors",
      "outputs": [
        {
          "internalType": "address payable",
          "name": "bettorAddress",
          "type": "address"
        },
        {
          "internalType": "uint256",
          "name": "betId",
          "type": "uint256"
        },
        {
          "internalType": "uint256",
          "name": "bettingAmout",
          "type": "uint256"
        },
        {
          "internalType": "uint256",
          "name": "bettingReward",
          "type": "uint256"
        }
      ],
      "stateMutability": "view",
      "type": "function"
    },
    {
      "inputs": [
        {
          "internalType": "uint256",
          "name": "_validatorFees",
          "type": "uint256"
        }
      ],
      "name": "calculateValidatorReward",
      "outputs": [
        {
          "internalType": "uint256",
          "name": "",
          "type": "uint256"
        }
      ],
      "stateMutability": "view",
      "type": "function"
    },
    {
      "inputs": [
        {
          "internalType": "uint256",
          "name": "",
          "type": "uint256"
        }
      ],
      "name": "competitors",
      "outputs": [
        {
          "internalType": "string",
          "name": "name",
          "type": "string"
        },
        {
          "internalType": "uint256",
          "name": "odd",
          "type": "uint256"
        },
        {
          "internalType": "uint256",
          "name": "betNumber",
          "type": "uint256"
        },
        {
          "internalType": "uint256",
          "name": "betAmount",
          "type": "uint256"
        }
      ],
      "stateMutability": "view",
      "type": "function"
    },
    {
      "inputs": [],
      "name": "endEventTimestamp",
      "outputs": [
        {
          "internalType": "uint256",
          "name": "",
          "type": "uint256"
        }
      ],
      "stateMutability": "view",
      "type": "function"
    },
    {
      "inputs": [],
      "name": "redeemToBettor",
      "outputs": [],
      "stateMutability": "payable",
      "type": "function"
    },
    {
      "inputs": [
        {
          "internalType": "uint256",
          "name": "_plateformeFees",
          "type": "uint256"
        },
        {
          "internalType": "uint256",
          "name": "_creatorFees",
          "type": "uint256"
        },
        {
          "internalType": "address",
          "name": "_ownerAddress",
          "type": "address"
        }
      ],
      "name": "sendPlatfromAndCreatorFees",
      "outputs": [],
      "stateMutability": "nonpayable",
      "type": "function"
    },
    {
      "inputs": [
        {
          "internalType": "address",
          "name": "_validatorAddress",
          "type": "address"
        },
        {
          "internalType": "uint256",
          "name": "_validatorReward",
          "type": "uint256"
        }
      ],
      "name": "sendValidatorFees",
      "outputs": [],
      "stateMutability": "nonpayable",
      "type": "function"
    },
    {
      "inputs": [
        {
          "internalType": "uint256",
          "name": "_betId",
          "type": "uint256"
        }
      ],
      "name": "setBet",
      "outputs": [],
      "stateMutability": "payable",
      "type": "function"
    },
    {
      "inputs": [],
      "name": "setFeesBooleanToTrue",
      "outputs": [],
      "stateMutability": "nonpayable",
      "type": "function"
    },
    {
      "inputs": [
        {
          "internalType": "uint256",
          "name": "_winnerId",
          "type": "uint256"
        }
      ],
      "name": "setWinnerId",
      "outputs": [],
      "stateMutability": "nonpayable",
      "type": "function"
    },
    {
      "inputs": [],
      "name": "totalBet",
      "outputs": [
        {
          "internalType": "uint256",
          "name": "",
          "type": "uint256"
        }
      ],
      "stateMutability": "view",
      "type": "function"
    },
    {
      "inputs": [],
      "name": "winnerId",
      "outputs": [
        {
          "internalType": "uint256",
          "name": "",
          "type": "uint256"
        }
      ],
      "stateMutability": "view",
      "type": "function"
    },
    {
      "stateMutability": "payable",
      "type": "receive"
    }
  ],
  "bytecode": "0x60806040526040516200269138038062002691833981810160405281019062000029919062000397565b600160008190555081600260006101000a81548173ffffffffffffffffffffffffffffffffffffffff021916908373ffffffffffffffffffffffffffffffffffffffff16021790555080600360006101000a81548173ffffffffffffffffffffffffffffffffffffffff021916908373ffffffffffffffffffffffffffffffffffffffff1602179055508460019081620000c49190620006c7565b5083600960008081526020019081526020016000206000019081620000ea9190620006c7565b508260096000600181526020019081526020016000206000019081620001119190620006c7565b5081600b60006101000a81548173ffffffffffffffffffffffffffffffffffffffff021916908373ffffffffffffffffffffffffffffffffffffffff16021790555080600c60006101000a81548173ffffffffffffffffffffffffffffffffffffffff021916908373ffffffffffffffffffffffffffffffffffffffff1602179055505050505050620007ae565b6000604051905090565b600080fd5b600080fd5b600080fd5b600080fd5b6000601f19601f8301169050919050565b7f4e487b7100000000000000000000000000000000000000000000000000000000600052604160045260246000fd5b6200020882620001bd565b810181811067ffffffffffffffff821117156200022a5762000229620001ce565b5b80604052505050565b60006200023f6200019f565b90506200024d8282620001fd565b919050565b600067ffffffffffffffff82111562000270576200026f620001ce565b5b6200027b82620001bd565b9050602081019050919050565b60005b83811015620002a85780820151818401526020810190506200028b565b60008484015250505050565b6000620002cb620002c58462000252565b62000233565b905082815260208101848484011115620002ea57620002e9620001b8565b5b620002f784828562000288565b509392505050565b600082601f830112620003175762000316620001b3565b5b815162000329848260208601620002b4565b91505092915050565b600073ffffffffffffffffffffffffffffffffffffffff82169050919050565b60006200035f8262000332565b9050919050565b620003718162000352565b81146200037d57600080fd5b50565b600081519050620003918162000366565b92915050565b600080600080600060a08688031215620003b657620003b5620001a9565b5b600086015167ffffffffffffffff811115620003d757620003d6620001ae565b5b620003e588828901620002ff565b955050602086015167ffffffffffffffff811115620004095762000408620001ae565b5b6200041788828901620002ff565b945050604086015167ffffffffffffffff8111156200043b576200043a620001ae565b5b6200044988828901620002ff565b93505060606200045c8882890162000380565b92505060806200046f8882890162000380565b9150509295509295909350565b600081519050919050565b7f4e487b7100000000000000000000000000000000000000000000000000000000600052602260045260246000fd5b60006002820490506001821680620004cf57607f821691505b602082108103620004e557620004e462000487565b5b50919050565b60008190508160005260206000209050919050565b60006020601f8301049050919050565b600082821b905092915050565b6000600883026200054f7fffffffffffffffffffffffffffffffffffffffffffffffffffffffffffffffff8262000510565b6200055b868362000510565b95508019841693508086168417925050509392505050565b6000819050919050565b6000819050919050565b6000620005a8620005a26200059c8462000573565b6200057d565b62000573565b9050919050565b6000819050919050565b620005c48362000587565b620005dc620005d382620005af565b8484546200051d565b825550505050565b600090565b620005f3620005e4565b62000600818484620005b9565b505050565b5b8181101562000628576200061c600082620005e9565b60018101905062000606565b5050565b601f82111562000677576200064181620004eb565b6200064c8462000500565b810160208510156200065c578190505b620006746200066b8562000500565b83018262000605565b50505b505050565b600082821c905092915050565b60006200069c600019846008026200067c565b1980831691505092915050565b6000620006b7838362000689565b9150826002028217905092915050565b620006d2826200047c565b67ffffffffffffffff811115620006ee57620006ed620001ce565b5b620006fa8254620004b6565b620007078282856200062c565b600060209050601f8311600181146200073f57600084156200072a578287015190505b620007368582620006a9565b865550620007a6565b601f1984166200074f86620004eb565b60005b82811015620007795784890151825560018201915060208501945060208101905062000752565b8683101562000799578489015162000795601f89168262000689565b8355505b6001600288020188555050505b505050505050565b611ed380620007be6000396000f3fe6080604052600436106100f75760003560e01c8063ad05d9c31161008a578063dc09f68211610059578063dc09f682146103be578063e8399cc6146103e7578063ebfb665214610403578063fe5e18531461044057610181565b8063ad05d9c314610335578063c6073c661461033f578063cf9594291461036a578063d93e03b01461039357610181565b80639d86801f116100c65780639d86801f14610288578063a14de028146102c8578063a32b3487146102f3578063a99073ae1461031e57610181565b806322010c1f146101c95780635c3a3e5c14610209578063607075fc1461023257806391e0d5931461025d57610181565b3661018157640b68a0aa00341161013a576040517f78e9f1ba00000000000000000000000000000000000000000000000000000000815260040160405180910390fd5b61c35034101561017f576040517f08c379a00000000000000000000000000000000000000000000000000000000081526004016101769061158d565b60405180910390fd5b005b600080369050146101c7576040517f08c379a00000000000000000000000000000000000000000000000000000000081526004016101be906115f9565b60405180910390fd5b005b3480156101d557600080fd5b506101f060048036038101906101eb919061167c565b61046b565b60405161020094939291906116e3565b60405180910390f35b34801561021557600080fd5b50610230600480360381019061022b9190611754565b6104bb565b005b34801561023e57600080fd5b5061024761063f565b6040516102549190611826565b60405180910390f35b34801561026957600080fd5b506102726106cd565b60405161027f9190611848565b60405180910390f35b34801561029457600080fd5b506102af60048036038101906102aa9190611863565b6106d3565b6040516102bf9493929190611890565b60405180910390f35b3480156102d457600080fd5b506102dd61078b565b6040516102ea9190611848565b60405180910390f35b3480156102ff57600080fd5b50610308610791565b6040516103159190611848565b60405180910390f35b34801561032a57600080fd5b50610333610797565b005b61033d610843565b005b34801561034b57600080fd5b50610354610b7c565b60405161036191906118eb565b60405180910390f35b34801561037657600080fd5b50610391600480360381019061038c9190611906565b610ba2565b005b34801561039f57600080fd5b506103a8610c81565b6040516103b591906118eb565b60405180910390f35b3480156103ca57600080fd5b506103e560048036038101906103e09190611863565b610ca7565b005b61040160048036038101906103fc9190611863565b610d38565b005b34801561040f57600080fd5b5061042a60048036038101906104259190611863565b611129565b6040516104379190611848565b60405180910390f35b34801561044c57600080fd5b506104556111fe565b6040516104629190611848565b60405180910390f35b600a6020528060005260406000206000915090508060000160009054906101000a900473ffffffffffffffffffffffffffffffffffffffff16908060010154908060020154908060030154905084565b6104c3611204565b600047116104fd576040517f47108e3e00000000000000000000000000000000000000000000000000000000815260040160405180910390fd5b600b60009054906101000a900473ffffffffffffffffffffffffffffffffffffffff1673ffffffffffffffffffffffffffffffffffffffff163373ffffffffffffffffffffffffffffffffffffffff1614610584576040517f8679b0c000000000000000000000000000000000000000000000000000000000815260040160405180910390fd5b600c60149054906101000a900460ff16156105d4576040517f08c379a00000000000000000000000000000000000000000000000000000000081526004016105cb90611992565b60405180910390fd5b6000479050600084826105e79190611a10565b9050600084836105f79190611a10565b9050610625600c60009054906101000a900473ffffffffffffffffffffffffffffffffffffffff168361124a565b61062f848261124a565b50505061063a6112fe565b505050565b6001805461064c90611a70565b80601f016020809104026020016040519081016040528092919081815260200182805461067890611a70565b80156106c55780601f1061069a576101008083540402835291602001916106c5565b820191906000526020600020905b8154815290600101906020018083116106a857829003601f168201915b505050505081565b60075481565b60096020528060005260406000206000915090508060000180546106f690611a70565b80601f016020809104026020016040519081016040528092919081815260200182805461072290611a70565b801561076f5780601f106107445761010080835404028352916020019161076f565b820191906000526020600020905b81548152906001019060200180831161075257829003601f168201915b5050505050908060010154908060020154908060030154905084565b60045481565b60055481565b600b60009054906101000a900473ffffffffffffffffffffffffffffffffffffffff1673ffffffffffffffffffffffffffffffffffffffff163373ffffffffffffffffffffffffffffffffffffffff161461081e576040517f8679b0c000000000000000000000000000000000000000000000000000000000815260040160405180910390fd5b6001600c60146101000a81548160ff021916908315150217905550610841611308565b565b61084b611204565b600c60149054906101000a900460ff16610891576040517f0541f1f000000000000000000000000000000000000000000000000000000000815260040160405180910390fd5b3373ffffffffffffffffffffffffffffffffffffffff16600a60003373ffffffffffffffffffffffffffffffffffffffff1673ffffffffffffffffffffffffffffffffffffffff16815260200190815260200160002060000160009054906101000a900473ffffffffffffffffffffffffffffffffffffffff1673ffffffffffffffffffffffffffffffffffffffff1614610961576040517f08c379a000000000000000000000000000000000000000000000000000000000815260040161095890611aed565b60405180910390fd5b600c60149054906101000a900460ff166109b0576040517f08c379a00000000000000000000000000000000000000000000000000000000081526004016109a790611b59565b60405180910390fd5b600754600a60003373ffffffffffffffffffffffffffffffffffffffff1673ffffffffffffffffffffffffffffffffffffffff1681526020019081526020016000206001015414610a36576040517f08c379a0000000000000000000000000000000000000000000000000000000008152600401610a2d90611bc5565b60405180910390fd5b6064600854600a60003373ffffffffffffffffffffffffffffffffffffffff1673ffffffffffffffffffffffffffffffffffffffff16815260200190815260200160002060020154610a889190611be5565b610a929190611a10565b600a60003373ffffffffffffffffffffffffffffffffffffffff1673ffffffffffffffffffffffffffffffffffffffff168152602001908152602001600020600301819055506000600a60003373ffffffffffffffffffffffffffffffffffffffff1673ffffffffffffffffffffffffffffffffffffffff1681526020019081526020016000206003015490506000600a60003373ffffffffffffffffffffffffffffffffffffffff1673ffffffffffffffffffffffffffffffffffffffff16815260200190815260200160002060030181905550610b71338261124a565b50610b7a6112fe565b565b600b60009054906101000a900473ffffffffffffffffffffffffffffffffffffffff1681565b610baa611204565b600b60009054906101000a900473ffffffffffffffffffffffffffffffffffffffff1673ffffffffffffffffffffffffffffffffffffffff163373ffffffffffffffffffffffffffffffffffffffff1614610c31576040517f8679b0c000000000000000000000000000000000000000000000000000000000815260040160405180910390fd5b60004711610c6b576040517f47108e3e00000000000000000000000000000000000000000000000000000000815260040160405180910390fd5b610c75828261124a565b610c7d6112fe565b5050565b600c60009054906101000a900473ffffffffffffffffffffffffffffffffffffffff1681565b600b60009054906101000a900473ffffffffffffffffffffffffffffffffffffffff1673ffffffffffffffffffffffffffffffffffffffff163373ffffffffffffffffffffffffffffffffffffffff1614610d2e576040517f8679b0c000000000000000000000000000000000000000000000000000000000815260040160405180910390fd5b8060078190555050565b610d40611204565b343373ffffffffffffffffffffffffffffffffffffffff16311015610d91576040517f47108e3e00000000000000000000000000000000000000000000000000000000815260040160405180910390fd5b640b68a0aa003411610dcf576040517f78e9f1ba00000000000000000000000000000000000000000000000000000000815260040160405180910390fd5b3373ffffffffffffffffffffffffffffffffffffffff16600a60003373ffffffffffffffffffffffffffffffffffffffff1673ffffffffffffffffffffffffffffffffffffffff16815260200190815260200160002060000160009054906101000a900473ffffffffffffffffffffffffffffffffffffffff1673ffffffffffffffffffffffffffffffffffffffff1603610e96576040517f8424505800000000000000000000000000000000000000000000000000000000815260040160405180910390fd5b6000600360009054906101000a900473ffffffffffffffffffffffffffffffffffffffff1673ffffffffffffffffffffffffffffffffffffffff16630b4805d3336040518263ffffffff1660e01b8152600401610ef391906118eb565b602060405180830381865afa158015610f10573d6000803e3d6000fd5b505050506040513d601f19601f82011682018060405250810190610f349190611c67565b67ffffffffffffffff1603610f75576040517f3a70817d00000000000000000000000000000000000000000000000000000000815260040160405180910390fd5b6001811115610fb9576040517f08c379a0000000000000000000000000000000000000000000000000000000008152600401610fb090611ce0565b60405180910390fd5b610fc3303461124a565b60066000815480929190610fd690611d00565b919050555060096000828152602001908152602001600020600201600081548092919061100290611d00565b91905055503460096000838152602001908152602001600020600301546110299190611d48565b600960008381526020019081526020016000206003018190555061104b611386565b6110548161141e565b7fbabd4d8ad6be16c6a1ac0b279aaad4eb273f40de86a3c6ac350147fc9bbdbda3306009600080815260200190815260200160002060020154600960008081526020019081526020016000206003015460096000808152602001908152602001600020600101546009600060018152602001908152602001600020600201546009600060018152602001908152602001600020600301546009600060018152602001908152602001600020600101546040516111169796959493929190611d7c565b60405180910390a16111266112fe565b50565b6000804711611164576040517f47108e3e00000000000000000000000000000000000000000000000000000000815260040160405180910390fd5b600b60009054906101000a900473ffffffffffffffffffffffffffffffffffffffff1673ffffffffffffffffffffffffffffffffffffffff163373ffffffffffffffffffffffffffffffffffffffff16146111eb576040517f8679b0c000000000000000000000000000000000000000000000000000000000815260040160405180910390fd5b81476111f79190611a10565b9050919050565b60065481565b600260005403611240576040517f3ee5aeb500000000000000000000000000000000000000000000000000000000815260040160405180910390fd5b6002600081905550565b6000808373ffffffffffffffffffffffffffffffffffffffff168360405161127190611e1c565b60006040518083038185875af1925050503d80600081146112ae576040519150601f19603f3d011682016040523d82523d6000602084013e6112b3565b606091505b5091509150816112f8576040517f08c379a00000000000000000000000000000000000000000000000000000000081526004016112ef90611e7d565b60405180910390fd5b50505050565b6001600081905550565b600c60149054906101000a900460ff1661134e576040517f0541f1f000000000000000000000000000000000000000000000000000000000815260040160405180910390fd5b600960006007548152602001908152602001600020600301546064476113749190611be5565b61137e9190611a10565b600881905550565b600654606460096000808152602001908152602001600020600201546113ac9190611be5565b6113b69190611a10565b600960008081526020019081526020016000206001018190555060065460646009600060018152602001908152602001600020600201546113f79190611be5565b6114019190611a10565b600960006001815260200190815260200160002060010181905550565b33600a60003373ffffffffffffffffffffffffffffffffffffffff1673ffffffffffffffffffffffffffffffffffffffff16815260200190815260200160002060000160006101000a81548173ffffffffffffffffffffffffffffffffffffffff021916908373ffffffffffffffffffffffffffffffffffffffff16021790555080600a60003373ffffffffffffffffffffffffffffffffffffffff1673ffffffffffffffffffffffffffffffffffffffff1681526020019081526020016000206001018190555034600a60003373ffffffffffffffffffffffffffffffffffffffff1673ffffffffffffffffffffffffffffffffffffffff1681526020019081526020016000206002018190555050565b600082825260208201905092915050565b7f796f752063616e27742073656e64206c657373207468616e2035306b20776569600082015250565b6000611577602083611530565b915061158282611541565b602082019050919050565b600060208201905081810360008301526115a68161156a565b9050919050565b7f4e6f2066616c6c6261636b206465736972656400000000000000000000000000600082015250565b60006115e3601383611530565b91506115ee826115ad565b602082019050919050565b60006020820190508181036000830152611612816115d6565b9050919050565b600080fd5b600073ffffffffffffffffffffffffffffffffffffffff82169050919050565b60006116498261161e565b9050919050565b6116598161163e565b811461166457600080fd5b50565b60008135905061167681611650565b92915050565b60006020828403121561169257611691611619565b5b60006116a084828501611667565b91505092915050565b60006116b48261161e565b9050919050565b6116c4816116a9565b82525050565b6000819050919050565b6116dd816116ca565b82525050565b60006080820190506116f860008301876116bb565b61170560208301866116d4565b61171260408301856116d4565b61171f60608301846116d4565b95945050505050565b611731816116ca565b811461173c57600080fd5b50565b60008135905061174e81611728565b92915050565b60008060006060848603121561176d5761176c611619565b5b600061177b8682870161173f565b935050602061178c8682870161173f565b925050604061179d86828701611667565b9150509250925092565b600081519050919050565b60005b838110156117d05780820151818401526020810190506117b5565b60008484015250505050565b6000601f19601f8301169050919050565b60006117f8826117a7565b6118028185611530565b93506118128185602086016117b2565b61181b816117dc565b840191505092915050565b6000602082019050818103600083015261184081846117ed565b905092915050565b600060208201905061185d60008301846116d4565b92915050565b60006020828403121561187957611878611619565b5b60006118878482850161173f565b91505092915050565b600060808201905081810360008301526118aa81876117ed565b90506118b960208301866116d4565b6118c660408301856116d4565b6118d360608301846116d4565b95945050505050565b6118e58161163e565b82525050565b600060208201905061190060008301846118dc565b92915050565b6000806040838503121561191d5761191c611619565b5b600061192b85828601611667565b925050602061193c8582860161173f565b9150509250929050565b7f66656520616c7265616479207061696400000000000000000000000000000000600082015250565b600061197c601083611530565b915061198782611946565b602082019050919050565b600060208201905081810360008301526119ab8161196f565b9050919050565b7f4e487b7100000000000000000000000000000000000000000000000000000000600052601260045260246000fd5b7f4e487b7100000000000000000000000000000000000000000000000000000000600052601160045260246000fd5b6000611a1b826116ca565b9150611a26836116ca565b925082611a3657611a356119b2565b5b828204905092915050565b7f4e487b7100000000000000000000000000000000000000000000000000000000600052602260045260246000fd5b60006002820490506001821680611a8857607f821691505b602082108103611a9b57611a9a611a41565b5b50919050565b7f596f7520646f6e27742070617274696369706174650000000000000000000000600082015250565b6000611ad7601583611530565b9150611ae282611aa1565b602082019050919050565b60006020820190508181036000830152611b0681611aca565b9050919050565b7f70617920706c6174666f726d2066656520666972737400000000000000000000600082015250565b6000611b43601683611530565b9150611b4e82611b0d565b602082019050919050565b60006020820190508181036000830152611b7281611b36565b9050919050565b7f6e6f206761696e00000000000000000000000000000000000000000000000000600082015250565b6000611baf600783611530565b9150611bba82611b79565b602082019050919050565b60006020820190508181036000830152611bde81611ba2565b9050919050565b6000611bf0826116ca565b9150611bfb836116ca565b9250828202611c09816116ca565b91508282048414831517611c2057611c1f6119e1565b5b5092915050565b600067ffffffffffffffff82169050919050565b611c4481611c27565b8114611c4f57600080fd5b50565b600081519050611c6181611c3b565b92915050565b600060208284031215611c7d57611c7c611619565b5b6000611c8b84828501611c52565b91505092915050565b7f636f6d70657469746f7220646f6e277420657869737400000000000000000000600082015250565b6000611cca601683611530565b9150611cd582611c94565b602082019050919050565b60006020820190508181036000830152611cf981611cbd565b9050919050565b6000611d0b826116ca565b91507fffffffffffffffffffffffffffffffffffffffffffffffffffffffffffffffff8203611d3d57611d3c6119e1565b5b600182019050919050565b6000611d53826116ca565b9150611d5e836116ca565b9250828201905080821115611d7657611d756119e1565b5b92915050565b600060e082019050611d91600083018a6118dc565b611d9e60208301896116d4565b611dab60408301886116d4565b611db860608301876116d4565b611dc560808301866116d4565b611dd260a08301856116d4565b611ddf60c08301846116d4565b98975050505050505050565b600081905092915050565b50565b6000611e06600083611deb565b9150611e1182611df6565b600082019050919050565b6000611e2782611df9565b9150819050919050565b7f4661696c656420746f2073656e64204574686572000000000000000000000000600082015250565b6000611e67601483611530565b9150611e7282611e31565b602082019050919050565b60006020820190508181036000830152611e9681611e5a565b905091905056fea26469706673582212209b3e79eb548d2fad933502b0759dc311fdc0d10d1e3a8916a57794fd1d6dd73364736f6c63430008150033",
  "linkReferences": {},
  "deployedLinkReferences": {}
}