{"contracts/SimpleBet.sol":{"SimpleBet":{"abi":[{"inputs":[{"internalType":"string","name":"_compName1","type":"string"},{"internalType":"string","name":"_compName2","type":"string"},{"internalType":"address","name":"_betWavesOrganizerAddress","type":"address"},{"internalType":"address","name":"_betWaveDaoAddress","type":"address"}],"stateMutability":"payable","type":"constructor"},{"inputs":[],"name":"alreadyBet","type":"error"},{"inputs":[],"name":"feesNotPaid","type":"error"},{"inputs":[],"name":"forbidden","type":"error"},{"inputs":[],"name":"insufficientBalance","type":"error"},{"inputs":[],"name":"minimumBetAmount","type":"error"},{"inputs":[],"name":"notRegistered","type":"error"},{"anonymous":false,"inputs":[{"indexed":false,"internalType":"address","name":"","type":"address"},{"indexed":false,"internalType":"uint256","name":"","type":"uint256"},{"indexed":false,"internalType":"uint256","name":"","type":"uint256"},{"indexed":false,"internalType":"uint256","name":"","type":"uint256"},{"indexed":false,"internalType":"uint256","name":"","type":"uint256"},{"indexed":false,"internalType":"uint256","name":"","type":"uint256"},{"indexed":false,"internalType":"uint256","name":"","type":"uint256"}],"name":"newBid","type":"event"},{"stateMutability":"payable","type":"fallback"},{"inputs":[],"name":"beginEventTimestamp","outputs":[{"internalType":"uint256","name":"","type":"uint256"}],"stateMutability":"view","type":"function"},{"inputs":[],"name":"betWaveDaoAddress","outputs":[{"internalType":"address","name":"","type":"address"}],"stateMutability":"view","type":"function"},{"inputs":[],"name":"betWavesOrganizerAddress","outputs":[{"internalType":"address","name":"","type":"address"}],"stateMutability":"view","type":"function"},{"inputs":[{"internalType":"address","name":"","type":"address"}],"name":"bettors","outputs":[{"internalType":"address payable","name":"bettorAddress","type":"address"},{"internalType":"uint256","name":"betId","type":"uint256"},{"internalType":"uint256","name":"bettingAmout","type":"uint256"},{"internalType":"uint256","name":"bettingReward","type":"uint256"}],"stateMutability":"view","type":"function"},{"inputs":[{"internalType":"uint256","name":"_validatorFees","type":"uint256"}],"name":"calculateValidatorReward","outputs":[{"internalType":"uint256","name":"","type":"uint256"}],"stateMutability":"nonpayable","type":"function"},{"inputs":[{"internalType":"uint256","name":"","type":"uint256"}],"name":"competitors","outputs":[{"internalType":"string","name":"name","type":"string"},{"internalType":"uint256","name":"odd","type":"uint256"},{"internalType":"uint256","name":"betNumber","type":"uint256"},{"internalType":"uint256","name":"betAmount","type":"uint256"}],"stateMutability":"view","type":"function"},{"inputs":[],"name":"endEventTimestamp","outputs":[{"internalType":"uint256","name":"","type":"uint256"}],"stateMutability":"view","type":"function"},{"inputs":[],"name":"getContractBalance","outputs":[{"internalType":"uint256","name":"","type":"uint256"}],"stateMutability":"view","type":"function"},{"inputs":[],"name":"redeemToBettor","outputs":[],"stateMutability":"payable","type":"function"},{"inputs":[{"internalType":"uint256","name":"_plateformeFees","type":"uint256"},{"internalType":"uint256","name":"_creatorFees","type":"uint256"},{"internalType":"address","name":"_ownerAddress","type":"address"}],"name":"sendPlatfromAndCreatorFees","outputs":[],"stateMutability":"nonpayable","type":"function"},{"inputs":[{"internalType":"address","name":"_validatorAddress","type":"address"},{"internalType":"uint256","name":"_validatorReward","type":"uint256"}],"name":"sendValidatorFees","outputs":[],"stateMutability":"nonpayable","type":"function"},{"inputs":[{"internalType":"uint256","name":"_betId","type":"uint256"}],"name":"setBet","outputs":[],"stateMutability":"payable","type":"function"},{"inputs":[],"name":"setFeesBooleanToTrue","outputs":[],"stateMutability":"nonpayable","type":"function"},{"inputs":[{"internalType":"uint256","name":"_winnerId","type":"uint256"}],"name":"setWinnerId","outputs":[],"stateMutability":"nonpayable","type":"function"},{"inputs":[],"name":"test","outputs":[{"internalType":"uint256","name":"","type":"uint256"}],"stateMutability":"view","type":"function"},{"inputs":[],"name":"totalBet","outputs":[{"internalType":"uint256","name":"","type":"uint256"}],"stateMutability":"view","type":"function"},{"inputs":[],"name":"winnerId","outputs":[{"internalType":"uint256","name":"","type":"uint256"}],"stateMutability":"view","type":"function"},{"stateMutability":"payable","type":"receive"}],"evm":{"bytecode":{"linkReferences":{},"object":"60806040526040516200363e3803806200363e833981810160405281019062000029919062000443565b620000456730d6916a99b6b03460c01b6200024860201b60201c565b620000616726bbab3f2fe4030b60c01b6200024860201b60201c565b81600260006101000a81548173ffffffffffffffffffffffffffffffffffffffff021916908373ffffffffffffffffffffffffffffffffffffffff160217905550620000be6708c0fab3eed0282f60c01b6200024860201b60201c565b80600360006101000a81548173ffffffffffffffffffffffffffffffffffffffff021916908373ffffffffffffffffffffffffffffffffffffffff1602179055506200011b67db4b1b074bf66df660c01b6200024860201b60201c565b836009600080815260200190815260200160002060000190816200014091906200073e565b506200015d67ef87b6cf498754e060c01b6200024860201b60201c565b82600960006001815260200190815260200160002060000190816200018391906200073e565b50620001a067398934e6de168ae360c01b6200024860201b60201c565b81600b60006101000a81548173ffffffffffffffffffffffffffffffffffffffff021916908373ffffffffffffffffffffffffffffffffffffffff160217905550620001fd67a4e63e1aef964b7660c01b6200024860201b60201c565b80600c60006101000a81548173ffffffffffffffffffffffffffffffffffffffff021916908373ffffffffffffffffffffffffffffffffffffffff1602179055505050505062000825565b50565b6000604051905090565b600080fd5b600080fd5b600080fd5b600080fd5b6000601f19601f8301169050919050565b7f4e487b7100000000000000000000000000000000000000000000000000000000600052604160045260246000fd5b620002b48262000269565b810181811067ffffffffffffffff82111715620002d657620002d56200027a565b5b80604052505050565b6000620002eb6200024b565b9050620002f98282620002a9565b919050565b600067ffffffffffffffff8211156200031c576200031b6200027a565b5b620003278262000269565b9050602081019050919050565b60005b838110156200035457808201518184015260208101905062000337565b60008484015250505050565b6000620003776200037184620002fe565b620002df565b90508281526020810184848401111562000396576200039562000264565b5b620003a384828562000334565b509392505050565b600082601f830112620003c357620003c26200025f565b5b8151620003d584826020860162000360565b91505092915050565b600073ffffffffffffffffffffffffffffffffffffffff82169050919050565b60006200040b82620003de565b9050919050565b6200041d81620003fe565b81146200042957600080fd5b50565b6000815190506200043d8162000412565b92915050565b6000806000806080858703121562000460576200045f62000255565b5b600085015167ffffffffffffffff8111156200048157620004806200025a565b5b6200048f87828801620003ab565b945050602085015167ffffffffffffffff811115620004b357620004b26200025a565b5b620004c187828801620003ab565b9350506040620004d4878288016200042c565b9250506060620004e7878288016200042c565b91505092959194509250565b600081519050919050565b7f4e487b7100000000000000000000000000000000000000000000000000000000600052602260045260246000fd5b600060028204905060018216806200054657607f821691505b6020821081036200055c576200055b620004fe565b5b50919050565b60008190508160005260206000209050919050565b60006020601f8301049050919050565b600082821b905092915050565b600060088302620005c67fffffffffffffffffffffffffffffffffffffffffffffffffffffffffffffffff8262000587565b620005d2868362000587565b95508019841693508086168417925050509392505050565b6000819050919050565b6000819050919050565b60006200061f620006196200061384620005ea565b620005f4565b620005ea565b9050919050565b6000819050919050565b6200063b83620005fe565b620006536200064a8262000626565b84845462000594565b825550505050565b600090565b6200066a6200065b565b6200067781848462000630565b505050565b5b818110156200069f576200069360008262000660565b6001810190506200067d565b5050565b601f821115620006ee57620006b88162000562565b620006c38462000577565b81016020851015620006d3578190505b620006eb620006e28562000577565b8301826200067c565b50505b505050565b600082821c905092915050565b60006200071360001984600802620006f3565b1980831691505092915050565b60006200072e838362000700565b9150826002028217905092915050565b6200074982620004f3565b67ffffffffffffffff8111156200076557620007646200027a565b5b6200077182546200052d565b6200077e828285620006a3565b600060209050601f831160018114620007b65760008415620007a1578287015190505b620007ad858262000720565b8655506200081d565b601f198416620007c68662000562565b60005b82811015620007f057848901518255600182019150602085019450602081019050620007c9565b868310156200081057848901516200080c601f89168262000700565b8355505b6001600288020188555050505b505050505050565b612e0980620008356000396000f3fe6080604052600436106101025760003560e01c8063ad05d9c311610095578063dc09f68211610064578063dc09f682146104a3578063e8399cc6146104cc578063ebfb6652146104e8578063f8a8fd6d14610525578063fe5e18531461055057610240565b8063ad05d9c31461041a578063c6073c6614610424578063cf9594291461044f578063d93e03b01461047857610240565b80639d86801f116100d15780639d86801f1461036d578063a14de028146103ad578063a32b3487146103d8578063a99073ae1461040357610240565b806322010c1f146102ae5780635c3a3e5c146102ee5780636f9fb98a1461031757806391e0d5931461034257610240565b366102405761011b6739e4ba10b87ad3b060c01b61057b565b61012f6709a502441177d28860c01b61057b565b610143670a12f685d553b92960c01b61057b565b640b68a0aa00341161019557610163670f4bae9ca1654a5960c01b61057b565b6040517f78e9f1ba00000000000000000000000000000000000000000000000000000000815260040160405180910390fd5b6101a967377ddc087f41e66160c01b61057b565b6101bd67f75ca81012e151a260c01b61057b565b6101d167fa49f1aef0f429f260c01b61057b565b6101e5670edf07116b871f3260c01b61057b565b61c35034101561022a576040517f08c379a00000000000000000000000000000000000000000000000000000000081526004016102219061233b565b60405180910390fd5b61023e67ab59df51fdf5543b60c01b61057b565b005b610254676dd5a89b730ecc5e60c01b61057b565b6102686723ceb8fa1b1a5af260c01b61057b565b6040518060400160405280601e81526020017f46616c6c6261636b2066756e6374696f6e206973206578656375746564210000815250600090816102ac91906125ab565b005b3480156102ba57600080fd5b506102d560048036038101906102d091906126e0565b61057e565b6040516102e5949392919061273d565b60405180910390f35b3480156102fa57600080fd5b50610315600480360381019061031091906127ae565b6105ce565b005b34801561032357600080fd5b5061032c6109b4565b6040516103399190612801565b60405180910390f35b34801561034e57600080fd5b506103576109f8565b6040516103649190612801565b60405180910390f35b34801561037957600080fd5b50610394600480360381019061038f919061281c565b6109fe565b6040516103a494939291906128bd565b60405180910390f35b3480156103b957600080fd5b506103c2610ab6565b6040516103cf9190612801565b60405180910390f35b3480156103e457600080fd5b506103ed610abc565b6040516103fa9190612801565b60405180910390f35b34801561040f57600080fd5b50610418610ac2565b005b610422610c5e565b005b34801561043057600080fd5b50610439610ff9565b6040516104469190612918565b60405180910390f35b34801561045b57600080fd5b5061047660048036038101906104719190612933565b61101f565b005b34801561048457600080fd5b5061048d611286565b60405161049a9190612918565b60405180910390f35b3480156104af57600080fd5b506104ca60048036038101906104c5919061281c565b6112ac565b005b6104e660048036038101906104e1919061281c565b611405565b005b3480156104f457600080fd5b5061050f600480360381019061050a919061281c565b611bc4565b60405161051c9190612801565b60405180910390f35b34801561053157600080fd5b5061053a611e16565b6040516105479190612801565b60405180910390f35b34801561055c57600080fd5b50610565611e1c565b6040516105729190612801565b60405180910390f35b50565b600a6020528060005260406000206000915090508060000160009054906101000a900473ffffffffffffffffffffffffffffffffffffffff16908060010154908060020154908060030154905084565b6105e2671c7ebcfa3da462d860c01b61057b565b6105f6673a1eb69386ab681860c01b61057b565b61060a6788ad799ddfc98b2460c01b61057b565b61061e67594381ac486e144a60c01b61057b565b6000471161066c5761063a67235294236fee96c560c01b61057b565b6040517f47108e3e00000000000000000000000000000000000000000000000000000000815260040160405180910390fd5b610680670387f0f9fa9e47cd60c01b61057b565b61069467ee9222eb1d86038760c01b61057b565b6106a867093de6dae4c1cc3a60c01b61057b565b6106bc679ecda57522db7b0460c01b61057b565b6106d067c7fcd39f70be7e5260c01b61057b565b6106e46727ec7cfc85b9bfd860c01b61057b565b6106f867d344fc9245663f9660c01b61057b565b600b60009054906101000a900473ffffffffffffffffffffffffffffffffffffffff1673ffffffffffffffffffffffffffffffffffffffff163373ffffffffffffffffffffffffffffffffffffffff1614610793576107616720c612f6e600391c60c01b61057b565b6040517f8679b0c000000000000000000000000000000000000000000000000000000000815260040160405180910390fd5b6107a7670298e5b18b5a4d3260c01b61057b565b6107bb67d791130bc5b73d6160c01b61057b565b6107cf6709ad514f8d55d6ee60c01b61057b565b6107e3672a8b012d8f24bc7560c01b61057b565b6107f7672fe2f54746119c4c60c01b61057b565b61080b67424b15ff957bf68160c01b61057b565b61081f67c15b6de5dba9d77160c01b61057b565b600c60149054906101000a900460ff161561086f576040517f08c379a0000000000000000000000000000000000000000000000000000000008152600401610866906129bf565b60405180910390fd5b61088367556330886faaaad060c01b61057b565b61089767d5b2f0ad988936a260c01b61057b565b6108ab67c3a633fb1c8c5ea160c01b61057b565b60006108b56109b4565b90506108cb67157b48a8c35092da60c01b61057b565b6108df67e8757613dfefe95660c01b61057b565b600084826108ed9190612a3d565b90506109036755ccfff68574f68e60c01b61057b565b61091767cb6f55514f67743360c01b61057b565b600084836109259190612a3d565b905061093b6751ffcb2f7eb0b30360c01b61057b565b61094f6762fbe23383e1635060c01b61057b565b61097b600c60009054906101000a900473ffffffffffffffffffffffffffffffffffffffff1683611e22565b61098e66d16394142c894960c01b61057b565b6109a2673e37ffa9d164458d60c01b61057b565b6109ac8482611e22565b505050505050565b60006109ca6791b93da92cf8288d60c01b61057b565b6109de67bccf4bf57ccf4bfb60c01b61057b565b6109f267ddd1f81411bb94a960c01b61057b565b47905090565b60075481565b6009602052806000526040600020600091509050806000018054610a21906123c4565b80601f0160208091040260200160405190810160405280929190818152602001828054610a4d906123c4565b8015610a9a5780601f10610a6f57610100808354040283529160200191610a9a565b820191906000526020600020905b815481529060010190602001808311610a7d57829003601f168201915b5050505050908060010154908060020154908060030154905084565b60045481565b60055481565b610ad66774a25a9ebedf873960c01b61057b565b610aea67c7fcd39f70be7e5260c01b61057b565b610afe6727ec7cfc85b9bfd860c01b61057b565b610b1267d344fc9245663f9660c01b61057b565b600b60009054906101000a900473ffffffffffffffffffffffffffffffffffffffff1673ffffffffffffffffffffffffffffffffffffffff163373ffffffffffffffffffffffffffffffffffffffff1614610bad57610b7b6720c612f6e600391c60c01b61057b565b6040517f8679b0c000000000000000000000000000000000000000000000000000000000815260040160405180910390fd5b610bc1670298e5b18b5a4d3260c01b61057b565b610bd567d791130bc5b73d6160c01b61057b565b610be9676308243b6b8d8d2b60c01b61057b565b610bfd675bf5a4420ca6c19860c01b61057b565b610c1167bb7a54a019be325060c01b61057b565b6001600c60146101000a81548160ff021916908315150217905550610c4067d8cd2d772406bdbb60c01b61057b565b610c54675e60006a064ead1e60c01b61057b565b610c5c611f62565b565b610c7267a0bfeea2ca9ee07b60c01b61057b565b610c86670b2e029ccb8f2e7360c01b61057b565b610c9a672abe4057a64f38d460c01b61057b565b610cae674011afcd3021da5c60c01b61057b565b600c60149054906101000a900460ff16610d0857610cd667d23e02af3063841160c01b61057b565b6040517f0541f1f000000000000000000000000000000000000000000000000000000000815260040160405180910390fd5b610d1c675c32c4cae713b43960c01b61057b565b610d306783707b958b1225aa60c01b61057b565b610d4467842ebf01bb25e51c60c01b61057b565b610d58677bef25940cdbbcef60c01b61057b565b610d6c6779d00a11602eece860c01b61057b565b610d8067b52603b3f70bcc3b60c01b61057b565b610d94671c7e171cd94dd2ef60c01b61057b565b600c60149054906101000a900460ff16610de3576040517f08c379a0000000000000000000000000000000000000000000000000000000008152600401610dda90612aba565b60405180910390fd5b610df76740ee4c855007c8a960c01b61057b565b610e0b67270e3beef881301460c01b61057b565b610e1f678cc9ee3c1b49b9f960c01b61057b565b610e3367ea12e6550000766860c01b61057b565b600754600a60003373ffffffffffffffffffffffffffffffffffffffff1673ffffffffffffffffffffffffffffffffffffffff1681526020019081526020016000206001015414610eb9576040517f08c379a0000000000000000000000000000000000000000000000000000000008152600401610eb090612b26565b60405180910390fd5b610ecd674e88ff2e0ae6ccf860c01b61057b565b610ee16739e951d116f86ecf60c01b61057b565b6064600854600a60003373ffffffffffffffffffffffffffffffffffffffff1673ffffffffffffffffffffffffffffffffffffffff16815260200190815260200160002060020154610f339190612b46565b610f3d9190612a3d565b600a60003373ffffffffffffffffffffffffffffffffffffffff1673ffffffffffffffffffffffffffffffffffffffff16815260200190815260200160002060030181905550610f97672db4eba3bd6ee51960c01b61057b565b610fab67498155b135015b3d60c01b61057b565b610ff733600a60003373ffffffffffffffffffffffffffffffffffffffff1673ffffffffffffffffffffffffffffffffffffffff16815260200190815260200160002060030154611e22565b565b600b60009054906101000a900473ffffffffffffffffffffffffffffffffffffffff1681565b611033675d91c56b0931cf8a60c01b61057b565b61104767c7fcd39f70be7e5260c01b61057b565b61105b6727ec7cfc85b9bfd860c01b61057b565b61106f67d344fc9245663f9660c01b61057b565b600b60009054906101000a900473ffffffffffffffffffffffffffffffffffffffff1673ffffffffffffffffffffffffffffffffffffffff163373ffffffffffffffffffffffffffffffffffffffff161461110a576110d86720c612f6e600391c60c01b61057b565b6040517f8679b0c000000000000000000000000000000000000000000000000000000000815260040160405180910390fd5b61111e670298e5b18b5a4d3260c01b61057b565b61113267d791130bc5b73d6160c01b61057b565b611146675f09f08f8602cee160c01b61057b565b61115a6758e006b142c56a6960c01b61057b565b61116e673a1eb69386ab681860c01b61057b565b6111826788ad799ddfc98b2460c01b61057b565b61119667594381ac486e144a60c01b61057b565b600047116111e4576111b267235294236fee96c560c01b61057b565b6040517f47108e3e00000000000000000000000000000000000000000000000000000000815260040160405180910390fd5b6111f8670387f0f9fa9e47cd60c01b61057b565b61120c67ee9222eb1d86038760c01b61057b565b611220677a4e432603ac2c8a60c01b61057b565b61123467dfe92582567c9fe560c01b61057b565b61124867777b8ef69a6650ec60c01b61057b565b61125c679ae23090b714fd7a60c01b61057b565b6112668282611e22565b61127a67cef420de04cb53e460c01b61057b565b6002600d819055505050565b600c60009054906101000a900473ffffffffffffffffffffffffffffffffffffffff1681565b6112c067c88dacfba329a60360c01b61057b565b6112d467c7fcd39f70be7e5260c01b61057b565b6112e86727ec7cfc85b9bfd860c01b61057b565b6112fc67d344fc9245663f9660c01b61057b565b600b60009054906101000a900473ffffffffffffffffffffffffffffffffffffffff1673ffffffffffffffffffffffffffffffffffffffff163373ffffffffffffffffffffffffffffffffffffffff1614611397576113656720c612f6e600391c60c01b61057b565b6040517f8679b0c000000000000000000000000000000000000000000000000000000000815260040160405180910390fd5b6113ab670298e5b18b5a4d3260c01b61057b565b6113bf67d791130bc5b73d6160c01b61057b565b6113d3676f20456a38471a7460c01b61057b565b6113e767eefa9dadc08d441460c01b61057b565b6113fb67f06d626824ae176360c01b61057b565b8060078190555050565b611419672455b8655f945e0160c01b61057b565b61142d6732ab35b6c58ae03d60c01b61057b565b61144167a7c731114092d4fe60c01b61057b565b61145567efc733b566804d8d60c01b61057b565b343373ffffffffffffffffffffffffffffffffffffffff163110156114ba5761148867d43ae4651bc3f58960c01b61057b565b6040517f47108e3e00000000000000000000000000000000000000000000000000000000815260040160405180910390fd5b6114ce67f4faeb560f5f2f8160c01b61057b565b6114e26788024e7b7361880260c01b61057b565b6114f667d47b86c896224a0860c01b61057b565b61150a679f0b8e7b66114a3660c01b61057b565b61151e6739e4ba10b87ad3b060c01b61057b565b6115326709a502441177d28860c01b61057b565b611546670a12f685d553b92960c01b61057b565b640b68a0aa00341161159857611566670f4bae9ca1654a5960c01b61057b565b6040517f78e9f1ba00000000000000000000000000000000000000000000000000000000815260040160405180910390fd5b6115ac67377ddc087f41e66160c01b61057b565b6115c067f75ca81012e151a260c01b61057b565b6115d467ffc630eb05397e9360c01b61057b565b6115e867d6b787ab6fee960c60c01b61057b565b6115fc67ff7a42cc85ca41c460c01b61057b565b611610671e5ad62e89a8acd060c01b61057b565b611624674931b429a263235960c01b61057b565b3373ffffffffffffffffffffffffffffffffffffffff16600a60003373ffffffffffffffffffffffffffffffffffffffff1673ffffffffffffffffffffffffffffffffffffffff16815260200190815260200160002060000160009054906101000a900473ffffffffffffffffffffffffffffffffffffffff1673ffffffffffffffffffffffffffffffffffffffff1603611713576116cd675fd0cc18a6713c7860c01b61057b565b6116e1671cc1a494784597b160c01b61057b565b6040517f8424505800000000000000000000000000000000000000000000000000000000815260040160405180910390fd5b6117276766f3a0e380ee0f3660c01b61057b565b61173b67b2c57374d1385bca60c01b61057b565b61174f67bb8b56d4ae9a4d0660c01b61057b565b6117636714acd7c57b604faa60c01b61057b565b6117776751b492dbd4edefe860c01b61057b565b61178b677d6351f079cf8ac260c01b61057b565b61179f67297f0fc19bb1510860c01b61057b565b6000600360009054906101000a900473ffffffffffffffffffffffffffffffffffffffff1673ffffffffffffffffffffffffffffffffffffffff16630b4805d3336040518263ffffffff1660e01b81526004016117fc9190612918565b602060405180830381865afa158015611819573d6000803e3d6000fd5b505050506040513d601f19601f8201168201806040525081019061183d9190612b9d565b0361189c57611856679c8e6d863d578b2260c01b61057b565b61186a67b79ac3d2768bc83460c01b61057b565b6040517f3a70817d00000000000000000000000000000000000000000000000000000000815260040160405180910390fd5b6118b06785e024405695167160c01b61057b565b6118c467e3914f3a621aff1c60c01b61057b565b6118d867077410d3f87bce6760c01b61057b565b6118ec6736c81a905436a66c60c01b61057b565b6119006777cc47f76b5f106260c01b61057b565b611914672dc5c43aabbdd00060c01b61057b565b6119286790b7c7bff9c7191760c01b61057b565b600181111561196c576040517f08c379a000000000000000000000000000000000000000000000000000000000815260040161196390612c16565b60405180910390fd5b61198067a2e7a62d3fe442eb60c01b61057b565b611994670e8d285c5f093b2760c01b61057b565b6119a867216e003493d50fc060c01b61057b565b6119b23034611e22565b6119c6673ce2bce5077968dd60c01b61057b565b600660008154809291906119d990612c36565b91905055506119f2677b708c8d76f06ec860c01b61057b565b600960008281526020019081526020016000206002016000815480929190611a1990612c36565b9190505550611a32676573a8c4d03eeaf760c01b61057b565b346009600083815260200190815260200160002060030154611a549190612c7e565b6009600083815260200190815260200160002060030181905550611a8267b1cdcda192ca140760c01b61057b565b611a96676b3f893648db41ea60c01b61057b565b611a9e6120a8565b611ab267ced847f335fc0e7d60c01b61057b565b611ac6673b3090824574f03860c01b61057b565b611acf8161217c565b611ae3673e3d29d862b00e8560c01b61057b565b611af767f2b3b04420ef6af160c01b61057b565b7fbabd4d8ad6be16c6a1ac0b279aaad4eb273f40de86a3c6ac350147fc9bbdbda330600960008081526020019081526020016000206002015460096000808152602001908152602001600020600301546009600080815260200190815260200160002060010154600960006001815260200190815260200160002060020154600960006001815260200190815260200160002060030154600960006001815260200190815260200160002060010154604051611bb99796959493929190612cb2565b60405180910390a150565b6000611bda67c6db637aa1e6187560c01b61057b565b611bee673a1eb69386ab681860c01b61057b565b611c026788ad799ddfc98b2460c01b61057b565b611c1667594381ac486e144a60c01b61057b565b60004711611c6457611c3267235294236fee96c560c01b61057b565b6040517f47108e3e00000000000000000000000000000000000000000000000000000000815260040160405180910390fd5b611c78670387f0f9fa9e47cd60c01b61057b565b611c8c67ee9222eb1d86038760c01b61057b565b611ca067d7018905c4f2375960c01b61057b565b611cb467e1ded6b97ea0678660c01b61057b565b611cc867c7fcd39f70be7e5260c01b61057b565b611cdc6727ec7cfc85b9bfd860c01b61057b565b611cf067d344fc9245663f9660c01b61057b565b600b60009054906101000a900473ffffffffffffffffffffffffffffffffffffffff1673ffffffffffffffffffffffffffffffffffffffff163373ffffffffffffffffffffffffffffffffffffffff1614611d8b57611d596720c612f6e600391c60c01b61057b565b6040517f8679b0c000000000000000000000000000000000000000000000000000000000815260040160405180910390fd5b611d9f670298e5b18b5a4d3260c01b61057b565b611db367d791130bc5b73d6160c01b61057b565b611dc767ad564288b2d8c5b560c01b61057b565b611ddb675c5696cebed423f860c01b61057b565b611def67231cb3c5c20e4a0b60c01b61057b565b611e03676e9b202fd91850dc60c01b61057b565b8147611e0f9190612a3d565b9050919050565b600d5481565b60065481565b611e36671a3408decfbe54a760c01b61057b565b611e4a6741e3fca154db215560c01b61057b565b611e5e671e524aecd49cde5a60c01b61057b565b6000808373ffffffffffffffffffffffffffffffffffffffff1683604051611e8590612d52565b60006040518083038185875af1925050503d8060008114611ec2576040519150601f19603f3d011682016040523d82523d6000602084013e611ec7565b606091505b5091509150611ee06727bc31cf40a9195660c01b61057b565b611ef467873f38274f437ca160c01b61057b565b611f08670df65118371ea16760c01b61057b565b81611f48576040517f08c379a0000000000000000000000000000000000000000000000000000000008152600401611f3f90612db3565b60405180910390fd5b611f5c67091299efd089b4a560c01b61057b565b50505050565b611f7667e01602a54d5188a460c01b61057b565b611f8a670b2e029ccb8f2e7360c01b61057b565b611f9e672abe4057a64f38d460c01b61057b565b611fb2674011afcd3021da5c60c01b61057b565b600c60149054906101000a900460ff1661200c57611fda67d23e02af3063841160c01b61057b565b6040517f0541f1f000000000000000000000000000000000000000000000000000000000815260040160405180910390fd5b612020675c32c4cae713b43960c01b61057b565b6120346783707b958b1225aa60c01b61057b565b6120486758a7f503776927d260c01b61057b565b61205c672b57bf93bc86055060c01b61057b565b61207067690b4750ce2c6ff760c01b61057b565b600960006007548152602001908152602001600020600301546064476120969190612b46565b6120a09190612a3d565b600881905550565b6120bc6794bd4a2d40aea2f260c01b61057b565b6120d067798d8bd9bd888ff860c01b61057b565b600654606460096000808152602001908152602001600020600201546120f69190612b46565b6121009190612a3d565b600960008081526020019081526020016000206001018190555061212e674eceb2dc8ca5039d60c01b61057b565b60065460646009600060018152602001908152602001600020600201546121559190612b46565b61215f9190612a3d565b600960006001815260200190815260200160002060010181905550565b61219067a1a79ec63dfa23e560c01b61057b565b6121a467251b801910f00dae60c01b61057b565b33600a60003373ffffffffffffffffffffffffffffffffffffffff1673ffffffffffffffffffffffffffffffffffffffff16815260200190815260200160002060000160006101000a81548173ffffffffffffffffffffffffffffffffffffffff021916908373ffffffffffffffffffffffffffffffffffffffff160217905550612239675423eb7622e77b7560c01b61057b565b80600a60003373ffffffffffffffffffffffffffffffffffffffff1673ffffffffffffffffffffffffffffffffffffffff168152602001908152602001600020600101819055506122946755c224c82c1980bd60c01b61057b565b34600a60003373ffffffffffffffffffffffffffffffffffffffff1673ffffffffffffffffffffffffffffffffffffffff1681526020019081526020016000206002018190555050565b600082825260208201905092915050565b7f796f752063616e27742073656e64206c657373207468616e2035306b20776569600082015250565b60006123256020836122de565b9150612330826122ef565b602082019050919050565b6000602082019050818103600083015261235481612318565b9050919050565b600081519050919050565b7f4e487b7100000000000000000000000000000000000000000000000000000000600052604160045260246000fd5b7f4e487b7100000000000000000000000000000000000000000000000000000000600052602260045260246000fd5b600060028204905060018216806123dc57607f821691505b6020821081036123ef576123ee612395565b5b50919050565b60008190508160005260206000209050919050565b60006020601f8301049050919050565b600082821b905092915050565b6000600883026124577fffffffffffffffffffffffffffffffffffffffffffffffffffffffffffffffff8261241a565b612461868361241a565b95508019841693508086168417925050509392505050565b6000819050919050565b6000819050919050565b60006124a86124a361249e84612479565b612483565b612479565b9050919050565b6000819050919050565b6124c28361248d565b6124d66124ce826124af565b848454612427565b825550505050565b600090565b6124eb6124de565b6124f68184846124b9565b505050565b5b8181101561251a5761250f6000826124e3565b6001810190506124fc565b5050565b601f82111561255f57612530816123f5565b6125398461240a565b81016020851015612548578190505b61255c6125548561240a565b8301826124fb565b50505b505050565b600082821c905092915050565b600061258260001984600802612564565b1980831691505092915050565b600061259b8383612571565b9150826002028217905092915050565b6125b48261235b565b67ffffffffffffffff8111156125cd576125cc612366565b5b6125d782546123c4565b6125e282828561251e565b600060209050601f8311600181146126155760008415612603578287015190505b61260d858261258f565b865550612675565b601f198416612623866123f5565b60005b8281101561264b57848901518255600182019150602085019450602081019050612626565b868310156126685784890151612664601f891682612571565b8355505b6001600288020188555050505b505050505050565b600080fd5b600073ffffffffffffffffffffffffffffffffffffffff82169050919050565b60006126ad82612682565b9050919050565b6126bd816126a2565b81146126c857600080fd5b50565b6000813590506126da816126b4565b92915050565b6000602082840312156126f6576126f561267d565b5b6000612704848285016126cb565b91505092915050565b600061271882612682565b9050919050565b6127288161270d565b82525050565b61273781612479565b82525050565b6000608082019050612752600083018761271f565b61275f602083018661272e565b61276c604083018561272e565b612779606083018461272e565b95945050505050565b61278b81612479565b811461279657600080fd5b50565b6000813590506127a881612782565b92915050565b6000806000606084860312156127c7576127c661267d565b5b60006127d586828701612799565b93505060206127e686828701612799565b92505060406127f7868287016126cb565b9150509250925092565b6000602082019050612816600083018461272e565b92915050565b6000602082840312156128325761283161267d565b5b600061284084828501612799565b91505092915050565b60005b8381101561286757808201518184015260208101905061284c565b60008484015250505050565b6000601f19601f8301169050919050565b600061288f8261235b565b61289981856122de565b93506128a9818560208601612849565b6128b281612873565b840191505092915050565b600060808201905081810360008301526128d78187612884565b90506128e6602083018661272e565b6128f3604083018561272e565b612900606083018461272e565b95945050505050565b612912816126a2565b82525050565b600060208201905061292d6000830184612909565b92915050565b6000806040838503121561294a5761294961267d565b5b6000612958858286016126cb565b925050602061296985828601612799565b9150509250929050565b7f66656520616c7265616479207061696400000000000000000000000000000000600082015250565b60006129a96010836122de565b91506129b482612973565b602082019050919050565b600060208201905081810360008301526129d88161299c565b9050919050565b7f4e487b7100000000000000000000000000000000000000000000000000000000600052601260045260246000fd5b7f4e487b7100000000000000000000000000000000000000000000000000000000600052601160045260246000fd5b6000612a4882612479565b9150612a5383612479565b925082612a6357612a626129df565b5b828204905092915050565b7f70617920706c6174666f726d2066656520666972737400000000000000000000600082015250565b6000612aa46016836122de565b9150612aaf82612a6e565b602082019050919050565b60006020820190508181036000830152612ad381612a97565b9050919050565b7f6e6f206761696e00000000000000000000000000000000000000000000000000600082015250565b6000612b106007836122de565b9150612b1b82612ada565b602082019050919050565b60006020820190508181036000830152612b3f81612b03565b9050919050565b6000612b5182612479565b9150612b5c83612479565b9250828202612b6a81612479565b91508282048414831517612b8157612b80612a0e565b5b5092915050565b600081519050612b9781612782565b92915050565b600060208284031215612bb357612bb261267d565b5b6000612bc184828501612b88565b91505092915050565b7f636f6d70657469746f7220646f6e277420657869737400000000000000000000600082015250565b6000612c006016836122de565b9150612c0b82612bca565b602082019050919050565b60006020820190508181036000830152612c2f81612bf3565b9050919050565b6000612c4182612479565b91507fffffffffffffffffffffffffffffffffffffffffffffffffffffffffffffffff8203612c7357612c72612a0e565b5b600182019050919050565b6000612c8982612479565b9150612c9483612479565b9250828201905080821115612cac57612cab612a0e565b5b92915050565b600060e082019050612cc7600083018a612909565b612cd4602083018961272e565b612ce1604083018861272e565b612cee606083018761272e565b612cfb608083018661272e565b612d0860a083018561272e565b612d1560c083018461272e565b98975050505050505050565b600081905092915050565b50565b6000612d3c600083612d21565b9150612d4782612d2c565b600082019050919050565b6000612d5d82612d2f565b9150819050919050565b7f4661696c656420746f2073656e64204574686572000000000000000000000000600082015250565b6000612d9d6014836122de565b9150612da882612d67565b602082019050919050565b60006020820190508181036000830152612dcc81612d90565b905091905056fea2646970667358221220fbcd0f6bcb450ef4175603ccaf2dae3893add0afc78c602ef47b7f4f00bfa0b264736f6c63430008150033","opcodes":"PUSH1 0x80 PUSH1 0x40 MSTORE PUSH1 0x40 MLOAD PUSH3 0x363E CODESIZE SUB DUP1 PUSH3 0x363E DUP4 CODECOPY DUP2 DUP2 ADD PUSH1 0x40 MSTORE DUP2 ADD SWAP1 PUSH3 0x29 SWAP2 SWAP1 PUSH3 0x443 JUMP JUMPDEST PUSH3 0x45 PUSH8 0x30D6916A99B6B034 PUSH1 0xC0 SHL PUSH3 0x248 PUSH1 0x20 SHL PUSH1 0x20 SHR JUMP JUMPDEST PUSH3 0x61 PUSH8 0x26BBAB3F2FE4030B PUSH1 0xC0 SHL PUSH3 0x248 PUSH1 0x20 SHL PUSH1 0x20 SHR JUMP JUMPDEST DUP2 PUSH1 0x2 PUSH1 0x0 PUSH2 0x100 EXP DUP2 SLOAD DUP2 PUSH20 0xFFFFFFFFFFFFFFFFFFFFFFFFFFFFFFFFFFFFFFFF MUL NOT AND SWAP1 DUP4 PUSH20 0xFFFFFFFFFFFFFFFFFFFFFFFFFFFFFFFFFFFFFFFF AND MUL OR SWAP1 SSTORE POP PUSH3 0xBE PUSH8 0x8C0FAB3EED0282F PUSH1 0xC0 SHL PUSH3 0x248 PUSH1 0x20 SHL PUSH1 0x20 SHR JUMP JUMPDEST DUP1 PUSH1 0x3 PUSH1 0x0 PUSH2 0x100 EXP DUP2 SLOAD DUP2 PUSH20 0xFFFFFFFFFFFFFFFFFFFFFFFFFFFFFFFFFFFFFFFF MUL NOT AND SWAP1 DUP4 PUSH20 0xFFFFFFFFFFFFFFFFFFFFFFFFFFFFFFFFFFFFFFFF AND MUL OR SWAP1 SSTORE POP PUSH3 0x11B PUSH8 0xDB4B1B074BF66DF6 PUSH1 0xC0 SHL PUSH3 0x248 PUSH1 0x20 SHL PUSH1 0x20 SHR JUMP JUMPDEST DUP4 PUSH1 0x9 PUSH1 0x0 DUP1 DUP2 MSTORE PUSH1 0x20 ADD SWAP1 DUP2 MSTORE PUSH1 0x20 ADD PUSH1 0x0 KECCAK256 PUSH1 0x0 ADD SWAP1 DUP2 PUSH3 0x140 SWAP2 SWAP1 PUSH3 0x73E JUMP JUMPDEST POP PUSH3 0x15D PUSH8 0xEF87B6CF498754E0 PUSH1 0xC0 SHL PUSH3 0x248 PUSH1 0x20 SHL PUSH1 0x20 SHR JUMP JUMPDEST DUP3 PUSH1 0x9 PUSH1 0x0 PUSH1 0x1 DUP2 MSTORE PUSH1 0x20 ADD SWAP1 DUP2 MSTORE PUSH1 0x20 ADD PUSH1 0x0 KECCAK256 PUSH1 0x0 ADD SWAP1 DUP2 PUSH3 0x183 SWAP2 SWAP1 PUSH3 0x73E JUMP JUMPDEST POP PUSH3 0x1A0 PUSH8 0x398934E6DE168AE3 PUSH1 0xC0 SHL PUSH3 0x248 PUSH1 0x20 SHL PUSH1 0x20 SHR JUMP JUMPDEST DUP2 PUSH1 0xB PUSH1 0x0 PUSH2 0x100 EXP DUP2 SLOAD DUP2 PUSH20 0xFFFFFFFFFFFFFFFFFFFFFFFFFFFFFFFFFFFFFFFF MUL NOT AND SWAP1 DUP4 PUSH20 0xFFFFFFFFFFFFFFFFFFFFFFFFFFFFFFFFFFFFFFFF AND MUL OR SWAP1 SSTORE POP PUSH3 0x1FD PUSH8 0xA4E63E1AEF964B76 PUSH1 0xC0 SHL PUSH3 0x248 PUSH1 0x20 SHL PUSH1 0x20 SHR JUMP JUMPDEST DUP1 PUSH1 0xC PUSH1 0x0 PUSH2 0x100 EXP DUP2 SLOAD DUP2 PUSH20 0xFFFFFFFFFFFFFFFFFFFFFFFFFFFFFFFFFFFFFFFF MUL NOT AND SWAP1 DUP4 PUSH20 0xFFFFFFFFFFFFFFFFFFFFFFFFFFFFFFFFFFFFFFFF AND MUL OR SWAP1 SSTORE POP POP POP POP POP PUSH3 0x825 JUMP JUMPDEST POP JUMP JUMPDEST PUSH1 0x0 PUSH1 0x40 MLOAD SWAP1 POP SWAP1 JUMP JUMPDEST PUSH1 0x0 DUP1 REVERT JUMPDEST PUSH1 0x0 DUP1 REVERT JUMPDEST PUSH1 0x0 DUP1 REVERT JUMPDEST PUSH1 0x0 DUP1 REVERT JUMPDEST PUSH1 0x0 PUSH1 0x1F NOT PUSH1 0x1F DUP4 ADD AND SWAP1 POP SWAP2 SWAP1 POP JUMP JUMPDEST PUSH32 0x4E487B7100000000000000000000000000000000000000000000000000000000 PUSH1 0x0 MSTORE PUSH1 0x41 PUSH1 0x4 MSTORE PUSH1 0x24 PUSH1 0x0 REVERT JUMPDEST PUSH3 0x2B4 DUP3 PUSH3 0x269 JUMP JUMPDEST DUP2 ADD DUP2 DUP2 LT PUSH8 0xFFFFFFFFFFFFFFFF DUP3 GT OR ISZERO PUSH3 0x2D6 JUMPI PUSH3 0x2D5 PUSH3 0x27A JUMP JUMPDEST JUMPDEST DUP1 PUSH1 0x40 MSTORE POP POP POP JUMP JUMPDEST PUSH1 0x0 PUSH3 0x2EB PUSH3 0x24B JUMP JUMPDEST SWAP1 POP PUSH3 0x2F9 DUP3 DUP3 PUSH3 0x2A9 JUMP JUMPDEST SWAP2 SWAP1 POP JUMP JUMPDEST PUSH1 0x0 PUSH8 0xFFFFFFFFFFFFFFFF DUP3 GT ISZERO PUSH3 0x31C JUMPI PUSH3 0x31B PUSH3 0x27A JUMP JUMPDEST JUMPDEST PUSH3 0x327 DUP3 PUSH3 0x269 JUMP JUMPDEST SWAP1 POP PUSH1 0x20 DUP2 ADD SWAP1 POP SWAP2 SWAP1 POP JUMP JUMPDEST PUSH1 0x0 JUMPDEST DUP4 DUP2 LT ISZERO PUSH3 0x354 JUMPI DUP1 DUP3 ADD MLOAD DUP2 DUP5 ADD MSTORE PUSH1 0x20 DUP2 ADD SWAP1 POP PUSH3 0x337 JUMP JUMPDEST PUSH1 0x0 DUP5 DUP5 ADD MSTORE POP POP POP POP JUMP JUMPDEST PUSH1 0x0 PUSH3 0x377 PUSH3 0x371 DUP5 PUSH3 0x2FE JUMP JUMPDEST PUSH3 0x2DF JUMP JUMPDEST SWAP1 POP DUP3 DUP2 MSTORE PUSH1 0x20 DUP2 ADD DUP5 DUP5 DUP5 ADD GT ISZERO PUSH3 0x396 JUMPI PUSH3 0x395 PUSH3 0x264 JUMP JUMPDEST JUMPDEST PUSH3 0x3A3 DUP5 DUP3 DUP6 PUSH3 0x334 JUMP JUMPDEST POP SWAP4 SWAP3 POP POP POP JUMP JUMPDEST PUSH1 0x0 DUP3 PUSH1 0x1F DUP4 ADD SLT PUSH3 0x3C3 JUMPI PUSH3 0x3C2 PUSH3 0x25F JUMP JUMPDEST JUMPDEST DUP2 MLOAD PUSH3 0x3D5 DUP5 DUP3 PUSH1 0x20 DUP7 ADD PUSH3 0x360 JUMP JUMPDEST SWAP2 POP POP SWAP3 SWAP2 POP POP JUMP JUMPDEST PUSH1 0x0 PUSH20 0xFFFFFFFFFFFFFFFFFFFFFFFFFFFFFFFFFFFFFFFF DUP3 AND SWAP1 POP SWAP2 SWAP1 POP JUMP JUMPDEST PUSH1 0x0 PUSH3 0x40B DUP3 PUSH3 0x3DE JUMP JUMPDEST SWAP1 POP SWAP2 SWAP1 POP JUMP JUMPDEST PUSH3 0x41D DUP2 PUSH3 0x3FE JUMP JUMPDEST DUP2 EQ PUSH3 0x429 JUMPI PUSH1 0x0 DUP1 REVERT JUMPDEST POP JUMP JUMPDEST PUSH1 0x0 DUP2 MLOAD SWAP1 POP PUSH3 0x43D DUP2 PUSH3 0x412 JUMP JUMPDEST SWAP3 SWAP2 POP POP JUMP JUMPDEST PUSH1 0x0 DUP1 PUSH1 0x0 DUP1 PUSH1 0x80 DUP6 DUP8 SUB SLT ISZERO PUSH3 0x460 JUMPI PUSH3 0x45F PUSH3 0x255 JUMP JUMPDEST JUMPDEST PUSH1 0x0 DUP6 ADD MLOAD PUSH8 0xFFFFFFFFFFFFFFFF DUP2 GT ISZERO PUSH3 0x481 JUMPI PUSH3 0x480 PUSH3 0x25A JUMP JUMPDEST JUMPDEST PUSH3 0x48F DUP8 DUP3 DUP9 ADD PUSH3 0x3AB JUMP JUMPDEST SWAP5 POP POP PUSH1 0x20 DUP6 ADD MLOAD PUSH8 0xFFFFFFFFFFFFFFFF DUP2 GT ISZERO PUSH3 0x4B3 JUMPI PUSH3 0x4B2 PUSH3 0x25A JUMP JUMPDEST JUMPDEST PUSH3 0x4C1 DUP8 DUP3 DUP9 ADD PUSH3 0x3AB JUMP JUMPDEST SWAP4 POP POP PUSH1 0x40 PUSH3 0x4D4 DUP8 DUP3 DUP9 ADD PUSH3 0x42C JUMP JUMPDEST SWAP3 POP POP PUSH1 0x60 PUSH3 0x4E7 DUP8 DUP3 DUP9 ADD PUSH3 0x42C JUMP JUMPDEST SWAP2 POP POP SWAP3 SWAP6 SWAP2 SWAP5 POP SWAP3 POP JUMP JUMPDEST PUSH1 0x0 DUP2 MLOAD SWAP1 POP SWAP2 SWAP1 POP JUMP JUMPDEST PUSH32 0x4E487B7100000000000000000000000000000000000000000000000000000000 PUSH1 0x0 MSTORE PUSH1 0x22 PUSH1 0x4 MSTORE PUSH1 0x24 PUSH1 0x0 REVERT JUMPDEST PUSH1 0x0 PUSH1 0x2 DUP3 DIV SWAP1 POP PUSH1 0x1 DUP3 AND DUP1 PUSH3 0x546 JUMPI PUSH1 0x7F DUP3 AND SWAP2 POP JUMPDEST PUSH1 0x20 DUP3 LT DUP2 SUB PUSH3 0x55C JUMPI PUSH3 0x55B PUSH3 0x4FE JUMP JUMPDEST JUMPDEST POP SWAP2 SWAP1 POP JUMP JUMPDEST PUSH1 0x0 DUP2 SWAP1 POP DUP2 PUSH1 0x0 MSTORE PUSH1 0x20 PUSH1 0x0 KECCAK256 SWAP1 POP SWAP2 SWAP1 POP JUMP JUMPDEST PUSH1 0x0 PUSH1 0x20 PUSH1 0x1F DUP4 ADD DIV SWAP1 POP SWAP2 SWAP1 POP JUMP JUMPDEST PUSH1 0x0 DUP3 DUP3 SHL SWAP1 POP SWAP3 SWAP2 POP POP JUMP JUMPDEST PUSH1 0x0 PUSH1 0x8 DUP4 MUL PUSH3 0x5C6 PUSH32 0xFFFFFFFFFFFFFFFFFFFFFFFFFFFFFFFFFFFFFFFFFFFFFFFFFFFFFFFFFFFFFFFF DUP3 PUSH3 0x587 JUMP JUMPDEST PUSH3 0x5D2 DUP7 DUP4 PUSH3 0x587 JUMP JUMPDEST SWAP6 POP DUP1 NOT DUP5 AND SWAP4 POP DUP1 DUP7 AND DUP5 OR SWAP3 POP POP POP SWAP4 SWAP3 POP POP POP JUMP JUMPDEST PUSH1 0x0 DUP2 SWAP1 POP SWAP2 SWAP1 POP JUMP JUMPDEST PUSH1 0x0 DUP2 SWAP1 POP SWAP2 SWAP1 POP JUMP JUMPDEST PUSH1 0x0 PUSH3 0x61F PUSH3 0x619 PUSH3 0x613 DUP5 PUSH3 0x5EA JUMP JUMPDEST PUSH3 0x5F4 JUMP JUMPDEST PUSH3 0x5EA JUMP JUMPDEST SWAP1 POP SWAP2 SWAP1 POP JUMP JUMPDEST PUSH1 0x0 DUP2 SWAP1 POP SWAP2 SWAP1 POP JUMP JUMPDEST PUSH3 0x63B DUP4 PUSH3 0x5FE JUMP JUMPDEST PUSH3 0x653 PUSH3 0x64A DUP3 PUSH3 0x626 JUMP JUMPDEST DUP5 DUP5 SLOAD PUSH3 0x594 JUMP JUMPDEST DUP3 SSTORE POP POP POP POP JUMP JUMPDEST PUSH1 0x0 SWAP1 JUMP JUMPDEST PUSH3 0x66A PUSH3 0x65B JUMP JUMPDEST PUSH3 0x677 DUP2 DUP5 DUP5 PUSH3 0x630 JUMP JUMPDEST POP POP POP JUMP JUMPDEST JUMPDEST DUP2 DUP2 LT ISZERO PUSH3 0x69F JUMPI PUSH3 0x693 PUSH1 0x0 DUP3 PUSH3 0x660 JUMP JUMPDEST PUSH1 0x1 DUP2 ADD SWAP1 POP PUSH3 0x67D JUMP JUMPDEST POP POP JUMP JUMPDEST PUSH1 0x1F DUP3 GT ISZERO PUSH3 0x6EE JUMPI PUSH3 0x6B8 DUP2 PUSH3 0x562 JUMP JUMPDEST PUSH3 0x6C3 DUP5 PUSH3 0x577 JUMP JUMPDEST DUP2 ADD PUSH1 0x20 DUP6 LT ISZERO PUSH3 0x6D3 JUMPI DUP2 SWAP1 POP JUMPDEST PUSH3 0x6EB PUSH3 0x6E2 DUP6 PUSH3 0x577 JUMP JUMPDEST DUP4 ADD DUP3 PUSH3 0x67C JUMP JUMPDEST POP POP JUMPDEST POP POP POP JUMP JUMPDEST PUSH1 0x0 DUP3 DUP3 SHR SWAP1 POP SWAP3 SWAP2 POP POP JUMP JUMPDEST PUSH1 0x0 PUSH3 0x713 PUSH1 0x0 NOT DUP5 PUSH1 0x8 MUL PUSH3 0x6F3 JUMP JUMPDEST NOT DUP1 DUP4 AND SWAP2 POP POP SWAP3 SWAP2 POP POP JUMP JUMPDEST PUSH1 0x0 PUSH3 0x72E DUP4 DUP4 PUSH3 0x700 JUMP JUMPDEST SWAP2 POP DUP3 PUSH1 0x2 MUL DUP3 OR SWAP1 POP SWAP3 SWAP2 POP POP JUMP JUMPDEST PUSH3 0x749 DUP3 PUSH3 0x4F3 JUMP JUMPDEST PUSH8 0xFFFFFFFFFFFFFFFF DUP2 GT ISZERO PUSH3 0x765 JUMPI PUSH3 0x764 PUSH3 0x27A JUMP JUMPDEST JUMPDEST PUSH3 0x771 DUP3 SLOAD PUSH3 0x52D JUMP JUMPDEST PUSH3 0x77E DUP3 DUP3 DUP6 PUSH3 0x6A3 JUMP JUMPDEST PUSH1 0x0 PUSH1 0x20 SWAP1 POP PUSH1 0x1F DUP4 GT PUSH1 0x1 DUP2 EQ PUSH3 0x7B6 JUMPI PUSH1 0x0 DUP5 ISZERO PUSH3 0x7A1 JUMPI DUP3 DUP8 ADD MLOAD SWAP1 POP JUMPDEST PUSH3 0x7AD DUP6 DUP3 PUSH3 0x720 JUMP JUMPDEST DUP7 SSTORE POP PUSH3 0x81D JUMP JUMPDEST PUSH1 0x1F NOT DUP5 AND PUSH3 0x7C6 DUP7 PUSH3 0x562 JUMP JUMPDEST PUSH1 0x0 JUMPDEST DUP3 DUP2 LT ISZERO PUSH3 0x7F0 JUMPI DUP5 DUP10 ADD MLOAD DUP3 SSTORE PUSH1 0x1 DUP3 ADD SWAP2 POP PUSH1 0x20 DUP6 ADD SWAP5 POP PUSH1 0x20 DUP2 ADD SWAP1 POP PUSH3 0x7C9 JUMP JUMPDEST DUP7 DUP4 LT ISZERO PUSH3 0x810 JUMPI DUP5 DUP10 ADD MLOAD PUSH3 0x80C PUSH1 0x1F DUP10 AND DUP3 PUSH3 0x700 JUMP JUMPDEST DUP4 SSTORE POP JUMPDEST PUSH1 0x1 PUSH1 0x2 DUP9 MUL ADD DUP9 SSTORE POP POP POP JUMPDEST POP POP POP POP POP POP JUMP JUMPDEST PUSH2 0x2E09 DUP1 PUSH3 0x835 PUSH1 0x0 CODECOPY PUSH1 0x0 RETURN INVALID PUSH1 0x80 PUSH1 0x40 MSTORE PUSH1 0x4 CALLDATASIZE LT PUSH2 0x102 JUMPI PUSH1 0x0 CALLDATALOAD PUSH1 0xE0 SHR DUP1 PUSH4 0xAD05D9C3 GT PUSH2 0x95 JUMPI DUP1 PUSH4 0xDC09F682 GT PUSH2 0x64 JUMPI DUP1 PUSH4 0xDC09F682 EQ PUSH2 0x4A3 JUMPI DUP1 PUSH4 0xE8399CC6 EQ PUSH2 0x4CC JUMPI DUP1 PUSH4 0xEBFB6652 EQ PUSH2 0x4E8 JUMPI DUP1 PUSH4 0xF8A8FD6D EQ PUSH2 0x525 JUMPI DUP1 PUSH4 0xFE5E1853 EQ PUSH2 0x550 JUMPI PUSH2 0x240 JUMP JUMPDEST DUP1 PUSH4 0xAD05D9C3 EQ PUSH2 0x41A JUMPI DUP1 PUSH4 0xC6073C66 EQ PUSH2 0x424 JUMPI DUP1 PUSH4 0xCF959429 EQ PUSH2 0x44F JUMPI DUP1 PUSH4 0xD93E03B0 EQ PUSH2 0x478 JUMPI PUSH2 0x240 JUMP JUMPDEST DUP1 PUSH4 0x9D86801F GT PUSH2 0xD1 JUMPI DUP1 PUSH4 0x9D86801F EQ PUSH2 0x36D JUMPI DUP1 PUSH4 0xA14DE028 EQ PUSH2 0x3AD JUMPI DUP1 PUSH4 0xA32B3487 EQ PUSH2 0x3D8 JUMPI DUP1 PUSH4 0xA99073AE EQ PUSH2 0x403 JUMPI PUSH2 0x240 JUMP JUMPDEST DUP1 PUSH4 0x22010C1F EQ PUSH2 0x2AE JUMPI DUP1 PUSH4 0x5C3A3E5C EQ PUSH2 0x2EE JUMPI DUP1 PUSH4 0x6F9FB98A EQ PUSH2 0x317 JUMPI DUP1 PUSH4 0x91E0D593 EQ PUSH2 0x342 JUMPI PUSH2 0x240 JUMP JUMPDEST CALLDATASIZE PUSH2 0x240 JUMPI PUSH2 0x11B PUSH8 0x39E4BA10B87AD3B0 PUSH1 0xC0 SHL PUSH2 0x57B JUMP JUMPDEST PUSH2 0x12F PUSH8 0x9A502441177D288 PUSH1 0xC0 SHL PUSH2 0x57B JUMP JUMPDEST PUSH2 0x143 PUSH8 0xA12F685D553B929 PUSH1 0xC0 SHL PUSH2 0x57B JUMP JUMPDEST PUSH5 0xB68A0AA00 CALLVALUE GT PUSH2 0x195 JUMPI PUSH2 0x163 PUSH8 0xF4BAE9CA1654A59 PUSH1 0xC0 SHL PUSH2 0x57B JUMP JUMPDEST PUSH1 0x40 MLOAD PUSH32 0x78E9F1BA00000000000000000000000000000000000000000000000000000000 DUP2 MSTORE PUSH1 0x4 ADD PUSH1 0x40 MLOAD DUP1 SWAP2 SUB SWAP1 REVERT JUMPDEST PUSH2 0x1A9 PUSH8 0x377DDC087F41E661 PUSH1 0xC0 SHL PUSH2 0x57B JUMP JUMPDEST PUSH2 0x1BD PUSH8 0xF75CA81012E151A2 PUSH1 0xC0 SHL PUSH2 0x57B JUMP JUMPDEST PUSH2 0x1D1 PUSH8 0xFA49F1AEF0F429F2 PUSH1 0xC0 SHL PUSH2 0x57B JUMP JUMPDEST PUSH2 0x1E5 PUSH8 0xEDF07116B871F32 PUSH1 0xC0 SHL PUSH2 0x57B JUMP JUMPDEST PUSH2 0xC350 CALLVALUE LT ISZERO PUSH2 0x22A JUMPI PUSH1 0x40 MLOAD PUSH32 0x8C379A000000000000000000000000000000000000000000000000000000000 DUP2 MSTORE PUSH1 0x4 ADD PUSH2 0x221 SWAP1 PUSH2 0x233B JUMP JUMPDEST PUSH1 0x40 MLOAD DUP1 SWAP2 SUB SWAP1 REVERT JUMPDEST PUSH2 0x23E PUSH8 0xAB59DF51FDF5543B PUSH1 0xC0 SHL PUSH2 0x57B JUMP JUMPDEST STOP JUMPDEST PUSH2 0x254 PUSH8 0x6DD5A89B730ECC5E PUSH1 0xC0 SHL PUSH2 0x57B JUMP JUMPDEST PUSH2 0x268 PUSH8 0x23CEB8FA1B1A5AF2 PUSH1 0xC0 SHL PUSH2 0x57B JUMP JUMPDEST PUSH1 0x40 MLOAD DUP1 PUSH1 0x40 ADD PUSH1 0x40 MSTORE DUP1 PUSH1 0x1E DUP2 MSTORE PUSH1 0x20 ADD PUSH32 0x46616C6C6261636B2066756E6374696F6E206973206578656375746564210000 DUP2 MSTORE POP PUSH1 0x0 SWAP1 DUP2 PUSH2 0x2AC SWAP2 SWAP1 PUSH2 0x25AB JUMP JUMPDEST STOP JUMPDEST CALLVALUE DUP1 ISZERO PUSH2 0x2BA JUMPI PUSH1 0x0 DUP1 REVERT JUMPDEST POP PUSH2 0x2D5 PUSH1 0x4 DUP1 CALLDATASIZE SUB DUP2 ADD SWAP1 PUSH2 0x2D0 SWAP2 SWAP1 PUSH2 0x26E0 JUMP JUMPDEST PUSH2 0x57E JUMP JUMPDEST PUSH1 0x40 MLOAD PUSH2 0x2E5 SWAP5 SWAP4 SWAP3 SWAP2 SWAP1 PUSH2 0x273D JUMP JUMPDEST PUSH1 0x40 MLOAD DUP1 SWAP2 SUB SWAP1 RETURN JUMPDEST CALLVALUE DUP1 ISZERO PUSH2 0x2FA JUMPI PUSH1 0x0 DUP1 REVERT JUMPDEST POP PUSH2 0x315 PUSH1 0x4 DUP1 CALLDATASIZE SUB DUP2 ADD SWAP1 PUSH2 0x310 SWAP2 SWAP1 PUSH2 0x27AE JUMP JUMPDEST PUSH2 0x5CE JUMP JUMPDEST STOP JUMPDEST CALLVALUE DUP1 ISZERO PUSH2 0x323 JUMPI PUSH1 0x0 DUP1 REVERT JUMPDEST POP PUSH2 0x32C PUSH2 0x9B4 JUMP JUMPDEST PUSH1 0x40 MLOAD PUSH2 0x339 SWAP2 SWAP1 PUSH2 0x2801 JUMP JUMPDEST PUSH1 0x40 MLOAD DUP1 SWAP2 SUB SWAP1 RETURN JUMPDEST CALLVALUE DUP1 ISZERO PUSH2 0x34E JUMPI PUSH1 0x0 DUP1 REVERT JUMPDEST POP PUSH2 0x357 PUSH2 0x9F8 JUMP JUMPDEST PUSH1 0x40 MLOAD PUSH2 0x364 SWAP2 SWAP1 PUSH2 0x2801 JUMP JUMPDEST PUSH1 0x40 MLOAD DUP1 SWAP2 SUB SWAP1 RETURN JUMPDEST CALLVALUE DUP1 ISZERO PUSH2 0x379 JUMPI PUSH1 0x0 DUP1 REVERT JUMPDEST POP PUSH2 0x394 PUSH1 0x4 DUP1 CALLDATASIZE SUB DUP2 ADD SWAP1 PUSH2 0x38F SWAP2 SWAP1 PUSH2 0x281C JUMP JUMPDEST PUSH2 0x9FE JUMP JUMPDEST PUSH1 0x40 MLOAD PUSH2 0x3A4 SWAP5 SWAP4 SWAP3 SWAP2 SWAP1 PUSH2 0x28BD JUMP JUMPDEST PUSH1 0x40 MLOAD DUP1 SWAP2 SUB SWAP1 RETURN JUMPDEST CALLVALUE DUP1 ISZERO PUSH2 0x3B9 JUMPI PUSH1 0x0 DUP1 REVERT JUMPDEST POP PUSH2 0x3C2 PUSH2 0xAB6 JUMP JUMPDEST PUSH1 0x40 MLOAD PUSH2 0x3CF SWAP2 SWAP1 PUSH2 0x2801 JUMP JUMPDEST PUSH1 0x40 MLOAD DUP1 SWAP2 SUB SWAP1 RETURN JUMPDEST CALLVALUE DUP1 ISZERO PUSH2 0x3E4 JUMPI PUSH1 0x0 DUP1 REVERT JUMPDEST POP PUSH2 0x3ED PUSH2 0xABC JUMP JUMPDEST PUSH1 0x40 MLOAD PUSH2 0x3FA SWAP2 SWAP1 PUSH2 0x2801 JUMP JUMPDEST PUSH1 0x40 MLOAD DUP1 SWAP2 SUB SWAP1 RETURN JUMPDEST CALLVALUE DUP1 ISZERO PUSH2 0x40F JUMPI PUSH1 0x0 DUP1 REVERT JUMPDEST POP PUSH2 0x418 PUSH2 0xAC2 JUMP JUMPDEST STOP JUMPDEST PUSH2 0x422 PUSH2 0xC5E JUMP JUMPDEST STOP JUMPDEST CALLVALUE DUP1 ISZERO PUSH2 0x430 JUMPI PUSH1 0x0 DUP1 REVERT JUMPDEST POP PUSH2 0x439 PUSH2 0xFF9 JUMP JUMPDEST PUSH1 0x40 MLOAD PUSH2 0x446 SWAP2 SWAP1 PUSH2 0x2918 JUMP JUMPDEST PUSH1 0x40 MLOAD DUP1 SWAP2 SUB SWAP1 RETURN JUMPDEST CALLVALUE DUP1 ISZERO PUSH2 0x45B JUMPI PUSH1 0x0 DUP1 REVERT JUMPDEST POP PUSH2 0x476 PUSH1 0x4 DUP1 CALLDATASIZE SUB DUP2 ADD SWAP1 PUSH2 0x471 SWAP2 SWAP1 PUSH2 0x2933 JUMP JUMPDEST PUSH2 0x101F JUMP JUMPDEST STOP JUMPDEST CALLVALUE DUP1 ISZERO PUSH2 0x484 JUMPI PUSH1 0x0 DUP1 REVERT JUMPDEST POP PUSH2 0x48D PUSH2 0x1286 JUMP JUMPDEST PUSH1 0x40 MLOAD PUSH2 0x49A SWAP2 SWAP1 PUSH2 0x2918 JUMP JUMPDEST PUSH1 0x40 MLOAD DUP1 SWAP2 SUB SWAP1 RETURN JUMPDEST CALLVALUE DUP1 ISZERO PUSH2 0x4AF JUMPI PUSH1 0x0 DUP1 REVERT JUMPDEST POP PUSH2 0x4CA PUSH1 0x4 DUP1 CALLDATASIZE SUB DUP2 ADD SWAP1 PUSH2 0x4C5 SWAP2 SWAP1 PUSH2 0x281C JUMP JUMPDEST PUSH2 0x12AC JUMP JUMPDEST STOP JUMPDEST PUSH2 0x4E6 PUSH1 0x4 DUP1 CALLDATASIZE SUB DUP2 ADD SWAP1 PUSH2 0x4E1 SWAP2 SWAP1 PUSH2 0x281C JUMP JUMPDEST PUSH2 0x1405 JUMP JUMPDEST STOP JUMPDEST CALLVALUE DUP1 ISZERO PUSH2 0x4F4 JUMPI PUSH1 0x0 DUP1 REVERT JUMPDEST POP PUSH2 0x50F PUSH1 0x4 DUP1 CALLDATASIZE SUB DUP2 ADD SWAP1 PUSH2 0x50A SWAP2 SWAP1 PUSH2 0x281C JUMP JUMPDEST PUSH2 0x1BC4 JUMP JUMPDEST PUSH1 0x40 MLOAD PUSH2 0x51C SWAP2 SWAP1 PUSH2 0x2801 JUMP JUMPDEST PUSH1 0x40 MLOAD DUP1 SWAP2 SUB SWAP1 RETURN JUMPDEST CALLVALUE DUP1 ISZERO PUSH2 0x531 JUMPI PUSH1 0x0 DUP1 REVERT JUMPDEST POP PUSH2 0x53A PUSH2 0x1E16 JUMP JUMPDEST PUSH1 0x40 MLOAD PUSH2 0x547 SWAP2 SWAP1 PUSH2 0x2801 JUMP JUMPDEST PUSH1 0x40 MLOAD DUP1 SWAP2 SUB SWAP1 RETURN JUMPDEST CALLVALUE DUP1 ISZERO PUSH2 0x55C JUMPI PUSH1 0x0 DUP1 REVERT JUMPDEST POP PUSH2 0x565 PUSH2 0x1E1C JUMP JUMPDEST PUSH1 0x40 MLOAD PUSH2 0x572 SWAP2 SWAP1 PUSH2 0x2801 JUMP JUMPDEST PUSH1 0x40 MLOAD DUP1 SWAP2 SUB SWAP1 RETURN JUMPDEST POP JUMP JUMPDEST PUSH1 0xA PUSH1 0x20 MSTORE DUP1 PUSH1 0x0 MSTORE PUSH1 0x40 PUSH1 0x0 KECCAK256 PUSH1 0x0 SWAP2 POP SWAP1 POP DUP1 PUSH1 0x0 ADD PUSH1 0x0 SWAP1 SLOAD SWAP1 PUSH2 0x100 EXP SWAP1 DIV PUSH20 0xFFFFFFFFFFFFFFFFFFFFFFFFFFFFFFFFFFFFFFFF AND SWAP1 DUP1 PUSH1 0x1 ADD SLOAD SWAP1 DUP1 PUSH1 0x2 ADD SLOAD SWAP1 DUP1 PUSH1 0x3 ADD SLOAD SWAP1 POP DUP5 JUMP JUMPDEST PUSH2 0x5E2 PUSH8 0x1C7EBCFA3DA462D8 PUSH1 0xC0 SHL PUSH2 0x57B JUMP JUMPDEST PUSH2 0x5F6 PUSH8 0x3A1EB69386AB6818 PUSH1 0xC0 SHL PUSH2 0x57B JUMP JUMPDEST PUSH2 0x60A PUSH8 0x88AD799DDFC98B24 PUSH1 0xC0 SHL PUSH2 0x57B JUMP JUMPDEST PUSH2 0x61E PUSH8 0x594381AC486E144A PUSH1 0xC0 SHL PUSH2 0x57B JUMP JUMPDEST PUSH1 0x0 SELFBALANCE GT PUSH2 0x66C JUMPI PUSH2 0x63A PUSH8 0x235294236FEE96C5 PUSH1 0xC0 SHL PUSH2 0x57B JUMP JUMPDEST PUSH1 0x40 MLOAD PUSH32 0x47108E3E00000000000000000000000000000000000000000000000000000000 DUP2 MSTORE PUSH1 0x4 ADD PUSH1 0x40 MLOAD DUP1 SWAP2 SUB SWAP1 REVERT JUMPDEST PUSH2 0x680 PUSH8 0x387F0F9FA9E47CD PUSH1 0xC0 SHL PUSH2 0x57B JUMP JUMPDEST PUSH2 0x694 PUSH8 0xEE9222EB1D860387 PUSH1 0xC0 SHL PUSH2 0x57B JUMP JUMPDEST PUSH2 0x6A8 PUSH8 0x93DE6DAE4C1CC3A PUSH1 0xC0 SHL PUSH2 0x57B JUMP JUMPDEST PUSH2 0x6BC PUSH8 0x9ECDA57522DB7B04 PUSH1 0xC0 SHL PUSH2 0x57B JUMP JUMPDEST PUSH2 0x6D0 PUSH8 0xC7FCD39F70BE7E52 PUSH1 0xC0 SHL PUSH2 0x57B JUMP JUMPDEST PUSH2 0x6E4 PUSH8 0x27EC7CFC85B9BFD8 PUSH1 0xC0 SHL PUSH2 0x57B JUMP JUMPDEST PUSH2 0x6F8 PUSH8 0xD344FC9245663F96 PUSH1 0xC0 SHL PUSH2 0x57B JUMP JUMPDEST PUSH1 0xB PUSH1 0x0 SWAP1 SLOAD SWAP1 PUSH2 0x100 EXP SWAP1 DIV PUSH20 0xFFFFFFFFFFFFFFFFFFFFFFFFFFFFFFFFFFFFFFFF AND PUSH20 0xFFFFFFFFFFFFFFFFFFFFFFFFFFFFFFFFFFFFFFFF AND CALLER PUSH20 0xFFFFFFFFFFFFFFFFFFFFFFFFFFFFFFFFFFFFFFFF AND EQ PUSH2 0x793 JUMPI PUSH2 0x761 PUSH8 0x20C612F6E600391C PUSH1 0xC0 SHL PUSH2 0x57B JUMP JUMPDEST PUSH1 0x40 MLOAD PUSH32 0x8679B0C000000000000000000000000000000000000000000000000000000000 DUP2 MSTORE PUSH1 0x4 ADD PUSH1 0x40 MLOAD DUP1 SWAP2 SUB SWAP1 REVERT JUMPDEST PUSH2 0x7A7 PUSH8 0x298E5B18B5A4D32 PUSH1 0xC0 SHL PUSH2 0x57B JUMP JUMPDEST PUSH2 0x7BB PUSH8 0xD791130BC5B73D61 PUSH1 0xC0 SHL PUSH2 0x57B JUMP JUMPDEST PUSH2 0x7CF PUSH8 0x9AD514F8D55D6EE PUSH1 0xC0 SHL PUSH2 0x57B JUMP JUMPDEST PUSH2 0x7E3 PUSH8 0x2A8B012D8F24BC75 PUSH1 0xC0 SHL PUSH2 0x57B JUMP JUMPDEST PUSH2 0x7F7 PUSH8 0x2FE2F54746119C4C PUSH1 0xC0 SHL PUSH2 0x57B JUMP JUMPDEST PUSH2 0x80B PUSH8 0x424B15FF957BF681 PUSH1 0xC0 SHL PUSH2 0x57B JUMP JUMPDEST PUSH2 0x81F PUSH8 0xC15B6DE5DBA9D771 PUSH1 0xC0 SHL PUSH2 0x57B JUMP JUMPDEST PUSH1 0xC PUSH1 0x14 SWAP1 SLOAD SWAP1 PUSH2 0x100 EXP SWAP1 DIV PUSH1 0xFF AND ISZERO PUSH2 0x86F JUMPI PUSH1 0x40 MLOAD PUSH32 0x8C379A000000000000000000000000000000000000000000000000000000000 DUP2 MSTORE PUSH1 0x4 ADD PUSH2 0x866 SWAP1 PUSH2 0x29BF JUMP JUMPDEST PUSH1 0x40 MLOAD DUP1 SWAP2 SUB SWAP1 REVERT JUMPDEST PUSH2 0x883 PUSH8 0x556330886FAAAAD0 PUSH1 0xC0 SHL PUSH2 0x57B JUMP JUMPDEST PUSH2 0x897 PUSH8 0xD5B2F0AD988936A2 PUSH1 0xC0 SHL PUSH2 0x57B JUMP JUMPDEST PUSH2 0x8AB PUSH8 0xC3A633FB1C8C5EA1 PUSH1 0xC0 SHL PUSH2 0x57B JUMP JUMPDEST PUSH1 0x0 PUSH2 0x8B5 PUSH2 0x9B4 JUMP JUMPDEST SWAP1 POP PUSH2 0x8CB PUSH8 0x157B48A8C35092DA PUSH1 0xC0 SHL PUSH2 0x57B JUMP JUMPDEST PUSH2 0x8DF PUSH8 0xE8757613DFEFE956 PUSH1 0xC0 SHL PUSH2 0x57B JUMP JUMPDEST PUSH1 0x0 DUP5 DUP3 PUSH2 0x8ED SWAP2 SWAP1 PUSH2 0x2A3D JUMP JUMPDEST SWAP1 POP PUSH2 0x903 PUSH8 0x55CCFFF68574F68E PUSH1 0xC0 SHL PUSH2 0x57B JUMP JUMPDEST PUSH2 0x917 PUSH8 0xCB6F55514F677433 PUSH1 0xC0 SHL PUSH2 0x57B JUMP JUMPDEST PUSH1 0x0 DUP5 DUP4 PUSH2 0x925 SWAP2 SWAP1 PUSH2 0x2A3D JUMP JUMPDEST SWAP1 POP PUSH2 0x93B PUSH8 0x51FFCB2F7EB0B303 PUSH1 0xC0 SHL PUSH2 0x57B JUMP JUMPDEST PUSH2 0x94F PUSH8 0x62FBE23383E16350 PUSH1 0xC0 SHL PUSH2 0x57B JUMP JUMPDEST PUSH2 0x97B PUSH1 0xC PUSH1 0x0 SWAP1 SLOAD SWAP1 PUSH2 0x100 EXP SWAP1 DIV PUSH20 0xFFFFFFFFFFFFFFFFFFFFFFFFFFFFFFFFFFFFFFFF AND DUP4 PUSH2 0x1E22 JUMP JUMPDEST PUSH2 0x98E PUSH7 0xD16394142C8949 PUSH1 0xC0 SHL PUSH2 0x57B JUMP JUMPDEST PUSH2 0x9A2 PUSH8 0x3E37FFA9D164458D PUSH1 0xC0 SHL PUSH2 0x57B JUMP JUMPDEST PUSH2 0x9AC DUP5 DUP3 PUSH2 0x1E22 JUMP JUMPDEST POP POP POP POP POP POP JUMP JUMPDEST PUSH1 0x0 PUSH2 0x9CA PUSH8 0x91B93DA92CF8288D PUSH1 0xC0 SHL PUSH2 0x57B JUMP JUMPDEST PUSH2 0x9DE PUSH8 0xBCCF4BF57CCF4BFB PUSH1 0xC0 SHL PUSH2 0x57B JUMP JUMPDEST PUSH2 0x9F2 PUSH8 0xDDD1F81411BB94A9 PUSH1 0xC0 SHL PUSH2 0x57B JUMP JUMPDEST SELFBALANCE SWAP1 POP SWAP1 JUMP JUMPDEST PUSH1 0x7 SLOAD DUP2 JUMP JUMPDEST PUSH1 0x9 PUSH1 0x20 MSTORE DUP1 PUSH1 0x0 MSTORE PUSH1 0x40 PUSH1 0x0 KECCAK256 PUSH1 0x0 SWAP2 POP SWAP1 POP DUP1 PUSH1 0x0 ADD DUP1 SLOAD PUSH2 0xA21 SWAP1 PUSH2 0x23C4 JUMP JUMPDEST DUP1 PUSH1 0x1F ADD PUSH1 0x20 DUP1 SWAP2 DIV MUL PUSH1 0x20 ADD PUSH1 0x40 MLOAD SWAP1 DUP2 ADD PUSH1 0x40 MSTORE DUP1 SWAP3 SWAP2 SWAP1 DUP2 DUP2 MSTORE PUSH1 0x20 ADD DUP3 DUP1 SLOAD PUSH2 0xA4D SWAP1 PUSH2 0x23C4 JUMP JUMPDEST DUP1 ISZERO PUSH2 0xA9A JUMPI DUP1 PUSH1 0x1F LT PUSH2 0xA6F JUMPI PUSH2 0x100 DUP1 DUP4 SLOAD DIV MUL DUP4 MSTORE SWAP2 PUSH1 0x20 ADD SWAP2 PUSH2 0xA9A JUMP JUMPDEST DUP3 ADD SWAP2 SWAP1 PUSH1 0x0 MSTORE PUSH1 0x20 PUSH1 0x0 KECCAK256 SWAP1 JUMPDEST DUP2 SLOAD DUP2 MSTORE SWAP1 PUSH1 0x1 ADD SWAP1 PUSH1 0x20 ADD DUP1 DUP4 GT PUSH2 0xA7D JUMPI DUP3 SWAP1 SUB PUSH1 0x1F AND DUP3 ADD SWAP2 JUMPDEST POP POP POP POP POP SWAP1 DUP1 PUSH1 0x1 ADD SLOAD SWAP1 DUP1 PUSH1 0x2 ADD SLOAD SWAP1 DUP1 PUSH1 0x3 ADD SLOAD SWAP1 POP DUP5 JUMP JUMPDEST PUSH1 0x4 SLOAD DUP2 JUMP JUMPDEST PUSH1 0x5 SLOAD DUP2 JUMP JUMPDEST PUSH2 0xAD6 PUSH8 0x74A25A9EBEDF8739 PUSH1 0xC0 SHL PUSH2 0x57B JUMP JUMPDEST PUSH2 0xAEA PUSH8 0xC7FCD39F70BE7E52 PUSH1 0xC0 SHL PUSH2 0x57B JUMP JUMPDEST PUSH2 0xAFE PUSH8 0x27EC7CFC85B9BFD8 PUSH1 0xC0 SHL PUSH2 0x57B JUMP JUMPDEST PUSH2 0xB12 PUSH8 0xD344FC9245663F96 PUSH1 0xC0 SHL PUSH2 0x57B JUMP JUMPDEST PUSH1 0xB PUSH1 0x0 SWAP1 SLOAD SWAP1 PUSH2 0x100 EXP SWAP1 DIV PUSH20 0xFFFFFFFFFFFFFFFFFFFFFFFFFFFFFFFFFFFFFFFF AND PUSH20 0xFFFFFFFFFFFFFFFFFFFFFFFFFFFFFFFFFFFFFFFF AND CALLER PUSH20 0xFFFFFFFFFFFFFFFFFFFFFFFFFFFFFFFFFFFFFFFF AND EQ PUSH2 0xBAD JUMPI PUSH2 0xB7B PUSH8 0x20C612F6E600391C PUSH1 0xC0 SHL PUSH2 0x57B JUMP JUMPDEST PUSH1 0x40 MLOAD PUSH32 0x8679B0C000000000000000000000000000000000000000000000000000000000 DUP2 MSTORE PUSH1 0x4 ADD PUSH1 0x40 MLOAD DUP1 SWAP2 SUB SWAP1 REVERT JUMPDEST PUSH2 0xBC1 PUSH8 0x298E5B18B5A4D32 PUSH1 0xC0 SHL PUSH2 0x57B JUMP JUMPDEST PUSH2 0xBD5 PUSH8 0xD791130BC5B73D61 PUSH1 0xC0 SHL PUSH2 0x57B JUMP JUMPDEST PUSH2 0xBE9 PUSH8 0x6308243B6B8D8D2B PUSH1 0xC0 SHL PUSH2 0x57B JUMP JUMPDEST PUSH2 0xBFD PUSH8 0x5BF5A4420CA6C198 PUSH1 0xC0 SHL PUSH2 0x57B JUMP JUMPDEST PUSH2 0xC11 PUSH8 0xBB7A54A019BE3250 PUSH1 0xC0 SHL PUSH2 0x57B JUMP JUMPDEST PUSH1 0x1 PUSH1 0xC PUSH1 0x14 PUSH2 0x100 EXP DUP2 SLOAD DUP2 PUSH1 0xFF MUL NOT AND SWAP1 DUP4 ISZERO ISZERO MUL OR SWAP1 SSTORE POP PUSH2 0xC40 PUSH8 0xD8CD2D772406BDBB PUSH1 0xC0 SHL PUSH2 0x57B JUMP JUMPDEST PUSH2 0xC54 PUSH8 0x5E60006A064EAD1E PUSH1 0xC0 SHL PUSH2 0x57B JUMP JUMPDEST PUSH2 0xC5C PUSH2 0x1F62 JUMP JUMPDEST JUMP JUMPDEST PUSH2 0xC72 PUSH8 0xA0BFEEA2CA9EE07B PUSH1 0xC0 SHL PUSH2 0x57B JUMP JUMPDEST PUSH2 0xC86 PUSH8 0xB2E029CCB8F2E73 PUSH1 0xC0 SHL PUSH2 0x57B JUMP JUMPDEST PUSH2 0xC9A PUSH8 0x2ABE4057A64F38D4 PUSH1 0xC0 SHL PUSH2 0x57B JUMP JUMPDEST PUSH2 0xCAE PUSH8 0x4011AFCD3021DA5C PUSH1 0xC0 SHL PUSH2 0x57B JUMP JUMPDEST PUSH1 0xC PUSH1 0x14 SWAP1 SLOAD SWAP1 PUSH2 0x100 EXP SWAP1 DIV PUSH1 0xFF AND PUSH2 0xD08 JUMPI PUSH2 0xCD6 PUSH8 0xD23E02AF30638411 PUSH1 0xC0 SHL PUSH2 0x57B JUMP JUMPDEST PUSH1 0x40 MLOAD PUSH32 0x541F1F000000000000000000000000000000000000000000000000000000000 DUP2 MSTORE PUSH1 0x4 ADD PUSH1 0x40 MLOAD DUP1 SWAP2 SUB SWAP1 REVERT JUMPDEST PUSH2 0xD1C PUSH8 0x5C32C4CAE713B439 PUSH1 0xC0 SHL PUSH2 0x57B JUMP JUMPDEST PUSH2 0xD30 PUSH8 0x83707B958B1225AA PUSH1 0xC0 SHL PUSH2 0x57B JUMP JUMPDEST PUSH2 0xD44 PUSH8 0x842EBF01BB25E51C PUSH1 0xC0 SHL PUSH2 0x57B JUMP JUMPDEST PUSH2 0xD58 PUSH8 0x7BEF25940CDBBCEF PUSH1 0xC0 SHL PUSH2 0x57B JUMP JUMPDEST PUSH2 0xD6C PUSH8 0x79D00A11602EECE8 PUSH1 0xC0 SHL PUSH2 0x57B JUMP JUMPDEST PUSH2 0xD80 PUSH8 0xB52603B3F70BCC3B PUSH1 0xC0 SHL PUSH2 0x57B JUMP JUMPDEST PUSH2 0xD94 PUSH8 0x1C7E171CD94DD2EF PUSH1 0xC0 SHL PUSH2 0x57B JUMP JUMPDEST PUSH1 0xC PUSH1 0x14 SWAP1 SLOAD SWAP1 PUSH2 0x100 EXP SWAP1 DIV PUSH1 0xFF AND PUSH2 0xDE3 JUMPI PUSH1 0x40 MLOAD PUSH32 0x8C379A000000000000000000000000000000000000000000000000000000000 DUP2 MSTORE PUSH1 0x4 ADD PUSH2 0xDDA SWAP1 PUSH2 0x2ABA JUMP JUMPDEST PUSH1 0x40 MLOAD DUP1 SWAP2 SUB SWAP1 REVERT JUMPDEST PUSH2 0xDF7 PUSH8 0x40EE4C855007C8A9 PUSH1 0xC0 SHL PUSH2 0x57B JUMP JUMPDEST PUSH2 0xE0B PUSH8 0x270E3BEEF8813014 PUSH1 0xC0 SHL PUSH2 0x57B JUMP JUMPDEST PUSH2 0xE1F PUSH8 0x8CC9EE3C1B49B9F9 PUSH1 0xC0 SHL PUSH2 0x57B JUMP JUMPDEST PUSH2 0xE33 PUSH8 0xEA12E65500007668 PUSH1 0xC0 SHL PUSH2 0x57B JUMP JUMPDEST PUSH1 0x7 SLOAD PUSH1 0xA PUSH1 0x0 CALLER PUSH20 0xFFFFFFFFFFFFFFFFFFFFFFFFFFFFFFFFFFFFFFFF AND PUSH20 0xFFFFFFFFFFFFFFFFFFFFFFFFFFFFFFFFFFFFFFFF AND DUP2 MSTORE PUSH1 0x20 ADD SWAP1 DUP2 MSTORE PUSH1 0x20 ADD PUSH1 0x0 KECCAK256 PUSH1 0x1 ADD SLOAD EQ PUSH2 0xEB9 JUMPI PUSH1 0x40 MLOAD PUSH32 0x8C379A000000000000000000000000000000000000000000000000000000000 DUP2 MSTORE PUSH1 0x4 ADD PUSH2 0xEB0 SWAP1 PUSH2 0x2B26 JUMP JUMPDEST PUSH1 0x40 MLOAD DUP1 SWAP2 SUB SWAP1 REVERT JUMPDEST PUSH2 0xECD PUSH8 0x4E88FF2E0AE6CCF8 PUSH1 0xC0 SHL PUSH2 0x57B JUMP JUMPDEST PUSH2 0xEE1 PUSH8 0x39E951D116F86ECF PUSH1 0xC0 SHL PUSH2 0x57B JUMP JUMPDEST PUSH1 0x64 PUSH1 0x8 SLOAD PUSH1 0xA PUSH1 0x0 CALLER PUSH20 0xFFFFFFFFFFFFFFFFFFFFFFFFFFFFFFFFFFFFFFFF AND PUSH20 0xFFFFFFFFFFFFFFFFFFFFFFFFFFFFFFFFFFFFFFFF AND DUP2 MSTORE PUSH1 0x20 ADD SWAP1 DUP2 MSTORE PUSH1 0x20 ADD PUSH1 0x0 KECCAK256 PUSH1 0x2 ADD SLOAD PUSH2 0xF33 SWAP2 SWAP1 PUSH2 0x2B46 JUMP JUMPDEST PUSH2 0xF3D SWAP2 SWAP1 PUSH2 0x2A3D JUMP JUMPDEST PUSH1 0xA PUSH1 0x0 CALLER PUSH20 0xFFFFFFFFFFFFFFFFFFFFFFFFFFFFFFFFFFFFFFFF AND PUSH20 0xFFFFFFFFFFFFFFFFFFFFFFFFFFFFFFFFFFFFFFFF AND DUP2 MSTORE PUSH1 0x20 ADD SWAP1 DUP2 MSTORE PUSH1 0x20 ADD PUSH1 0x0 KECCAK256 PUSH1 0x3 ADD DUP2 SWAP1 SSTORE POP PUSH2 0xF97 PUSH8 0x2DB4EBA3BD6EE519 PUSH1 0xC0 SHL PUSH2 0x57B JUMP JUMPDEST PUSH2 0xFAB PUSH8 0x498155B135015B3D PUSH1 0xC0 SHL PUSH2 0x57B JUMP JUMPDEST PUSH2 0xFF7 CALLER PUSH1 0xA PUSH1 0x0 CALLER PUSH20 0xFFFFFFFFFFFFFFFFFFFFFFFFFFFFFFFFFFFFFFFF AND PUSH20 0xFFFFFFFFFFFFFFFFFFFFFFFFFFFFFFFFFFFFFFFF AND DUP2 MSTORE PUSH1 0x20 ADD SWAP1 DUP2 MSTORE PUSH1 0x20 ADD PUSH1 0x0 KECCAK256 PUSH1 0x3 ADD SLOAD PUSH2 0x1E22 JUMP JUMPDEST JUMP JUMPDEST PUSH1 0xB PUSH1 0x0 SWAP1 SLOAD SWAP1 PUSH2 0x100 EXP SWAP1 DIV PUSH20 0xFFFFFFFFFFFFFFFFFFFFFFFFFFFFFFFFFFFFFFFF AND DUP2 JUMP JUMPDEST PUSH2 0x1033 PUSH8 0x5D91C56B0931CF8A PUSH1 0xC0 SHL PUSH2 0x57B JUMP JUMPDEST PUSH2 0x1047 PUSH8 0xC7FCD39F70BE7E52 PUSH1 0xC0 SHL PUSH2 0x57B JUMP JUMPDEST PUSH2 0x105B PUSH8 0x27EC7CFC85B9BFD8 PUSH1 0xC0 SHL PUSH2 0x57B JUMP JUMPDEST PUSH2 0x106F PUSH8 0xD344FC9245663F96 PUSH1 0xC0 SHL PUSH2 0x57B JUMP JUMPDEST PUSH1 0xB PUSH1 0x0 SWAP1 SLOAD SWAP1 PUSH2 0x100 EXP SWAP1 DIV PUSH20 0xFFFFFFFFFFFFFFFFFFFFFFFFFFFFFFFFFFFFFFFF AND PUSH20 0xFFFFFFFFFFFFFFFFFFFFFFFFFFFFFFFFFFFFFFFF AND CALLER PUSH20 0xFFFFFFFFFFFFFFFFFFFFFFFFFFFFFFFFFFFFFFFF AND EQ PUSH2 0x110A JUMPI PUSH2 0x10D8 PUSH8 0x20C612F6E600391C PUSH1 0xC0 SHL PUSH2 0x57B JUMP JUMPDEST PUSH1 0x40 MLOAD PUSH32 0x8679B0C000000000000000000000000000000000000000000000000000000000 DUP2 MSTORE PUSH1 0x4 ADD PUSH1 0x40 MLOAD DUP1 SWAP2 SUB SWAP1 REVERT JUMPDEST PUSH2 0x111E PUSH8 0x298E5B18B5A4D32 PUSH1 0xC0 SHL PUSH2 0x57B JUMP JUMPDEST PUSH2 0x1132 PUSH8 0xD791130BC5B73D61 PUSH1 0xC0 SHL PUSH2 0x57B JUMP JUMPDEST PUSH2 0x1146 PUSH8 0x5F09F08F8602CEE1 PUSH1 0xC0 SHL PUSH2 0x57B JUMP JUMPDEST PUSH2 0x115A PUSH8 0x58E006B142C56A69 PUSH1 0xC0 SHL PUSH2 0x57B JUMP JUMPDEST PUSH2 0x116E PUSH8 0x3A1EB69386AB6818 PUSH1 0xC0 SHL PUSH2 0x57B JUMP JUMPDEST PUSH2 0x1182 PUSH8 0x88AD799DDFC98B24 PUSH1 0xC0 SHL PUSH2 0x57B JUMP JUMPDEST PUSH2 0x1196 PUSH8 0x594381AC486E144A PUSH1 0xC0 SHL PUSH2 0x57B JUMP JUMPDEST PUSH1 0x0 SELFBALANCE GT PUSH2 0x11E4 JUMPI PUSH2 0x11B2 PUSH8 0x235294236FEE96C5 PUSH1 0xC0 SHL PUSH2 0x57B JUMP JUMPDEST PUSH1 0x40 MLOAD PUSH32 0x47108E3E00000000000000000000000000000000000000000000000000000000 DUP2 MSTORE PUSH1 0x4 ADD PUSH1 0x40 MLOAD DUP1 SWAP2 SUB SWAP1 REVERT JUMPDEST PUSH2 0x11F8 PUSH8 0x387F0F9FA9E47CD PUSH1 0xC0 SHL PUSH2 0x57B JUMP JUMPDEST PUSH2 0x120C PUSH8 0xEE9222EB1D860387 PUSH1 0xC0 SHL PUSH2 0x57B JUMP JUMPDEST PUSH2 0x1220 PUSH8 0x7A4E432603AC2C8A PUSH1 0xC0 SHL PUSH2 0x57B JUMP JUMPDEST PUSH2 0x1234 PUSH8 0xDFE92582567C9FE5 PUSH1 0xC0 SHL PUSH2 0x57B JUMP JUMPDEST PUSH2 0x1248 PUSH8 0x777B8EF69A6650EC PUSH1 0xC0 SHL PUSH2 0x57B JUMP JUMPDEST PUSH2 0x125C PUSH8 0x9AE23090B714FD7A PUSH1 0xC0 SHL PUSH2 0x57B JUMP JUMPDEST PUSH2 0x1266 DUP3 DUP3 PUSH2 0x1E22 JUMP JUMPDEST PUSH2 0x127A PUSH8 0xCEF420DE04CB53E4 PUSH1 0xC0 SHL PUSH2 0x57B JUMP JUMPDEST PUSH1 0x2 PUSH1 0xD DUP2 SWAP1 SSTORE POP POP POP JUMP JUMPDEST PUSH1 0xC PUSH1 0x0 SWAP1 SLOAD SWAP1 PUSH2 0x100 EXP SWAP1 DIV PUSH20 0xFFFFFFFFFFFFFFFFFFFFFFFFFFFFFFFFFFFFFFFF AND DUP2 JUMP JUMPDEST PUSH2 0x12C0 PUSH8 0xC88DACFBA329A603 PUSH1 0xC0 SHL PUSH2 0x57B JUMP JUMPDEST PUSH2 0x12D4 PUSH8 0xC7FCD39F70BE7E52 PUSH1 0xC0 SHL PUSH2 0x57B JUMP JUMPDEST PUSH2 0x12E8 PUSH8 0x27EC7CFC85B9BFD8 PUSH1 0xC0 SHL PUSH2 0x57B JUMP JUMPDEST PUSH2 0x12FC PUSH8 0xD344FC9245663F96 PUSH1 0xC0 SHL PUSH2 0x57B JUMP JUMPDEST PUSH1 0xB PUSH1 0x0 SWAP1 SLOAD SWAP1 PUSH2 0x100 EXP SWAP1 DIV PUSH20 0xFFFFFFFFFFFFFFFFFFFFFFFFFFFFFFFFFFFFFFFF AND PUSH20 0xFFFFFFFFFFFFFFFFFFFFFFFFFFFFFFFFFFFFFFFF AND CALLER PUSH20 0xFFFFFFFFFFFFFFFFFFFFFFFFFFFFFFFFFFFFFFFF AND EQ PUSH2 0x1397 JUMPI PUSH2 0x1365 PUSH8 0x20C612F6E600391C PUSH1 0xC0 SHL PUSH2 0x57B JUMP JUMPDEST PUSH1 0x40 MLOAD PUSH32 0x8679B0C000000000000000000000000000000000000000000000000000000000 DUP2 MSTORE PUSH1 0x4 ADD PUSH1 0x40 MLOAD DUP1 SWAP2 SUB SWAP1 REVERT JUMPDEST PUSH2 0x13AB PUSH8 0x298E5B18B5A4D32 PUSH1 0xC0 SHL PUSH2 0x57B JUMP JUMPDEST PUSH2 0x13BF PUSH8 0xD791130BC5B73D61 PUSH1 0xC0 SHL PUSH2 0x57B JUMP JUMPDEST PUSH2 0x13D3 PUSH8 0x6F20456A38471A74 PUSH1 0xC0 SHL PUSH2 0x57B JUMP JUMPDEST PUSH2 0x13E7 PUSH8 0xEEFA9DADC08D4414 PUSH1 0xC0 SHL PUSH2 0x57B JUMP JUMPDEST PUSH2 0x13FB PUSH8 0xF06D626824AE1763 PUSH1 0xC0 SHL PUSH2 0x57B JUMP JUMPDEST DUP1 PUSH1 0x7 DUP2 SWAP1 SSTORE POP POP JUMP JUMPDEST PUSH2 0x1419 PUSH8 0x2455B8655F945E01 PUSH1 0xC0 SHL PUSH2 0x57B JUMP JUMPDEST PUSH2 0x142D PUSH8 0x32AB35B6C58AE03D PUSH1 0xC0 SHL PUSH2 0x57B JUMP JUMPDEST PUSH2 0x1441 PUSH8 0xA7C731114092D4FE PUSH1 0xC0 SHL PUSH2 0x57B JUMP JUMPDEST PUSH2 0x1455 PUSH8 0xEFC733B566804D8D PUSH1 0xC0 SHL PUSH2 0x57B JUMP JUMPDEST CALLVALUE CALLER PUSH20 0xFFFFFFFFFFFFFFFFFFFFFFFFFFFFFFFFFFFFFFFF AND BALANCE LT ISZERO PUSH2 0x14BA JUMPI PUSH2 0x1488 PUSH8 0xD43AE4651BC3F589 PUSH1 0xC0 SHL PUSH2 0x57B JUMP JUMPDEST PUSH1 0x40 MLOAD PUSH32 0x47108E3E00000000000000000000000000000000000000000000000000000000 DUP2 MSTORE PUSH1 0x4 ADD PUSH1 0x40 MLOAD DUP1 SWAP2 SUB SWAP1 REVERT JUMPDEST PUSH2 0x14CE PUSH8 0xF4FAEB560F5F2F81 PUSH1 0xC0 SHL PUSH2 0x57B JUMP JUMPDEST PUSH2 0x14E2 PUSH8 0x88024E7B73618802 PUSH1 0xC0 SHL PUSH2 0x57B JUMP JUMPDEST PUSH2 0x14F6 PUSH8 0xD47B86C896224A08 PUSH1 0xC0 SHL PUSH2 0x57B JUMP JUMPDEST PUSH2 0x150A PUSH8 0x9F0B8E7B66114A36 PUSH1 0xC0 SHL PUSH2 0x57B JUMP JUMPDEST PUSH2 0x151E PUSH8 0x39E4BA10B87AD3B0 PUSH1 0xC0 SHL PUSH2 0x57B JUMP JUMPDEST PUSH2 0x1532 PUSH8 0x9A502441177D288 PUSH1 0xC0 SHL PUSH2 0x57B JUMP JUMPDEST PUSH2 0x1546 PUSH8 0xA12F685D553B929 PUSH1 0xC0 SHL PUSH2 0x57B JUMP JUMPDEST PUSH5 0xB68A0AA00 CALLVALUE GT PUSH2 0x1598 JUMPI PUSH2 0x1566 PUSH8 0xF4BAE9CA1654A59 PUSH1 0xC0 SHL PUSH2 0x57B JUMP JUMPDEST PUSH1 0x40 MLOAD PUSH32 0x78E9F1BA00000000000000000000000000000000000000000000000000000000 DUP2 MSTORE PUSH1 0x4 ADD PUSH1 0x40 MLOAD DUP1 SWAP2 SUB SWAP1 REVERT JUMPDEST PUSH2 0x15AC PUSH8 0x377DDC087F41E661 PUSH1 0xC0 SHL PUSH2 0x57B JUMP JUMPDEST PUSH2 0x15C0 PUSH8 0xF75CA81012E151A2 PUSH1 0xC0 SHL PUSH2 0x57B JUMP JUMPDEST PUSH2 0x15D4 PUSH8 0xFFC630EB05397E93 PUSH1 0xC0 SHL PUSH2 0x57B JUMP JUMPDEST PUSH2 0x15E8 PUSH8 0xD6B787AB6FEE960C PUSH1 0xC0 SHL PUSH2 0x57B JUMP JUMPDEST PUSH2 0x15FC PUSH8 0xFF7A42CC85CA41C4 PUSH1 0xC0 SHL PUSH2 0x57B JUMP JUMPDEST PUSH2 0x1610 PUSH8 0x1E5AD62E89A8ACD0 PUSH1 0xC0 SHL PUSH2 0x57B JUMP JUMPDEST PUSH2 0x1624 PUSH8 0x4931B429A2632359 PUSH1 0xC0 SHL PUSH2 0x57B JUMP JUMPDEST CALLER PUSH20 0xFFFFFFFFFFFFFFFFFFFFFFFFFFFFFFFFFFFFFFFF AND PUSH1 0xA PUSH1 0x0 CALLER PUSH20 0xFFFFFFFFFFFFFFFFFFFFFFFFFFFFFFFFFFFFFFFF AND PUSH20 0xFFFFFFFFFFFFFFFFFFFFFFFFFFFFFFFFFFFFFFFF AND DUP2 MSTORE PUSH1 0x20 ADD SWAP1 DUP2 MSTORE PUSH1 0x20 ADD PUSH1 0x0 KECCAK256 PUSH1 0x0 ADD PUSH1 0x0 SWAP1 SLOAD SWAP1 PUSH2 0x100 EXP SWAP1 DIV PUSH20 0xFFFFFFFFFFFFFFFFFFFFFFFFFFFFFFFFFFFFFFFF AND PUSH20 0xFFFFFFFFFFFFFFFFFFFFFFFFFFFFFFFFFFFFFFFF AND SUB PUSH2 0x1713 JUMPI PUSH2 0x16CD PUSH8 0x5FD0CC18A6713C78 PUSH1 0xC0 SHL PUSH2 0x57B JUMP JUMPDEST PUSH2 0x16E1 PUSH8 0x1CC1A494784597B1 PUSH1 0xC0 SHL PUSH2 0x57B JUMP JUMPDEST PUSH1 0x40 MLOAD PUSH32 0x8424505800000000000000000000000000000000000000000000000000000000 DUP2 MSTORE PUSH1 0x4 ADD PUSH1 0x40 MLOAD DUP1 SWAP2 SUB SWAP1 REVERT JUMPDEST PUSH2 0x1727 PUSH8 0x66F3A0E380EE0F36 PUSH1 0xC0 SHL PUSH2 0x57B JUMP JUMPDEST PUSH2 0x173B PUSH8 0xB2C57374D1385BCA PUSH1 0xC0 SHL PUSH2 0x57B JUMP JUMPDEST PUSH2 0x174F PUSH8 0xBB8B56D4AE9A4D06 PUSH1 0xC0 SHL PUSH2 0x57B JUMP JUMPDEST PUSH2 0x1763 PUSH8 0x14ACD7C57B604FAA PUSH1 0xC0 SHL PUSH2 0x57B JUMP JUMPDEST PUSH2 0x1777 PUSH8 0x51B492DBD4EDEFE8 PUSH1 0xC0 SHL PUSH2 0x57B JUMP JUMPDEST PUSH2 0x178B PUSH8 0x7D6351F079CF8AC2 PUSH1 0xC0 SHL PUSH2 0x57B JUMP JUMPDEST PUSH2 0x179F PUSH8 0x297F0FC19BB15108 PUSH1 0xC0 SHL PUSH2 0x57B JUMP JUMPDEST PUSH1 0x0 PUSH1 0x3 PUSH1 0x0 SWAP1 SLOAD SWAP1 PUSH2 0x100 EXP SWAP1 DIV PUSH20 0xFFFFFFFFFFFFFFFFFFFFFFFFFFFFFFFFFFFFFFFF AND PUSH20 0xFFFFFFFFFFFFFFFFFFFFFFFFFFFFFFFFFFFFFFFF AND PUSH4 0xB4805D3 CALLER PUSH1 0x40 MLOAD DUP3 PUSH4 0xFFFFFFFF AND PUSH1 0xE0 SHL DUP2 MSTORE PUSH1 0x4 ADD PUSH2 0x17FC SWAP2 SWAP1 PUSH2 0x2918 JUMP JUMPDEST PUSH1 0x20 PUSH1 0x40 MLOAD DUP1 DUP4 SUB DUP2 DUP7 GAS STATICCALL ISZERO DUP1 ISZERO PUSH2 0x1819 JUMPI RETURNDATASIZE PUSH1 0x0 DUP1 RETURNDATACOPY RETURNDATASIZE PUSH1 0x0 REVERT JUMPDEST POP POP POP POP PUSH1 0x40 MLOAD RETURNDATASIZE PUSH1 0x1F NOT PUSH1 0x1F DUP3 ADD AND DUP3 ADD DUP1 PUSH1 0x40 MSTORE POP DUP2 ADD SWAP1 PUSH2 0x183D SWAP2 SWAP1 PUSH2 0x2B9D JUMP JUMPDEST SUB PUSH2 0x189C JUMPI PUSH2 0x1856 PUSH8 0x9C8E6D863D578B22 PUSH1 0xC0 SHL PUSH2 0x57B JUMP JUMPDEST PUSH2 0x186A PUSH8 0xB79AC3D2768BC834 PUSH1 0xC0 SHL PUSH2 0x57B JUMP JUMPDEST PUSH1 0x40 MLOAD PUSH32 0x3A70817D00000000000000000000000000000000000000000000000000000000 DUP2 MSTORE PUSH1 0x4 ADD PUSH1 0x40 MLOAD DUP1 SWAP2 SUB SWAP1 REVERT JUMPDEST PUSH2 0x18B0 PUSH8 0x85E0244056951671 PUSH1 0xC0 SHL PUSH2 0x57B JUMP JUMPDEST PUSH2 0x18C4 PUSH8 0xE3914F3A621AFF1C PUSH1 0xC0 SHL PUSH2 0x57B JUMP JUMPDEST PUSH2 0x18D8 PUSH8 0x77410D3F87BCE67 PUSH1 0xC0 SHL PUSH2 0x57B JUMP JUMPDEST PUSH2 0x18EC PUSH8 0x36C81A905436A66C PUSH1 0xC0 SHL PUSH2 0x57B JUMP JUMPDEST PUSH2 0x1900 PUSH8 0x77CC47F76B5F1062 PUSH1 0xC0 SHL PUSH2 0x57B JUMP JUMPDEST PUSH2 0x1914 PUSH8 0x2DC5C43AABBDD000 PUSH1 0xC0 SHL PUSH2 0x57B JUMP JUMPDEST PUSH2 0x1928 PUSH8 0x90B7C7BFF9C71917 PUSH1 0xC0 SHL PUSH2 0x57B JUMP JUMPDEST PUSH1 0x1 DUP2 GT ISZERO PUSH2 0x196C JUMPI PUSH1 0x40 MLOAD PUSH32 0x8C379A000000000000000000000000000000000000000000000000000000000 DUP2 MSTORE PUSH1 0x4 ADD PUSH2 0x1963 SWAP1 PUSH2 0x2C16 JUMP JUMPDEST PUSH1 0x40 MLOAD DUP1 SWAP2 SUB SWAP1 REVERT JUMPDEST PUSH2 0x1980 PUSH8 0xA2E7A62D3FE442EB PUSH1 0xC0 SHL PUSH2 0x57B JUMP JUMPDEST PUSH2 0x1994 PUSH8 0xE8D285C5F093B27 PUSH1 0xC0 SHL PUSH2 0x57B JUMP JUMPDEST PUSH2 0x19A8 PUSH8 0x216E003493D50FC0 PUSH1 0xC0 SHL PUSH2 0x57B JUMP JUMPDEST PUSH2 0x19B2 ADDRESS CALLVALUE PUSH2 0x1E22 JUMP JUMPDEST PUSH2 0x19C6 PUSH8 0x3CE2BCE5077968DD PUSH1 0xC0 SHL PUSH2 0x57B JUMP JUMPDEST PUSH1 0x6 PUSH1 0x0 DUP2 SLOAD DUP1 SWAP3 SWAP2 SWAP1 PUSH2 0x19D9 SWAP1 PUSH2 0x2C36 JUMP JUMPDEST SWAP2 SWAP1 POP SSTORE POP PUSH2 0x19F2 PUSH8 0x7B708C8D76F06EC8 PUSH1 0xC0 SHL PUSH2 0x57B JUMP JUMPDEST PUSH1 0x9 PUSH1 0x0 DUP3 DUP2 MSTORE PUSH1 0x20 ADD SWAP1 DUP2 MSTORE PUSH1 0x20 ADD PUSH1 0x0 KECCAK256 PUSH1 0x2 ADD PUSH1 0x0 DUP2 SLOAD DUP1 SWAP3 SWAP2 SWAP1 PUSH2 0x1A19 SWAP1 PUSH2 0x2C36 JUMP JUMPDEST SWAP2 SWAP1 POP SSTORE POP PUSH2 0x1A32 PUSH8 0x6573A8C4D03EEAF7 PUSH1 0xC0 SHL PUSH2 0x57B JUMP JUMPDEST CALLVALUE PUSH1 0x9 PUSH1 0x0 DUP4 DUP2 MSTORE PUSH1 0x20 ADD SWAP1 DUP2 MSTORE PUSH1 0x20 ADD PUSH1 0x0 KECCAK256 PUSH1 0x3 ADD SLOAD PUSH2 0x1A54 SWAP2 SWAP1 PUSH2 0x2C7E JUMP JUMPDEST PUSH1 0x9 PUSH1 0x0 DUP4 DUP2 MSTORE PUSH1 0x20 ADD SWAP1 DUP2 MSTORE PUSH1 0x20 ADD PUSH1 0x0 KECCAK256 PUSH1 0x3 ADD DUP2 SWAP1 SSTORE POP PUSH2 0x1A82 PUSH8 0xB1CDCDA192CA1407 PUSH1 0xC0 SHL PUSH2 0x57B JUMP JUMPDEST PUSH2 0x1A96 PUSH8 0x6B3F893648DB41EA PUSH1 0xC0 SHL PUSH2 0x57B JUMP JUMPDEST PUSH2 0x1A9E PUSH2 0x20A8 JUMP JUMPDEST PUSH2 0x1AB2 PUSH8 0xCED847F335FC0E7D PUSH1 0xC0 SHL PUSH2 0x57B JUMP JUMPDEST PUSH2 0x1AC6 PUSH8 0x3B3090824574F038 PUSH1 0xC0 SHL PUSH2 0x57B JUMP JUMPDEST PUSH2 0x1ACF DUP2 PUSH2 0x217C JUMP JUMPDEST PUSH2 0x1AE3 PUSH8 0x3E3D29D862B00E85 PUSH1 0xC0 SHL PUSH2 0x57B JUMP JUMPDEST PUSH2 0x1AF7 PUSH8 0xF2B3B04420EF6AF1 PUSH1 0xC0 SHL PUSH2 0x57B JUMP JUMPDEST PUSH32 0xBABD4D8AD6BE16C6A1AC0B279AAAD4EB273F40DE86A3C6AC350147FC9BBDBDA3 ADDRESS PUSH1 0x9 PUSH1 0x0 DUP1 DUP2 MSTORE PUSH1 0x20 ADD SWAP1 DUP2 MSTORE PUSH1 0x20 ADD PUSH1 0x0 KECCAK256 PUSH1 0x2 ADD SLOAD PUSH1 0x9 PUSH1 0x0 DUP1 DUP2 MSTORE PUSH1 0x20 ADD SWAP1 DUP2 MSTORE PUSH1 0x20 ADD PUSH1 0x0 KECCAK256 PUSH1 0x3 ADD SLOAD PUSH1 0x9 PUSH1 0x0 DUP1 DUP2 MSTORE PUSH1 0x20 ADD SWAP1 DUP2 MSTORE PUSH1 0x20 ADD PUSH1 0x0 KECCAK256 PUSH1 0x1 ADD SLOAD PUSH1 0x9 PUSH1 0x0 PUSH1 0x1 DUP2 MSTORE PUSH1 0x20 ADD SWAP1 DUP2 MSTORE PUSH1 0x20 ADD PUSH1 0x0 KECCAK256 PUSH1 0x2 ADD SLOAD PUSH1 0x9 PUSH1 0x0 PUSH1 0x1 DUP2 MSTORE PUSH1 0x20 ADD SWAP1 DUP2 MSTORE PUSH1 0x20 ADD PUSH1 0x0 KECCAK256 PUSH1 0x3 ADD SLOAD PUSH1 0x9 PUSH1 0x0 PUSH1 0x1 DUP2 MSTORE PUSH1 0x20 ADD SWAP1 DUP2 MSTORE PUSH1 0x20 ADD PUSH1 0x0 KECCAK256 PUSH1 0x1 ADD SLOAD PUSH1 0x40 MLOAD PUSH2 0x1BB9 SWAP8 SWAP7 SWAP6 SWAP5 SWAP4 SWAP3 SWAP2 SWAP1 PUSH2 0x2CB2 JUMP JUMPDEST PUSH1 0x40 MLOAD DUP1 SWAP2 SUB SWAP1 LOG1 POP JUMP JUMPDEST PUSH1 0x0 PUSH2 0x1BDA PUSH8 0xC6DB637AA1E61875 PUSH1 0xC0 SHL PUSH2 0x57B JUMP JUMPDEST PUSH2 0x1BEE PUSH8 0x3A1EB69386AB6818 PUSH1 0xC0 SHL PUSH2 0x57B JUMP JUMPDEST PUSH2 0x1C02 PUSH8 0x88AD799DDFC98B24 PUSH1 0xC0 SHL PUSH2 0x57B JUMP JUMPDEST PUSH2 0x1C16 PUSH8 0x594381AC486E144A PUSH1 0xC0 SHL PUSH2 0x57B JUMP JUMPDEST PUSH1 0x0 SELFBALANCE GT PUSH2 0x1C64 JUMPI PUSH2 0x1C32 PUSH8 0x235294236FEE96C5 PUSH1 0xC0 SHL PUSH2 0x57B JUMP JUMPDEST PUSH1 0x40 MLOAD PUSH32 0x47108E3E00000000000000000000000000000000000000000000000000000000 DUP2 MSTORE PUSH1 0x4 ADD PUSH1 0x40 MLOAD DUP1 SWAP2 SUB SWAP1 REVERT JUMPDEST PUSH2 0x1C78 PUSH8 0x387F0F9FA9E47CD PUSH1 0xC0 SHL PUSH2 0x57B JUMP JUMPDEST PUSH2 0x1C8C PUSH8 0xEE9222EB1D860387 PUSH1 0xC0 SHL PUSH2 0x57B JUMP JUMPDEST PUSH2 0x1CA0 PUSH8 0xD7018905C4F23759 PUSH1 0xC0 SHL PUSH2 0x57B JUMP JUMPDEST PUSH2 0x1CB4 PUSH8 0xE1DED6B97EA06786 PUSH1 0xC0 SHL PUSH2 0x57B JUMP JUMPDEST PUSH2 0x1CC8 PUSH8 0xC7FCD39F70BE7E52 PUSH1 0xC0 SHL PUSH2 0x57B JUMP JUMPDEST PUSH2 0x1CDC PUSH8 0x27EC7CFC85B9BFD8 PUSH1 0xC0 SHL PUSH2 0x57B JUMP JUMPDEST PUSH2 0x1CF0 PUSH8 0xD344FC9245663F96 PUSH1 0xC0 SHL PUSH2 0x57B JUMP JUMPDEST PUSH1 0xB PUSH1 0x0 SWAP1 SLOAD SWAP1 PUSH2 0x100 EXP SWAP1 DIV PUSH20 0xFFFFFFFFFFFFFFFFFFFFFFFFFFFFFFFFFFFFFFFF AND PUSH20 0xFFFFFFFFFFFFFFFFFFFFFFFFFFFFFFFFFFFFFFFF AND CALLER PUSH20 0xFFFFFFFFFFFFFFFFFFFFFFFFFFFFFFFFFFFFFFFF AND EQ PUSH2 0x1D8B JUMPI PUSH2 0x1D59 PUSH8 0x20C612F6E600391C PUSH1 0xC0 SHL PUSH2 0x57B JUMP JUMPDEST PUSH1 0x40 MLOAD PUSH32 0x8679B0C000000000000000000000000000000000000000000000000000000000 DUP2 MSTORE PUSH1 0x4 ADD PUSH1 0x40 MLOAD DUP1 SWAP2 SUB SWAP1 REVERT JUMPDEST PUSH2 0x1D9F PUSH8 0x298E5B18B5A4D32 PUSH1 0xC0 SHL PUSH2 0x57B JUMP JUMPDEST PUSH2 0x1DB3 PUSH8 0xD791130BC5B73D61 PUSH1 0xC0 SHL PUSH2 0x57B JUMP JUMPDEST PUSH2 0x1DC7 PUSH8 0xAD564288B2D8C5B5 PUSH1 0xC0 SHL PUSH2 0x57B JUMP JUMPDEST PUSH2 0x1DDB PUSH8 0x5C5696CEBED423F8 PUSH1 0xC0 SHL PUSH2 0x57B JUMP JUMPDEST PUSH2 0x1DEF PUSH8 0x231CB3C5C20E4A0B PUSH1 0xC0 SHL PUSH2 0x57B JUMP JUMPDEST PUSH2 0x1E03 PUSH8 0x6E9B202FD91850DC PUSH1 0xC0 SHL PUSH2 0x57B JUMP JUMPDEST DUP2 SELFBALANCE PUSH2 0x1E0F SWAP2 SWAP1 PUSH2 0x2A3D JUMP JUMPDEST SWAP1 POP SWAP2 SWAP1 POP JUMP JUMPDEST PUSH1 0xD SLOAD DUP2 JUMP JUMPDEST PUSH1 0x6 SLOAD DUP2 JUMP JUMPDEST PUSH2 0x1E36 PUSH8 0x1A3408DECFBE54A7 PUSH1 0xC0 SHL PUSH2 0x57B JUMP JUMPDEST PUSH2 0x1E4A PUSH8 0x41E3FCA154DB2155 PUSH1 0xC0 SHL PUSH2 0x57B JUMP JUMPDEST PUSH2 0x1E5E PUSH8 0x1E524AECD49CDE5A PUSH1 0xC0 SHL PUSH2 0x57B JUMP JUMPDEST PUSH1 0x0 DUP1 DUP4 PUSH20 0xFFFFFFFFFFFFFFFFFFFFFFFFFFFFFFFFFFFFFFFF AND DUP4 PUSH1 0x40 MLOAD PUSH2 0x1E85 SWAP1 PUSH2 0x2D52 JUMP JUMPDEST PUSH1 0x0 PUSH1 0x40 MLOAD DUP1 DUP4 SUB DUP2 DUP6 DUP8 GAS CALL SWAP3 POP POP POP RETURNDATASIZE DUP1 PUSH1 0x0 DUP2 EQ PUSH2 0x1EC2 JUMPI PUSH1 0x40 MLOAD SWAP2 POP PUSH1 0x1F NOT PUSH1 0x3F RETURNDATASIZE ADD AND DUP3 ADD PUSH1 0x40 MSTORE RETURNDATASIZE DUP3 MSTORE RETURNDATASIZE PUSH1 0x0 PUSH1 0x20 DUP5 ADD RETURNDATACOPY PUSH2 0x1EC7 JUMP JUMPDEST PUSH1 0x60 SWAP2 POP JUMPDEST POP SWAP2 POP SWAP2 POP PUSH2 0x1EE0 PUSH8 0x27BC31CF40A91956 PUSH1 0xC0 SHL PUSH2 0x57B JUMP JUMPDEST PUSH2 0x1EF4 PUSH8 0x873F38274F437CA1 PUSH1 0xC0 SHL PUSH2 0x57B JUMP JUMPDEST PUSH2 0x1F08 PUSH8 0xDF65118371EA167 PUSH1 0xC0 SHL PUSH2 0x57B JUMP JUMPDEST DUP2 PUSH2 0x1F48 JUMPI PUSH1 0x40 MLOAD PUSH32 0x8C379A000000000000000000000000000000000000000000000000000000000 DUP2 MSTORE PUSH1 0x4 ADD PUSH2 0x1F3F SWAP1 PUSH2 0x2DB3 JUMP JUMPDEST PUSH1 0x40 MLOAD DUP1 SWAP2 SUB SWAP1 REVERT JUMPDEST PUSH2 0x1F5C PUSH8 0x91299EFD089B4A5 PUSH1 0xC0 SHL PUSH2 0x57B JUMP JUMPDEST POP POP POP POP JUMP JUMPDEST PUSH2 0x1F76 PUSH8 0xE01602A54D5188A4 PUSH1 0xC0 SHL PUSH2 0x57B JUMP JUMPDEST PUSH2 0x1F8A PUSH8 0xB2E029CCB8F2E73 PUSH1 0xC0 SHL PUSH2 0x57B JUMP JUMPDEST PUSH2 0x1F9E PUSH8 0x2ABE4057A64F38D4 PUSH1 0xC0 SHL PUSH2 0x57B JUMP JUMPDEST PUSH2 0x1FB2 PUSH8 0x4011AFCD3021DA5C PUSH1 0xC0 SHL PUSH2 0x57B JUMP JUMPDEST PUSH1 0xC PUSH1 0x14 SWAP1 SLOAD SWAP1 PUSH2 0x100 EXP SWAP1 DIV PUSH1 0xFF AND PUSH2 0x200C JUMPI PUSH2 0x1FDA PUSH8 0xD23E02AF30638411 PUSH1 0xC0 SHL PUSH2 0x57B JUMP JUMPDEST PUSH1 0x40 MLOAD PUSH32 0x541F1F000000000000000000000000000000000000000000000000000000000 DUP2 MSTORE PUSH1 0x4 ADD PUSH1 0x40 MLOAD DUP1 SWAP2 SUB SWAP1 REVERT JUMPDEST PUSH2 0x2020 PUSH8 0x5C32C4CAE713B439 PUSH1 0xC0 SHL PUSH2 0x57B JUMP JUMPDEST PUSH2 0x2034 PUSH8 0x83707B958B1225AA PUSH1 0xC0 SHL PUSH2 0x57B JUMP JUMPDEST PUSH2 0x2048 PUSH8 0x58A7F503776927D2 PUSH1 0xC0 SHL PUSH2 0x57B JUMP JUMPDEST PUSH2 0x205C PUSH8 0x2B57BF93BC860550 PUSH1 0xC0 SHL PUSH2 0x57B JUMP JUMPDEST PUSH2 0x2070 PUSH8 0x690B4750CE2C6FF7 PUSH1 0xC0 SHL PUSH2 0x57B JUMP JUMPDEST PUSH1 0x9 PUSH1 0x0 PUSH1 0x7 SLOAD DUP2 MSTORE PUSH1 0x20 ADD SWAP1 DUP2 MSTORE PUSH1 0x20 ADD PUSH1 0x0 KECCAK256 PUSH1 0x3 ADD SLOAD PUSH1 0x64 SELFBALANCE PUSH2 0x2096 SWAP2 SWAP1 PUSH2 0x2B46 JUMP JUMPDEST PUSH2 0x20A0 SWAP2 SWAP1 PUSH2 0x2A3D JUMP JUMPDEST PUSH1 0x8 DUP2 SWAP1 SSTORE POP JUMP JUMPDEST PUSH2 0x20BC PUSH8 0x94BD4A2D40AEA2F2 PUSH1 0xC0 SHL PUSH2 0x57B JUMP JUMPDEST PUSH2 0x20D0 PUSH8 0x798D8BD9BD888FF8 PUSH1 0xC0 SHL PUSH2 0x57B JUMP JUMPDEST PUSH1 0x6 SLOAD PUSH1 0x64 PUSH1 0x9 PUSH1 0x0 DUP1 DUP2 MSTORE PUSH1 0x20 ADD SWAP1 DUP2 MSTORE PUSH1 0x20 ADD PUSH1 0x0 KECCAK256 PUSH1 0x2 ADD SLOAD PUSH2 0x20F6 SWAP2 SWAP1 PUSH2 0x2B46 JUMP JUMPDEST PUSH2 0x2100 SWAP2 SWAP1 PUSH2 0x2A3D JUMP JUMPDEST PUSH1 0x9 PUSH1 0x0 DUP1 DUP2 MSTORE PUSH1 0x20 ADD SWAP1 DUP2 MSTORE PUSH1 0x20 ADD PUSH1 0x0 KECCAK256 PUSH1 0x1 ADD DUP2 SWAP1 SSTORE POP PUSH2 0x212E PUSH8 0x4ECEB2DC8CA5039D PUSH1 0xC0 SHL PUSH2 0x57B JUMP JUMPDEST PUSH1 0x6 SLOAD PUSH1 0x64 PUSH1 0x9 PUSH1 0x0 PUSH1 0x1 DUP2 MSTORE PUSH1 0x20 ADD SWAP1 DUP2 MSTORE PUSH1 0x20 ADD PUSH1 0x0 KECCAK256 PUSH1 0x2 ADD SLOAD PUSH2 0x2155 SWAP2 SWAP1 PUSH2 0x2B46 JUMP JUMPDEST PUSH2 0x215F SWAP2 SWAP1 PUSH2 0x2A3D JUMP JUMPDEST PUSH1 0x9 PUSH1 0x0 PUSH1 0x1 DUP2 MSTORE PUSH1 0x20 ADD SWAP1 DUP2 MSTORE PUSH1 0x20 ADD PUSH1 0x0 KECCAK256 PUSH1 0x1 ADD DUP2 SWAP1 SSTORE POP JUMP JUMPDEST PUSH2 0x2190 PUSH8 0xA1A79EC63DFA23E5 PUSH1 0xC0 SHL PUSH2 0x57B JUMP JUMPDEST PUSH2 0x21A4 PUSH8 0x251B801910F00DAE PUSH1 0xC0 SHL PUSH2 0x57B JUMP JUMPDEST CALLER PUSH1 0xA PUSH1 0x0 CALLER PUSH20 0xFFFFFFFFFFFFFFFFFFFFFFFFFFFFFFFFFFFFFFFF AND PUSH20 0xFFFFFFFFFFFFFFFFFFFFFFFFFFFFFFFFFFFFFFFF AND DUP2 MSTORE PUSH1 0x20 ADD SWAP1 DUP2 MSTORE PUSH1 0x20 ADD PUSH1 0x0 KECCAK256 PUSH1 0x0 ADD PUSH1 0x0 PUSH2 0x100 EXP DUP2 SLOAD DUP2 PUSH20 0xFFFFFFFFFFFFFFFFFFFFFFFFFFFFFFFFFFFFFFFF MUL NOT AND SWAP1 DUP4 PUSH20 0xFFFFFFFFFFFFFFFFFFFFFFFFFFFFFFFFFFFFFFFF AND MUL OR SWAP1 SSTORE POP PUSH2 0x2239 PUSH8 0x5423EB7622E77B75 PUSH1 0xC0 SHL PUSH2 0x57B JUMP JUMPDEST DUP1 PUSH1 0xA PUSH1 0x0 CALLER PUSH20 0xFFFFFFFFFFFFFFFFFFFFFFFFFFFFFFFFFFFFFFFF AND PUSH20 0xFFFFFFFFFFFFFFFFFFFFFFFFFFFFFFFFFFFFFFFF AND DUP2 MSTORE PUSH1 0x20 ADD SWAP1 DUP2 MSTORE PUSH1 0x20 ADD PUSH1 0x0 KECCAK256 PUSH1 0x1 ADD DUP2 SWAP1 SSTORE POP PUSH2 0x2294 PUSH8 0x55C224C82C1980BD PUSH1 0xC0 SHL PUSH2 0x57B JUMP JUMPDEST CALLVALUE PUSH1 0xA PUSH1 0x0 CALLER PUSH20 0xFFFFFFFFFFFFFFFFFFFFFFFFFFFFFFFFFFFFFFFF AND PUSH20 0xFFFFFFFFFFFFFFFFFFFFFFFFFFFFFFFFFFFFFFFF AND DUP2 MSTORE PUSH1 0x20 ADD SWAP1 DUP2 MSTORE PUSH1 0x20 ADD PUSH1 0x0 KECCAK256 PUSH1 0x2 ADD DUP2 SWAP1 SSTORE POP POP JUMP JUMPDEST PUSH1 0x0 DUP3 DUP3 MSTORE PUSH1 0x20 DUP3 ADD SWAP1 POP SWAP3 SWAP2 POP POP JUMP JUMPDEST PUSH32 0x796F752063616E27742073656E64206C657373207468616E2035306B20776569 PUSH1 0x0 DUP3 ADD MSTORE POP JUMP JUMPDEST PUSH1 0x0 PUSH2 0x2325 PUSH1 0x20 DUP4 PUSH2 0x22DE JUMP JUMPDEST SWAP2 POP PUSH2 0x2330 DUP3 PUSH2 0x22EF JUMP JUMPDEST PUSH1 0x20 DUP3 ADD SWAP1 POP SWAP2 SWAP1 POP JUMP JUMPDEST PUSH1 0x0 PUSH1 0x20 DUP3 ADD SWAP1 POP DUP2 DUP2 SUB PUSH1 0x0 DUP4 ADD MSTORE PUSH2 0x2354 DUP2 PUSH2 0x2318 JUMP JUMPDEST SWAP1 POP SWAP2 SWAP1 POP JUMP JUMPDEST PUSH1 0x0 DUP2 MLOAD SWAP1 POP SWAP2 SWAP1 POP JUMP JUMPDEST PUSH32 0x4E487B7100000000000000000000000000000000000000000000000000000000 PUSH1 0x0 MSTORE PUSH1 0x41 PUSH1 0x4 MSTORE PUSH1 0x24 PUSH1 0x0 REVERT JUMPDEST PUSH32 0x4E487B7100000000000000000000000000000000000000000000000000000000 PUSH1 0x0 MSTORE PUSH1 0x22 PUSH1 0x4 MSTORE PUSH1 0x24 PUSH1 0x0 REVERT JUMPDEST PUSH1 0x0 PUSH1 0x2 DUP3 DIV SWAP1 POP PUSH1 0x1 DUP3 AND DUP1 PUSH2 0x23DC JUMPI PUSH1 0x7F DUP3 AND SWAP2 POP JUMPDEST PUSH1 0x20 DUP3 LT DUP2 SUB PUSH2 0x23EF JUMPI PUSH2 0x23EE PUSH2 0x2395 JUMP JUMPDEST JUMPDEST POP SWAP2 SWAP1 POP JUMP JUMPDEST PUSH1 0x0 DUP2 SWAP1 POP DUP2 PUSH1 0x0 MSTORE PUSH1 0x20 PUSH1 0x0 KECCAK256 SWAP1 POP SWAP2 SWAP1 POP JUMP JUMPDEST PUSH1 0x0 PUSH1 0x20 PUSH1 0x1F DUP4 ADD DIV SWAP1 POP SWAP2 SWAP1 POP JUMP JUMPDEST PUSH1 0x0 DUP3 DUP3 SHL SWAP1 POP SWAP3 SWAP2 POP POP JUMP JUMPDEST PUSH1 0x0 PUSH1 0x8 DUP4 MUL PUSH2 0x2457 PUSH32 0xFFFFFFFFFFFFFFFFFFFFFFFFFFFFFFFFFFFFFFFFFFFFFFFFFFFFFFFFFFFFFFFF DUP3 PUSH2 0x241A JUMP JUMPDEST PUSH2 0x2461 DUP7 DUP4 PUSH2 0x241A JUMP JUMPDEST SWAP6 POP DUP1 NOT DUP5 AND SWAP4 POP DUP1 DUP7 AND DUP5 OR SWAP3 POP POP POP SWAP4 SWAP3 POP POP POP JUMP JUMPDEST PUSH1 0x0 DUP2 SWAP1 POP SWAP2 SWAP1 POP JUMP JUMPDEST PUSH1 0x0 DUP2 SWAP1 POP SWAP2 SWAP1 POP JUMP JUMPDEST PUSH1 0x0 PUSH2 0x24A8 PUSH2 0x24A3 PUSH2 0x249E DUP5 PUSH2 0x2479 JUMP JUMPDEST PUSH2 0x2483 JUMP JUMPDEST PUSH2 0x2479 JUMP JUMPDEST SWAP1 POP SWAP2 SWAP1 POP JUMP JUMPDEST PUSH1 0x0 DUP2 SWAP1 POP SWAP2 SWAP1 POP JUMP JUMPDEST PUSH2 0x24C2 DUP4 PUSH2 0x248D JUMP JUMPDEST PUSH2 0x24D6 PUSH2 0x24CE DUP3 PUSH2 0x24AF JUMP JUMPDEST DUP5 DUP5 SLOAD PUSH2 0x2427 JUMP JUMPDEST DUP3 SSTORE POP POP POP POP JUMP JUMPDEST PUSH1 0x0 SWAP1 JUMP JUMPDEST PUSH2 0x24EB PUSH2 0x24DE JUMP JUMPDEST PUSH2 0x24F6 DUP2 DUP5 DUP5 PUSH2 0x24B9 JUMP JUMPDEST POP POP POP JUMP JUMPDEST JUMPDEST DUP2 DUP2 LT ISZERO PUSH2 0x251A JUMPI PUSH2 0x250F PUSH1 0x0 DUP3 PUSH2 0x24E3 JUMP JUMPDEST PUSH1 0x1 DUP2 ADD SWAP1 POP PUSH2 0x24FC JUMP JUMPDEST POP POP JUMP JUMPDEST PUSH1 0x1F DUP3 GT ISZERO PUSH2 0x255F JUMPI PUSH2 0x2530 DUP2 PUSH2 0x23F5 JUMP JUMPDEST PUSH2 0x2539 DUP5 PUSH2 0x240A JUMP JUMPDEST DUP2 ADD PUSH1 0x20 DUP6 LT ISZERO PUSH2 0x2548 JUMPI DUP2 SWAP1 POP JUMPDEST PUSH2 0x255C PUSH2 0x2554 DUP6 PUSH2 0x240A JUMP JUMPDEST DUP4 ADD DUP3 PUSH2 0x24FB JUMP JUMPDEST POP POP JUMPDEST POP POP POP JUMP JUMPDEST PUSH1 0x0 DUP3 DUP3 SHR SWAP1 POP SWAP3 SWAP2 POP POP JUMP JUMPDEST PUSH1 0x0 PUSH2 0x2582 PUSH1 0x0 NOT DUP5 PUSH1 0x8 MUL PUSH2 0x2564 JUMP JUMPDEST NOT DUP1 DUP4 AND SWAP2 POP POP SWAP3 SWAP2 POP POP JUMP JUMPDEST PUSH1 0x0 PUSH2 0x259B DUP4 DUP4 PUSH2 0x2571 JUMP JUMPDEST SWAP2 POP DUP3 PUSH1 0x2 MUL DUP3 OR SWAP1 POP SWAP3 SWAP2 POP POP JUMP JUMPDEST PUSH2 0x25B4 DUP3 PUSH2 0x235B JUMP JUMPDEST PUSH8 0xFFFFFFFFFFFFFFFF DUP2 GT ISZERO PUSH2 0x25CD JUMPI PUSH2 0x25CC PUSH2 0x2366 JUMP JUMPDEST JUMPDEST PUSH2 0x25D7 DUP3 SLOAD PUSH2 0x23C4 JUMP JUMPDEST PUSH2 0x25E2 DUP3 DUP3 DUP6 PUSH2 0x251E JUMP JUMPDEST PUSH1 0x0 PUSH1 0x20 SWAP1 POP PUSH1 0x1F DUP4 GT PUSH1 0x1 DUP2 EQ PUSH2 0x2615 JUMPI PUSH1 0x0 DUP5 ISZERO PUSH2 0x2603 JUMPI DUP3 DUP8 ADD MLOAD SWAP1 POP JUMPDEST PUSH2 0x260D DUP6 DUP3 PUSH2 0x258F JUMP JUMPDEST DUP7 SSTORE POP PUSH2 0x2675 JUMP JUMPDEST PUSH1 0x1F NOT DUP5 AND PUSH2 0x2623 DUP7 PUSH2 0x23F5 JUMP JUMPDEST PUSH1 0x0 JUMPDEST DUP3 DUP2 LT ISZERO PUSH2 0x264B JUMPI DUP5 DUP10 ADD MLOAD DUP3 SSTORE PUSH1 0x1 DUP3 ADD SWAP2 POP PUSH1 0x20 DUP6 ADD SWAP5 POP PUSH1 0x20 DUP2 ADD SWAP1 POP PUSH2 0x2626 JUMP JUMPDEST DUP7 DUP4 LT ISZERO PUSH2 0x2668 JUMPI DUP5 DUP10 ADD MLOAD PUSH2 0x2664 PUSH1 0x1F DUP10 AND DUP3 PUSH2 0x2571 JUMP JUMPDEST DUP4 SSTORE POP JUMPDEST PUSH1 0x1 PUSH1 0x2 DUP9 MUL ADD DUP9 SSTORE POP POP POP JUMPDEST POP POP POP POP POP POP JUMP JUMPDEST PUSH1 0x0 DUP1 REVERT JUMPDEST PUSH1 0x0 PUSH20 0xFFFFFFFFFFFFFFFFFFFFFFFFFFFFFFFFFFFFFFFF DUP3 AND SWAP1 POP SWAP2 SWAP1 POP JUMP JUMPDEST PUSH1 0x0 PUSH2 0x26AD DUP3 PUSH2 0x2682 JUMP JUMPDEST SWAP1 POP SWAP2 SWAP1 POP JUMP JUMPDEST PUSH2 0x26BD DUP2 PUSH2 0x26A2 JUMP JUMPDEST DUP2 EQ PUSH2 0x26C8 JUMPI PUSH1 0x0 DUP1 REVERT JUMPDEST POP JUMP JUMPDEST PUSH1 0x0 DUP2 CALLDATALOAD SWAP1 POP PUSH2 0x26DA DUP2 PUSH2 0x26B4 JUMP JUMPDEST SWAP3 SWAP2 POP POP JUMP JUMPDEST PUSH1 0x0 PUSH1 0x20 DUP3 DUP5 SUB SLT ISZERO PUSH2 0x26F6 JUMPI PUSH2 0x26F5 PUSH2 0x267D JUMP JUMPDEST JUMPDEST PUSH1 0x0 PUSH2 0x2704 DUP5 DUP3 DUP6 ADD PUSH2 0x26CB JUMP JUMPDEST SWAP2 POP POP SWAP3 SWAP2 POP POP JUMP JUMPDEST PUSH1 0x0 PUSH2 0x2718 DUP3 PUSH2 0x2682 JUMP JUMPDEST SWAP1 POP SWAP2 SWAP1 POP JUMP JUMPDEST PUSH2 0x2728 DUP2 PUSH2 0x270D JUMP JUMPDEST DUP3 MSTORE POP POP JUMP JUMPDEST PUSH2 0x2737 DUP2 PUSH2 0x2479 JUMP JUMPDEST DUP3 MSTORE POP POP JUMP JUMPDEST PUSH1 0x0 PUSH1 0x80 DUP3 ADD SWAP1 POP PUSH2 0x2752 PUSH1 0x0 DUP4 ADD DUP8 PUSH2 0x271F JUMP JUMPDEST PUSH2 0x275F PUSH1 0x20 DUP4 ADD DUP7 PUSH2 0x272E JUMP JUMPDEST PUSH2 0x276C PUSH1 0x40 DUP4 ADD DUP6 PUSH2 0x272E JUMP JUMPDEST PUSH2 0x2779 PUSH1 0x60 DUP4 ADD DUP5 PUSH2 0x272E JUMP JUMPDEST SWAP6 SWAP5 POP POP POP POP POP JUMP JUMPDEST PUSH2 0x278B DUP2 PUSH2 0x2479 JUMP JUMPDEST DUP2 EQ PUSH2 0x2796 JUMPI PUSH1 0x0 DUP1 REVERT JUMPDEST POP JUMP JUMPDEST PUSH1 0x0 DUP2 CALLDATALOAD SWAP1 POP PUSH2 0x27A8 DUP2 PUSH2 0x2782 JUMP JUMPDEST SWAP3 SWAP2 POP POP JUMP JUMPDEST PUSH1 0x0 DUP1 PUSH1 0x0 PUSH1 0x60 DUP5 DUP7 SUB SLT ISZERO PUSH2 0x27C7 JUMPI PUSH2 0x27C6 PUSH2 0x267D JUMP JUMPDEST JUMPDEST PUSH1 0x0 PUSH2 0x27D5 DUP7 DUP3 DUP8 ADD PUSH2 0x2799 JUMP JUMPDEST SWAP4 POP POP PUSH1 0x20 PUSH2 0x27E6 DUP7 DUP3 DUP8 ADD PUSH2 0x2799 JUMP JUMPDEST SWAP3 POP POP PUSH1 0x40 PUSH2 0x27F7 DUP7 DUP3 DUP8 ADD PUSH2 0x26CB JUMP JUMPDEST SWAP2 POP POP SWAP3 POP SWAP3 POP SWAP3 JUMP JUMPDEST PUSH1 0x0 PUSH1 0x20 DUP3 ADD SWAP1 POP PUSH2 0x2816 PUSH1 0x0 DUP4 ADD DUP5 PUSH2 0x272E JUMP JUMPDEST SWAP3 SWAP2 POP POP JUMP JUMPDEST PUSH1 0x0 PUSH1 0x20 DUP3 DUP5 SUB SLT ISZERO PUSH2 0x2832 JUMPI PUSH2 0x2831 PUSH2 0x267D JUMP JUMPDEST JUMPDEST PUSH1 0x0 PUSH2 0x2840 DUP5 DUP3 DUP6 ADD PUSH2 0x2799 JUMP JUMPDEST SWAP2 POP POP SWAP3 SWAP2 POP POP JUMP JUMPDEST PUSH1 0x0 JUMPDEST DUP4 DUP2 LT ISZERO PUSH2 0x2867 JUMPI DUP1 DUP3 ADD MLOAD DUP2 DUP5 ADD MSTORE PUSH1 0x20 DUP2 ADD SWAP1 POP PUSH2 0x284C JUMP JUMPDEST PUSH1 0x0 DUP5 DUP5 ADD MSTORE POP POP POP POP JUMP JUMPDEST PUSH1 0x0 PUSH1 0x1F NOT PUSH1 0x1F DUP4 ADD AND SWAP1 POP SWAP2 SWAP1 POP JUMP JUMPDEST PUSH1 0x0 PUSH2 0x288F DUP3 PUSH2 0x235B JUMP JUMPDEST PUSH2 0x2899 DUP2 DUP6 PUSH2 0x22DE JUMP JUMPDEST SWAP4 POP PUSH2 0x28A9 DUP2 DUP6 PUSH1 0x20 DUP7 ADD PUSH2 0x2849 JUMP JUMPDEST PUSH2 0x28B2 DUP2 PUSH2 0x2873 JUMP JUMPDEST DUP5 ADD SWAP2 POP POP SWAP3 SWAP2 POP POP JUMP JUMPDEST PUSH1 0x0 PUSH1 0x80 DUP3 ADD SWAP1 POP DUP2 DUP2 SUB PUSH1 0x0 DUP4 ADD MSTORE PUSH2 0x28D7 DUP2 DUP8 PUSH2 0x2884 JUMP JUMPDEST SWAP1 POP PUSH2 0x28E6 PUSH1 0x20 DUP4 ADD DUP7 PUSH2 0x272E JUMP JUMPDEST PUSH2 0x28F3 PUSH1 0x40 DUP4 ADD DUP6 PUSH2 0x272E JUMP JUMPDEST PUSH2 0x2900 PUSH1 0x60 DUP4 ADD DUP5 PUSH2 0x272E JUMP JUMPDEST SWAP6 SWAP5 POP POP POP POP POP JUMP JUMPDEST PUSH2 0x2912 DUP2 PUSH2 0x26A2 JUMP JUMPDEST DUP3 MSTORE POP POP JUMP JUMPDEST PUSH1 0x0 PUSH1 0x20 DUP3 ADD SWAP1 POP PUSH2 0x292D PUSH1 0x0 DUP4 ADD DUP5 PUSH2 0x2909 JUMP JUMPDEST SWAP3 SWAP2 POP POP JUMP JUMPDEST PUSH1 0x0 DUP1 PUSH1 0x40 DUP4 DUP6 SUB SLT ISZERO PUSH2 0x294A JUMPI PUSH2 0x2949 PUSH2 0x267D JUMP JUMPDEST JUMPDEST PUSH1 0x0 PUSH2 0x2958 DUP6 DUP3 DUP7 ADD PUSH2 0x26CB JUMP JUMPDEST SWAP3 POP POP PUSH1 0x20 PUSH2 0x2969 DUP6 DUP3 DUP7 ADD PUSH2 0x2799 JUMP JUMPDEST SWAP2 POP POP SWAP3 POP SWAP3 SWAP1 POP JUMP JUMPDEST PUSH32 0x66656520616C7265616479207061696400000000000000000000000000000000 PUSH1 0x0 DUP3 ADD MSTORE POP JUMP JUMPDEST PUSH1 0x0 PUSH2 0x29A9 PUSH1 0x10 DUP4 PUSH2 0x22DE JUMP JUMPDEST SWAP2 POP PUSH2 0x29B4 DUP3 PUSH2 0x2973 JUMP JUMPDEST PUSH1 0x20 DUP3 ADD SWAP1 POP SWAP2 SWAP1 POP JUMP JUMPDEST PUSH1 0x0 PUSH1 0x20 DUP3 ADD SWAP1 POP DUP2 DUP2 SUB PUSH1 0x0 DUP4 ADD MSTORE PUSH2 0x29D8 DUP2 PUSH2 0x299C JUMP JUMPDEST SWAP1 POP SWAP2 SWAP1 POP JUMP JUMPDEST PUSH32 0x4E487B7100000000000000000000000000000000000000000000000000000000 PUSH1 0x0 MSTORE PUSH1 0x12 PUSH1 0x4 MSTORE PUSH1 0x24 PUSH1 0x0 REVERT JUMPDEST PUSH32 0x4E487B7100000000000000000000000000000000000000000000000000000000 PUSH1 0x0 MSTORE PUSH1 0x11 PUSH1 0x4 MSTORE PUSH1 0x24 PUSH1 0x0 REVERT JUMPDEST PUSH1 0x0 PUSH2 0x2A48 DUP3 PUSH2 0x2479 JUMP JUMPDEST SWAP2 POP PUSH2 0x2A53 DUP4 PUSH2 0x2479 JUMP JUMPDEST SWAP3 POP DUP3 PUSH2 0x2A63 JUMPI PUSH2 0x2A62 PUSH2 0x29DF JUMP JUMPDEST JUMPDEST DUP3 DUP3 DIV SWAP1 POP SWAP3 SWAP2 POP POP JUMP JUMPDEST PUSH32 0x70617920706C6174666F726D2066656520666972737400000000000000000000 PUSH1 0x0 DUP3 ADD MSTORE POP JUMP JUMPDEST PUSH1 0x0 PUSH2 0x2AA4 PUSH1 0x16 DUP4 PUSH2 0x22DE JUMP JUMPDEST SWAP2 POP PUSH2 0x2AAF DUP3 PUSH2 0x2A6E JUMP JUMPDEST PUSH1 0x20 DUP3 ADD SWAP1 POP SWAP2 SWAP1 POP JUMP JUMPDEST PUSH1 0x0 PUSH1 0x20 DUP3 ADD SWAP1 POP DUP2 DUP2 SUB PUSH1 0x0 DUP4 ADD MSTORE PUSH2 0x2AD3 DUP2 PUSH2 0x2A97 JUMP JUMPDEST SWAP1 POP SWAP2 SWAP1 POP JUMP JUMPDEST PUSH32 0x6E6F206761696E00000000000000000000000000000000000000000000000000 PUSH1 0x0 DUP3 ADD MSTORE POP JUMP JUMPDEST PUSH1 0x0 PUSH2 0x2B10 PUSH1 0x7 DUP4 PUSH2 0x22DE JUMP JUMPDEST SWAP2 POP PUSH2 0x2B1B DUP3 PUSH2 0x2ADA JUMP JUMPDEST PUSH1 0x20 DUP3 ADD SWAP1 POP SWAP2 SWAP1 POP JUMP JUMPDEST PUSH1 0x0 PUSH1 0x20 DUP3 ADD SWAP1 POP DUP2 DUP2 SUB PUSH1 0x0 DUP4 ADD MSTORE PUSH2 0x2B3F DUP2 PUSH2 0x2B03 JUMP JUMPDEST SWAP1 POP SWAP2 SWAP1 POP JUMP JUMPDEST PUSH1 0x0 PUSH2 0x2B51 DUP3 PUSH2 0x2479 JUMP JUMPDEST SWAP2 POP PUSH2 0x2B5C DUP4 PUSH2 0x2479 JUMP JUMPDEST SWAP3 POP DUP3 DUP3 MUL PUSH2 0x2B6A DUP2 PUSH2 0x2479 JUMP JUMPDEST SWAP2 POP DUP3 DUP3 DIV DUP5 EQ DUP4 ISZERO OR PUSH2 0x2B81 JUMPI PUSH2 0x2B80 PUSH2 0x2A0E JUMP JUMPDEST JUMPDEST POP SWAP3 SWAP2 POP POP JUMP JUMPDEST PUSH1 0x0 DUP2 MLOAD SWAP1 POP PUSH2 0x2B97 DUP2 PUSH2 0x2782 JUMP JUMPDEST SWAP3 SWAP2 POP POP JUMP JUMPDEST PUSH1 0x0 PUSH1 0x20 DUP3 DUP5 SUB SLT ISZERO PUSH2 0x2BB3 JUMPI PUSH2 0x2BB2 PUSH2 0x267D JUMP JUMPDEST JUMPDEST PUSH1 0x0 PUSH2 0x2BC1 DUP5 DUP3 DUP6 ADD PUSH2 0x2B88 JUMP JUMPDEST SWAP2 POP POP SWAP3 SWAP2 POP POP JUMP JUMPDEST PUSH32 0x636F6D70657469746F7220646F6E277420657869737400000000000000000000 PUSH1 0x0 DUP3 ADD MSTORE POP JUMP JUMPDEST PUSH1 0x0 PUSH2 0x2C00 PUSH1 0x16 DUP4 PUSH2 0x22DE JUMP JUMPDEST SWAP2 POP PUSH2 0x2C0B DUP3 PUSH2 0x2BCA JUMP JUMPDEST PUSH1 0x20 DUP3 ADD SWAP1 POP SWAP2 SWAP1 POP JUMP JUMPDEST PUSH1 0x0 PUSH1 0x20 DUP3 ADD SWAP1 POP DUP2 DUP2 SUB PUSH1 0x0 DUP4 ADD MSTORE PUSH2 0x2C2F DUP2 PUSH2 0x2BF3 JUMP JUMPDEST SWAP1 POP SWAP2 SWAP1 POP JUMP JUMPDEST PUSH1 0x0 PUSH2 0x2C41 DUP3 PUSH2 0x2479 JUMP JUMPDEST SWAP2 POP PUSH32 0xFFFFFFFFFFFFFFFFFFFFFFFFFFFFFFFFFFFFFFFFFFFFFFFFFFFFFFFFFFFFFFFF DUP3 SUB PUSH2 0x2C73 JUMPI PUSH2 0x2C72 PUSH2 0x2A0E JUMP JUMPDEST JUMPDEST PUSH1 0x1 DUP3 ADD SWAP1 POP SWAP2 SWAP1 POP JUMP JUMPDEST PUSH1 0x0 PUSH2 0x2C89 DUP3 PUSH2 0x2479 JUMP JUMPDEST SWAP2 POP PUSH2 0x2C94 DUP4 PUSH2 0x2479 JUMP JUMPDEST SWAP3 POP DUP3 DUP3 ADD SWAP1 POP DUP1 DUP3 GT ISZERO PUSH2 0x2CAC JUMPI PUSH2 0x2CAB PUSH2 0x2A0E JUMP JUMPDEST JUMPDEST SWAP3 SWAP2 POP POP JUMP JUMPDEST PUSH1 0x0 PUSH1 0xE0 DUP3 ADD SWAP1 POP PUSH2 0x2CC7 PUSH1 0x0 DUP4 ADD DUP11 PUSH2 0x2909 JUMP JUMPDEST PUSH2 0x2CD4 PUSH1 0x20 DUP4 ADD DUP10 PUSH2 0x272E JUMP JUMPDEST PUSH2 0x2CE1 PUSH1 0x40 DUP4 ADD DUP9 PUSH2 0x272E JUMP JUMPDEST PUSH2 0x2CEE PUSH1 0x60 DUP4 ADD DUP8 PUSH2 0x272E JUMP JUMPDEST PUSH2 0x2CFB PUSH1 0x80 DUP4 ADD DUP7 PUSH2 0x272E JUMP JUMPDEST PUSH2 0x2D08 PUSH1 0xA0 DUP4 ADD DUP6 PUSH2 0x272E JUMP JUMPDEST PUSH2 0x2D15 PUSH1 0xC0 DUP4 ADD DUP5 PUSH2 0x272E JUMP JUMPDEST SWAP9 SWAP8 POP POP POP POP POP POP POP POP JUMP JUMPDEST PUSH1 0x0 DUP2 SWAP1 POP SWAP3 SWAP2 POP POP JUMP JUMPDEST POP JUMP JUMPDEST PUSH1 0x0 PUSH2 0x2D3C PUSH1 0x0 DUP4 PUSH2 0x2D21 JUMP JUMPDEST SWAP2 POP PUSH2 0x2D47 DUP3 PUSH2 0x2D2C JUMP JUMPDEST PUSH1 0x0 DUP3 ADD SWAP1 POP SWAP2 SWAP1 POP JUMP JUMPDEST PUSH1 0x0 PUSH2 0x2D5D DUP3 PUSH2 0x2D2F JUMP JUMPDEST SWAP2 POP DUP2 SWAP1 POP SWAP2 SWAP1 POP JUMP JUMPDEST PUSH32 0x4661696C656420746F2073656E64204574686572000000000000000000000000 PUSH1 0x0 DUP3 ADD MSTORE POP JUMP JUMPDEST PUSH1 0x0 PUSH2 0x2D9D PUSH1 0x14 DUP4 PUSH2 0x22DE JUMP JUMPDEST SWAP2 POP PUSH2 0x2DA8 DUP3 PUSH2 0x2D67 JUMP JUMPDEST PUSH1 0x20 DUP3 ADD SWAP1 POP SWAP2 SWAP1 POP JUMP JUMPDEST PUSH1 0x0 PUSH1 0x20 DUP3 ADD SWAP1 POP DUP2 DUP2 SUB PUSH1 0x0 DUP4 ADD MSTORE PUSH2 0x2DCC DUP2 PUSH2 0x2D90 JUMP JUMPDEST SWAP1 POP SWAP2 SWAP1 POP JUMP INVALID LOG2 PUSH5 0x6970667358 0x22 SLT KECCAK256 0xFB 0xCD 0xF PUSH12 0xCB450EF4175603CCAF2DAE38 SWAP4 0xAD 0xD0 0xAF 0xC7 DUP13 PUSH1 0x2E DELEGATECALL PUSH28 0x7F4F00BFA0B264736F6C634300081500330000000000000000000000 "},"methodIdentifiers":{"beginEventTimestamp()":"a14de028","betWaveDaoAddress()":"d93e03b0","betWavesOrganizerAddress()":"c6073c66","bettors(address)":"22010c1f","calculateValidatorReward(uint256)":"ebfb6652","competitors(uint256)":"9d86801f","endEventTimestamp()":"a32b3487","getContractBalance()":"6f9fb98a","redeemToBettor()":"ad05d9c3","sendPlatfromAndCreatorFees(uint256,uint256,address)":"5c3a3e5c","sendValidatorFees(address,uint256)":"cf959429","setBet(uint256)":"e8399cc6","setFeesBooleanToTrue()":"a99073ae","setWinnerId(uint256)":"dc09f682","test()":"f8a8fd6d","totalBet()":"fe5e1853","winnerId()":"91e0d593"}}}}}