{"contracts/BetWaveDAO.sol":{"BetWaveDAO":{"abi":[{"inputs":[],"name":"insufficientBalance","type":"error"},{"inputs":[],"name":"notRegistered","type":"error"},{"inputs":[],"name":"notValidator","type":"error"},{"anonymous":false,"inputs":[{"indexed":false,"internalType":"address","name":"","type":"address"},{"indexed":false,"internalType":"uint256","name":"","type":"uint256"}],"name":"newUser","type":"event"},{"anonymous":false,"inputs":[{"indexed":false,"internalType":"uint256","name":"","type":"uint256"}],"name":"voteRejected","type":"event"},{"stateMutability":"payable","type":"fallback"},{"inputs":[],"name":"DAOQuorum","outputs":[{"internalType":"uint256","name":"","type":"uint256"}],"stateMutability":"view","type":"function"},{"inputs":[{"internalType":"uint256","name":"","type":"uint256"}],"name":"DAOVoteList","outputs":[{"internalType":"enum BetWaveDAO.VoteType","name":"voteType","type":"uint8"},{"internalType":"uint256","name":"voteFor","type":"uint256"},{"internalType":"uint256","name":"voteAgainst","type":"uint256"},{"internalType":"uint256","name":"newValue","type":"uint256"}],"stateMutability":"view","type":"function"},{"inputs":[],"name":"addUser","outputs":[],"stateMutability":"nonpayable","type":"function"},{"inputs":[],"name":"addValidators","outputs":[],"stateMutability":"payable","type":"function"},{"inputs":[{"internalType":"enum BetWaveDAO.VoteType","name":"_voteType","type":"uint8"},{"internalType":"uint256","name":"_newValue","type":"uint256"}],"name":"askDAOVote","outputs":[],"stateMutability":"nonpayable","type":"function"},{"inputs":[],"name":"betQuorum","outputs":[{"internalType":"uint256","name":"","type":"uint256"}],"stateMutability":"view","type":"function"},{"inputs":[],"name":"creatorFees","outputs":[{"internalType":"uint256","name":"","type":"uint256"}],"stateMutability":"view","type":"function"},{"inputs":[],"name":"daoVoteNumber","outputs":[{"internalType":"uint256","name":"","type":"uint256"}],"stateMutability":"view","type":"function"},{"inputs":[],"name":"getDaoControlValue","outputs":[{"internalType":"uint256","name":"","type":"uint256"},{"internalType":"uint256","name":"","type":"uint256"},{"internalType":"uint256","name":"","type":"uint256"},{"internalType":"uint256","name":"","type":"uint256"},{"internalType":"uint256","name":"","type":"uint256"},{"internalType":"uint256","name":"","type":"uint256"}],"stateMutability":"view","type":"function"},{"inputs":[{"internalType":"uint256","name":"_id","type":"uint256"}],"name":"getDaoVoteHasVoted","outputs":[{"internalType":"bool","name":"","type":"bool"}],"stateMutability":"view","type":"function"},{"inputs":[],"name":"platformFees","outputs":[{"internalType":"uint256","name":"","type":"uint256"}],"stateMutability":"view","type":"function"},{"inputs":[{"internalType":"uint256","name":"_id","type":"uint256"},{"internalType":"uint256","name":"_option","type":"uint256"}],"name":"setDaoVote","outputs":[],"stateMutability":"nonpayable","type":"function"},{"inputs":[{"internalType":"uint256","name":"","type":"uint256"}],"name":"userList","outputs":[{"internalType":"address","name":"","type":"address"}],"stateMutability":"view","type":"function"},{"inputs":[],"name":"userNumber","outputs":[{"internalType":"uint256","name":"","type":"uint256"}],"stateMutability":"view","type":"function"},{"inputs":[{"internalType":"address","name":"","type":"address"}],"name":"userToId","outputs":[{"internalType":"uint256","name":"","type":"uint256"}],"stateMutability":"view","type":"function"},{"inputs":[],"name":"validatorFees","outputs":[{"internalType":"uint256","name":"","type":"uint256"}],"stateMutability":"view","type":"function"},{"inputs":[],"name":"validatorNumber","outputs":[{"internalType":"uint256","name":"","type":"uint256"}],"stateMutability":"view","type":"function"},{"inputs":[],"name":"validatorNumberRequired","outputs":[{"internalType":"uint256","name":"","type":"uint256"}],"stateMutability":"view","type":"function"},{"inputs":[{"internalType":"address","name":"","type":"address"}],"name":"validators","outputs":[{"internalType":"address payable","name":"userAddress","type":"address"},{"internalType":"bool","name":"isBlacklisted","type":"bool"},{"internalType":"uint256","name":"strike","type":"uint256"}],"stateMutability":"view","type":"function"},{"inputs":[],"name":"withdrawFromValidators","outputs":[],"stateMutability":"payable","type":"function"},{"stateMutability":"payable","type":"receive"}],"evm":{"bytecode":{"linkReferences":{},"object":"60806040526040518060400160405280600c81526020017f6566626c7671687362646c670000000000000000000000000000000000000000815250600090816200004a9190620002fc565b50600460015560966002556032600355604b600455604b600555600a60065560016007553480156200007b57600080fd5b50620003e3565b600081519050919050565b7f4e487b7100000000000000000000000000000000000000000000000000000000600052604160045260246000fd5b7f4e487b7100000000000000000000000000000000000000000000000000000000600052602260045260246000fd5b600060028204905060018216806200010457607f821691505b6020821081036200011a5762000119620000bc565b5b50919050565b60008190508160005260206000209050919050565b60006020601f8301049050919050565b600082821b905092915050565b600060088302620001847fffffffffffffffffffffffffffffffffffffffffffffffffffffffffffffffff8262000145565b62000190868362000145565b95508019841693508086168417925050509392505050565b6000819050919050565b6000819050919050565b6000620001dd620001d7620001d184620001a8565b620001b2565b620001a8565b9050919050565b6000819050919050565b620001f983620001bc565b620002116200020882620001e4565b84845462000152565b825550505050565b600090565b6200022862000219565b62000235818484620001ee565b505050565b5b818110156200025d57620002516000826200021e565b6001810190506200023b565b5050565b601f821115620002ac57620002768162000120565b620002818462000135565b8101602085101562000291578190505b620002a9620002a08562000135565b8301826200023a565b50505b505050565b600082821c905092915050565b6000620002d160001984600802620002b1565b1980831691505092915050565b6000620002ec8383620002be565b9150826002028217905092915050565b620003078262000082565b67ffffffffffffffff8111156200032357620003226200008d565b5b6200032f8254620000eb565b6200033c82828562000261565b600060209050601f8311600181146200037457600084156200035f578287015190505b6200036b8582620002de565b865550620003db565b601f198416620003848662000120565b60005b82811015620003ae5784890151825560018201915060208501945060208101905062000387565b86831015620003ce5784890151620003ca601f891682620002be565b8355505b6001600288020188555050505b505050505050565b612ae180620003f36000396000f3fe6080604052600436106101235760003560e01c806353db7e77116100a05780639f4216e8116100645780639f4216e8146104c4578063c5ee74eb14610501578063cb61bd8c1461050b578063dc07067114610536578063fa52c7d814610540576101ab565b806353db7e77146103da5780636694ba611461040557806372e24fdd1461043057806373a8b6c81461045b578063860734fb14610484576101ab565b80631b2d6a7c116100e75780631b2d6a7c146103025780632b4e84131461032b578063455c928c1461035657806346123d821461036d57806353241b4f1461039d576101ab565b80630b4805d3146102195780630b85000d146102565780630ed337ad14610281578063139f29a1146102ac578063194a4e7e146102d7576101ab565b366101ab5761013c6781553af48258a79d60c01b61057f565b61015067e471cb8257f5f58060c01b61057f565b61c350341015610195576040517f08c379a000000000000000000000000000000000000000000000000000000000815260040161018c90611f6f565b60405180910390fd5b6101a9677150c45eeb099adf60c01b61057f565b005b6101bf6767b6fa987bad051b60c01b61057f565b6101d36775d5ff581820243f60c01b61057f565b6040518060400160405280601e81526020017f46616c6c6261636b2066756e6374696f6e2069732065786563757465642100008152506000908161021791906121df565b005b34801561022557600080fd5b50610240600480360381019061023b9190612314565b610582565b60405161024d9190612350565b60405180910390f35b34801561026257600080fd5b5061026b61059a565b6040516102789190612350565b60405180910390f35b34801561028d57600080fd5b506102966105a0565b6040516102a39190612350565b60405180910390f35b3480156102b857600080fd5b506102c16105a6565b6040516102ce9190612350565b60405180910390f35b3480156102e357600080fd5b506102ec6105ac565b6040516102f99190612350565b60405180910390f35b34801561030e57600080fd5b50610329600480360381019061032491906123bc565b6105b2565b005b34801561033757600080fd5b506103406107de565b60405161034d9190612350565b60405180910390f35b34801561036257600080fd5b5061036b6107e4565b005b34801561037957600080fd5b50610382610a11565b604051610394969594939291906123fc565b60405180910390f35b3480156103a957600080fd5b506103c460048036038101906103bf919061245d565b610a7c565b6040516103d191906124a5565b60405180910390f35b3480156103e657600080fd5b506103ef610b22565b6040516103fc9190612350565b60405180910390f35b34801561041157600080fd5b5061041a610b28565b6040516104279190612350565b60405180910390f35b34801561043c57600080fd5b50610445610b2e565b6040516104529190612350565b60405180910390f35b34801561046757600080fd5b50610482600480360381019061047d91906124c0565b610b34565b005b34801561049057600080fd5b506104ab60048036038101906104a6919061245d565b611138565b6040516104bb9493929190612577565b60405180910390f35b3480156104d057600080fd5b506104eb60048036038101906104e6919061245d565b611175565b6040516104f891906125cb565b60405180910390f35b6105096111a8565b005b34801561051757600080fd5b50610520611516565b60405161052d9190612350565b60405180910390f35b61053e61151c565b005b34801561054c57600080fd5b5061056760048036038101906105629190612314565b611a1a565b60405161057693929190612607565b60405180910390f35b50565b600d6020528060005260406000206000915090505481565b60045481565b60095481565b60085481565b60025481565b6105c667e39919ac5adc293e60c01b61057f565b6105da67c39e01f2e81a64ed60c01b61057f565b6105ee671093c09d48d5c07d60c01b61057f565b61060267166918ecb438923760c01b61057f565b3373ffffffffffffffffffffffffffffffffffffffff16600b60003373ffffffffffffffffffffffffffffffffffffffff1673ffffffffffffffffffffffffffffffffffffffff16815260200190815260200160002060000160009054906101000a900473ffffffffffffffffffffffffffffffffffffffff1673ffffffffffffffffffffffffffffffffffffffff16146106f1576106ab67cd217b5d4b23f23e60c01b61057f565b6106bf676fc06e684a128eac60c01b61057f565b6040517fec752d2a00000000000000000000000000000000000000000000000000000000815260040160405180910390fd5b610705670205e7c71082503b60c01b61057f565b610719675fd384b70e0f1a4060c01b61057f565b61072d67e49aff096070294c60c01b61057f565b610741677ee2475f2633667560c01b61057f565b610755674f7648ff0f91dece60c01b61057f565b81600a6000600954815260200190815260200160002060000160006101000a81548160ff021916908360058111156107905761078f612500565b5b02179055506107a967b5a6799eaedbe0c660c01b61057f565b80600a6000600960008154809291906107c19061266d565b919050558152602001908152602001600020600301819055505050565b60075481565b6107f86786b748461beae52860c01b61057f565b61080c67defaabf061d7697960c01b61057f565b61082067b1c95cadfca16d9060c01b61057f565b61083467e8400db039b434a160c01b61057f565b6000600d60003373ffffffffffffffffffffffffffffffffffffffff1673ffffffffffffffffffffffffffffffffffffffff16815260200190815260200160002054146108b6576040517f08c379a00000000000000000000000000000000000000000000000000000000081526004016108ad90612701565b60405180910390fd5b6108ca6783b866a29681856260c01b61057f565b6108de6788d72cfdab712af760c01b61057f565b600754600d60003373ffffffffffffffffffffffffffffffffffffffff1673ffffffffffffffffffffffffffffffffffffffff16815260200190815260200160002081905550610938678154ba973fe6229a60c01b61057f565b33600c6000600760008154809291906109509061266d565b91905055815260200190815260200160002060006101000a81548173ffffffffffffffffffffffffffffffffffffffff021916908373ffffffffffffffffffffffffffffffffffffffff1602179055506109b4678904270491a295c360c01b61057f565b6109c8672f7f66551c7feb5960c01b61057f565b7ff9ac505b144a1879609b52f02d3441e478cdd9c19c5d198a2712ac5184ecef673360016007546109f99190612721565b604051610a07929190612755565b60405180910390a1565b600080600080600080610a2e672b662b167f28c68860c01b61057f565b610a4267ed4b423ed24a8c5f60c01b61057f565b610a56678f0d8e2aef8735fd60c01b61057f565b600154600254600354600454600554600654955095509550955095509550909192939495565b6000610a92675dbbf65b127543b660c01b61057f565b610aa6674752488fe3331d2760c01b61057f565b610aba6743dfe1df271f9ca760c01b61057f565b600a600083815260200190815260200160002060040160003373ffffffffffffffffffffffffffffffffffffffff1673ffffffffffffffffffffffffffffffffffffffff16815260200190815260200160002060009054906101000a900460ff169050919050565b60015481565b60035481565b60065481565b610b486701c93fd326444bd460c01b61057f565b610b5c67c39e01f2e81a64ed60c01b61057f565b610b70671093c09d48d5c07d60c01b61057f565b610b8467166918ecb438923760c01b61057f565b3373ffffffffffffffffffffffffffffffffffffffff16600b60003373ffffffffffffffffffffffffffffffffffffffff1673ffffffffffffffffffffffffffffffffffffffff16815260200190815260200160002060000160009054906101000a900473ffffffffffffffffffffffffffffffffffffffff1673ffffffffffffffffffffffffffffffffffffffff1614610c7357610c2d67cd217b5d4b23f23e60c01b61057f565b610c41676fc06e684a128eac60c01b61057f565b6040517fec752d2a00000000000000000000000000000000000000000000000000000000815260040160405180910390fd5b610c87670205e7c71082503b60c01b61057f565b610c9b675fd384b70e0f1a4060c01b61057f565b610caf67a848fbd2b7e9ad7460c01b61057f565b610cc3671b75ae5aaf556caf60c01b61057f565b610cd767e66b1f7add59752460c01b61057f565b610ceb67c6dc24b1b3e3726160c01b61057f565b610cff67794f7c57815f215560c01b61057f565b60001515600a600084815260200190815260200160002060040160003373ffffffffffffffffffffffffffffffffffffffff1673ffffffffffffffffffffffffffffffffffffffff16815260200190815260200160002060009054906101000a900460ff16151514610da6576040517f08c379a0000000000000000000000000000000000000000000000000000000008152600401610d9d906127ca565b60405180910390fd5b610dba678c61afc21f3c929960c01b61057f565b610dce67b8b386f9d4dd07ea60c01b61057f565b610de267b5cb6b893d80ab7160c01b61057f565b60018103610e4357610dfe674d3910f0bb780e3b60c01b61057f565b610e12677d362880eeada7e760c01b61057f565b600a60008381526020019081526020016000206001016000815480929190610e399061266d565b9190505550610ee2565b610e5767c073c9f5441ac58e60c01b61057f565b610e6b6739d3c8d7cecd0f9160c01b61057f565b60028103610ecc57610e876765962366134dfd5460c01b61057f565b610e9b672f04a550496904fc60c01b61057f565b600a60008381526020019081526020016000206002016000815480929190610ec29061266d565b9190505550610ee1565b610ee067d463ffd912fba0a460c01b61057f565b5b5b610ef667aa2dfb23bae8df4b60c01b61057f565b6001600a600084815260200190815260200160002060040160003373ffffffffffffffffffffffffffffffffffffffff1673ffffffffffffffffffffffffffffffffffffffff16815260200190815260200160002060006101000a81548160ff021916908315150217905550610f7667eda05cf104aa14bf60c01b61057f565b610f8a677e7efb95dd36decb60c01b61057f565b6005546008546064600a600086815260200190815260200160002060010154610fb391906127ea565b610fbd919061285b565b1061104657610fd6676e46cf4e27fce8c460c01b61057f565b610fea674ee6fe4b92e54b5660c01b61057f565b610ffe67be30a162b350931e60c01b61057f565b611041600a600084815260200190815260200160002060000160009054906101000a900460ff16600a600085815260200190815260200160002060030154611a71565b611134565b61105a678a21e7652ca0184760c01b61057f565b61106e670fb32a6c10284cba60c01b61057f565b6005546008546064600a60008681526020019081526020016000206002015461109791906127ea565b6110a1919061285b565b1061111e576110ba6712c5bb31accc942060c01b61057f565b6110ce675ec542e2a60992c960c01b61057f565b6110e2674c271bbd968cf21860c01b61057f565b7f91944425928af46b7fe486868fbdd04cd88c32637b4c91612caa1781c1b91f8c826040516111119190612350565b60405180910390a1611133565b61113267dab2d40cd2dfa72f60c01b61057f565b5b5b5050565b600a6020528060005260406000206000915090508060000160009054906101000a900460ff16908060010154908060020154908060030154905084565b600c6020528060005260406000206000915054906101000a900473ffffffffffffffffffffffffffffffffffffffff1681565b6111bc67217257742e51d03f60c01b61057f565b306111d1678a584450036e6bc560c01b61057f565b6111e5672ec241db15387ac460c01b61057f565b6111f967a593865dbf8413a060c01b61057f565b670de0b6b3a76400008173ffffffffffffffffffffffffffffffffffffffff1631116112795761123367032680fffe7a4f1660c01b61057f565b6112476754ee283c138a83f660c01b61057f565b6040517f47108e3e00000000000000000000000000000000000000000000000000000000815260040160405180910390fd5b61128d67865f41178dc90e2660c01b61057f565b6112a1670b2c3b19117c7b2960c01b61057f565b6112b567283021dc7a0e521d60c01b61057f565b6112c9674d5299672d9fb3a560c01b61057f565b6112dd679df0f99ff2714a2c60c01b61057f565b6112f167110be5f3da87538b60c01b61057f565b611305674110285267017c6f60c01b61057f565b3373ffffffffffffffffffffffffffffffffffffffff16600b60003373ffffffffffffffffffffffffffffffffffffffff1673ffffffffffffffffffffffffffffffffffffffff16815260200190815260200160002060000160009054906101000a900473ffffffffffffffffffffffffffffffffffffffff1673ffffffffffffffffffffffffffffffffffffffff16146113d5576040517f08c379a00000000000000000000000000000000000000000000000000000000081526004016113cc906128d8565b60405180910390fd5b6113e9670aef0b94fb9cd5cc60c01b61057f565b6113fd67dd8f40c205f079b560c01b61057f565b61141167076548d576e8eba760c01b61057f565b6000670de0b6b3a764000090506114326744e2a30d6ef736b560c01b61057f565b611446675e4fe3962a34e8b960c01b61057f565b6114503382611dd2565b61146467e69045755a9d80bc60c01b61057f565b6000600b60003373ffffffffffffffffffffffffffffffffffffffff1673ffffffffffffffffffffffffffffffffffffffff16815260200190815260200160002060000160006101000a81548173ffffffffffffffffffffffffffffffffffffffff021916908373ffffffffffffffffffffffffffffffffffffffff1602179055506114fa67fe1a1719680b08c460c01b61057f565b6008600081548092919061150d906128f8565b91905055505050565b60055481565b61153067d1c56bd72f8d191260c01b61057f565b611544675e6d6089a319f19060c01b61057f565b6115586726c6f4fb67a0abc360c01b61057f565b61156c67cc0b1bc0d1cc22d460c01b61057f565b6000600d60003373ffffffffffffffffffffffffffffffffffffffff1673ffffffffffffffffffffffffffffffffffffffff168152602001908152602001600020540361160d576115c767ca1c0e4207c7b80760c01b61057f565b6115db67bb8f2b0f503f4bc360c01b61057f565b6040517f3a70817d00000000000000000000000000000000000000000000000000000000815260040160405180910390fd5b611621677f5b22327590e0ee60c01b61057f565b61163567ff64821a119ac7fd60c01b61057f565b611649676a51959d6bcca74a60c01b61057f565b61165d67cd7c7e6781e7c59a60c01b61057f565b33611672678a584450036e6bc560c01b61057f565b611686672ec241db15387ac460c01b61057f565b61169a67a593865dbf8413a060c01b61057f565b670de0b6b3a76400008173ffffffffffffffffffffffffffffffffffffffff16311161171a576116d467032680fffe7a4f1660c01b61057f565b6116e86754ee283c138a83f660c01b61057f565b6040517f47108e3e00000000000000000000000000000000000000000000000000000000815260040160405180910390fd5b61172e67865f41178dc90e2660c01b61057f565b611742670b2c3b19117c7b2960c01b61057f565b611756672a6e7ad132affab760c01b61057f565b61176a6731786c5c7d86e59f60c01b61057f565b61177e6747437d38104f418360c01b61057f565b61179267772bfe49fce1587c60c01b61057f565b6117a667fc88e31ce071051260c01b61057f565b670de0b6b3a764000034146117f0576040517f08c379a00000000000000000000000000000000000000000000000000000000081526004016117e79061296d565b60405180910390fd5b61180467e7af006c9e78faa360c01b61057f565b61181867bd72337121c3197760c01b61057f565b61182c67da668b72dab8640060c01b61057f565b611840672597e18973413b8e60c01b61057f565b3373ffffffffffffffffffffffffffffffffffffffff16600b60003373ffffffffffffffffffffffffffffffffffffffff1673ffffffffffffffffffffffffffffffffffffffff16815260200190815260200160002060000160009054906101000a900473ffffffffffffffffffffffffffffffffffffffff1673ffffffffffffffffffffffffffffffffffffffff1603611910576040517f08c379a0000000000000000000000000000000000000000000000000000000008152600401611907906129d9565b60405180910390fd5b61192467044e64d632b89cec60c01b61057f565b61193867bce0c21e52c7ec4b60c01b61057f565b61194c67fdbceed259fc897260c01b61057f565b6119563034611dd2565b61196a671f6959b1fa4178fc60c01b61057f565b33600b60003373ffffffffffffffffffffffffffffffffffffffff1673ffffffffffffffffffffffffffffffffffffffff16815260200190815260200160002060000160006101000a81548173ffffffffffffffffffffffffffffffffffffffff021916908373ffffffffffffffffffffffffffffffffffffffff1602179055506119ff677ed7b2361928463360c01b61057f565b60086000815480929190611a129061266d565b919050555050565b600b6020528060005260406000206000915090508060000160009054906101000a900473ffffffffffffffffffffffffffffffffffffffff16908060000160149054906101000a900460ff16908060010154905083565b611a856725fd0b192ceba09060c01b61057f565b611a99673b45b6d8c8b21a2160c01b61057f565b611aad67c294cd6f675050e260c01b61057f565b60006005811115611ac157611ac0612500565b5b826005811115611ad457611ad3612500565b5b03611b0d57611aed676b5f7ae4ac2e8a4d60c01b61057f565b611b0167bea0cc63d6ecd2b960c01b61057f565b80600281905550611dce565b611b2167b45d1608c77f61f360c01b61057f565b611b3567d49ffddfad9bd04a60c01b61057f565b60016005811115611b4957611b48612500565b5b826005811115611b5c57611b5b612500565b5b03611b9557611b7567c5b01b9f08e0d12d60c01b61057f565b611b896714791446cc4ae26060c01b61057f565b80600381905550611dcd565b611ba967f6150d086bf3bd6160c01b61057f565b611bbd67b952b2465288f41060c01b61057f565b60026005811115611bd157611bd0612500565b5b826005811115611be457611be3612500565b5b03611c1d57611bfd67b74f299772cdcd6360c01b61057f565b611c1167ce48930c41dcb73460c01b61057f565b80600481905550611dcc565b611c31678ff0523c7f307fee60c01b61057f565b611c456728be07ecf355ca3760c01b61057f565b60036005811115611c5957611c58612500565b5b826005811115611c6c57611c6b612500565b5b03611ca557611c856722ec0661a33ab84360c01b61057f565b611c99677fad8ca235aaf71b60c01b61057f565b80600581905550611dcb565b611cb967c4532fc54a7a1cbe60c01b61057f565b611ccd6783bf0330e0adc99f60c01b61057f565b60046005811115611ce157611ce0612500565b5b826005811115611cf457611cf3612500565b5b03611d2d57611d0d67719613562946a2ef60c01b61057f565b611d216721a046ff5948754960c01b61057f565b80600181905550611dca565b611d41677093d9b091f0c6c460c01b61057f565b611d55678930747aba7911a160c01b61057f565b600580811115611d6857611d67612500565b5b826005811115611d7b57611d7a612500565b5b03611db457611d946771ea4c20d3122fba60c01b61057f565b611da8675eea24daaac7fcb560c01b61057f565b80600681905550611dc9565b611dc86716e35be17b047a4160c01b61057f565b5b5b5b5b5b5b5050565b611de667ecb67d033aeaee8e60c01b61057f565b611dfa6731d68ed1dc2fd6d060c01b61057f565b611e0e673a5ba3b30351211160c01b61057f565b6000808373ffffffffffffffffffffffffffffffffffffffff1683604051611e3590612a2a565b60006040518083038185875af1925050503d8060008114611e72576040519150601f19603f3d011682016040523d82523d6000602084013e611e77565b606091505b5091509150611e9067de620e88bf45ba8c60c01b61057f565b611ea4674929ce39cd014b7460c01b61057f565b611eb8673e94c73366bb18d460c01b61057f565b81611ef8576040517f08c379a0000000000000000000000000000000000000000000000000000000008152600401611eef90612a8b565b60405180910390fd5b611f0c67b78fb1e308201aa060c01b61057f565b50505050565b600082825260208201905092915050565b7f796f752063616e27742073656e64206c657373207468616e2035306b20776569600082015250565b6000611f59602083611f12565b9150611f6482611f23565b602082019050919050565b60006020820190508181036000830152611f8881611f4c565b9050919050565b600081519050919050565b7f4e487b7100000000000000000000000000000000000000000000000000000000600052604160045260246000fd5b7f4e487b7100000000000000000000000000000000000000000000000000000000600052602260045260246000fd5b6000600282049050600182168061201057607f821691505b60208210810361202357612022611fc9565b5b50919050565b60008190508160005260206000209050919050565b60006020601f8301049050919050565b600082821b905092915050565b60006008830261208b7fffffffffffffffffffffffffffffffffffffffffffffffffffffffffffffffff8261204e565b612095868361204e565b95508019841693508086168417925050509392505050565b6000819050919050565b6000819050919050565b60006120dc6120d76120d2846120ad565b6120b7565b6120ad565b9050919050565b6000819050919050565b6120f6836120c1565b61210a612102826120e3565b84845461205b565b825550505050565b600090565b61211f612112565b61212a8184846120ed565b505050565b5b8181101561214e57612143600082612117565b600181019050612130565b5050565b601f8211156121935761216481612029565b61216d8461203e565b8101602085101561217c578190505b6121906121888561203e565b83018261212f565b50505b505050565b600082821c905092915050565b60006121b660001984600802612198565b1980831691505092915050565b60006121cf83836121a5565b9150826002028217905092915050565b6121e882611f8f565b67ffffffffffffffff81111561220157612200611f9a565b5b61220b8254611ff8565b612216828285612152565b600060209050601f8311600181146122495760008415612237578287015190505b61224185826121c3565b8655506122a9565b601f19841661225786612029565b60005b8281101561227f5784890151825560018201915060208501945060208101905061225a565b8683101561229c5784890151612298601f8916826121a5565b8355505b6001600288020188555050505b505050505050565b600080fd5b600073ffffffffffffffffffffffffffffffffffffffff82169050919050565b60006122e1826122b6565b9050919050565b6122f1816122d6565b81146122fc57600080fd5b50565b60008135905061230e816122e8565b92915050565b60006020828403121561232a576123296122b1565b5b6000612338848285016122ff565b91505092915050565b61234a816120ad565b82525050565b60006020820190506123656000830184612341565b92915050565b6006811061237857600080fd5b50565b60008135905061238a8161236b565b92915050565b612399816120ad565b81146123a457600080fd5b50565b6000813590506123b681612390565b92915050565b600080604083850312156123d3576123d26122b1565b5b60006123e18582860161237b565b92505060206123f2858286016123a7565b9150509250929050565b600060c0820190506124116000830189612341565b61241e6020830188612341565b61242b6040830187612341565b6124386060830186612341565b6124456080830185612341565b61245260a0830184612341565b979650505050505050565b600060208284031215612473576124726122b1565b5b6000612481848285016123a7565b91505092915050565b60008115159050919050565b61249f8161248a565b82525050565b60006020820190506124ba6000830184612496565b92915050565b600080604083850312156124d7576124d66122b1565b5b60006124e5858286016123a7565b92505060206124f6858286016123a7565b9150509250929050565b7f4e487b7100000000000000000000000000000000000000000000000000000000600052602160045260246000fd5b600681106125405761253f612500565b5b50565b60008190506125518261252f565b919050565b600061256182612543565b9050919050565b61257181612556565b82525050565b600060808201905061258c6000830187612568565b6125996020830186612341565b6125a66040830185612341565b6125b36060830184612341565b95945050505050565b6125c5816122d6565b82525050565b60006020820190506125e060008301846125bc565b92915050565b60006125f1826122b6565b9050919050565b612601816125e6565b82525050565b600060608201905061261c60008301866125f8565b6126296020830185612496565b6126366040830184612341565b949350505050565b7f4e487b7100000000000000000000000000000000000000000000000000000000600052601160045260246000fd5b6000612678826120ad565b91507fffffffffffffffffffffffffffffffffffffffffffffffffffffffffffffffff82036126aa576126a961263e565b5b600182019050919050565b7f7573657220616c72656164792065786973740000000000000000000000000000600082015250565b60006126eb601283611f12565b91506126f6826126b5565b602082019050919050565b6000602082019050818103600083015261271a816126de565b9050919050565b600061272c826120ad565b9150612737836120ad565b925082820390508181111561274f5761274e61263e565b5b92915050565b600060408201905061276a60008301856125bc565b6127776020830184612341565b9392505050565b7f616c726561647920766f74656400000000000000000000000000000000000000600082015250565b60006127b4600d83611f12565b91506127bf8261277e565b602082019050919050565b600060208201905081810360008301526127e3816127a7565b9050919050565b60006127f5826120ad565b9150612800836120ad565b925082820261280e816120ad565b915082820484148315176128255761282461263e565b5b5092915050565b7f4e487b7100000000000000000000000000000000000000000000000000000000600052601260045260246000fd5b6000612866826120ad565b9150612871836120ad565b9250826128815761288061282c565b5b828204905092915050565b7f596f7520617265206e6f742076616c696461746f727300000000000000000000600082015250565b60006128c2601683611f12565b91506128cd8261288c565b602082019050919050565b600060208201905081810360008301526128f1816128b5565b9050919050565b6000612903826120ad565b9150600082036129165761291561263e565b5b600182039050919050565b7f73656e6420312065746800000000000000000000000000000000000000000000600082015250565b6000612957600a83611f12565b915061296282612921565b602082019050919050565b600060208201905081810360008301526129868161294a565b9050919050565b7f596f7520616c7265616479206172650000000000000000000000000000000000600082015250565b60006129c3600f83611f12565b91506129ce8261298d565b602082019050919050565b600060208201905081810360008301526129f2816129b6565b9050919050565b600081905092915050565b50565b6000612a146000836129f9565b9150612a1f82612a04565b600082019050919050565b6000612a3582612a07565b9150819050919050565b7f4661696c656420746f2073656e64204574686572000000000000000000000000600082015250565b6000612a75601483611f12565b9150612a8082612a3f565b602082019050919050565b60006020820190508181036000830152612aa481612a68565b905091905056fea26469706673582212206cc3bfcc5b0bc3f7f5cb7ada8ccb6dfaa14212f9f7da3aa3a9aefef640fcc2a364736f6c63430008150033","opcodes":"PUSH1 0x80 PUSH1 0x40 MSTORE PUSH1 0x40 MLOAD DUP1 PUSH1 0x40 ADD PUSH1 0x40 MSTORE DUP1 PUSH1 0xC DUP2 MSTORE PUSH1 0x20 ADD PUSH32 0x6566626C7671687362646C670000000000000000000000000000000000000000 DUP2 MSTORE POP PUSH1 0x0 SWAP1 DUP2 PUSH3 0x4A SWAP2 SWAP1 PUSH3 0x2FC JUMP JUMPDEST POP PUSH1 0x4 PUSH1 0x1 SSTORE PUSH1 0x96 PUSH1 0x2 SSTORE PUSH1 0x32 PUSH1 0x3 SSTORE PUSH1 0x4B PUSH1 0x4 SSTORE PUSH1 0x4B PUSH1 0x5 SSTORE PUSH1 0xA PUSH1 0x6 SSTORE PUSH1 0x1 PUSH1 0x7 SSTORE CALLVALUE DUP1 ISZERO PUSH3 0x7B JUMPI PUSH1 0x0 DUP1 REVERT JUMPDEST POP PUSH3 0x3E3 JUMP JUMPDEST PUSH1 0x0 DUP2 MLOAD SWAP1 POP SWAP2 SWAP1 POP JUMP JUMPDEST PUSH32 0x4E487B7100000000000000000000000000000000000000000000000000000000 PUSH1 0x0 MSTORE PUSH1 0x41 PUSH1 0x4 MSTORE PUSH1 0x24 PUSH1 0x0 REVERT JUMPDEST PUSH32 0x4E487B7100000000000000000000000000000000000000000000000000000000 PUSH1 0x0 MSTORE PUSH1 0x22 PUSH1 0x4 MSTORE PUSH1 0x24 PUSH1 0x0 REVERT JUMPDEST PUSH1 0x0 PUSH1 0x2 DUP3 DIV SWAP1 POP PUSH1 0x1 DUP3 AND DUP1 PUSH3 0x104 JUMPI PUSH1 0x7F DUP3 AND SWAP2 POP JUMPDEST PUSH1 0x20 DUP3 LT DUP2 SUB PUSH3 0x11A JUMPI PUSH3 0x119 PUSH3 0xBC JUMP JUMPDEST JUMPDEST POP SWAP2 SWAP1 POP JUMP JUMPDEST PUSH1 0x0 DUP2 SWAP1 POP DUP2 PUSH1 0x0 MSTORE PUSH1 0x20 PUSH1 0x0 KECCAK256 SWAP1 POP SWAP2 SWAP1 POP JUMP JUMPDEST PUSH1 0x0 PUSH1 0x20 PUSH1 0x1F DUP4 ADD DIV SWAP1 POP SWAP2 SWAP1 POP JUMP JUMPDEST PUSH1 0x0 DUP3 DUP3 SHL SWAP1 POP SWAP3 SWAP2 POP POP JUMP JUMPDEST PUSH1 0x0 PUSH1 0x8 DUP4 MUL PUSH3 0x184 PUSH32 0xFFFFFFFFFFFFFFFFFFFFFFFFFFFFFFFFFFFFFFFFFFFFFFFFFFFFFFFFFFFFFFFF DUP3 PUSH3 0x145 JUMP JUMPDEST PUSH3 0x190 DUP7 DUP4 PUSH3 0x145 JUMP JUMPDEST SWAP6 POP DUP1 NOT DUP5 AND SWAP4 POP DUP1 DUP7 AND DUP5 OR SWAP3 POP POP POP SWAP4 SWAP3 POP POP POP JUMP JUMPDEST PUSH1 0x0 DUP2 SWAP1 POP SWAP2 SWAP1 POP JUMP JUMPDEST PUSH1 0x0 DUP2 SWAP1 POP SWAP2 SWAP1 POP JUMP JUMPDEST PUSH1 0x0 PUSH3 0x1DD PUSH3 0x1D7 PUSH3 0x1D1 DUP5 PUSH3 0x1A8 JUMP JUMPDEST PUSH3 0x1B2 JUMP JUMPDEST PUSH3 0x1A8 JUMP JUMPDEST SWAP1 POP SWAP2 SWAP1 POP JUMP JUMPDEST PUSH1 0x0 DUP2 SWAP1 POP SWAP2 SWAP1 POP JUMP JUMPDEST PUSH3 0x1F9 DUP4 PUSH3 0x1BC JUMP JUMPDEST PUSH3 0x211 PUSH3 0x208 DUP3 PUSH3 0x1E4 JUMP JUMPDEST DUP5 DUP5 SLOAD PUSH3 0x152 JUMP JUMPDEST DUP3 SSTORE POP POP POP POP JUMP JUMPDEST PUSH1 0x0 SWAP1 JUMP JUMPDEST PUSH3 0x228 PUSH3 0x219 JUMP JUMPDEST PUSH3 0x235 DUP2 DUP5 DUP5 PUSH3 0x1EE JUMP JUMPDEST POP POP POP JUMP JUMPDEST JUMPDEST DUP2 DUP2 LT ISZERO PUSH3 0x25D JUMPI PUSH3 0x251 PUSH1 0x0 DUP3 PUSH3 0x21E JUMP JUMPDEST PUSH1 0x1 DUP2 ADD SWAP1 POP PUSH3 0x23B JUMP JUMPDEST POP POP JUMP JUMPDEST PUSH1 0x1F DUP3 GT ISZERO PUSH3 0x2AC JUMPI PUSH3 0x276 DUP2 PUSH3 0x120 JUMP JUMPDEST PUSH3 0x281 DUP5 PUSH3 0x135 JUMP JUMPDEST DUP2 ADD PUSH1 0x20 DUP6 LT ISZERO PUSH3 0x291 JUMPI DUP2 SWAP1 POP JUMPDEST PUSH3 0x2A9 PUSH3 0x2A0 DUP6 PUSH3 0x135 JUMP JUMPDEST DUP4 ADD DUP3 PUSH3 0x23A JUMP JUMPDEST POP POP JUMPDEST POP POP POP JUMP JUMPDEST PUSH1 0x0 DUP3 DUP3 SHR SWAP1 POP SWAP3 SWAP2 POP POP JUMP JUMPDEST PUSH1 0x0 PUSH3 0x2D1 PUSH1 0x0 NOT DUP5 PUSH1 0x8 MUL PUSH3 0x2B1 JUMP JUMPDEST NOT DUP1 DUP4 AND SWAP2 POP POP SWAP3 SWAP2 POP POP JUMP JUMPDEST PUSH1 0x0 PUSH3 0x2EC DUP4 DUP4 PUSH3 0x2BE JUMP JUMPDEST SWAP2 POP DUP3 PUSH1 0x2 MUL DUP3 OR SWAP1 POP SWAP3 SWAP2 POP POP JUMP JUMPDEST PUSH3 0x307 DUP3 PUSH3 0x82 JUMP JUMPDEST PUSH8 0xFFFFFFFFFFFFFFFF DUP2 GT ISZERO PUSH3 0x323 JUMPI PUSH3 0x322 PUSH3 0x8D JUMP JUMPDEST JUMPDEST PUSH3 0x32F DUP3 SLOAD PUSH3 0xEB JUMP JUMPDEST PUSH3 0x33C DUP3 DUP3 DUP6 PUSH3 0x261 JUMP JUMPDEST PUSH1 0x0 PUSH1 0x20 SWAP1 POP PUSH1 0x1F DUP4 GT PUSH1 0x1 DUP2 EQ PUSH3 0x374 JUMPI PUSH1 0x0 DUP5 ISZERO PUSH3 0x35F JUMPI DUP3 DUP8 ADD MLOAD SWAP1 POP JUMPDEST PUSH3 0x36B DUP6 DUP3 PUSH3 0x2DE JUMP JUMPDEST DUP7 SSTORE POP PUSH3 0x3DB JUMP JUMPDEST PUSH1 0x1F NOT DUP5 AND PUSH3 0x384 DUP7 PUSH3 0x120 JUMP JUMPDEST PUSH1 0x0 JUMPDEST DUP3 DUP2 LT ISZERO PUSH3 0x3AE JUMPI DUP5 DUP10 ADD MLOAD DUP3 SSTORE PUSH1 0x1 DUP3 ADD SWAP2 POP PUSH1 0x20 DUP6 ADD SWAP5 POP PUSH1 0x20 DUP2 ADD SWAP1 POP PUSH3 0x387 JUMP JUMPDEST DUP7 DUP4 LT ISZERO PUSH3 0x3CE JUMPI DUP5 DUP10 ADD MLOAD PUSH3 0x3CA PUSH1 0x1F DUP10 AND DUP3 PUSH3 0x2BE JUMP JUMPDEST DUP4 SSTORE POP JUMPDEST PUSH1 0x1 PUSH1 0x2 DUP9 MUL ADD DUP9 SSTORE POP POP POP JUMPDEST POP POP POP POP POP POP JUMP JUMPDEST PUSH2 0x2AE1 DUP1 PUSH3 0x3F3 PUSH1 0x0 CODECOPY PUSH1 0x0 RETURN INVALID PUSH1 0x80 PUSH1 0x40 MSTORE PUSH1 0x4 CALLDATASIZE LT PUSH2 0x123 JUMPI PUSH1 0x0 CALLDATALOAD PUSH1 0xE0 SHR DUP1 PUSH4 0x53DB7E77 GT PUSH2 0xA0 JUMPI DUP1 PUSH4 0x9F4216E8 GT PUSH2 0x64 JUMPI DUP1 PUSH4 0x9F4216E8 EQ PUSH2 0x4C4 JUMPI DUP1 PUSH4 0xC5EE74EB EQ PUSH2 0x501 JUMPI DUP1 PUSH4 0xCB61BD8C EQ PUSH2 0x50B JUMPI DUP1 PUSH4 0xDC070671 EQ PUSH2 0x536 JUMPI DUP1 PUSH4 0xFA52C7D8 EQ PUSH2 0x540 JUMPI PUSH2 0x1AB JUMP JUMPDEST DUP1 PUSH4 0x53DB7E77 EQ PUSH2 0x3DA JUMPI DUP1 PUSH4 0x6694BA61 EQ PUSH2 0x405 JUMPI DUP1 PUSH4 0x72E24FDD EQ PUSH2 0x430 JUMPI DUP1 PUSH4 0x73A8B6C8 EQ PUSH2 0x45B JUMPI DUP1 PUSH4 0x860734FB EQ PUSH2 0x484 JUMPI PUSH2 0x1AB JUMP JUMPDEST DUP1 PUSH4 0x1B2D6A7C GT PUSH2 0xE7 JUMPI DUP1 PUSH4 0x1B2D6A7C EQ PUSH2 0x302 JUMPI DUP1 PUSH4 0x2B4E8413 EQ PUSH2 0x32B JUMPI DUP1 PUSH4 0x455C928C EQ PUSH2 0x356 JUMPI DUP1 PUSH4 0x46123D82 EQ PUSH2 0x36D JUMPI DUP1 PUSH4 0x53241B4F EQ PUSH2 0x39D JUMPI PUSH2 0x1AB JUMP JUMPDEST DUP1 PUSH4 0xB4805D3 EQ PUSH2 0x219 JUMPI DUP1 PUSH4 0xB85000D EQ PUSH2 0x256 JUMPI DUP1 PUSH4 0xED337AD EQ PUSH2 0x281 JUMPI DUP1 PUSH4 0x139F29A1 EQ PUSH2 0x2AC JUMPI DUP1 PUSH4 0x194A4E7E EQ PUSH2 0x2D7 JUMPI PUSH2 0x1AB JUMP JUMPDEST CALLDATASIZE PUSH2 0x1AB JUMPI PUSH2 0x13C PUSH8 0x81553AF48258A79D PUSH1 0xC0 SHL PUSH2 0x57F JUMP JUMPDEST PUSH2 0x150 PUSH8 0xE471CB8257F5F580 PUSH1 0xC0 SHL PUSH2 0x57F JUMP JUMPDEST PUSH2 0xC350 CALLVALUE LT ISZERO PUSH2 0x195 JUMPI PUSH1 0x40 MLOAD PUSH32 0x8C379A000000000000000000000000000000000000000000000000000000000 DUP2 MSTORE PUSH1 0x4 ADD PUSH2 0x18C SWAP1 PUSH2 0x1F6F JUMP JUMPDEST PUSH1 0x40 MLOAD DUP1 SWAP2 SUB SWAP1 REVERT JUMPDEST PUSH2 0x1A9 PUSH8 0x7150C45EEB099ADF PUSH1 0xC0 SHL PUSH2 0x57F JUMP JUMPDEST STOP JUMPDEST PUSH2 0x1BF PUSH8 0x67B6FA987BAD051B PUSH1 0xC0 SHL PUSH2 0x57F JUMP JUMPDEST PUSH2 0x1D3 PUSH8 0x75D5FF581820243F PUSH1 0xC0 SHL PUSH2 0x57F JUMP JUMPDEST PUSH1 0x40 MLOAD DUP1 PUSH1 0x40 ADD PUSH1 0x40 MSTORE DUP1 PUSH1 0x1E DUP2 MSTORE PUSH1 0x20 ADD PUSH32 0x46616C6C6261636B2066756E6374696F6E206973206578656375746564210000 DUP2 MSTORE POP PUSH1 0x0 SWAP1 DUP2 PUSH2 0x217 SWAP2 SWAP1 PUSH2 0x21DF JUMP JUMPDEST STOP JUMPDEST CALLVALUE DUP1 ISZERO PUSH2 0x225 JUMPI PUSH1 0x0 DUP1 REVERT JUMPDEST POP PUSH2 0x240 PUSH1 0x4 DUP1 CALLDATASIZE SUB DUP2 ADD SWAP1 PUSH2 0x23B SWAP2 SWAP1 PUSH2 0x2314 JUMP JUMPDEST PUSH2 0x582 JUMP JUMPDEST PUSH1 0x40 MLOAD PUSH2 0x24D SWAP2 SWAP1 PUSH2 0x2350 JUMP JUMPDEST PUSH1 0x40 MLOAD DUP1 SWAP2 SUB SWAP1 RETURN JUMPDEST CALLVALUE DUP1 ISZERO PUSH2 0x262 JUMPI PUSH1 0x0 DUP1 REVERT JUMPDEST POP PUSH2 0x26B PUSH2 0x59A JUMP JUMPDEST PUSH1 0x40 MLOAD PUSH2 0x278 SWAP2 SWAP1 PUSH2 0x2350 JUMP JUMPDEST PUSH1 0x40 MLOAD DUP1 SWAP2 SUB SWAP1 RETURN JUMPDEST CALLVALUE DUP1 ISZERO PUSH2 0x28D JUMPI PUSH1 0x0 DUP1 REVERT JUMPDEST POP PUSH2 0x296 PUSH2 0x5A0 JUMP JUMPDEST PUSH1 0x40 MLOAD PUSH2 0x2A3 SWAP2 SWAP1 PUSH2 0x2350 JUMP JUMPDEST PUSH1 0x40 MLOAD DUP1 SWAP2 SUB SWAP1 RETURN JUMPDEST CALLVALUE DUP1 ISZERO PUSH2 0x2B8 JUMPI PUSH1 0x0 DUP1 REVERT JUMPDEST POP PUSH2 0x2C1 PUSH2 0x5A6 JUMP JUMPDEST PUSH1 0x40 MLOAD PUSH2 0x2CE SWAP2 SWAP1 PUSH2 0x2350 JUMP JUMPDEST PUSH1 0x40 MLOAD DUP1 SWAP2 SUB SWAP1 RETURN JUMPDEST CALLVALUE DUP1 ISZERO PUSH2 0x2E3 JUMPI PUSH1 0x0 DUP1 REVERT JUMPDEST POP PUSH2 0x2EC PUSH2 0x5AC JUMP JUMPDEST PUSH1 0x40 MLOAD PUSH2 0x2F9 SWAP2 SWAP1 PUSH2 0x2350 JUMP JUMPDEST PUSH1 0x40 MLOAD DUP1 SWAP2 SUB SWAP1 RETURN JUMPDEST CALLVALUE DUP1 ISZERO PUSH2 0x30E JUMPI PUSH1 0x0 DUP1 REVERT JUMPDEST POP PUSH2 0x329 PUSH1 0x4 DUP1 CALLDATASIZE SUB DUP2 ADD SWAP1 PUSH2 0x324 SWAP2 SWAP1 PUSH2 0x23BC JUMP JUMPDEST PUSH2 0x5B2 JUMP JUMPDEST STOP JUMPDEST CALLVALUE DUP1 ISZERO PUSH2 0x337 JUMPI PUSH1 0x0 DUP1 REVERT JUMPDEST POP PUSH2 0x340 PUSH2 0x7DE JUMP JUMPDEST PUSH1 0x40 MLOAD PUSH2 0x34D SWAP2 SWAP1 PUSH2 0x2350 JUMP JUMPDEST PUSH1 0x40 MLOAD DUP1 SWAP2 SUB SWAP1 RETURN JUMPDEST CALLVALUE DUP1 ISZERO PUSH2 0x362 JUMPI PUSH1 0x0 DUP1 REVERT JUMPDEST POP PUSH2 0x36B PUSH2 0x7E4 JUMP JUMPDEST STOP JUMPDEST CALLVALUE DUP1 ISZERO PUSH2 0x379 JUMPI PUSH1 0x0 DUP1 REVERT JUMPDEST POP PUSH2 0x382 PUSH2 0xA11 JUMP JUMPDEST PUSH1 0x40 MLOAD PUSH2 0x394 SWAP7 SWAP6 SWAP5 SWAP4 SWAP3 SWAP2 SWAP1 PUSH2 0x23FC JUMP JUMPDEST PUSH1 0x40 MLOAD DUP1 SWAP2 SUB SWAP1 RETURN JUMPDEST CALLVALUE DUP1 ISZERO PUSH2 0x3A9 JUMPI PUSH1 0x0 DUP1 REVERT JUMPDEST POP PUSH2 0x3C4 PUSH1 0x4 DUP1 CALLDATASIZE SUB DUP2 ADD SWAP1 PUSH2 0x3BF SWAP2 SWAP1 PUSH2 0x245D JUMP JUMPDEST PUSH2 0xA7C JUMP JUMPDEST PUSH1 0x40 MLOAD PUSH2 0x3D1 SWAP2 SWAP1 PUSH2 0x24A5 JUMP JUMPDEST PUSH1 0x40 MLOAD DUP1 SWAP2 SUB SWAP1 RETURN JUMPDEST CALLVALUE DUP1 ISZERO PUSH2 0x3E6 JUMPI PUSH1 0x0 DUP1 REVERT JUMPDEST POP PUSH2 0x3EF PUSH2 0xB22 JUMP JUMPDEST PUSH1 0x40 MLOAD PUSH2 0x3FC SWAP2 SWAP1 PUSH2 0x2350 JUMP JUMPDEST PUSH1 0x40 MLOAD DUP1 SWAP2 SUB SWAP1 RETURN JUMPDEST CALLVALUE DUP1 ISZERO PUSH2 0x411 JUMPI PUSH1 0x0 DUP1 REVERT JUMPDEST POP PUSH2 0x41A PUSH2 0xB28 JUMP JUMPDEST PUSH1 0x40 MLOAD PUSH2 0x427 SWAP2 SWAP1 PUSH2 0x2350 JUMP JUMPDEST PUSH1 0x40 MLOAD DUP1 SWAP2 SUB SWAP1 RETURN JUMPDEST CALLVALUE DUP1 ISZERO PUSH2 0x43C JUMPI PUSH1 0x0 DUP1 REVERT JUMPDEST POP PUSH2 0x445 PUSH2 0xB2E JUMP JUMPDEST PUSH1 0x40 MLOAD PUSH2 0x452 SWAP2 SWAP1 PUSH2 0x2350 JUMP JUMPDEST PUSH1 0x40 MLOAD DUP1 SWAP2 SUB SWAP1 RETURN JUMPDEST CALLVALUE DUP1 ISZERO PUSH2 0x467 JUMPI PUSH1 0x0 DUP1 REVERT JUMPDEST POP PUSH2 0x482 PUSH1 0x4 DUP1 CALLDATASIZE SUB DUP2 ADD SWAP1 PUSH2 0x47D SWAP2 SWAP1 PUSH2 0x24C0 JUMP JUMPDEST PUSH2 0xB34 JUMP JUMPDEST STOP JUMPDEST CALLVALUE DUP1 ISZERO PUSH2 0x490 JUMPI PUSH1 0x0 DUP1 REVERT JUMPDEST POP PUSH2 0x4AB PUSH1 0x4 DUP1 CALLDATASIZE SUB DUP2 ADD SWAP1 PUSH2 0x4A6 SWAP2 SWAP1 PUSH2 0x245D JUMP JUMPDEST PUSH2 0x1138 JUMP JUMPDEST PUSH1 0x40 MLOAD PUSH2 0x4BB SWAP5 SWAP4 SWAP3 SWAP2 SWAP1 PUSH2 0x2577 JUMP JUMPDEST PUSH1 0x40 MLOAD DUP1 SWAP2 SUB SWAP1 RETURN JUMPDEST CALLVALUE DUP1 ISZERO PUSH2 0x4D0 JUMPI PUSH1 0x0 DUP1 REVERT JUMPDEST POP PUSH2 0x4EB PUSH1 0x4 DUP1 CALLDATASIZE SUB DUP2 ADD SWAP1 PUSH2 0x4E6 SWAP2 SWAP1 PUSH2 0x245D JUMP JUMPDEST PUSH2 0x1175 JUMP JUMPDEST PUSH1 0x40 MLOAD PUSH2 0x4F8 SWAP2 SWAP1 PUSH2 0x25CB JUMP JUMPDEST PUSH1 0x40 MLOAD DUP1 SWAP2 SUB SWAP1 RETURN JUMPDEST PUSH2 0x509 PUSH2 0x11A8 JUMP JUMPDEST STOP JUMPDEST CALLVALUE DUP1 ISZERO PUSH2 0x517 JUMPI PUSH1 0x0 DUP1 REVERT JUMPDEST POP PUSH2 0x520 PUSH2 0x1516 JUMP JUMPDEST PUSH1 0x40 MLOAD PUSH2 0x52D SWAP2 SWAP1 PUSH2 0x2350 JUMP JUMPDEST PUSH1 0x40 MLOAD DUP1 SWAP2 SUB SWAP1 RETURN JUMPDEST PUSH2 0x53E PUSH2 0x151C JUMP JUMPDEST STOP JUMPDEST CALLVALUE DUP1 ISZERO PUSH2 0x54C JUMPI PUSH1 0x0 DUP1 REVERT JUMPDEST POP PUSH2 0x567 PUSH1 0x4 DUP1 CALLDATASIZE SUB DUP2 ADD SWAP1 PUSH2 0x562 SWAP2 SWAP1 PUSH2 0x2314 JUMP JUMPDEST PUSH2 0x1A1A JUMP JUMPDEST PUSH1 0x40 MLOAD PUSH2 0x576 SWAP4 SWAP3 SWAP2 SWAP1 PUSH2 0x2607 JUMP JUMPDEST PUSH1 0x40 MLOAD DUP1 SWAP2 SUB SWAP1 RETURN JUMPDEST POP JUMP JUMPDEST PUSH1 0xD PUSH1 0x20 MSTORE DUP1 PUSH1 0x0 MSTORE PUSH1 0x40 PUSH1 0x0 KECCAK256 PUSH1 0x0 SWAP2 POP SWAP1 POP SLOAD DUP2 JUMP JUMPDEST PUSH1 0x4 SLOAD DUP2 JUMP JUMPDEST PUSH1 0x9 SLOAD DUP2 JUMP JUMPDEST PUSH1 0x8 SLOAD DUP2 JUMP JUMPDEST PUSH1 0x2 SLOAD DUP2 JUMP JUMPDEST PUSH2 0x5C6 PUSH8 0xE39919AC5ADC293E PUSH1 0xC0 SHL PUSH2 0x57F JUMP JUMPDEST PUSH2 0x5DA PUSH8 0xC39E01F2E81A64ED PUSH1 0xC0 SHL PUSH2 0x57F JUMP JUMPDEST PUSH2 0x5EE PUSH8 0x1093C09D48D5C07D PUSH1 0xC0 SHL PUSH2 0x57F JUMP JUMPDEST PUSH2 0x602 PUSH8 0x166918ECB4389237 PUSH1 0xC0 SHL PUSH2 0x57F JUMP JUMPDEST CALLER PUSH20 0xFFFFFFFFFFFFFFFFFFFFFFFFFFFFFFFFFFFFFFFF AND PUSH1 0xB PUSH1 0x0 CALLER PUSH20 0xFFFFFFFFFFFFFFFFFFFFFFFFFFFFFFFFFFFFFFFF AND PUSH20 0xFFFFFFFFFFFFFFFFFFFFFFFFFFFFFFFFFFFFFFFF AND DUP2 MSTORE PUSH1 0x20 ADD SWAP1 DUP2 MSTORE PUSH1 0x20 ADD PUSH1 0x0 KECCAK256 PUSH1 0x0 ADD PUSH1 0x0 SWAP1 SLOAD SWAP1 PUSH2 0x100 EXP SWAP1 DIV PUSH20 0xFFFFFFFFFFFFFFFFFFFFFFFFFFFFFFFFFFFFFFFF AND PUSH20 0xFFFFFFFFFFFFFFFFFFFFFFFFFFFFFFFFFFFFFFFF AND EQ PUSH2 0x6F1 JUMPI PUSH2 0x6AB PUSH8 0xCD217B5D4B23F23E PUSH1 0xC0 SHL PUSH2 0x57F JUMP JUMPDEST PUSH2 0x6BF PUSH8 0x6FC06E684A128EAC PUSH1 0xC0 SHL PUSH2 0x57F JUMP JUMPDEST PUSH1 0x40 MLOAD PUSH32 0xEC752D2A00000000000000000000000000000000000000000000000000000000 DUP2 MSTORE PUSH1 0x4 ADD PUSH1 0x40 MLOAD DUP1 SWAP2 SUB SWAP1 REVERT JUMPDEST PUSH2 0x705 PUSH8 0x205E7C71082503B PUSH1 0xC0 SHL PUSH2 0x57F JUMP JUMPDEST PUSH2 0x719 PUSH8 0x5FD384B70E0F1A40 PUSH1 0xC0 SHL PUSH2 0x57F JUMP JUMPDEST PUSH2 0x72D PUSH8 0xE49AFF096070294C PUSH1 0xC0 SHL PUSH2 0x57F JUMP JUMPDEST PUSH2 0x741 PUSH8 0x7EE2475F26336675 PUSH1 0xC0 SHL PUSH2 0x57F JUMP JUMPDEST PUSH2 0x755 PUSH8 0x4F7648FF0F91DECE PUSH1 0xC0 SHL PUSH2 0x57F JUMP JUMPDEST DUP2 PUSH1 0xA PUSH1 0x0 PUSH1 0x9 SLOAD DUP2 MSTORE PUSH1 0x20 ADD SWAP1 DUP2 MSTORE PUSH1 0x20 ADD PUSH1 0x0 KECCAK256 PUSH1 0x0 ADD PUSH1 0x0 PUSH2 0x100 EXP DUP2 SLOAD DUP2 PUSH1 0xFF MUL NOT AND SWAP1 DUP4 PUSH1 0x5 DUP2 GT ISZERO PUSH2 0x790 JUMPI PUSH2 0x78F PUSH2 0x2500 JUMP JUMPDEST JUMPDEST MUL OR SWAP1 SSTORE POP PUSH2 0x7A9 PUSH8 0xB5A6799EAEDBE0C6 PUSH1 0xC0 SHL PUSH2 0x57F JUMP JUMPDEST DUP1 PUSH1 0xA PUSH1 0x0 PUSH1 0x9 PUSH1 0x0 DUP2 SLOAD DUP1 SWAP3 SWAP2 SWAP1 PUSH2 0x7C1 SWAP1 PUSH2 0x266D JUMP JUMPDEST SWAP2 SWAP1 POP SSTORE DUP2 MSTORE PUSH1 0x20 ADD SWAP1 DUP2 MSTORE PUSH1 0x20 ADD PUSH1 0x0 KECCAK256 PUSH1 0x3 ADD DUP2 SWAP1 SSTORE POP POP POP JUMP JUMPDEST PUSH1 0x7 SLOAD DUP2 JUMP JUMPDEST PUSH2 0x7F8 PUSH8 0x86B748461BEAE528 PUSH1 0xC0 SHL PUSH2 0x57F JUMP JUMPDEST PUSH2 0x80C PUSH8 0xDEFAABF061D76979 PUSH1 0xC0 SHL PUSH2 0x57F JUMP JUMPDEST PUSH2 0x820 PUSH8 0xB1C95CADFCA16D90 PUSH1 0xC0 SHL PUSH2 0x57F JUMP JUMPDEST PUSH2 0x834 PUSH8 0xE8400DB039B434A1 PUSH1 0xC0 SHL PUSH2 0x57F JUMP JUMPDEST PUSH1 0x0 PUSH1 0xD PUSH1 0x0 CALLER PUSH20 0xFFFFFFFFFFFFFFFFFFFFFFFFFFFFFFFFFFFFFFFF AND PUSH20 0xFFFFFFFFFFFFFFFFFFFFFFFFFFFFFFFFFFFFFFFF AND DUP2 MSTORE PUSH1 0x20 ADD SWAP1 DUP2 MSTORE PUSH1 0x20 ADD PUSH1 0x0 KECCAK256 SLOAD EQ PUSH2 0x8B6 JUMPI PUSH1 0x40 MLOAD PUSH32 0x8C379A000000000000000000000000000000000000000000000000000000000 DUP2 MSTORE PUSH1 0x4 ADD PUSH2 0x8AD SWAP1 PUSH2 0x2701 JUMP JUMPDEST PUSH1 0x40 MLOAD DUP1 SWAP2 SUB SWAP1 REVERT JUMPDEST PUSH2 0x8CA PUSH8 0x83B866A296818562 PUSH1 0xC0 SHL PUSH2 0x57F JUMP JUMPDEST PUSH2 0x8DE PUSH8 0x88D72CFDAB712AF7 PUSH1 0xC0 SHL PUSH2 0x57F JUMP JUMPDEST PUSH1 0x7 SLOAD PUSH1 0xD PUSH1 0x0 CALLER PUSH20 0xFFFFFFFFFFFFFFFFFFFFFFFFFFFFFFFFFFFFFFFF AND PUSH20 0xFFFFFFFFFFFFFFFFFFFFFFFFFFFFFFFFFFFFFFFF AND DUP2 MSTORE PUSH1 0x20 ADD SWAP1 DUP2 MSTORE PUSH1 0x20 ADD PUSH1 0x0 KECCAK256 DUP2 SWAP1 SSTORE POP PUSH2 0x938 PUSH8 0x8154BA973FE6229A PUSH1 0xC0 SHL PUSH2 0x57F JUMP JUMPDEST CALLER PUSH1 0xC PUSH1 0x0 PUSH1 0x7 PUSH1 0x0 DUP2 SLOAD DUP1 SWAP3 SWAP2 SWAP1 PUSH2 0x950 SWAP1 PUSH2 0x266D JUMP JUMPDEST SWAP2 SWAP1 POP SSTORE DUP2 MSTORE PUSH1 0x20 ADD SWAP1 DUP2 MSTORE PUSH1 0x20 ADD PUSH1 0x0 KECCAK256 PUSH1 0x0 PUSH2 0x100 EXP DUP2 SLOAD DUP2 PUSH20 0xFFFFFFFFFFFFFFFFFFFFFFFFFFFFFFFFFFFFFFFF MUL NOT AND SWAP1 DUP4 PUSH20 0xFFFFFFFFFFFFFFFFFFFFFFFFFFFFFFFFFFFFFFFF AND MUL OR SWAP1 SSTORE POP PUSH2 0x9B4 PUSH8 0x8904270491A295C3 PUSH1 0xC0 SHL PUSH2 0x57F JUMP JUMPDEST PUSH2 0x9C8 PUSH8 0x2F7F66551C7FEB59 PUSH1 0xC0 SHL PUSH2 0x57F JUMP JUMPDEST PUSH32 0xF9AC505B144A1879609B52F02D3441E478CDD9C19C5D198A2712AC5184ECEF67 CALLER PUSH1 0x1 PUSH1 0x7 SLOAD PUSH2 0x9F9 SWAP2 SWAP1 PUSH2 0x2721 JUMP JUMPDEST PUSH1 0x40 MLOAD PUSH2 0xA07 SWAP3 SWAP2 SWAP1 PUSH2 0x2755 JUMP JUMPDEST PUSH1 0x40 MLOAD DUP1 SWAP2 SUB SWAP1 LOG1 JUMP JUMPDEST PUSH1 0x0 DUP1 PUSH1 0x0 DUP1 PUSH1 0x0 DUP1 PUSH2 0xA2E PUSH8 0x2B662B167F28C688 PUSH1 0xC0 SHL PUSH2 0x57F JUMP JUMPDEST PUSH2 0xA42 PUSH8 0xED4B423ED24A8C5F PUSH1 0xC0 SHL PUSH2 0x57F JUMP JUMPDEST PUSH2 0xA56 PUSH8 0x8F0D8E2AEF8735FD PUSH1 0xC0 SHL PUSH2 0x57F JUMP JUMPDEST PUSH1 0x1 SLOAD PUSH1 0x2 SLOAD PUSH1 0x3 SLOAD PUSH1 0x4 SLOAD PUSH1 0x5 SLOAD PUSH1 0x6 SLOAD SWAP6 POP SWAP6 POP SWAP6 POP SWAP6 POP SWAP6 POP SWAP6 POP SWAP1 SWAP2 SWAP3 SWAP4 SWAP5 SWAP6 JUMP JUMPDEST PUSH1 0x0 PUSH2 0xA92 PUSH8 0x5DBBF65B127543B6 PUSH1 0xC0 SHL PUSH2 0x57F JUMP JUMPDEST PUSH2 0xAA6 PUSH8 0x4752488FE3331D27 PUSH1 0xC0 SHL PUSH2 0x57F JUMP JUMPDEST PUSH2 0xABA PUSH8 0x43DFE1DF271F9CA7 PUSH1 0xC0 SHL PUSH2 0x57F JUMP JUMPDEST PUSH1 0xA PUSH1 0x0 DUP4 DUP2 MSTORE PUSH1 0x20 ADD SWAP1 DUP2 MSTORE PUSH1 0x20 ADD PUSH1 0x0 KECCAK256 PUSH1 0x4 ADD PUSH1 0x0 CALLER PUSH20 0xFFFFFFFFFFFFFFFFFFFFFFFFFFFFFFFFFFFFFFFF AND PUSH20 0xFFFFFFFFFFFFFFFFFFFFFFFFFFFFFFFFFFFFFFFF AND DUP2 MSTORE PUSH1 0x20 ADD SWAP1 DUP2 MSTORE PUSH1 0x20 ADD PUSH1 0x0 KECCAK256 PUSH1 0x0 SWAP1 SLOAD SWAP1 PUSH2 0x100 EXP SWAP1 DIV PUSH1 0xFF AND SWAP1 POP SWAP2 SWAP1 POP JUMP JUMPDEST PUSH1 0x1 SLOAD DUP2 JUMP JUMPDEST PUSH1 0x3 SLOAD DUP2 JUMP JUMPDEST PUSH1 0x6 SLOAD DUP2 JUMP JUMPDEST PUSH2 0xB48 PUSH8 0x1C93FD326444BD4 PUSH1 0xC0 SHL PUSH2 0x57F JUMP JUMPDEST PUSH2 0xB5C PUSH8 0xC39E01F2E81A64ED PUSH1 0xC0 SHL PUSH2 0x57F JUMP JUMPDEST PUSH2 0xB70 PUSH8 0x1093C09D48D5C07D PUSH1 0xC0 SHL PUSH2 0x57F JUMP JUMPDEST PUSH2 0xB84 PUSH8 0x166918ECB4389237 PUSH1 0xC0 SHL PUSH2 0x57F JUMP JUMPDEST CALLER PUSH20 0xFFFFFFFFFFFFFFFFFFFFFFFFFFFFFFFFFFFFFFFF AND PUSH1 0xB PUSH1 0x0 CALLER PUSH20 0xFFFFFFFFFFFFFFFFFFFFFFFFFFFFFFFFFFFFFFFF AND PUSH20 0xFFFFFFFFFFFFFFFFFFFFFFFFFFFFFFFFFFFFFFFF AND DUP2 MSTORE PUSH1 0x20 ADD SWAP1 DUP2 MSTORE PUSH1 0x20 ADD PUSH1 0x0 KECCAK256 PUSH1 0x0 ADD PUSH1 0x0 SWAP1 SLOAD SWAP1 PUSH2 0x100 EXP SWAP1 DIV PUSH20 0xFFFFFFFFFFFFFFFFFFFFFFFFFFFFFFFFFFFFFFFF AND PUSH20 0xFFFFFFFFFFFFFFFFFFFFFFFFFFFFFFFFFFFFFFFF AND EQ PUSH2 0xC73 JUMPI PUSH2 0xC2D PUSH8 0xCD217B5D4B23F23E PUSH1 0xC0 SHL PUSH2 0x57F JUMP JUMPDEST PUSH2 0xC41 PUSH8 0x6FC06E684A128EAC PUSH1 0xC0 SHL PUSH2 0x57F JUMP JUMPDEST PUSH1 0x40 MLOAD PUSH32 0xEC752D2A00000000000000000000000000000000000000000000000000000000 DUP2 MSTORE PUSH1 0x4 ADD PUSH1 0x40 MLOAD DUP1 SWAP2 SUB SWAP1 REVERT JUMPDEST PUSH2 0xC87 PUSH8 0x205E7C71082503B PUSH1 0xC0 SHL PUSH2 0x57F JUMP JUMPDEST PUSH2 0xC9B PUSH8 0x5FD384B70E0F1A40 PUSH1 0xC0 SHL PUSH2 0x57F JUMP JUMPDEST PUSH2 0xCAF PUSH8 0xA848FBD2B7E9AD74 PUSH1 0xC0 SHL PUSH2 0x57F JUMP JUMPDEST PUSH2 0xCC3 PUSH8 0x1B75AE5AAF556CAF PUSH1 0xC0 SHL PUSH2 0x57F JUMP JUMPDEST PUSH2 0xCD7 PUSH8 0xE66B1F7ADD597524 PUSH1 0xC0 SHL PUSH2 0x57F JUMP JUMPDEST PUSH2 0xCEB PUSH8 0xC6DC24B1B3E37261 PUSH1 0xC0 SHL PUSH2 0x57F JUMP JUMPDEST PUSH2 0xCFF PUSH8 0x794F7C57815F2155 PUSH1 0xC0 SHL PUSH2 0x57F JUMP JUMPDEST PUSH1 0x0 ISZERO ISZERO PUSH1 0xA PUSH1 0x0 DUP5 DUP2 MSTORE PUSH1 0x20 ADD SWAP1 DUP2 MSTORE PUSH1 0x20 ADD PUSH1 0x0 KECCAK256 PUSH1 0x4 ADD PUSH1 0x0 CALLER PUSH20 0xFFFFFFFFFFFFFFFFFFFFFFFFFFFFFFFFFFFFFFFF AND PUSH20 0xFFFFFFFFFFFFFFFFFFFFFFFFFFFFFFFFFFFFFFFF AND DUP2 MSTORE PUSH1 0x20 ADD SWAP1 DUP2 MSTORE PUSH1 0x20 ADD PUSH1 0x0 KECCAK256 PUSH1 0x0 SWAP1 SLOAD SWAP1 PUSH2 0x100 EXP SWAP1 DIV PUSH1 0xFF AND ISZERO ISZERO EQ PUSH2 0xDA6 JUMPI PUSH1 0x40 MLOAD PUSH32 0x8C379A000000000000000000000000000000000000000000000000000000000 DUP2 MSTORE PUSH1 0x4 ADD PUSH2 0xD9D SWAP1 PUSH2 0x27CA JUMP JUMPDEST PUSH1 0x40 MLOAD DUP1 SWAP2 SUB SWAP1 REVERT JUMPDEST PUSH2 0xDBA PUSH8 0x8C61AFC21F3C9299 PUSH1 0xC0 SHL PUSH2 0x57F JUMP JUMPDEST PUSH2 0xDCE PUSH8 0xB8B386F9D4DD07EA PUSH1 0xC0 SHL PUSH2 0x57F JUMP JUMPDEST PUSH2 0xDE2 PUSH8 0xB5CB6B893D80AB71 PUSH1 0xC0 SHL PUSH2 0x57F JUMP JUMPDEST PUSH1 0x1 DUP2 SUB PUSH2 0xE43 JUMPI PUSH2 0xDFE PUSH8 0x4D3910F0BB780E3B PUSH1 0xC0 SHL PUSH2 0x57F JUMP JUMPDEST PUSH2 0xE12 PUSH8 0x7D362880EEADA7E7 PUSH1 0xC0 SHL PUSH2 0x57F JUMP JUMPDEST PUSH1 0xA PUSH1 0x0 DUP4 DUP2 MSTORE PUSH1 0x20 ADD SWAP1 DUP2 MSTORE PUSH1 0x20 ADD PUSH1 0x0 KECCAK256 PUSH1 0x1 ADD PUSH1 0x0 DUP2 SLOAD DUP1 SWAP3 SWAP2 SWAP1 PUSH2 0xE39 SWAP1 PUSH2 0x266D JUMP JUMPDEST SWAP2 SWAP1 POP SSTORE POP PUSH2 0xEE2 JUMP JUMPDEST PUSH2 0xE57 PUSH8 0xC073C9F5441AC58E PUSH1 0xC0 SHL PUSH2 0x57F JUMP JUMPDEST PUSH2 0xE6B PUSH8 0x39D3C8D7CECD0F91 PUSH1 0xC0 SHL PUSH2 0x57F JUMP JUMPDEST PUSH1 0x2 DUP2 SUB PUSH2 0xECC JUMPI PUSH2 0xE87 PUSH8 0x65962366134DFD54 PUSH1 0xC0 SHL PUSH2 0x57F JUMP JUMPDEST PUSH2 0xE9B PUSH8 0x2F04A550496904FC PUSH1 0xC0 SHL PUSH2 0x57F JUMP JUMPDEST PUSH1 0xA PUSH1 0x0 DUP4 DUP2 MSTORE PUSH1 0x20 ADD SWAP1 DUP2 MSTORE PUSH1 0x20 ADD PUSH1 0x0 KECCAK256 PUSH1 0x2 ADD PUSH1 0x0 DUP2 SLOAD DUP1 SWAP3 SWAP2 SWAP1 PUSH2 0xEC2 SWAP1 PUSH2 0x266D JUMP JUMPDEST SWAP2 SWAP1 POP SSTORE POP PUSH2 0xEE1 JUMP JUMPDEST PUSH2 0xEE0 PUSH8 0xD463FFD912FBA0A4 PUSH1 0xC0 SHL PUSH2 0x57F JUMP JUMPDEST JUMPDEST JUMPDEST PUSH2 0xEF6 PUSH8 0xAA2DFB23BAE8DF4B PUSH1 0xC0 SHL PUSH2 0x57F JUMP JUMPDEST PUSH1 0x1 PUSH1 0xA PUSH1 0x0 DUP5 DUP2 MSTORE PUSH1 0x20 ADD SWAP1 DUP2 MSTORE PUSH1 0x20 ADD PUSH1 0x0 KECCAK256 PUSH1 0x4 ADD PUSH1 0x0 CALLER PUSH20 0xFFFFFFFFFFFFFFFFFFFFFFFFFFFFFFFFFFFFFFFF AND PUSH20 0xFFFFFFFFFFFFFFFFFFFFFFFFFFFFFFFFFFFFFFFF AND DUP2 MSTORE PUSH1 0x20 ADD SWAP1 DUP2 MSTORE PUSH1 0x20 ADD PUSH1 0x0 KECCAK256 PUSH1 0x0 PUSH2 0x100 EXP DUP2 SLOAD DUP2 PUSH1 0xFF MUL NOT AND SWAP1 DUP4 ISZERO ISZERO MUL OR SWAP1 SSTORE POP PUSH2 0xF76 PUSH8 0xEDA05CF104AA14BF PUSH1 0xC0 SHL PUSH2 0x57F JUMP JUMPDEST PUSH2 0xF8A PUSH8 0x7E7EFB95DD36DECB PUSH1 0xC0 SHL PUSH2 0x57F JUMP JUMPDEST PUSH1 0x5 SLOAD PUSH1 0x8 SLOAD PUSH1 0x64 PUSH1 0xA PUSH1 0x0 DUP7 DUP2 MSTORE PUSH1 0x20 ADD SWAP1 DUP2 MSTORE PUSH1 0x20 ADD PUSH1 0x0 KECCAK256 PUSH1 0x1 ADD SLOAD PUSH2 0xFB3 SWAP2 SWAP1 PUSH2 0x27EA JUMP JUMPDEST PUSH2 0xFBD SWAP2 SWAP1 PUSH2 0x285B JUMP JUMPDEST LT PUSH2 0x1046 JUMPI PUSH2 0xFD6 PUSH8 0x6E46CF4E27FCE8C4 PUSH1 0xC0 SHL PUSH2 0x57F JUMP JUMPDEST PUSH2 0xFEA PUSH8 0x4EE6FE4B92E54B56 PUSH1 0xC0 SHL PUSH2 0x57F JUMP JUMPDEST PUSH2 0xFFE PUSH8 0xBE30A162B350931E PUSH1 0xC0 SHL PUSH2 0x57F JUMP JUMPDEST PUSH2 0x1041 PUSH1 0xA PUSH1 0x0 DUP5 DUP2 MSTORE PUSH1 0x20 ADD SWAP1 DUP2 MSTORE PUSH1 0x20 ADD PUSH1 0x0 KECCAK256 PUSH1 0x0 ADD PUSH1 0x0 SWAP1 SLOAD SWAP1 PUSH2 0x100 EXP SWAP1 DIV PUSH1 0xFF AND PUSH1 0xA PUSH1 0x0 DUP6 DUP2 MSTORE PUSH1 0x20 ADD SWAP1 DUP2 MSTORE PUSH1 0x20 ADD PUSH1 0x0 KECCAK256 PUSH1 0x3 ADD SLOAD PUSH2 0x1A71 JUMP JUMPDEST PUSH2 0x1134 JUMP JUMPDEST PUSH2 0x105A PUSH8 0x8A21E7652CA01847 PUSH1 0xC0 SHL PUSH2 0x57F JUMP JUMPDEST PUSH2 0x106E PUSH8 0xFB32A6C10284CBA PUSH1 0xC0 SHL PUSH2 0x57F JUMP JUMPDEST PUSH1 0x5 SLOAD PUSH1 0x8 SLOAD PUSH1 0x64 PUSH1 0xA PUSH1 0x0 DUP7 DUP2 MSTORE PUSH1 0x20 ADD SWAP1 DUP2 MSTORE PUSH1 0x20 ADD PUSH1 0x0 KECCAK256 PUSH1 0x2 ADD SLOAD PUSH2 0x1097 SWAP2 SWAP1 PUSH2 0x27EA JUMP JUMPDEST PUSH2 0x10A1 SWAP2 SWAP1 PUSH2 0x285B JUMP JUMPDEST LT PUSH2 0x111E JUMPI PUSH2 0x10BA PUSH8 0x12C5BB31ACCC9420 PUSH1 0xC0 SHL PUSH2 0x57F JUMP JUMPDEST PUSH2 0x10CE PUSH8 0x5EC542E2A60992C9 PUSH1 0xC0 SHL PUSH2 0x57F JUMP JUMPDEST PUSH2 0x10E2 PUSH8 0x4C271BBD968CF218 PUSH1 0xC0 SHL PUSH2 0x57F JUMP JUMPDEST PUSH32 0x91944425928AF46B7FE486868FBDD04CD88C32637B4C91612CAA1781C1B91F8C DUP3 PUSH1 0x40 MLOAD PUSH2 0x1111 SWAP2 SWAP1 PUSH2 0x2350 JUMP JUMPDEST PUSH1 0x40 MLOAD DUP1 SWAP2 SUB SWAP1 LOG1 PUSH2 0x1133 JUMP JUMPDEST PUSH2 0x1132 PUSH8 0xDAB2D40CD2DFA72F PUSH1 0xC0 SHL PUSH2 0x57F JUMP JUMPDEST JUMPDEST JUMPDEST POP POP JUMP JUMPDEST PUSH1 0xA PUSH1 0x20 MSTORE DUP1 PUSH1 0x0 MSTORE PUSH1 0x40 PUSH1 0x0 KECCAK256 PUSH1 0x0 SWAP2 POP SWAP1 POP DUP1 PUSH1 0x0 ADD PUSH1 0x0 SWAP1 SLOAD SWAP1 PUSH2 0x100 EXP SWAP1 DIV PUSH1 0xFF AND SWAP1 DUP1 PUSH1 0x1 ADD SLOAD SWAP1 DUP1 PUSH1 0x2 ADD SLOAD SWAP1 DUP1 PUSH1 0x3 ADD SLOAD SWAP1 POP DUP5 JUMP JUMPDEST PUSH1 0xC PUSH1 0x20 MSTORE DUP1 PUSH1 0x0 MSTORE PUSH1 0x40 PUSH1 0x0 KECCAK256 PUSH1 0x0 SWAP2 POP SLOAD SWAP1 PUSH2 0x100 EXP SWAP1 DIV PUSH20 0xFFFFFFFFFFFFFFFFFFFFFFFFFFFFFFFFFFFFFFFF AND DUP2 JUMP JUMPDEST PUSH2 0x11BC PUSH8 0x217257742E51D03F PUSH1 0xC0 SHL PUSH2 0x57F JUMP JUMPDEST ADDRESS PUSH2 0x11D1 PUSH8 0x8A584450036E6BC5 PUSH1 0xC0 SHL PUSH2 0x57F JUMP JUMPDEST PUSH2 0x11E5 PUSH8 0x2EC241DB15387AC4 PUSH1 0xC0 SHL PUSH2 0x57F JUMP JUMPDEST PUSH2 0x11F9 PUSH8 0xA593865DBF8413A0 PUSH1 0xC0 SHL PUSH2 0x57F JUMP JUMPDEST PUSH8 0xDE0B6B3A7640000 DUP2 PUSH20 0xFFFFFFFFFFFFFFFFFFFFFFFFFFFFFFFFFFFFFFFF AND BALANCE GT PUSH2 0x1279 JUMPI PUSH2 0x1233 PUSH8 0x32680FFFE7A4F16 PUSH1 0xC0 SHL PUSH2 0x57F JUMP JUMPDEST PUSH2 0x1247 PUSH8 0x54EE283C138A83F6 PUSH1 0xC0 SHL PUSH2 0x57F JUMP JUMPDEST PUSH1 0x40 MLOAD PUSH32 0x47108E3E00000000000000000000000000000000000000000000000000000000 DUP2 MSTORE PUSH1 0x4 ADD PUSH1 0x40 MLOAD DUP1 SWAP2 SUB SWAP1 REVERT JUMPDEST PUSH2 0x128D PUSH8 0x865F41178DC90E26 PUSH1 0xC0 SHL PUSH2 0x57F JUMP JUMPDEST PUSH2 0x12A1 PUSH8 0xB2C3B19117C7B29 PUSH1 0xC0 SHL PUSH2 0x57F JUMP JUMPDEST PUSH2 0x12B5 PUSH8 0x283021DC7A0E521D PUSH1 0xC0 SHL PUSH2 0x57F JUMP JUMPDEST PUSH2 0x12C9 PUSH8 0x4D5299672D9FB3A5 PUSH1 0xC0 SHL PUSH2 0x57F JUMP JUMPDEST PUSH2 0x12DD PUSH8 0x9DF0F99FF2714A2C PUSH1 0xC0 SHL PUSH2 0x57F JUMP JUMPDEST PUSH2 0x12F1 PUSH8 0x110BE5F3DA87538B PUSH1 0xC0 SHL PUSH2 0x57F JUMP JUMPDEST PUSH2 0x1305 PUSH8 0x4110285267017C6F PUSH1 0xC0 SHL PUSH2 0x57F JUMP JUMPDEST CALLER PUSH20 0xFFFFFFFFFFFFFFFFFFFFFFFFFFFFFFFFFFFFFFFF AND PUSH1 0xB PUSH1 0x0 CALLER PUSH20 0xFFFFFFFFFFFFFFFFFFFFFFFFFFFFFFFFFFFFFFFF AND PUSH20 0xFFFFFFFFFFFFFFFFFFFFFFFFFFFFFFFFFFFFFFFF AND DUP2 MSTORE PUSH1 0x20 ADD SWAP1 DUP2 MSTORE PUSH1 0x20 ADD PUSH1 0x0 KECCAK256 PUSH1 0x0 ADD PUSH1 0x0 SWAP1 SLOAD SWAP1 PUSH2 0x100 EXP SWAP1 DIV PUSH20 0xFFFFFFFFFFFFFFFFFFFFFFFFFFFFFFFFFFFFFFFF AND PUSH20 0xFFFFFFFFFFFFFFFFFFFFFFFFFFFFFFFFFFFFFFFF AND EQ PUSH2 0x13D5 JUMPI PUSH1 0x40 MLOAD PUSH32 0x8C379A000000000000000000000000000000000000000000000000000000000 DUP2 MSTORE PUSH1 0x4 ADD PUSH2 0x13CC SWAP1 PUSH2 0x28D8 JUMP JUMPDEST PUSH1 0x40 MLOAD DUP1 SWAP2 SUB SWAP1 REVERT JUMPDEST PUSH2 0x13E9 PUSH8 0xAEF0B94FB9CD5CC PUSH1 0xC0 SHL PUSH2 0x57F JUMP JUMPDEST PUSH2 0x13FD PUSH8 0xDD8F40C205F079B5 PUSH1 0xC0 SHL PUSH2 0x57F JUMP JUMPDEST PUSH2 0x1411 PUSH8 0x76548D576E8EBA7 PUSH1 0xC0 SHL PUSH2 0x57F JUMP JUMPDEST PUSH1 0x0 PUSH8 0xDE0B6B3A7640000 SWAP1 POP PUSH2 0x1432 PUSH8 0x44E2A30D6EF736B5 PUSH1 0xC0 SHL PUSH2 0x57F JUMP JUMPDEST PUSH2 0x1446 PUSH8 0x5E4FE3962A34E8B9 PUSH1 0xC0 SHL PUSH2 0x57F JUMP JUMPDEST PUSH2 0x1450 CALLER DUP3 PUSH2 0x1DD2 JUMP JUMPDEST PUSH2 0x1464 PUSH8 0xE69045755A9D80BC PUSH1 0xC0 SHL PUSH2 0x57F JUMP JUMPDEST PUSH1 0x0 PUSH1 0xB PUSH1 0x0 CALLER PUSH20 0xFFFFFFFFFFFFFFFFFFFFFFFFFFFFFFFFFFFFFFFF AND PUSH20 0xFFFFFFFFFFFFFFFFFFFFFFFFFFFFFFFFFFFFFFFF AND DUP2 MSTORE PUSH1 0x20 ADD SWAP1 DUP2 MSTORE PUSH1 0x20 ADD PUSH1 0x0 KECCAK256 PUSH1 0x0 ADD PUSH1 0x0 PUSH2 0x100 EXP DUP2 SLOAD DUP2 PUSH20 0xFFFFFFFFFFFFFFFFFFFFFFFFFFFFFFFFFFFFFFFF MUL NOT AND SWAP1 DUP4 PUSH20 0xFFFFFFFFFFFFFFFFFFFFFFFFFFFFFFFFFFFFFFFF AND MUL OR SWAP1 SSTORE POP PUSH2 0x14FA PUSH8 0xFE1A1719680B08C4 PUSH1 0xC0 SHL PUSH2 0x57F JUMP JUMPDEST PUSH1 0x8 PUSH1 0x0 DUP2 SLOAD DUP1 SWAP3 SWAP2 SWAP1 PUSH2 0x150D SWAP1 PUSH2 0x28F8 JUMP JUMPDEST SWAP2 SWAP1 POP SSTORE POP POP POP JUMP JUMPDEST PUSH1 0x5 SLOAD DUP2 JUMP JUMPDEST PUSH2 0x1530 PUSH8 0xD1C56BD72F8D1912 PUSH1 0xC0 SHL PUSH2 0x57F JUMP JUMPDEST PUSH2 0x1544 PUSH8 0x5E6D6089A319F190 PUSH1 0xC0 SHL PUSH2 0x57F JUMP JUMPDEST PUSH2 0x1558 PUSH8 0x26C6F4FB67A0ABC3 PUSH1 0xC0 SHL PUSH2 0x57F JUMP JUMPDEST PUSH2 0x156C PUSH8 0xCC0B1BC0D1CC22D4 PUSH1 0xC0 SHL PUSH2 0x57F JUMP JUMPDEST PUSH1 0x0 PUSH1 0xD PUSH1 0x0 CALLER PUSH20 0xFFFFFFFFFFFFFFFFFFFFFFFFFFFFFFFFFFFFFFFF AND PUSH20 0xFFFFFFFFFFFFFFFFFFFFFFFFFFFFFFFFFFFFFFFF AND DUP2 MSTORE PUSH1 0x20 ADD SWAP1 DUP2 MSTORE PUSH1 0x20 ADD PUSH1 0x0 KECCAK256 SLOAD SUB PUSH2 0x160D JUMPI PUSH2 0x15C7 PUSH8 0xCA1C0E4207C7B807 PUSH1 0xC0 SHL PUSH2 0x57F JUMP JUMPDEST PUSH2 0x15DB PUSH8 0xBB8F2B0F503F4BC3 PUSH1 0xC0 SHL PUSH2 0x57F JUMP JUMPDEST PUSH1 0x40 MLOAD PUSH32 0x3A70817D00000000000000000000000000000000000000000000000000000000 DUP2 MSTORE PUSH1 0x4 ADD PUSH1 0x40 MLOAD DUP1 SWAP2 SUB SWAP1 REVERT JUMPDEST PUSH2 0x1621 PUSH8 0x7F5B22327590E0EE PUSH1 0xC0 SHL PUSH2 0x57F JUMP JUMPDEST PUSH2 0x1635 PUSH8 0xFF64821A119AC7FD PUSH1 0xC0 SHL PUSH2 0x57F JUMP JUMPDEST PUSH2 0x1649 PUSH8 0x6A51959D6BCCA74A PUSH1 0xC0 SHL PUSH2 0x57F JUMP JUMPDEST PUSH2 0x165D PUSH8 0xCD7C7E6781E7C59A PUSH1 0xC0 SHL PUSH2 0x57F JUMP JUMPDEST CALLER PUSH2 0x1672 PUSH8 0x8A584450036E6BC5 PUSH1 0xC0 SHL PUSH2 0x57F JUMP JUMPDEST PUSH2 0x1686 PUSH8 0x2EC241DB15387AC4 PUSH1 0xC0 SHL PUSH2 0x57F JUMP JUMPDEST PUSH2 0x169A PUSH8 0xA593865DBF8413A0 PUSH1 0xC0 SHL PUSH2 0x57F JUMP JUMPDEST PUSH8 0xDE0B6B3A7640000 DUP2 PUSH20 0xFFFFFFFFFFFFFFFFFFFFFFFFFFFFFFFFFFFFFFFF AND BALANCE GT PUSH2 0x171A JUMPI PUSH2 0x16D4 PUSH8 0x32680FFFE7A4F16 PUSH1 0xC0 SHL PUSH2 0x57F JUMP JUMPDEST PUSH2 0x16E8 PUSH8 0x54EE283C138A83F6 PUSH1 0xC0 SHL PUSH2 0x57F JUMP JUMPDEST PUSH1 0x40 MLOAD PUSH32 0x47108E3E00000000000000000000000000000000000000000000000000000000 DUP2 MSTORE PUSH1 0x4 ADD PUSH1 0x40 MLOAD DUP1 SWAP2 SUB SWAP1 REVERT JUMPDEST PUSH2 0x172E PUSH8 0x865F41178DC90E26 PUSH1 0xC0 SHL PUSH2 0x57F JUMP JUMPDEST PUSH2 0x1742 PUSH8 0xB2C3B19117C7B29 PUSH1 0xC0 SHL PUSH2 0x57F JUMP JUMPDEST PUSH2 0x1756 PUSH8 0x2A6E7AD132AFFAB7 PUSH1 0xC0 SHL PUSH2 0x57F JUMP JUMPDEST PUSH2 0x176A PUSH8 0x31786C5C7D86E59F PUSH1 0xC0 SHL PUSH2 0x57F JUMP JUMPDEST PUSH2 0x177E PUSH8 0x47437D38104F4183 PUSH1 0xC0 SHL PUSH2 0x57F JUMP JUMPDEST PUSH2 0x1792 PUSH8 0x772BFE49FCE1587C PUSH1 0xC0 SHL PUSH2 0x57F JUMP JUMPDEST PUSH2 0x17A6 PUSH8 0xFC88E31CE0710512 PUSH1 0xC0 SHL PUSH2 0x57F JUMP JUMPDEST PUSH8 0xDE0B6B3A7640000 CALLVALUE EQ PUSH2 0x17F0 JUMPI PUSH1 0x40 MLOAD PUSH32 0x8C379A000000000000000000000000000000000000000000000000000000000 DUP2 MSTORE PUSH1 0x4 ADD PUSH2 0x17E7 SWAP1 PUSH2 0x296D JUMP JUMPDEST PUSH1 0x40 MLOAD DUP1 SWAP2 SUB SWAP1 REVERT JUMPDEST PUSH2 0x1804 PUSH8 0xE7AF006C9E78FAA3 PUSH1 0xC0 SHL PUSH2 0x57F JUMP JUMPDEST PUSH2 0x1818 PUSH8 0xBD72337121C31977 PUSH1 0xC0 SHL PUSH2 0x57F JUMP JUMPDEST PUSH2 0x182C PUSH8 0xDA668B72DAB86400 PUSH1 0xC0 SHL PUSH2 0x57F JUMP JUMPDEST PUSH2 0x1840 PUSH8 0x2597E18973413B8E PUSH1 0xC0 SHL PUSH2 0x57F JUMP JUMPDEST CALLER PUSH20 0xFFFFFFFFFFFFFFFFFFFFFFFFFFFFFFFFFFFFFFFF AND PUSH1 0xB PUSH1 0x0 CALLER PUSH20 0xFFFFFFFFFFFFFFFFFFFFFFFFFFFFFFFFFFFFFFFF AND PUSH20 0xFFFFFFFFFFFFFFFFFFFFFFFFFFFFFFFFFFFFFFFF AND DUP2 MSTORE PUSH1 0x20 ADD SWAP1 DUP2 MSTORE PUSH1 0x20 ADD PUSH1 0x0 KECCAK256 PUSH1 0x0 ADD PUSH1 0x0 SWAP1 SLOAD SWAP1 PUSH2 0x100 EXP SWAP1 DIV PUSH20 0xFFFFFFFFFFFFFFFFFFFFFFFFFFFFFFFFFFFFFFFF AND PUSH20 0xFFFFFFFFFFFFFFFFFFFFFFFFFFFFFFFFFFFFFFFF AND SUB PUSH2 0x1910 JUMPI PUSH1 0x40 MLOAD PUSH32 0x8C379A000000000000000000000000000000000000000000000000000000000 DUP2 MSTORE PUSH1 0x4 ADD PUSH2 0x1907 SWAP1 PUSH2 0x29D9 JUMP JUMPDEST PUSH1 0x40 MLOAD DUP1 SWAP2 SUB SWAP1 REVERT JUMPDEST PUSH2 0x1924 PUSH8 0x44E64D632B89CEC PUSH1 0xC0 SHL PUSH2 0x57F JUMP JUMPDEST PUSH2 0x1938 PUSH8 0xBCE0C21E52C7EC4B PUSH1 0xC0 SHL PUSH2 0x57F JUMP JUMPDEST PUSH2 0x194C PUSH8 0xFDBCEED259FC8972 PUSH1 0xC0 SHL PUSH2 0x57F JUMP JUMPDEST PUSH2 0x1956 ADDRESS CALLVALUE PUSH2 0x1DD2 JUMP JUMPDEST PUSH2 0x196A PUSH8 0x1F6959B1FA4178FC PUSH1 0xC0 SHL PUSH2 0x57F JUMP JUMPDEST CALLER PUSH1 0xB PUSH1 0x0 CALLER PUSH20 0xFFFFFFFFFFFFFFFFFFFFFFFFFFFFFFFFFFFFFFFF AND PUSH20 0xFFFFFFFFFFFFFFFFFFFFFFFFFFFFFFFFFFFFFFFF AND DUP2 MSTORE PUSH1 0x20 ADD SWAP1 DUP2 MSTORE PUSH1 0x20 ADD PUSH1 0x0 KECCAK256 PUSH1 0x0 ADD PUSH1 0x0 PUSH2 0x100 EXP DUP2 SLOAD DUP2 PUSH20 0xFFFFFFFFFFFFFFFFFFFFFFFFFFFFFFFFFFFFFFFF MUL NOT AND SWAP1 DUP4 PUSH20 0xFFFFFFFFFFFFFFFFFFFFFFFFFFFFFFFFFFFFFFFF AND MUL OR SWAP1 SSTORE POP PUSH2 0x19FF PUSH8 0x7ED7B23619284633 PUSH1 0xC0 SHL PUSH2 0x57F JUMP JUMPDEST PUSH1 0x8 PUSH1 0x0 DUP2 SLOAD DUP1 SWAP3 SWAP2 SWAP1 PUSH2 0x1A12 SWAP1 PUSH2 0x266D JUMP JUMPDEST SWAP2 SWAP1 POP SSTORE POP POP JUMP JUMPDEST PUSH1 0xB PUSH1 0x20 MSTORE DUP1 PUSH1 0x0 MSTORE PUSH1 0x40 PUSH1 0x0 KECCAK256 PUSH1 0x0 SWAP2 POP SWAP1 POP DUP1 PUSH1 0x0 ADD PUSH1 0x0 SWAP1 SLOAD SWAP1 PUSH2 0x100 EXP SWAP1 DIV PUSH20 0xFFFFFFFFFFFFFFFFFFFFFFFFFFFFFFFFFFFFFFFF AND SWAP1 DUP1 PUSH1 0x0 ADD PUSH1 0x14 SWAP1 SLOAD SWAP1 PUSH2 0x100 EXP SWAP1 DIV PUSH1 0xFF AND SWAP1 DUP1 PUSH1 0x1 ADD SLOAD SWAP1 POP DUP4 JUMP JUMPDEST PUSH2 0x1A85 PUSH8 0x25FD0B192CEBA090 PUSH1 0xC0 SHL PUSH2 0x57F JUMP JUMPDEST PUSH2 0x1A99 PUSH8 0x3B45B6D8C8B21A21 PUSH1 0xC0 SHL PUSH2 0x57F JUMP JUMPDEST PUSH2 0x1AAD PUSH8 0xC294CD6F675050E2 PUSH1 0xC0 SHL PUSH2 0x57F JUMP JUMPDEST PUSH1 0x0 PUSH1 0x5 DUP2 GT ISZERO PUSH2 0x1AC1 JUMPI PUSH2 0x1AC0 PUSH2 0x2500 JUMP JUMPDEST JUMPDEST DUP3 PUSH1 0x5 DUP2 GT ISZERO PUSH2 0x1AD4 JUMPI PUSH2 0x1AD3 PUSH2 0x2500 JUMP JUMPDEST JUMPDEST SUB PUSH2 0x1B0D JUMPI PUSH2 0x1AED PUSH8 0x6B5F7AE4AC2E8A4D PUSH1 0xC0 SHL PUSH2 0x57F JUMP JUMPDEST PUSH2 0x1B01 PUSH8 0xBEA0CC63D6ECD2B9 PUSH1 0xC0 SHL PUSH2 0x57F JUMP JUMPDEST DUP1 PUSH1 0x2 DUP2 SWAP1 SSTORE POP PUSH2 0x1DCE JUMP JUMPDEST PUSH2 0x1B21 PUSH8 0xB45D1608C77F61F3 PUSH1 0xC0 SHL PUSH2 0x57F JUMP JUMPDEST PUSH2 0x1B35 PUSH8 0xD49FFDDFAD9BD04A PUSH1 0xC0 SHL PUSH2 0x57F JUMP JUMPDEST PUSH1 0x1 PUSH1 0x5 DUP2 GT ISZERO PUSH2 0x1B49 JUMPI PUSH2 0x1B48 PUSH2 0x2500 JUMP JUMPDEST JUMPDEST DUP3 PUSH1 0x5 DUP2 GT ISZERO PUSH2 0x1B5C JUMPI PUSH2 0x1B5B PUSH2 0x2500 JUMP JUMPDEST JUMPDEST SUB PUSH2 0x1B95 JUMPI PUSH2 0x1B75 PUSH8 0xC5B01B9F08E0D12D PUSH1 0xC0 SHL PUSH2 0x57F JUMP JUMPDEST PUSH2 0x1B89 PUSH8 0x14791446CC4AE260 PUSH1 0xC0 SHL PUSH2 0x57F JUMP JUMPDEST DUP1 PUSH1 0x3 DUP2 SWAP1 SSTORE POP PUSH2 0x1DCD JUMP JUMPDEST PUSH2 0x1BA9 PUSH8 0xF6150D086BF3BD61 PUSH1 0xC0 SHL PUSH2 0x57F JUMP JUMPDEST PUSH2 0x1BBD PUSH8 0xB952B2465288F410 PUSH1 0xC0 SHL PUSH2 0x57F JUMP JUMPDEST PUSH1 0x2 PUSH1 0x5 DUP2 GT ISZERO PUSH2 0x1BD1 JUMPI PUSH2 0x1BD0 PUSH2 0x2500 JUMP JUMPDEST JUMPDEST DUP3 PUSH1 0x5 DUP2 GT ISZERO PUSH2 0x1BE4 JUMPI PUSH2 0x1BE3 PUSH2 0x2500 JUMP JUMPDEST JUMPDEST SUB PUSH2 0x1C1D JUMPI PUSH2 0x1BFD PUSH8 0xB74F299772CDCD63 PUSH1 0xC0 SHL PUSH2 0x57F JUMP JUMPDEST PUSH2 0x1C11 PUSH8 0xCE48930C41DCB734 PUSH1 0xC0 SHL PUSH2 0x57F JUMP JUMPDEST DUP1 PUSH1 0x4 DUP2 SWAP1 SSTORE POP PUSH2 0x1DCC JUMP JUMPDEST PUSH2 0x1C31 PUSH8 0x8FF0523C7F307FEE PUSH1 0xC0 SHL PUSH2 0x57F JUMP JUMPDEST PUSH2 0x1C45 PUSH8 0x28BE07ECF355CA37 PUSH1 0xC0 SHL PUSH2 0x57F JUMP JUMPDEST PUSH1 0x3 PUSH1 0x5 DUP2 GT ISZERO PUSH2 0x1C59 JUMPI PUSH2 0x1C58 PUSH2 0x2500 JUMP JUMPDEST JUMPDEST DUP3 PUSH1 0x5 DUP2 GT ISZERO PUSH2 0x1C6C JUMPI PUSH2 0x1C6B PUSH2 0x2500 JUMP JUMPDEST JUMPDEST SUB PUSH2 0x1CA5 JUMPI PUSH2 0x1C85 PUSH8 0x22EC0661A33AB843 PUSH1 0xC0 SHL PUSH2 0x57F JUMP JUMPDEST PUSH2 0x1C99 PUSH8 0x7FAD8CA235AAF71B PUSH1 0xC0 SHL PUSH2 0x57F JUMP JUMPDEST DUP1 PUSH1 0x5 DUP2 SWAP1 SSTORE POP PUSH2 0x1DCB JUMP JUMPDEST PUSH2 0x1CB9 PUSH8 0xC4532FC54A7A1CBE PUSH1 0xC0 SHL PUSH2 0x57F JUMP JUMPDEST PUSH2 0x1CCD PUSH8 0x83BF0330E0ADC99F PUSH1 0xC0 SHL PUSH2 0x57F JUMP JUMPDEST PUSH1 0x4 PUSH1 0x5 DUP2 GT ISZERO PUSH2 0x1CE1 JUMPI PUSH2 0x1CE0 PUSH2 0x2500 JUMP JUMPDEST JUMPDEST DUP3 PUSH1 0x5 DUP2 GT ISZERO PUSH2 0x1CF4 JUMPI PUSH2 0x1CF3 PUSH2 0x2500 JUMP JUMPDEST JUMPDEST SUB PUSH2 0x1D2D JUMPI PUSH2 0x1D0D PUSH8 0x719613562946A2EF PUSH1 0xC0 SHL PUSH2 0x57F JUMP JUMPDEST PUSH2 0x1D21 PUSH8 0x21A046FF59487549 PUSH1 0xC0 SHL PUSH2 0x57F JUMP JUMPDEST DUP1 PUSH1 0x1 DUP2 SWAP1 SSTORE POP PUSH2 0x1DCA JUMP JUMPDEST PUSH2 0x1D41 PUSH8 0x7093D9B091F0C6C4 PUSH1 0xC0 SHL PUSH2 0x57F JUMP JUMPDEST PUSH2 0x1D55 PUSH8 0x8930747ABA7911A1 PUSH1 0xC0 SHL PUSH2 0x57F JUMP JUMPDEST PUSH1 0x5 DUP1 DUP2 GT ISZERO PUSH2 0x1D68 JUMPI PUSH2 0x1D67 PUSH2 0x2500 JUMP JUMPDEST JUMPDEST DUP3 PUSH1 0x5 DUP2 GT ISZERO PUSH2 0x1D7B JUMPI PUSH2 0x1D7A PUSH2 0x2500 JUMP JUMPDEST JUMPDEST SUB PUSH2 0x1DB4 JUMPI PUSH2 0x1D94 PUSH8 0x71EA4C20D3122FBA PUSH1 0xC0 SHL PUSH2 0x57F JUMP JUMPDEST PUSH2 0x1DA8 PUSH8 0x5EEA24DAAAC7FCB5 PUSH1 0xC0 SHL PUSH2 0x57F JUMP JUMPDEST DUP1 PUSH1 0x6 DUP2 SWAP1 SSTORE POP PUSH2 0x1DC9 JUMP JUMPDEST PUSH2 0x1DC8 PUSH8 0x16E35BE17B047A41 PUSH1 0xC0 SHL PUSH2 0x57F JUMP JUMPDEST JUMPDEST JUMPDEST JUMPDEST JUMPDEST JUMPDEST JUMPDEST POP POP JUMP JUMPDEST PUSH2 0x1DE6 PUSH8 0xECB67D033AEAEE8E PUSH1 0xC0 SHL PUSH2 0x57F JUMP JUMPDEST PUSH2 0x1DFA PUSH8 0x31D68ED1DC2FD6D0 PUSH1 0xC0 SHL PUSH2 0x57F JUMP JUMPDEST PUSH2 0x1E0E PUSH8 0x3A5BA3B303512111 PUSH1 0xC0 SHL PUSH2 0x57F JUMP JUMPDEST PUSH1 0x0 DUP1 DUP4 PUSH20 0xFFFFFFFFFFFFFFFFFFFFFFFFFFFFFFFFFFFFFFFF AND DUP4 PUSH1 0x40 MLOAD PUSH2 0x1E35 SWAP1 PUSH2 0x2A2A JUMP JUMPDEST PUSH1 0x0 PUSH1 0x40 MLOAD DUP1 DUP4 SUB DUP2 DUP6 DUP8 GAS CALL SWAP3 POP POP POP RETURNDATASIZE DUP1 PUSH1 0x0 DUP2 EQ PUSH2 0x1E72 JUMPI PUSH1 0x40 MLOAD SWAP2 POP PUSH1 0x1F NOT PUSH1 0x3F RETURNDATASIZE ADD AND DUP3 ADD PUSH1 0x40 MSTORE RETURNDATASIZE DUP3 MSTORE RETURNDATASIZE PUSH1 0x0 PUSH1 0x20 DUP5 ADD RETURNDATACOPY PUSH2 0x1E77 JUMP JUMPDEST PUSH1 0x60 SWAP2 POP JUMPDEST POP SWAP2 POP SWAP2 POP PUSH2 0x1E90 PUSH8 0xDE620E88BF45BA8C PUSH1 0xC0 SHL PUSH2 0x57F JUMP JUMPDEST PUSH2 0x1EA4 PUSH8 0x4929CE39CD014B74 PUSH1 0xC0 SHL PUSH2 0x57F JUMP JUMPDEST PUSH2 0x1EB8 PUSH8 0x3E94C73366BB18D4 PUSH1 0xC0 SHL PUSH2 0x57F JUMP JUMPDEST DUP2 PUSH2 0x1EF8 JUMPI PUSH1 0x40 MLOAD PUSH32 0x8C379A000000000000000000000000000000000000000000000000000000000 DUP2 MSTORE PUSH1 0x4 ADD PUSH2 0x1EEF SWAP1 PUSH2 0x2A8B JUMP JUMPDEST PUSH1 0x40 MLOAD DUP1 SWAP2 SUB SWAP1 REVERT JUMPDEST PUSH2 0x1F0C PUSH8 0xB78FB1E308201AA0 PUSH1 0xC0 SHL PUSH2 0x57F JUMP JUMPDEST POP POP POP POP JUMP JUMPDEST PUSH1 0x0 DUP3 DUP3 MSTORE PUSH1 0x20 DUP3 ADD SWAP1 POP SWAP3 SWAP2 POP POP JUMP JUMPDEST PUSH32 0x796F752063616E27742073656E64206C657373207468616E2035306B20776569 PUSH1 0x0 DUP3 ADD MSTORE POP JUMP JUMPDEST PUSH1 0x0 PUSH2 0x1F59 PUSH1 0x20 DUP4 PUSH2 0x1F12 JUMP JUMPDEST SWAP2 POP PUSH2 0x1F64 DUP3 PUSH2 0x1F23 JUMP JUMPDEST PUSH1 0x20 DUP3 ADD SWAP1 POP SWAP2 SWAP1 POP JUMP JUMPDEST PUSH1 0x0 PUSH1 0x20 DUP3 ADD SWAP1 POP DUP2 DUP2 SUB PUSH1 0x0 DUP4 ADD MSTORE PUSH2 0x1F88 DUP2 PUSH2 0x1F4C JUMP JUMPDEST SWAP1 POP SWAP2 SWAP1 POP JUMP JUMPDEST PUSH1 0x0 DUP2 MLOAD SWAP1 POP SWAP2 SWAP1 POP JUMP JUMPDEST PUSH32 0x4E487B7100000000000000000000000000000000000000000000000000000000 PUSH1 0x0 MSTORE PUSH1 0x41 PUSH1 0x4 MSTORE PUSH1 0x24 PUSH1 0x0 REVERT JUMPDEST PUSH32 0x4E487B7100000000000000000000000000000000000000000000000000000000 PUSH1 0x0 MSTORE PUSH1 0x22 PUSH1 0x4 MSTORE PUSH1 0x24 PUSH1 0x0 REVERT JUMPDEST PUSH1 0x0 PUSH1 0x2 DUP3 DIV SWAP1 POP PUSH1 0x1 DUP3 AND DUP1 PUSH2 0x2010 JUMPI PUSH1 0x7F DUP3 AND SWAP2 POP JUMPDEST PUSH1 0x20 DUP3 LT DUP2 SUB PUSH2 0x2023 JUMPI PUSH2 0x2022 PUSH2 0x1FC9 JUMP JUMPDEST JUMPDEST POP SWAP2 SWAP1 POP JUMP JUMPDEST PUSH1 0x0 DUP2 SWAP1 POP DUP2 PUSH1 0x0 MSTORE PUSH1 0x20 PUSH1 0x0 KECCAK256 SWAP1 POP SWAP2 SWAP1 POP JUMP JUMPDEST PUSH1 0x0 PUSH1 0x20 PUSH1 0x1F DUP4 ADD DIV SWAP1 POP SWAP2 SWAP1 POP JUMP JUMPDEST PUSH1 0x0 DUP3 DUP3 SHL SWAP1 POP SWAP3 SWAP2 POP POP JUMP JUMPDEST PUSH1 0x0 PUSH1 0x8 DUP4 MUL PUSH2 0x208B PUSH32 0xFFFFFFFFFFFFFFFFFFFFFFFFFFFFFFFFFFFFFFFFFFFFFFFFFFFFFFFFFFFFFFFF DUP3 PUSH2 0x204E JUMP JUMPDEST PUSH2 0x2095 DUP7 DUP4 PUSH2 0x204E JUMP JUMPDEST SWAP6 POP DUP1 NOT DUP5 AND SWAP4 POP DUP1 DUP7 AND DUP5 OR SWAP3 POP POP POP SWAP4 SWAP3 POP POP POP JUMP JUMPDEST PUSH1 0x0 DUP2 SWAP1 POP SWAP2 SWAP1 POP JUMP JUMPDEST PUSH1 0x0 DUP2 SWAP1 POP SWAP2 SWAP1 POP JUMP JUMPDEST PUSH1 0x0 PUSH2 0x20DC PUSH2 0x20D7 PUSH2 0x20D2 DUP5 PUSH2 0x20AD JUMP JUMPDEST PUSH2 0x20B7 JUMP JUMPDEST PUSH2 0x20AD JUMP JUMPDEST SWAP1 POP SWAP2 SWAP1 POP JUMP JUMPDEST PUSH1 0x0 DUP2 SWAP1 POP SWAP2 SWAP1 POP JUMP JUMPDEST PUSH2 0x20F6 DUP4 PUSH2 0x20C1 JUMP JUMPDEST PUSH2 0x210A PUSH2 0x2102 DUP3 PUSH2 0x20E3 JUMP JUMPDEST DUP5 DUP5 SLOAD PUSH2 0x205B JUMP JUMPDEST DUP3 SSTORE POP POP POP POP JUMP JUMPDEST PUSH1 0x0 SWAP1 JUMP JUMPDEST PUSH2 0x211F PUSH2 0x2112 JUMP JUMPDEST PUSH2 0x212A DUP2 DUP5 DUP5 PUSH2 0x20ED JUMP JUMPDEST POP POP POP JUMP JUMPDEST JUMPDEST DUP2 DUP2 LT ISZERO PUSH2 0x214E JUMPI PUSH2 0x2143 PUSH1 0x0 DUP3 PUSH2 0x2117 JUMP JUMPDEST PUSH1 0x1 DUP2 ADD SWAP1 POP PUSH2 0x2130 JUMP JUMPDEST POP POP JUMP JUMPDEST PUSH1 0x1F DUP3 GT ISZERO PUSH2 0x2193 JUMPI PUSH2 0x2164 DUP2 PUSH2 0x2029 JUMP JUMPDEST PUSH2 0x216D DUP5 PUSH2 0x203E JUMP JUMPDEST DUP2 ADD PUSH1 0x20 DUP6 LT ISZERO PUSH2 0x217C JUMPI DUP2 SWAP1 POP JUMPDEST PUSH2 0x2190 PUSH2 0x2188 DUP6 PUSH2 0x203E JUMP JUMPDEST DUP4 ADD DUP3 PUSH2 0x212F JUMP JUMPDEST POP POP JUMPDEST POP POP POP JUMP JUMPDEST PUSH1 0x0 DUP3 DUP3 SHR SWAP1 POP SWAP3 SWAP2 POP POP JUMP JUMPDEST PUSH1 0x0 PUSH2 0x21B6 PUSH1 0x0 NOT DUP5 PUSH1 0x8 MUL PUSH2 0x2198 JUMP JUMPDEST NOT DUP1 DUP4 AND SWAP2 POP POP SWAP3 SWAP2 POP POP JUMP JUMPDEST PUSH1 0x0 PUSH2 0x21CF DUP4 DUP4 PUSH2 0x21A5 JUMP JUMPDEST SWAP2 POP DUP3 PUSH1 0x2 MUL DUP3 OR SWAP1 POP SWAP3 SWAP2 POP POP JUMP JUMPDEST PUSH2 0x21E8 DUP3 PUSH2 0x1F8F JUMP JUMPDEST PUSH8 0xFFFFFFFFFFFFFFFF DUP2 GT ISZERO PUSH2 0x2201 JUMPI PUSH2 0x2200 PUSH2 0x1F9A JUMP JUMPDEST JUMPDEST PUSH2 0x220B DUP3 SLOAD PUSH2 0x1FF8 JUMP JUMPDEST PUSH2 0x2216 DUP3 DUP3 DUP6 PUSH2 0x2152 JUMP JUMPDEST PUSH1 0x0 PUSH1 0x20 SWAP1 POP PUSH1 0x1F DUP4 GT PUSH1 0x1 DUP2 EQ PUSH2 0x2249 JUMPI PUSH1 0x0 DUP5 ISZERO PUSH2 0x2237 JUMPI DUP3 DUP8 ADD MLOAD SWAP1 POP JUMPDEST PUSH2 0x2241 DUP6 DUP3 PUSH2 0x21C3 JUMP JUMPDEST DUP7 SSTORE POP PUSH2 0x22A9 JUMP JUMPDEST PUSH1 0x1F NOT DUP5 AND PUSH2 0x2257 DUP7 PUSH2 0x2029 JUMP JUMPDEST PUSH1 0x0 JUMPDEST DUP3 DUP2 LT ISZERO PUSH2 0x227F JUMPI DUP5 DUP10 ADD MLOAD DUP3 SSTORE PUSH1 0x1 DUP3 ADD SWAP2 POP PUSH1 0x20 DUP6 ADD SWAP5 POP PUSH1 0x20 DUP2 ADD SWAP1 POP PUSH2 0x225A JUMP JUMPDEST DUP7 DUP4 LT ISZERO PUSH2 0x229C JUMPI DUP5 DUP10 ADD MLOAD PUSH2 0x2298 PUSH1 0x1F DUP10 AND DUP3 PUSH2 0x21A5 JUMP JUMPDEST DUP4 SSTORE POP JUMPDEST PUSH1 0x1 PUSH1 0x2 DUP9 MUL ADD DUP9 SSTORE POP POP POP JUMPDEST POP POP POP POP POP POP JUMP JUMPDEST PUSH1 0x0 DUP1 REVERT JUMPDEST PUSH1 0x0 PUSH20 0xFFFFFFFFFFFFFFFFFFFFFFFFFFFFFFFFFFFFFFFF DUP3 AND SWAP1 POP SWAP2 SWAP1 POP JUMP JUMPDEST PUSH1 0x0 PUSH2 0x22E1 DUP3 PUSH2 0x22B6 JUMP JUMPDEST SWAP1 POP SWAP2 SWAP1 POP JUMP JUMPDEST PUSH2 0x22F1 DUP2 PUSH2 0x22D6 JUMP JUMPDEST DUP2 EQ PUSH2 0x22FC JUMPI PUSH1 0x0 DUP1 REVERT JUMPDEST POP JUMP JUMPDEST PUSH1 0x0 DUP2 CALLDATALOAD SWAP1 POP PUSH2 0x230E DUP2 PUSH2 0x22E8 JUMP JUMPDEST SWAP3 SWAP2 POP POP JUMP JUMPDEST PUSH1 0x0 PUSH1 0x20 DUP3 DUP5 SUB SLT ISZERO PUSH2 0x232A JUMPI PUSH2 0x2329 PUSH2 0x22B1 JUMP JUMPDEST JUMPDEST PUSH1 0x0 PUSH2 0x2338 DUP5 DUP3 DUP6 ADD PUSH2 0x22FF JUMP JUMPDEST SWAP2 POP POP SWAP3 SWAP2 POP POP JUMP JUMPDEST PUSH2 0x234A DUP2 PUSH2 0x20AD JUMP JUMPDEST DUP3 MSTORE POP POP JUMP JUMPDEST PUSH1 0x0 PUSH1 0x20 DUP3 ADD SWAP1 POP PUSH2 0x2365 PUSH1 0x0 DUP4 ADD DUP5 PUSH2 0x2341 JUMP JUMPDEST SWAP3 SWAP2 POP POP JUMP JUMPDEST PUSH1 0x6 DUP2 LT PUSH2 0x2378 JUMPI PUSH1 0x0 DUP1 REVERT JUMPDEST POP JUMP JUMPDEST PUSH1 0x0 DUP2 CALLDATALOAD SWAP1 POP PUSH2 0x238A DUP2 PUSH2 0x236B JUMP JUMPDEST SWAP3 SWAP2 POP POP JUMP JUMPDEST PUSH2 0x2399 DUP2 PUSH2 0x20AD JUMP JUMPDEST DUP2 EQ PUSH2 0x23A4 JUMPI PUSH1 0x0 DUP1 REVERT JUMPDEST POP JUMP JUMPDEST PUSH1 0x0 DUP2 CALLDATALOAD SWAP1 POP PUSH2 0x23B6 DUP2 PUSH2 0x2390 JUMP JUMPDEST SWAP3 SWAP2 POP POP JUMP JUMPDEST PUSH1 0x0 DUP1 PUSH1 0x40 DUP4 DUP6 SUB SLT ISZERO PUSH2 0x23D3 JUMPI PUSH2 0x23D2 PUSH2 0x22B1 JUMP JUMPDEST JUMPDEST PUSH1 0x0 PUSH2 0x23E1 DUP6 DUP3 DUP7 ADD PUSH2 0x237B JUMP JUMPDEST SWAP3 POP POP PUSH1 0x20 PUSH2 0x23F2 DUP6 DUP3 DUP7 ADD PUSH2 0x23A7 JUMP JUMPDEST SWAP2 POP POP SWAP3 POP SWAP3 SWAP1 POP JUMP JUMPDEST PUSH1 0x0 PUSH1 0xC0 DUP3 ADD SWAP1 POP PUSH2 0x2411 PUSH1 0x0 DUP4 ADD DUP10 PUSH2 0x2341 JUMP JUMPDEST PUSH2 0x241E PUSH1 0x20 DUP4 ADD DUP9 PUSH2 0x2341 JUMP JUMPDEST PUSH2 0x242B PUSH1 0x40 DUP4 ADD DUP8 PUSH2 0x2341 JUMP JUMPDEST PUSH2 0x2438 PUSH1 0x60 DUP4 ADD DUP7 PUSH2 0x2341 JUMP JUMPDEST PUSH2 0x2445 PUSH1 0x80 DUP4 ADD DUP6 PUSH2 0x2341 JUMP JUMPDEST PUSH2 0x2452 PUSH1 0xA0 DUP4 ADD DUP5 PUSH2 0x2341 JUMP JUMPDEST SWAP8 SWAP7 POP POP POP POP POP POP POP JUMP JUMPDEST PUSH1 0x0 PUSH1 0x20 DUP3 DUP5 SUB SLT ISZERO PUSH2 0x2473 JUMPI PUSH2 0x2472 PUSH2 0x22B1 JUMP JUMPDEST JUMPDEST PUSH1 0x0 PUSH2 0x2481 DUP5 DUP3 DUP6 ADD PUSH2 0x23A7 JUMP JUMPDEST SWAP2 POP POP SWAP3 SWAP2 POP POP JUMP JUMPDEST PUSH1 0x0 DUP2 ISZERO ISZERO SWAP1 POP SWAP2 SWAP1 POP JUMP JUMPDEST PUSH2 0x249F DUP2 PUSH2 0x248A JUMP JUMPDEST DUP3 MSTORE POP POP JUMP JUMPDEST PUSH1 0x0 PUSH1 0x20 DUP3 ADD SWAP1 POP PUSH2 0x24BA PUSH1 0x0 DUP4 ADD DUP5 PUSH2 0x2496 JUMP JUMPDEST SWAP3 SWAP2 POP POP JUMP JUMPDEST PUSH1 0x0 DUP1 PUSH1 0x40 DUP4 DUP6 SUB SLT ISZERO PUSH2 0x24D7 JUMPI PUSH2 0x24D6 PUSH2 0x22B1 JUMP JUMPDEST JUMPDEST PUSH1 0x0 PUSH2 0x24E5 DUP6 DUP3 DUP7 ADD PUSH2 0x23A7 JUMP JUMPDEST SWAP3 POP POP PUSH1 0x20 PUSH2 0x24F6 DUP6 DUP3 DUP7 ADD PUSH2 0x23A7 JUMP JUMPDEST SWAP2 POP POP SWAP3 POP SWAP3 SWAP1 POP JUMP JUMPDEST PUSH32 0x4E487B7100000000000000000000000000000000000000000000000000000000 PUSH1 0x0 MSTORE PUSH1 0x21 PUSH1 0x4 MSTORE PUSH1 0x24 PUSH1 0x0 REVERT JUMPDEST PUSH1 0x6 DUP2 LT PUSH2 0x2540 JUMPI PUSH2 0x253F PUSH2 0x2500 JUMP JUMPDEST JUMPDEST POP JUMP JUMPDEST PUSH1 0x0 DUP2 SWAP1 POP PUSH2 0x2551 DUP3 PUSH2 0x252F JUMP JUMPDEST SWAP2 SWAP1 POP JUMP JUMPDEST PUSH1 0x0 PUSH2 0x2561 DUP3 PUSH2 0x2543 JUMP JUMPDEST SWAP1 POP SWAP2 SWAP1 POP JUMP JUMPDEST PUSH2 0x2571 DUP2 PUSH2 0x2556 JUMP JUMPDEST DUP3 MSTORE POP POP JUMP JUMPDEST PUSH1 0x0 PUSH1 0x80 DUP3 ADD SWAP1 POP PUSH2 0x258C PUSH1 0x0 DUP4 ADD DUP8 PUSH2 0x2568 JUMP JUMPDEST PUSH2 0x2599 PUSH1 0x20 DUP4 ADD DUP7 PUSH2 0x2341 JUMP JUMPDEST PUSH2 0x25A6 PUSH1 0x40 DUP4 ADD DUP6 PUSH2 0x2341 JUMP JUMPDEST PUSH2 0x25B3 PUSH1 0x60 DUP4 ADD DUP5 PUSH2 0x2341 JUMP JUMPDEST SWAP6 SWAP5 POP POP POP POP POP JUMP JUMPDEST PUSH2 0x25C5 DUP2 PUSH2 0x22D6 JUMP JUMPDEST DUP3 MSTORE POP POP JUMP JUMPDEST PUSH1 0x0 PUSH1 0x20 DUP3 ADD SWAP1 POP PUSH2 0x25E0 PUSH1 0x0 DUP4 ADD DUP5 PUSH2 0x25BC JUMP JUMPDEST SWAP3 SWAP2 POP POP JUMP JUMPDEST PUSH1 0x0 PUSH2 0x25F1 DUP3 PUSH2 0x22B6 JUMP JUMPDEST SWAP1 POP SWAP2 SWAP1 POP JUMP JUMPDEST PUSH2 0x2601 DUP2 PUSH2 0x25E6 JUMP JUMPDEST DUP3 MSTORE POP POP JUMP JUMPDEST PUSH1 0x0 PUSH1 0x60 DUP3 ADD SWAP1 POP PUSH2 0x261C PUSH1 0x0 DUP4 ADD DUP7 PUSH2 0x25F8 JUMP JUMPDEST PUSH2 0x2629 PUSH1 0x20 DUP4 ADD DUP6 PUSH2 0x2496 JUMP JUMPDEST PUSH2 0x2636 PUSH1 0x40 DUP4 ADD DUP5 PUSH2 0x2341 JUMP JUMPDEST SWAP5 SWAP4 POP POP POP POP JUMP JUMPDEST PUSH32 0x4E487B7100000000000000000000000000000000000000000000000000000000 PUSH1 0x0 MSTORE PUSH1 0x11 PUSH1 0x4 MSTORE PUSH1 0x24 PUSH1 0x0 REVERT JUMPDEST PUSH1 0x0 PUSH2 0x2678 DUP3 PUSH2 0x20AD JUMP JUMPDEST SWAP2 POP PUSH32 0xFFFFFFFFFFFFFFFFFFFFFFFFFFFFFFFFFFFFFFFFFFFFFFFFFFFFFFFFFFFFFFFF DUP3 SUB PUSH2 0x26AA JUMPI PUSH2 0x26A9 PUSH2 0x263E JUMP JUMPDEST JUMPDEST PUSH1 0x1 DUP3 ADD SWAP1 POP SWAP2 SWAP1 POP JUMP JUMPDEST PUSH32 0x7573657220616C72656164792065786973740000000000000000000000000000 PUSH1 0x0 DUP3 ADD MSTORE POP JUMP JUMPDEST PUSH1 0x0 PUSH2 0x26EB PUSH1 0x12 DUP4 PUSH2 0x1F12 JUMP JUMPDEST SWAP2 POP PUSH2 0x26F6 DUP3 PUSH2 0x26B5 JUMP JUMPDEST PUSH1 0x20 DUP3 ADD SWAP1 POP SWAP2 SWAP1 POP JUMP JUMPDEST PUSH1 0x0 PUSH1 0x20 DUP3 ADD SWAP1 POP DUP2 DUP2 SUB PUSH1 0x0 DUP4 ADD MSTORE PUSH2 0x271A DUP2 PUSH2 0x26DE JUMP JUMPDEST SWAP1 POP SWAP2 SWAP1 POP JUMP JUMPDEST PUSH1 0x0 PUSH2 0x272C DUP3 PUSH2 0x20AD JUMP JUMPDEST SWAP2 POP PUSH2 0x2737 DUP4 PUSH2 0x20AD JUMP JUMPDEST SWAP3 POP DUP3 DUP3 SUB SWAP1 POP DUP2 DUP2 GT ISZERO PUSH2 0x274F JUMPI PUSH2 0x274E PUSH2 0x263E JUMP JUMPDEST JUMPDEST SWAP3 SWAP2 POP POP JUMP JUMPDEST PUSH1 0x0 PUSH1 0x40 DUP3 ADD SWAP1 POP PUSH2 0x276A PUSH1 0x0 DUP4 ADD DUP6 PUSH2 0x25BC JUMP JUMPDEST PUSH2 0x2777 PUSH1 0x20 DUP4 ADD DUP5 PUSH2 0x2341 JUMP JUMPDEST SWAP4 SWAP3 POP POP POP JUMP JUMPDEST PUSH32 0x616C726561647920766F74656400000000000000000000000000000000000000 PUSH1 0x0 DUP3 ADD MSTORE POP JUMP JUMPDEST PUSH1 0x0 PUSH2 0x27B4 PUSH1 0xD DUP4 PUSH2 0x1F12 JUMP JUMPDEST SWAP2 POP PUSH2 0x27BF DUP3 PUSH2 0x277E JUMP JUMPDEST PUSH1 0x20 DUP3 ADD SWAP1 POP SWAP2 SWAP1 POP JUMP JUMPDEST PUSH1 0x0 PUSH1 0x20 DUP3 ADD SWAP1 POP DUP2 DUP2 SUB PUSH1 0x0 DUP4 ADD MSTORE PUSH2 0x27E3 DUP2 PUSH2 0x27A7 JUMP JUMPDEST SWAP1 POP SWAP2 SWAP1 POP JUMP JUMPDEST PUSH1 0x0 PUSH2 0x27F5 DUP3 PUSH2 0x20AD JUMP JUMPDEST SWAP2 POP PUSH2 0x2800 DUP4 PUSH2 0x20AD JUMP JUMPDEST SWAP3 POP DUP3 DUP3 MUL PUSH2 0x280E DUP2 PUSH2 0x20AD JUMP JUMPDEST SWAP2 POP DUP3 DUP3 DIV DUP5 EQ DUP4 ISZERO OR PUSH2 0x2825 JUMPI PUSH2 0x2824 PUSH2 0x263E JUMP JUMPDEST JUMPDEST POP SWAP3 SWAP2 POP POP JUMP JUMPDEST PUSH32 0x4E487B7100000000000000000000000000000000000000000000000000000000 PUSH1 0x0 MSTORE PUSH1 0x12 PUSH1 0x4 MSTORE PUSH1 0x24 PUSH1 0x0 REVERT JUMPDEST PUSH1 0x0 PUSH2 0x2866 DUP3 PUSH2 0x20AD JUMP JUMPDEST SWAP2 POP PUSH2 0x2871 DUP4 PUSH2 0x20AD JUMP JUMPDEST SWAP3 POP DUP3 PUSH2 0x2881 JUMPI PUSH2 0x2880 PUSH2 0x282C JUMP JUMPDEST JUMPDEST DUP3 DUP3 DIV SWAP1 POP SWAP3 SWAP2 POP POP JUMP JUMPDEST PUSH32 0x596F7520617265206E6F742076616C696461746F727300000000000000000000 PUSH1 0x0 DUP3 ADD MSTORE POP JUMP JUMPDEST PUSH1 0x0 PUSH2 0x28C2 PUSH1 0x16 DUP4 PUSH2 0x1F12 JUMP JUMPDEST SWAP2 POP PUSH2 0x28CD DUP3 PUSH2 0x288C JUMP JUMPDEST PUSH1 0x20 DUP3 ADD SWAP1 POP SWAP2 SWAP1 POP JUMP JUMPDEST PUSH1 0x0 PUSH1 0x20 DUP3 ADD SWAP1 POP DUP2 DUP2 SUB PUSH1 0x0 DUP4 ADD MSTORE PUSH2 0x28F1 DUP2 PUSH2 0x28B5 JUMP JUMPDEST SWAP1 POP SWAP2 SWAP1 POP JUMP JUMPDEST PUSH1 0x0 PUSH2 0x2903 DUP3 PUSH2 0x20AD JUMP JUMPDEST SWAP2 POP PUSH1 0x0 DUP3 SUB PUSH2 0x2916 JUMPI PUSH2 0x2915 PUSH2 0x263E JUMP JUMPDEST JUMPDEST PUSH1 0x1 DUP3 SUB SWAP1 POP SWAP2 SWAP1 POP JUMP JUMPDEST PUSH32 0x73656E6420312065746800000000000000000000000000000000000000000000 PUSH1 0x0 DUP3 ADD MSTORE POP JUMP JUMPDEST PUSH1 0x0 PUSH2 0x2957 PUSH1 0xA DUP4 PUSH2 0x1F12 JUMP JUMPDEST SWAP2 POP PUSH2 0x2962 DUP3 PUSH2 0x2921 JUMP JUMPDEST PUSH1 0x20 DUP3 ADD SWAP1 POP SWAP2 SWAP1 POP JUMP JUMPDEST PUSH1 0x0 PUSH1 0x20 DUP3 ADD SWAP1 POP DUP2 DUP2 SUB PUSH1 0x0 DUP4 ADD MSTORE PUSH2 0x2986 DUP2 PUSH2 0x294A JUMP JUMPDEST SWAP1 POP SWAP2 SWAP1 POP JUMP JUMPDEST PUSH32 0x596F7520616C7265616479206172650000000000000000000000000000000000 PUSH1 0x0 DUP3 ADD MSTORE POP JUMP JUMPDEST PUSH1 0x0 PUSH2 0x29C3 PUSH1 0xF DUP4 PUSH2 0x1F12 JUMP JUMPDEST SWAP2 POP PUSH2 0x29CE DUP3 PUSH2 0x298D JUMP JUMPDEST PUSH1 0x20 DUP3 ADD SWAP1 POP SWAP2 SWAP1 POP JUMP JUMPDEST PUSH1 0x0 PUSH1 0x20 DUP3 ADD SWAP1 POP DUP2 DUP2 SUB PUSH1 0x0 DUP4 ADD MSTORE PUSH2 0x29F2 DUP2 PUSH2 0x29B6 JUMP JUMPDEST SWAP1 POP SWAP2 SWAP1 POP JUMP JUMPDEST PUSH1 0x0 DUP2 SWAP1 POP SWAP3 SWAP2 POP POP JUMP JUMPDEST POP JUMP JUMPDEST PUSH1 0x0 PUSH2 0x2A14 PUSH1 0x0 DUP4 PUSH2 0x29F9 JUMP JUMPDEST SWAP2 POP PUSH2 0x2A1F DUP3 PUSH2 0x2A04 JUMP JUMPDEST PUSH1 0x0 DUP3 ADD SWAP1 POP SWAP2 SWAP1 POP JUMP JUMPDEST PUSH1 0x0 PUSH2 0x2A35 DUP3 PUSH2 0x2A07 JUMP JUMPDEST SWAP2 POP DUP2 SWAP1 POP SWAP2 SWAP1 POP JUMP JUMPDEST PUSH32 0x4661696C656420746F2073656E64204574686572000000000000000000000000 PUSH1 0x0 DUP3 ADD MSTORE POP JUMP JUMPDEST PUSH1 0x0 PUSH2 0x2A75 PUSH1 0x14 DUP4 PUSH2 0x1F12 JUMP JUMPDEST SWAP2 POP PUSH2 0x2A80 DUP3 PUSH2 0x2A3F JUMP JUMPDEST PUSH1 0x20 DUP3 ADD SWAP1 POP SWAP2 SWAP1 POP JUMP JUMPDEST PUSH1 0x0 PUSH1 0x20 DUP3 ADD SWAP1 POP DUP2 DUP2 SUB PUSH1 0x0 DUP4 ADD MSTORE PUSH2 0x2AA4 DUP2 PUSH2 0x2A68 JUMP JUMPDEST SWAP1 POP SWAP2 SWAP1 POP JUMP INVALID LOG2 PUSH5 0x6970667358 0x22 SLT KECCAK256 PUSH13 0xC3BFCC5B0BC3F7F5CB7ADA8CCB PUSH14 0xFAA14212F9F7DA3AA3A9AEFEF640 0xFC 0xC2 LOG3 PUSH5 0x736F6C6343 STOP ADDMOD ISZERO STOP CALLER "},"methodIdentifiers":{"DAOQuorum()":"cb61bd8c","DAOVoteList(uint256)":"860734fb","addUser()":"455c928c","addValidators()":"dc070671","askDAOVote(uint8,uint256)":"1b2d6a7c","betQuorum()":"0b85000d","creatorFees()":"6694ba61","daoVoteNumber()":"0ed337ad","getDaoControlValue()":"46123d82","getDaoVoteHasVoted(uint256)":"53241b4f","platformFees()":"194a4e7e","setDaoVote(uint256,uint256)":"73a8b6c8","userList(uint256)":"9f4216e8","userNumber()":"2b4e8413","userToId(address)":"0b4805d3","validatorFees()":"72e24fdd","validatorNumber()":"139f29a1","validatorNumberRequired()":"53db7e77","validators(address)":"fa52c7d8","withdrawFromValidators()":"c5ee74eb"}}}}}