{"contracts/SimpleBet.sol":{"SimpleBet":{"abi":[{"inputs":[{"internalType":"string","name":"_betName","type":"string"},{"internalType":"string","name":"_compName1","type":"string"},{"internalType":"string","name":"_compName2","type":"string"},{"internalType":"address","name":"_betWavesOrganizerAddress","type":"address"},{"internalType":"address","name":"_betWaveDaoAddress","type":"address"}],"stateMutability":"payable","type":"constructor"},{"inputs":[],"name":"ReentrancyGuardReentrantCall","type":"error"},{"inputs":[],"name":"alreadyBet","type":"error"},{"inputs":[],"name":"feesNotPaid","type":"error"},{"inputs":[],"name":"forbidden","type":"error"},{"inputs":[],"name":"insufficientBalance","type":"error"},{"inputs":[],"name":"minimumBetAmount","type":"error"},{"inputs":[],"name":"notRegistered","type":"error"},{"anonymous":false,"inputs":[{"indexed":false,"internalType":"address","name":"","type":"address"},{"indexed":false,"internalType":"uint256","name":"","type":"uint256"},{"indexed":false,"internalType":"uint256","name":"","type":"uint256"},{"indexed":false,"internalType":"uint256","name":"","type":"uint256"},{"indexed":false,"internalType":"uint256","name":"","type":"uint256"},{"indexed":false,"internalType":"uint256","name":"","type":"uint256"},{"indexed":false,"internalType":"uint256","name":"","type":"uint256"}],"name":"newBid","type":"event"},{"stateMutability":"payable","type":"fallback"},{"inputs":[],"name":"beginEventTimestamp","outputs":[{"internalType":"uint256","name":"","type":"uint256"}],"stateMutability":"view","type":"function"},{"inputs":[],"name":"betName","outputs":[{"internalType":"string","name":"","type":"string"}],"stateMutability":"view","type":"function"},{"inputs":[],"name":"betWaveDaoAddress","outputs":[{"internalType":"address","name":"","type":"address"}],"stateMutability":"view","type":"function"},{"inputs":[],"name":"betWavesOrganizerAddress","outputs":[{"internalType":"address","name":"","type":"address"}],"stateMutability":"view","type":"function"},{"inputs":[{"internalType":"address","name":"","type":"address"}],"name":"bettors","outputs":[{"internalType":"address payable","name":"bettorAddress","type":"address"},{"internalType":"uint256","name":"betId","type":"uint256"},{"internalType":"uint256","name":"bettingAmout","type":"uint256"},{"internalType":"uint256","name":"bettingReward","type":"uint256"}],"stateMutability":"view","type":"function"},{"inputs":[{"internalType":"uint256","name":"_validatorFees","type":"uint256"}],"name":"calculateValidatorReward","outputs":[{"internalType":"uint256","name":"","type":"uint256"}],"stateMutability":"view","type":"function"},{"inputs":[{"internalType":"uint256","name":"","type":"uint256"}],"name":"competitors","outputs":[{"internalType":"string","name":"name","type":"string"},{"internalType":"uint256","name":"odd","type":"uint256"},{"internalType":"uint256","name":"betNumber","type":"uint256"},{"internalType":"uint256","name":"betAmount","type":"uint256"}],"stateMutability":"view","type":"function"},{"inputs":[],"name":"endEventTimestamp","outputs":[{"internalType":"uint256","name":"","type":"uint256"}],"stateMutability":"view","type":"function"},{"inputs":[],"name":"redeemToBettor","outputs":[],"stateMutability":"payable","type":"function"},{"inputs":[{"internalType":"uint256","name":"_plateformeFees","type":"uint256"},{"internalType":"uint256","name":"_creatorFees","type":"uint256"},{"internalType":"address","name":"_ownerAddress","type":"address"}],"name":"sendPlatfromAndCreatorFees","outputs":[],"stateMutability":"nonpayable","type":"function"},{"inputs":[{"internalType":"address","name":"_validatorAddress","type":"address"},{"internalType":"uint256","name":"_validatorReward","type":"uint256"}],"name":"sendValidatorFees","outputs":[],"stateMutability":"nonpayable","type":"function"},{"inputs":[{"internalType":"uint256","name":"_betId","type":"uint256"}],"name":"setBet","outputs":[],"stateMutability":"payable","type":"function"},{"inputs":[],"name":"setFeesBooleanToTrue","outputs":[],"stateMutability":"nonpayable","type":"function"},{"inputs":[{"internalType":"uint256","name":"_winnerId","type":"uint256"}],"name":"setWinnerId","outputs":[],"stateMutability":"nonpayable","type":"function"},{"inputs":[],"name":"totalBet","outputs":[{"internalType":"uint256","name":"","type":"uint256"}],"stateMutability":"view","type":"function"},{"inputs":[],"name":"winnerId","outputs":[{"internalType":"uint256","name":"","type":"uint256"}],"stateMutability":"view","type":"function"},{"stateMutability":"payable","type":"receive"}],"evm":{"bytecode":{"linkReferences":{},"object":"60806040526040516200269138038062002691833981810160405281019062000029919062000397565b600160008190555081600260006101000a81548173ffffffffffffffffffffffffffffffffffffffff021916908373ffffffffffffffffffffffffffffffffffffffff16021790555080600360006101000a81548173ffffffffffffffffffffffffffffffffffffffff021916908373ffffffffffffffffffffffffffffffffffffffff1602179055508460019081620000c49190620006c7565b5083600960008081526020019081526020016000206000019081620000ea9190620006c7565b508260096000600181526020019081526020016000206000019081620001119190620006c7565b5081600b60006101000a81548173ffffffffffffffffffffffffffffffffffffffff021916908373ffffffffffffffffffffffffffffffffffffffff16021790555080600c60006101000a81548173ffffffffffffffffffffffffffffffffffffffff021916908373ffffffffffffffffffffffffffffffffffffffff1602179055505050505050620007ae565b6000604051905090565b600080fd5b600080fd5b600080fd5b600080fd5b6000601f19601f8301169050919050565b7f4e487b7100000000000000000000000000000000000000000000000000000000600052604160045260246000fd5b6200020882620001bd565b810181811067ffffffffffffffff821117156200022a5762000229620001ce565b5b80604052505050565b60006200023f6200019f565b90506200024d8282620001fd565b919050565b600067ffffffffffffffff82111562000270576200026f620001ce565b5b6200027b82620001bd565b9050602081019050919050565b60005b83811015620002a85780820151818401526020810190506200028b565b60008484015250505050565b6000620002cb620002c58462000252565b62000233565b905082815260208101848484011115620002ea57620002e9620001b8565b5b620002f784828562000288565b509392505050565b600082601f830112620003175762000316620001b3565b5b815162000329848260208601620002b4565b91505092915050565b600073ffffffffffffffffffffffffffffffffffffffff82169050919050565b60006200035f8262000332565b9050919050565b620003718162000352565b81146200037d57600080fd5b50565b600081519050620003918162000366565b92915050565b600080600080600060a08688031215620003b657620003b5620001a9565b5b600086015167ffffffffffffffff811115620003d757620003d6620001ae565b5b620003e588828901620002ff565b955050602086015167ffffffffffffffff811115620004095762000408620001ae565b5b6200041788828901620002ff565b945050604086015167ffffffffffffffff8111156200043b576200043a620001ae565b5b6200044988828901620002ff565b93505060606200045c8882890162000380565b92505060806200046f8882890162000380565b9150509295509295909350565b600081519050919050565b7f4e487b7100000000000000000000000000000000000000000000000000000000600052602260045260246000fd5b60006002820490506001821680620004cf57607f821691505b602082108103620004e557620004e462000487565b5b50919050565b60008190508160005260206000209050919050565b60006020601f8301049050919050565b600082821b905092915050565b6000600883026200054f7fffffffffffffffffffffffffffffffffffffffffffffffffffffffffffffffff8262000510565b6200055b868362000510565b95508019841693508086168417925050509392505050565b6000819050919050565b6000819050919050565b6000620005a8620005a26200059c8462000573565b6200057d565b62000573565b9050919050565b6000819050919050565b620005c48362000587565b620005dc620005d382620005af565b8484546200051d565b825550505050565b600090565b620005f3620005e4565b62000600818484620005b9565b505050565b5b8181101562000628576200061c600082620005e9565b60018101905062000606565b5050565b601f82111562000677576200064181620004eb565b6200064c8462000500565b810160208510156200065c578190505b620006746200066b8562000500565b83018262000605565b50505b505050565b600082821c905092915050565b60006200069c600019846008026200067c565b1980831691505092915050565b6000620006b7838362000689565b9150826002028217905092915050565b620006d2826200047c565b67ffffffffffffffff811115620006ee57620006ed620001ce565b5b620006fa8254620004b6565b620007078282856200062c565b600060209050601f8311600181146200073f57600084156200072a578287015190505b620007368582620006a9565b865550620007a6565b601f1984166200074f86620004eb565b60005b82811015620007795784890151825560018201915060208501945060208101905062000752565b8683101562000799578489015162000795601f89168262000689565b8355505b6001600288020188555050505b505050505050565b611ed380620007be6000396000f3fe6080604052600436106100f75760003560e01c8063ad05d9c31161008a578063dc09f68211610059578063dc09f682146103be578063e8399cc6146103e7578063ebfb665214610403578063fe5e18531461044057610181565b8063ad05d9c314610335578063c6073c661461033f578063cf9594291461036a578063d93e03b01461039357610181565b80639d86801f116100c65780639d86801f14610288578063a14de028146102c8578063a32b3487146102f3578063a99073ae1461031e57610181565b806322010c1f146101c95780635c3a3e5c14610209578063607075fc1461023257806391e0d5931461025d57610181565b3661018157640b68a0aa00341161013a576040517f78e9f1ba00000000000000000000000000000000000000000000000000000000815260040160405180910390fd5b61c35034101561017f576040517f08c379a00000000000000000000000000000000000000000000000000000000081526004016101769061158d565b60405180910390fd5b005b600080369050146101c7576040517f08c379a00000000000000000000000000000000000000000000000000000000081526004016101be906115f9565b60405180910390fd5b005b3480156101d557600080fd5b506101f060048036038101906101eb919061167c565b61046b565b60405161020094939291906116e3565b60405180910390f35b34801561021557600080fd5b50610230600480360381019061022b9190611754565b6104bb565b005b34801561023e57600080fd5b5061024761063f565b6040516102549190611826565b60405180910390f35b34801561026957600080fd5b506102726106cd565b60405161027f9190611848565b60405180910390f35b34801561029457600080fd5b506102af60048036038101906102aa9190611863565b6106d3565b6040516102bf9493929190611890565b60405180910390f35b3480156102d457600080fd5b506102dd61078b565b6040516102ea9190611848565b60405180910390f35b3480156102ff57600080fd5b50610308610791565b6040516103159190611848565b60405180910390f35b34801561032a57600080fd5b50610333610797565b005b61033d610843565b005b34801561034b57600080fd5b50610354610b7c565b60405161036191906118eb565b60405180910390f35b34801561037657600080fd5b50610391600480360381019061038c9190611906565b610ba2565b005b34801561039f57600080fd5b506103a8610c81565b6040516103b591906118eb565b60405180910390f35b3480156103ca57600080fd5b506103e560048036038101906103e09190611863565b610ca7565b005b61040160048036038101906103fc9190611863565b610d38565b005b34801561040f57600080fd5b5061042a60048036038101906104259190611863565b611129565b6040516104379190611848565b60405180910390f35b34801561044c57600080fd5b506104556111fe565b6040516104629190611848565b60405180910390f35b600a6020528060005260406000206000915090508060000160009054906101000a900473ffffffffffffffffffffffffffffffffffffffff16908060010154908060020154908060030154905084565b6104c3611204565b600047116104fd576040517f47108e3e00000000000000000000000000000000000000000000000000000000815260040160405180910390fd5b600b60009054906101000a900473ffffffffffffffffffffffffffffffffffffffff1673ffffffffffffffffffffffffffffffffffffffff163373ffffffffffffffffffffffffffffffffffffffff1614610584576040517f8679b0c000000000000000000000000000000000000000000000000000000000815260040160405180910390fd5b600c60149054906101000a900460ff16156105d4576040517f08c379a00000000000000000000000000000000000000000000000000000000081526004016105cb90611992565b60405180910390fd5b6000479050600084826105e79190611a10565b9050600084836105f79190611a10565b9050610625600c60009054906101000a900473ffffffffffffffffffffffffffffffffffffffff168361124a565b61062f848261124a565b50505061063a6112fe565b505050565b6001805461064c90611a70565b80601f016020809104026020016040519081016040528092919081815260200182805461067890611a70565b80156106c55780601f1061069a576101008083540402835291602001916106c5565b820191906000526020600020905b8154815290600101906020018083116106a857829003601f168201915b505050505081565b60075481565b60096020528060005260406000206000915090508060000180546106f690611a70565b80601f016020809104026020016040519081016040528092919081815260200182805461072290611a70565b801561076f5780601f106107445761010080835404028352916020019161076f565b820191906000526020600020905b81548152906001019060200180831161075257829003601f168201915b5050505050908060010154908060020154908060030154905084565b60045481565b60055481565b600b60009054906101000a900473ffffffffffffffffffffffffffffffffffffffff1673ffffffffffffffffffffffffffffffffffffffff163373ffffffffffffffffffffffffffffffffffffffff161461081e576040517f8679b0c000000000000000000000000000000000000000000000000000000000815260040160405180910390fd5b6001600c60146101000a81548160ff021916908315150217905550610841611308565b565b61084b611204565b600c60149054906101000a900460ff16610891576040517f0541f1f000000000000000000000000000000000000000000000000000000000815260040160405180910390fd5b3373ffffffffffffffffffffffffffffffffffffffff16600a60003373ffffffffffffffffffffffffffffffffffffffff1673ffffffffffffffffffffffffffffffffffffffff16815260200190815260200160002060000160009054906101000a900473ffffffffffffffffffffffffffffffffffffffff1673ffffffffffffffffffffffffffffffffffffffff1614610961576040517f08c379a000000000000000000000000000000000000000000000000000000000815260040161095890611aed565b60405180910390fd5b600c60149054906101000a900460ff166109b0576040517f08c379a00000000000000000000000000000000000000000000000000000000081526004016109a790611b59565b60405180910390fd5b600754600a60003373ffffffffffffffffffffffffffffffffffffffff1673ffffffffffffffffffffffffffffffffffffffff1681526020019081526020016000206001015414610a36576040517f08c379a0000000000000000000000000000000000000000000000000000000008152600401610a2d90611bc5565b60405180910390fd5b6064600854600a60003373ffffffffffffffffffffffffffffffffffffffff1673ffffffffffffffffffffffffffffffffffffffff16815260200190815260200160002060020154610a889190611be5565b610a929190611a10565b600a60003373ffffffffffffffffffffffffffffffffffffffff1673ffffffffffffffffffffffffffffffffffffffff168152602001908152602001600020600301819055506000600a60003373ffffffffffffffffffffffffffffffffffffffff1673ffffffffffffffffffffffffffffffffffffffff1681526020019081526020016000206003015490506000600a60003373ffffffffffffffffffffffffffffffffffffffff1673ffffffffffffffffffffffffffffffffffffffff16815260200190815260200160002060030181905550610b71338261124a565b50610b7a6112fe565b565b600b60009054906101000a900473ffffffffffffffffffffffffffffffffffffffff1681565b610baa611204565b600b60009054906101000a900473ffffffffffffffffffffffffffffffffffffffff1673ffffffffffffffffffffffffffffffffffffffff163373ffffffffffffffffffffffffffffffffffffffff1614610c31576040517f8679b0c000000000000000000000000000000000000000000000000000000000815260040160405180910390fd5b60004711610c6b576040517f47108e3e00000000000000000000000000000000000000000000000000000000815260040160405180910390fd5b610c75828261124a565b610c7d6112fe565b5050565b600c60009054906101000a900473ffffffffffffffffffffffffffffffffffffffff1681565b600b60009054906101000a900473ffffffffffffffffffffffffffffffffffffffff1673ffffffffffffffffffffffffffffffffffffffff163373ffffffffffffffffffffffffffffffffffffffff1614610d2e576040517f8679b0c000000000000000000000000000000000000000000000000000000000815260040160405180910390fd5b8060078190555050565b610d40611204565b343373ffffffffffffffffffffffffffffffffffffffff16311015610d91576040517f47108e3e00000000000000000000000000000000000000000000000000000000815260040160405180910390fd5b640b68a0aa003411610dcf576040517f78e9f1ba00000000000000000000000000000000000000000000000000000000815260040160405180910390fd5b3373ffffffffffffffffffffffffffffffffffffffff16600a60003373ffffffffffffffffffffffffffffffffffffffff1673ffffffffffffffffffffffffffffffffffffffff16815260200190815260200160002060000160009054906101000a900473ffffffffffffffffffffffffffffffffffffffff1673ffffffffffffffffffffffffffffffffffffffff1603610e96576040517f8424505800000000000000000000000000000000000000000000000000000000815260040160405180910390fd5b6000600360009054906101000a900473ffffffffffffffffffffffffffffffffffffffff1673ffffffffffffffffffffffffffffffffffffffff16630b4805d3336040518263ffffffff1660e01b8152600401610ef391906118eb565b602060405180830381865afa158015610f10573d6000803e3d6000fd5b505050506040513d601f19601f82011682018060405250810190610f349190611c67565b67ffffffffffffffff1603610f75576040517f3a70817d00000000000000000000000000000000000000000000000000000000815260040160405180910390fd5b6001811115610fb9576040517f08c379a0000000000000000000000000000000000000000000000000000000008152600401610fb090611ce0565b60405180910390fd5b610fc3303461124a565b60066000815480929190610fd690611d00565b919050555060096000828152602001908152602001600020600201600081548092919061100290611d00565b91905055503460096000838152602001908152602001600020600301546110299190611d48565b600960008381526020019081526020016000206003018190555061104b611386565b6110548161141e565b7fbabd4d8ad6be16c6a1ac0b279aaad4eb273f40de86a3c6ac350147fc9bbdbda3306009600080815260200190815260200160002060020154600960008081526020019081526020016000206003015460096000808152602001908152602001600020600101546009600060018152602001908152602001600020600201546009600060018152602001908152602001600020600301546009600060018152602001908152602001600020600101546040516111169796959493929190611d7c565b60405180910390a16111266112fe565b50565b6000804711611164576040517f47108e3e00000000000000000000000000000000000000000000000000000000815260040160405180910390fd5b600b60009054906101000a900473ffffffffffffffffffffffffffffffffffffffff1673ffffffffffffffffffffffffffffffffffffffff163373ffffffffffffffffffffffffffffffffffffffff16146111eb576040517f8679b0c000000000000000000000000000000000000000000000000000000000815260040160405180910390fd5b81476111f79190611a10565b9050919050565b60065481565b600260005403611240576040517f3ee5aeb500000000000000000000000000000000000000000000000000000000815260040160405180910390fd5b6002600081905550565b6000808373ffffffffffffffffffffffffffffffffffffffff168360405161127190611e1c565b60006040518083038185875af1925050503d80600081146112ae576040519150601f19603f3d011682016040523d82523d6000602084013e6112b3565b606091505b5091509150816112f8576040517f08c379a00000000000000000000000000000000000000000000000000000000081526004016112ef90611e7d565b60405180910390fd5b50505050565b6001600081905550565b600c60149054906101000a900460ff1661134e576040517f0541f1f000000000000000000000000000000000000000000000000000000000815260040160405180910390fd5b600960006007548152602001908152602001600020600301546064476113749190611be5565b61137e9190611a10565b600881905550565b600654606460096000808152602001908152602001600020600201546113ac9190611be5565b6113b69190611a10565b600960008081526020019081526020016000206001018190555060065460646009600060018152602001908152602001600020600201546113f79190611be5565b6114019190611a10565b600960006001815260200190815260200160002060010181905550565b33600a60003373ffffffffffffffffffffffffffffffffffffffff1673ffffffffffffffffffffffffffffffffffffffff16815260200190815260200160002060000160006101000a81548173ffffffffffffffffffffffffffffffffffffffff021916908373ffffffffffffffffffffffffffffffffffffffff16021790555080600a60003373ffffffffffffffffffffffffffffffffffffffff1673ffffffffffffffffffffffffffffffffffffffff1681526020019081526020016000206001018190555034600a60003373ffffffffffffffffffffffffffffffffffffffff1673ffffffffffffffffffffffffffffffffffffffff1681526020019081526020016000206002018190555050565b600082825260208201905092915050565b7f796f752063616e27742073656e64206c657373207468616e2035306b20776569600082015250565b6000611577602083611530565b915061158282611541565b602082019050919050565b600060208201905081810360008301526115a68161156a565b9050919050565b7f4e6f2066616c6c6261636b206465736972656400000000000000000000000000600082015250565b60006115e3601383611530565b91506115ee826115ad565b602082019050919050565b60006020820190508181036000830152611612816115d6565b9050919050565b600080fd5b600073ffffffffffffffffffffffffffffffffffffffff82169050919050565b60006116498261161e565b9050919050565b6116598161163e565b811461166457600080fd5b50565b60008135905061167681611650565b92915050565b60006020828403121561169257611691611619565b5b60006116a084828501611667565b91505092915050565b60006116b48261161e565b9050919050565b6116c4816116a9565b82525050565b6000819050919050565b6116dd816116ca565b82525050565b60006080820190506116f860008301876116bb565b61170560208301866116d4565b61171260408301856116d4565b61171f60608301846116d4565b95945050505050565b611731816116ca565b811461173c57600080fd5b50565b60008135905061174e81611728565b92915050565b60008060006060848603121561176d5761176c611619565b5b600061177b8682870161173f565b935050602061178c8682870161173f565b925050604061179d86828701611667565b9150509250925092565b600081519050919050565b60005b838110156117d05780820151818401526020810190506117b5565b60008484015250505050565b6000601f19601f8301169050919050565b60006117f8826117a7565b6118028185611530565b93506118128185602086016117b2565b61181b816117dc565b840191505092915050565b6000602082019050818103600083015261184081846117ed565b905092915050565b600060208201905061185d60008301846116d4565b92915050565b60006020828403121561187957611878611619565b5b60006118878482850161173f565b91505092915050565b600060808201905081810360008301526118aa81876117ed565b90506118b960208301866116d4565b6118c660408301856116d4565b6118d360608301846116d4565b95945050505050565b6118e58161163e565b82525050565b600060208201905061190060008301846118dc565b92915050565b6000806040838503121561191d5761191c611619565b5b600061192b85828601611667565b925050602061193c8582860161173f565b9150509250929050565b7f66656520616c7265616479207061696400000000000000000000000000000000600082015250565b600061197c601083611530565b915061198782611946565b602082019050919050565b600060208201905081810360008301526119ab8161196f565b9050919050565b7f4e487b7100000000000000000000000000000000000000000000000000000000600052601260045260246000fd5b7f4e487b7100000000000000000000000000000000000000000000000000000000600052601160045260246000fd5b6000611a1b826116ca565b9150611a26836116ca565b925082611a3657611a356119b2565b5b828204905092915050565b7f4e487b7100000000000000000000000000000000000000000000000000000000600052602260045260246000fd5b60006002820490506001821680611a8857607f821691505b602082108103611a9b57611a9a611a41565b5b50919050565b7f596f7520646f6e27742070617274696369706174650000000000000000000000600082015250565b6000611ad7601583611530565b9150611ae282611aa1565b602082019050919050565b60006020820190508181036000830152611b0681611aca565b9050919050565b7f70617920706c6174666f726d2066656520666972737400000000000000000000600082015250565b6000611b43601683611530565b9150611b4e82611b0d565b602082019050919050565b60006020820190508181036000830152611b7281611b36565b9050919050565b7f6e6f206761696e00000000000000000000000000000000000000000000000000600082015250565b6000611baf600783611530565b9150611bba82611b79565b602082019050919050565b60006020820190508181036000830152611bde81611ba2565b9050919050565b6000611bf0826116ca565b9150611bfb836116ca565b9250828202611c09816116ca565b91508282048414831517611c2057611c1f6119e1565b5b5092915050565b600067ffffffffffffffff82169050919050565b611c4481611c27565b8114611c4f57600080fd5b50565b600081519050611c6181611c3b565b92915050565b600060208284031215611c7d57611c7c611619565b5b6000611c8b84828501611c52565b91505092915050565b7f636f6d70657469746f7220646f6e277420657869737400000000000000000000600082015250565b6000611cca601683611530565b9150611cd582611c94565b602082019050919050565b60006020820190508181036000830152611cf981611cbd565b9050919050565b6000611d0b826116ca565b91507fffffffffffffffffffffffffffffffffffffffffffffffffffffffffffffffff8203611d3d57611d3c6119e1565b5b600182019050919050565b6000611d53826116ca565b9150611d5e836116ca565b9250828201905080821115611d7657611d756119e1565b5b92915050565b600060e082019050611d91600083018a6118dc565b611d9e60208301896116d4565b611dab60408301886116d4565b611db860608301876116d4565b611dc560808301866116d4565b611dd260a08301856116d4565b611ddf60c08301846116d4565b98975050505050505050565b600081905092915050565b50565b6000611e06600083611deb565b9150611e1182611df6565b600082019050919050565b6000611e2782611df9565b9150819050919050565b7f4661696c656420746f2073656e64204574686572000000000000000000000000600082015250565b6000611e67601483611530565b9150611e7282611e31565b602082019050919050565b60006020820190508181036000830152611e9681611e5a565b905091905056fea26469706673582212209b3e79eb548d2fad933502b0759dc311fdc0d10d1e3a8916a57794fd1d6dd73364736f6c63430008150033","opcodes":"PUSH1 0x80 PUSH1 0x40 MSTORE PUSH1 0x40 MLOAD PUSH3 0x2691 CODESIZE SUB DUP1 PUSH3 0x2691 DUP4 CODECOPY DUP2 DUP2 ADD PUSH1 0x40 MSTORE DUP2 ADD SWAP1 PUSH3 0x29 SWAP2 SWAP1 PUSH3 0x397 JUMP JUMPDEST PUSH1 0x1 PUSH1 0x0 DUP2 SWAP1 SSTORE POP DUP2 PUSH1 0x2 PUSH1 0x0 PUSH2 0x100 EXP DUP2 SLOAD DUP2 PUSH20 0xFFFFFFFFFFFFFFFFFFFFFFFFFFFFFFFFFFFFFFFF MUL NOT AND SWAP1 DUP4 PUSH20 0xFFFFFFFFFFFFFFFFFFFFFFFFFFFFFFFFFFFFFFFF AND MUL OR SWAP1 SSTORE POP DUP1 PUSH1 0x3 PUSH1 0x0 PUSH2 0x100 EXP DUP2 SLOAD DUP2 PUSH20 0xFFFFFFFFFFFFFFFFFFFFFFFFFFFFFFFFFFFFFFFF MUL NOT AND SWAP1 DUP4 PUSH20 0xFFFFFFFFFFFFFFFFFFFFFFFFFFFFFFFFFFFFFFFF AND MUL OR SWAP1 SSTORE POP DUP5 PUSH1 0x1 SWAP1 DUP2 PUSH3 0xC4 SWAP2 SWAP1 PUSH3 0x6C7 JUMP JUMPDEST POP DUP4 PUSH1 0x9 PUSH1 0x0 DUP1 DUP2 MSTORE PUSH1 0x20 ADD SWAP1 DUP2 MSTORE PUSH1 0x20 ADD PUSH1 0x0 KECCAK256 PUSH1 0x0 ADD SWAP1 DUP2 PUSH3 0xEA SWAP2 SWAP1 PUSH3 0x6C7 JUMP JUMPDEST POP DUP3 PUSH1 0x9 PUSH1 0x0 PUSH1 0x1 DUP2 MSTORE PUSH1 0x20 ADD SWAP1 DUP2 MSTORE PUSH1 0x20 ADD PUSH1 0x0 KECCAK256 PUSH1 0x0 ADD SWAP1 DUP2 PUSH3 0x111 SWAP2 SWAP1 PUSH3 0x6C7 JUMP JUMPDEST POP DUP2 PUSH1 0xB PUSH1 0x0 PUSH2 0x100 EXP DUP2 SLOAD DUP2 PUSH20 0xFFFFFFFFFFFFFFFFFFFFFFFFFFFFFFFFFFFFFFFF MUL NOT AND SWAP1 DUP4 PUSH20 0xFFFFFFFFFFFFFFFFFFFFFFFFFFFFFFFFFFFFFFFF AND MUL OR SWAP1 SSTORE POP DUP1 PUSH1 0xC PUSH1 0x0 PUSH2 0x100 EXP DUP2 SLOAD DUP2 PUSH20 0xFFFFFFFFFFFFFFFFFFFFFFFFFFFFFFFFFFFFFFFF MUL NOT AND SWAP1 DUP4 PUSH20 0xFFFFFFFFFFFFFFFFFFFFFFFFFFFFFFFFFFFFFFFF AND MUL OR SWAP1 SSTORE POP POP POP POP POP POP PUSH3 0x7AE JUMP JUMPDEST PUSH1 0x0 PUSH1 0x40 MLOAD SWAP1 POP SWAP1 JUMP JUMPDEST PUSH1 0x0 DUP1 REVERT JUMPDEST PUSH1 0x0 DUP1 REVERT JUMPDEST PUSH1 0x0 DUP1 REVERT JUMPDEST PUSH1 0x0 DUP1 REVERT JUMPDEST PUSH1 0x0 PUSH1 0x1F NOT PUSH1 0x1F DUP4 ADD AND SWAP1 POP SWAP2 SWAP1 POP JUMP JUMPDEST PUSH32 0x4E487B7100000000000000000000000000000000000000000000000000000000 PUSH1 0x0 MSTORE PUSH1 0x41 PUSH1 0x4 MSTORE PUSH1 0x24 PUSH1 0x0 REVERT JUMPDEST PUSH3 0x208 DUP3 PUSH3 0x1BD JUMP JUMPDEST DUP2 ADD DUP2 DUP2 LT PUSH8 0xFFFFFFFFFFFFFFFF DUP3 GT OR ISZERO PUSH3 0x22A JUMPI PUSH3 0x229 PUSH3 0x1CE JUMP JUMPDEST JUMPDEST DUP1 PUSH1 0x40 MSTORE POP POP POP JUMP JUMPDEST PUSH1 0x0 PUSH3 0x23F PUSH3 0x19F JUMP JUMPDEST SWAP1 POP PUSH3 0x24D DUP3 DUP3 PUSH3 0x1FD JUMP JUMPDEST SWAP2 SWAP1 POP JUMP JUMPDEST PUSH1 0x0 PUSH8 0xFFFFFFFFFFFFFFFF DUP3 GT ISZERO PUSH3 0x270 JUMPI PUSH3 0x26F PUSH3 0x1CE JUMP JUMPDEST JUMPDEST PUSH3 0x27B DUP3 PUSH3 0x1BD JUMP JUMPDEST SWAP1 POP PUSH1 0x20 DUP2 ADD SWAP1 POP SWAP2 SWAP1 POP JUMP JUMPDEST PUSH1 0x0 JUMPDEST DUP4 DUP2 LT ISZERO PUSH3 0x2A8 JUMPI DUP1 DUP3 ADD MLOAD DUP2 DUP5 ADD MSTORE PUSH1 0x20 DUP2 ADD SWAP1 POP PUSH3 0x28B JUMP JUMPDEST PUSH1 0x0 DUP5 DUP5 ADD MSTORE POP POP POP POP JUMP JUMPDEST PUSH1 0x0 PUSH3 0x2CB PUSH3 0x2C5 DUP5 PUSH3 0x252 JUMP JUMPDEST PUSH3 0x233 JUMP JUMPDEST SWAP1 POP DUP3 DUP2 MSTORE PUSH1 0x20 DUP2 ADD DUP5 DUP5 DUP5 ADD GT ISZERO PUSH3 0x2EA JUMPI PUSH3 0x2E9 PUSH3 0x1B8 JUMP JUMPDEST JUMPDEST PUSH3 0x2F7 DUP5 DUP3 DUP6 PUSH3 0x288 JUMP JUMPDEST POP SWAP4 SWAP3 POP POP POP JUMP JUMPDEST PUSH1 0x0 DUP3 PUSH1 0x1F DUP4 ADD SLT PUSH3 0x317 JUMPI PUSH3 0x316 PUSH3 0x1B3 JUMP JUMPDEST JUMPDEST DUP2 MLOAD PUSH3 0x329 DUP5 DUP3 PUSH1 0x20 DUP7 ADD PUSH3 0x2B4 JUMP JUMPDEST SWAP2 POP POP SWAP3 SWAP2 POP POP JUMP JUMPDEST PUSH1 0x0 PUSH20 0xFFFFFFFFFFFFFFFFFFFFFFFFFFFFFFFFFFFFFFFF DUP3 AND SWAP1 POP SWAP2 SWAP1 POP JUMP JUMPDEST PUSH1 0x0 PUSH3 0x35F DUP3 PUSH3 0x332 JUMP JUMPDEST SWAP1 POP SWAP2 SWAP1 POP JUMP JUMPDEST PUSH3 0x371 DUP2 PUSH3 0x352 JUMP JUMPDEST DUP2 EQ PUSH3 0x37D JUMPI PUSH1 0x0 DUP1 REVERT JUMPDEST POP JUMP JUMPDEST PUSH1 0x0 DUP2 MLOAD SWAP1 POP PUSH3 0x391 DUP2 PUSH3 0x366 JUMP JUMPDEST SWAP3 SWAP2 POP POP JUMP JUMPDEST PUSH1 0x0 DUP1 PUSH1 0x0 DUP1 PUSH1 0x0 PUSH1 0xA0 DUP7 DUP9 SUB SLT ISZERO PUSH3 0x3B6 JUMPI PUSH3 0x3B5 PUSH3 0x1A9 JUMP JUMPDEST JUMPDEST PUSH1 0x0 DUP7 ADD MLOAD PUSH8 0xFFFFFFFFFFFFFFFF DUP2 GT ISZERO PUSH3 0x3D7 JUMPI PUSH3 0x3D6 PUSH3 0x1AE JUMP JUMPDEST JUMPDEST PUSH3 0x3E5 DUP9 DUP3 DUP10 ADD PUSH3 0x2FF JUMP JUMPDEST SWAP6 POP POP PUSH1 0x20 DUP7 ADD MLOAD PUSH8 0xFFFFFFFFFFFFFFFF DUP2 GT ISZERO PUSH3 0x409 JUMPI PUSH3 0x408 PUSH3 0x1AE JUMP JUMPDEST JUMPDEST PUSH3 0x417 DUP9 DUP3 DUP10 ADD PUSH3 0x2FF JUMP JUMPDEST SWAP5 POP POP PUSH1 0x40 DUP7 ADD MLOAD PUSH8 0xFFFFFFFFFFFFFFFF DUP2 GT ISZERO PUSH3 0x43B JUMPI PUSH3 0x43A PUSH3 0x1AE JUMP JUMPDEST JUMPDEST PUSH3 0x449 DUP9 DUP3 DUP10 ADD PUSH3 0x2FF JUMP JUMPDEST SWAP4 POP POP PUSH1 0x60 PUSH3 0x45C DUP9 DUP3 DUP10 ADD PUSH3 0x380 JUMP JUMPDEST SWAP3 POP POP PUSH1 0x80 PUSH3 0x46F DUP9 DUP3 DUP10 ADD PUSH3 0x380 JUMP JUMPDEST SWAP2 POP POP SWAP3 SWAP6 POP SWAP3 SWAP6 SWAP1 SWAP4 POP JUMP JUMPDEST PUSH1 0x0 DUP2 MLOAD SWAP1 POP SWAP2 SWAP1 POP JUMP JUMPDEST PUSH32 0x4E487B7100000000000000000000000000000000000000000000000000000000 PUSH1 0x0 MSTORE PUSH1 0x22 PUSH1 0x4 MSTORE PUSH1 0x24 PUSH1 0x0 REVERT JUMPDEST PUSH1 0x0 PUSH1 0x2 DUP3 DIV SWAP1 POP PUSH1 0x1 DUP3 AND DUP1 PUSH3 0x4CF JUMPI PUSH1 0x7F DUP3 AND SWAP2 POP JUMPDEST PUSH1 0x20 DUP3 LT DUP2 SUB PUSH3 0x4E5 JUMPI PUSH3 0x4E4 PUSH3 0x487 JUMP JUMPDEST JUMPDEST POP SWAP2 SWAP1 POP JUMP JUMPDEST PUSH1 0x0 DUP2 SWAP1 POP DUP2 PUSH1 0x0 MSTORE PUSH1 0x20 PUSH1 0x0 KECCAK256 SWAP1 POP SWAP2 SWAP1 POP JUMP JUMPDEST PUSH1 0x0 PUSH1 0x20 PUSH1 0x1F DUP4 ADD DIV SWAP1 POP SWAP2 SWAP1 POP JUMP JUMPDEST PUSH1 0x0 DUP3 DUP3 SHL SWAP1 POP SWAP3 SWAP2 POP POP JUMP JUMPDEST PUSH1 0x0 PUSH1 0x8 DUP4 MUL PUSH3 0x54F PUSH32 0xFFFFFFFFFFFFFFFFFFFFFFFFFFFFFFFFFFFFFFFFFFFFFFFFFFFFFFFFFFFFFFFF DUP3 PUSH3 0x510 JUMP JUMPDEST PUSH3 0x55B DUP7 DUP4 PUSH3 0x510 JUMP JUMPDEST SWAP6 POP DUP1 NOT DUP5 AND SWAP4 POP DUP1 DUP7 AND DUP5 OR SWAP3 POP POP POP SWAP4 SWAP3 POP POP POP JUMP JUMPDEST PUSH1 0x0 DUP2 SWAP1 POP SWAP2 SWAP1 POP JUMP JUMPDEST PUSH1 0x0 DUP2 SWAP1 POP SWAP2 SWAP1 POP JUMP JUMPDEST PUSH1 0x0 PUSH3 0x5A8 PUSH3 0x5A2 PUSH3 0x59C DUP5 PUSH3 0x573 JUMP JUMPDEST PUSH3 0x57D JUMP JUMPDEST PUSH3 0x573 JUMP JUMPDEST SWAP1 POP SWAP2 SWAP1 POP JUMP JUMPDEST PUSH1 0x0 DUP2 SWAP1 POP SWAP2 SWAP1 POP JUMP JUMPDEST PUSH3 0x5C4 DUP4 PUSH3 0x587 JUMP JUMPDEST PUSH3 0x5DC PUSH3 0x5D3 DUP3 PUSH3 0x5AF JUMP JUMPDEST DUP5 DUP5 SLOAD PUSH3 0x51D JUMP JUMPDEST DUP3 SSTORE POP POP POP POP JUMP JUMPDEST PUSH1 0x0 SWAP1 JUMP JUMPDEST PUSH3 0x5F3 PUSH3 0x5E4 JUMP JUMPDEST PUSH3 0x600 DUP2 DUP5 DUP5 PUSH3 0x5B9 JUMP JUMPDEST POP POP POP JUMP JUMPDEST JUMPDEST DUP2 DUP2 LT ISZERO PUSH3 0x628 JUMPI PUSH3 0x61C PUSH1 0x0 DUP3 PUSH3 0x5E9 JUMP JUMPDEST PUSH1 0x1 DUP2 ADD SWAP1 POP PUSH3 0x606 JUMP JUMPDEST POP POP JUMP JUMPDEST PUSH1 0x1F DUP3 GT ISZERO PUSH3 0x677 JUMPI PUSH3 0x641 DUP2 PUSH3 0x4EB JUMP JUMPDEST PUSH3 0x64C DUP5 PUSH3 0x500 JUMP JUMPDEST DUP2 ADD PUSH1 0x20 DUP6 LT ISZERO PUSH3 0x65C JUMPI DUP2 SWAP1 POP JUMPDEST PUSH3 0x674 PUSH3 0x66B DUP6 PUSH3 0x500 JUMP JUMPDEST DUP4 ADD DUP3 PUSH3 0x605 JUMP JUMPDEST POP POP JUMPDEST POP POP POP JUMP JUMPDEST PUSH1 0x0 DUP3 DUP3 SHR SWAP1 POP SWAP3 SWAP2 POP POP JUMP JUMPDEST PUSH1 0x0 PUSH3 0x69C PUSH1 0x0 NOT DUP5 PUSH1 0x8 MUL PUSH3 0x67C JUMP JUMPDEST NOT DUP1 DUP4 AND SWAP2 POP POP SWAP3 SWAP2 POP POP JUMP JUMPDEST PUSH1 0x0 PUSH3 0x6B7 DUP4 DUP4 PUSH3 0x689 JUMP JUMPDEST SWAP2 POP DUP3 PUSH1 0x2 MUL DUP3 OR SWAP1 POP SWAP3 SWAP2 POP POP JUMP JUMPDEST PUSH3 0x6D2 DUP3 PUSH3 0x47C JUMP JUMPDEST PUSH8 0xFFFFFFFFFFFFFFFF DUP2 GT ISZERO PUSH3 0x6EE JUMPI PUSH3 0x6ED PUSH3 0x1CE JUMP JUMPDEST JUMPDEST PUSH3 0x6FA DUP3 SLOAD PUSH3 0x4B6 JUMP JUMPDEST PUSH3 0x707 DUP3 DUP3 DUP6 PUSH3 0x62C JUMP JUMPDEST PUSH1 0x0 PUSH1 0x20 SWAP1 POP PUSH1 0x1F DUP4 GT PUSH1 0x1 DUP2 EQ PUSH3 0x73F JUMPI PUSH1 0x0 DUP5 ISZERO PUSH3 0x72A JUMPI DUP3 DUP8 ADD MLOAD SWAP1 POP JUMPDEST PUSH3 0x736 DUP6 DUP3 PUSH3 0x6A9 JUMP JUMPDEST DUP7 SSTORE POP PUSH3 0x7A6 JUMP JUMPDEST PUSH1 0x1F NOT DUP5 AND PUSH3 0x74F DUP7 PUSH3 0x4EB JUMP JUMPDEST PUSH1 0x0 JUMPDEST DUP3 DUP2 LT ISZERO PUSH3 0x779 JUMPI DUP5 DUP10 ADD MLOAD DUP3 SSTORE PUSH1 0x1 DUP3 ADD SWAP2 POP PUSH1 0x20 DUP6 ADD SWAP5 POP PUSH1 0x20 DUP2 ADD SWAP1 POP PUSH3 0x752 JUMP JUMPDEST DUP7 DUP4 LT ISZERO PUSH3 0x799 JUMPI DUP5 DUP10 ADD MLOAD PUSH3 0x795 PUSH1 0x1F DUP10 AND DUP3 PUSH3 0x689 JUMP JUMPDEST DUP4 SSTORE POP JUMPDEST PUSH1 0x1 PUSH1 0x2 DUP9 MUL ADD DUP9 SSTORE POP POP POP JUMPDEST POP POP POP POP POP POP JUMP JUMPDEST PUSH2 0x1ED3 DUP1 PUSH3 0x7BE PUSH1 0x0 CODECOPY PUSH1 0x0 RETURN INVALID PUSH1 0x80 PUSH1 0x40 MSTORE PUSH1 0x4 CALLDATASIZE LT PUSH2 0xF7 JUMPI PUSH1 0x0 CALLDATALOAD PUSH1 0xE0 SHR DUP1 PUSH4 0xAD05D9C3 GT PUSH2 0x8A JUMPI DUP1 PUSH4 0xDC09F682 GT PUSH2 0x59 JUMPI DUP1 PUSH4 0xDC09F682 EQ PUSH2 0x3BE JUMPI DUP1 PUSH4 0xE8399CC6 EQ PUSH2 0x3E7 JUMPI DUP1 PUSH4 0xEBFB6652 EQ PUSH2 0x403 JUMPI DUP1 PUSH4 0xFE5E1853 EQ PUSH2 0x440 JUMPI PUSH2 0x181 JUMP JUMPDEST DUP1 PUSH4 0xAD05D9C3 EQ PUSH2 0x335 JUMPI DUP1 PUSH4 0xC6073C66 EQ PUSH2 0x33F JUMPI DUP1 PUSH4 0xCF959429 EQ PUSH2 0x36A JUMPI DUP1 PUSH4 0xD93E03B0 EQ PUSH2 0x393 JUMPI PUSH2 0x181 JUMP JUMPDEST DUP1 PUSH4 0x9D86801F GT PUSH2 0xC6 JUMPI DUP1 PUSH4 0x9D86801F EQ PUSH2 0x288 JUMPI DUP1 PUSH4 0xA14DE028 EQ PUSH2 0x2C8 JUMPI DUP1 PUSH4 0xA32B3487 EQ PUSH2 0x2F3 JUMPI DUP1 PUSH4 0xA99073AE EQ PUSH2 0x31E JUMPI PUSH2 0x181 JUMP JUMPDEST DUP1 PUSH4 0x22010C1F EQ PUSH2 0x1C9 JUMPI DUP1 PUSH4 0x5C3A3E5C EQ PUSH2 0x209 JUMPI DUP1 PUSH4 0x607075FC EQ PUSH2 0x232 JUMPI DUP1 PUSH4 0x91E0D593 EQ PUSH2 0x25D JUMPI PUSH2 0x181 JUMP JUMPDEST CALLDATASIZE PUSH2 0x181 JUMPI PUSH5 0xB68A0AA00 CALLVALUE GT PUSH2 0x13A JUMPI PUSH1 0x40 MLOAD PUSH32 0x78E9F1BA00000000000000000000000000000000000000000000000000000000 DUP2 MSTORE PUSH1 0x4 ADD PUSH1 0x40 MLOAD DUP1 SWAP2 SUB SWAP1 REVERT JUMPDEST PUSH2 0xC350 CALLVALUE LT ISZERO PUSH2 0x17F JUMPI PUSH1 0x40 MLOAD PUSH32 0x8C379A000000000000000000000000000000000000000000000000000000000 DUP2 MSTORE PUSH1 0x4 ADD PUSH2 0x176 SWAP1 PUSH2 0x158D JUMP JUMPDEST PUSH1 0x40 MLOAD DUP1 SWAP2 SUB SWAP1 REVERT JUMPDEST STOP JUMPDEST PUSH1 0x0 DUP1 CALLDATASIZE SWAP1 POP EQ PUSH2 0x1C7 JUMPI PUSH1 0x40 MLOAD PUSH32 0x8C379A000000000000000000000000000000000000000000000000000000000 DUP2 MSTORE PUSH1 0x4 ADD PUSH2 0x1BE SWAP1 PUSH2 0x15F9 JUMP JUMPDEST PUSH1 0x40 MLOAD DUP1 SWAP2 SUB SWAP1 REVERT JUMPDEST STOP JUMPDEST CALLVALUE DUP1 ISZERO PUSH2 0x1D5 JUMPI PUSH1 0x0 DUP1 REVERT JUMPDEST POP PUSH2 0x1F0 PUSH1 0x4 DUP1 CALLDATASIZE SUB DUP2 ADD SWAP1 PUSH2 0x1EB SWAP2 SWAP1 PUSH2 0x167C JUMP JUMPDEST PUSH2 0x46B JUMP JUMPDEST PUSH1 0x40 MLOAD PUSH2 0x200 SWAP5 SWAP4 SWAP3 SWAP2 SWAP1 PUSH2 0x16E3 JUMP JUMPDEST PUSH1 0x40 MLOAD DUP1 SWAP2 SUB SWAP1 RETURN JUMPDEST CALLVALUE DUP1 ISZERO PUSH2 0x215 JUMPI PUSH1 0x0 DUP1 REVERT JUMPDEST POP PUSH2 0x230 PUSH1 0x4 DUP1 CALLDATASIZE SUB DUP2 ADD SWAP1 PUSH2 0x22B SWAP2 SWAP1 PUSH2 0x1754 JUMP JUMPDEST PUSH2 0x4BB JUMP JUMPDEST STOP JUMPDEST CALLVALUE DUP1 ISZERO PUSH2 0x23E JUMPI PUSH1 0x0 DUP1 REVERT JUMPDEST POP PUSH2 0x247 PUSH2 0x63F JUMP JUMPDEST PUSH1 0x40 MLOAD PUSH2 0x254 SWAP2 SWAP1 PUSH2 0x1826 JUMP JUMPDEST PUSH1 0x40 MLOAD DUP1 SWAP2 SUB SWAP1 RETURN JUMPDEST CALLVALUE DUP1 ISZERO PUSH2 0x269 JUMPI PUSH1 0x0 DUP1 REVERT JUMPDEST POP PUSH2 0x272 PUSH2 0x6CD JUMP JUMPDEST PUSH1 0x40 MLOAD PUSH2 0x27F SWAP2 SWAP1 PUSH2 0x1848 JUMP JUMPDEST PUSH1 0x40 MLOAD DUP1 SWAP2 SUB SWAP1 RETURN JUMPDEST CALLVALUE DUP1 ISZERO PUSH2 0x294 JUMPI PUSH1 0x0 DUP1 REVERT JUMPDEST POP PUSH2 0x2AF PUSH1 0x4 DUP1 CALLDATASIZE SUB DUP2 ADD SWAP1 PUSH2 0x2AA SWAP2 SWAP1 PUSH2 0x1863 JUMP JUMPDEST PUSH2 0x6D3 JUMP JUMPDEST PUSH1 0x40 MLOAD PUSH2 0x2BF SWAP5 SWAP4 SWAP3 SWAP2 SWAP1 PUSH2 0x1890 JUMP JUMPDEST PUSH1 0x40 MLOAD DUP1 SWAP2 SUB SWAP1 RETURN JUMPDEST CALLVALUE DUP1 ISZERO PUSH2 0x2D4 JUMPI PUSH1 0x0 DUP1 REVERT JUMPDEST POP PUSH2 0x2DD PUSH2 0x78B JUMP JUMPDEST PUSH1 0x40 MLOAD PUSH2 0x2EA SWAP2 SWAP1 PUSH2 0x1848 JUMP JUMPDEST PUSH1 0x40 MLOAD DUP1 SWAP2 SUB SWAP1 RETURN JUMPDEST CALLVALUE DUP1 ISZERO PUSH2 0x2FF JUMPI PUSH1 0x0 DUP1 REVERT JUMPDEST POP PUSH2 0x308 PUSH2 0x791 JUMP JUMPDEST PUSH1 0x40 MLOAD PUSH2 0x315 SWAP2 SWAP1 PUSH2 0x1848 JUMP JUMPDEST PUSH1 0x40 MLOAD DUP1 SWAP2 SUB SWAP1 RETURN JUMPDEST CALLVALUE DUP1 ISZERO PUSH2 0x32A JUMPI PUSH1 0x0 DUP1 REVERT JUMPDEST POP PUSH2 0x333 PUSH2 0x797 JUMP JUMPDEST STOP JUMPDEST PUSH2 0x33D PUSH2 0x843 JUMP JUMPDEST STOP JUMPDEST CALLVALUE DUP1 ISZERO PUSH2 0x34B JUMPI PUSH1 0x0 DUP1 REVERT JUMPDEST POP PUSH2 0x354 PUSH2 0xB7C JUMP JUMPDEST PUSH1 0x40 MLOAD PUSH2 0x361 SWAP2 SWAP1 PUSH2 0x18EB JUMP JUMPDEST PUSH1 0x40 MLOAD DUP1 SWAP2 SUB SWAP1 RETURN JUMPDEST CALLVALUE DUP1 ISZERO PUSH2 0x376 JUMPI PUSH1 0x0 DUP1 REVERT JUMPDEST POP PUSH2 0x391 PUSH1 0x4 DUP1 CALLDATASIZE SUB DUP2 ADD SWAP1 PUSH2 0x38C SWAP2 SWAP1 PUSH2 0x1906 JUMP JUMPDEST PUSH2 0xBA2 JUMP JUMPDEST STOP JUMPDEST CALLVALUE DUP1 ISZERO PUSH2 0x39F JUMPI PUSH1 0x0 DUP1 REVERT JUMPDEST POP PUSH2 0x3A8 PUSH2 0xC81 JUMP JUMPDEST PUSH1 0x40 MLOAD PUSH2 0x3B5 SWAP2 SWAP1 PUSH2 0x18EB JUMP JUMPDEST PUSH1 0x40 MLOAD DUP1 SWAP2 SUB SWAP1 RETURN JUMPDEST CALLVALUE DUP1 ISZERO PUSH2 0x3CA JUMPI PUSH1 0x0 DUP1 REVERT JUMPDEST POP PUSH2 0x3E5 PUSH1 0x4 DUP1 CALLDATASIZE SUB DUP2 ADD SWAP1 PUSH2 0x3E0 SWAP2 SWAP1 PUSH2 0x1863 JUMP JUMPDEST PUSH2 0xCA7 JUMP JUMPDEST STOP JUMPDEST PUSH2 0x401 PUSH1 0x4 DUP1 CALLDATASIZE SUB DUP2 ADD SWAP1 PUSH2 0x3FC SWAP2 SWAP1 PUSH2 0x1863 JUMP JUMPDEST PUSH2 0xD38 JUMP JUMPDEST STOP JUMPDEST CALLVALUE DUP1 ISZERO PUSH2 0x40F JUMPI PUSH1 0x0 DUP1 REVERT JUMPDEST POP PUSH2 0x42A PUSH1 0x4 DUP1 CALLDATASIZE SUB DUP2 ADD SWAP1 PUSH2 0x425 SWAP2 SWAP1 PUSH2 0x1863 JUMP JUMPDEST PUSH2 0x1129 JUMP JUMPDEST PUSH1 0x40 MLOAD PUSH2 0x437 SWAP2 SWAP1 PUSH2 0x1848 JUMP JUMPDEST PUSH1 0x40 MLOAD DUP1 SWAP2 SUB SWAP1 RETURN JUMPDEST CALLVALUE DUP1 ISZERO PUSH2 0x44C JUMPI PUSH1 0x0 DUP1 REVERT JUMPDEST POP PUSH2 0x455 PUSH2 0x11FE JUMP JUMPDEST PUSH1 0x40 MLOAD PUSH2 0x462 SWAP2 SWAP1 PUSH2 0x1848 JUMP JUMPDEST PUSH1 0x40 MLOAD DUP1 SWAP2 SUB SWAP1 RETURN JUMPDEST PUSH1 0xA PUSH1 0x20 MSTORE DUP1 PUSH1 0x0 MSTORE PUSH1 0x40 PUSH1 0x0 KECCAK256 PUSH1 0x0 SWAP2 POP SWAP1 POP DUP1 PUSH1 0x0 ADD PUSH1 0x0 SWAP1 SLOAD SWAP1 PUSH2 0x100 EXP SWAP1 DIV PUSH20 0xFFFFFFFFFFFFFFFFFFFFFFFFFFFFFFFFFFFFFFFF AND SWAP1 DUP1 PUSH1 0x1 ADD SLOAD SWAP1 DUP1 PUSH1 0x2 ADD SLOAD SWAP1 DUP1 PUSH1 0x3 ADD SLOAD SWAP1 POP DUP5 JUMP JUMPDEST PUSH2 0x4C3 PUSH2 0x1204 JUMP JUMPDEST PUSH1 0x0 SELFBALANCE GT PUSH2 0x4FD JUMPI PUSH1 0x40 MLOAD PUSH32 0x47108E3E00000000000000000000000000000000000000000000000000000000 DUP2 MSTORE PUSH1 0x4 ADD PUSH1 0x40 MLOAD DUP1 SWAP2 SUB SWAP1 REVERT JUMPDEST PUSH1 0xB PUSH1 0x0 SWAP1 SLOAD SWAP1 PUSH2 0x100 EXP SWAP1 DIV PUSH20 0xFFFFFFFFFFFFFFFFFFFFFFFFFFFFFFFFFFFFFFFF AND PUSH20 0xFFFFFFFFFFFFFFFFFFFFFFFFFFFFFFFFFFFFFFFF AND CALLER PUSH20 0xFFFFFFFFFFFFFFFFFFFFFFFFFFFFFFFFFFFFFFFF AND EQ PUSH2 0x584 JUMPI PUSH1 0x40 MLOAD PUSH32 0x8679B0C000000000000000000000000000000000000000000000000000000000 DUP2 MSTORE PUSH1 0x4 ADD PUSH1 0x40 MLOAD DUP1 SWAP2 SUB SWAP1 REVERT JUMPDEST PUSH1 0xC PUSH1 0x14 SWAP1 SLOAD SWAP1 PUSH2 0x100 EXP SWAP1 DIV PUSH1 0xFF AND ISZERO PUSH2 0x5D4 JUMPI PUSH1 0x40 MLOAD PUSH32 0x8C379A000000000000000000000000000000000000000000000000000000000 DUP2 MSTORE PUSH1 0x4 ADD PUSH2 0x5CB SWAP1 PUSH2 0x1992 JUMP JUMPDEST PUSH1 0x40 MLOAD DUP1 SWAP2 SUB SWAP1 REVERT JUMPDEST PUSH1 0x0 SELFBALANCE SWAP1 POP PUSH1 0x0 DUP5 DUP3 PUSH2 0x5E7 SWAP2 SWAP1 PUSH2 0x1A10 JUMP JUMPDEST SWAP1 POP PUSH1 0x0 DUP5 DUP4 PUSH2 0x5F7 SWAP2 SWAP1 PUSH2 0x1A10 JUMP JUMPDEST SWAP1 POP PUSH2 0x625 PUSH1 0xC PUSH1 0x0 SWAP1 SLOAD SWAP1 PUSH2 0x100 EXP SWAP1 DIV PUSH20 0xFFFFFFFFFFFFFFFFFFFFFFFFFFFFFFFFFFFFFFFF AND DUP4 PUSH2 0x124A JUMP JUMPDEST PUSH2 0x62F DUP5 DUP3 PUSH2 0x124A JUMP JUMPDEST POP POP POP PUSH2 0x63A PUSH2 0x12FE JUMP JUMPDEST POP POP POP JUMP JUMPDEST PUSH1 0x1 DUP1 SLOAD PUSH2 0x64C SWAP1 PUSH2 0x1A70 JUMP JUMPDEST DUP1 PUSH1 0x1F ADD PUSH1 0x20 DUP1 SWAP2 DIV MUL PUSH1 0x20 ADD PUSH1 0x40 MLOAD SWAP1 DUP2 ADD PUSH1 0x40 MSTORE DUP1 SWAP3 SWAP2 SWAP1 DUP2 DUP2 MSTORE PUSH1 0x20 ADD DUP3 DUP1 SLOAD PUSH2 0x678 SWAP1 PUSH2 0x1A70 JUMP JUMPDEST DUP1 ISZERO PUSH2 0x6C5 JUMPI DUP1 PUSH1 0x1F LT PUSH2 0x69A JUMPI PUSH2 0x100 DUP1 DUP4 SLOAD DIV MUL DUP4 MSTORE SWAP2 PUSH1 0x20 ADD SWAP2 PUSH2 0x6C5 JUMP JUMPDEST DUP3 ADD SWAP2 SWAP1 PUSH1 0x0 MSTORE PUSH1 0x20 PUSH1 0x0 KECCAK256 SWAP1 JUMPDEST DUP2 SLOAD DUP2 MSTORE SWAP1 PUSH1 0x1 ADD SWAP1 PUSH1 0x20 ADD DUP1 DUP4 GT PUSH2 0x6A8 JUMPI DUP3 SWAP1 SUB PUSH1 0x1F AND DUP3 ADD SWAP2 JUMPDEST POP POP POP POP POP DUP2 JUMP JUMPDEST PUSH1 0x7 SLOAD DUP2 JUMP JUMPDEST PUSH1 0x9 PUSH1 0x20 MSTORE DUP1 PUSH1 0x0 MSTORE PUSH1 0x40 PUSH1 0x0 KECCAK256 PUSH1 0x0 SWAP2 POP SWAP1 POP DUP1 PUSH1 0x0 ADD DUP1 SLOAD PUSH2 0x6F6 SWAP1 PUSH2 0x1A70 JUMP JUMPDEST DUP1 PUSH1 0x1F ADD PUSH1 0x20 DUP1 SWAP2 DIV MUL PUSH1 0x20 ADD PUSH1 0x40 MLOAD SWAP1 DUP2 ADD PUSH1 0x40 MSTORE DUP1 SWAP3 SWAP2 SWAP1 DUP2 DUP2 MSTORE PUSH1 0x20 ADD DUP3 DUP1 SLOAD PUSH2 0x722 SWAP1 PUSH2 0x1A70 JUMP JUMPDEST DUP1 ISZERO PUSH2 0x76F JUMPI DUP1 PUSH1 0x1F LT PUSH2 0x744 JUMPI PUSH2 0x100 DUP1 DUP4 SLOAD DIV MUL DUP4 MSTORE SWAP2 PUSH1 0x20 ADD SWAP2 PUSH2 0x76F JUMP JUMPDEST DUP3 ADD SWAP2 SWAP1 PUSH1 0x0 MSTORE PUSH1 0x20 PUSH1 0x0 KECCAK256 SWAP1 JUMPDEST DUP2 SLOAD DUP2 MSTORE SWAP1 PUSH1 0x1 ADD SWAP1 PUSH1 0x20 ADD DUP1 DUP4 GT PUSH2 0x752 JUMPI DUP3 SWAP1 SUB PUSH1 0x1F AND DUP3 ADD SWAP2 JUMPDEST POP POP POP POP POP SWAP1 DUP1 PUSH1 0x1 ADD SLOAD SWAP1 DUP1 PUSH1 0x2 ADD SLOAD SWAP1 DUP1 PUSH1 0x3 ADD SLOAD SWAP1 POP DUP5 JUMP JUMPDEST PUSH1 0x4 SLOAD DUP2 JUMP JUMPDEST PUSH1 0x5 SLOAD DUP2 JUMP JUMPDEST PUSH1 0xB PUSH1 0x0 SWAP1 SLOAD SWAP1 PUSH2 0x100 EXP SWAP1 DIV PUSH20 0xFFFFFFFFFFFFFFFFFFFFFFFFFFFFFFFFFFFFFFFF AND PUSH20 0xFFFFFFFFFFFFFFFFFFFFFFFFFFFFFFFFFFFFFFFF AND CALLER PUSH20 0xFFFFFFFFFFFFFFFFFFFFFFFFFFFFFFFFFFFFFFFF AND EQ PUSH2 0x81E JUMPI PUSH1 0x40 MLOAD PUSH32 0x8679B0C000000000000000000000000000000000000000000000000000000000 DUP2 MSTORE PUSH1 0x4 ADD PUSH1 0x40 MLOAD DUP1 SWAP2 SUB SWAP1 REVERT JUMPDEST PUSH1 0x1 PUSH1 0xC PUSH1 0x14 PUSH2 0x100 EXP DUP2 SLOAD DUP2 PUSH1 0xFF MUL NOT AND SWAP1 DUP4 ISZERO ISZERO MUL OR SWAP1 SSTORE POP PUSH2 0x841 PUSH2 0x1308 JUMP JUMPDEST JUMP JUMPDEST PUSH2 0x84B PUSH2 0x1204 JUMP JUMPDEST PUSH1 0xC PUSH1 0x14 SWAP1 SLOAD SWAP1 PUSH2 0x100 EXP SWAP1 DIV PUSH1 0xFF AND PUSH2 0x891 JUMPI PUSH1 0x40 MLOAD PUSH32 0x541F1F000000000000000000000000000000000000000000000000000000000 DUP2 MSTORE PUSH1 0x4 ADD PUSH1 0x40 MLOAD DUP1 SWAP2 SUB SWAP1 REVERT JUMPDEST CALLER PUSH20 0xFFFFFFFFFFFFFFFFFFFFFFFFFFFFFFFFFFFFFFFF AND PUSH1 0xA PUSH1 0x0 CALLER PUSH20 0xFFFFFFFFFFFFFFFFFFFFFFFFFFFFFFFFFFFFFFFF AND PUSH20 0xFFFFFFFFFFFFFFFFFFFFFFFFFFFFFFFFFFFFFFFF AND DUP2 MSTORE PUSH1 0x20 ADD SWAP1 DUP2 MSTORE PUSH1 0x20 ADD PUSH1 0x0 KECCAK256 PUSH1 0x0 ADD PUSH1 0x0 SWAP1 SLOAD SWAP1 PUSH2 0x100 EXP SWAP1 DIV PUSH20 0xFFFFFFFFFFFFFFFFFFFFFFFFFFFFFFFFFFFFFFFF AND PUSH20 0xFFFFFFFFFFFFFFFFFFFFFFFFFFFFFFFFFFFFFFFF AND EQ PUSH2 0x961 JUMPI PUSH1 0x40 MLOAD PUSH32 0x8C379A000000000000000000000000000000000000000000000000000000000 DUP2 MSTORE PUSH1 0x4 ADD PUSH2 0x958 SWAP1 PUSH2 0x1AED JUMP JUMPDEST PUSH1 0x40 MLOAD DUP1 SWAP2 SUB SWAP1 REVERT JUMPDEST PUSH1 0xC PUSH1 0x14 SWAP1 SLOAD SWAP1 PUSH2 0x100 EXP SWAP1 DIV PUSH1 0xFF AND PUSH2 0x9B0 JUMPI PUSH1 0x40 MLOAD PUSH32 0x8C379A000000000000000000000000000000000000000000000000000000000 DUP2 MSTORE PUSH1 0x4 ADD PUSH2 0x9A7 SWAP1 PUSH2 0x1B59 JUMP JUMPDEST PUSH1 0x40 MLOAD DUP1 SWAP2 SUB SWAP1 REVERT JUMPDEST PUSH1 0x7 SLOAD PUSH1 0xA PUSH1 0x0 CALLER PUSH20 0xFFFFFFFFFFFFFFFFFFFFFFFFFFFFFFFFFFFFFFFF AND PUSH20 0xFFFFFFFFFFFFFFFFFFFFFFFFFFFFFFFFFFFFFFFF AND DUP2 MSTORE PUSH1 0x20 ADD SWAP1 DUP2 MSTORE PUSH1 0x20 ADD PUSH1 0x0 KECCAK256 PUSH1 0x1 ADD SLOAD EQ PUSH2 0xA36 JUMPI PUSH1 0x40 MLOAD PUSH32 0x8C379A000000000000000000000000000000000000000000000000000000000 DUP2 MSTORE PUSH1 0x4 ADD PUSH2 0xA2D SWAP1 PUSH2 0x1BC5 JUMP JUMPDEST PUSH1 0x40 MLOAD DUP1 SWAP2 SUB SWAP1 REVERT JUMPDEST PUSH1 0x64 PUSH1 0x8 SLOAD PUSH1 0xA PUSH1 0x0 CALLER PUSH20 0xFFFFFFFFFFFFFFFFFFFFFFFFFFFFFFFFFFFFFFFF AND PUSH20 0xFFFFFFFFFFFFFFFFFFFFFFFFFFFFFFFFFFFFFFFF AND DUP2 MSTORE PUSH1 0x20 ADD SWAP1 DUP2 MSTORE PUSH1 0x20 ADD PUSH1 0x0 KECCAK256 PUSH1 0x2 ADD SLOAD PUSH2 0xA88 SWAP2 SWAP1 PUSH2 0x1BE5 JUMP JUMPDEST PUSH2 0xA92 SWAP2 SWAP1 PUSH2 0x1A10 JUMP JUMPDEST PUSH1 0xA PUSH1 0x0 CALLER PUSH20 0xFFFFFFFFFFFFFFFFFFFFFFFFFFFFFFFFFFFFFFFF AND PUSH20 0xFFFFFFFFFFFFFFFFFFFFFFFFFFFFFFFFFFFFFFFF AND DUP2 MSTORE PUSH1 0x20 ADD SWAP1 DUP2 MSTORE PUSH1 0x20 ADD PUSH1 0x0 KECCAK256 PUSH1 0x3 ADD DUP2 SWAP1 SSTORE POP PUSH1 0x0 PUSH1 0xA PUSH1 0x0 CALLER PUSH20 0xFFFFFFFFFFFFFFFFFFFFFFFFFFFFFFFFFFFFFFFF AND PUSH20 0xFFFFFFFFFFFFFFFFFFFFFFFFFFFFFFFFFFFFFFFF AND DUP2 MSTORE PUSH1 0x20 ADD SWAP1 DUP2 MSTORE PUSH1 0x20 ADD PUSH1 0x0 KECCAK256 PUSH1 0x3 ADD SLOAD SWAP1 POP PUSH1 0x0 PUSH1 0xA PUSH1 0x0 CALLER PUSH20 0xFFFFFFFFFFFFFFFFFFFFFFFFFFFFFFFFFFFFFFFF AND PUSH20 0xFFFFFFFFFFFFFFFFFFFFFFFFFFFFFFFFFFFFFFFF AND DUP2 MSTORE PUSH1 0x20 ADD SWAP1 DUP2 MSTORE PUSH1 0x20 ADD PUSH1 0x0 KECCAK256 PUSH1 0x3 ADD DUP2 SWAP1 SSTORE POP PUSH2 0xB71 CALLER DUP3 PUSH2 0x124A JUMP JUMPDEST POP PUSH2 0xB7A PUSH2 0x12FE JUMP JUMPDEST JUMP JUMPDEST PUSH1 0xB PUSH1 0x0 SWAP1 SLOAD SWAP1 PUSH2 0x100 EXP SWAP1 DIV PUSH20 0xFFFFFFFFFFFFFFFFFFFFFFFFFFFFFFFFFFFFFFFF AND DUP2 JUMP JUMPDEST PUSH2 0xBAA PUSH2 0x1204 JUMP JUMPDEST PUSH1 0xB PUSH1 0x0 SWAP1 SLOAD SWAP1 PUSH2 0x100 EXP SWAP1 DIV PUSH20 0xFFFFFFFFFFFFFFFFFFFFFFFFFFFFFFFFFFFFFFFF AND PUSH20 0xFFFFFFFFFFFFFFFFFFFFFFFFFFFFFFFFFFFFFFFF AND CALLER PUSH20 0xFFFFFFFFFFFFFFFFFFFFFFFFFFFFFFFFFFFFFFFF AND EQ PUSH2 0xC31 JUMPI PUSH1 0x40 MLOAD PUSH32 0x8679B0C000000000000000000000000000000000000000000000000000000000 DUP2 MSTORE PUSH1 0x4 ADD PUSH1 0x40 MLOAD DUP1 SWAP2 SUB SWAP1 REVERT JUMPDEST PUSH1 0x0 SELFBALANCE GT PUSH2 0xC6B JUMPI PUSH1 0x40 MLOAD PUSH32 0x47108E3E00000000000000000000000000000000000000000000000000000000 DUP2 MSTORE PUSH1 0x4 ADD PUSH1 0x40 MLOAD DUP1 SWAP2 SUB SWAP1 REVERT JUMPDEST PUSH2 0xC75 DUP3 DUP3 PUSH2 0x124A JUMP JUMPDEST PUSH2 0xC7D PUSH2 0x12FE JUMP JUMPDEST POP POP JUMP JUMPDEST PUSH1 0xC PUSH1 0x0 SWAP1 SLOAD SWAP1 PUSH2 0x100 EXP SWAP1 DIV PUSH20 0xFFFFFFFFFFFFFFFFFFFFFFFFFFFFFFFFFFFFFFFF AND DUP2 JUMP JUMPDEST PUSH1 0xB PUSH1 0x0 SWAP1 SLOAD SWAP1 PUSH2 0x100 EXP SWAP1 DIV PUSH20 0xFFFFFFFFFFFFFFFFFFFFFFFFFFFFFFFFFFFFFFFF AND PUSH20 0xFFFFFFFFFFFFFFFFFFFFFFFFFFFFFFFFFFFFFFFF AND CALLER PUSH20 0xFFFFFFFFFFFFFFFFFFFFFFFFFFFFFFFFFFFFFFFF AND EQ PUSH2 0xD2E JUMPI PUSH1 0x40 MLOAD PUSH32 0x8679B0C000000000000000000000000000000000000000000000000000000000 DUP2 MSTORE PUSH1 0x4 ADD PUSH1 0x40 MLOAD DUP1 SWAP2 SUB SWAP1 REVERT JUMPDEST DUP1 PUSH1 0x7 DUP2 SWAP1 SSTORE POP POP JUMP JUMPDEST PUSH2 0xD40 PUSH2 0x1204 JUMP JUMPDEST CALLVALUE CALLER PUSH20 0xFFFFFFFFFFFFFFFFFFFFFFFFFFFFFFFFFFFFFFFF AND BALANCE LT ISZERO PUSH2 0xD91 JUMPI PUSH1 0x40 MLOAD PUSH32 0x47108E3E00000000000000000000000000000000000000000000000000000000 DUP2 MSTORE PUSH1 0x4 ADD PUSH1 0x40 MLOAD DUP1 SWAP2 SUB SWAP1 REVERT JUMPDEST PUSH5 0xB68A0AA00 CALLVALUE GT PUSH2 0xDCF JUMPI PUSH1 0x40 MLOAD PUSH32 0x78E9F1BA00000000000000000000000000000000000000000000000000000000 DUP2 MSTORE PUSH1 0x4 ADD PUSH1 0x40 MLOAD DUP1 SWAP2 SUB SWAP1 REVERT JUMPDEST CALLER PUSH20 0xFFFFFFFFFFFFFFFFFFFFFFFFFFFFFFFFFFFFFFFF AND PUSH1 0xA PUSH1 0x0 CALLER PUSH20 0xFFFFFFFFFFFFFFFFFFFFFFFFFFFFFFFFFFFFFFFF AND PUSH20 0xFFFFFFFFFFFFFFFFFFFFFFFFFFFFFFFFFFFFFFFF AND DUP2 MSTORE PUSH1 0x20 ADD SWAP1 DUP2 MSTORE PUSH1 0x20 ADD PUSH1 0x0 KECCAK256 PUSH1 0x0 ADD PUSH1 0x0 SWAP1 SLOAD SWAP1 PUSH2 0x100 EXP SWAP1 DIV PUSH20 0xFFFFFFFFFFFFFFFFFFFFFFFFFFFFFFFFFFFFFFFF AND PUSH20 0xFFFFFFFFFFFFFFFFFFFFFFFFFFFFFFFFFFFFFFFF AND SUB PUSH2 0xE96 JUMPI PUSH1 0x40 MLOAD PUSH32 0x8424505800000000000000000000000000000000000000000000000000000000 DUP2 MSTORE PUSH1 0x4 ADD PUSH1 0x40 MLOAD DUP1 SWAP2 SUB SWAP1 REVERT JUMPDEST PUSH1 0x0 PUSH1 0x3 PUSH1 0x0 SWAP1 SLOAD SWAP1 PUSH2 0x100 EXP SWAP1 DIV PUSH20 0xFFFFFFFFFFFFFFFFFFFFFFFFFFFFFFFFFFFFFFFF AND PUSH20 0xFFFFFFFFFFFFFFFFFFFFFFFFFFFFFFFFFFFFFFFF AND PUSH4 0xB4805D3 CALLER PUSH1 0x40 MLOAD DUP3 PUSH4 0xFFFFFFFF AND PUSH1 0xE0 SHL DUP2 MSTORE PUSH1 0x4 ADD PUSH2 0xEF3 SWAP2 SWAP1 PUSH2 0x18EB JUMP JUMPDEST PUSH1 0x20 PUSH1 0x40 MLOAD DUP1 DUP4 SUB DUP2 DUP7 GAS STATICCALL ISZERO DUP1 ISZERO PUSH2 0xF10 JUMPI RETURNDATASIZE PUSH1 0x0 DUP1 RETURNDATACOPY RETURNDATASIZE PUSH1 0x0 REVERT JUMPDEST POP POP POP POP PUSH1 0x40 MLOAD RETURNDATASIZE PUSH1 0x1F NOT PUSH1 0x1F DUP3 ADD AND DUP3 ADD DUP1 PUSH1 0x40 MSTORE POP DUP2 ADD SWAP1 PUSH2 0xF34 SWAP2 SWAP1 PUSH2 0x1C67 JUMP JUMPDEST PUSH8 0xFFFFFFFFFFFFFFFF AND SUB PUSH2 0xF75 JUMPI PUSH1 0x40 MLOAD PUSH32 0x3A70817D00000000000000000000000000000000000000000000000000000000 DUP2 MSTORE PUSH1 0x4 ADD PUSH1 0x40 MLOAD DUP1 SWAP2 SUB SWAP1 REVERT JUMPDEST PUSH1 0x1 DUP2 GT ISZERO PUSH2 0xFB9 JUMPI PUSH1 0x40 MLOAD PUSH32 0x8C379A000000000000000000000000000000000000000000000000000000000 DUP2 MSTORE PUSH1 0x4 ADD PUSH2 0xFB0 SWAP1 PUSH2 0x1CE0 JUMP JUMPDEST PUSH1 0x40 MLOAD DUP1 SWAP2 SUB SWAP1 REVERT JUMPDEST PUSH2 0xFC3 ADDRESS CALLVALUE PUSH2 0x124A JUMP JUMPDEST PUSH1 0x6 PUSH1 0x0 DUP2 SLOAD DUP1 SWAP3 SWAP2 SWAP1 PUSH2 0xFD6 SWAP1 PUSH2 0x1D00 JUMP JUMPDEST SWAP2 SWAP1 POP SSTORE POP PUSH1 0x9 PUSH1 0x0 DUP3 DUP2 MSTORE PUSH1 0x20 ADD SWAP1 DUP2 MSTORE PUSH1 0x20 ADD PUSH1 0x0 KECCAK256 PUSH1 0x2 ADD PUSH1 0x0 DUP2 SLOAD DUP1 SWAP3 SWAP2 SWAP1 PUSH2 0x1002 SWAP1 PUSH2 0x1D00 JUMP JUMPDEST SWAP2 SWAP1 POP SSTORE POP CALLVALUE PUSH1 0x9 PUSH1 0x0 DUP4 DUP2 MSTORE PUSH1 0x20 ADD SWAP1 DUP2 MSTORE PUSH1 0x20 ADD PUSH1 0x0 KECCAK256 PUSH1 0x3 ADD SLOAD PUSH2 0x1029 SWAP2 SWAP1 PUSH2 0x1D48 JUMP JUMPDEST PUSH1 0x9 PUSH1 0x0 DUP4 DUP2 MSTORE PUSH1 0x20 ADD SWAP1 DUP2 MSTORE PUSH1 0x20 ADD PUSH1 0x0 KECCAK256 PUSH1 0x3 ADD DUP2 SWAP1 SSTORE POP PUSH2 0x104B PUSH2 0x1386 JUMP JUMPDEST PUSH2 0x1054 DUP2 PUSH2 0x141E JUMP JUMPDEST PUSH32 0xBABD4D8AD6BE16C6A1AC0B279AAAD4EB273F40DE86A3C6AC350147FC9BBDBDA3 ADDRESS PUSH1 0x9 PUSH1 0x0 DUP1 DUP2 MSTORE PUSH1 0x20 ADD SWAP1 DUP2 MSTORE PUSH1 0x20 ADD PUSH1 0x0 KECCAK256 PUSH1 0x2 ADD SLOAD PUSH1 0x9 PUSH1 0x0 DUP1 DUP2 MSTORE PUSH1 0x20 ADD SWAP1 DUP2 MSTORE PUSH1 0x20 ADD PUSH1 0x0 KECCAK256 PUSH1 0x3 ADD SLOAD PUSH1 0x9 PUSH1 0x0 DUP1 DUP2 MSTORE PUSH1 0x20 ADD SWAP1 DUP2 MSTORE PUSH1 0x20 ADD PUSH1 0x0 KECCAK256 PUSH1 0x1 ADD SLOAD PUSH1 0x9 PUSH1 0x0 PUSH1 0x1 DUP2 MSTORE PUSH1 0x20 ADD SWAP1 DUP2 MSTORE PUSH1 0x20 ADD PUSH1 0x0 KECCAK256 PUSH1 0x2 ADD SLOAD PUSH1 0x9 PUSH1 0x0 PUSH1 0x1 DUP2 MSTORE PUSH1 0x20 ADD SWAP1 DUP2 MSTORE PUSH1 0x20 ADD PUSH1 0x0 KECCAK256 PUSH1 0x3 ADD SLOAD PUSH1 0x9 PUSH1 0x0 PUSH1 0x1 DUP2 MSTORE PUSH1 0x20 ADD SWAP1 DUP2 MSTORE PUSH1 0x20 ADD PUSH1 0x0 KECCAK256 PUSH1 0x1 ADD SLOAD PUSH1 0x40 MLOAD PUSH2 0x1116 SWAP8 SWAP7 SWAP6 SWAP5 SWAP4 SWAP3 SWAP2 SWAP1 PUSH2 0x1D7C JUMP JUMPDEST PUSH1 0x40 MLOAD DUP1 SWAP2 SUB SWAP1 LOG1 PUSH2 0x1126 PUSH2 0x12FE JUMP JUMPDEST POP JUMP JUMPDEST PUSH1 0x0 DUP1 SELFBALANCE GT PUSH2 0x1164 JUMPI PUSH1 0x40 MLOAD PUSH32 0x47108E3E00000000000000000000000000000000000000000000000000000000 DUP2 MSTORE PUSH1 0x4 ADD PUSH1 0x40 MLOAD DUP1 SWAP2 SUB SWAP1 REVERT JUMPDEST PUSH1 0xB PUSH1 0x0 SWAP1 SLOAD SWAP1 PUSH2 0x100 EXP SWAP1 DIV PUSH20 0xFFFFFFFFFFFFFFFFFFFFFFFFFFFFFFFFFFFFFFFF AND PUSH20 0xFFFFFFFFFFFFFFFFFFFFFFFFFFFFFFFFFFFFFFFF AND CALLER PUSH20 0xFFFFFFFFFFFFFFFFFFFFFFFFFFFFFFFFFFFFFFFF AND EQ PUSH2 0x11EB JUMPI PUSH1 0x40 MLOAD PUSH32 0x8679B0C000000000000000000000000000000000000000000000000000000000 DUP2 MSTORE PUSH1 0x4 ADD PUSH1 0x40 MLOAD DUP1 SWAP2 SUB SWAP1 REVERT JUMPDEST DUP2 SELFBALANCE PUSH2 0x11F7 SWAP2 SWAP1 PUSH2 0x1A10 JUMP JUMPDEST SWAP1 POP SWAP2 SWAP1 POP JUMP JUMPDEST PUSH1 0x6 SLOAD DUP2 JUMP JUMPDEST PUSH1 0x2 PUSH1 0x0 SLOAD SUB PUSH2 0x1240 JUMPI PUSH1 0x40 MLOAD PUSH32 0x3EE5AEB500000000000000000000000000000000000000000000000000000000 DUP2 MSTORE PUSH1 0x4 ADD PUSH1 0x40 MLOAD DUP1 SWAP2 SUB SWAP1 REVERT JUMPDEST PUSH1 0x2 PUSH1 0x0 DUP2 SWAP1 SSTORE POP JUMP JUMPDEST PUSH1 0x0 DUP1 DUP4 PUSH20 0xFFFFFFFFFFFFFFFFFFFFFFFFFFFFFFFFFFFFFFFF AND DUP4 PUSH1 0x40 MLOAD PUSH2 0x1271 SWAP1 PUSH2 0x1E1C JUMP JUMPDEST PUSH1 0x0 PUSH1 0x40 MLOAD DUP1 DUP4 SUB DUP2 DUP6 DUP8 GAS CALL SWAP3 POP POP POP RETURNDATASIZE DUP1 PUSH1 0x0 DUP2 EQ PUSH2 0x12AE JUMPI PUSH1 0x40 MLOAD SWAP2 POP PUSH1 0x1F NOT PUSH1 0x3F RETURNDATASIZE ADD AND DUP3 ADD PUSH1 0x40 MSTORE RETURNDATASIZE DUP3 MSTORE RETURNDATASIZE PUSH1 0x0 PUSH1 0x20 DUP5 ADD RETURNDATACOPY PUSH2 0x12B3 JUMP JUMPDEST PUSH1 0x60 SWAP2 POP JUMPDEST POP SWAP2 POP SWAP2 POP DUP2 PUSH2 0x12F8 JUMPI PUSH1 0x40 MLOAD PUSH32 0x8C379A000000000000000000000000000000000000000000000000000000000 DUP2 MSTORE PUSH1 0x4 ADD PUSH2 0x12EF SWAP1 PUSH2 0x1E7D JUMP JUMPDEST PUSH1 0x40 MLOAD DUP1 SWAP2 SUB SWAP1 REVERT JUMPDEST POP POP POP POP JUMP JUMPDEST PUSH1 0x1 PUSH1 0x0 DUP2 SWAP1 SSTORE POP JUMP JUMPDEST PUSH1 0xC PUSH1 0x14 SWAP1 SLOAD SWAP1 PUSH2 0x100 EXP SWAP1 DIV PUSH1 0xFF AND PUSH2 0x134E JUMPI PUSH1 0x40 MLOAD PUSH32 0x541F1F000000000000000000000000000000000000000000000000000000000 DUP2 MSTORE PUSH1 0x4 ADD PUSH1 0x40 MLOAD DUP1 SWAP2 SUB SWAP1 REVERT JUMPDEST PUSH1 0x9 PUSH1 0x0 PUSH1 0x7 SLOAD DUP2 MSTORE PUSH1 0x20 ADD SWAP1 DUP2 MSTORE PUSH1 0x20 ADD PUSH1 0x0 KECCAK256 PUSH1 0x3 ADD SLOAD PUSH1 0x64 SELFBALANCE PUSH2 0x1374 SWAP2 SWAP1 PUSH2 0x1BE5 JUMP JUMPDEST PUSH2 0x137E SWAP2 SWAP1 PUSH2 0x1A10 JUMP JUMPDEST PUSH1 0x8 DUP2 SWAP1 SSTORE POP JUMP JUMPDEST PUSH1 0x6 SLOAD PUSH1 0x64 PUSH1 0x9 PUSH1 0x0 DUP1 DUP2 MSTORE PUSH1 0x20 ADD SWAP1 DUP2 MSTORE PUSH1 0x20 ADD PUSH1 0x0 KECCAK256 PUSH1 0x2 ADD SLOAD PUSH2 0x13AC SWAP2 SWAP1 PUSH2 0x1BE5 JUMP JUMPDEST PUSH2 0x13B6 SWAP2 SWAP1 PUSH2 0x1A10 JUMP JUMPDEST PUSH1 0x9 PUSH1 0x0 DUP1 DUP2 MSTORE PUSH1 0x20 ADD SWAP1 DUP2 MSTORE PUSH1 0x20 ADD PUSH1 0x0 KECCAK256 PUSH1 0x1 ADD DUP2 SWAP1 SSTORE POP PUSH1 0x6 SLOAD PUSH1 0x64 PUSH1 0x9 PUSH1 0x0 PUSH1 0x1 DUP2 MSTORE PUSH1 0x20 ADD SWAP1 DUP2 MSTORE PUSH1 0x20 ADD PUSH1 0x0 KECCAK256 PUSH1 0x2 ADD SLOAD PUSH2 0x13F7 SWAP2 SWAP1 PUSH2 0x1BE5 JUMP JUMPDEST PUSH2 0x1401 SWAP2 SWAP1 PUSH2 0x1A10 JUMP JUMPDEST PUSH1 0x9 PUSH1 0x0 PUSH1 0x1 DUP2 MSTORE PUSH1 0x20 ADD SWAP1 DUP2 MSTORE PUSH1 0x20 ADD PUSH1 0x0 KECCAK256 PUSH1 0x1 ADD DUP2 SWAP1 SSTORE POP JUMP JUMPDEST CALLER PUSH1 0xA PUSH1 0x0 CALLER PUSH20 0xFFFFFFFFFFFFFFFFFFFFFFFFFFFFFFFFFFFFFFFF AND PUSH20 0xFFFFFFFFFFFFFFFFFFFFFFFFFFFFFFFFFFFFFFFF AND DUP2 MSTORE PUSH1 0x20 ADD SWAP1 DUP2 MSTORE PUSH1 0x20 ADD PUSH1 0x0 KECCAK256 PUSH1 0x0 ADD PUSH1 0x0 PUSH2 0x100 EXP DUP2 SLOAD DUP2 PUSH20 0xFFFFFFFFFFFFFFFFFFFFFFFFFFFFFFFFFFFFFFFF MUL NOT AND SWAP1 DUP4 PUSH20 0xFFFFFFFFFFFFFFFFFFFFFFFFFFFFFFFFFFFFFFFF AND MUL OR SWAP1 SSTORE POP DUP1 PUSH1 0xA PUSH1 0x0 CALLER PUSH20 0xFFFFFFFFFFFFFFFFFFFFFFFFFFFFFFFFFFFFFFFF AND PUSH20 0xFFFFFFFFFFFFFFFFFFFFFFFFFFFFFFFFFFFFFFFF AND DUP2 MSTORE PUSH1 0x20 ADD SWAP1 DUP2 MSTORE PUSH1 0x20 ADD PUSH1 0x0 KECCAK256 PUSH1 0x1 ADD DUP2 SWAP1 SSTORE POP CALLVALUE PUSH1 0xA PUSH1 0x0 CALLER PUSH20 0xFFFFFFFFFFFFFFFFFFFFFFFFFFFFFFFFFFFFFFFF AND PUSH20 0xFFFFFFFFFFFFFFFFFFFFFFFFFFFFFFFFFFFFFFFF AND DUP2 MSTORE PUSH1 0x20 ADD SWAP1 DUP2 MSTORE PUSH1 0x20 ADD PUSH1 0x0 KECCAK256 PUSH1 0x2 ADD DUP2 SWAP1 SSTORE POP POP JUMP JUMPDEST PUSH1 0x0 DUP3 DUP3 MSTORE PUSH1 0x20 DUP3 ADD SWAP1 POP SWAP3 SWAP2 POP POP JUMP JUMPDEST PUSH32 0x796F752063616E27742073656E64206C657373207468616E2035306B20776569 PUSH1 0x0 DUP3 ADD MSTORE POP JUMP JUMPDEST PUSH1 0x0 PUSH2 0x1577 PUSH1 0x20 DUP4 PUSH2 0x1530 JUMP JUMPDEST SWAP2 POP PUSH2 0x1582 DUP3 PUSH2 0x1541 JUMP JUMPDEST PUSH1 0x20 DUP3 ADD SWAP1 POP SWAP2 SWAP1 POP JUMP JUMPDEST PUSH1 0x0 PUSH1 0x20 DUP3 ADD SWAP1 POP DUP2 DUP2 SUB PUSH1 0x0 DUP4 ADD MSTORE PUSH2 0x15A6 DUP2 PUSH2 0x156A JUMP JUMPDEST SWAP1 POP SWAP2 SWAP1 POP JUMP JUMPDEST PUSH32 0x4E6F2066616C6C6261636B206465736972656400000000000000000000000000 PUSH1 0x0 DUP3 ADD MSTORE POP JUMP JUMPDEST PUSH1 0x0 PUSH2 0x15E3 PUSH1 0x13 DUP4 PUSH2 0x1530 JUMP JUMPDEST SWAP2 POP PUSH2 0x15EE DUP3 PUSH2 0x15AD JUMP JUMPDEST PUSH1 0x20 DUP3 ADD SWAP1 POP SWAP2 SWAP1 POP JUMP JUMPDEST PUSH1 0x0 PUSH1 0x20 DUP3 ADD SWAP1 POP DUP2 DUP2 SUB PUSH1 0x0 DUP4 ADD MSTORE PUSH2 0x1612 DUP2 PUSH2 0x15D6 JUMP JUMPDEST SWAP1 POP SWAP2 SWAP1 POP JUMP JUMPDEST PUSH1 0x0 DUP1 REVERT JUMPDEST PUSH1 0x0 PUSH20 0xFFFFFFFFFFFFFFFFFFFFFFFFFFFFFFFFFFFFFFFF DUP3 AND SWAP1 POP SWAP2 SWAP1 POP JUMP JUMPDEST PUSH1 0x0 PUSH2 0x1649 DUP3 PUSH2 0x161E JUMP JUMPDEST SWAP1 POP SWAP2 SWAP1 POP JUMP JUMPDEST PUSH2 0x1659 DUP2 PUSH2 0x163E JUMP JUMPDEST DUP2 EQ PUSH2 0x1664 JUMPI PUSH1 0x0 DUP1 REVERT JUMPDEST POP JUMP JUMPDEST PUSH1 0x0 DUP2 CALLDATALOAD SWAP1 POP PUSH2 0x1676 DUP2 PUSH2 0x1650 JUMP JUMPDEST SWAP3 SWAP2 POP POP JUMP JUMPDEST PUSH1 0x0 PUSH1 0x20 DUP3 DUP5 SUB SLT ISZERO PUSH2 0x1692 JUMPI PUSH2 0x1691 PUSH2 0x1619 JUMP JUMPDEST JUMPDEST PUSH1 0x0 PUSH2 0x16A0 DUP5 DUP3 DUP6 ADD PUSH2 0x1667 JUMP JUMPDEST SWAP2 POP POP SWAP3 SWAP2 POP POP JUMP JUMPDEST PUSH1 0x0 PUSH2 0x16B4 DUP3 PUSH2 0x161E JUMP JUMPDEST SWAP1 POP SWAP2 SWAP1 POP JUMP JUMPDEST PUSH2 0x16C4 DUP2 PUSH2 0x16A9 JUMP JUMPDEST DUP3 MSTORE POP POP JUMP JUMPDEST PUSH1 0x0 DUP2 SWAP1 POP SWAP2 SWAP1 POP JUMP JUMPDEST PUSH2 0x16DD DUP2 PUSH2 0x16CA JUMP JUMPDEST DUP3 MSTORE POP POP JUMP JUMPDEST PUSH1 0x0 PUSH1 0x80 DUP3 ADD SWAP1 POP PUSH2 0x16F8 PUSH1 0x0 DUP4 ADD DUP8 PUSH2 0x16BB JUMP JUMPDEST PUSH2 0x1705 PUSH1 0x20 DUP4 ADD DUP7 PUSH2 0x16D4 JUMP JUMPDEST PUSH2 0x1712 PUSH1 0x40 DUP4 ADD DUP6 PUSH2 0x16D4 JUMP JUMPDEST PUSH2 0x171F PUSH1 0x60 DUP4 ADD DUP5 PUSH2 0x16D4 JUMP JUMPDEST SWAP6 SWAP5 POP POP POP POP POP JUMP JUMPDEST PUSH2 0x1731 DUP2 PUSH2 0x16CA JUMP JUMPDEST DUP2 EQ PUSH2 0x173C JUMPI PUSH1 0x0 DUP1 REVERT JUMPDEST POP JUMP JUMPDEST PUSH1 0x0 DUP2 CALLDATALOAD SWAP1 POP PUSH2 0x174E DUP2 PUSH2 0x1728 JUMP JUMPDEST SWAP3 SWAP2 POP POP JUMP JUMPDEST PUSH1 0x0 DUP1 PUSH1 0x0 PUSH1 0x60 DUP5 DUP7 SUB SLT ISZERO PUSH2 0x176D JUMPI PUSH2 0x176C PUSH2 0x1619 JUMP JUMPDEST JUMPDEST PUSH1 0x0 PUSH2 0x177B DUP7 DUP3 DUP8 ADD PUSH2 0x173F JUMP JUMPDEST SWAP4 POP POP PUSH1 0x20 PUSH2 0x178C DUP7 DUP3 DUP8 ADD PUSH2 0x173F JUMP JUMPDEST SWAP3 POP POP PUSH1 0x40 PUSH2 0x179D DUP7 DUP3 DUP8 ADD PUSH2 0x1667 JUMP JUMPDEST SWAP2 POP POP SWAP3 POP SWAP3 POP SWAP3 JUMP JUMPDEST PUSH1 0x0 DUP2 MLOAD SWAP1 POP SWAP2 SWAP1 POP JUMP JUMPDEST PUSH1 0x0 JUMPDEST DUP4 DUP2 LT ISZERO PUSH2 0x17D0 JUMPI DUP1 DUP3 ADD MLOAD DUP2 DUP5 ADD MSTORE PUSH1 0x20 DUP2 ADD SWAP1 POP PUSH2 0x17B5 JUMP JUMPDEST PUSH1 0x0 DUP5 DUP5 ADD MSTORE POP POP POP POP JUMP JUMPDEST PUSH1 0x0 PUSH1 0x1F NOT PUSH1 0x1F DUP4 ADD AND SWAP1 POP SWAP2 SWAP1 POP JUMP JUMPDEST PUSH1 0x0 PUSH2 0x17F8 DUP3 PUSH2 0x17A7 JUMP JUMPDEST PUSH2 0x1802 DUP2 DUP6 PUSH2 0x1530 JUMP JUMPDEST SWAP4 POP PUSH2 0x1812 DUP2 DUP6 PUSH1 0x20 DUP7 ADD PUSH2 0x17B2 JUMP JUMPDEST PUSH2 0x181B DUP2 PUSH2 0x17DC JUMP JUMPDEST DUP5 ADD SWAP2 POP POP SWAP3 SWAP2 POP POP JUMP JUMPDEST PUSH1 0x0 PUSH1 0x20 DUP3 ADD SWAP1 POP DUP2 DUP2 SUB PUSH1 0x0 DUP4 ADD MSTORE PUSH2 0x1840 DUP2 DUP5 PUSH2 0x17ED JUMP JUMPDEST SWAP1 POP SWAP3 SWAP2 POP POP JUMP JUMPDEST PUSH1 0x0 PUSH1 0x20 DUP3 ADD SWAP1 POP PUSH2 0x185D PUSH1 0x0 DUP4 ADD DUP5 PUSH2 0x16D4 JUMP JUMPDEST SWAP3 SWAP2 POP POP JUMP JUMPDEST PUSH1 0x0 PUSH1 0x20 DUP3 DUP5 SUB SLT ISZERO PUSH2 0x1879 JUMPI PUSH2 0x1878 PUSH2 0x1619 JUMP JUMPDEST JUMPDEST PUSH1 0x0 PUSH2 0x1887 DUP5 DUP3 DUP6 ADD PUSH2 0x173F JUMP JUMPDEST SWAP2 POP POP SWAP3 SWAP2 POP POP JUMP JUMPDEST PUSH1 0x0 PUSH1 0x80 DUP3 ADD SWAP1 POP DUP2 DUP2 SUB PUSH1 0x0 DUP4 ADD MSTORE PUSH2 0x18AA DUP2 DUP8 PUSH2 0x17ED JUMP JUMPDEST SWAP1 POP PUSH2 0x18B9 PUSH1 0x20 DUP4 ADD DUP7 PUSH2 0x16D4 JUMP JUMPDEST PUSH2 0x18C6 PUSH1 0x40 DUP4 ADD DUP6 PUSH2 0x16D4 JUMP JUMPDEST PUSH2 0x18D3 PUSH1 0x60 DUP4 ADD DUP5 PUSH2 0x16D4 JUMP JUMPDEST SWAP6 SWAP5 POP POP POP POP POP JUMP JUMPDEST PUSH2 0x18E5 DUP2 PUSH2 0x163E JUMP JUMPDEST DUP3 MSTORE POP POP JUMP JUMPDEST PUSH1 0x0 PUSH1 0x20 DUP3 ADD SWAP1 POP PUSH2 0x1900 PUSH1 0x0 DUP4 ADD DUP5 PUSH2 0x18DC JUMP JUMPDEST SWAP3 SWAP2 POP POP JUMP JUMPDEST PUSH1 0x0 DUP1 PUSH1 0x40 DUP4 DUP6 SUB SLT ISZERO PUSH2 0x191D JUMPI PUSH2 0x191C PUSH2 0x1619 JUMP JUMPDEST JUMPDEST PUSH1 0x0 PUSH2 0x192B DUP6 DUP3 DUP7 ADD PUSH2 0x1667 JUMP JUMPDEST SWAP3 POP POP PUSH1 0x20 PUSH2 0x193C DUP6 DUP3 DUP7 ADD PUSH2 0x173F JUMP JUMPDEST SWAP2 POP POP SWAP3 POP SWAP3 SWAP1 POP JUMP JUMPDEST PUSH32 0x66656520616C7265616479207061696400000000000000000000000000000000 PUSH1 0x0 DUP3 ADD MSTORE POP JUMP JUMPDEST PUSH1 0x0 PUSH2 0x197C PUSH1 0x10 DUP4 PUSH2 0x1530 JUMP JUMPDEST SWAP2 POP PUSH2 0x1987 DUP3 PUSH2 0x1946 JUMP JUMPDEST PUSH1 0x20 DUP3 ADD SWAP1 POP SWAP2 SWAP1 POP JUMP JUMPDEST PUSH1 0x0 PUSH1 0x20 DUP3 ADD SWAP1 POP DUP2 DUP2 SUB PUSH1 0x0 DUP4 ADD MSTORE PUSH2 0x19AB DUP2 PUSH2 0x196F JUMP JUMPDEST SWAP1 POP SWAP2 SWAP1 POP JUMP JUMPDEST PUSH32 0x4E487B7100000000000000000000000000000000000000000000000000000000 PUSH1 0x0 MSTORE PUSH1 0x12 PUSH1 0x4 MSTORE PUSH1 0x24 PUSH1 0x0 REVERT JUMPDEST PUSH32 0x4E487B7100000000000000000000000000000000000000000000000000000000 PUSH1 0x0 MSTORE PUSH1 0x11 PUSH1 0x4 MSTORE PUSH1 0x24 PUSH1 0x0 REVERT JUMPDEST PUSH1 0x0 PUSH2 0x1A1B DUP3 PUSH2 0x16CA JUMP JUMPDEST SWAP2 POP PUSH2 0x1A26 DUP4 PUSH2 0x16CA JUMP JUMPDEST SWAP3 POP DUP3 PUSH2 0x1A36 JUMPI PUSH2 0x1A35 PUSH2 0x19B2 JUMP JUMPDEST JUMPDEST DUP3 DUP3 DIV SWAP1 POP SWAP3 SWAP2 POP POP JUMP JUMPDEST PUSH32 0x4E487B7100000000000000000000000000000000000000000000000000000000 PUSH1 0x0 MSTORE PUSH1 0x22 PUSH1 0x4 MSTORE PUSH1 0x24 PUSH1 0x0 REVERT JUMPDEST PUSH1 0x0 PUSH1 0x2 DUP3 DIV SWAP1 POP PUSH1 0x1 DUP3 AND DUP1 PUSH2 0x1A88 JUMPI PUSH1 0x7F DUP3 AND SWAP2 POP JUMPDEST PUSH1 0x20 DUP3 LT DUP2 SUB PUSH2 0x1A9B JUMPI PUSH2 0x1A9A PUSH2 0x1A41 JUMP JUMPDEST JUMPDEST POP SWAP2 SWAP1 POP JUMP JUMPDEST PUSH32 0x596F7520646F6E27742070617274696369706174650000000000000000000000 PUSH1 0x0 DUP3 ADD MSTORE POP JUMP JUMPDEST PUSH1 0x0 PUSH2 0x1AD7 PUSH1 0x15 DUP4 PUSH2 0x1530 JUMP JUMPDEST SWAP2 POP PUSH2 0x1AE2 DUP3 PUSH2 0x1AA1 JUMP JUMPDEST PUSH1 0x20 DUP3 ADD SWAP1 POP SWAP2 SWAP1 POP JUMP JUMPDEST PUSH1 0x0 PUSH1 0x20 DUP3 ADD SWAP1 POP DUP2 DUP2 SUB PUSH1 0x0 DUP4 ADD MSTORE PUSH2 0x1B06 DUP2 PUSH2 0x1ACA JUMP JUMPDEST SWAP1 POP SWAP2 SWAP1 POP JUMP JUMPDEST PUSH32 0x70617920706C6174666F726D2066656520666972737400000000000000000000 PUSH1 0x0 DUP3 ADD MSTORE POP JUMP JUMPDEST PUSH1 0x0 PUSH2 0x1B43 PUSH1 0x16 DUP4 PUSH2 0x1530 JUMP JUMPDEST SWAP2 POP PUSH2 0x1B4E DUP3 PUSH2 0x1B0D JUMP JUMPDEST PUSH1 0x20 DUP3 ADD SWAP1 POP SWAP2 SWAP1 POP JUMP JUMPDEST PUSH1 0x0 PUSH1 0x20 DUP3 ADD SWAP1 POP DUP2 DUP2 SUB PUSH1 0x0 DUP4 ADD MSTORE PUSH2 0x1B72 DUP2 PUSH2 0x1B36 JUMP JUMPDEST SWAP1 POP SWAP2 SWAP1 POP JUMP JUMPDEST PUSH32 0x6E6F206761696E00000000000000000000000000000000000000000000000000 PUSH1 0x0 DUP3 ADD MSTORE POP JUMP JUMPDEST PUSH1 0x0 PUSH2 0x1BAF PUSH1 0x7 DUP4 PUSH2 0x1530 JUMP JUMPDEST SWAP2 POP PUSH2 0x1BBA DUP3 PUSH2 0x1B79 JUMP JUMPDEST PUSH1 0x20 DUP3 ADD SWAP1 POP SWAP2 SWAP1 POP JUMP JUMPDEST PUSH1 0x0 PUSH1 0x20 DUP3 ADD SWAP1 POP DUP2 DUP2 SUB PUSH1 0x0 DUP4 ADD MSTORE PUSH2 0x1BDE DUP2 PUSH2 0x1BA2 JUMP JUMPDEST SWAP1 POP SWAP2 SWAP1 POP JUMP JUMPDEST PUSH1 0x0 PUSH2 0x1BF0 DUP3 PUSH2 0x16CA JUMP JUMPDEST SWAP2 POP PUSH2 0x1BFB DUP4 PUSH2 0x16CA JUMP JUMPDEST SWAP3 POP DUP3 DUP3 MUL PUSH2 0x1C09 DUP2 PUSH2 0x16CA JUMP JUMPDEST SWAP2 POP DUP3 DUP3 DIV DUP5 EQ DUP4 ISZERO OR PUSH2 0x1C20 JUMPI PUSH2 0x1C1F PUSH2 0x19E1 JUMP JUMPDEST JUMPDEST POP SWAP3 SWAP2 POP POP JUMP JUMPDEST PUSH1 0x0 PUSH8 0xFFFFFFFFFFFFFFFF DUP3 AND SWAP1 POP SWAP2 SWAP1 POP JUMP JUMPDEST PUSH2 0x1C44 DUP2 PUSH2 0x1C27 JUMP JUMPDEST DUP2 EQ PUSH2 0x1C4F JUMPI PUSH1 0x0 DUP1 REVERT JUMPDEST POP JUMP JUMPDEST PUSH1 0x0 DUP2 MLOAD SWAP1 POP PUSH2 0x1C61 DUP2 PUSH2 0x1C3B JUMP JUMPDEST SWAP3 SWAP2 POP POP JUMP JUMPDEST PUSH1 0x0 PUSH1 0x20 DUP3 DUP5 SUB SLT ISZERO PUSH2 0x1C7D JUMPI PUSH2 0x1C7C PUSH2 0x1619 JUMP JUMPDEST JUMPDEST PUSH1 0x0 PUSH2 0x1C8B DUP5 DUP3 DUP6 ADD PUSH2 0x1C52 JUMP JUMPDEST SWAP2 POP POP SWAP3 SWAP2 POP POP JUMP JUMPDEST PUSH32 0x636F6D70657469746F7220646F6E277420657869737400000000000000000000 PUSH1 0x0 DUP3 ADD MSTORE POP JUMP JUMPDEST PUSH1 0x0 PUSH2 0x1CCA PUSH1 0x16 DUP4 PUSH2 0x1530 JUMP JUMPDEST SWAP2 POP PUSH2 0x1CD5 DUP3 PUSH2 0x1C94 JUMP JUMPDEST PUSH1 0x20 DUP3 ADD SWAP1 POP SWAP2 SWAP1 POP JUMP JUMPDEST PUSH1 0x0 PUSH1 0x20 DUP3 ADD SWAP1 POP DUP2 DUP2 SUB PUSH1 0x0 DUP4 ADD MSTORE PUSH2 0x1CF9 DUP2 PUSH2 0x1CBD JUMP JUMPDEST SWAP1 POP SWAP2 SWAP1 POP JUMP JUMPDEST PUSH1 0x0 PUSH2 0x1D0B DUP3 PUSH2 0x16CA JUMP JUMPDEST SWAP2 POP PUSH32 0xFFFFFFFFFFFFFFFFFFFFFFFFFFFFFFFFFFFFFFFFFFFFFFFFFFFFFFFFFFFFFFFF DUP3 SUB PUSH2 0x1D3D JUMPI PUSH2 0x1D3C PUSH2 0x19E1 JUMP JUMPDEST JUMPDEST PUSH1 0x1 DUP3 ADD SWAP1 POP SWAP2 SWAP1 POP JUMP JUMPDEST PUSH1 0x0 PUSH2 0x1D53 DUP3 PUSH2 0x16CA JUMP JUMPDEST SWAP2 POP PUSH2 0x1D5E DUP4 PUSH2 0x16CA JUMP JUMPDEST SWAP3 POP DUP3 DUP3 ADD SWAP1 POP DUP1 DUP3 GT ISZERO PUSH2 0x1D76 JUMPI PUSH2 0x1D75 PUSH2 0x19E1 JUMP JUMPDEST JUMPDEST SWAP3 SWAP2 POP POP JUMP JUMPDEST PUSH1 0x0 PUSH1 0xE0 DUP3 ADD SWAP1 POP PUSH2 0x1D91 PUSH1 0x0 DUP4 ADD DUP11 PUSH2 0x18DC JUMP JUMPDEST PUSH2 0x1D9E PUSH1 0x20 DUP4 ADD DUP10 PUSH2 0x16D4 JUMP JUMPDEST PUSH2 0x1DAB PUSH1 0x40 DUP4 ADD DUP9 PUSH2 0x16D4 JUMP JUMPDEST PUSH2 0x1DB8 PUSH1 0x60 DUP4 ADD DUP8 PUSH2 0x16D4 JUMP JUMPDEST PUSH2 0x1DC5 PUSH1 0x80 DUP4 ADD DUP7 PUSH2 0x16D4 JUMP JUMPDEST PUSH2 0x1DD2 PUSH1 0xA0 DUP4 ADD DUP6 PUSH2 0x16D4 JUMP JUMPDEST PUSH2 0x1DDF PUSH1 0xC0 DUP4 ADD DUP5 PUSH2 0x16D4 JUMP JUMPDEST SWAP9 SWAP8 POP POP POP POP POP POP POP POP JUMP JUMPDEST PUSH1 0x0 DUP2 SWAP1 POP SWAP3 SWAP2 POP POP JUMP JUMPDEST POP JUMP JUMPDEST PUSH1 0x0 PUSH2 0x1E06 PUSH1 0x0 DUP4 PUSH2 0x1DEB JUMP JUMPDEST SWAP2 POP PUSH2 0x1E11 DUP3 PUSH2 0x1DF6 JUMP JUMPDEST PUSH1 0x0 DUP3 ADD SWAP1 POP SWAP2 SWAP1 POP JUMP JUMPDEST PUSH1 0x0 PUSH2 0x1E27 DUP3 PUSH2 0x1DF9 JUMP JUMPDEST SWAP2 POP DUP2 SWAP1 POP SWAP2 SWAP1 POP JUMP JUMPDEST PUSH32 0x4661696C656420746F2073656E64204574686572000000000000000000000000 PUSH1 0x0 DUP3 ADD MSTORE POP JUMP JUMPDEST PUSH1 0x0 PUSH2 0x1E67 PUSH1 0x14 DUP4 PUSH2 0x1530 JUMP JUMPDEST SWAP2 POP PUSH2 0x1E72 DUP3 PUSH2 0x1E31 JUMP JUMPDEST PUSH1 0x20 DUP3 ADD SWAP1 POP SWAP2 SWAP1 POP JUMP JUMPDEST PUSH1 0x0 PUSH1 0x20 DUP3 ADD SWAP1 POP DUP2 DUP2 SUB PUSH1 0x0 DUP4 ADD MSTORE PUSH2 0x1E96 DUP2 PUSH2 0x1E5A JUMP JUMPDEST SWAP1 POP SWAP2 SWAP1 POP JUMP INVALID LOG2 PUSH5 0x6970667358 0x22 SLT KECCAK256 SWAP12 RETURNDATACOPY PUSH26 0xEB548D2FAD933502B0759DC311FDC0D10D1E3A8916A57794FD1D PUSH14 0xD73364736F6C6343000815003300 "},"methodIdentifiers":{"beginEventTimestamp()":"a14de028","betName()":"607075fc","betWaveDaoAddress()":"d93e03b0","betWavesOrganizerAddress()":"c6073c66","bettors(address)":"22010c1f","calculateValidatorReward(uint256)":"ebfb6652","competitors(uint256)":"9d86801f","endEventTimestamp()":"a32b3487","redeemToBettor()":"ad05d9c3","sendPlatfromAndCreatorFees(uint256,uint256,address)":"5c3a3e5c","sendValidatorFees(address,uint256)":"cf959429","setBet(uint256)":"e8399cc6","setFeesBooleanToTrue()":"a99073ae","setWinnerId(uint256)":"dc09f682","totalBet()":"fe5e1853","winnerId()":"91e0d593"}}}}}