{"contracts/BetWaveOrganizer.sol":{"BetWaveOrganizer":{"abi":[{"inputs":[{"internalType":"address","name":"_betWaveDAOAddress","type":"address"}],"stateMutability":"payable","type":"constructor"},{"inputs":[],"name":"noWinner","type":"error"},{"inputs":[],"name":"notOwner","type":"error"},{"inputs":[],"name":"notRegistered","type":"error"},{"inputs":[],"name":"notValidator","type":"error"},{"inputs":[],"name":"wrongStep","type":"error"},{"anonymous":false,"inputs":[{"indexed":false,"internalType":"address","name":"","type":"address"},{"indexed":false,"internalType":"string","name":"","type":"string"},{"indexed":false,"internalType":"string","name":"","type":"string"}],"name":"newBet","type":"event"},{"anonymous":false,"inputs":[{"indexed":false,"internalType":"address","name":"","type":"address"}],"name":"startCount","type":"event"},{"anonymous":false,"inputs":[{"indexed":false,"internalType":"address","name":"","type":"address"}],"name":"startValidation","type":"event"},{"stateMutability":"payable","type":"fallback"},{"inputs":[{"internalType":"address","name":"","type":"address"}],"name":"betList","outputs":[{"internalType":"uint256","name":"validationNumber","type":"uint256"},{"internalType":"string","name":"compName1","type":"string"},{"internalType":"string","name":"compName2","type":"string"},{"internalType":"address","name":"owner","type":"address"},{"internalType":"uint256","name":"voteCount","type":"uint256"},{"internalType":"uint256","name":"comp1VoteCount","type":"uint256"},{"internalType":"uint256","name":"comp2VoteCount","type":"uint256"},{"internalType":"enum BetWaveOrganizer.BetStatus","name":"betStatus","type":"uint8"}],"stateMutability":"view","type":"function"},{"inputs":[{"internalType":"string","name":"_compName1","type":"string"},{"internalType":"string","name":"_compName2","type":"string"}],"name":"deployNewBet","outputs":[],"stateMutability":"nonpayable","type":"function"},{"inputs":[{"internalType":"address","name":"_betAddress","type":"address"}],"name":"getBetValidatorsResult","outputs":[{"internalType":"uint256","name":"","type":"uint256"}],"stateMutability":"view","type":"function"},{"inputs":[{"internalType":"address","name":"_betAddress","type":"address"},{"internalType":"uint256","name":"_id","type":"uint256"}],"name":"getvalidatorAddress","outputs":[{"internalType":"address","name":"","type":"address"}],"stateMutability":"view","type":"function"},{"inputs":[{"internalType":"uint256","name":"_compId","type":"uint256"},{"internalType":"address","name":"_betAddress","type":"address"}],"name":"setBetVote","outputs":[],"stateMutability":"nonpayable","type":"function"},{"inputs":[{"internalType":"address","name":"_betAddress","type":"address"}],"name":"startBetValidation","outputs":[],"stateMutability":"nonpayable","type":"function"},{"inputs":[{"internalType":"address","name":"_betAddress","type":"address"}],"name":"tallyVote","outputs":[],"stateMutability":"nonpayable","type":"function"},{"stateMutability":"payable","type":"receive"}],"evm":{"bytecode":{"linkReferences":{},"object":"60806040526040518060400160405280600881526020017f616c626174726f73000000000000000000000000000000000000000000000000815250600090816200004a919062000332565b506040516200540c3803806200540c833981810160405281019062000070919062000483565b80600260006101000a81548173ffffffffffffffffffffffffffffffffffffffff021916908373ffffffffffffffffffffffffffffffffffffffff16021790555050620004b5565b600081519050919050565b7f4e487b7100000000000000000000000000000000000000000000000000000000600052604160045260246000fd5b7f4e487b7100000000000000000000000000000000000000000000000000000000600052602260045260246000fd5b600060028204905060018216806200013a57607f821691505b60208210810362000150576200014f620000f2565b5b50919050565b60008190508160005260206000209050919050565b60006020601f8301049050919050565b600082821b905092915050565b600060088302620001ba7fffffffffffffffffffffffffffffffffffffffffffffffffffffffffffffffff826200017b565b620001c686836200017b565b95508019841693508086168417925050509392505050565b6000819050919050565b6000819050919050565b6000620002136200020d6200020784620001de565b620001e8565b620001de565b9050919050565b6000819050919050565b6200022f83620001f2565b620002476200023e826200021a565b84845462000188565b825550505050565b600090565b6200025e6200024f565b6200026b81848462000224565b505050565b5b8181101562000293576200028760008262000254565b60018101905062000271565b5050565b601f821115620002e257620002ac8162000156565b620002b7846200016b565b81016020851015620002c7578190505b620002df620002d6856200016b565b83018262000270565b50505b505050565b600082821c905092915050565b60006200030760001984600802620002e7565b1980831691505092915050565b6000620003228383620002f4565b9150826002028217905092915050565b6200033d82620000b8565b67ffffffffffffffff811115620003595762000358620000c3565b5b62000365825462000121565b6200037282828562000297565b600060209050601f831160018114620003aa576000841562000395578287015190505b620003a1858262000314565b86555062000411565b601f198416620003ba8662000156565b60005b82811015620003e457848901518255600182019150602085019450602081019050620003bd565b8683101562000404578489015162000400601f891682620002f4565b8355505b6001600288020188555050505b505050505050565b600080fd5b600073ffffffffffffffffffffffffffffffffffffffff82169050919050565b60006200044b826200041e565b9050919050565b6200045d816200043e565b81146200046957600080fd5b50565b6000815190506200047d8162000452565b92915050565b6000602082840312156200049c576200049b62000419565b5b6000620004ac848285016200046c565b91505092915050565b614f4780620004c56000396000f3fe6080604052600436106200007f5760003560e01c8063a5f9b6431162000055578063a5f9b64314620001b7578063cef84a6214620001e5578063ee9c03621462000230578063fd3393fe146200027457620000cf565b8063411786511462000117578063458f6f6f14620001455780639aa7ca42146200018957620000cf565b36620000cf5761c350341015620000cd576040517f08c379a0000000000000000000000000000000000000000000000000000000008152600401620000c49062001ebb565b60405180910390fd5b005b6040518060400160405280601e81526020017f46616c6c6261636b2066756e6374696f6e2069732065786563757465642100008152506000908162000115919062002157565b005b3480156200012457600080fd5b506200014360048036038101906200013d9190620022e8565b620002a2565b005b3480156200015257600080fd5b506200017160048036038101906200016b91906200232f565b62000a08565b60405162000180919062002387565b60405180910390f35b3480156200019657600080fd5b50620001b56004803603810190620001af9190620023a4565b62000a94565b005b348015620001c457600080fd5b50620001e36004803603810190620001dd919062002509565b62001005565b005b348015620001f257600080fd5b506200021160048036038101906200020b9190620023a4565b62001486565b604051620002279897969594939291906200268c565b60405180910390f35b3480156200023d57600080fd5b506200025c6004803603810190620002569190620023a4565b6200161b565b6040516200026b919062002728565b60405180910390f35b3480156200028157600080fd5b50620002a060048036038101906200029a9190620023a4565b620016a4565b005b600181816003811115620002bb57620002ba6200260c565b5b600160008373ffffffffffffffffffffffffffffffffffffffff1673ffffffffffffffffffffffffffffffffffffffff16815260200190815260200160002060090160009054906101000a900460ff16600381111562000320576200031f6200260c565b5b1462000358576040517f248d543200000000000000000000000000000000000000000000000000000000815260040160405180910390fd5b600284106200039e576040517f08c379a0000000000000000000000000000000000000000000000000000000008152600401620003959062002795565b60405180910390fd5b6000600260009054906101000a900473ffffffffffffffffffffffffffffffffffffffff1673ffffffffffffffffffffffffffffffffffffffff1663fa52c7d8336040518263ffffffff1660e01b8152600401620003fd919062002387565b606060405180830381865afa1580156200041b573d6000803e3d6000fd5b505050506040513d601f19601f8201168201806040525081019062000441919062002850565b505090503373ffffffffffffffffffffffffffffffffffffffff168173ffffffffffffffffffffffffffffffffffffffff1614620004ab576040517fec752d2a00000000000000000000000000000000000000000000000000000000815260040160405180910390fd5b600085036200069657600160008573ffffffffffffffffffffffffffffffffffffffff1673ffffffffffffffffffffffffffffffffffffffff16815260200190815260200160002060070160008154809291906200050990620028db565b9190505550600160008573ffffffffffffffffffffffffffffffffffffffff1673ffffffffffffffffffffffffffffffffffffffff16815260200190815260200160002060060160008154809291906200056390620028db565b91905055506000600160008673ffffffffffffffffffffffffffffffffffffffff1673ffffffffffffffffffffffffffffffffffffffff16815260200190815260200160002060040160003373ffffffffffffffffffffffffffffffffffffffff1673ffffffffffffffffffffffffffffffffffffffff16815260200190815260200160002081905550600160008573ffffffffffffffffffffffffffffffffffffffff1673ffffffffffffffffffffffffffffffffffffffff168152602001908152602001600020600501339080600181540180825580915050600190039060005260206000200160009091909190916101000a81548173ffffffffffffffffffffffffffffffffffffffff021916908373ffffffffffffffffffffffffffffffffffffffff1602179055506200087c565b600185036200087b57600160008573ffffffffffffffffffffffffffffffffffffffff1673ffffffffffffffffffffffffffffffffffffffff1681526020019081526020016000206008016000815480929190620006f490620028db565b9190505550600160008573ffffffffffffffffffffffffffffffffffffffff1673ffffffffffffffffffffffffffffffffffffffff16815260200190815260200160002060060160008154809291906200074e90620028db565b919050555060018060008673ffffffffffffffffffffffffffffffffffffffff1673ffffffffffffffffffffffffffffffffffffffff16815260200190815260200160002060040160003373ffffffffffffffffffffffffffffffffffffffff1673ffffffffffffffffffffffffffffffffffffffff16815260200190815260200160002081905550600160008573ffffffffffffffffffffffffffffffffffffffff1673ffffffffffffffffffffffffffffffffffffffff168152602001908152602001600020600501339080600181540180825580915050600190039060005260206000200160009091909190916101000a81548173ffffffffffffffffffffffffffffffffffffffff021916908373ffffffffffffffffffffffffffffffffffffffff1602179055505b5b600260009054906101000a900473ffffffffffffffffffffffffffffffffffffffff1673ffffffffffffffffffffffffffffffffffffffff166353db7e776040518163ffffffff1660e01b8152600401602060405180830381865afa158015620008ea573d6000803e3d6000fd5b505050506040513d601f19601f8201168201806040525081019062000910919062002928565b600160008673ffffffffffffffffffffffffffffffffffffffff1673ffffffffffffffffffffffffffffffffffffffff168152602001908152602001600020600601541062000a01576002600160008673ffffffffffffffffffffffffffffffffffffffff1673ffffffffffffffffffffffffffffffffffffffff16815260200190815260200160002060090160006101000a81548160ff02191690836003811115620009c257620009c16200260c565b5b02179055507fc7e162d919b6b9aab852a8c03449630d12cd29ba4c4219786db08ee9d51c9b6084604051620009f8919062002387565b60405180910390a15b5050505050565b6000600160008473ffffffffffffffffffffffffffffffffffffffff1673ffffffffffffffffffffffffffffffffffffffff168152602001908152602001600020600501828154811062000a615762000a606200295a565b5b9060005260206000200160009054906101000a900473ffffffffffffffffffffffffffffffffffffffff16905092915050565b803373ffffffffffffffffffffffffffffffffffffffff16600160008373ffffffffffffffffffffffffffffffffffffffff1673ffffffffffffffffffffffffffffffffffffffff16815260200190815260200160002060030160009054906101000a900473ffffffffffffffffffffffffffffffffffffffff1673ffffffffffffffffffffffffffffffffffffffff161462000b5d576040517f251c9d6300000000000000000000000000000000000000000000000000000000815260040160405180910390fd5b60028281600381111562000b765762000b756200260c565b5b600160008373ffffffffffffffffffffffffffffffffffffffff1673ffffffffffffffffffffffffffffffffffffffff16815260200190815260200160002060090160009054906101000a900460ff16600381111562000bdb5762000bda6200260c565b5b1462000c13576040517f248d543200000000000000000000000000000000000000000000000000000000815260040160405180910390fd5b6000600160008673ffffffffffffffffffffffffffffffffffffffff1673ffffffffffffffffffffffffffffffffffffffff16815260200190815260200160002060080154600160008773ffffffffffffffffffffffffffffffffffffffff1673ffffffffffffffffffffffffffffffffffffffff16815260200190815260200160002060070154111562000df057600260009054906101000a900473ffffffffffffffffffffffffffffffffffffffff1673ffffffffffffffffffffffffffffffffffffffff16630b85000d6040518163ffffffff1660e01b8152600401602060405180830381865afa15801562000d10573d6000803e3d6000fd5b505050506040513d601f19601f8201168201806040525081019062000d36919062002928565b600160008773ffffffffffffffffffffffffffffffffffffffff1673ffffffffffffffffffffffffffffffffffffffff168152602001908152602001600020600601546064600160008973ffffffffffffffffffffffffffffffffffffffff1673ffffffffffffffffffffffffffffffffffffffff1681526020019081526020016000206007015462000dca919062002989565b62000dd6919062002a03565b1062000dea5762000de9856000620018cf565b5b62000ffe565b600160008673ffffffffffffffffffffffffffffffffffffffff1673ffffffffffffffffffffffffffffffffffffffff16815260200190815260200160002060080154600160008773ffffffffffffffffffffffffffffffffffffffff1673ffffffffffffffffffffffffffffffffffffffff16815260200190815260200160002060070154101562000fcb57600260009054906101000a900473ffffffffffffffffffffffffffffffffffffffff1673ffffffffffffffffffffffffffffffffffffffff16630b85000d6040518163ffffffff1660e01b8152600401602060405180830381865afa15801562000eeb573d6000803e3d6000fd5b505050506040513d601f19601f8201168201806040525081019062000f11919062002928565b600160008773ffffffffffffffffffffffffffffffffffffffff1673ffffffffffffffffffffffffffffffffffffffff168152602001908152602001600020600601546064600160008973ffffffffffffffffffffffffffffffffffffffff1673ffffffffffffffffffffffffffffffffffffffff1681526020019081526020016000206008015462000fa5919062002989565b62000fb1919062002a03565b1062000fc55762000fc4856001620018cf565b5b62000ffd565b6040517fbc7316f200000000000000000000000000000000000000000000000000000000815260040160405180910390fd5b5b5050505050565b6000600260009054906101000a900473ffffffffffffffffffffffffffffffffffffffff1673ffffffffffffffffffffffffffffffffffffffff16630b4805d3336040518263ffffffff1660e01b815260040162001064919062002387565b602060405180830381865afa15801562001082573d6000803e3d6000fd5b505050506040513d601f19601f82011682018060405250810190620010a8919062002928565b03620010e0576040517f3a70817d00000000000000000000000000000000000000000000000000000000815260040160405180910390fd5b600260009054906101000a900473ffffffffffffffffffffffffffffffffffffffff1673ffffffffffffffffffffffffffffffffffffffff166353db7e776040518163ffffffff1660e01b8152600401602060405180830381865afa1580156200114e573d6000803e3d6000fd5b505050506040513d601f19601f8201168201806040525081019062001174919062002928565b600260009054906101000a900473ffffffffffffffffffffffffffffffffffffffff1673ffffffffffffffffffffffffffffffffffffffff1663139f29a16040518163ffffffff1660e01b8152600401602060405180830381865afa158015620011e2573d6000803e3d6000fd5b505050506040513d601f19601f8201168201806040525081019062001208919062002928565b10156200124c576040517f08c379a0000000000000000000000000000000000000000000000000000000008152600401620012439062002a8b565b60405180910390fd5b6000828230600260009054906101000a900473ffffffffffffffffffffffffffffffffffffffff16604051620012829062001e4c565b62001291949392919062002aad565b604051809103906000f080158015620012ae573d6000803e3d6000fd5b50905082600160008373ffffffffffffffffffffffffffffffffffffffff1673ffffffffffffffffffffffffffffffffffffffff168152602001908152602001600020600101908162001302919062002157565b5081600160008373ffffffffffffffffffffffffffffffffffffffff1673ffffffffffffffffffffffffffffffffffffffff168152602001908152602001600020600201908162001354919062002157565b5033600160008373ffffffffffffffffffffffffffffffffffffffff1673ffffffffffffffffffffffffffffffffffffffff16815260200190815260200160002060030160006101000a81548173ffffffffffffffffffffffffffffffffffffffff021916908373ffffffffffffffffffffffffffffffffffffffff1602179055506000600160008373ffffffffffffffffffffffffffffffffffffffff1673ffffffffffffffffffffffffffffffffffffffff16815260200190815260200160002060090160006101000a81548160ff021916908360038111156200143f576200143e6200260c565b5b02179055507f909e36e1d400e483a06621ce59ea23139b7a5c694c10b1e889d0e79ce49922f2818484604051620014799392919062002b08565b60405180910390a1505050565b6001602052806000526040600020600091509050806000015490806001018054620014b19062001f46565b80601f0160208091040260200160405190810160405280929190818152602001828054620014df9062001f46565b8015620015305780601f10620015045761010080835404028352916020019162001530565b820191906000526020600020905b8154815290600101906020018083116200151257829003601f168201915b505050505090806002018054620015479062001f46565b80601f0160208091040260200160405190810160405280929190818152602001828054620015759062001f46565b8015620015c65780601f106200159a57610100808354040283529160200191620015c6565b820191906000526020600020905b815481529060010190602001808311620015a857829003601f168201915b5050505050908060030160009054906101000a900473ffffffffffffffffffffffffffffffffffffffff16908060060154908060070154908060080154908060090160009054906101000a900460ff16905088565b6000600160008373ffffffffffffffffffffffffffffffffffffffff1673ffffffffffffffffffffffffffffffffffffffff16815260200190815260200160002060040160003373ffffffffffffffffffffffffffffffffffffffff1673ffffffffffffffffffffffffffffffffffffffff168152602001908152602001600020549050919050565b803373ffffffffffffffffffffffffffffffffffffffff16600160008373ffffffffffffffffffffffffffffffffffffffff1673ffffffffffffffffffffffffffffffffffffffff16815260200190815260200160002060030160009054906101000a900473ffffffffffffffffffffffffffffffffffffffff1673ffffffffffffffffffffffffffffffffffffffff16146200176d576040517f251c9d6300000000000000000000000000000000000000000000000000000000815260040160405180910390fd5b6000828160038111156200178657620017856200260c565b5b600160008373ffffffffffffffffffffffffffffffffffffffff1673ffffffffffffffffffffffffffffffffffffffff16815260200190815260200160002060090160009054906101000a900460ff166003811115620017eb57620017ea6200260c565b5b1462001823576040517f248d543200000000000000000000000000000000000000000000000000000000815260040160405180910390fd5b60018060008673ffffffffffffffffffffffffffffffffffffffff1673ffffffffffffffffffffffffffffffffffffffff16815260200190815260200160002060090160006101000a81548160ff021916908360038111156200188b576200188a6200260c565b5b02179055507f8ebce6dadff954899922e37e6884f44f19ef94b282a760a548c170743cc892e184604051620018c1919062002387565b60405180910390a150505050565b8173ffffffffffffffffffffffffffffffffffffffff16631df79b65600260009054906101000a900473ffffffffffffffffffffffffffffffffffffffff1673ffffffffffffffffffffffffffffffffffffffff1663194a4e7e6040518163ffffffff1660e01b8152600401602060405180830381865afa15801562001959573d6000803e3d6000fd5b505050506040513d601f19601f820116820180604052508101906200197f919062002928565b600260009054906101000a900473ffffffffffffffffffffffffffffffffffffffff1673ffffffffffffffffffffffffffffffffffffffff16636694ba616040518163ffffffff1660e01b8152600401602060405180830381865afa158015620019ed573d6000803e3d6000fd5b505050506040513d601f19601f8201168201806040525081019062001a13919062002928565b6040518363ffffffff1660e01b815260040162001a3292919062002b53565b600060405180830381600087803b15801562001a4d57600080fd5b505af115801562001a62573d6000803e3d6000fd5b5050505060008273ffffffffffffffffffffffffffffffffffffffff1663ebfb6652600260009054906101000a900473ffffffffffffffffffffffffffffffffffffffff1673ffffffffffffffffffffffffffffffffffffffff166372e24fdd6040518163ffffffff1660e01b8152600401602060405180830381865afa15801562001af2573d6000803e3d6000fd5b505050506040513d601f19601f8201168201806040525081019062001b18919062002928565b6040518263ffffffff1660e01b815260040162001b36919062002728565b602060405180830381865afa15801562001b54573d6000803e3d6000fd5b505050506040513d601f19601f8201168201806040525081019062001b7a919062002928565b905060005b600160008573ffffffffffffffffffffffffffffffffffffffff1673ffffffffffffffffffffffffffffffffffffffff1681526020019081526020016000206005018054905081101562001de45782600160008673ffffffffffffffffffffffffffffffffffffffff1673ffffffffffffffffffffffffffffffffffffffff1681526020019081526020016000206004016000600160008873ffffffffffffffffffffffffffffffffffffffff1673ffffffffffffffffffffffffffffffffffffffff168152602001908152602001600020600501848154811062001c695762001c686200295a565b5b9060005260206000200160009054906101000a900473ffffffffffffffffffffffffffffffffffffffff1673ffffffffffffffffffffffffffffffffffffffff1673ffffffffffffffffffffffffffffffffffffffff168152602001908152602001600020540362001dcd578373ffffffffffffffffffffffffffffffffffffffff1663cf959429600160008773ffffffffffffffffffffffffffffffffffffffff1673ffffffffffffffffffffffffffffffffffffffff168152602001908152602001600020600501838154811062001d485762001d476200295a565b5b9060005260206000200160009054906101000a900473ffffffffffffffffffffffffffffffffffffffff16846040518363ffffffff1660e01b815260040162001d9392919062002b80565b600060405180830381600087803b15801562001dae57600080fd5b505af115801562001dc3573d6000803e3d6000fd5b5050505062001dce565b5b808062001ddb90620028db565b91505062001b7f565b508273ffffffffffffffffffffffffffffffffffffffff1663a99073ae6040518163ffffffff1660e01b8152600401600060405180830381600087803b15801562001e2e57600080fd5b505af115801562001e43573d6000803e3d6000fd5b50505050505050565b6123648062002bae83390190565b600082825260208201905092915050565b7f796f752063616e27742073656e64206c657373207468616e2035306b20776569600082015250565b600062001ea360208362001e5a565b915062001eb08262001e6b565b602082019050919050565b6000602082019050818103600083015262001ed68162001e94565b9050919050565b600081519050919050565b7f4e487b7100000000000000000000000000000000000000000000000000000000600052604160045260246000fd5b7f4e487b7100000000000000000000000000000000000000000000000000000000600052602260045260246000fd5b6000600282049050600182168062001f5f57607f821691505b60208210810362001f755762001f7462001f17565b5b50919050565b60008190508160005260206000209050919050565b60006020601f8301049050919050565b600082821b905092915050565b60006008830262001fdf7fffffffffffffffffffffffffffffffffffffffffffffffffffffffffffffffff8262001fa0565b62001feb868362001fa0565b95508019841693508086168417925050509392505050565b6000819050919050565b6000819050919050565b600062002038620020326200202c8462002003565b6200200d565b62002003565b9050919050565b6000819050919050565b620020548362002017565b6200206c62002063826200203f565b84845462001fad565b825550505050565b600090565b6200208362002074565b6200209081848462002049565b505050565b5b81811015620020b857620020ac60008262002079565b60018101905062002096565b5050565b601f8211156200210757620020d18162001f7b565b620020dc8462001f90565b81016020851015620020ec578190505b62002104620020fb8562001f90565b83018262002095565b50505b505050565b600082821c905092915050565b60006200212c600019846008026200210c565b1980831691505092915050565b600062002147838362002119565b9150826002028217905092915050565b620021628262001edd565b67ffffffffffffffff8111156200217e576200217d62001ee8565b5b6200218a825462001f46565b62002197828285620020bc565b600060209050601f831160018114620021cf5760008415620021ba578287015190505b620021c6858262002139565b86555062002236565b601f198416620021df8662001f7b565b60005b828110156200220957848901518255600182019150602085019450602081019050620021e2565b8683101562002229578489015162002225601f89168262002119565b8355505b6001600288020188555050505b505050505050565b6000604051905090565b600080fd5b600080fd5b6200225d8162002003565b81146200226957600080fd5b50565b6000813590506200227d8162002252565b92915050565b600073ffffffffffffffffffffffffffffffffffffffff82169050919050565b6000620022b08262002283565b9050919050565b620022c281620022a3565b8114620022ce57600080fd5b50565b600081359050620022e281620022b7565b92915050565b6000806040838503121562002302576200230162002248565b5b600062002312858286016200226c565b92505060206200232585828601620022d1565b9150509250929050565b6000806040838503121562002349576200234862002248565b5b60006200235985828601620022d1565b92505060206200236c858286016200226c565b9150509250929050565b6200238181620022a3565b82525050565b60006020820190506200239e600083018462002376565b92915050565b600060208284031215620023bd57620023bc62002248565b5b6000620023cd84828501620022d1565b91505092915050565b600080fd5b600080fd5b6000601f19601f8301169050919050565b620023fc82620023e0565b810181811067ffffffffffffffff821117156200241e576200241d62001ee8565b5b80604052505050565b6000620024336200223e565b9050620024418282620023f1565b919050565b600067ffffffffffffffff82111562002464576200246362001ee8565b5b6200246f82620023e0565b9050602081019050919050565b82818337600083830152505050565b6000620024a26200249c8462002446565b62002427565b905082815260208101848484011115620024c157620024c0620023db565b5b620024ce8482856200247c565b509392505050565b600082601f830112620024ee57620024ed620023d6565b5b8135620025008482602086016200248b565b91505092915050565b6000806040838503121562002523576200252262002248565b5b600083013567ffffffffffffffff8111156200254457620025436200224d565b5b6200255285828601620024d6565b925050602083013567ffffffffffffffff8111156200257657620025756200224d565b5b6200258485828601620024d6565b9150509250929050565b620025998162002003565b82525050565b60005b83811015620025bf578082015181840152602081019050620025a2565b60008484015250505050565b6000620025d88262001edd565b620025e4818562001e5a565b9350620025f68185602086016200259f565b6200260181620023e0565b840191505092915050565b7f4e487b7100000000000000000000000000000000000000000000000000000000600052602160045260246000fd5b600481106200264f576200264e6200260c565b5b50565b600081905062002662826200263b565b919050565b6000620026748262002652565b9050919050565b620026868162002667565b82525050565b600061010082019050620026a4600083018b6200258e565b8181036020830152620026b8818a620025cb565b90508181036040830152620026ce8189620025cb565b9050620026df606083018862002376565b620026ee60808301876200258e565b620026fd60a08301866200258e565b6200270c60c08301856200258e565b6200271b60e08301846200267b565b9998505050505050505050565b60006020820190506200273f60008301846200258e565b92915050565b7f756e6578697374696e6720636f6d70657469746f727300000000000000000000600082015250565b60006200277d60168362001e5a565b91506200278a8262002745565b602082019050919050565b60006020820190508181036000830152620027b0816200276e565b9050919050565b6000620027c48262002283565b9050919050565b620027d681620027b7565b8114620027e257600080fd5b50565b600081519050620027f681620027cb565b92915050565b60008115159050919050565b6200281381620027fc565b81146200281f57600080fd5b50565b600081519050620028338162002808565b92915050565b6000815190506200284a8162002252565b92915050565b6000806000606084860312156200286c576200286b62002248565b5b60006200287c86828701620027e5565b93505060206200288f8682870162002822565b9250506040620028a28682870162002839565b9150509250925092565b7f4e487b7100000000000000000000000000000000000000000000000000000000600052601160045260246000fd5b6000620028e88262002003565b91507fffffffffffffffffffffffffffffffffffffffffffffffffffffffffffffffff82036200291d576200291c620028ac565b5b600182019050919050565b60006020828403121562002941576200294062002248565b5b6000620029518482850162002839565b91505092915050565b7f4e487b7100000000000000000000000000000000000000000000000000000000600052603260045260246000fd5b6000620029968262002003565b9150620029a38362002003565b9250828202620029b38162002003565b91508282048414831517620029cd57620029cc620028ac565b5b5092915050565b7f4e487b7100000000000000000000000000000000000000000000000000000000600052601260045260246000fd5b600062002a108262002003565b915062002a1d8362002003565b92508262002a305762002a2f620029d4565b5b828204905092915050565b7f6e6f7420656e6f7567682076616c696461746f72000000000000000000000000600082015250565b600062002a7360148362001e5a565b915062002a808262002a3b565b602082019050919050565b6000602082019050818103600083015262002aa68162002a64565b9050919050565b6000608082019050818103600083015262002ac98187620025cb565b9050818103602083015262002adf8186620025cb565b905062002af0604083018562002376565b62002aff606083018462002376565b95945050505050565b600060608201905062002b1f600083018662002376565b818103602083015262002b338185620025cb565b9050818103604083015262002b498184620025cb565b9050949350505050565b600060408201905062002b6a60008301856200258e565b62002b7960208301846200258e565b9392505050565b600060408201905062002b97600083018562002376565b62002ba660208301846200258e565b939250505056fe6080604052604051620023643803806200236483398181016040528101906200002991906200037c565b81600260006101000a81548173ffffffffffffffffffffffffffffffffffffffff021916908373ffffffffffffffffffffffffffffffffffffffff16021790555080600360006101000a81548173ffffffffffffffffffffffffffffffffffffffff021916908373ffffffffffffffffffffffffffffffffffffffff16021790555083600960008081526020019081526020016000206000019081620000d0919062000677565b508260096000600181526020019081526020016000206000019081620000f7919062000677565b5081600b60006101000a81548173ffffffffffffffffffffffffffffffffffffffff021916908373ffffffffffffffffffffffffffffffffffffffff16021790555080600c60006101000a81548173ffffffffffffffffffffffffffffffffffffffff021916908373ffffffffffffffffffffffffffffffffffffffff160217905550505050506200075e565b6000604051905090565b600080fd5b600080fd5b600080fd5b600080fd5b6000601f19601f8301169050919050565b7f4e487b7100000000000000000000000000000000000000000000000000000000600052604160045260246000fd5b620001ed82620001a2565b810181811067ffffffffffffffff821117156200020f576200020e620001b3565b5b80604052505050565b60006200022462000184565b9050620002328282620001e2565b919050565b600067ffffffffffffffff821115620002555762000254620001b3565b5b6200026082620001a2565b9050602081019050919050565b60005b838110156200028d57808201518184015260208101905062000270565b60008484015250505050565b6000620002b0620002aa8462000237565b62000218565b905082815260208101848484011115620002cf57620002ce6200019d565b5b620002dc8482856200026d565b509392505050565b600082601f830112620002fc57620002fb62000198565b5b81516200030e84826020860162000299565b91505092915050565b600073ffffffffffffffffffffffffffffffffffffffff82169050919050565b6000620003448262000317565b9050919050565b620003568162000337565b81146200036257600080fd5b50565b60008151905062000376816200034b565b92915050565b600080600080608085870312156200039957620003986200018e565b5b600085015167ffffffffffffffff811115620003ba57620003b962000193565b5b620003c887828801620002e4565b945050602085015167ffffffffffffffff811115620003ec57620003eb62000193565b5b620003fa87828801620002e4565b93505060406200040d8782880162000365565b9250506060620004208782880162000365565b91505092959194509250565b600081519050919050565b7f4e487b7100000000000000000000000000000000000000000000000000000000600052602260045260246000fd5b600060028204905060018216806200047f57607f821691505b60208210810362000495576200049462000437565b5b50919050565b60008190508160005260206000209050919050565b60006020601f8301049050919050565b600082821b905092915050565b600060088302620004ff7fffffffffffffffffffffffffffffffffffffffffffffffffffffffffffffffff82620004c0565b6200050b8683620004c0565b95508019841693508086168417925050509392505050565b6000819050919050565b6000819050919050565b600062000558620005526200054c8462000523565b6200052d565b62000523565b9050919050565b6000819050919050565b620005748362000537565b6200058c62000583826200055f565b848454620004cd565b825550505050565b600090565b620005a362000594565b620005b081848462000569565b505050565b5b81811015620005d857620005cc60008262000599565b600181019050620005b6565b5050565b601f8211156200062757620005f1816200049b565b620005fc84620004b0565b810160208510156200060c578190505b620006246200061b85620004b0565b830182620005b5565b50505b505050565b600082821c905092915050565b60006200064c600019846008026200062c565b1980831691505092915050565b600062000667838362000639565b9150826002028217905092915050565b62000682826200042c565b67ffffffffffffffff8111156200069e576200069d620001b3565b5b620006aa825462000466565b620006b7828285620005dc565b600060209050601f831160018114620006ef5760008415620006da578287015190505b620006e6858262000659565b86555062000756565b601f198416620006ff866200049b565b60005b82811015620007295784890151825560018201915060208501945060208101905062000702565b8683101562000749578489015162000745601f89168262000639565b8355505b6001600288020188555050505b505050505050565b611bf6806200076e6000396000f3fe6080604052600436106100e15760003560e01c8063ad05d9c31161007f578063d93e03b011610059578063d93e03b014610350578063e8399cc61461037b578063ebfb665214610397578063fe5e1853146103d45761016b565b8063ad05d9c3146102f2578063c6073c66146102fc578063cf959429146103275761016b565b80639d86801f116100bb5780639d86801f14610245578063a14de02814610285578063a32b3487146102b0578063a99073ae146102db5761016b565b80631df79b65146101b157806322010c1f146101da5780636f9fb98a1461021a5761016b565b3661016b57640b68a0aa003411610124576040517f78e9f1ba00000000000000000000000000000000000000000000000000000000815260040160405180910390fd5b61c350341015610169576040517f08c379a0000000000000000000000000000000000000000000000000000000008152600401610160906111aa565b60405180910390fd5b005b6040518060400160405280601e81526020017f46616c6c6261636b2066756e6374696f6e206973206578656375746564210000815250600090816101af919061141a565b005b3480156101bd57600080fd5b506101d860048036038101906101d3919061151d565b6103ff565b005b3480156101e657600080fd5b5061020160048036038101906101fc91906115bb565b61059b565b6040516102119493929190611618565b60405180910390f35b34801561022657600080fd5b5061022f6105eb565b60405161023c919061165d565b60405180910390f35b34801561025157600080fd5b5061026c60048036038101906102679190611678565b6105f3565b60405161027c9493929190611719565b60405180910390f35b34801561029157600080fd5b5061029a6106ab565b6040516102a7919061165d565b60405180910390f35b3480156102bc57600080fd5b506102c56106b1565b6040516102d2919061165d565b60405180910390f35b3480156102e757600080fd5b506102f06106b7565b005b6102fa610763565b005b34801561030857600080fd5b5061031161096e565b60405161031e9190611774565b60405180910390f35b34801561033357600080fd5b5061034e6004803603810190610349919061178f565b610994565b005b34801561035c57600080fd5b50610365610a63565b6040516103729190611774565b60405180910390f35b61039560048036038101906103909190611678565b610a89565b005b3480156103a357600080fd5b506103be60048036038101906103b99190611678565b610d96565b6040516103cb919061165d565b60405180910390f35b3480156103e057600080fd5b506103e9610e6b565b6040516103f6919061165d565b60405180910390f35b60004711610439576040517f47108e3e00000000000000000000000000000000000000000000000000000000815260040160405180910390fd5b600b60009054906101000a900473ffffffffffffffffffffffffffffffffffffffff1673ffffffffffffffffffffffffffffffffffffffff163373ffffffffffffffffffffffffffffffffffffffff16146104c0576040517f8679b0c000000000000000000000000000000000000000000000000000000000815260040160405180910390fd5b600c60149054906101000a900460ff1615610510576040517f08c379a00000000000000000000000000000000000000000000000000000000081526004016105079061181b565b60405180910390fd5b600061051a6105eb565b90506000838261052a9190611899565b90506000838361053a9190611899565b9050610568600c60009054906101000a900473ffffffffffffffffffffffffffffffffffffffff1683610e71565b610594600c60009054906101000a900473ffffffffffffffffffffffffffffffffffffffff1682610e71565b5050505050565b600a6020528060005260406000206000915090508060000160009054906101000a900473ffffffffffffffffffffffffffffffffffffffff16908060010154908060020154908060030154905084565b600047905090565b600960205280600052604060002060009150905080600001805461061690611233565b80601f016020809104026020016040519081016040528092919081815260200182805461064290611233565b801561068f5780601f106106645761010080835404028352916020019161068f565b820191906000526020600020905b81548152906001019060200180831161067257829003601f168201915b5050505050908060010154908060020154908060030154905084565b60045481565b60055481565b600b60009054906101000a900473ffffffffffffffffffffffffffffffffffffffff1673ffffffffffffffffffffffffffffffffffffffff163373ffffffffffffffffffffffffffffffffffffffff161461073e576040517f8679b0c000000000000000000000000000000000000000000000000000000000815260040160405180910390fd5b6001600c60146101000a81548160ff021916908315150217905550610761610f25565b565b600c60149054906101000a900460ff166107a9576040517f0541f1f000000000000000000000000000000000000000000000000000000000815260040160405180910390fd5b600c60149054906101000a900460ff166107f8576040517f08c379a00000000000000000000000000000000000000000000000000000000081526004016107ef90611916565b60405180910390fd5b600754600a60003373ffffffffffffffffffffffffffffffffffffffff1673ffffffffffffffffffffffffffffffffffffffff168152602001908152602001600020600101541461087e576040517f08c379a000000000000000000000000000000000000000000000000000000000815260040161087590611982565b60405180910390fd5b6064600854600a60003373ffffffffffffffffffffffffffffffffffffffff1673ffffffffffffffffffffffffffffffffffffffff168152602001908152602001600020600201546108d091906119a2565b6108da9190611899565b600a60003373ffffffffffffffffffffffffffffffffffffffff1673ffffffffffffffffffffffffffffffffffffffff1681526020019081526020016000206003018190555061096c33600a60003373ffffffffffffffffffffffffffffffffffffffff1673ffffffffffffffffffffffffffffffffffffffff16815260200190815260200160002060030154610e71565b565b600b60009054906101000a900473ffffffffffffffffffffffffffffffffffffffff1681565b600b60009054906101000a900473ffffffffffffffffffffffffffffffffffffffff1673ffffffffffffffffffffffffffffffffffffffff163373ffffffffffffffffffffffffffffffffffffffff1614610a1b576040517f8679b0c000000000000000000000000000000000000000000000000000000000815260040160405180910390fd5b60004711610a55576040517f47108e3e00000000000000000000000000000000000000000000000000000000815260040160405180910390fd5b610a5f8282610e71565b5050565b600c60009054906101000a900473ffffffffffffffffffffffffffffffffffffffff1681565b343373ffffffffffffffffffffffffffffffffffffffff16311015610ada576040517f47108e3e00000000000000000000000000000000000000000000000000000000815260040160405180910390fd5b640b68a0aa003411610b18576040517f78e9f1ba00000000000000000000000000000000000000000000000000000000815260040160405180910390fd5b3373ffffffffffffffffffffffffffffffffffffffff16600a60003373ffffffffffffffffffffffffffffffffffffffff1673ffffffffffffffffffffffffffffffffffffffff16815260200190815260200160002060000160009054906101000a900473ffffffffffffffffffffffffffffffffffffffff1673ffffffffffffffffffffffffffffffffffffffff1603610bdf576040517f8424505800000000000000000000000000000000000000000000000000000000815260040160405180910390fd5b6000600360009054906101000a900473ffffffffffffffffffffffffffffffffffffffff1673ffffffffffffffffffffffffffffffffffffffff16630b4805d3336040518263ffffffff1660e01b8152600401610c3c9190611774565b602060405180830381865afa158015610c59573d6000803e3d6000fd5b505050506040513d601f19601f82011682018060405250810190610c7d91906119f9565b03610cb4576040517f3a70817d00000000000000000000000000000000000000000000000000000000815260040160405180910390fd5b6001811115610cf8576040517f08c379a0000000000000000000000000000000000000000000000000000000008152600401610cef90611a72565b60405180910390fd5b610d023034610e71565b60066000815480929190610d1590611a92565b9190505550600960008281526020019081526020016000206002016000815480929190610d4190611a92565b9190505550346009600083815260200190815260200160002060030154610d689190611ada565b6009600083815260200190815260200160002060030181905550610d8a610fa3565b610d938161103b565b50565b6000804711610dd1576040517f47108e3e00000000000000000000000000000000000000000000000000000000815260040160405180910390fd5b600b60009054906101000a900473ffffffffffffffffffffffffffffffffffffffff1673ffffffffffffffffffffffffffffffffffffffff163373ffffffffffffffffffffffffffffffffffffffff1614610e58576040517f8679b0c000000000000000000000000000000000000000000000000000000000815260040160405180910390fd5b8147610e649190611899565b9050919050565b60065481565b6000808373ffffffffffffffffffffffffffffffffffffffff1683604051610e9890611b3f565b60006040518083038185875af1925050503d8060008114610ed5576040519150601f19603f3d011682016040523d82523d6000602084013e610eda565b606091505b509150915081610f1f576040517f08c379a0000000000000000000000000000000000000000000000000000000008152600401610f1690611ba0565b60405180910390fd5b50505050565b600c60149054906101000a900460ff16610f6b576040517f0541f1f000000000000000000000000000000000000000000000000000000000815260040160405180910390fd5b60096000600754815260200190815260200160002060030154606447610f9191906119a2565b610f9b9190611899565b600881905550565b60065460646009600080815260200190815260200160002060020154610fc991906119a2565b610fd39190611899565b6009600080815260200190815260200160002060010181905550600654606460096000600181526020019081526020016000206002015461101491906119a2565b61101e9190611899565b600960006001815260200190815260200160002060010181905550565b33600a60003373ffffffffffffffffffffffffffffffffffffffff1673ffffffffffffffffffffffffffffffffffffffff16815260200190815260200160002060000160006101000a81548173ffffffffffffffffffffffffffffffffffffffff021916908373ffffffffffffffffffffffffffffffffffffffff16021790555080600a60003373ffffffffffffffffffffffffffffffffffffffff1673ffffffffffffffffffffffffffffffffffffffff1681526020019081526020016000206001018190555034600a60003373ffffffffffffffffffffffffffffffffffffffff1673ffffffffffffffffffffffffffffffffffffffff1681526020019081526020016000206002018190555050565b600082825260208201905092915050565b7f796f752063616e27742073656e64206c657373207468616e2035306b20776569600082015250565b600061119460208361114d565b915061119f8261115e565b602082019050919050565b600060208201905081810360008301526111c381611187565b9050919050565b600081519050919050565b7f4e487b7100000000000000000000000000000000000000000000000000000000600052604160045260246000fd5b7f4e487b7100000000000000000000000000000000000000000000000000000000600052602260045260246000fd5b6000600282049050600182168061124b57607f821691505b60208210810361125e5761125d611204565b5b50919050565b60008190508160005260206000209050919050565b60006020601f8301049050919050565b600082821b905092915050565b6000600883026112c67fffffffffffffffffffffffffffffffffffffffffffffffffffffffffffffffff82611289565b6112d08683611289565b95508019841693508086168417925050509392505050565b6000819050919050565b6000819050919050565b600061131761131261130d846112e8565b6112f2565b6112e8565b9050919050565b6000819050919050565b611331836112fc565b61134561133d8261131e565b848454611296565b825550505050565b600090565b61135a61134d565b611365818484611328565b505050565b5b818110156113895761137e600082611352565b60018101905061136b565b5050565b601f8211156113ce5761139f81611264565b6113a884611279565b810160208510156113b7578190505b6113cb6113c385611279565b83018261136a565b50505b505050565b600082821c905092915050565b60006113f1600019846008026113d3565b1980831691505092915050565b600061140a83836113e0565b9150826002028217905092915050565b611423826111ca565b67ffffffffffffffff81111561143c5761143b6111d5565b5b6114468254611233565b61145182828561138d565b600060209050601f8311600181146114845760008415611472578287015190505b61147c85826113fe565b8655506114e4565b601f19841661149286611264565b60005b828110156114ba57848901518255600182019150602085019450602081019050611495565b868310156114d757848901516114d3601f8916826113e0565b8355505b6001600288020188555050505b505050505050565b600080fd5b6114fa816112e8565b811461150557600080fd5b50565b600081359050611517816114f1565b92915050565b60008060408385031215611534576115336114ec565b5b600061154285828601611508565b925050602061155385828601611508565b9150509250929050565b600073ffffffffffffffffffffffffffffffffffffffff82169050919050565b60006115888261155d565b9050919050565b6115988161157d565b81146115a357600080fd5b50565b6000813590506115b58161158f565b92915050565b6000602082840312156115d1576115d06114ec565b5b60006115df848285016115a6565b91505092915050565b60006115f38261155d565b9050919050565b611603816115e8565b82525050565b611612816112e8565b82525050565b600060808201905061162d60008301876115fa565b61163a6020830186611609565b6116476040830185611609565b6116546060830184611609565b95945050505050565b60006020820190506116726000830184611609565b92915050565b60006020828403121561168e5761168d6114ec565b5b600061169c84828501611508565b91505092915050565b60005b838110156116c35780820151818401526020810190506116a8565b60008484015250505050565b6000601f19601f8301169050919050565b60006116eb826111ca565b6116f5818561114d565b93506117058185602086016116a5565b61170e816116cf565b840191505092915050565b6000608082019050818103600083015261173381876116e0565b90506117426020830186611609565b61174f6040830185611609565b61175c6060830184611609565b95945050505050565b61176e8161157d565b82525050565b60006020820190506117896000830184611765565b92915050565b600080604083850312156117a6576117a56114ec565b5b60006117b4858286016115a6565b92505060206117c585828601611508565b9150509250929050565b7f66656520616c7265616479207061696400000000000000000000000000000000600082015250565b600061180560108361114d565b9150611810826117cf565b602082019050919050565b60006020820190508181036000830152611834816117f8565b9050919050565b7f4e487b7100000000000000000000000000000000000000000000000000000000600052601260045260246000fd5b7f4e487b7100000000000000000000000000000000000000000000000000000000600052601160045260246000fd5b60006118a4826112e8565b91506118af836112e8565b9250826118bf576118be61183b565b5b828204905092915050565b7f70617920706c6174666f726d2066656520666972737400000000000000000000600082015250565b600061190060168361114d565b915061190b826118ca565b602082019050919050565b6000602082019050818103600083015261192f816118f3565b9050919050565b7f6e6f206761696e00000000000000000000000000000000000000000000000000600082015250565b600061196c60078361114d565b915061197782611936565b602082019050919050565b6000602082019050818103600083015261199b8161195f565b9050919050565b60006119ad826112e8565b91506119b8836112e8565b92508282026119c6816112e8565b915082820484148315176119dd576119dc61186a565b5b5092915050565b6000815190506119f3816114f1565b92915050565b600060208284031215611a0f57611a0e6114ec565b5b6000611a1d848285016119e4565b91505092915050565b7f636f6d70657469746f7220646f6e277420657869737400000000000000000000600082015250565b6000611a5c60168361114d565b9150611a6782611a26565b602082019050919050565b60006020820190508181036000830152611a8b81611a4f565b9050919050565b6000611a9d826112e8565b91507fffffffffffffffffffffffffffffffffffffffffffffffffffffffffffffffff8203611acf57611ace61186a565b5b600182019050919050565b6000611ae5826112e8565b9150611af0836112e8565b9250828201905080821115611b0857611b0761186a565b5b92915050565b600081905092915050565b50565b6000611b29600083611b0e565b9150611b3482611b19565b600082019050919050565b6000611b4a82611b1c565b9150819050919050565b7f4661696c656420746f2073656e64204574686572000000000000000000000000600082015250565b6000611b8a60148361114d565b9150611b9582611b54565b602082019050919050565b60006020820190508181036000830152611bb981611b7d565b905091905056fea2646970667358221220a8de0595f33aa2c7edabf3807041ad304fbe9c61805fb2e006b44e3e323cbbf164736f6c63430008150033a26469706673582212209de6369cb554abb77b9904bfef42686b3c41091790ff00fb270448fe5d60e1cb64736f6c63430008150033","opcodes":"PUSH1 0x80 PUSH1 0x40 MSTORE PUSH1 0x40 MLOAD DUP1 PUSH1 0x40 ADD PUSH1 0x40 MSTORE DUP1 PUSH1 0x8 DUP2 MSTORE PUSH1 0x20 ADD PUSH32 0x616C626174726F73000000000000000000000000000000000000000000000000 DUP2 MSTORE POP PUSH1 0x0 SWAP1 DUP2 PUSH3 0x4A SWAP2 SWAP1 PUSH3 0x332 JUMP JUMPDEST POP PUSH1 0x40 MLOAD PUSH3 0x540C CODESIZE SUB DUP1 PUSH3 0x540C DUP4 CODECOPY DUP2 DUP2 ADD PUSH1 0x40 MSTORE DUP2 ADD SWAP1 PUSH3 0x70 SWAP2 SWAP1 PUSH3 0x483 JUMP JUMPDEST DUP1 PUSH1 0x2 PUSH1 0x0 PUSH2 0x100 EXP DUP2 SLOAD DUP2 PUSH20 0xFFFFFFFFFFFFFFFFFFFFFFFFFFFFFFFFFFFFFFFF MUL NOT AND SWAP1 DUP4 PUSH20 0xFFFFFFFFFFFFFFFFFFFFFFFFFFFFFFFFFFFFFFFF AND MUL OR SWAP1 SSTORE POP POP PUSH3 0x4B5 JUMP JUMPDEST PUSH1 0x0 DUP2 MLOAD SWAP1 POP SWAP2 SWAP1 POP JUMP JUMPDEST PUSH32 0x4E487B7100000000000000000000000000000000000000000000000000000000 PUSH1 0x0 MSTORE PUSH1 0x41 PUSH1 0x4 MSTORE PUSH1 0x24 PUSH1 0x0 REVERT JUMPDEST PUSH32 0x4E487B7100000000000000000000000000000000000000000000000000000000 PUSH1 0x0 MSTORE PUSH1 0x22 PUSH1 0x4 MSTORE PUSH1 0x24 PUSH1 0x0 REVERT JUMPDEST PUSH1 0x0 PUSH1 0x2 DUP3 DIV SWAP1 POP PUSH1 0x1 DUP3 AND DUP1 PUSH3 0x13A JUMPI PUSH1 0x7F DUP3 AND SWAP2 POP JUMPDEST PUSH1 0x20 DUP3 LT DUP2 SUB PUSH3 0x150 JUMPI PUSH3 0x14F PUSH3 0xF2 JUMP JUMPDEST JUMPDEST POP SWAP2 SWAP1 POP JUMP JUMPDEST PUSH1 0x0 DUP2 SWAP1 POP DUP2 PUSH1 0x0 MSTORE PUSH1 0x20 PUSH1 0x0 KECCAK256 SWAP1 POP SWAP2 SWAP1 POP JUMP JUMPDEST PUSH1 0x0 PUSH1 0x20 PUSH1 0x1F DUP4 ADD DIV SWAP1 POP SWAP2 SWAP1 POP JUMP JUMPDEST PUSH1 0x0 DUP3 DUP3 SHL SWAP1 POP SWAP3 SWAP2 POP POP JUMP JUMPDEST PUSH1 0x0 PUSH1 0x8 DUP4 MUL PUSH3 0x1BA PUSH32 0xFFFFFFFFFFFFFFFFFFFFFFFFFFFFFFFFFFFFFFFFFFFFFFFFFFFFFFFFFFFFFFFF DUP3 PUSH3 0x17B JUMP JUMPDEST PUSH3 0x1C6 DUP7 DUP4 PUSH3 0x17B JUMP JUMPDEST SWAP6 POP DUP1 NOT DUP5 AND SWAP4 POP DUP1 DUP7 AND DUP5 OR SWAP3 POP POP POP SWAP4 SWAP3 POP POP POP JUMP JUMPDEST PUSH1 0x0 DUP2 SWAP1 POP SWAP2 SWAP1 POP JUMP JUMPDEST PUSH1 0x0 DUP2 SWAP1 POP SWAP2 SWAP1 POP JUMP JUMPDEST PUSH1 0x0 PUSH3 0x213 PUSH3 0x20D PUSH3 0x207 DUP5 PUSH3 0x1DE JUMP JUMPDEST PUSH3 0x1E8 JUMP JUMPDEST PUSH3 0x1DE JUMP JUMPDEST SWAP1 POP SWAP2 SWAP1 POP JUMP JUMPDEST PUSH1 0x0 DUP2 SWAP1 POP SWAP2 SWAP1 POP JUMP JUMPDEST PUSH3 0x22F DUP4 PUSH3 0x1F2 JUMP JUMPDEST PUSH3 0x247 PUSH3 0x23E DUP3 PUSH3 0x21A JUMP JUMPDEST DUP5 DUP5 SLOAD PUSH3 0x188 JUMP JUMPDEST DUP3 SSTORE POP POP POP POP JUMP JUMPDEST PUSH1 0x0 SWAP1 JUMP JUMPDEST PUSH3 0x25E PUSH3 0x24F JUMP JUMPDEST PUSH3 0x26B DUP2 DUP5 DUP5 PUSH3 0x224 JUMP JUMPDEST POP POP POP JUMP JUMPDEST JUMPDEST DUP2 DUP2 LT ISZERO PUSH3 0x293 JUMPI PUSH3 0x287 PUSH1 0x0 DUP3 PUSH3 0x254 JUMP JUMPDEST PUSH1 0x1 DUP2 ADD SWAP1 POP PUSH3 0x271 JUMP JUMPDEST POP POP JUMP JUMPDEST PUSH1 0x1F DUP3 GT ISZERO PUSH3 0x2E2 JUMPI PUSH3 0x2AC DUP2 PUSH3 0x156 JUMP JUMPDEST PUSH3 0x2B7 DUP5 PUSH3 0x16B JUMP JUMPDEST DUP2 ADD PUSH1 0x20 DUP6 LT ISZERO PUSH3 0x2C7 JUMPI DUP2 SWAP1 POP JUMPDEST PUSH3 0x2DF PUSH3 0x2D6 DUP6 PUSH3 0x16B JUMP JUMPDEST DUP4 ADD DUP3 PUSH3 0x270 JUMP JUMPDEST POP POP JUMPDEST POP POP POP JUMP JUMPDEST PUSH1 0x0 DUP3 DUP3 SHR SWAP1 POP SWAP3 SWAP2 POP POP JUMP JUMPDEST PUSH1 0x0 PUSH3 0x307 PUSH1 0x0 NOT DUP5 PUSH1 0x8 MUL PUSH3 0x2E7 JUMP JUMPDEST NOT DUP1 DUP4 AND SWAP2 POP POP SWAP3 SWAP2 POP POP JUMP JUMPDEST PUSH1 0x0 PUSH3 0x322 DUP4 DUP4 PUSH3 0x2F4 JUMP JUMPDEST SWAP2 POP DUP3 PUSH1 0x2 MUL DUP3 OR SWAP1 POP SWAP3 SWAP2 POP POP JUMP JUMPDEST PUSH3 0x33D DUP3 PUSH3 0xB8 JUMP JUMPDEST PUSH8 0xFFFFFFFFFFFFFFFF DUP2 GT ISZERO PUSH3 0x359 JUMPI PUSH3 0x358 PUSH3 0xC3 JUMP JUMPDEST JUMPDEST PUSH3 0x365 DUP3 SLOAD PUSH3 0x121 JUMP JUMPDEST PUSH3 0x372 DUP3 DUP3 DUP6 PUSH3 0x297 JUMP JUMPDEST PUSH1 0x0 PUSH1 0x20 SWAP1 POP PUSH1 0x1F DUP4 GT PUSH1 0x1 DUP2 EQ PUSH3 0x3AA JUMPI PUSH1 0x0 DUP5 ISZERO PUSH3 0x395 JUMPI DUP3 DUP8 ADD MLOAD SWAP1 POP JUMPDEST PUSH3 0x3A1 DUP6 DUP3 PUSH3 0x314 JUMP JUMPDEST DUP7 SSTORE POP PUSH3 0x411 JUMP JUMPDEST PUSH1 0x1F NOT DUP5 AND PUSH3 0x3BA DUP7 PUSH3 0x156 JUMP JUMPDEST PUSH1 0x0 JUMPDEST DUP3 DUP2 LT ISZERO PUSH3 0x3E4 JUMPI DUP5 DUP10 ADD MLOAD DUP3 SSTORE PUSH1 0x1 DUP3 ADD SWAP2 POP PUSH1 0x20 DUP6 ADD SWAP5 POP PUSH1 0x20 DUP2 ADD SWAP1 POP PUSH3 0x3BD JUMP JUMPDEST DUP7 DUP4 LT ISZERO PUSH3 0x404 JUMPI DUP5 DUP10 ADD MLOAD PUSH3 0x400 PUSH1 0x1F DUP10 AND DUP3 PUSH3 0x2F4 JUMP JUMPDEST DUP4 SSTORE POP JUMPDEST PUSH1 0x1 PUSH1 0x2 DUP9 MUL ADD DUP9 SSTORE POP POP POP JUMPDEST POP POP POP POP POP POP JUMP JUMPDEST PUSH1 0x0 DUP1 REVERT JUMPDEST PUSH1 0x0 PUSH20 0xFFFFFFFFFFFFFFFFFFFFFFFFFFFFFFFFFFFFFFFF DUP3 AND SWAP1 POP SWAP2 SWAP1 POP JUMP JUMPDEST PUSH1 0x0 PUSH3 0x44B DUP3 PUSH3 0x41E JUMP JUMPDEST SWAP1 POP SWAP2 SWAP1 POP JUMP JUMPDEST PUSH3 0x45D DUP2 PUSH3 0x43E JUMP JUMPDEST DUP2 EQ PUSH3 0x469 JUMPI PUSH1 0x0 DUP1 REVERT JUMPDEST POP JUMP JUMPDEST PUSH1 0x0 DUP2 MLOAD SWAP1 POP PUSH3 0x47D DUP2 PUSH3 0x452 JUMP JUMPDEST SWAP3 SWAP2 POP POP JUMP JUMPDEST PUSH1 0x0 PUSH1 0x20 DUP3 DUP5 SUB SLT ISZERO PUSH3 0x49C JUMPI PUSH3 0x49B PUSH3 0x419 JUMP JUMPDEST JUMPDEST PUSH1 0x0 PUSH3 0x4AC DUP5 DUP3 DUP6 ADD PUSH3 0x46C JUMP JUMPDEST SWAP2 POP POP SWAP3 SWAP2 POP POP JUMP JUMPDEST PUSH2 0x4F47 DUP1 PUSH3 0x4C5 PUSH1 0x0 CODECOPY PUSH1 0x0 RETURN INVALID PUSH1 0x80 PUSH1 0x40 MSTORE PUSH1 0x4 CALLDATASIZE LT PUSH3 0x7F JUMPI PUSH1 0x0 CALLDATALOAD PUSH1 0xE0 SHR DUP1 PUSH4 0xA5F9B643 GT PUSH3 0x55 JUMPI DUP1 PUSH4 0xA5F9B643 EQ PUSH3 0x1B7 JUMPI DUP1 PUSH4 0xCEF84A62 EQ PUSH3 0x1E5 JUMPI DUP1 PUSH4 0xEE9C0362 EQ PUSH3 0x230 JUMPI DUP1 PUSH4 0xFD3393FE EQ PUSH3 0x274 JUMPI PUSH3 0xCF JUMP JUMPDEST DUP1 PUSH4 0x41178651 EQ PUSH3 0x117 JUMPI DUP1 PUSH4 0x458F6F6F EQ PUSH3 0x145 JUMPI DUP1 PUSH4 0x9AA7CA42 EQ PUSH3 0x189 JUMPI PUSH3 0xCF JUMP JUMPDEST CALLDATASIZE PUSH3 0xCF JUMPI PUSH2 0xC350 CALLVALUE LT ISZERO PUSH3 0xCD JUMPI PUSH1 0x40 MLOAD PUSH32 0x8C379A000000000000000000000000000000000000000000000000000000000 DUP2 MSTORE PUSH1 0x4 ADD PUSH3 0xC4 SWAP1 PUSH3 0x1EBB JUMP JUMPDEST PUSH1 0x40 MLOAD DUP1 SWAP2 SUB SWAP1 REVERT JUMPDEST STOP JUMPDEST PUSH1 0x40 MLOAD DUP1 PUSH1 0x40 ADD PUSH1 0x40 MSTORE DUP1 PUSH1 0x1E DUP2 MSTORE PUSH1 0x20 ADD PUSH32 0x46616C6C6261636B2066756E6374696F6E206973206578656375746564210000 DUP2 MSTORE POP PUSH1 0x0 SWAP1 DUP2 PUSH3 0x115 SWAP2 SWAP1 PUSH3 0x2157 JUMP JUMPDEST STOP JUMPDEST CALLVALUE DUP1 ISZERO PUSH3 0x124 JUMPI PUSH1 0x0 DUP1 REVERT JUMPDEST POP PUSH3 0x143 PUSH1 0x4 DUP1 CALLDATASIZE SUB DUP2 ADD SWAP1 PUSH3 0x13D SWAP2 SWAP1 PUSH3 0x22E8 JUMP JUMPDEST PUSH3 0x2A2 JUMP JUMPDEST STOP JUMPDEST CALLVALUE DUP1 ISZERO PUSH3 0x152 JUMPI PUSH1 0x0 DUP1 REVERT JUMPDEST POP PUSH3 0x171 PUSH1 0x4 DUP1 CALLDATASIZE SUB DUP2 ADD SWAP1 PUSH3 0x16B SWAP2 SWAP1 PUSH3 0x232F JUMP JUMPDEST PUSH3 0xA08 JUMP JUMPDEST PUSH1 0x40 MLOAD PUSH3 0x180 SWAP2 SWAP1 PUSH3 0x2387 JUMP JUMPDEST PUSH1 0x40 MLOAD DUP1 SWAP2 SUB SWAP1 RETURN JUMPDEST CALLVALUE DUP1 ISZERO PUSH3 0x196 JUMPI PUSH1 0x0 DUP1 REVERT JUMPDEST POP PUSH3 0x1B5 PUSH1 0x4 DUP1 CALLDATASIZE SUB DUP2 ADD SWAP1 PUSH3 0x1AF SWAP2 SWAP1 PUSH3 0x23A4 JUMP JUMPDEST PUSH3 0xA94 JUMP JUMPDEST STOP JUMPDEST CALLVALUE DUP1 ISZERO PUSH3 0x1C4 JUMPI PUSH1 0x0 DUP1 REVERT JUMPDEST POP PUSH3 0x1E3 PUSH1 0x4 DUP1 CALLDATASIZE SUB DUP2 ADD SWAP1 PUSH3 0x1DD SWAP2 SWAP1 PUSH3 0x2509 JUMP JUMPDEST PUSH3 0x1005 JUMP JUMPDEST STOP JUMPDEST CALLVALUE DUP1 ISZERO PUSH3 0x1F2 JUMPI PUSH1 0x0 DUP1 REVERT JUMPDEST POP PUSH3 0x211 PUSH1 0x4 DUP1 CALLDATASIZE SUB DUP2 ADD SWAP1 PUSH3 0x20B SWAP2 SWAP1 PUSH3 0x23A4 JUMP JUMPDEST PUSH3 0x1486 JUMP JUMPDEST PUSH1 0x40 MLOAD PUSH3 0x227 SWAP9 SWAP8 SWAP7 SWAP6 SWAP5 SWAP4 SWAP3 SWAP2 SWAP1 PUSH3 0x268C JUMP JUMPDEST PUSH1 0x40 MLOAD DUP1 SWAP2 SUB SWAP1 RETURN JUMPDEST CALLVALUE DUP1 ISZERO PUSH3 0x23D JUMPI PUSH1 0x0 DUP1 REVERT JUMPDEST POP PUSH3 0x25C PUSH1 0x4 DUP1 CALLDATASIZE SUB DUP2 ADD SWAP1 PUSH3 0x256 SWAP2 SWAP1 PUSH3 0x23A4 JUMP JUMPDEST PUSH3 0x161B JUMP JUMPDEST PUSH1 0x40 MLOAD PUSH3 0x26B SWAP2 SWAP1 PUSH3 0x2728 JUMP JUMPDEST PUSH1 0x40 MLOAD DUP1 SWAP2 SUB SWAP1 RETURN JUMPDEST CALLVALUE DUP1 ISZERO PUSH3 0x281 JUMPI PUSH1 0x0 DUP1 REVERT JUMPDEST POP PUSH3 0x2A0 PUSH1 0x4 DUP1 CALLDATASIZE SUB DUP2 ADD SWAP1 PUSH3 0x29A SWAP2 SWAP1 PUSH3 0x23A4 JUMP JUMPDEST PUSH3 0x16A4 JUMP JUMPDEST STOP JUMPDEST PUSH1 0x1 DUP2 DUP2 PUSH1 0x3 DUP2 GT ISZERO PUSH3 0x2BB JUMPI PUSH3 0x2BA PUSH3 0x260C JUMP JUMPDEST JUMPDEST PUSH1 0x1 PUSH1 0x0 DUP4 PUSH20 0xFFFFFFFFFFFFFFFFFFFFFFFFFFFFFFFFFFFFFFFF AND PUSH20 0xFFFFFFFFFFFFFFFFFFFFFFFFFFFFFFFFFFFFFFFF AND DUP2 MSTORE PUSH1 0x20 ADD SWAP1 DUP2 MSTORE PUSH1 0x20 ADD PUSH1 0x0 KECCAK256 PUSH1 0x9 ADD PUSH1 0x0 SWAP1 SLOAD SWAP1 PUSH2 0x100 EXP SWAP1 DIV PUSH1 0xFF AND PUSH1 0x3 DUP2 GT ISZERO PUSH3 0x320 JUMPI PUSH3 0x31F PUSH3 0x260C JUMP JUMPDEST JUMPDEST EQ PUSH3 0x358 JUMPI PUSH1 0x40 MLOAD PUSH32 0x248D543200000000000000000000000000000000000000000000000000000000 DUP2 MSTORE PUSH1 0x4 ADD PUSH1 0x40 MLOAD DUP1 SWAP2 SUB SWAP1 REVERT JUMPDEST PUSH1 0x2 DUP5 LT PUSH3 0x39E JUMPI PUSH1 0x40 MLOAD PUSH32 0x8C379A000000000000000000000000000000000000000000000000000000000 DUP2 MSTORE PUSH1 0x4 ADD PUSH3 0x395 SWAP1 PUSH3 0x2795 JUMP JUMPDEST PUSH1 0x40 MLOAD DUP1 SWAP2 SUB SWAP1 REVERT JUMPDEST PUSH1 0x0 PUSH1 0x2 PUSH1 0x0 SWAP1 SLOAD SWAP1 PUSH2 0x100 EXP SWAP1 DIV PUSH20 0xFFFFFFFFFFFFFFFFFFFFFFFFFFFFFFFFFFFFFFFF AND PUSH20 0xFFFFFFFFFFFFFFFFFFFFFFFFFFFFFFFFFFFFFFFF AND PUSH4 0xFA52C7D8 CALLER PUSH1 0x40 MLOAD DUP3 PUSH4 0xFFFFFFFF AND PUSH1 0xE0 SHL DUP2 MSTORE PUSH1 0x4 ADD PUSH3 0x3FD SWAP2 SWAP1 PUSH3 0x2387 JUMP JUMPDEST PUSH1 0x60 PUSH1 0x40 MLOAD DUP1 DUP4 SUB DUP2 DUP7 GAS STATICCALL ISZERO DUP1 ISZERO PUSH3 0x41B JUMPI RETURNDATASIZE PUSH1 0x0 DUP1 RETURNDATACOPY RETURNDATASIZE PUSH1 0x0 REVERT JUMPDEST POP POP POP POP PUSH1 0x40 MLOAD RETURNDATASIZE PUSH1 0x1F NOT PUSH1 0x1F DUP3 ADD AND DUP3 ADD DUP1 PUSH1 0x40 MSTORE POP DUP2 ADD SWAP1 PUSH3 0x441 SWAP2 SWAP1 PUSH3 0x2850 JUMP JUMPDEST POP POP SWAP1 POP CALLER PUSH20 0xFFFFFFFFFFFFFFFFFFFFFFFFFFFFFFFFFFFFFFFF AND DUP2 PUSH20 0xFFFFFFFFFFFFFFFFFFFFFFFFFFFFFFFFFFFFFFFF AND EQ PUSH3 0x4AB JUMPI PUSH1 0x40 MLOAD PUSH32 0xEC752D2A00000000000000000000000000000000000000000000000000000000 DUP2 MSTORE PUSH1 0x4 ADD PUSH1 0x40 MLOAD DUP1 SWAP2 SUB SWAP1 REVERT JUMPDEST PUSH1 0x0 DUP6 SUB PUSH3 0x696 JUMPI PUSH1 0x1 PUSH1 0x0 DUP6 PUSH20 0xFFFFFFFFFFFFFFFFFFFFFFFFFFFFFFFFFFFFFFFF AND PUSH20 0xFFFFFFFFFFFFFFFFFFFFFFFFFFFFFFFFFFFFFFFF AND DUP2 MSTORE PUSH1 0x20 ADD SWAP1 DUP2 MSTORE PUSH1 0x20 ADD PUSH1 0x0 KECCAK256 PUSH1 0x7 ADD PUSH1 0x0 DUP2 SLOAD DUP1 SWAP3 SWAP2 SWAP1 PUSH3 0x509 SWAP1 PUSH3 0x28DB JUMP JUMPDEST SWAP2 SWAP1 POP SSTORE POP PUSH1 0x1 PUSH1 0x0 DUP6 PUSH20 0xFFFFFFFFFFFFFFFFFFFFFFFFFFFFFFFFFFFFFFFF AND PUSH20 0xFFFFFFFFFFFFFFFFFFFFFFFFFFFFFFFFFFFFFFFF AND DUP2 MSTORE PUSH1 0x20 ADD SWAP1 DUP2 MSTORE PUSH1 0x20 ADD PUSH1 0x0 KECCAK256 PUSH1 0x6 ADD PUSH1 0x0 DUP2 SLOAD DUP1 SWAP3 SWAP2 SWAP1 PUSH3 0x563 SWAP1 PUSH3 0x28DB JUMP JUMPDEST SWAP2 SWAP1 POP SSTORE POP PUSH1 0x0 PUSH1 0x1 PUSH1 0x0 DUP7 PUSH20 0xFFFFFFFFFFFFFFFFFFFFFFFFFFFFFFFFFFFFFFFF AND PUSH20 0xFFFFFFFFFFFFFFFFFFFFFFFFFFFFFFFFFFFFFFFF AND DUP2 MSTORE PUSH1 0x20 ADD SWAP1 DUP2 MSTORE PUSH1 0x20 ADD PUSH1 0x0 KECCAK256 PUSH1 0x4 ADD PUSH1 0x0 CALLER PUSH20 0xFFFFFFFFFFFFFFFFFFFFFFFFFFFFFFFFFFFFFFFF AND PUSH20 0xFFFFFFFFFFFFFFFFFFFFFFFFFFFFFFFFFFFFFFFF AND DUP2 MSTORE PUSH1 0x20 ADD SWAP1 DUP2 MSTORE PUSH1 0x20 ADD PUSH1 0x0 KECCAK256 DUP2 SWAP1 SSTORE POP PUSH1 0x1 PUSH1 0x0 DUP6 PUSH20 0xFFFFFFFFFFFFFFFFFFFFFFFFFFFFFFFFFFFFFFFF AND PUSH20 0xFFFFFFFFFFFFFFFFFFFFFFFFFFFFFFFFFFFFFFFF AND DUP2 MSTORE PUSH1 0x20 ADD SWAP1 DUP2 MSTORE PUSH1 0x20 ADD PUSH1 0x0 KECCAK256 PUSH1 0x5 ADD CALLER SWAP1 DUP1 PUSH1 0x1 DUP2 SLOAD ADD DUP1 DUP3 SSTORE DUP1 SWAP2 POP POP PUSH1 0x1 SWAP1 SUB SWAP1 PUSH1 0x0 MSTORE PUSH1 0x20 PUSH1 0x0 KECCAK256 ADD PUSH1 0x0 SWAP1 SWAP2 SWAP1 SWAP2 SWAP1 SWAP2 PUSH2 0x100 EXP DUP2 SLOAD DUP2 PUSH20 0xFFFFFFFFFFFFFFFFFFFFFFFFFFFFFFFFFFFFFFFF MUL NOT AND SWAP1 DUP4 PUSH20 0xFFFFFFFFFFFFFFFFFFFFFFFFFFFFFFFFFFFFFFFF AND MUL OR SWAP1 SSTORE POP PUSH3 0x87C JUMP JUMPDEST PUSH1 0x1 DUP6 SUB PUSH3 0x87B JUMPI PUSH1 0x1 PUSH1 0x0 DUP6 PUSH20 0xFFFFFFFFFFFFFFFFFFFFFFFFFFFFFFFFFFFFFFFF AND PUSH20 0xFFFFFFFFFFFFFFFFFFFFFFFFFFFFFFFFFFFFFFFF AND DUP2 MSTORE PUSH1 0x20 ADD SWAP1 DUP2 MSTORE PUSH1 0x20 ADD PUSH1 0x0 KECCAK256 PUSH1 0x8 ADD PUSH1 0x0 DUP2 SLOAD DUP1 SWAP3 SWAP2 SWAP1 PUSH3 0x6F4 SWAP1 PUSH3 0x28DB JUMP JUMPDEST SWAP2 SWAP1 POP SSTORE POP PUSH1 0x1 PUSH1 0x0 DUP6 PUSH20 0xFFFFFFFFFFFFFFFFFFFFFFFFFFFFFFFFFFFFFFFF AND PUSH20 0xFFFFFFFFFFFFFFFFFFFFFFFFFFFFFFFFFFFFFFFF AND DUP2 MSTORE PUSH1 0x20 ADD SWAP1 DUP2 MSTORE PUSH1 0x20 ADD PUSH1 0x0 KECCAK256 PUSH1 0x6 ADD PUSH1 0x0 DUP2 SLOAD DUP1 SWAP3 SWAP2 SWAP1 PUSH3 0x74E SWAP1 PUSH3 0x28DB JUMP JUMPDEST SWAP2 SWAP1 POP SSTORE POP PUSH1 0x1 DUP1 PUSH1 0x0 DUP7 PUSH20 0xFFFFFFFFFFFFFFFFFFFFFFFFFFFFFFFFFFFFFFFF AND PUSH20 0xFFFFFFFFFFFFFFFFFFFFFFFFFFFFFFFFFFFFFFFF AND DUP2 MSTORE PUSH1 0x20 ADD SWAP1 DUP2 MSTORE PUSH1 0x20 ADD PUSH1 0x0 KECCAK256 PUSH1 0x4 ADD PUSH1 0x0 CALLER PUSH20 0xFFFFFFFFFFFFFFFFFFFFFFFFFFFFFFFFFFFFFFFF AND PUSH20 0xFFFFFFFFFFFFFFFFFFFFFFFFFFFFFFFFFFFFFFFF AND DUP2 MSTORE PUSH1 0x20 ADD SWAP1 DUP2 MSTORE PUSH1 0x20 ADD PUSH1 0x0 KECCAK256 DUP2 SWAP1 SSTORE POP PUSH1 0x1 PUSH1 0x0 DUP6 PUSH20 0xFFFFFFFFFFFFFFFFFFFFFFFFFFFFFFFFFFFFFFFF AND PUSH20 0xFFFFFFFFFFFFFFFFFFFFFFFFFFFFFFFFFFFFFFFF AND DUP2 MSTORE PUSH1 0x20 ADD SWAP1 DUP2 MSTORE PUSH1 0x20 ADD PUSH1 0x0 KECCAK256 PUSH1 0x5 ADD CALLER SWAP1 DUP1 PUSH1 0x1 DUP2 SLOAD ADD DUP1 DUP3 SSTORE DUP1 SWAP2 POP POP PUSH1 0x1 SWAP1 SUB SWAP1 PUSH1 0x0 MSTORE PUSH1 0x20 PUSH1 0x0 KECCAK256 ADD PUSH1 0x0 SWAP1 SWAP2 SWAP1 SWAP2 SWAP1 SWAP2 PUSH2 0x100 EXP DUP2 SLOAD DUP2 PUSH20 0xFFFFFFFFFFFFFFFFFFFFFFFFFFFFFFFFFFFFFFFF MUL NOT AND SWAP1 DUP4 PUSH20 0xFFFFFFFFFFFFFFFFFFFFFFFFFFFFFFFFFFFFFFFF AND MUL OR SWAP1 SSTORE POP JUMPDEST JUMPDEST PUSH1 0x2 PUSH1 0x0 SWAP1 SLOAD SWAP1 PUSH2 0x100 EXP SWAP1 DIV PUSH20 0xFFFFFFFFFFFFFFFFFFFFFFFFFFFFFFFFFFFFFFFF AND PUSH20 0xFFFFFFFFFFFFFFFFFFFFFFFFFFFFFFFFFFFFFFFF AND PUSH4 0x53DB7E77 PUSH1 0x40 MLOAD DUP2 PUSH4 0xFFFFFFFF AND PUSH1 0xE0 SHL DUP2 MSTORE PUSH1 0x4 ADD PUSH1 0x20 PUSH1 0x40 MLOAD DUP1 DUP4 SUB DUP2 DUP7 GAS STATICCALL ISZERO DUP1 ISZERO PUSH3 0x8EA JUMPI RETURNDATASIZE PUSH1 0x0 DUP1 RETURNDATACOPY RETURNDATASIZE PUSH1 0x0 REVERT JUMPDEST POP POP POP POP PUSH1 0x40 MLOAD RETURNDATASIZE PUSH1 0x1F NOT PUSH1 0x1F DUP3 ADD AND DUP3 ADD DUP1 PUSH1 0x40 MSTORE POP DUP2 ADD SWAP1 PUSH3 0x910 SWAP2 SWAP1 PUSH3 0x2928 JUMP JUMPDEST PUSH1 0x1 PUSH1 0x0 DUP7 PUSH20 0xFFFFFFFFFFFFFFFFFFFFFFFFFFFFFFFFFFFFFFFF AND PUSH20 0xFFFFFFFFFFFFFFFFFFFFFFFFFFFFFFFFFFFFFFFF AND DUP2 MSTORE PUSH1 0x20 ADD SWAP1 DUP2 MSTORE PUSH1 0x20 ADD PUSH1 0x0 KECCAK256 PUSH1 0x6 ADD SLOAD LT PUSH3 0xA01 JUMPI PUSH1 0x2 PUSH1 0x1 PUSH1 0x0 DUP7 PUSH20 0xFFFFFFFFFFFFFFFFFFFFFFFFFFFFFFFFFFFFFFFF AND PUSH20 0xFFFFFFFFFFFFFFFFFFFFFFFFFFFFFFFFFFFFFFFF AND DUP2 MSTORE PUSH1 0x20 ADD SWAP1 DUP2 MSTORE PUSH1 0x20 ADD PUSH1 0x0 KECCAK256 PUSH1 0x9 ADD PUSH1 0x0 PUSH2 0x100 EXP DUP2 SLOAD DUP2 PUSH1 0xFF MUL NOT AND SWAP1 DUP4 PUSH1 0x3 DUP2 GT ISZERO PUSH3 0x9C2 JUMPI PUSH3 0x9C1 PUSH3 0x260C JUMP JUMPDEST JUMPDEST MUL OR SWAP1 SSTORE POP PUSH32 0xC7E162D919B6B9AAB852A8C03449630D12CD29BA4C4219786DB08EE9D51C9B60 DUP5 PUSH1 0x40 MLOAD PUSH3 0x9F8 SWAP2 SWAP1 PUSH3 0x2387 JUMP JUMPDEST PUSH1 0x40 MLOAD DUP1 SWAP2 SUB SWAP1 LOG1 JUMPDEST POP POP POP POP POP JUMP JUMPDEST PUSH1 0x0 PUSH1 0x1 PUSH1 0x0 DUP5 PUSH20 0xFFFFFFFFFFFFFFFFFFFFFFFFFFFFFFFFFFFFFFFF AND PUSH20 0xFFFFFFFFFFFFFFFFFFFFFFFFFFFFFFFFFFFFFFFF AND DUP2 MSTORE PUSH1 0x20 ADD SWAP1 DUP2 MSTORE PUSH1 0x20 ADD PUSH1 0x0 KECCAK256 PUSH1 0x5 ADD DUP3 DUP2 SLOAD DUP2 LT PUSH3 0xA61 JUMPI PUSH3 0xA60 PUSH3 0x295A JUMP JUMPDEST JUMPDEST SWAP1 PUSH1 0x0 MSTORE PUSH1 0x20 PUSH1 0x0 KECCAK256 ADD PUSH1 0x0 SWAP1 SLOAD SWAP1 PUSH2 0x100 EXP SWAP1 DIV PUSH20 0xFFFFFFFFFFFFFFFFFFFFFFFFFFFFFFFFFFFFFFFF AND SWAP1 POP SWAP3 SWAP2 POP POP JUMP JUMPDEST DUP1 CALLER PUSH20 0xFFFFFFFFFFFFFFFFFFFFFFFFFFFFFFFFFFFFFFFF AND PUSH1 0x1 PUSH1 0x0 DUP4 PUSH20 0xFFFFFFFFFFFFFFFFFFFFFFFFFFFFFFFFFFFFFFFF AND PUSH20 0xFFFFFFFFFFFFFFFFFFFFFFFFFFFFFFFFFFFFFFFF AND DUP2 MSTORE PUSH1 0x20 ADD SWAP1 DUP2 MSTORE PUSH1 0x20 ADD PUSH1 0x0 KECCAK256 PUSH1 0x3 ADD PUSH1 0x0 SWAP1 SLOAD SWAP1 PUSH2 0x100 EXP SWAP1 DIV PUSH20 0xFFFFFFFFFFFFFFFFFFFFFFFFFFFFFFFFFFFFFFFF AND PUSH20 0xFFFFFFFFFFFFFFFFFFFFFFFFFFFFFFFFFFFFFFFF AND EQ PUSH3 0xB5D JUMPI PUSH1 0x40 MLOAD PUSH32 0x251C9D6300000000000000000000000000000000000000000000000000000000 DUP2 MSTORE PUSH1 0x4 ADD PUSH1 0x40 MLOAD DUP1 SWAP2 SUB SWAP1 REVERT JUMPDEST PUSH1 0x2 DUP3 DUP2 PUSH1 0x3 DUP2 GT ISZERO PUSH3 0xB76 JUMPI PUSH3 0xB75 PUSH3 0x260C JUMP JUMPDEST JUMPDEST PUSH1 0x1 PUSH1 0x0 DUP4 PUSH20 0xFFFFFFFFFFFFFFFFFFFFFFFFFFFFFFFFFFFFFFFF AND PUSH20 0xFFFFFFFFFFFFFFFFFFFFFFFFFFFFFFFFFFFFFFFF AND DUP2 MSTORE PUSH1 0x20 ADD SWAP1 DUP2 MSTORE PUSH1 0x20 ADD PUSH1 0x0 KECCAK256 PUSH1 0x9 ADD PUSH1 0x0 SWAP1 SLOAD SWAP1 PUSH2 0x100 EXP SWAP1 DIV PUSH1 0xFF AND PUSH1 0x3 DUP2 GT ISZERO PUSH3 0xBDB JUMPI PUSH3 0xBDA PUSH3 0x260C JUMP JUMPDEST JUMPDEST EQ PUSH3 0xC13 JUMPI PUSH1 0x40 MLOAD PUSH32 0x248D543200000000000000000000000000000000000000000000000000000000 DUP2 MSTORE PUSH1 0x4 ADD PUSH1 0x40 MLOAD DUP1 SWAP2 SUB SWAP1 REVERT JUMPDEST PUSH1 0x0 PUSH1 0x1 PUSH1 0x0 DUP7 PUSH20 0xFFFFFFFFFFFFFFFFFFFFFFFFFFFFFFFFFFFFFFFF AND PUSH20 0xFFFFFFFFFFFFFFFFFFFFFFFFFFFFFFFFFFFFFFFF AND DUP2 MSTORE PUSH1 0x20 ADD SWAP1 DUP2 MSTORE PUSH1 0x20 ADD PUSH1 0x0 KECCAK256 PUSH1 0x8 ADD SLOAD PUSH1 0x1 PUSH1 0x0 DUP8 PUSH20 0xFFFFFFFFFFFFFFFFFFFFFFFFFFFFFFFFFFFFFFFF AND PUSH20 0xFFFFFFFFFFFFFFFFFFFFFFFFFFFFFFFFFFFFFFFF AND DUP2 MSTORE PUSH1 0x20 ADD SWAP1 DUP2 MSTORE PUSH1 0x20 ADD PUSH1 0x0 KECCAK256 PUSH1 0x7 ADD SLOAD GT ISZERO PUSH3 0xDF0 JUMPI PUSH1 0x2 PUSH1 0x0 SWAP1 SLOAD SWAP1 PUSH2 0x100 EXP SWAP1 DIV PUSH20 0xFFFFFFFFFFFFFFFFFFFFFFFFFFFFFFFFFFFFFFFF AND PUSH20 0xFFFFFFFFFFFFFFFFFFFFFFFFFFFFFFFFFFFFFFFF AND PUSH4 0xB85000D PUSH1 0x40 MLOAD DUP2 PUSH4 0xFFFFFFFF AND PUSH1 0xE0 SHL DUP2 MSTORE PUSH1 0x4 ADD PUSH1 0x20 PUSH1 0x40 MLOAD DUP1 DUP4 SUB DUP2 DUP7 GAS STATICCALL ISZERO DUP1 ISZERO PUSH3 0xD10 JUMPI RETURNDATASIZE PUSH1 0x0 DUP1 RETURNDATACOPY RETURNDATASIZE PUSH1 0x0 REVERT JUMPDEST POP POP POP POP PUSH1 0x40 MLOAD RETURNDATASIZE PUSH1 0x1F NOT PUSH1 0x1F DUP3 ADD AND DUP3 ADD DUP1 PUSH1 0x40 MSTORE POP DUP2 ADD SWAP1 PUSH3 0xD36 SWAP2 SWAP1 PUSH3 0x2928 JUMP JUMPDEST PUSH1 0x1 PUSH1 0x0 DUP8 PUSH20 0xFFFFFFFFFFFFFFFFFFFFFFFFFFFFFFFFFFFFFFFF AND PUSH20 0xFFFFFFFFFFFFFFFFFFFFFFFFFFFFFFFFFFFFFFFF AND DUP2 MSTORE PUSH1 0x20 ADD SWAP1 DUP2 MSTORE PUSH1 0x20 ADD PUSH1 0x0 KECCAK256 PUSH1 0x6 ADD SLOAD PUSH1 0x64 PUSH1 0x1 PUSH1 0x0 DUP10 PUSH20 0xFFFFFFFFFFFFFFFFFFFFFFFFFFFFFFFFFFFFFFFF AND PUSH20 0xFFFFFFFFFFFFFFFFFFFFFFFFFFFFFFFFFFFFFFFF AND DUP2 MSTORE PUSH1 0x20 ADD SWAP1 DUP2 MSTORE PUSH1 0x20 ADD PUSH1 0x0 KECCAK256 PUSH1 0x7 ADD SLOAD PUSH3 0xDCA SWAP2 SWAP1 PUSH3 0x2989 JUMP JUMPDEST PUSH3 0xDD6 SWAP2 SWAP1 PUSH3 0x2A03 JUMP JUMPDEST LT PUSH3 0xDEA JUMPI PUSH3 0xDE9 DUP6 PUSH1 0x0 PUSH3 0x18CF JUMP JUMPDEST JUMPDEST PUSH3 0xFFE JUMP JUMPDEST PUSH1 0x1 PUSH1 0x0 DUP7 PUSH20 0xFFFFFFFFFFFFFFFFFFFFFFFFFFFFFFFFFFFFFFFF AND PUSH20 0xFFFFFFFFFFFFFFFFFFFFFFFFFFFFFFFFFFFFFFFF AND DUP2 MSTORE PUSH1 0x20 ADD SWAP1 DUP2 MSTORE PUSH1 0x20 ADD PUSH1 0x0 KECCAK256 PUSH1 0x8 ADD SLOAD PUSH1 0x1 PUSH1 0x0 DUP8 PUSH20 0xFFFFFFFFFFFFFFFFFFFFFFFFFFFFFFFFFFFFFFFF AND PUSH20 0xFFFFFFFFFFFFFFFFFFFFFFFFFFFFFFFFFFFFFFFF AND DUP2 MSTORE PUSH1 0x20 ADD SWAP1 DUP2 MSTORE PUSH1 0x20 ADD PUSH1 0x0 KECCAK256 PUSH1 0x7 ADD SLOAD LT ISZERO PUSH3 0xFCB JUMPI PUSH1 0x2 PUSH1 0x0 SWAP1 SLOAD SWAP1 PUSH2 0x100 EXP SWAP1 DIV PUSH20 0xFFFFFFFFFFFFFFFFFFFFFFFFFFFFFFFFFFFFFFFF AND PUSH20 0xFFFFFFFFFFFFFFFFFFFFFFFFFFFFFFFFFFFFFFFF AND PUSH4 0xB85000D PUSH1 0x40 MLOAD DUP2 PUSH4 0xFFFFFFFF AND PUSH1 0xE0 SHL DUP2 MSTORE PUSH1 0x4 ADD PUSH1 0x20 PUSH1 0x40 MLOAD DUP1 DUP4 SUB DUP2 DUP7 GAS STATICCALL ISZERO DUP1 ISZERO PUSH3 0xEEB JUMPI RETURNDATASIZE PUSH1 0x0 DUP1 RETURNDATACOPY RETURNDATASIZE PUSH1 0x0 REVERT JUMPDEST POP POP POP POP PUSH1 0x40 MLOAD RETURNDATASIZE PUSH1 0x1F NOT PUSH1 0x1F DUP3 ADD AND DUP3 ADD DUP1 PUSH1 0x40 MSTORE POP DUP2 ADD SWAP1 PUSH3 0xF11 SWAP2 SWAP1 PUSH3 0x2928 JUMP JUMPDEST PUSH1 0x1 PUSH1 0x0 DUP8 PUSH20 0xFFFFFFFFFFFFFFFFFFFFFFFFFFFFFFFFFFFFFFFF AND PUSH20 0xFFFFFFFFFFFFFFFFFFFFFFFFFFFFFFFFFFFFFFFF AND DUP2 MSTORE PUSH1 0x20 ADD SWAP1 DUP2 MSTORE PUSH1 0x20 ADD PUSH1 0x0 KECCAK256 PUSH1 0x6 ADD SLOAD PUSH1 0x64 PUSH1 0x1 PUSH1 0x0 DUP10 PUSH20 0xFFFFFFFFFFFFFFFFFFFFFFFFFFFFFFFFFFFFFFFF AND PUSH20 0xFFFFFFFFFFFFFFFFFFFFFFFFFFFFFFFFFFFFFFFF AND DUP2 MSTORE PUSH1 0x20 ADD SWAP1 DUP2 MSTORE PUSH1 0x20 ADD PUSH1 0x0 KECCAK256 PUSH1 0x8 ADD SLOAD PUSH3 0xFA5 SWAP2 SWAP1 PUSH3 0x2989 JUMP JUMPDEST PUSH3 0xFB1 SWAP2 SWAP1 PUSH3 0x2A03 JUMP JUMPDEST LT PUSH3 0xFC5 JUMPI PUSH3 0xFC4 DUP6 PUSH1 0x1 PUSH3 0x18CF JUMP JUMPDEST JUMPDEST PUSH3 0xFFD JUMP JUMPDEST PUSH1 0x40 MLOAD PUSH32 0xBC7316F200000000000000000000000000000000000000000000000000000000 DUP2 MSTORE PUSH1 0x4 ADD PUSH1 0x40 MLOAD DUP1 SWAP2 SUB SWAP1 REVERT JUMPDEST JUMPDEST POP POP POP POP POP JUMP JUMPDEST PUSH1 0x0 PUSH1 0x2 PUSH1 0x0 SWAP1 SLOAD SWAP1 PUSH2 0x100 EXP SWAP1 DIV PUSH20 0xFFFFFFFFFFFFFFFFFFFFFFFFFFFFFFFFFFFFFFFF AND PUSH20 0xFFFFFFFFFFFFFFFFFFFFFFFFFFFFFFFFFFFFFFFF AND PUSH4 0xB4805D3 CALLER PUSH1 0x40 MLOAD DUP3 PUSH4 0xFFFFFFFF AND PUSH1 0xE0 SHL DUP2 MSTORE PUSH1 0x4 ADD PUSH3 0x1064 SWAP2 SWAP1 PUSH3 0x2387 JUMP JUMPDEST PUSH1 0x20 PUSH1 0x40 MLOAD DUP1 DUP4 SUB DUP2 DUP7 GAS STATICCALL ISZERO DUP1 ISZERO PUSH3 0x1082 JUMPI RETURNDATASIZE PUSH1 0x0 DUP1 RETURNDATACOPY RETURNDATASIZE PUSH1 0x0 REVERT JUMPDEST POP POP POP POP PUSH1 0x40 MLOAD RETURNDATASIZE PUSH1 0x1F NOT PUSH1 0x1F DUP3 ADD AND DUP3 ADD DUP1 PUSH1 0x40 MSTORE POP DUP2 ADD SWAP1 PUSH3 0x10A8 SWAP2 SWAP1 PUSH3 0x2928 JUMP JUMPDEST SUB PUSH3 0x10E0 JUMPI PUSH1 0x40 MLOAD PUSH32 0x3A70817D00000000000000000000000000000000000000000000000000000000 DUP2 MSTORE PUSH1 0x4 ADD PUSH1 0x40 MLOAD DUP1 SWAP2 SUB SWAP1 REVERT JUMPDEST PUSH1 0x2 PUSH1 0x0 SWAP1 SLOAD SWAP1 PUSH2 0x100 EXP SWAP1 DIV PUSH20 0xFFFFFFFFFFFFFFFFFFFFFFFFFFFFFFFFFFFFFFFF AND PUSH20 0xFFFFFFFFFFFFFFFFFFFFFFFFFFFFFFFFFFFFFFFF AND PUSH4 0x53DB7E77 PUSH1 0x40 MLOAD DUP2 PUSH4 0xFFFFFFFF AND PUSH1 0xE0 SHL DUP2 MSTORE PUSH1 0x4 ADD PUSH1 0x20 PUSH1 0x40 MLOAD DUP1 DUP4 SUB DUP2 DUP7 GAS STATICCALL ISZERO DUP1 ISZERO PUSH3 0x114E JUMPI RETURNDATASIZE PUSH1 0x0 DUP1 RETURNDATACOPY RETURNDATASIZE PUSH1 0x0 REVERT JUMPDEST POP POP POP POP PUSH1 0x40 MLOAD RETURNDATASIZE PUSH1 0x1F NOT PUSH1 0x1F DUP3 ADD AND DUP3 ADD DUP1 PUSH1 0x40 MSTORE POP DUP2 ADD SWAP1 PUSH3 0x1174 SWAP2 SWAP1 PUSH3 0x2928 JUMP JUMPDEST PUSH1 0x2 PUSH1 0x0 SWAP1 SLOAD SWAP1 PUSH2 0x100 EXP SWAP1 DIV PUSH20 0xFFFFFFFFFFFFFFFFFFFFFFFFFFFFFFFFFFFFFFFF AND PUSH20 0xFFFFFFFFFFFFFFFFFFFFFFFFFFFFFFFFFFFFFFFF AND PUSH4 0x139F29A1 PUSH1 0x40 MLOAD DUP2 PUSH4 0xFFFFFFFF AND PUSH1 0xE0 SHL DUP2 MSTORE PUSH1 0x4 ADD PUSH1 0x20 PUSH1 0x40 MLOAD DUP1 DUP4 SUB DUP2 DUP7 GAS STATICCALL ISZERO DUP1 ISZERO PUSH3 0x11E2 JUMPI RETURNDATASIZE PUSH1 0x0 DUP1 RETURNDATACOPY RETURNDATASIZE PUSH1 0x0 REVERT JUMPDEST POP POP POP POP PUSH1 0x40 MLOAD RETURNDATASIZE PUSH1 0x1F NOT PUSH1 0x1F DUP3 ADD AND DUP3 ADD DUP1 PUSH1 0x40 MSTORE POP DUP2 ADD SWAP1 PUSH3 0x1208 SWAP2 SWAP1 PUSH3 0x2928 JUMP JUMPDEST LT ISZERO PUSH3 0x124C JUMPI PUSH1 0x40 MLOAD PUSH32 0x8C379A000000000000000000000000000000000000000000000000000000000 DUP2 MSTORE PUSH1 0x4 ADD PUSH3 0x1243 SWAP1 PUSH3 0x2A8B JUMP JUMPDEST PUSH1 0x40 MLOAD DUP1 SWAP2 SUB SWAP1 REVERT JUMPDEST PUSH1 0x0 DUP3 DUP3 ADDRESS PUSH1 0x2 PUSH1 0x0 SWAP1 SLOAD SWAP1 PUSH2 0x100 EXP SWAP1 DIV PUSH20 0xFFFFFFFFFFFFFFFFFFFFFFFFFFFFFFFFFFFFFFFF AND PUSH1 0x40 MLOAD PUSH3 0x1282 SWAP1 PUSH3 0x1E4C JUMP JUMPDEST PUSH3 0x1291 SWAP5 SWAP4 SWAP3 SWAP2 SWAP1 PUSH3 0x2AAD JUMP JUMPDEST PUSH1 0x40 MLOAD DUP1 SWAP2 SUB SWAP1 PUSH1 0x0 CREATE DUP1 ISZERO DUP1 ISZERO PUSH3 0x12AE JUMPI RETURNDATASIZE PUSH1 0x0 DUP1 RETURNDATACOPY RETURNDATASIZE PUSH1 0x0 REVERT JUMPDEST POP SWAP1 POP DUP3 PUSH1 0x1 PUSH1 0x0 DUP4 PUSH20 0xFFFFFFFFFFFFFFFFFFFFFFFFFFFFFFFFFFFFFFFF AND PUSH20 0xFFFFFFFFFFFFFFFFFFFFFFFFFFFFFFFFFFFFFFFF AND DUP2 MSTORE PUSH1 0x20 ADD SWAP1 DUP2 MSTORE PUSH1 0x20 ADD PUSH1 0x0 KECCAK256 PUSH1 0x1 ADD SWAP1 DUP2 PUSH3 0x1302 SWAP2 SWAP1 PUSH3 0x2157 JUMP JUMPDEST POP DUP2 PUSH1 0x1 PUSH1 0x0 DUP4 PUSH20 0xFFFFFFFFFFFFFFFFFFFFFFFFFFFFFFFFFFFFFFFF AND PUSH20 0xFFFFFFFFFFFFFFFFFFFFFFFFFFFFFFFFFFFFFFFF AND DUP2 MSTORE PUSH1 0x20 ADD SWAP1 DUP2 MSTORE PUSH1 0x20 ADD PUSH1 0x0 KECCAK256 PUSH1 0x2 ADD SWAP1 DUP2 PUSH3 0x1354 SWAP2 SWAP1 PUSH3 0x2157 JUMP JUMPDEST POP CALLER PUSH1 0x1 PUSH1 0x0 DUP4 PUSH20 0xFFFFFFFFFFFFFFFFFFFFFFFFFFFFFFFFFFFFFFFF AND PUSH20 0xFFFFFFFFFFFFFFFFFFFFFFFFFFFFFFFFFFFFFFFF AND DUP2 MSTORE PUSH1 0x20 ADD SWAP1 DUP2 MSTORE PUSH1 0x20 ADD PUSH1 0x0 KECCAK256 PUSH1 0x3 ADD PUSH1 0x0 PUSH2 0x100 EXP DUP2 SLOAD DUP2 PUSH20 0xFFFFFFFFFFFFFFFFFFFFFFFFFFFFFFFFFFFFFFFF MUL NOT AND SWAP1 DUP4 PUSH20 0xFFFFFFFFFFFFFFFFFFFFFFFFFFFFFFFFFFFFFFFF AND MUL OR SWAP1 SSTORE POP PUSH1 0x0 PUSH1 0x1 PUSH1 0x0 DUP4 PUSH20 0xFFFFFFFFFFFFFFFFFFFFFFFFFFFFFFFFFFFFFFFF AND PUSH20 0xFFFFFFFFFFFFFFFFFFFFFFFFFFFFFFFFFFFFFFFF AND DUP2 MSTORE PUSH1 0x20 ADD SWAP1 DUP2 MSTORE PUSH1 0x20 ADD PUSH1 0x0 KECCAK256 PUSH1 0x9 ADD PUSH1 0x0 PUSH2 0x100 EXP DUP2 SLOAD DUP2 PUSH1 0xFF MUL NOT AND SWAP1 DUP4 PUSH1 0x3 DUP2 GT ISZERO PUSH3 0x143F JUMPI PUSH3 0x143E PUSH3 0x260C JUMP JUMPDEST JUMPDEST MUL OR SWAP1 SSTORE POP PUSH32 0x909E36E1D400E483A06621CE59EA23139B7A5C694C10B1E889D0E79CE49922F2 DUP2 DUP5 DUP5 PUSH1 0x40 MLOAD PUSH3 0x1479 SWAP4 SWAP3 SWAP2 SWAP1 PUSH3 0x2B08 JUMP JUMPDEST PUSH1 0x40 MLOAD DUP1 SWAP2 SUB SWAP1 LOG1 POP POP POP JUMP JUMPDEST PUSH1 0x1 PUSH1 0x20 MSTORE DUP1 PUSH1 0x0 MSTORE PUSH1 0x40 PUSH1 0x0 KECCAK256 PUSH1 0x0 SWAP2 POP SWAP1 POP DUP1 PUSH1 0x0 ADD SLOAD SWAP1 DUP1 PUSH1 0x1 ADD DUP1 SLOAD PUSH3 0x14B1 SWAP1 PUSH3 0x1F46 JUMP JUMPDEST DUP1 PUSH1 0x1F ADD PUSH1 0x20 DUP1 SWAP2 DIV MUL PUSH1 0x20 ADD PUSH1 0x40 MLOAD SWAP1 DUP2 ADD PUSH1 0x40 MSTORE DUP1 SWAP3 SWAP2 SWAP1 DUP2 DUP2 MSTORE PUSH1 0x20 ADD DUP3 DUP1 SLOAD PUSH3 0x14DF SWAP1 PUSH3 0x1F46 JUMP JUMPDEST DUP1 ISZERO PUSH3 0x1530 JUMPI DUP1 PUSH1 0x1F LT PUSH3 0x1504 JUMPI PUSH2 0x100 DUP1 DUP4 SLOAD DIV MUL DUP4 MSTORE SWAP2 PUSH1 0x20 ADD SWAP2 PUSH3 0x1530 JUMP JUMPDEST DUP3 ADD SWAP2 SWAP1 PUSH1 0x0 MSTORE PUSH1 0x20 PUSH1 0x0 KECCAK256 SWAP1 JUMPDEST DUP2 SLOAD DUP2 MSTORE SWAP1 PUSH1 0x1 ADD SWAP1 PUSH1 0x20 ADD DUP1 DUP4 GT PUSH3 0x1512 JUMPI DUP3 SWAP1 SUB PUSH1 0x1F AND DUP3 ADD SWAP2 JUMPDEST POP POP POP POP POP SWAP1 DUP1 PUSH1 0x2 ADD DUP1 SLOAD PUSH3 0x1547 SWAP1 PUSH3 0x1F46 JUMP JUMPDEST DUP1 PUSH1 0x1F ADD PUSH1 0x20 DUP1 SWAP2 DIV MUL PUSH1 0x20 ADD PUSH1 0x40 MLOAD SWAP1 DUP2 ADD PUSH1 0x40 MSTORE DUP1 SWAP3 SWAP2 SWAP1 DUP2 DUP2 MSTORE PUSH1 0x20 ADD DUP3 DUP1 SLOAD PUSH3 0x1575 SWAP1 PUSH3 0x1F46 JUMP JUMPDEST DUP1 ISZERO PUSH3 0x15C6 JUMPI DUP1 PUSH1 0x1F LT PUSH3 0x159A JUMPI PUSH2 0x100 DUP1 DUP4 SLOAD DIV MUL DUP4 MSTORE SWAP2 PUSH1 0x20 ADD SWAP2 PUSH3 0x15C6 JUMP JUMPDEST DUP3 ADD SWAP2 SWAP1 PUSH1 0x0 MSTORE PUSH1 0x20 PUSH1 0x0 KECCAK256 SWAP1 JUMPDEST DUP2 SLOAD DUP2 MSTORE SWAP1 PUSH1 0x1 ADD SWAP1 PUSH1 0x20 ADD DUP1 DUP4 GT PUSH3 0x15A8 JUMPI DUP3 SWAP1 SUB PUSH1 0x1F AND DUP3 ADD SWAP2 JUMPDEST POP POP POP POP POP SWAP1 DUP1 PUSH1 0x3 ADD PUSH1 0x0 SWAP1 SLOAD SWAP1 PUSH2 0x100 EXP SWAP1 DIV PUSH20 0xFFFFFFFFFFFFFFFFFFFFFFFFFFFFFFFFFFFFFFFF AND SWAP1 DUP1 PUSH1 0x6 ADD SLOAD SWAP1 DUP1 PUSH1 0x7 ADD SLOAD SWAP1 DUP1 PUSH1 0x8 ADD SLOAD SWAP1 DUP1 PUSH1 0x9 ADD PUSH1 0x0 SWAP1 SLOAD SWAP1 PUSH2 0x100 EXP SWAP1 DIV PUSH1 0xFF AND SWAP1 POP DUP9 JUMP JUMPDEST PUSH1 0x0 PUSH1 0x1 PUSH1 0x0 DUP4 PUSH20 0xFFFFFFFFFFFFFFFFFFFFFFFFFFFFFFFFFFFFFFFF AND PUSH20 0xFFFFFFFFFFFFFFFFFFFFFFFFFFFFFFFFFFFFFFFF AND DUP2 MSTORE PUSH1 0x20 ADD SWAP1 DUP2 MSTORE PUSH1 0x20 ADD PUSH1 0x0 KECCAK256 PUSH1 0x4 ADD PUSH1 0x0 CALLER PUSH20 0xFFFFFFFFFFFFFFFFFFFFFFFFFFFFFFFFFFFFFFFF AND PUSH20 0xFFFFFFFFFFFFFFFFFFFFFFFFFFFFFFFFFFFFFFFF AND DUP2 MSTORE PUSH1 0x20 ADD SWAP1 DUP2 MSTORE PUSH1 0x20 ADD PUSH1 0x0 KECCAK256 SLOAD SWAP1 POP SWAP2 SWAP1 POP JUMP JUMPDEST DUP1 CALLER PUSH20 0xFFFFFFFFFFFFFFFFFFFFFFFFFFFFFFFFFFFFFFFF AND PUSH1 0x1 PUSH1 0x0 DUP4 PUSH20 0xFFFFFFFFFFFFFFFFFFFFFFFFFFFFFFFFFFFFFFFF AND PUSH20 0xFFFFFFFFFFFFFFFFFFFFFFFFFFFFFFFFFFFFFFFF AND DUP2 MSTORE PUSH1 0x20 ADD SWAP1 DUP2 MSTORE PUSH1 0x20 ADD PUSH1 0x0 KECCAK256 PUSH1 0x3 ADD PUSH1 0x0 SWAP1 SLOAD SWAP1 PUSH2 0x100 EXP SWAP1 DIV PUSH20 0xFFFFFFFFFFFFFFFFFFFFFFFFFFFFFFFFFFFFFFFF AND PUSH20 0xFFFFFFFFFFFFFFFFFFFFFFFFFFFFFFFFFFFFFFFF AND EQ PUSH3 0x176D JUMPI PUSH1 0x40 MLOAD PUSH32 0x251C9D6300000000000000000000000000000000000000000000000000000000 DUP2 MSTORE PUSH1 0x4 ADD PUSH1 0x40 MLOAD DUP1 SWAP2 SUB SWAP1 REVERT JUMPDEST PUSH1 0x0 DUP3 DUP2 PUSH1 0x3 DUP2 GT ISZERO PUSH3 0x1786 JUMPI PUSH3 0x1785 PUSH3 0x260C JUMP JUMPDEST JUMPDEST PUSH1 0x1 PUSH1 0x0 DUP4 PUSH20 0xFFFFFFFFFFFFFFFFFFFFFFFFFFFFFFFFFFFFFFFF AND PUSH20 0xFFFFFFFFFFFFFFFFFFFFFFFFFFFFFFFFFFFFFFFF AND DUP2 MSTORE PUSH1 0x20 ADD SWAP1 DUP2 MSTORE PUSH1 0x20 ADD PUSH1 0x0 KECCAK256 PUSH1 0x9 ADD PUSH1 0x0 SWAP1 SLOAD SWAP1 PUSH2 0x100 EXP SWAP1 DIV PUSH1 0xFF AND PUSH1 0x3 DUP2 GT ISZERO PUSH3 0x17EB JUMPI PUSH3 0x17EA PUSH3 0x260C JUMP JUMPDEST JUMPDEST EQ PUSH3 0x1823 JUMPI PUSH1 0x40 MLOAD PUSH32 0x248D543200000000000000000000000000000000000000000000000000000000 DUP2 MSTORE PUSH1 0x4 ADD PUSH1 0x40 MLOAD DUP1 SWAP2 SUB SWAP1 REVERT JUMPDEST PUSH1 0x1 DUP1 PUSH1 0x0 DUP7 PUSH20 0xFFFFFFFFFFFFFFFFFFFFFFFFFFFFFFFFFFFFFFFF AND PUSH20 0xFFFFFFFFFFFFFFFFFFFFFFFFFFFFFFFFFFFFFFFF AND DUP2 MSTORE PUSH1 0x20 ADD SWAP1 DUP2 MSTORE PUSH1 0x20 ADD PUSH1 0x0 KECCAK256 PUSH1 0x9 ADD PUSH1 0x0 PUSH2 0x100 EXP DUP2 SLOAD DUP2 PUSH1 0xFF MUL NOT AND SWAP1 DUP4 PUSH1 0x3 DUP2 GT ISZERO PUSH3 0x188B JUMPI PUSH3 0x188A PUSH3 0x260C JUMP JUMPDEST JUMPDEST MUL OR SWAP1 SSTORE POP PUSH32 0x8EBCE6DADFF954899922E37E6884F44F19EF94B282A760A548C170743CC892E1 DUP5 PUSH1 0x40 MLOAD PUSH3 0x18C1 SWAP2 SWAP1 PUSH3 0x2387 JUMP JUMPDEST PUSH1 0x40 MLOAD DUP1 SWAP2 SUB SWAP1 LOG1 POP POP POP POP JUMP JUMPDEST DUP2 PUSH20 0xFFFFFFFFFFFFFFFFFFFFFFFFFFFFFFFFFFFFFFFF AND PUSH4 0x1DF79B65 PUSH1 0x2 PUSH1 0x0 SWAP1 SLOAD SWAP1 PUSH2 0x100 EXP SWAP1 DIV PUSH20 0xFFFFFFFFFFFFFFFFFFFFFFFFFFFFFFFFFFFFFFFF AND PUSH20 0xFFFFFFFFFFFFFFFFFFFFFFFFFFFFFFFFFFFFFFFF AND PUSH4 0x194A4E7E PUSH1 0x40 MLOAD DUP2 PUSH4 0xFFFFFFFF AND PUSH1 0xE0 SHL DUP2 MSTORE PUSH1 0x4 ADD PUSH1 0x20 PUSH1 0x40 MLOAD DUP1 DUP4 SUB DUP2 DUP7 GAS STATICCALL ISZERO DUP1 ISZERO PUSH3 0x1959 JUMPI RETURNDATASIZE PUSH1 0x0 DUP1 RETURNDATACOPY RETURNDATASIZE PUSH1 0x0 REVERT JUMPDEST POP POP POP POP PUSH1 0x40 MLOAD RETURNDATASIZE PUSH1 0x1F NOT PUSH1 0x1F DUP3 ADD AND DUP3 ADD DUP1 PUSH1 0x40 MSTORE POP DUP2 ADD SWAP1 PUSH3 0x197F SWAP2 SWAP1 PUSH3 0x2928 JUMP JUMPDEST PUSH1 0x2 PUSH1 0x0 SWAP1 SLOAD SWAP1 PUSH2 0x100 EXP SWAP1 DIV PUSH20 0xFFFFFFFFFFFFFFFFFFFFFFFFFFFFFFFFFFFFFFFF AND PUSH20 0xFFFFFFFFFFFFFFFFFFFFFFFFFFFFFFFFFFFFFFFF AND PUSH4 0x6694BA61 PUSH1 0x40 MLOAD DUP2 PUSH4 0xFFFFFFFF AND PUSH1 0xE0 SHL DUP2 MSTORE PUSH1 0x4 ADD PUSH1 0x20 PUSH1 0x40 MLOAD DUP1 DUP4 SUB DUP2 DUP7 GAS STATICCALL ISZERO DUP1 ISZERO PUSH3 0x19ED JUMPI RETURNDATASIZE PUSH1 0x0 DUP1 RETURNDATACOPY RETURNDATASIZE PUSH1 0x0 REVERT JUMPDEST POP POP POP POP PUSH1 0x40 MLOAD RETURNDATASIZE PUSH1 0x1F NOT PUSH1 0x1F DUP3 ADD AND DUP3 ADD DUP1 PUSH1 0x40 MSTORE POP DUP2 ADD SWAP1 PUSH3 0x1A13 SWAP2 SWAP1 PUSH3 0x2928 JUMP JUMPDEST PUSH1 0x40 MLOAD DUP4 PUSH4 0xFFFFFFFF AND PUSH1 0xE0 SHL DUP2 MSTORE PUSH1 0x4 ADD PUSH3 0x1A32 SWAP3 SWAP2 SWAP1 PUSH3 0x2B53 JUMP JUMPDEST PUSH1 0x0 PUSH1 0x40 MLOAD DUP1 DUP4 SUB DUP2 PUSH1 0x0 DUP8 DUP1 EXTCODESIZE ISZERO DUP1 ISZERO PUSH3 0x1A4D JUMPI PUSH1 0x0 DUP1 REVERT JUMPDEST POP GAS CALL ISZERO DUP1 ISZERO PUSH3 0x1A62 JUMPI RETURNDATASIZE PUSH1 0x0 DUP1 RETURNDATACOPY RETURNDATASIZE PUSH1 0x0 REVERT JUMPDEST POP POP POP POP PUSH1 0x0 DUP3 PUSH20 0xFFFFFFFFFFFFFFFFFFFFFFFFFFFFFFFFFFFFFFFF AND PUSH4 0xEBFB6652 PUSH1 0x2 PUSH1 0x0 SWAP1 SLOAD SWAP1 PUSH2 0x100 EXP SWAP1 DIV PUSH20 0xFFFFFFFFFFFFFFFFFFFFFFFFFFFFFFFFFFFFFFFF AND PUSH20 0xFFFFFFFFFFFFFFFFFFFFFFFFFFFFFFFFFFFFFFFF AND PUSH4 0x72E24FDD PUSH1 0x40 MLOAD DUP2 PUSH4 0xFFFFFFFF AND PUSH1 0xE0 SHL DUP2 MSTORE PUSH1 0x4 ADD PUSH1 0x20 PUSH1 0x40 MLOAD DUP1 DUP4 SUB DUP2 DUP7 GAS STATICCALL ISZERO DUP1 ISZERO PUSH3 0x1AF2 JUMPI RETURNDATASIZE PUSH1 0x0 DUP1 RETURNDATACOPY RETURNDATASIZE PUSH1 0x0 REVERT JUMPDEST POP POP POP POP PUSH1 0x40 MLOAD RETURNDATASIZE PUSH1 0x1F NOT PUSH1 0x1F DUP3 ADD AND DUP3 ADD DUP1 PUSH1 0x40 MSTORE POP DUP2 ADD SWAP1 PUSH3 0x1B18 SWAP2 SWAP1 PUSH3 0x2928 JUMP JUMPDEST PUSH1 0x40 MLOAD DUP3 PUSH4 0xFFFFFFFF AND PUSH1 0xE0 SHL DUP2 MSTORE PUSH1 0x4 ADD PUSH3 0x1B36 SWAP2 SWAP1 PUSH3 0x2728 JUMP JUMPDEST PUSH1 0x20 PUSH1 0x40 MLOAD DUP1 DUP4 SUB DUP2 DUP7 GAS STATICCALL ISZERO DUP1 ISZERO PUSH3 0x1B54 JUMPI RETURNDATASIZE PUSH1 0x0 DUP1 RETURNDATACOPY RETURNDATASIZE PUSH1 0x0 REVERT JUMPDEST POP POP POP POP PUSH1 0x40 MLOAD RETURNDATASIZE PUSH1 0x1F NOT PUSH1 0x1F DUP3 ADD AND DUP3 ADD DUP1 PUSH1 0x40 MSTORE POP DUP2 ADD SWAP1 PUSH3 0x1B7A SWAP2 SWAP1 PUSH3 0x2928 JUMP JUMPDEST SWAP1 POP PUSH1 0x0 JUMPDEST PUSH1 0x1 PUSH1 0x0 DUP6 PUSH20 0xFFFFFFFFFFFFFFFFFFFFFFFFFFFFFFFFFFFFFFFF AND PUSH20 0xFFFFFFFFFFFFFFFFFFFFFFFFFFFFFFFFFFFFFFFF AND DUP2 MSTORE PUSH1 0x20 ADD SWAP1 DUP2 MSTORE PUSH1 0x20 ADD PUSH1 0x0 KECCAK256 PUSH1 0x5 ADD DUP1 SLOAD SWAP1 POP DUP2 LT ISZERO PUSH3 0x1DE4 JUMPI DUP3 PUSH1 0x1 PUSH1 0x0 DUP7 PUSH20 0xFFFFFFFFFFFFFFFFFFFFFFFFFFFFFFFFFFFFFFFF AND PUSH20 0xFFFFFFFFFFFFFFFFFFFFFFFFFFFFFFFFFFFFFFFF AND DUP2 MSTORE PUSH1 0x20 ADD SWAP1 DUP2 MSTORE PUSH1 0x20 ADD PUSH1 0x0 KECCAK256 PUSH1 0x4 ADD PUSH1 0x0 PUSH1 0x1 PUSH1 0x0 DUP9 PUSH20 0xFFFFFFFFFFFFFFFFFFFFFFFFFFFFFFFFFFFFFFFF AND PUSH20 0xFFFFFFFFFFFFFFFFFFFFFFFFFFFFFFFFFFFFFFFF AND DUP2 MSTORE PUSH1 0x20 ADD SWAP1 DUP2 MSTORE PUSH1 0x20 ADD PUSH1 0x0 KECCAK256 PUSH1 0x5 ADD DUP5 DUP2 SLOAD DUP2 LT PUSH3 0x1C69 JUMPI PUSH3 0x1C68 PUSH3 0x295A JUMP JUMPDEST JUMPDEST SWAP1 PUSH1 0x0 MSTORE PUSH1 0x20 PUSH1 0x0 KECCAK256 ADD PUSH1 0x0 SWAP1 SLOAD SWAP1 PUSH2 0x100 EXP SWAP1 DIV PUSH20 0xFFFFFFFFFFFFFFFFFFFFFFFFFFFFFFFFFFFFFFFF AND PUSH20 0xFFFFFFFFFFFFFFFFFFFFFFFFFFFFFFFFFFFFFFFF AND PUSH20 0xFFFFFFFFFFFFFFFFFFFFFFFFFFFFFFFFFFFFFFFF AND DUP2 MSTORE PUSH1 0x20 ADD SWAP1 DUP2 MSTORE PUSH1 0x20 ADD PUSH1 0x0 KECCAK256 SLOAD SUB PUSH3 0x1DCD JUMPI DUP4 PUSH20 0xFFFFFFFFFFFFFFFFFFFFFFFFFFFFFFFFFFFFFFFF AND PUSH4 0xCF959429 PUSH1 0x1 PUSH1 0x0 DUP8 PUSH20 0xFFFFFFFFFFFFFFFFFFFFFFFFFFFFFFFFFFFFFFFF AND PUSH20 0xFFFFFFFFFFFFFFFFFFFFFFFFFFFFFFFFFFFFFFFF AND DUP2 MSTORE PUSH1 0x20 ADD SWAP1 DUP2 MSTORE PUSH1 0x20 ADD PUSH1 0x0 KECCAK256 PUSH1 0x5 ADD DUP4 DUP2 SLOAD DUP2 LT PUSH3 0x1D48 JUMPI PUSH3 0x1D47 PUSH3 0x295A JUMP JUMPDEST JUMPDEST SWAP1 PUSH1 0x0 MSTORE PUSH1 0x20 PUSH1 0x0 KECCAK256 ADD PUSH1 0x0 SWAP1 SLOAD SWAP1 PUSH2 0x100 EXP SWAP1 DIV PUSH20 0xFFFFFFFFFFFFFFFFFFFFFFFFFFFFFFFFFFFFFFFF AND DUP5 PUSH1 0x40 MLOAD DUP4 PUSH4 0xFFFFFFFF AND PUSH1 0xE0 SHL DUP2 MSTORE PUSH1 0x4 ADD PUSH3 0x1D93 SWAP3 SWAP2 SWAP1 PUSH3 0x2B80 JUMP JUMPDEST PUSH1 0x0 PUSH1 0x40 MLOAD DUP1 DUP4 SUB DUP2 PUSH1 0x0 DUP8 DUP1 EXTCODESIZE ISZERO DUP1 ISZERO PUSH3 0x1DAE JUMPI PUSH1 0x0 DUP1 REVERT JUMPDEST POP GAS CALL ISZERO DUP1 ISZERO PUSH3 0x1DC3 JUMPI RETURNDATASIZE PUSH1 0x0 DUP1 RETURNDATACOPY RETURNDATASIZE PUSH1 0x0 REVERT JUMPDEST POP POP POP POP PUSH3 0x1DCE JUMP JUMPDEST JUMPDEST DUP1 DUP1 PUSH3 0x1DDB SWAP1 PUSH3 0x28DB JUMP JUMPDEST SWAP2 POP POP PUSH3 0x1B7F JUMP JUMPDEST POP DUP3 PUSH20 0xFFFFFFFFFFFFFFFFFFFFFFFFFFFFFFFFFFFFFFFF AND PUSH4 0xA99073AE PUSH1 0x40 MLOAD DUP2 PUSH4 0xFFFFFFFF AND PUSH1 0xE0 SHL DUP2 MSTORE PUSH1 0x4 ADD PUSH1 0x0 PUSH1 0x40 MLOAD DUP1 DUP4 SUB DUP2 PUSH1 0x0 DUP8 DUP1 EXTCODESIZE ISZERO DUP1 ISZERO PUSH3 0x1E2E JUMPI PUSH1 0x0 DUP1 REVERT JUMPDEST POP GAS CALL ISZERO DUP1 ISZERO PUSH3 0x1E43 JUMPI RETURNDATASIZE PUSH1 0x0 DUP1 RETURNDATACOPY RETURNDATASIZE PUSH1 0x0 REVERT JUMPDEST POP POP POP POP POP POP POP JUMP JUMPDEST PUSH2 0x2364 DUP1 PUSH3 0x2BAE DUP4 CODECOPY ADD SWAP1 JUMP JUMPDEST PUSH1 0x0 DUP3 DUP3 MSTORE PUSH1 0x20 DUP3 ADD SWAP1 POP SWAP3 SWAP2 POP POP JUMP JUMPDEST PUSH32 0x796F752063616E27742073656E64206C657373207468616E2035306B20776569 PUSH1 0x0 DUP3 ADD MSTORE POP JUMP JUMPDEST PUSH1 0x0 PUSH3 0x1EA3 PUSH1 0x20 DUP4 PUSH3 0x1E5A JUMP JUMPDEST SWAP2 POP PUSH3 0x1EB0 DUP3 PUSH3 0x1E6B JUMP JUMPDEST PUSH1 0x20 DUP3 ADD SWAP1 POP SWAP2 SWAP1 POP JUMP JUMPDEST PUSH1 0x0 PUSH1 0x20 DUP3 ADD SWAP1 POP DUP2 DUP2 SUB PUSH1 0x0 DUP4 ADD MSTORE PUSH3 0x1ED6 DUP2 PUSH3 0x1E94 JUMP JUMPDEST SWAP1 POP SWAP2 SWAP1 POP JUMP JUMPDEST PUSH1 0x0 DUP2 MLOAD SWAP1 POP SWAP2 SWAP1 POP JUMP JUMPDEST PUSH32 0x4E487B7100000000000000000000000000000000000000000000000000000000 PUSH1 0x0 MSTORE PUSH1 0x41 PUSH1 0x4 MSTORE PUSH1 0x24 PUSH1 0x0 REVERT JUMPDEST PUSH32 0x4E487B7100000000000000000000000000000000000000000000000000000000 PUSH1 0x0 MSTORE PUSH1 0x22 PUSH1 0x4 MSTORE PUSH1 0x24 PUSH1 0x0 REVERT JUMPDEST PUSH1 0x0 PUSH1 0x2 DUP3 DIV SWAP1 POP PUSH1 0x1 DUP3 AND DUP1 PUSH3 0x1F5F JUMPI PUSH1 0x7F DUP3 AND SWAP2 POP JUMPDEST PUSH1 0x20 DUP3 LT DUP2 SUB PUSH3 0x1F75 JUMPI PUSH3 0x1F74 PUSH3 0x1F17 JUMP JUMPDEST JUMPDEST POP SWAP2 SWAP1 POP JUMP JUMPDEST PUSH1 0x0 DUP2 SWAP1 POP DUP2 PUSH1 0x0 MSTORE PUSH1 0x20 PUSH1 0x0 KECCAK256 SWAP1 POP SWAP2 SWAP1 POP JUMP JUMPDEST PUSH1 0x0 PUSH1 0x20 PUSH1 0x1F DUP4 ADD DIV SWAP1 POP SWAP2 SWAP1 POP JUMP JUMPDEST PUSH1 0x0 DUP3 DUP3 SHL SWAP1 POP SWAP3 SWAP2 POP POP JUMP JUMPDEST PUSH1 0x0 PUSH1 0x8 DUP4 MUL PUSH3 0x1FDF PUSH32 0xFFFFFFFFFFFFFFFFFFFFFFFFFFFFFFFFFFFFFFFFFFFFFFFFFFFFFFFFFFFFFFFF DUP3 PUSH3 0x1FA0 JUMP JUMPDEST PUSH3 0x1FEB DUP7 DUP4 PUSH3 0x1FA0 JUMP JUMPDEST SWAP6 POP DUP1 NOT DUP5 AND SWAP4 POP DUP1 DUP7 AND DUP5 OR SWAP3 POP POP POP SWAP4 SWAP3 POP POP POP JUMP JUMPDEST PUSH1 0x0 DUP2 SWAP1 POP SWAP2 SWAP1 POP JUMP JUMPDEST PUSH1 0x0 DUP2 SWAP1 POP SWAP2 SWAP1 POP JUMP JUMPDEST PUSH1 0x0 PUSH3 0x2038 PUSH3 0x2032 PUSH3 0x202C DUP5 PUSH3 0x2003 JUMP JUMPDEST PUSH3 0x200D JUMP JUMPDEST PUSH3 0x2003 JUMP JUMPDEST SWAP1 POP SWAP2 SWAP1 POP JUMP JUMPDEST PUSH1 0x0 DUP2 SWAP1 POP SWAP2 SWAP1 POP JUMP JUMPDEST PUSH3 0x2054 DUP4 PUSH3 0x2017 JUMP JUMPDEST PUSH3 0x206C PUSH3 0x2063 DUP3 PUSH3 0x203F JUMP JUMPDEST DUP5 DUP5 SLOAD PUSH3 0x1FAD JUMP JUMPDEST DUP3 SSTORE POP POP POP POP JUMP JUMPDEST PUSH1 0x0 SWAP1 JUMP JUMPDEST PUSH3 0x2083 PUSH3 0x2074 JUMP JUMPDEST PUSH3 0x2090 DUP2 DUP5 DUP5 PUSH3 0x2049 JUMP JUMPDEST POP POP POP JUMP JUMPDEST JUMPDEST DUP2 DUP2 LT ISZERO PUSH3 0x20B8 JUMPI PUSH3 0x20AC PUSH1 0x0 DUP3 PUSH3 0x2079 JUMP JUMPDEST PUSH1 0x1 DUP2 ADD SWAP1 POP PUSH3 0x2096 JUMP JUMPDEST POP POP JUMP JUMPDEST PUSH1 0x1F DUP3 GT ISZERO PUSH3 0x2107 JUMPI PUSH3 0x20D1 DUP2 PUSH3 0x1F7B JUMP JUMPDEST PUSH3 0x20DC DUP5 PUSH3 0x1F90 JUMP JUMPDEST DUP2 ADD PUSH1 0x20 DUP6 LT ISZERO PUSH3 0x20EC JUMPI DUP2 SWAP1 POP JUMPDEST PUSH3 0x2104 PUSH3 0x20FB DUP6 PUSH3 0x1F90 JUMP JUMPDEST DUP4 ADD DUP3 PUSH3 0x2095 JUMP JUMPDEST POP POP JUMPDEST POP POP POP JUMP JUMPDEST PUSH1 0x0 DUP3 DUP3 SHR SWAP1 POP SWAP3 SWAP2 POP POP JUMP JUMPDEST PUSH1 0x0 PUSH3 0x212C PUSH1 0x0 NOT DUP5 PUSH1 0x8 MUL PUSH3 0x210C JUMP JUMPDEST NOT DUP1 DUP4 AND SWAP2 POP POP SWAP3 SWAP2 POP POP JUMP JUMPDEST PUSH1 0x0 PUSH3 0x2147 DUP4 DUP4 PUSH3 0x2119 JUMP JUMPDEST SWAP2 POP DUP3 PUSH1 0x2 MUL DUP3 OR SWAP1 POP SWAP3 SWAP2 POP POP JUMP JUMPDEST PUSH3 0x2162 DUP3 PUSH3 0x1EDD JUMP JUMPDEST PUSH8 0xFFFFFFFFFFFFFFFF DUP2 GT ISZERO PUSH3 0x217E JUMPI PUSH3 0x217D PUSH3 0x1EE8 JUMP JUMPDEST JUMPDEST PUSH3 0x218A DUP3 SLOAD PUSH3 0x1F46 JUMP JUMPDEST PUSH3 0x2197 DUP3 DUP3 DUP6 PUSH3 0x20BC JUMP JUMPDEST PUSH1 0x0 PUSH1 0x20 SWAP1 POP PUSH1 0x1F DUP4 GT PUSH1 0x1 DUP2 EQ PUSH3 0x21CF JUMPI PUSH1 0x0 DUP5 ISZERO PUSH3 0x21BA JUMPI DUP3 DUP8 ADD MLOAD SWAP1 POP JUMPDEST PUSH3 0x21C6 DUP6 DUP3 PUSH3 0x2139 JUMP JUMPDEST DUP7 SSTORE POP PUSH3 0x2236 JUMP JUMPDEST PUSH1 0x1F NOT DUP5 AND PUSH3 0x21DF DUP7 PUSH3 0x1F7B JUMP JUMPDEST PUSH1 0x0 JUMPDEST DUP3 DUP2 LT ISZERO PUSH3 0x2209 JUMPI DUP5 DUP10 ADD MLOAD DUP3 SSTORE PUSH1 0x1 DUP3 ADD SWAP2 POP PUSH1 0x20 DUP6 ADD SWAP5 POP PUSH1 0x20 DUP2 ADD SWAP1 POP PUSH3 0x21E2 JUMP JUMPDEST DUP7 DUP4 LT ISZERO PUSH3 0x2229 JUMPI DUP5 DUP10 ADD MLOAD PUSH3 0x2225 PUSH1 0x1F DUP10 AND DUP3 PUSH3 0x2119 JUMP JUMPDEST DUP4 SSTORE POP JUMPDEST PUSH1 0x1 PUSH1 0x2 DUP9 MUL ADD DUP9 SSTORE POP POP POP JUMPDEST POP POP POP POP POP POP JUMP JUMPDEST PUSH1 0x0 PUSH1 0x40 MLOAD SWAP1 POP SWAP1 JUMP JUMPDEST PUSH1 0x0 DUP1 REVERT JUMPDEST PUSH1 0x0 DUP1 REVERT JUMPDEST PUSH3 0x225D DUP2 PUSH3 0x2003 JUMP JUMPDEST DUP2 EQ PUSH3 0x2269 JUMPI PUSH1 0x0 DUP1 REVERT JUMPDEST POP JUMP JUMPDEST PUSH1 0x0 DUP2 CALLDATALOAD SWAP1 POP PUSH3 0x227D DUP2 PUSH3 0x2252 JUMP JUMPDEST SWAP3 SWAP2 POP POP JUMP JUMPDEST PUSH1 0x0 PUSH20 0xFFFFFFFFFFFFFFFFFFFFFFFFFFFFFFFFFFFFFFFF DUP3 AND SWAP1 POP SWAP2 SWAP1 POP JUMP JUMPDEST PUSH1 0x0 PUSH3 0x22B0 DUP3 PUSH3 0x2283 JUMP JUMPDEST SWAP1 POP SWAP2 SWAP1 POP JUMP JUMPDEST PUSH3 0x22C2 DUP2 PUSH3 0x22A3 JUMP JUMPDEST DUP2 EQ PUSH3 0x22CE JUMPI PUSH1 0x0 DUP1 REVERT JUMPDEST POP JUMP JUMPDEST PUSH1 0x0 DUP2 CALLDATALOAD SWAP1 POP PUSH3 0x22E2 DUP2 PUSH3 0x22B7 JUMP JUMPDEST SWAP3 SWAP2 POP POP JUMP JUMPDEST PUSH1 0x0 DUP1 PUSH1 0x40 DUP4 DUP6 SUB SLT ISZERO PUSH3 0x2302 JUMPI PUSH3 0x2301 PUSH3 0x2248 JUMP JUMPDEST JUMPDEST PUSH1 0x0 PUSH3 0x2312 DUP6 DUP3 DUP7 ADD PUSH3 0x226C JUMP JUMPDEST SWAP3 POP POP PUSH1 0x20 PUSH3 0x2325 DUP6 DUP3 DUP7 ADD PUSH3 0x22D1 JUMP JUMPDEST SWAP2 POP POP SWAP3 POP SWAP3 SWAP1 POP JUMP JUMPDEST PUSH1 0x0 DUP1 PUSH1 0x40 DUP4 DUP6 SUB SLT ISZERO PUSH3 0x2349 JUMPI PUSH3 0x2348 PUSH3 0x2248 JUMP JUMPDEST JUMPDEST PUSH1 0x0 PUSH3 0x2359 DUP6 DUP3 DUP7 ADD PUSH3 0x22D1 JUMP JUMPDEST SWAP3 POP POP PUSH1 0x20 PUSH3 0x236C DUP6 DUP3 DUP7 ADD PUSH3 0x226C JUMP JUMPDEST SWAP2 POP POP SWAP3 POP SWAP3 SWAP1 POP JUMP JUMPDEST PUSH3 0x2381 DUP2 PUSH3 0x22A3 JUMP JUMPDEST DUP3 MSTORE POP POP JUMP JUMPDEST PUSH1 0x0 PUSH1 0x20 DUP3 ADD SWAP1 POP PUSH3 0x239E PUSH1 0x0 DUP4 ADD DUP5 PUSH3 0x2376 JUMP JUMPDEST SWAP3 SWAP2 POP POP JUMP JUMPDEST PUSH1 0x0 PUSH1 0x20 DUP3 DUP5 SUB SLT ISZERO PUSH3 0x23BD JUMPI PUSH3 0x23BC PUSH3 0x2248 JUMP JUMPDEST JUMPDEST PUSH1 0x0 PUSH3 0x23CD DUP5 DUP3 DUP6 ADD PUSH3 0x22D1 JUMP JUMPDEST SWAP2 POP POP SWAP3 SWAP2 POP POP JUMP JUMPDEST PUSH1 0x0 DUP1 REVERT JUMPDEST PUSH1 0x0 DUP1 REVERT JUMPDEST PUSH1 0x0 PUSH1 0x1F NOT PUSH1 0x1F DUP4 ADD AND SWAP1 POP SWAP2 SWAP1 POP JUMP JUMPDEST PUSH3 0x23FC DUP3 PUSH3 0x23E0 JUMP JUMPDEST DUP2 ADD DUP2 DUP2 LT PUSH8 0xFFFFFFFFFFFFFFFF DUP3 GT OR ISZERO PUSH3 0x241E JUMPI PUSH3 0x241D PUSH3 0x1EE8 JUMP JUMPDEST JUMPDEST DUP1 PUSH1 0x40 MSTORE POP POP POP JUMP JUMPDEST PUSH1 0x0 PUSH3 0x2433 PUSH3 0x223E JUMP JUMPDEST SWAP1 POP PUSH3 0x2441 DUP3 DUP3 PUSH3 0x23F1 JUMP JUMPDEST SWAP2 SWAP1 POP JUMP JUMPDEST PUSH1 0x0 PUSH8 0xFFFFFFFFFFFFFFFF DUP3 GT ISZERO PUSH3 0x2464 JUMPI PUSH3 0x2463 PUSH3 0x1EE8 JUMP JUMPDEST JUMPDEST PUSH3 0x246F DUP3 PUSH3 0x23E0 JUMP JUMPDEST SWAP1 POP PUSH1 0x20 DUP2 ADD SWAP1 POP SWAP2 SWAP1 POP JUMP JUMPDEST DUP3 DUP2 DUP4 CALLDATACOPY PUSH1 0x0 DUP4 DUP4 ADD MSTORE POP POP POP JUMP JUMPDEST PUSH1 0x0 PUSH3 0x24A2 PUSH3 0x249C DUP5 PUSH3 0x2446 JUMP JUMPDEST PUSH3 0x2427 JUMP JUMPDEST SWAP1 POP DUP3 DUP2 MSTORE PUSH1 0x20 DUP2 ADD DUP5 DUP5 DUP5 ADD GT ISZERO PUSH3 0x24C1 JUMPI PUSH3 0x24C0 PUSH3 0x23DB JUMP JUMPDEST JUMPDEST PUSH3 0x24CE DUP5 DUP3 DUP6 PUSH3 0x247C JUMP JUMPDEST POP SWAP4 SWAP3 POP POP POP JUMP JUMPDEST PUSH1 0x0 DUP3 PUSH1 0x1F DUP4 ADD SLT PUSH3 0x24EE JUMPI PUSH3 0x24ED PUSH3 0x23D6 JUMP JUMPDEST JUMPDEST DUP2 CALLDATALOAD PUSH3 0x2500 DUP5 DUP3 PUSH1 0x20 DUP7 ADD PUSH3 0x248B JUMP JUMPDEST SWAP2 POP POP SWAP3 SWAP2 POP POP JUMP JUMPDEST PUSH1 0x0 DUP1 PUSH1 0x40 DUP4 DUP6 SUB SLT ISZERO PUSH3 0x2523 JUMPI PUSH3 0x2522 PUSH3 0x2248 JUMP JUMPDEST JUMPDEST PUSH1 0x0 DUP4 ADD CALLDATALOAD PUSH8 0xFFFFFFFFFFFFFFFF DUP2 GT ISZERO PUSH3 0x2544 JUMPI PUSH3 0x2543 PUSH3 0x224D JUMP JUMPDEST JUMPDEST PUSH3 0x2552 DUP6 DUP3 DUP7 ADD PUSH3 0x24D6 JUMP JUMPDEST SWAP3 POP POP PUSH1 0x20 DUP4 ADD CALLDATALOAD PUSH8 0xFFFFFFFFFFFFFFFF DUP2 GT ISZERO PUSH3 0x2576 JUMPI PUSH3 0x2575 PUSH3 0x224D JUMP JUMPDEST JUMPDEST PUSH3 0x2584 DUP6 DUP3 DUP7 ADD PUSH3 0x24D6 JUMP JUMPDEST SWAP2 POP POP SWAP3 POP SWAP3 SWAP1 POP JUMP JUMPDEST PUSH3 0x2599 DUP2 PUSH3 0x2003 JUMP JUMPDEST DUP3 MSTORE POP POP JUMP JUMPDEST PUSH1 0x0 JUMPDEST DUP4 DUP2 LT ISZERO PUSH3 0x25BF JUMPI DUP1 DUP3 ADD MLOAD DUP2 DUP5 ADD MSTORE PUSH1 0x20 DUP2 ADD SWAP1 POP PUSH3 0x25A2 JUMP JUMPDEST PUSH1 0x0 DUP5 DUP5 ADD MSTORE POP POP POP POP JUMP JUMPDEST PUSH1 0x0 PUSH3 0x25D8 DUP3 PUSH3 0x1EDD JUMP JUMPDEST PUSH3 0x25E4 DUP2 DUP6 PUSH3 0x1E5A JUMP JUMPDEST SWAP4 POP PUSH3 0x25F6 DUP2 DUP6 PUSH1 0x20 DUP7 ADD PUSH3 0x259F JUMP JUMPDEST PUSH3 0x2601 DUP2 PUSH3 0x23E0 JUMP JUMPDEST DUP5 ADD SWAP2 POP POP SWAP3 SWAP2 POP POP JUMP JUMPDEST PUSH32 0x4E487B7100000000000000000000000000000000000000000000000000000000 PUSH1 0x0 MSTORE PUSH1 0x21 PUSH1 0x4 MSTORE PUSH1 0x24 PUSH1 0x0 REVERT JUMPDEST PUSH1 0x4 DUP2 LT PUSH3 0x264F JUMPI PUSH3 0x264E PUSH3 0x260C JUMP JUMPDEST JUMPDEST POP JUMP JUMPDEST PUSH1 0x0 DUP2 SWAP1 POP PUSH3 0x2662 DUP3 PUSH3 0x263B JUMP JUMPDEST SWAP2 SWAP1 POP JUMP JUMPDEST PUSH1 0x0 PUSH3 0x2674 DUP3 PUSH3 0x2652 JUMP JUMPDEST SWAP1 POP SWAP2 SWAP1 POP JUMP JUMPDEST PUSH3 0x2686 DUP2 PUSH3 0x2667 JUMP JUMPDEST DUP3 MSTORE POP POP JUMP JUMPDEST PUSH1 0x0 PUSH2 0x100 DUP3 ADD SWAP1 POP PUSH3 0x26A4 PUSH1 0x0 DUP4 ADD DUP12 PUSH3 0x258E JUMP JUMPDEST DUP2 DUP2 SUB PUSH1 0x20 DUP4 ADD MSTORE PUSH3 0x26B8 DUP2 DUP11 PUSH3 0x25CB JUMP JUMPDEST SWAP1 POP DUP2 DUP2 SUB PUSH1 0x40 DUP4 ADD MSTORE PUSH3 0x26CE DUP2 DUP10 PUSH3 0x25CB JUMP JUMPDEST SWAP1 POP PUSH3 0x26DF PUSH1 0x60 DUP4 ADD DUP9 PUSH3 0x2376 JUMP JUMPDEST PUSH3 0x26EE PUSH1 0x80 DUP4 ADD DUP8 PUSH3 0x258E JUMP JUMPDEST PUSH3 0x26FD PUSH1 0xA0 DUP4 ADD DUP7 PUSH3 0x258E JUMP JUMPDEST PUSH3 0x270C PUSH1 0xC0 DUP4 ADD DUP6 PUSH3 0x258E JUMP JUMPDEST PUSH3 0x271B PUSH1 0xE0 DUP4 ADD DUP5 PUSH3 0x267B JUMP JUMPDEST SWAP10 SWAP9 POP POP POP POP POP POP POP POP POP JUMP JUMPDEST PUSH1 0x0 PUSH1 0x20 DUP3 ADD SWAP1 POP PUSH3 0x273F PUSH1 0x0 DUP4 ADD DUP5 PUSH3 0x258E JUMP JUMPDEST SWAP3 SWAP2 POP POP JUMP JUMPDEST PUSH32 0x756E6578697374696E6720636F6D70657469746F727300000000000000000000 PUSH1 0x0 DUP3 ADD MSTORE POP JUMP JUMPDEST PUSH1 0x0 PUSH3 0x277D PUSH1 0x16 DUP4 PUSH3 0x1E5A JUMP JUMPDEST SWAP2 POP PUSH3 0x278A DUP3 PUSH3 0x2745 JUMP JUMPDEST PUSH1 0x20 DUP3 ADD SWAP1 POP SWAP2 SWAP1 POP JUMP JUMPDEST PUSH1 0x0 PUSH1 0x20 DUP3 ADD SWAP1 POP DUP2 DUP2 SUB PUSH1 0x0 DUP4 ADD MSTORE PUSH3 0x27B0 DUP2 PUSH3 0x276E JUMP JUMPDEST SWAP1 POP SWAP2 SWAP1 POP JUMP JUMPDEST PUSH1 0x0 PUSH3 0x27C4 DUP3 PUSH3 0x2283 JUMP JUMPDEST SWAP1 POP SWAP2 SWAP1 POP JUMP JUMPDEST PUSH3 0x27D6 DUP2 PUSH3 0x27B7 JUMP JUMPDEST DUP2 EQ PUSH3 0x27E2 JUMPI PUSH1 0x0 DUP1 REVERT JUMPDEST POP JUMP JUMPDEST PUSH1 0x0 DUP2 MLOAD SWAP1 POP PUSH3 0x27F6 DUP2 PUSH3 0x27CB JUMP JUMPDEST SWAP3 SWAP2 POP POP JUMP JUMPDEST PUSH1 0x0 DUP2 ISZERO ISZERO SWAP1 POP SWAP2 SWAP1 POP JUMP JUMPDEST PUSH3 0x2813 DUP2 PUSH3 0x27FC JUMP JUMPDEST DUP2 EQ PUSH3 0x281F JUMPI PUSH1 0x0 DUP1 REVERT JUMPDEST POP JUMP JUMPDEST PUSH1 0x0 DUP2 MLOAD SWAP1 POP PUSH3 0x2833 DUP2 PUSH3 0x2808 JUMP JUMPDEST SWAP3 SWAP2 POP POP JUMP JUMPDEST PUSH1 0x0 DUP2 MLOAD SWAP1 POP PUSH3 0x284A DUP2 PUSH3 0x2252 JUMP JUMPDEST SWAP3 SWAP2 POP POP JUMP JUMPDEST PUSH1 0x0 DUP1 PUSH1 0x0 PUSH1 0x60 DUP5 DUP7 SUB SLT ISZERO PUSH3 0x286C JUMPI PUSH3 0x286B PUSH3 0x2248 JUMP JUMPDEST JUMPDEST PUSH1 0x0 PUSH3 0x287C DUP7 DUP3 DUP8 ADD PUSH3 0x27E5 JUMP JUMPDEST SWAP4 POP POP PUSH1 0x20 PUSH3 0x288F DUP7 DUP3 DUP8 ADD PUSH3 0x2822 JUMP JUMPDEST SWAP3 POP POP PUSH1 0x40 PUSH3 0x28A2 DUP7 DUP3 DUP8 ADD PUSH3 0x2839 JUMP JUMPDEST SWAP2 POP POP SWAP3 POP SWAP3 POP SWAP3 JUMP JUMPDEST PUSH32 0x4E487B7100000000000000000000000000000000000000000000000000000000 PUSH1 0x0 MSTORE PUSH1 0x11 PUSH1 0x4 MSTORE PUSH1 0x24 PUSH1 0x0 REVERT JUMPDEST PUSH1 0x0 PUSH3 0x28E8 DUP3 PUSH3 0x2003 JUMP JUMPDEST SWAP2 POP PUSH32 0xFFFFFFFFFFFFFFFFFFFFFFFFFFFFFFFFFFFFFFFFFFFFFFFFFFFFFFFFFFFFFFFF DUP3 SUB PUSH3 0x291D JUMPI PUSH3 0x291C PUSH3 0x28AC JUMP JUMPDEST JUMPDEST PUSH1 0x1 DUP3 ADD SWAP1 POP SWAP2 SWAP1 POP JUMP JUMPDEST PUSH1 0x0 PUSH1 0x20 DUP3 DUP5 SUB SLT ISZERO PUSH3 0x2941 JUMPI PUSH3 0x2940 PUSH3 0x2248 JUMP JUMPDEST JUMPDEST PUSH1 0x0 PUSH3 0x2951 DUP5 DUP3 DUP6 ADD PUSH3 0x2839 JUMP JUMPDEST SWAP2 POP POP SWAP3 SWAP2 POP POP JUMP JUMPDEST PUSH32 0x4E487B7100000000000000000000000000000000000000000000000000000000 PUSH1 0x0 MSTORE PUSH1 0x32 PUSH1 0x4 MSTORE PUSH1 0x24 PUSH1 0x0 REVERT JUMPDEST PUSH1 0x0 PUSH3 0x2996 DUP3 PUSH3 0x2003 JUMP JUMPDEST SWAP2 POP PUSH3 0x29A3 DUP4 PUSH3 0x2003 JUMP JUMPDEST SWAP3 POP DUP3 DUP3 MUL PUSH3 0x29B3 DUP2 PUSH3 0x2003 JUMP JUMPDEST SWAP2 POP DUP3 DUP3 DIV DUP5 EQ DUP4 ISZERO OR PUSH3 0x29CD JUMPI PUSH3 0x29CC PUSH3 0x28AC JUMP JUMPDEST JUMPDEST POP SWAP3 SWAP2 POP POP JUMP JUMPDEST PUSH32 0x4E487B7100000000000000000000000000000000000000000000000000000000 PUSH1 0x0 MSTORE PUSH1 0x12 PUSH1 0x4 MSTORE PUSH1 0x24 PUSH1 0x0 REVERT JUMPDEST PUSH1 0x0 PUSH3 0x2A10 DUP3 PUSH3 0x2003 JUMP JUMPDEST SWAP2 POP PUSH3 0x2A1D DUP4 PUSH3 0x2003 JUMP JUMPDEST SWAP3 POP DUP3 PUSH3 0x2A30 JUMPI PUSH3 0x2A2F PUSH3 0x29D4 JUMP JUMPDEST JUMPDEST DUP3 DUP3 DIV SWAP1 POP SWAP3 SWAP2 POP POP JUMP JUMPDEST PUSH32 0x6E6F7420656E6F7567682076616C696461746F72000000000000000000000000 PUSH1 0x0 DUP3 ADD MSTORE POP JUMP JUMPDEST PUSH1 0x0 PUSH3 0x2A73 PUSH1 0x14 DUP4 PUSH3 0x1E5A JUMP JUMPDEST SWAP2 POP PUSH3 0x2A80 DUP3 PUSH3 0x2A3B JUMP JUMPDEST PUSH1 0x20 DUP3 ADD SWAP1 POP SWAP2 SWAP1 POP JUMP JUMPDEST PUSH1 0x0 PUSH1 0x20 DUP3 ADD SWAP1 POP DUP2 DUP2 SUB PUSH1 0x0 DUP4 ADD MSTORE PUSH3 0x2AA6 DUP2 PUSH3 0x2A64 JUMP JUMPDEST SWAP1 POP SWAP2 SWAP1 POP JUMP JUMPDEST PUSH1 0x0 PUSH1 0x80 DUP3 ADD SWAP1 POP DUP2 DUP2 SUB PUSH1 0x0 DUP4 ADD MSTORE PUSH3 0x2AC9 DUP2 DUP8 PUSH3 0x25CB JUMP JUMPDEST SWAP1 POP DUP2 DUP2 SUB PUSH1 0x20 DUP4 ADD MSTORE PUSH3 0x2ADF DUP2 DUP7 PUSH3 0x25CB JUMP JUMPDEST SWAP1 POP PUSH3 0x2AF0 PUSH1 0x40 DUP4 ADD DUP6 PUSH3 0x2376 JUMP JUMPDEST PUSH3 0x2AFF PUSH1 0x60 DUP4 ADD DUP5 PUSH3 0x2376 JUMP JUMPDEST SWAP6 SWAP5 POP POP POP POP POP JUMP JUMPDEST PUSH1 0x0 PUSH1 0x60 DUP3 ADD SWAP1 POP PUSH3 0x2B1F PUSH1 0x0 DUP4 ADD DUP7 PUSH3 0x2376 JUMP JUMPDEST DUP2 DUP2 SUB PUSH1 0x20 DUP4 ADD MSTORE PUSH3 0x2B33 DUP2 DUP6 PUSH3 0x25CB JUMP JUMPDEST SWAP1 POP DUP2 DUP2 SUB PUSH1 0x40 DUP4 ADD MSTORE PUSH3 0x2B49 DUP2 DUP5 PUSH3 0x25CB JUMP JUMPDEST SWAP1 POP SWAP5 SWAP4 POP POP POP POP JUMP JUMPDEST PUSH1 0x0 PUSH1 0x40 DUP3 ADD SWAP1 POP PUSH3 0x2B6A PUSH1 0x0 DUP4 ADD DUP6 PUSH3 0x258E JUMP JUMPDEST PUSH3 0x2B79 PUSH1 0x20 DUP4 ADD DUP5 PUSH3 0x258E JUMP JUMPDEST SWAP4 SWAP3 POP POP POP JUMP JUMPDEST PUSH1 0x0 PUSH1 0x40 DUP3 ADD SWAP1 POP PUSH3 0x2B97 PUSH1 0x0 DUP4 ADD DUP6 PUSH3 0x2376 JUMP JUMPDEST PUSH3 0x2BA6 PUSH1 0x20 DUP4 ADD DUP5 PUSH3 0x258E JUMP JUMPDEST SWAP4 SWAP3 POP POP POP JUMP INVALID PUSH1 0x80 PUSH1 0x40 MSTORE PUSH1 0x40 MLOAD PUSH3 0x2364 CODESIZE SUB DUP1 PUSH3 0x2364 DUP4 CODECOPY DUP2 DUP2 ADD PUSH1 0x40 MSTORE DUP2 ADD SWAP1 PUSH3 0x29 SWAP2 SWAP1 PUSH3 0x37C JUMP JUMPDEST DUP2 PUSH1 0x2 PUSH1 0x0 PUSH2 0x100 EXP DUP2 SLOAD DUP2 PUSH20 0xFFFFFFFFFFFFFFFFFFFFFFFFFFFFFFFFFFFFFFFF MUL NOT AND SWAP1 DUP4 PUSH20 0xFFFFFFFFFFFFFFFFFFFFFFFFFFFFFFFFFFFFFFFF AND MUL OR SWAP1 SSTORE POP DUP1 PUSH1 0x3 PUSH1 0x0 PUSH2 0x100 EXP DUP2 SLOAD DUP2 PUSH20 0xFFFFFFFFFFFFFFFFFFFFFFFFFFFFFFFFFFFFFFFF MUL NOT AND SWAP1 DUP4 PUSH20 0xFFFFFFFFFFFFFFFFFFFFFFFFFFFFFFFFFFFFFFFF AND MUL OR SWAP1 SSTORE POP DUP4 PUSH1 0x9 PUSH1 0x0 DUP1 DUP2 MSTORE PUSH1 0x20 ADD SWAP1 DUP2 MSTORE PUSH1 0x20 ADD PUSH1 0x0 KECCAK256 PUSH1 0x0 ADD SWAP1 DUP2 PUSH3 0xD0 SWAP2 SWAP1 PUSH3 0x677 JUMP JUMPDEST POP DUP3 PUSH1 0x9 PUSH1 0x0 PUSH1 0x1 DUP2 MSTORE PUSH1 0x20 ADD SWAP1 DUP2 MSTORE PUSH1 0x20 ADD PUSH1 0x0 KECCAK256 PUSH1 0x0 ADD SWAP1 DUP2 PUSH3 0xF7 SWAP2 SWAP1 PUSH3 0x677 JUMP JUMPDEST POP DUP2 PUSH1 0xB PUSH1 0x0 PUSH2 0x100 EXP DUP2 SLOAD DUP2 PUSH20 0xFFFFFFFFFFFFFFFFFFFFFFFFFFFFFFFFFFFFFFFF MUL NOT AND SWAP1 DUP4 PUSH20 0xFFFFFFFFFFFFFFFFFFFFFFFFFFFFFFFFFFFFFFFF AND MUL OR SWAP1 SSTORE POP DUP1 PUSH1 0xC PUSH1 0x0 PUSH2 0x100 EXP DUP2 SLOAD DUP2 PUSH20 0xFFFFFFFFFFFFFFFFFFFFFFFFFFFFFFFFFFFFFFFF MUL NOT AND SWAP1 DUP4 PUSH20 0xFFFFFFFFFFFFFFFFFFFFFFFFFFFFFFFFFFFFFFFF AND MUL OR SWAP1 SSTORE POP POP POP POP POP PUSH3 0x75E JUMP JUMPDEST PUSH1 0x0 PUSH1 0x40 MLOAD SWAP1 POP SWAP1 JUMP JUMPDEST PUSH1 0x0 DUP1 REVERT JUMPDEST PUSH1 0x0 DUP1 REVERT JUMPDEST PUSH1 0x0 DUP1 REVERT JUMPDEST PUSH1 0x0 DUP1 REVERT JUMPDEST PUSH1 0x0 PUSH1 0x1F NOT PUSH1 0x1F DUP4 ADD AND SWAP1 POP SWAP2 SWAP1 POP JUMP JUMPDEST PUSH32 0x4E487B7100000000000000000000000000000000000000000000000000000000 PUSH1 0x0 MSTORE PUSH1 0x41 PUSH1 0x4 MSTORE PUSH1 0x24 PUSH1 0x0 REVERT JUMPDEST PUSH3 0x1ED DUP3 PUSH3 0x1A2 JUMP JUMPDEST DUP2 ADD DUP2 DUP2 LT PUSH8 0xFFFFFFFFFFFFFFFF DUP3 GT OR ISZERO PUSH3 0x20F JUMPI PUSH3 0x20E PUSH3 0x1B3 JUMP JUMPDEST JUMPDEST DUP1 PUSH1 0x40 MSTORE POP POP POP JUMP JUMPDEST PUSH1 0x0 PUSH3 0x224 PUSH3 0x184 JUMP JUMPDEST SWAP1 POP PUSH3 0x232 DUP3 DUP3 PUSH3 0x1E2 JUMP JUMPDEST SWAP2 SWAP1 POP JUMP JUMPDEST PUSH1 0x0 PUSH8 0xFFFFFFFFFFFFFFFF DUP3 GT ISZERO PUSH3 0x255 JUMPI PUSH3 0x254 PUSH3 0x1B3 JUMP JUMPDEST JUMPDEST PUSH3 0x260 DUP3 PUSH3 0x1A2 JUMP JUMPDEST SWAP1 POP PUSH1 0x20 DUP2 ADD SWAP1 POP SWAP2 SWAP1 POP JUMP JUMPDEST PUSH1 0x0 JUMPDEST DUP4 DUP2 LT ISZERO PUSH3 0x28D JUMPI DUP1 DUP3 ADD MLOAD DUP2 DUP5 ADD MSTORE PUSH1 0x20 DUP2 ADD SWAP1 POP PUSH3 0x270 JUMP JUMPDEST PUSH1 0x0 DUP5 DUP5 ADD MSTORE POP POP POP POP JUMP JUMPDEST PUSH1 0x0 PUSH3 0x2B0 PUSH3 0x2AA DUP5 PUSH3 0x237 JUMP JUMPDEST PUSH3 0x218 JUMP JUMPDEST SWAP1 POP DUP3 DUP2 MSTORE PUSH1 0x20 DUP2 ADD DUP5 DUP5 DUP5 ADD GT ISZERO PUSH3 0x2CF JUMPI PUSH3 0x2CE PUSH3 0x19D JUMP JUMPDEST JUMPDEST PUSH3 0x2DC DUP5 DUP3 DUP6 PUSH3 0x26D JUMP JUMPDEST POP SWAP4 SWAP3 POP POP POP JUMP JUMPDEST PUSH1 0x0 DUP3 PUSH1 0x1F DUP4 ADD SLT PUSH3 0x2FC JUMPI PUSH3 0x2FB PUSH3 0x198 JUMP JUMPDEST JUMPDEST DUP2 MLOAD PUSH3 0x30E DUP5 DUP3 PUSH1 0x20 DUP7 ADD PUSH3 0x299 JUMP JUMPDEST SWAP2 POP POP SWAP3 SWAP2 POP POP JUMP JUMPDEST PUSH1 0x0 PUSH20 0xFFFFFFFFFFFFFFFFFFFFFFFFFFFFFFFFFFFFFFFF DUP3 AND SWAP1 POP SWAP2 SWAP1 POP JUMP JUMPDEST PUSH1 0x0 PUSH3 0x344 DUP3 PUSH3 0x317 JUMP JUMPDEST SWAP1 POP SWAP2 SWAP1 POP JUMP JUMPDEST PUSH3 0x356 DUP2 PUSH3 0x337 JUMP JUMPDEST DUP2 EQ PUSH3 0x362 JUMPI PUSH1 0x0 DUP1 REVERT JUMPDEST POP JUMP JUMPDEST PUSH1 0x0 DUP2 MLOAD SWAP1 POP PUSH3 0x376 DUP2 PUSH3 0x34B JUMP JUMPDEST SWAP3 SWAP2 POP POP JUMP JUMPDEST PUSH1 0x0 DUP1 PUSH1 0x0 DUP1 PUSH1 0x80 DUP6 DUP8 SUB SLT ISZERO PUSH3 0x399 JUMPI PUSH3 0x398 PUSH3 0x18E JUMP JUMPDEST JUMPDEST PUSH1 0x0 DUP6 ADD MLOAD PUSH8 0xFFFFFFFFFFFFFFFF DUP2 GT ISZERO PUSH3 0x3BA JUMPI PUSH3 0x3B9 PUSH3 0x193 JUMP JUMPDEST JUMPDEST PUSH3 0x3C8 DUP8 DUP3 DUP9 ADD PUSH3 0x2E4 JUMP JUMPDEST SWAP5 POP POP PUSH1 0x20 DUP6 ADD MLOAD PUSH8 0xFFFFFFFFFFFFFFFF DUP2 GT ISZERO PUSH3 0x3EC JUMPI PUSH3 0x3EB PUSH3 0x193 JUMP JUMPDEST JUMPDEST PUSH3 0x3FA DUP8 DUP3 DUP9 ADD PUSH3 0x2E4 JUMP JUMPDEST SWAP4 POP POP PUSH1 0x40 PUSH3 0x40D DUP8 DUP3 DUP9 ADD PUSH3 0x365 JUMP JUMPDEST SWAP3 POP POP PUSH1 0x60 PUSH3 0x420 DUP8 DUP3 DUP9 ADD PUSH3 0x365 JUMP JUMPDEST SWAP2 POP POP SWAP3 SWAP6 SWAP2 SWAP5 POP SWAP3 POP JUMP JUMPDEST PUSH1 0x0 DUP2 MLOAD SWAP1 POP SWAP2 SWAP1 POP JUMP JUMPDEST PUSH32 0x4E487B7100000000000000000000000000000000000000000000000000000000 PUSH1 0x0 MSTORE PUSH1 0x22 PUSH1 0x4 MSTORE PUSH1 0x24 PUSH1 0x0 REVERT JUMPDEST PUSH1 0x0 PUSH1 0x2 DUP3 DIV SWAP1 POP PUSH1 0x1 DUP3 AND DUP1 PUSH3 0x47F JUMPI PUSH1 0x7F DUP3 AND SWAP2 POP JUMPDEST PUSH1 0x20 DUP3 LT DUP2 SUB PUSH3 0x495 JUMPI PUSH3 0x494 PUSH3 0x437 JUMP JUMPDEST JUMPDEST POP SWAP2 SWAP1 POP JUMP JUMPDEST PUSH1 0x0 DUP2 SWAP1 POP DUP2 PUSH1 0x0 MSTORE PUSH1 0x20 PUSH1 0x0 KECCAK256 SWAP1 POP SWAP2 SWAP1 POP JUMP JUMPDEST PUSH1 0x0 PUSH1 0x20 PUSH1 0x1F DUP4 ADD DIV SWAP1 POP SWAP2 SWAP1 POP JUMP JUMPDEST PUSH1 0x0 DUP3 DUP3 SHL SWAP1 POP SWAP3 SWAP2 POP POP JUMP JUMPDEST PUSH1 0x0 PUSH1 0x8 DUP4 MUL PUSH3 0x4FF PUSH32 0xFFFFFFFFFFFFFFFFFFFFFFFFFFFFFFFFFFFFFFFFFFFFFFFFFFFFFFFFFFFFFFFF DUP3 PUSH3 0x4C0 JUMP JUMPDEST PUSH3 0x50B DUP7 DUP4 PUSH3 0x4C0 JUMP JUMPDEST SWAP6 POP DUP1 NOT DUP5 AND SWAP4 POP DUP1 DUP7 AND DUP5 OR SWAP3 POP POP POP SWAP4 SWAP3 POP POP POP JUMP JUMPDEST PUSH1 0x0 DUP2 SWAP1 POP SWAP2 SWAP1 POP JUMP JUMPDEST PUSH1 0x0 DUP2 SWAP1 POP SWAP2 SWAP1 POP JUMP JUMPDEST PUSH1 0x0 PUSH3 0x558 PUSH3 0x552 PUSH3 0x54C DUP5 PUSH3 0x523 JUMP JUMPDEST PUSH3 0x52D JUMP JUMPDEST PUSH3 0x523 JUMP JUMPDEST SWAP1 POP SWAP2 SWAP1 POP JUMP JUMPDEST PUSH1 0x0 DUP2 SWAP1 POP SWAP2 SWAP1 POP JUMP JUMPDEST PUSH3 0x574 DUP4 PUSH3 0x537 JUMP JUMPDEST PUSH3 0x58C PUSH3 0x583 DUP3 PUSH3 0x55F JUMP JUMPDEST DUP5 DUP5 SLOAD PUSH3 0x4CD JUMP JUMPDEST DUP3 SSTORE POP POP POP POP JUMP JUMPDEST PUSH1 0x0 SWAP1 JUMP JUMPDEST PUSH3 0x5A3 PUSH3 0x594 JUMP JUMPDEST PUSH3 0x5B0 DUP2 DUP5 DUP5 PUSH3 0x569 JUMP JUMPDEST POP POP POP JUMP JUMPDEST JUMPDEST DUP2 DUP2 LT ISZERO PUSH3 0x5D8 JUMPI PUSH3 0x5CC PUSH1 0x0 DUP3 PUSH3 0x599 JUMP JUMPDEST PUSH1 0x1 DUP2 ADD SWAP1 POP PUSH3 0x5B6 JUMP JUMPDEST POP POP JUMP JUMPDEST PUSH1 0x1F DUP3 GT ISZERO PUSH3 0x627 JUMPI PUSH3 0x5F1 DUP2 PUSH3 0x49B JUMP JUMPDEST PUSH3 0x5FC DUP5 PUSH3 0x4B0 JUMP JUMPDEST DUP2 ADD PUSH1 0x20 DUP6 LT ISZERO PUSH3 0x60C JUMPI DUP2 SWAP1 POP JUMPDEST PUSH3 0x624 PUSH3 0x61B DUP6 PUSH3 0x4B0 JUMP JUMPDEST DUP4 ADD DUP3 PUSH3 0x5B5 JUMP JUMPDEST POP POP JUMPDEST POP POP POP JUMP JUMPDEST PUSH1 0x0 DUP3 DUP3 SHR SWAP1 POP SWAP3 SWAP2 POP POP JUMP JUMPDEST PUSH1 0x0 PUSH3 0x64C PUSH1 0x0 NOT DUP5 PUSH1 0x8 MUL PUSH3 0x62C JUMP JUMPDEST NOT DUP1 DUP4 AND SWAP2 POP POP SWAP3 SWAP2 POP POP JUMP JUMPDEST PUSH1 0x0 PUSH3 0x667 DUP4 DUP4 PUSH3 0x639 JUMP JUMPDEST SWAP2 POP DUP3 PUSH1 0x2 MUL DUP3 OR SWAP1 POP SWAP3 SWAP2 POP POP JUMP JUMPDEST PUSH3 0x682 DUP3 PUSH3 0x42C JUMP JUMPDEST PUSH8 0xFFFFFFFFFFFFFFFF DUP2 GT ISZERO PUSH3 0x69E JUMPI PUSH3 0x69D PUSH3 0x1B3 JUMP JUMPDEST JUMPDEST PUSH3 0x6AA DUP3 SLOAD PUSH3 0x466 JUMP JUMPDEST PUSH3 0x6B7 DUP3 DUP3 DUP6 PUSH3 0x5DC JUMP JUMPDEST PUSH1 0x0 PUSH1 0x20 SWAP1 POP PUSH1 0x1F DUP4 GT PUSH1 0x1 DUP2 EQ PUSH3 0x6EF JUMPI PUSH1 0x0 DUP5 ISZERO PUSH3 0x6DA JUMPI DUP3 DUP8 ADD MLOAD SWAP1 POP JUMPDEST PUSH3 0x6E6 DUP6 DUP3 PUSH3 0x659 JUMP JUMPDEST DUP7 SSTORE POP PUSH3 0x756 JUMP JUMPDEST PUSH1 0x1F NOT DUP5 AND PUSH3 0x6FF DUP7 PUSH3 0x49B JUMP JUMPDEST PUSH1 0x0 JUMPDEST DUP3 DUP2 LT ISZERO PUSH3 0x729 JUMPI DUP5 DUP10 ADD MLOAD DUP3 SSTORE PUSH1 0x1 DUP3 ADD SWAP2 POP PUSH1 0x20 DUP6 ADD SWAP5 POP PUSH1 0x20 DUP2 ADD SWAP1 POP PUSH3 0x702 JUMP JUMPDEST DUP7 DUP4 LT ISZERO PUSH3 0x749 JUMPI DUP5 DUP10 ADD MLOAD PUSH3 0x745 PUSH1 0x1F DUP10 AND DUP3 PUSH3 0x639 JUMP JUMPDEST DUP4 SSTORE POP JUMPDEST PUSH1 0x1 PUSH1 0x2 DUP9 MUL ADD DUP9 SSTORE POP POP POP JUMPDEST POP POP POP POP POP POP JUMP JUMPDEST PUSH2 0x1BF6 DUP1 PUSH3 0x76E PUSH1 0x0 CODECOPY PUSH1 0x0 RETURN INVALID PUSH1 0x80 PUSH1 0x40 MSTORE PUSH1 0x4 CALLDATASIZE LT PUSH2 0xE1 JUMPI PUSH1 0x0 CALLDATALOAD PUSH1 0xE0 SHR DUP1 PUSH4 0xAD05D9C3 GT PUSH2 0x7F JUMPI DUP1 PUSH4 0xD93E03B0 GT PUSH2 0x59 JUMPI DUP1 PUSH4 0xD93E03B0 EQ PUSH2 0x350 JUMPI DUP1 PUSH4 0xE8399CC6 EQ PUSH2 0x37B JUMPI DUP1 PUSH4 0xEBFB6652 EQ PUSH2 0x397 JUMPI DUP1 PUSH4 0xFE5E1853 EQ PUSH2 0x3D4 JUMPI PUSH2 0x16B JUMP JUMPDEST DUP1 PUSH4 0xAD05D9C3 EQ PUSH2 0x2F2 JUMPI DUP1 PUSH4 0xC6073C66 EQ PUSH2 0x2FC JUMPI DUP1 PUSH4 0xCF959429 EQ PUSH2 0x327 JUMPI PUSH2 0x16B JUMP JUMPDEST DUP1 PUSH4 0x9D86801F GT PUSH2 0xBB JUMPI DUP1 PUSH4 0x9D86801F EQ PUSH2 0x245 JUMPI DUP1 PUSH4 0xA14DE028 EQ PUSH2 0x285 JUMPI DUP1 PUSH4 0xA32B3487 EQ PUSH2 0x2B0 JUMPI DUP1 PUSH4 0xA99073AE EQ PUSH2 0x2DB JUMPI PUSH2 0x16B JUMP JUMPDEST DUP1 PUSH4 0x1DF79B65 EQ PUSH2 0x1B1 JUMPI DUP1 PUSH4 0x22010C1F EQ PUSH2 0x1DA JUMPI DUP1 PUSH4 0x6F9FB98A EQ PUSH2 0x21A JUMPI PUSH2 0x16B JUMP JUMPDEST CALLDATASIZE PUSH2 0x16B JUMPI PUSH5 0xB68A0AA00 CALLVALUE GT PUSH2 0x124 JUMPI PUSH1 0x40 MLOAD PUSH32 0x78E9F1BA00000000000000000000000000000000000000000000000000000000 DUP2 MSTORE PUSH1 0x4 ADD PUSH1 0x40 MLOAD DUP1 SWAP2 SUB SWAP1 REVERT JUMPDEST PUSH2 0xC350 CALLVALUE LT ISZERO PUSH2 0x169 JUMPI PUSH1 0x40 MLOAD PUSH32 0x8C379A000000000000000000000000000000000000000000000000000000000 DUP2 MSTORE PUSH1 0x4 ADD PUSH2 0x160 SWAP1 PUSH2 0x11AA JUMP JUMPDEST PUSH1 0x40 MLOAD DUP1 SWAP2 SUB SWAP1 REVERT JUMPDEST STOP JUMPDEST PUSH1 0x40 MLOAD DUP1 PUSH1 0x40 ADD PUSH1 0x40 MSTORE DUP1 PUSH1 0x1E DUP2 MSTORE PUSH1 0x20 ADD PUSH32 0x46616C6C6261636B2066756E6374696F6E206973206578656375746564210000 DUP2 MSTORE POP PUSH1 0x0 SWAP1 DUP2 PUSH2 0x1AF SWAP2 SWAP1 PUSH2 0x141A JUMP JUMPDEST STOP JUMPDEST CALLVALUE DUP1 ISZERO PUSH2 0x1BD JUMPI PUSH1 0x0 DUP1 REVERT JUMPDEST POP PUSH2 0x1D8 PUSH1 0x4 DUP1 CALLDATASIZE SUB DUP2 ADD SWAP1 PUSH2 0x1D3 SWAP2 SWAP1 PUSH2 0x151D JUMP JUMPDEST PUSH2 0x3FF JUMP JUMPDEST STOP JUMPDEST CALLVALUE DUP1 ISZERO PUSH2 0x1E6 JUMPI PUSH1 0x0 DUP1 REVERT JUMPDEST POP PUSH2 0x201 PUSH1 0x4 DUP1 CALLDATASIZE SUB DUP2 ADD SWAP1 PUSH2 0x1FC SWAP2 SWAP1 PUSH2 0x15BB JUMP JUMPDEST PUSH2 0x59B JUMP JUMPDEST PUSH1 0x40 MLOAD PUSH2 0x211 SWAP5 SWAP4 SWAP3 SWAP2 SWAP1 PUSH2 0x1618 JUMP JUMPDEST PUSH1 0x40 MLOAD DUP1 SWAP2 SUB SWAP1 RETURN JUMPDEST CALLVALUE DUP1 ISZERO PUSH2 0x226 JUMPI PUSH1 0x0 DUP1 REVERT JUMPDEST POP PUSH2 0x22F PUSH2 0x5EB JUMP JUMPDEST PUSH1 0x40 MLOAD PUSH2 0x23C SWAP2 SWAP1 PUSH2 0x165D JUMP JUMPDEST PUSH1 0x40 MLOAD DUP1 SWAP2 SUB SWAP1 RETURN JUMPDEST CALLVALUE DUP1 ISZERO PUSH2 0x251 JUMPI PUSH1 0x0 DUP1 REVERT JUMPDEST POP PUSH2 0x26C PUSH1 0x4 DUP1 CALLDATASIZE SUB DUP2 ADD SWAP1 PUSH2 0x267 SWAP2 SWAP1 PUSH2 0x1678 JUMP JUMPDEST PUSH2 0x5F3 JUMP JUMPDEST PUSH1 0x40 MLOAD PUSH2 0x27C SWAP5 SWAP4 SWAP3 SWAP2 SWAP1 PUSH2 0x1719 JUMP JUMPDEST PUSH1 0x40 MLOAD DUP1 SWAP2 SUB SWAP1 RETURN JUMPDEST CALLVALUE DUP1 ISZERO PUSH2 0x291 JUMPI PUSH1 0x0 DUP1 REVERT JUMPDEST POP PUSH2 0x29A PUSH2 0x6AB JUMP JUMPDEST PUSH1 0x40 MLOAD PUSH2 0x2A7 SWAP2 SWAP1 PUSH2 0x165D JUMP JUMPDEST PUSH1 0x40 MLOAD DUP1 SWAP2 SUB SWAP1 RETURN JUMPDEST CALLVALUE DUP1 ISZERO PUSH2 0x2BC JUMPI PUSH1 0x0 DUP1 REVERT JUMPDEST POP PUSH2 0x2C5 PUSH2 0x6B1 JUMP JUMPDEST PUSH1 0x40 MLOAD PUSH2 0x2D2 SWAP2 SWAP1 PUSH2 0x165D JUMP JUMPDEST PUSH1 0x40 MLOAD DUP1 SWAP2 SUB SWAP1 RETURN JUMPDEST CALLVALUE DUP1 ISZERO PUSH2 0x2E7 JUMPI PUSH1 0x0 DUP1 REVERT JUMPDEST POP PUSH2 0x2F0 PUSH2 0x6B7 JUMP JUMPDEST STOP JUMPDEST PUSH2 0x2FA PUSH2 0x763 JUMP JUMPDEST STOP JUMPDEST CALLVALUE DUP1 ISZERO PUSH2 0x308 JUMPI PUSH1 0x0 DUP1 REVERT JUMPDEST POP PUSH2 0x311 PUSH2 0x96E JUMP JUMPDEST PUSH1 0x40 MLOAD PUSH2 0x31E SWAP2 SWAP1 PUSH2 0x1774 JUMP JUMPDEST PUSH1 0x40 MLOAD DUP1 SWAP2 SUB SWAP1 RETURN JUMPDEST CALLVALUE DUP1 ISZERO PUSH2 0x333 JUMPI PUSH1 0x0 DUP1 REVERT JUMPDEST POP PUSH2 0x34E PUSH1 0x4 DUP1 CALLDATASIZE SUB DUP2 ADD SWAP1 PUSH2 0x349 SWAP2 SWAP1 PUSH2 0x178F JUMP JUMPDEST PUSH2 0x994 JUMP JUMPDEST STOP JUMPDEST CALLVALUE DUP1 ISZERO PUSH2 0x35C JUMPI PUSH1 0x0 DUP1 REVERT JUMPDEST POP PUSH2 0x365 PUSH2 0xA63 JUMP JUMPDEST PUSH1 0x40 MLOAD PUSH2 0x372 SWAP2 SWAP1 PUSH2 0x1774 JUMP JUMPDEST PUSH1 0x40 MLOAD DUP1 SWAP2 SUB SWAP1 RETURN JUMPDEST PUSH2 0x395 PUSH1 0x4 DUP1 CALLDATASIZE SUB DUP2 ADD SWAP1 PUSH2 0x390 SWAP2 SWAP1 PUSH2 0x1678 JUMP JUMPDEST PUSH2 0xA89 JUMP JUMPDEST STOP JUMPDEST CALLVALUE DUP1 ISZERO PUSH2 0x3A3 JUMPI PUSH1 0x0 DUP1 REVERT JUMPDEST POP PUSH2 0x3BE PUSH1 0x4 DUP1 CALLDATASIZE SUB DUP2 ADD SWAP1 PUSH2 0x3B9 SWAP2 SWAP1 PUSH2 0x1678 JUMP JUMPDEST PUSH2 0xD96 JUMP JUMPDEST PUSH1 0x40 MLOAD PUSH2 0x3CB SWAP2 SWAP1 PUSH2 0x165D JUMP JUMPDEST PUSH1 0x40 MLOAD DUP1 SWAP2 SUB SWAP1 RETURN JUMPDEST CALLVALUE DUP1 ISZERO PUSH2 0x3E0 JUMPI PUSH1 0x0 DUP1 REVERT JUMPDEST POP PUSH2 0x3E9 PUSH2 0xE6B JUMP JUMPDEST PUSH1 0x40 MLOAD PUSH2 0x3F6 SWAP2 SWAP1 PUSH2 0x165D JUMP JUMPDEST PUSH1 0x40 MLOAD DUP1 SWAP2 SUB SWAP1 RETURN JUMPDEST PUSH1 0x0 SELFBALANCE GT PUSH2 0x439 JUMPI PUSH1 0x40 MLOAD PUSH32 0x47108E3E00000000000000000000000000000000000000000000000000000000 DUP2 MSTORE PUSH1 0x4 ADD PUSH1 0x40 MLOAD DUP1 SWAP2 SUB SWAP1 REVERT JUMPDEST PUSH1 0xB PUSH1 0x0 SWAP1 SLOAD SWAP1 PUSH2 0x100 EXP SWAP1 DIV PUSH20 0xFFFFFFFFFFFFFFFFFFFFFFFFFFFFFFFFFFFFFFFF AND PUSH20 0xFFFFFFFFFFFFFFFFFFFFFFFFFFFFFFFFFFFFFFFF AND CALLER PUSH20 0xFFFFFFFFFFFFFFFFFFFFFFFFFFFFFFFFFFFFFFFF AND EQ PUSH2 0x4C0 JUMPI PUSH1 0x40 MLOAD PUSH32 0x8679B0C000000000000000000000000000000000000000000000000000000000 DUP2 MSTORE PUSH1 0x4 ADD PUSH1 0x40 MLOAD DUP1 SWAP2 SUB SWAP1 REVERT JUMPDEST PUSH1 0xC PUSH1 0x14 SWAP1 SLOAD SWAP1 PUSH2 0x100 EXP SWAP1 DIV PUSH1 0xFF AND ISZERO PUSH2 0x510 JUMPI PUSH1 0x40 MLOAD PUSH32 0x8C379A000000000000000000000000000000000000000000000000000000000 DUP2 MSTORE PUSH1 0x4 ADD PUSH2 0x507 SWAP1 PUSH2 0x181B JUMP JUMPDEST PUSH1 0x40 MLOAD DUP1 SWAP2 SUB SWAP1 REVERT JUMPDEST PUSH1 0x0 PUSH2 0x51A PUSH2 0x5EB JUMP JUMPDEST SWAP1 POP PUSH1 0x0 DUP4 DUP3 PUSH2 0x52A SWAP2 SWAP1 PUSH2 0x1899 JUMP JUMPDEST SWAP1 POP PUSH1 0x0 DUP4 DUP4 PUSH2 0x53A SWAP2 SWAP1 PUSH2 0x1899 JUMP JUMPDEST SWAP1 POP PUSH2 0x568 PUSH1 0xC PUSH1 0x0 SWAP1 SLOAD SWAP1 PUSH2 0x100 EXP SWAP1 DIV PUSH20 0xFFFFFFFFFFFFFFFFFFFFFFFFFFFFFFFFFFFFFFFF AND DUP4 PUSH2 0xE71 JUMP JUMPDEST PUSH2 0x594 PUSH1 0xC PUSH1 0x0 SWAP1 SLOAD SWAP1 PUSH2 0x100 EXP SWAP1 DIV PUSH20 0xFFFFFFFFFFFFFFFFFFFFFFFFFFFFFFFFFFFFFFFF AND DUP3 PUSH2 0xE71 JUMP JUMPDEST POP POP POP POP POP JUMP JUMPDEST PUSH1 0xA PUSH1 0x20 MSTORE DUP1 PUSH1 0x0 MSTORE PUSH1 0x40 PUSH1 0x0 KECCAK256 PUSH1 0x0 SWAP2 POP SWAP1 POP DUP1 PUSH1 0x0 ADD PUSH1 0x0 SWAP1 SLOAD SWAP1 PUSH2 0x100 EXP SWAP1 DIV PUSH20 0xFFFFFFFFFFFFFFFFFFFFFFFFFFFFFFFFFFFFFFFF AND SWAP1 DUP1 PUSH1 0x1 ADD SLOAD SWAP1 DUP1 PUSH1 0x2 ADD SLOAD SWAP1 DUP1 PUSH1 0x3 ADD SLOAD SWAP1 POP DUP5 JUMP JUMPDEST PUSH1 0x0 SELFBALANCE SWAP1 POP SWAP1 JUMP JUMPDEST PUSH1 0x9 PUSH1 0x20 MSTORE DUP1 PUSH1 0x0 MSTORE PUSH1 0x40 PUSH1 0x0 KECCAK256 PUSH1 0x0 SWAP2 POP SWAP1 POP DUP1 PUSH1 0x0 ADD DUP1 SLOAD PUSH2 0x616 SWAP1 PUSH2 0x1233 JUMP JUMPDEST DUP1 PUSH1 0x1F ADD PUSH1 0x20 DUP1 SWAP2 DIV MUL PUSH1 0x20 ADD PUSH1 0x40 MLOAD SWAP1 DUP2 ADD PUSH1 0x40 MSTORE DUP1 SWAP3 SWAP2 SWAP1 DUP2 DUP2 MSTORE PUSH1 0x20 ADD DUP3 DUP1 SLOAD PUSH2 0x642 SWAP1 PUSH2 0x1233 JUMP JUMPDEST DUP1 ISZERO PUSH2 0x68F JUMPI DUP1 PUSH1 0x1F LT PUSH2 0x664 JUMPI PUSH2 0x100 DUP1 DUP4 SLOAD DIV MUL DUP4 MSTORE SWAP2 PUSH1 0x20 ADD SWAP2 PUSH2 0x68F JUMP JUMPDEST DUP3 ADD SWAP2 SWAP1 PUSH1 0x0 MSTORE PUSH1 0x20 PUSH1 0x0 KECCAK256 SWAP1 JUMPDEST DUP2 SLOAD DUP2 MSTORE SWAP1 PUSH1 0x1 ADD SWAP1 PUSH1 0x20 ADD DUP1 DUP4 GT PUSH2 0x672 JUMPI DUP3 SWAP1 SUB PUSH1 0x1F AND DUP3 ADD SWAP2 JUMPDEST POP POP POP POP POP SWAP1 DUP1 PUSH1 0x1 ADD SLOAD SWAP1 DUP1 PUSH1 0x2 ADD SLOAD SWAP1 DUP1 PUSH1 0x3 ADD SLOAD SWAP1 POP DUP5 JUMP JUMPDEST PUSH1 0x4 SLOAD DUP2 JUMP JUMPDEST PUSH1 0x5 SLOAD DUP2 JUMP JUMPDEST PUSH1 0xB PUSH1 0x0 SWAP1 SLOAD SWAP1 PUSH2 0x100 EXP SWAP1 DIV PUSH20 0xFFFFFFFFFFFFFFFFFFFFFFFFFFFFFFFFFFFFFFFF AND PUSH20 0xFFFFFFFFFFFFFFFFFFFFFFFFFFFFFFFFFFFFFFFF AND CALLER PUSH20 0xFFFFFFFFFFFFFFFFFFFFFFFFFFFFFFFFFFFFFFFF AND EQ PUSH2 0x73E JUMPI PUSH1 0x40 MLOAD PUSH32 0x8679B0C000000000000000000000000000000000000000000000000000000000 DUP2 MSTORE PUSH1 0x4 ADD PUSH1 0x40 MLOAD DUP1 SWAP2 SUB SWAP1 REVERT JUMPDEST PUSH1 0x1 PUSH1 0xC PUSH1 0x14 PUSH2 0x100 EXP DUP2 SLOAD DUP2 PUSH1 0xFF MUL NOT AND SWAP1 DUP4 ISZERO ISZERO MUL OR SWAP1 SSTORE POP PUSH2 0x761 PUSH2 0xF25 JUMP JUMPDEST JUMP JUMPDEST PUSH1 0xC PUSH1 0x14 SWAP1 SLOAD SWAP1 PUSH2 0x100 EXP SWAP1 DIV PUSH1 0xFF AND PUSH2 0x7A9 JUMPI PUSH1 0x40 MLOAD PUSH32 0x541F1F000000000000000000000000000000000000000000000000000000000 DUP2 MSTORE PUSH1 0x4 ADD PUSH1 0x40 MLOAD DUP1 SWAP2 SUB SWAP1 REVERT JUMPDEST PUSH1 0xC PUSH1 0x14 SWAP1 SLOAD SWAP1 PUSH2 0x100 EXP SWAP1 DIV PUSH1 0xFF AND PUSH2 0x7F8 JUMPI PUSH1 0x40 MLOAD PUSH32 0x8C379A000000000000000000000000000000000000000000000000000000000 DUP2 MSTORE PUSH1 0x4 ADD PUSH2 0x7EF SWAP1 PUSH2 0x1916 JUMP JUMPDEST PUSH1 0x40 MLOAD DUP1 SWAP2 SUB SWAP1 REVERT JUMPDEST PUSH1 0x7 SLOAD PUSH1 0xA PUSH1 0x0 CALLER PUSH20 0xFFFFFFFFFFFFFFFFFFFFFFFFFFFFFFFFFFFFFFFF AND PUSH20 0xFFFFFFFFFFFFFFFFFFFFFFFFFFFFFFFFFFFFFFFF AND DUP2 MSTORE PUSH1 0x20 ADD SWAP1 DUP2 MSTORE PUSH1 0x20 ADD PUSH1 0x0 KECCAK256 PUSH1 0x1 ADD SLOAD EQ PUSH2 0x87E JUMPI PUSH1 0x40 MLOAD PUSH32 0x8C379A000000000000000000000000000000000000000000000000000000000 DUP2 MSTORE PUSH1 0x4 ADD PUSH2 0x875 SWAP1 PUSH2 0x1982 JUMP JUMPDEST PUSH1 0x40 MLOAD DUP1 SWAP2 SUB SWAP1 REVERT JUMPDEST PUSH1 0x64 PUSH1 0x8 SLOAD PUSH1 0xA PUSH1 0x0 CALLER PUSH20 0xFFFFFFFFFFFFFFFFFFFFFFFFFFFFFFFFFFFFFFFF AND PUSH20 0xFFFFFFFFFFFFFFFFFFFFFFFFFFFFFFFFFFFFFFFF AND DUP2 MSTORE PUSH1 0x20 ADD SWAP1 DUP2 MSTORE PUSH1 0x20 ADD PUSH1 0x0 KECCAK256 PUSH1 0x2 ADD SLOAD PUSH2 0x8D0 SWAP2 SWAP1 PUSH2 0x19A2 JUMP JUMPDEST PUSH2 0x8DA SWAP2 SWAP1 PUSH2 0x1899 JUMP JUMPDEST PUSH1 0xA PUSH1 0x0 CALLER PUSH20 0xFFFFFFFFFFFFFFFFFFFFFFFFFFFFFFFFFFFFFFFF AND PUSH20 0xFFFFFFFFFFFFFFFFFFFFFFFFFFFFFFFFFFFFFFFF AND DUP2 MSTORE PUSH1 0x20 ADD SWAP1 DUP2 MSTORE PUSH1 0x20 ADD PUSH1 0x0 KECCAK256 PUSH1 0x3 ADD DUP2 SWAP1 SSTORE POP PUSH2 0x96C CALLER PUSH1 0xA PUSH1 0x0 CALLER PUSH20 0xFFFFFFFFFFFFFFFFFFFFFFFFFFFFFFFFFFFFFFFF AND PUSH20 0xFFFFFFFFFFFFFFFFFFFFFFFFFFFFFFFFFFFFFFFF AND DUP2 MSTORE PUSH1 0x20 ADD SWAP1 DUP2 MSTORE PUSH1 0x20 ADD PUSH1 0x0 KECCAK256 PUSH1 0x3 ADD SLOAD PUSH2 0xE71 JUMP JUMPDEST JUMP JUMPDEST PUSH1 0xB PUSH1 0x0 SWAP1 SLOAD SWAP1 PUSH2 0x100 EXP SWAP1 DIV PUSH20 0xFFFFFFFFFFFFFFFFFFFFFFFFFFFFFFFFFFFFFFFF AND DUP2 JUMP JUMPDEST PUSH1 0xB PUSH1 0x0 SWAP1 SLOAD SWAP1 PUSH2 0x100 EXP SWAP1 DIV PUSH20 0xFFFFFFFFFFFFFFFFFFFFFFFFFFFFFFFFFFFFFFFF AND PUSH20 0xFFFFFFFFFFFFFFFFFFFFFFFFFFFFFFFFFFFFFFFF AND CALLER PUSH20 0xFFFFFFFFFFFFFFFFFFFFFFFFFFFFFFFFFFFFFFFF AND EQ PUSH2 0xA1B JUMPI PUSH1 0x40 MLOAD PUSH32 0x8679B0C000000000000000000000000000000000000000000000000000000000 DUP2 MSTORE PUSH1 0x4 ADD PUSH1 0x40 MLOAD DUP1 SWAP2 SUB SWAP1 REVERT JUMPDEST PUSH1 0x0 SELFBALANCE GT PUSH2 0xA55 JUMPI PUSH1 0x40 MLOAD PUSH32 0x47108E3E00000000000000000000000000000000000000000000000000000000 DUP2 MSTORE PUSH1 0x4 ADD PUSH1 0x40 MLOAD DUP1 SWAP2 SUB SWAP1 REVERT JUMPDEST PUSH2 0xA5F DUP3 DUP3 PUSH2 0xE71 JUMP JUMPDEST POP POP JUMP JUMPDEST PUSH1 0xC PUSH1 0x0 SWAP1 SLOAD SWAP1 PUSH2 0x100 EXP SWAP1 DIV PUSH20 0xFFFFFFFFFFFFFFFFFFFFFFFFFFFFFFFFFFFFFFFF AND DUP2 JUMP JUMPDEST CALLVALUE CALLER PUSH20 0xFFFFFFFFFFFFFFFFFFFFFFFFFFFFFFFFFFFFFFFF AND BALANCE LT ISZERO PUSH2 0xADA JUMPI PUSH1 0x40 MLOAD PUSH32 0x47108E3E00000000000000000000000000000000000000000000000000000000 DUP2 MSTORE PUSH1 0x4 ADD PUSH1 0x40 MLOAD DUP1 SWAP2 SUB SWAP1 REVERT JUMPDEST PUSH5 0xB68A0AA00 CALLVALUE GT PUSH2 0xB18 JUMPI PUSH1 0x40 MLOAD PUSH32 0x78E9F1BA00000000000000000000000000000000000000000000000000000000 DUP2 MSTORE PUSH1 0x4 ADD PUSH1 0x40 MLOAD DUP1 SWAP2 SUB SWAP1 REVERT JUMPDEST CALLER PUSH20 0xFFFFFFFFFFFFFFFFFFFFFFFFFFFFFFFFFFFFFFFF AND PUSH1 0xA PUSH1 0x0 CALLER PUSH20 0xFFFFFFFFFFFFFFFFFFFFFFFFFFFFFFFFFFFFFFFF AND PUSH20 0xFFFFFFFFFFFFFFFFFFFFFFFFFFFFFFFFFFFFFFFF AND DUP2 MSTORE PUSH1 0x20 ADD SWAP1 DUP2 MSTORE PUSH1 0x20 ADD PUSH1 0x0 KECCAK256 PUSH1 0x0 ADD PUSH1 0x0 SWAP1 SLOAD SWAP1 PUSH2 0x100 EXP SWAP1 DIV PUSH20 0xFFFFFFFFFFFFFFFFFFFFFFFFFFFFFFFFFFFFFFFF AND PUSH20 0xFFFFFFFFFFFFFFFFFFFFFFFFFFFFFFFFFFFFFFFF AND SUB PUSH2 0xBDF JUMPI PUSH1 0x40 MLOAD PUSH32 0x8424505800000000000000000000000000000000000000000000000000000000 DUP2 MSTORE PUSH1 0x4 ADD PUSH1 0x40 MLOAD DUP1 SWAP2 SUB SWAP1 REVERT JUMPDEST PUSH1 0x0 PUSH1 0x3 PUSH1 0x0 SWAP1 SLOAD SWAP1 PUSH2 0x100 EXP SWAP1 DIV PUSH20 0xFFFFFFFFFFFFFFFFFFFFFFFFFFFFFFFFFFFFFFFF AND PUSH20 0xFFFFFFFFFFFFFFFFFFFFFFFFFFFFFFFFFFFFFFFF AND PUSH4 0xB4805D3 CALLER PUSH1 0x40 MLOAD DUP3 PUSH4 0xFFFFFFFF AND PUSH1 0xE0 SHL DUP2 MSTORE PUSH1 0x4 ADD PUSH2 0xC3C SWAP2 SWAP1 PUSH2 0x1774 JUMP JUMPDEST PUSH1 0x20 PUSH1 0x40 MLOAD DUP1 DUP4 SUB DUP2 DUP7 GAS STATICCALL ISZERO DUP1 ISZERO PUSH2 0xC59 JUMPI RETURNDATASIZE PUSH1 0x0 DUP1 RETURNDATACOPY RETURNDATASIZE PUSH1 0x0 REVERT JUMPDEST POP POP POP POP PUSH1 0x40 MLOAD RETURNDATASIZE PUSH1 0x1F NOT PUSH1 0x1F DUP3 ADD AND DUP3 ADD DUP1 PUSH1 0x40 MSTORE POP DUP2 ADD SWAP1 PUSH2 0xC7D SWAP2 SWAP1 PUSH2 0x19F9 JUMP JUMPDEST SUB PUSH2 0xCB4 JUMPI PUSH1 0x40 MLOAD PUSH32 0x3A70817D00000000000000000000000000000000000000000000000000000000 DUP2 MSTORE PUSH1 0x4 ADD PUSH1 0x40 MLOAD DUP1 SWAP2 SUB SWAP1 REVERT JUMPDEST PUSH1 0x1 DUP2 GT ISZERO PUSH2 0xCF8 JUMPI PUSH1 0x40 MLOAD PUSH32 0x8C379A000000000000000000000000000000000000000000000000000000000 DUP2 MSTORE PUSH1 0x4 ADD PUSH2 0xCEF SWAP1 PUSH2 0x1A72 JUMP JUMPDEST PUSH1 0x40 MLOAD DUP1 SWAP2 SUB SWAP1 REVERT JUMPDEST PUSH2 0xD02 ADDRESS CALLVALUE PUSH2 0xE71 JUMP JUMPDEST PUSH1 0x6 PUSH1 0x0 DUP2 SLOAD DUP1 SWAP3 SWAP2 SWAP1 PUSH2 0xD15 SWAP1 PUSH2 0x1A92 JUMP JUMPDEST SWAP2 SWAP1 POP SSTORE POP PUSH1 0x9 PUSH1 0x0 DUP3 DUP2 MSTORE PUSH1 0x20 ADD SWAP1 DUP2 MSTORE PUSH1 0x20 ADD PUSH1 0x0 KECCAK256 PUSH1 0x2 ADD PUSH1 0x0 DUP2 SLOAD DUP1 SWAP3 SWAP2 SWAP1 PUSH2 0xD41 SWAP1 PUSH2 0x1A92 JUMP JUMPDEST SWAP2 SWAP1 POP SSTORE POP CALLVALUE PUSH1 0x9 PUSH1 0x0 DUP4 DUP2 MSTORE PUSH1 0x20 ADD SWAP1 DUP2 MSTORE PUSH1 0x20 ADD PUSH1 0x0 KECCAK256 PUSH1 0x3 ADD SLOAD PUSH2 0xD68 SWAP2 SWAP1 PUSH2 0x1ADA JUMP JUMPDEST PUSH1 0x9 PUSH1 0x0 DUP4 DUP2 MSTORE PUSH1 0x20 ADD SWAP1 DUP2 MSTORE PUSH1 0x20 ADD PUSH1 0x0 KECCAK256 PUSH1 0x3 ADD DUP2 SWAP1 SSTORE POP PUSH2 0xD8A PUSH2 0xFA3 JUMP JUMPDEST PUSH2 0xD93 DUP2 PUSH2 0x103B JUMP JUMPDEST POP JUMP JUMPDEST PUSH1 0x0 DUP1 SELFBALANCE GT PUSH2 0xDD1 JUMPI PUSH1 0x40 MLOAD PUSH32 0x47108E3E00000000000000000000000000000000000000000000000000000000 DUP2 MSTORE PUSH1 0x4 ADD PUSH1 0x40 MLOAD DUP1 SWAP2 SUB SWAP1 REVERT JUMPDEST PUSH1 0xB PUSH1 0x0 SWAP1 SLOAD SWAP1 PUSH2 0x100 EXP SWAP1 DIV PUSH20 0xFFFFFFFFFFFFFFFFFFFFFFFFFFFFFFFFFFFFFFFF AND PUSH20 0xFFFFFFFFFFFFFFFFFFFFFFFFFFFFFFFFFFFFFFFF AND CALLER PUSH20 0xFFFFFFFFFFFFFFFFFFFFFFFFFFFFFFFFFFFFFFFF AND EQ PUSH2 0xE58 JUMPI PUSH1 0x40 MLOAD PUSH32 0x8679B0C000000000000000000000000000000000000000000000000000000000 DUP2 MSTORE PUSH1 0x4 ADD PUSH1 0x40 MLOAD DUP1 SWAP2 SUB SWAP1 REVERT JUMPDEST DUP2 SELFBALANCE PUSH2 0xE64 SWAP2 SWAP1 PUSH2 0x1899 JUMP JUMPDEST SWAP1 POP SWAP2 SWAP1 POP JUMP JUMPDEST PUSH1 0x6 SLOAD DUP2 JUMP JUMPDEST PUSH1 0x0 DUP1 DUP4 PUSH20 0xFFFFFFFFFFFFFFFFFFFFFFFFFFFFFFFFFFFFFFFF AND DUP4 PUSH1 0x40 MLOAD PUSH2 0xE98 SWAP1 PUSH2 0x1B3F JUMP JUMPDEST PUSH1 0x0 PUSH1 0x40 MLOAD DUP1 DUP4 SUB DUP2 DUP6 DUP8 GAS CALL SWAP3 POP POP POP RETURNDATASIZE DUP1 PUSH1 0x0 DUP2 EQ PUSH2 0xED5 JUMPI PUSH1 0x40 MLOAD SWAP2 POP PUSH1 0x1F NOT PUSH1 0x3F RETURNDATASIZE ADD AND DUP3 ADD PUSH1 0x40 MSTORE RETURNDATASIZE DUP3 MSTORE RETURNDATASIZE PUSH1 0x0 PUSH1 0x20 DUP5 ADD RETURNDATACOPY PUSH2 0xEDA JUMP JUMPDEST PUSH1 0x60 SWAP2 POP JUMPDEST POP SWAP2 POP SWAP2 POP DUP2 PUSH2 0xF1F JUMPI PUSH1 0x40 MLOAD PUSH32 0x8C379A000000000000000000000000000000000000000000000000000000000 DUP2 MSTORE PUSH1 0x4 ADD PUSH2 0xF16 SWAP1 PUSH2 0x1BA0 JUMP JUMPDEST PUSH1 0x40 MLOAD DUP1 SWAP2 SUB SWAP1 REVERT JUMPDEST POP POP POP POP JUMP JUMPDEST PUSH1 0xC PUSH1 0x14 SWAP1 SLOAD SWAP1 PUSH2 0x100 EXP SWAP1 DIV PUSH1 0xFF AND PUSH2 0xF6B JUMPI PUSH1 0x40 MLOAD PUSH32 0x541F1F000000000000000000000000000000000000000000000000000000000 DUP2 MSTORE PUSH1 0x4 ADD PUSH1 0x40 MLOAD DUP1 SWAP2 SUB SWAP1 REVERT JUMPDEST PUSH1 0x9 PUSH1 0x0 PUSH1 0x7 SLOAD DUP2 MSTORE PUSH1 0x20 ADD SWAP1 DUP2 MSTORE PUSH1 0x20 ADD PUSH1 0x0 KECCAK256 PUSH1 0x3 ADD SLOAD PUSH1 0x64 SELFBALANCE PUSH2 0xF91 SWAP2 SWAP1 PUSH2 0x19A2 JUMP JUMPDEST PUSH2 0xF9B SWAP2 SWAP1 PUSH2 0x1899 JUMP JUMPDEST PUSH1 0x8 DUP2 SWAP1 SSTORE POP JUMP JUMPDEST PUSH1 0x6 SLOAD PUSH1 0x64 PUSH1 0x9 PUSH1 0x0 DUP1 DUP2 MSTORE PUSH1 0x20 ADD SWAP1 DUP2 MSTORE PUSH1 0x20 ADD PUSH1 0x0 KECCAK256 PUSH1 0x2 ADD SLOAD PUSH2 0xFC9 SWAP2 SWAP1 PUSH2 0x19A2 JUMP JUMPDEST PUSH2 0xFD3 SWAP2 SWAP1 PUSH2 0x1899 JUMP JUMPDEST PUSH1 0x9 PUSH1 0x0 DUP1 DUP2 MSTORE PUSH1 0x20 ADD SWAP1 DUP2 MSTORE PUSH1 0x20 ADD PUSH1 0x0 KECCAK256 PUSH1 0x1 ADD DUP2 SWAP1 SSTORE POP PUSH1 0x6 SLOAD PUSH1 0x64 PUSH1 0x9 PUSH1 0x0 PUSH1 0x1 DUP2 MSTORE PUSH1 0x20 ADD SWAP1 DUP2 MSTORE PUSH1 0x20 ADD PUSH1 0x0 KECCAK256 PUSH1 0x2 ADD SLOAD PUSH2 0x1014 SWAP2 SWAP1 PUSH2 0x19A2 JUMP JUMPDEST PUSH2 0x101E SWAP2 SWAP1 PUSH2 0x1899 JUMP JUMPDEST PUSH1 0x9 PUSH1 0x0 PUSH1 0x1 DUP2 MSTORE PUSH1 0x20 ADD SWAP1 DUP2 MSTORE PUSH1 0x20 ADD PUSH1 0x0 KECCAK256 PUSH1 0x1 ADD DUP2 SWAP1 SSTORE POP JUMP JUMPDEST CALLER PUSH1 0xA PUSH1 0x0 CALLER PUSH20 0xFFFFFFFFFFFFFFFFFFFFFFFFFFFFFFFFFFFFFFFF AND PUSH20 0xFFFFFFFFFFFFFFFFFFFFFFFFFFFFFFFFFFFFFFFF AND DUP2 MSTORE PUSH1 0x20 ADD SWAP1 DUP2 MSTORE PUSH1 0x20 ADD PUSH1 0x0 KECCAK256 PUSH1 0x0 ADD PUSH1 0x0 PUSH2 0x100 EXP DUP2 SLOAD DUP2 PUSH20 0xFFFFFFFFFFFFFFFFFFFFFFFFFFFFFFFFFFFFFFFF MUL NOT AND SWAP1 DUP4 PUSH20 0xFFFFFFFFFFFFFFFFFFFFFFFFFFFFFFFFFFFFFFFF AND MUL OR SWAP1 SSTORE POP DUP1 PUSH1 0xA PUSH1 0x0 CALLER PUSH20 0xFFFFFFFFFFFFFFFFFFFFFFFFFFFFFFFFFFFFFFFF AND PUSH20 0xFFFFFFFFFFFFFFFFFFFFFFFFFFFFFFFFFFFFFFFF AND DUP2 MSTORE PUSH1 0x20 ADD SWAP1 DUP2 MSTORE PUSH1 0x20 ADD PUSH1 0x0 KECCAK256 PUSH1 0x1 ADD DUP2 SWAP1 SSTORE POP CALLVALUE PUSH1 0xA PUSH1 0x0 CALLER PUSH20 0xFFFFFFFFFFFFFFFFFFFFFFFFFFFFFFFFFFFFFFFF AND PUSH20 0xFFFFFFFFFFFFFFFFFFFFFFFFFFFFFFFFFFFFFFFF AND DUP2 MSTORE PUSH1 0x20 ADD SWAP1 DUP2 MSTORE PUSH1 0x20 ADD PUSH1 0x0 KECCAK256 PUSH1 0x2 ADD DUP2 SWAP1 SSTORE POP POP JUMP JUMPDEST PUSH1 0x0 DUP3 DUP3 MSTORE PUSH1 0x20 DUP3 ADD SWAP1 POP SWAP3 SWAP2 POP POP JUMP JUMPDEST PUSH32 0x796F752063616E27742073656E64206C657373207468616E2035306B20776569 PUSH1 0x0 DUP3 ADD MSTORE POP JUMP JUMPDEST PUSH1 0x0 PUSH2 0x1194 PUSH1 0x20 DUP4 PUSH2 0x114D JUMP JUMPDEST SWAP2 POP PUSH2 0x119F DUP3 PUSH2 0x115E JUMP JUMPDEST PUSH1 0x20 DUP3 ADD SWAP1 POP SWAP2 SWAP1 POP JUMP JUMPDEST PUSH1 0x0 PUSH1 0x20 DUP3 ADD SWAP1 POP DUP2 DUP2 SUB PUSH1 0x0 DUP4 ADD MSTORE PUSH2 0x11C3 DUP2 PUSH2 0x1187 JUMP JUMPDEST SWAP1 POP SWAP2 SWAP1 POP JUMP JUMPDEST PUSH1 0x0 DUP2 MLOAD SWAP1 POP SWAP2 SWAP1 POP JUMP JUMPDEST PUSH32 0x4E487B7100000000000000000000000000000000000000000000000000000000 PUSH1 0x0 MSTORE PUSH1 0x41 PUSH1 0x4 MSTORE PUSH1 0x24 PUSH1 0x0 REVERT JUMPDEST PUSH32 0x4E487B7100000000000000000000000000000000000000000000000000000000 PUSH1 0x0 MSTORE PUSH1 0x22 PUSH1 0x4 MSTORE PUSH1 0x24 PUSH1 0x0 REVERT JUMPDEST PUSH1 0x0 PUSH1 0x2 DUP3 DIV SWAP1 POP PUSH1 0x1 DUP3 AND DUP1 PUSH2 0x124B JUMPI PUSH1 0x7F DUP3 AND SWAP2 POP JUMPDEST PUSH1 0x20 DUP3 LT DUP2 SUB PUSH2 0x125E JUMPI PUSH2 0x125D PUSH2 0x1204 JUMP JUMPDEST JUMPDEST POP SWAP2 SWAP1 POP JUMP JUMPDEST PUSH1 0x0 DUP2 SWAP1 POP DUP2 PUSH1 0x0 MSTORE PUSH1 0x20 PUSH1 0x0 KECCAK256 SWAP1 POP SWAP2 SWAP1 POP JUMP JUMPDEST PUSH1 0x0 PUSH1 0x20 PUSH1 0x1F DUP4 ADD DIV SWAP1 POP SWAP2 SWAP1 POP JUMP JUMPDEST PUSH1 0x0 DUP3 DUP3 SHL SWAP1 POP SWAP3 SWAP2 POP POP JUMP JUMPDEST PUSH1 0x0 PUSH1 0x8 DUP4 MUL PUSH2 0x12C6 PUSH32 0xFFFFFFFFFFFFFFFFFFFFFFFFFFFFFFFFFFFFFFFFFFFFFFFFFFFFFFFFFFFFFFFF DUP3 PUSH2 0x1289 JUMP JUMPDEST PUSH2 0x12D0 DUP7 DUP4 PUSH2 0x1289 JUMP JUMPDEST SWAP6 POP DUP1 NOT DUP5 AND SWAP4 POP DUP1 DUP7 AND DUP5 OR SWAP3 POP POP POP SWAP4 SWAP3 POP POP POP JUMP JUMPDEST PUSH1 0x0 DUP2 SWAP1 POP SWAP2 SWAP1 POP JUMP JUMPDEST PUSH1 0x0 DUP2 SWAP1 POP SWAP2 SWAP1 POP JUMP JUMPDEST PUSH1 0x0 PUSH2 0x1317 PUSH2 0x1312 PUSH2 0x130D DUP5 PUSH2 0x12E8 JUMP JUMPDEST PUSH2 0x12F2 JUMP JUMPDEST PUSH2 0x12E8 JUMP JUMPDEST SWAP1 POP SWAP2 SWAP1 POP JUMP JUMPDEST PUSH1 0x0 DUP2 SWAP1 POP SWAP2 SWAP1 POP JUMP JUMPDEST PUSH2 0x1331 DUP4 PUSH2 0x12FC JUMP JUMPDEST PUSH2 0x1345 PUSH2 0x133D DUP3 PUSH2 0x131E JUMP JUMPDEST DUP5 DUP5 SLOAD PUSH2 0x1296 JUMP JUMPDEST DUP3 SSTORE POP POP POP POP JUMP JUMPDEST PUSH1 0x0 SWAP1 JUMP JUMPDEST PUSH2 0x135A PUSH2 0x134D JUMP JUMPDEST PUSH2 0x1365 DUP2 DUP5 DUP5 PUSH2 0x1328 JUMP JUMPDEST POP POP POP JUMP JUMPDEST JUMPDEST DUP2 DUP2 LT ISZERO PUSH2 0x1389 JUMPI PUSH2 0x137E PUSH1 0x0 DUP3 PUSH2 0x1352 JUMP JUMPDEST PUSH1 0x1 DUP2 ADD SWAP1 POP PUSH2 0x136B JUMP JUMPDEST POP POP JUMP JUMPDEST PUSH1 0x1F DUP3 GT ISZERO PUSH2 0x13CE JUMPI PUSH2 0x139F DUP2 PUSH2 0x1264 JUMP JUMPDEST PUSH2 0x13A8 DUP5 PUSH2 0x1279 JUMP JUMPDEST DUP2 ADD PUSH1 0x20 DUP6 LT ISZERO PUSH2 0x13B7 JUMPI DUP2 SWAP1 POP JUMPDEST PUSH2 0x13CB PUSH2 0x13C3 DUP6 PUSH2 0x1279 JUMP JUMPDEST DUP4 ADD DUP3 PUSH2 0x136A JUMP JUMPDEST POP POP JUMPDEST POP POP POP JUMP JUMPDEST PUSH1 0x0 DUP3 DUP3 SHR SWAP1 POP SWAP3 SWAP2 POP POP JUMP JUMPDEST PUSH1 0x0 PUSH2 0x13F1 PUSH1 0x0 NOT DUP5 PUSH1 0x8 MUL PUSH2 0x13D3 JUMP JUMPDEST NOT DUP1 DUP4 AND SWAP2 POP POP SWAP3 SWAP2 POP POP JUMP JUMPDEST PUSH1 0x0 PUSH2 0x140A DUP4 DUP4 PUSH2 0x13E0 JUMP JUMPDEST SWAP2 POP DUP3 PUSH1 0x2 MUL DUP3 OR SWAP1 POP SWAP3 SWAP2 POP POP JUMP JUMPDEST PUSH2 0x1423 DUP3 PUSH2 0x11CA JUMP JUMPDEST PUSH8 0xFFFFFFFFFFFFFFFF DUP2 GT ISZERO PUSH2 0x143C JUMPI PUSH2 0x143B PUSH2 0x11D5 JUMP JUMPDEST JUMPDEST PUSH2 0x1446 DUP3 SLOAD PUSH2 0x1233 JUMP JUMPDEST PUSH2 0x1451 DUP3 DUP3 DUP6 PUSH2 0x138D JUMP JUMPDEST PUSH1 0x0 PUSH1 0x20 SWAP1 POP PUSH1 0x1F DUP4 GT PUSH1 0x1 DUP2 EQ PUSH2 0x1484 JUMPI PUSH1 0x0 DUP5 ISZERO PUSH2 0x1472 JUMPI DUP3 DUP8 ADD MLOAD SWAP1 POP JUMPDEST PUSH2 0x147C DUP6 DUP3 PUSH2 0x13FE JUMP JUMPDEST DUP7 SSTORE POP PUSH2 0x14E4 JUMP JUMPDEST PUSH1 0x1F NOT DUP5 AND PUSH2 0x1492 DUP7 PUSH2 0x1264 JUMP JUMPDEST PUSH1 0x0 JUMPDEST DUP3 DUP2 LT ISZERO PUSH2 0x14BA JUMPI DUP5 DUP10 ADD MLOAD DUP3 SSTORE PUSH1 0x1 DUP3 ADD SWAP2 POP PUSH1 0x20 DUP6 ADD SWAP5 POP PUSH1 0x20 DUP2 ADD SWAP1 POP PUSH2 0x1495 JUMP JUMPDEST DUP7 DUP4 LT ISZERO PUSH2 0x14D7 JUMPI DUP5 DUP10 ADD MLOAD PUSH2 0x14D3 PUSH1 0x1F DUP10 AND DUP3 PUSH2 0x13E0 JUMP JUMPDEST DUP4 SSTORE POP JUMPDEST PUSH1 0x1 PUSH1 0x2 DUP9 MUL ADD DUP9 SSTORE POP POP POP JUMPDEST POP POP POP POP POP POP JUMP JUMPDEST PUSH1 0x0 DUP1 REVERT JUMPDEST PUSH2 0x14FA DUP2 PUSH2 0x12E8 JUMP JUMPDEST DUP2 EQ PUSH2 0x1505 JUMPI PUSH1 0x0 DUP1 REVERT JUMPDEST POP JUMP JUMPDEST PUSH1 0x0 DUP2 CALLDATALOAD SWAP1 POP PUSH2 0x1517 DUP2 PUSH2 0x14F1 JUMP JUMPDEST SWAP3 SWAP2 POP POP JUMP JUMPDEST PUSH1 0x0 DUP1 PUSH1 0x40 DUP4 DUP6 SUB SLT ISZERO PUSH2 0x1534 JUMPI PUSH2 0x1533 PUSH2 0x14EC JUMP JUMPDEST JUMPDEST PUSH1 0x0 PUSH2 0x1542 DUP6 DUP3 DUP7 ADD PUSH2 0x1508 JUMP JUMPDEST SWAP3 POP POP PUSH1 0x20 PUSH2 0x1553 DUP6 DUP3 DUP7 ADD PUSH2 0x1508 JUMP JUMPDEST SWAP2 POP POP SWAP3 POP SWAP3 SWAP1 POP JUMP JUMPDEST PUSH1 0x0 PUSH20 0xFFFFFFFFFFFFFFFFFFFFFFFFFFFFFFFFFFFFFFFF DUP3 AND SWAP1 POP SWAP2 SWAP1 POP JUMP JUMPDEST PUSH1 0x0 PUSH2 0x1588 DUP3 PUSH2 0x155D JUMP JUMPDEST SWAP1 POP SWAP2 SWAP1 POP JUMP JUMPDEST PUSH2 0x1598 DUP2 PUSH2 0x157D JUMP JUMPDEST DUP2 EQ PUSH2 0x15A3 JUMPI PUSH1 0x0 DUP1 REVERT JUMPDEST POP JUMP JUMPDEST PUSH1 0x0 DUP2 CALLDATALOAD SWAP1 POP PUSH2 0x15B5 DUP2 PUSH2 0x158F JUMP JUMPDEST SWAP3 SWAP2 POP POP JUMP JUMPDEST PUSH1 0x0 PUSH1 0x20 DUP3 DUP5 SUB SLT ISZERO PUSH2 0x15D1 JUMPI PUSH2 0x15D0 PUSH2 0x14EC JUMP JUMPDEST JUMPDEST PUSH1 0x0 PUSH2 0x15DF DUP5 DUP3 DUP6 ADD PUSH2 0x15A6 JUMP JUMPDEST SWAP2 POP POP SWAP3 SWAP2 POP POP JUMP JUMPDEST PUSH1 0x0 PUSH2 0x15F3 DUP3 PUSH2 0x155D JUMP JUMPDEST SWAP1 POP SWAP2 SWAP1 POP JUMP JUMPDEST PUSH2 0x1603 DUP2 PUSH2 0x15E8 JUMP JUMPDEST DUP3 MSTORE POP POP JUMP JUMPDEST PUSH2 0x1612 DUP2 PUSH2 0x12E8 JUMP JUMPDEST DUP3 MSTORE POP POP JUMP JUMPDEST PUSH1 0x0 PUSH1 0x80 DUP3 ADD SWAP1 POP PUSH2 0x162D PUSH1 0x0 DUP4 ADD DUP8 PUSH2 0x15FA JUMP JUMPDEST PUSH2 0x163A PUSH1 0x20 DUP4 ADD DUP7 PUSH2 0x1609 JUMP JUMPDEST PUSH2 0x1647 PUSH1 0x40 DUP4 ADD DUP6 PUSH2 0x1609 JUMP JUMPDEST PUSH2 0x1654 PUSH1 0x60 DUP4 ADD DUP5 PUSH2 0x1609 JUMP JUMPDEST SWAP6 SWAP5 POP POP POP POP POP JUMP JUMPDEST PUSH1 0x0 PUSH1 0x20 DUP3 ADD SWAP1 POP PUSH2 0x1672 PUSH1 0x0 DUP4 ADD DUP5 PUSH2 0x1609 JUMP JUMPDEST SWAP3 SWAP2 POP POP JUMP JUMPDEST PUSH1 0x0 PUSH1 0x20 DUP3 DUP5 SUB SLT ISZERO PUSH2 0x168E JUMPI PUSH2 0x168D PUSH2 0x14EC JUMP JUMPDEST JUMPDEST PUSH1 0x0 PUSH2 0x169C DUP5 DUP3 DUP6 ADD PUSH2 0x1508 JUMP JUMPDEST SWAP2 POP POP SWAP3 SWAP2 POP POP JUMP JUMPDEST PUSH1 0x0 JUMPDEST DUP4 DUP2 LT ISZERO PUSH2 0x16C3 JUMPI DUP1 DUP3 ADD MLOAD DUP2 DUP5 ADD MSTORE PUSH1 0x20 DUP2 ADD SWAP1 POP PUSH2 0x16A8 JUMP JUMPDEST PUSH1 0x0 DUP5 DUP5 ADD MSTORE POP POP POP POP JUMP JUMPDEST PUSH1 0x0 PUSH1 0x1F NOT PUSH1 0x1F DUP4 ADD AND SWAP1 POP SWAP2 SWAP1 POP JUMP JUMPDEST PUSH1 0x0 PUSH2 0x16EB DUP3 PUSH2 0x11CA JUMP JUMPDEST PUSH2 0x16F5 DUP2 DUP6 PUSH2 0x114D JUMP JUMPDEST SWAP4 POP PUSH2 0x1705 DUP2 DUP6 PUSH1 0x20 DUP7 ADD PUSH2 0x16A5 JUMP JUMPDEST PUSH2 0x170E DUP2 PUSH2 0x16CF JUMP JUMPDEST DUP5 ADD SWAP2 POP POP SWAP3 SWAP2 POP POP JUMP JUMPDEST PUSH1 0x0 PUSH1 0x80 DUP3 ADD SWAP1 POP DUP2 DUP2 SUB PUSH1 0x0 DUP4 ADD MSTORE PUSH2 0x1733 DUP2 DUP8 PUSH2 0x16E0 JUMP JUMPDEST SWAP1 POP PUSH2 0x1742 PUSH1 0x20 DUP4 ADD DUP7 PUSH2 0x1609 JUMP JUMPDEST PUSH2 0x174F PUSH1 0x40 DUP4 ADD DUP6 PUSH2 0x1609 JUMP JUMPDEST PUSH2 0x175C PUSH1 0x60 DUP4 ADD DUP5 PUSH2 0x1609 JUMP JUMPDEST SWAP6 SWAP5 POP POP POP POP POP JUMP JUMPDEST PUSH2 0x176E DUP2 PUSH2 0x157D JUMP JUMPDEST DUP3 MSTORE POP POP JUMP JUMPDEST PUSH1 0x0 PUSH1 0x20 DUP3 ADD SWAP1 POP PUSH2 0x1789 PUSH1 0x0 DUP4 ADD DUP5 PUSH2 0x1765 JUMP JUMPDEST SWAP3 SWAP2 POP POP JUMP JUMPDEST PUSH1 0x0 DUP1 PUSH1 0x40 DUP4 DUP6 SUB SLT ISZERO PUSH2 0x17A6 JUMPI PUSH2 0x17A5 PUSH2 0x14EC JUMP JUMPDEST JUMPDEST PUSH1 0x0 PUSH2 0x17B4 DUP6 DUP3 DUP7 ADD PUSH2 0x15A6 JUMP JUMPDEST SWAP3 POP POP PUSH1 0x20 PUSH2 0x17C5 DUP6 DUP3 DUP7 ADD PUSH2 0x1508 JUMP JUMPDEST SWAP2 POP POP SWAP3 POP SWAP3 SWAP1 POP JUMP JUMPDEST PUSH32 0x66656520616C7265616479207061696400000000000000000000000000000000 PUSH1 0x0 DUP3 ADD MSTORE POP JUMP JUMPDEST PUSH1 0x0 PUSH2 0x1805 PUSH1 0x10 DUP4 PUSH2 0x114D JUMP JUMPDEST SWAP2 POP PUSH2 0x1810 DUP3 PUSH2 0x17CF JUMP JUMPDEST PUSH1 0x20 DUP3 ADD SWAP1 POP SWAP2 SWAP1 POP JUMP JUMPDEST PUSH1 0x0 PUSH1 0x20 DUP3 ADD SWAP1 POP DUP2 DUP2 SUB PUSH1 0x0 DUP4 ADD MSTORE PUSH2 0x1834 DUP2 PUSH2 0x17F8 JUMP JUMPDEST SWAP1 POP SWAP2 SWAP1 POP JUMP JUMPDEST PUSH32 0x4E487B7100000000000000000000000000000000000000000000000000000000 PUSH1 0x0 MSTORE PUSH1 0x12 PUSH1 0x4 MSTORE PUSH1 0x24 PUSH1 0x0 REVERT JUMPDEST PUSH32 0x4E487B7100000000000000000000000000000000000000000000000000000000 PUSH1 0x0 MSTORE PUSH1 0x11 PUSH1 0x4 MSTORE PUSH1 0x24 PUSH1 0x0 REVERT JUMPDEST PUSH1 0x0 PUSH2 0x18A4 DUP3 PUSH2 0x12E8 JUMP JUMPDEST SWAP2 POP PUSH2 0x18AF DUP4 PUSH2 0x12E8 JUMP JUMPDEST SWAP3 POP DUP3 PUSH2 0x18BF JUMPI PUSH2 0x18BE PUSH2 0x183B JUMP JUMPDEST JUMPDEST DUP3 DUP3 DIV SWAP1 POP SWAP3 SWAP2 POP POP JUMP JUMPDEST PUSH32 0x70617920706C6174666F726D2066656520666972737400000000000000000000 PUSH1 0x0 DUP3 ADD MSTORE POP JUMP JUMPDEST PUSH1 0x0 PUSH2 0x1900 PUSH1 0x16 DUP4 PUSH2 0x114D JUMP JUMPDEST SWAP2 POP PUSH2 0x190B DUP3 PUSH2 0x18CA JUMP JUMPDEST PUSH1 0x20 DUP3 ADD SWAP1 POP SWAP2 SWAP1 POP JUMP JUMPDEST PUSH1 0x0 PUSH1 0x20 DUP3 ADD SWAP1 POP DUP2 DUP2 SUB PUSH1 0x0 DUP4 ADD MSTORE PUSH2 0x192F DUP2 PUSH2 0x18F3 JUMP JUMPDEST SWAP1 POP SWAP2 SWAP1 POP JUMP JUMPDEST PUSH32 0x6E6F206761696E00000000000000000000000000000000000000000000000000 PUSH1 0x0 DUP3 ADD MSTORE POP JUMP JUMPDEST PUSH1 0x0 PUSH2 0x196C PUSH1 0x7 DUP4 PUSH2 0x114D JUMP JUMPDEST SWAP2 POP PUSH2 0x1977 DUP3 PUSH2 0x1936 JUMP JUMPDEST PUSH1 0x20 DUP3 ADD SWAP1 POP SWAP2 SWAP1 POP JUMP JUMPDEST PUSH1 0x0 PUSH1 0x20 DUP3 ADD SWAP1 POP DUP2 DUP2 SUB PUSH1 0x0 DUP4 ADD MSTORE PUSH2 0x199B DUP2 PUSH2 0x195F JUMP JUMPDEST SWAP1 POP SWAP2 SWAP1 POP JUMP JUMPDEST PUSH1 0x0 PUSH2 0x19AD DUP3 PUSH2 0x12E8 JUMP JUMPDEST SWAP2 POP PUSH2 0x19B8 DUP4 PUSH2 0x12E8 JUMP JUMPDEST SWAP3 POP DUP3 DUP3 MUL PUSH2 0x19C6 DUP2 PUSH2 0x12E8 JUMP JUMPDEST SWAP2 POP DUP3 DUP3 DIV DUP5 EQ DUP4 ISZERO OR PUSH2 0x19DD JUMPI PUSH2 0x19DC PUSH2 0x186A JUMP JUMPDEST JUMPDEST POP SWAP3 SWAP2 POP POP JUMP JUMPDEST PUSH1 0x0 DUP2 MLOAD SWAP1 POP PUSH2 0x19F3 DUP2 PUSH2 0x14F1 JUMP JUMPDEST SWAP3 SWAP2 POP POP JUMP JUMPDEST PUSH1 0x0 PUSH1 0x20 DUP3 DUP5 SUB SLT ISZERO PUSH2 0x1A0F JUMPI PUSH2 0x1A0E PUSH2 0x14EC JUMP JUMPDEST JUMPDEST PUSH1 0x0 PUSH2 0x1A1D DUP5 DUP3 DUP6 ADD PUSH2 0x19E4 JUMP JUMPDEST SWAP2 POP POP SWAP3 SWAP2 POP POP JUMP JUMPDEST PUSH32 0x636F6D70657469746F7220646F6E277420657869737400000000000000000000 PUSH1 0x0 DUP3 ADD MSTORE POP JUMP JUMPDEST PUSH1 0x0 PUSH2 0x1A5C PUSH1 0x16 DUP4 PUSH2 0x114D JUMP JUMPDEST SWAP2 POP PUSH2 0x1A67 DUP3 PUSH2 0x1A26 JUMP JUMPDEST PUSH1 0x20 DUP3 ADD SWAP1 POP SWAP2 SWAP1 POP JUMP JUMPDEST PUSH1 0x0 PUSH1 0x20 DUP3 ADD SWAP1 POP DUP2 DUP2 SUB PUSH1 0x0 DUP4 ADD MSTORE PUSH2 0x1A8B DUP2 PUSH2 0x1A4F JUMP JUMPDEST SWAP1 POP SWAP2 SWAP1 POP JUMP JUMPDEST PUSH1 0x0 PUSH2 0x1A9D DUP3 PUSH2 0x12E8 JUMP JUMPDEST SWAP2 POP PUSH32 0xFFFFFFFFFFFFFFFFFFFFFFFFFFFFFFFFFFFFFFFFFFFFFFFFFFFFFFFFFFFFFFFF DUP3 SUB PUSH2 0x1ACF JUMPI PUSH2 0x1ACE PUSH2 0x186A JUMP JUMPDEST JUMPDEST PUSH1 0x1 DUP3 ADD SWAP1 POP SWAP2 SWAP1 POP JUMP JUMPDEST PUSH1 0x0 PUSH2 0x1AE5 DUP3 PUSH2 0x12E8 JUMP JUMPDEST SWAP2 POP PUSH2 0x1AF0 DUP4 PUSH2 0x12E8 JUMP JUMPDEST SWAP3 POP DUP3 DUP3 ADD SWAP1 POP DUP1 DUP3 GT ISZERO PUSH2 0x1B08 JUMPI PUSH2 0x1B07 PUSH2 0x186A JUMP JUMPDEST JUMPDEST SWAP3 SWAP2 POP POP JUMP JUMPDEST PUSH1 0x0 DUP2 SWAP1 POP SWAP3 SWAP2 POP POP JUMP JUMPDEST POP JUMP JUMPDEST PUSH1 0x0 PUSH2 0x1B29 PUSH1 0x0 DUP4 PUSH2 0x1B0E JUMP JUMPDEST SWAP2 POP PUSH2 0x1B34 DUP3 PUSH2 0x1B19 JUMP JUMPDEST PUSH1 0x0 DUP3 ADD SWAP1 POP SWAP2 SWAP1 POP JUMP JUMPDEST PUSH1 0x0 PUSH2 0x1B4A DUP3 PUSH2 0x1B1C JUMP JUMPDEST SWAP2 POP DUP2 SWAP1 POP SWAP2 SWAP1 POP JUMP JUMPDEST PUSH32 0x4661696C656420746F2073656E64204574686572000000000000000000000000 PUSH1 0x0 DUP3 ADD MSTORE POP JUMP JUMPDEST PUSH1 0x0 PUSH2 0x1B8A PUSH1 0x14 DUP4 PUSH2 0x114D JUMP JUMPDEST SWAP2 POP PUSH2 0x1B95 DUP3 PUSH2 0x1B54 JUMP JUMPDEST PUSH1 0x20 DUP3 ADD SWAP1 POP SWAP2 SWAP1 POP JUMP JUMPDEST PUSH1 0x0 PUSH1 0x20 DUP3 ADD SWAP1 POP DUP2 DUP2 SUB PUSH1 0x0 DUP4 ADD MSTORE PUSH2 0x1BB9 DUP2 PUSH2 0x1B7D JUMP JUMPDEST SWAP1 POP SWAP2 SWAP1 POP JUMP INVALID LOG2 PUSH5 0x6970667358 0x22 SLT KECCAK256 0xA8 0xDE SDIV SWAP6 RETURN GASPRICE LOG2 0xC7 0xED 0xAB RETURN DUP1 PUSH17 0x41AD304FBE9C61805FB2E006B44E3E323C 0xBB CALL PUSH5 0x736F6C6343 STOP ADDMOD ISZERO STOP CALLER LOG2 PUSH5 0x6970667358 0x22 SLT KECCAK256 SWAP14 0xE6 CALLDATASIZE SWAP13 0xB5 SLOAD 0xAB 0xB7 PUSH28 0x9904BFEF42686B3C41091790FF00FB270448FE5D60E1CB64736F6C63 NUMBER STOP ADDMOD ISZERO STOP CALLER "},"methodIdentifiers":{"betList(address)":"cef84a62","deployNewBet(string,string)":"a5f9b643","getBetValidatorsResult(address)":"ee9c0362","getvalidatorAddress(address,uint256)":"458f6f6f","setBetVote(uint256,address)":"41178651","startBetValidation(address)":"fd3393fe","tallyVote(address)":"9aa7ca42"}}}}}