{"contracts/BetWaveDAO.sol":{"BetWaveDAO":{"abi":[{"inputs":[],"name":"insufficientBalance","type":"error"},{"inputs":[],"name":"notRegistered","type":"error"},{"inputs":[],"name":"notValidator","type":"error"},{"anonymous":false,"inputs":[{"indexed":false,"internalType":"address","name":"","type":"address"},{"indexed":false,"internalType":"uint256","name":"","type":"uint256"}],"name":"newUser","type":"event"},{"anonymous":false,"inputs":[{"indexed":false,"internalType":"uint256","name":"","type":"uint256"}],"name":"voteRejected","type":"event"},{"stateMutability":"payable","type":"fallback"},{"inputs":[],"name":"DAOQuorum","outputs":[{"internalType":"uint256","name":"","type":"uint256"}],"stateMutability":"view","type":"function"},{"inputs":[{"internalType":"uint256","name":"","type":"uint256"}],"name":"DAOVoteList","outputs":[{"internalType":"enum BetWaveDAO.VoteType","name":"voteType","type":"uint8"},{"internalType":"uint256","name":"voteFor","type":"uint256"},{"internalType":"uint256","name":"voteAgainst","type":"uint256"},{"internalType":"uint256","name":"newValue","type":"uint256"}],"stateMutability":"view","type":"function"},{"inputs":[],"name":"addUser","outputs":[],"stateMutability":"nonpayable","type":"function"},{"inputs":[],"name":"addValidators","outputs":[],"stateMutability":"payable","type":"function"},{"inputs":[{"internalType":"enum BetWaveDAO.VoteType","name":"_voteType","type":"uint8"},{"internalType":"uint256","name":"_newValue","type":"uint256"}],"name":"askDAOVote","outputs":[],"stateMutability":"nonpayable","type":"function"},{"inputs":[],"name":"betQuorum","outputs":[{"internalType":"uint256","name":"","type":"uint256"}],"stateMutability":"view","type":"function"},{"inputs":[],"name":"creatorFees","outputs":[{"internalType":"uint256","name":"","type":"uint256"}],"stateMutability":"view","type":"function"},{"inputs":[],"name":"daoVoteNumber","outputs":[{"internalType":"uint256","name":"","type":"uint256"}],"stateMutability":"view","type":"function"},{"inputs":[{"internalType":"uint256","name":"_id","type":"uint256"}],"name":"getDaoVoteHasVoted","outputs":[{"internalType":"bool","name":"","type":"bool"}],"stateMutability":"view","type":"function"},{"inputs":[],"name":"platformFees","outputs":[{"internalType":"uint256","name":"","type":"uint256"}],"stateMutability":"view","type":"function"},{"inputs":[{"internalType":"uint256","name":"_id","type":"uint256"},{"internalType":"uint256","name":"_option","type":"uint256"}],"name":"setDaoVote","outputs":[],"stateMutability":"nonpayable","type":"function"},{"inputs":[{"internalType":"uint256","name":"","type":"uint256"}],"name":"userList","outputs":[{"internalType":"address","name":"","type":"address"}],"stateMutability":"view","type":"function"},{"inputs":[],"name":"userNumber","outputs":[{"internalType":"uint256","name":"","type":"uint256"}],"stateMutability":"view","type":"function"},{"inputs":[{"internalType":"address","name":"","type":"address"}],"name":"userToId","outputs":[{"internalType":"uint256","name":"","type":"uint256"}],"stateMutability":"view","type":"function"},{"inputs":[],"name":"validatorFees","outputs":[{"internalType":"uint256","name":"","type":"uint256"}],"stateMutability":"view","type":"function"},{"inputs":[],"name":"validatorNumber","outputs":[{"internalType":"uint256","name":"","type":"uint256"}],"stateMutability":"view","type":"function"},{"inputs":[],"name":"validatorNumberRequired","outputs":[{"internalType":"uint256","name":"","type":"uint256"}],"stateMutability":"view","type":"function"},{"inputs":[{"internalType":"address","name":"","type":"address"}],"name":"validators","outputs":[{"internalType":"address payable","name":"userAddress","type":"address"},{"internalType":"bool","name":"isBlacklisted","type":"bool"},{"internalType":"uint256","name":"strike","type":"uint256"}],"stateMutability":"view","type":"function"},{"inputs":[],"name":"withdrawFromValidators","outputs":[],"stateMutability":"payable","type":"function"},{"stateMutability":"payable","type":"receive"}],"evm":{"bytecode":{"linkReferences":{},"object":"60806040526040518060400160405280600c81526020017f6566626c7671687362646c670000000000000000000000000000000000000000815250600090816200004a9190620002fc565b506004600155609660025560326003556055600455604b600555600a60065560016007553480156200007b57600080fd5b50620003e3565b600081519050919050565b7f4e487b7100000000000000000000000000000000000000000000000000000000600052604160045260246000fd5b7f4e487b7100000000000000000000000000000000000000000000000000000000600052602260045260246000fd5b600060028204905060018216806200010457607f821691505b6020821081036200011a5762000119620000bc565b5b50919050565b60008190508160005260206000209050919050565b60006020601f8301049050919050565b600082821b905092915050565b600060088302620001847fffffffffffffffffffffffffffffffffffffffffffffffffffffffffffffffff8262000145565b62000190868362000145565b95508019841693508086168417925050509392505050565b6000819050919050565b6000819050919050565b6000620001dd620001d7620001d184620001a8565b620001b2565b620001a8565b9050919050565b6000819050919050565b620001f983620001bc565b620002116200020882620001e4565b84845462000152565b825550505050565b600090565b6200022862000219565b62000235818484620001ee565b505050565b5b818110156200025d57620002516000826200021e565b6001810190506200023b565b5050565b601f821115620002ac57620002768162000120565b620002818462000135565b8101602085101562000291578190505b620002a9620002a08562000135565b8301826200023a565b50505b505050565b600082821c905092915050565b6000620002d160001984600802620002b1565b1980831691505092915050565b6000620002ec8383620002be565b9150826002028217905092915050565b620003078262000082565b67ffffffffffffffff8111156200032357620003226200008d565b5b6200032f8254620000eb565b6200033c82828562000261565b600060209050601f8311600181146200037457600084156200035f578287015190505b6200036b8582620002de565b865550620003db565b601f198416620003848662000120565b60005b82811015620003ae5784890151825560018201915060208501945060208101905062000387565b86831015620003ce5784890151620003ca601f891682620002be565b8355505b6001600288020188555050505b505050505050565b611e3880620003f36000396000f3fe6080604052600436106101185760003560e01c806353db7e77116100a05780639f4216e8116100645780639f4216e814610425578063c5ee74eb14610462578063cb61bd8c1461046c578063dc07067114610497578063fa52c7d8146104a157610164565b806353db7e771461033b5780636694ba611461036657806372e24fdd1461039157806373a8b6c8146103bc578063860734fb146103e557610164565b8063194a4e7e116100e7578063194a4e7e146102685780631b2d6a7c146102935780632b4e8413146102bc578063455c928c146102e757806353241b4f146102fe57610164565b80630b4805d3146101aa5780630b85000d146101e75780630ed337ad14610212578063139f29a11461023d57610164565b366101645761c350341015610162576040517f08c379a000000000000000000000000000000000000000000000000000000000815260040161015990611327565b60405180910390fd5b005b6040518060400160405280601e81526020017f46616c6c6261636b2066756e6374696f6e206973206578656375746564210000815250600090816101a89190611597565b005b3480156101b657600080fd5b506101d160048036038101906101cc91906116cc565b6104e0565b6040516101de9190611708565b60405180910390f35b3480156101f357600080fd5b506101fc6104f8565b6040516102099190611708565b60405180910390f35b34801561021e57600080fd5b506102276104fe565b6040516102349190611708565b60405180910390f35b34801561024957600080fd5b50610252610504565b60405161025f9190611708565b60405180910390f35b34801561027457600080fd5b5061027d61050a565b60405161028a9190611708565b60405180910390f35b34801561029f57600080fd5b506102ba60048036038101906102b59190611774565b610510565b005b3480156102c857600080fd5b506102d161064c565b6040516102de9190611708565b60405180910390f35b3480156102f357600080fd5b506102fc610652565b005b34801561030a57600080fd5b50610325600480360381019061032091906117b4565b6107cb565b60405161033291906117fc565b60405180910390f35b34801561034757600080fd5b50610350610835565b60405161035d9190611708565b60405180910390f35b34801561037257600080fd5b5061037b61083b565b6040516103889190611708565b60405180910390f35b34801561039d57600080fd5b506103a6610841565b6040516103b39190611708565b60405180910390f35b3480156103c857600080fd5b506103e360048036038101906103de9190611817565b610847565b005b3480156103f157600080fd5b5061040c600480360381019061040791906117b4565b610b85565b60405161041c94939291906118ce565b60405180910390f35b34801561043157600080fd5b5061044c600480360381019061044791906117b4565b610bc2565b6040516104599190611922565b60405180910390f35b61046a610bf5565b005b34801561047857600080fd5b50610481610dd3565b60405161048e9190611708565b60405180910390f35b61049f610dd9565b005b3480156104ad57600080fd5b506104c860048036038101906104c391906116cc565b61106b565b6040516104d79392919061195e565b60405180910390f35b600d6020528060005260406000206000915090505481565b60045481565b60095481565b60085481565b60025481565b3373ffffffffffffffffffffffffffffffffffffffff16600b60003373ffffffffffffffffffffffffffffffffffffffff1673ffffffffffffffffffffffffffffffffffffffff16815260200190815260200160002060000160009054906101000a900473ffffffffffffffffffffffffffffffffffffffff1673ffffffffffffffffffffffffffffffffffffffff16146105d7576040517fec752d2a00000000000000000000000000000000000000000000000000000000815260040160405180910390fd5b81600a6000600954815260200190815260200160002060000160006101000a81548160ff0219169083600581111561061257610611611857565b5b021790555080600a60006009600081548092919061062f906119c4565b919050558152602001908152602001600020600301819055505050565b60075481565b6000600d60003373ffffffffffffffffffffffffffffffffffffffff1673ffffffffffffffffffffffffffffffffffffffff16815260200190815260200160002054146106d4576040517f08c379a00000000000000000000000000000000000000000000000000000000081526004016106cb90611a58565b60405180910390fd5b600754600d60003373ffffffffffffffffffffffffffffffffffffffff1673ffffffffffffffffffffffffffffffffffffffff1681526020019081526020016000208190555033600c600060076000815480929190610732906119c4565b91905055815260200190815260200160002060006101000a81548173ffffffffffffffffffffffffffffffffffffffff021916908373ffffffffffffffffffffffffffffffffffffffff1602179055507ff9ac505b144a1879609b52f02d3441e478cdd9c19c5d198a2712ac5184ecef673360016007546107b39190611a78565b6040516107c1929190611aac565b60405180910390a1565b6000600a600083815260200190815260200160002060040160003373ffffffffffffffffffffffffffffffffffffffff1673ffffffffffffffffffffffffffffffffffffffff16815260200190815260200160002060009054906101000a900460ff169050919050565b60015481565b60035481565b60065481565b3373ffffffffffffffffffffffffffffffffffffffff16600b60003373ffffffffffffffffffffffffffffffffffffffff1673ffffffffffffffffffffffffffffffffffffffff16815260200190815260200160002060000160009054906101000a900473ffffffffffffffffffffffffffffffffffffffff1673ffffffffffffffffffffffffffffffffffffffff161461090e576040517fec752d2a00000000000000000000000000000000000000000000000000000000815260040160405180910390fd5b60001515600a600084815260200190815260200160002060040160003373ffffffffffffffffffffffffffffffffffffffff1673ffffffffffffffffffffffffffffffffffffffff16815260200190815260200160002060009054906101000a900460ff161515146109b5576040517f08c379a00000000000000000000000000000000000000000000000000000000081526004016109ac90611b21565b60405180910390fd5b600181036109ee57600a600083815260200190815260200160002060010160008154809291906109e4906119c4565b9190505550610a24565b60028103610a2357600a60008381526020019081526020016000206002016000815480929190610a1d906119c4565b91905055505b5b6001600a600084815260200190815260200160002060040160003373ffffffffffffffffffffffffffffffffffffffff1673ffffffffffffffffffffffffffffffffffffffff16815260200190815260200160002060006101000a81548160ff0219169083151502179055506005546008546064600a600086815260200190815260200160002060010154610ab99190611b41565b610ac39190611bb2565b10610b1057610b0b600a600084815260200190815260200160002060000160009054906101000a900460ff16600a6000858152602001908152602001600020600301546110c2565b610b81565b6005546008546064600a600086815260200190815260200160002060020154610b399190611b41565b610b439190611bb2565b10610b80577f91944425928af46b7fe486868fbdd04cd88c32637b4c91612caa1781c1b91f8c82604051610b779190611708565b60405180910390a15b5b5050565b600a6020528060005260406000206000915090508060000160009054906101000a900460ff16908060010154908060020154908060030154905084565b600c6020528060005260406000206000915054906101000a900473ffffffffffffffffffffffffffffffffffffffff1681565b30670de0b6b3a76400008173ffffffffffffffffffffffffffffffffffffffff163111610c4e576040517f47108e3e00000000000000000000000000000000000000000000000000000000815260040160405180910390fd5b3373ffffffffffffffffffffffffffffffffffffffff16600b60003373ffffffffffffffffffffffffffffffffffffffff1673ffffffffffffffffffffffffffffffffffffffff16815260200190815260200160002060000160009054906101000a900473ffffffffffffffffffffffffffffffffffffffff1673ffffffffffffffffffffffffffffffffffffffff1614610d1e576040517f08c379a0000000000000000000000000000000000000000000000000000000008152600401610d1590611c2f565b60405180910390fd5b6000670de0b6b3a76400009050610d353382611216565b6000600b60003373ffffffffffffffffffffffffffffffffffffffff1673ffffffffffffffffffffffffffffffffffffffff16815260200190815260200160002060000160006101000a81548173ffffffffffffffffffffffffffffffffffffffff021916908373ffffffffffffffffffffffffffffffffffffffff16021790555060086000815480929190610dca90611c4f565b91905055505050565b60055481565b6000600d60003373ffffffffffffffffffffffffffffffffffffffff1673ffffffffffffffffffffffffffffffffffffffff1681526020019081526020016000205403610e52576040517f3a70817d00000000000000000000000000000000000000000000000000000000815260040160405180910390fd5b33670de0b6b3a76400008173ffffffffffffffffffffffffffffffffffffffff163111610eab576040517f47108e3e00000000000000000000000000000000000000000000000000000000815260040160405180910390fd5b670de0b6b3a76400003414610ef5576040517f08c379a0000000000000000000000000000000000000000000000000000000008152600401610eec90611cc4565b60405180910390fd5b3373ffffffffffffffffffffffffffffffffffffffff16600b60003373ffffffffffffffffffffffffffffffffffffffff1673ffffffffffffffffffffffffffffffffffffffff16815260200190815260200160002060000160009054906101000a900473ffffffffffffffffffffffffffffffffffffffff1673ffffffffffffffffffffffffffffffffffffffff1603610fc5576040517f08c379a0000000000000000000000000000000000000000000000000000000008152600401610fbc90611d30565b60405180910390fd5b610fcf3034611216565b33600b60003373ffffffffffffffffffffffffffffffffffffffff1673ffffffffffffffffffffffffffffffffffffffff16815260200190815260200160002060000160006101000a81548173ffffffffffffffffffffffffffffffffffffffff021916908373ffffffffffffffffffffffffffffffffffffffff16021790555060086000815480929190611063906119c4565b919050555050565b600b6020528060005260406000206000915090508060000160009054906101000a900473ffffffffffffffffffffffffffffffffffffffff16908060000160149054906101000a900460ff16908060010154905083565b600060058111156110d6576110d5611857565b5b8260058111156110e9576110e8611857565b5b036110fa5780600281905550611212565b6001600581111561110e5761110d611857565b5b82600581111561112157611120611857565b5b036111325780600381905550611211565b6002600581111561114657611145611857565b5b82600581111561115957611158611857565b5b0361116a5780600481905550611210565b6003600581111561117e5761117d611857565b5b82600581111561119157611190611857565b5b036111a2578060058190555061120f565b600460058111156111b6576111b5611857565b5b8260058111156111c9576111c8611857565b5b036111da578060018190555061120e565b6005808111156111ed576111ec611857565b5b826005811115611200576111ff611857565b5b0361120d57806006819055505b5b5b5b5b5b5050565b6000808373ffffffffffffffffffffffffffffffffffffffff168360405161123d90611d81565b60006040518083038185875af1925050503d806000811461127a576040519150601f19603f3d011682016040523d82523d6000602084013e61127f565b606091505b5091509150816112c4576040517f08c379a00000000000000000000000000000000000000000000000000000000081526004016112bb90611de2565b60405180910390fd5b50505050565b600082825260208201905092915050565b7f796f752063616e27742073656e64206c657373207468616e2035306b20776569600082015250565b60006113116020836112ca565b915061131c826112db565b602082019050919050565b6000602082019050818103600083015261134081611304565b9050919050565b600081519050919050565b7f4e487b7100000000000000000000000000000000000000000000000000000000600052604160045260246000fd5b7f4e487b7100000000000000000000000000000000000000000000000000000000600052602260045260246000fd5b600060028204905060018216806113c857607f821691505b6020821081036113db576113da611381565b5b50919050565b60008190508160005260206000209050919050565b60006020601f8301049050919050565b600082821b905092915050565b6000600883026114437fffffffffffffffffffffffffffffffffffffffffffffffffffffffffffffffff82611406565b61144d8683611406565b95508019841693508086168417925050509392505050565b6000819050919050565b6000819050919050565b600061149461148f61148a84611465565b61146f565b611465565b9050919050565b6000819050919050565b6114ae83611479565b6114c26114ba8261149b565b848454611413565b825550505050565b600090565b6114d76114ca565b6114e28184846114a5565b505050565b5b81811015611506576114fb6000826114cf565b6001810190506114e8565b5050565b601f82111561154b5761151c816113e1565b611525846113f6565b81016020851015611534578190505b611548611540856113f6565b8301826114e7565b50505b505050565b600082821c905092915050565b600061156e60001984600802611550565b1980831691505092915050565b6000611587838361155d565b9150826002028217905092915050565b6115a082611347565b67ffffffffffffffff8111156115b9576115b8611352565b5b6115c382546113b0565b6115ce82828561150a565b600060209050601f83116001811461160157600084156115ef578287015190505b6115f9858261157b565b865550611661565b601f19841661160f866113e1565b60005b8281101561163757848901518255600182019150602085019450602081019050611612565b868310156116545784890151611650601f89168261155d565b8355505b6001600288020188555050505b505050505050565b600080fd5b600073ffffffffffffffffffffffffffffffffffffffff82169050919050565b60006116998261166e565b9050919050565b6116a98161168e565b81146116b457600080fd5b50565b6000813590506116c6816116a0565b92915050565b6000602082840312156116e2576116e1611669565b5b60006116f0848285016116b7565b91505092915050565b61170281611465565b82525050565b600060208201905061171d60008301846116f9565b92915050565b6006811061173057600080fd5b50565b60008135905061174281611723565b92915050565b61175181611465565b811461175c57600080fd5b50565b60008135905061176e81611748565b92915050565b6000806040838503121561178b5761178a611669565b5b600061179985828601611733565b92505060206117aa8582860161175f565b9150509250929050565b6000602082840312156117ca576117c9611669565b5b60006117d88482850161175f565b91505092915050565b60008115159050919050565b6117f6816117e1565b82525050565b600060208201905061181160008301846117ed565b92915050565b6000806040838503121561182e5761182d611669565b5b600061183c8582860161175f565b925050602061184d8582860161175f565b9150509250929050565b7f4e487b7100000000000000000000000000000000000000000000000000000000600052602160045260246000fd5b6006811061189757611896611857565b5b50565b60008190506118a882611886565b919050565b60006118b88261189a565b9050919050565b6118c8816118ad565b82525050565b60006080820190506118e360008301876118bf565b6118f060208301866116f9565b6118fd60408301856116f9565b61190a60608301846116f9565b95945050505050565b61191c8161168e565b82525050565b60006020820190506119376000830184611913565b92915050565b60006119488261166e565b9050919050565b6119588161193d565b82525050565b6000606082019050611973600083018661194f565b61198060208301856117ed565b61198d60408301846116f9565b949350505050565b7f4e487b7100000000000000000000000000000000000000000000000000000000600052601160045260246000fd5b60006119cf82611465565b91507fffffffffffffffffffffffffffffffffffffffffffffffffffffffffffffffff8203611a0157611a00611995565b5b600182019050919050565b7f7573657220616c72656164792065786973740000000000000000000000000000600082015250565b6000611a426012836112ca565b9150611a4d82611a0c565b602082019050919050565b60006020820190508181036000830152611a7181611a35565b9050919050565b6000611a8382611465565b9150611a8e83611465565b9250828203905081811115611aa657611aa5611995565b5b92915050565b6000604082019050611ac16000830185611913565b611ace60208301846116f9565b9392505050565b7f616c726561647920766f74656400000000000000000000000000000000000000600082015250565b6000611b0b600d836112ca565b9150611b1682611ad5565b602082019050919050565b60006020820190508181036000830152611b3a81611afe565b9050919050565b6000611b4c82611465565b9150611b5783611465565b9250828202611b6581611465565b91508282048414831517611b7c57611b7b611995565b5b5092915050565b7f4e487b7100000000000000000000000000000000000000000000000000000000600052601260045260246000fd5b6000611bbd82611465565b9150611bc883611465565b925082611bd857611bd7611b83565b5b828204905092915050565b7f596f7520617265206e6f742076616c696461746f727300000000000000000000600082015250565b6000611c196016836112ca565b9150611c2482611be3565b602082019050919050565b60006020820190508181036000830152611c4881611c0c565b9050919050565b6000611c5a82611465565b915060008203611c6d57611c6c611995565b5b600182039050919050565b7f73656e6420312065746800000000000000000000000000000000000000000000600082015250565b6000611cae600a836112ca565b9150611cb982611c78565b602082019050919050565b60006020820190508181036000830152611cdd81611ca1565b9050919050565b7f596f7520616c7265616479206172650000000000000000000000000000000000600082015250565b6000611d1a600f836112ca565b9150611d2582611ce4565b602082019050919050565b60006020820190508181036000830152611d4981611d0d565b9050919050565b600081905092915050565b50565b6000611d6b600083611d50565b9150611d7682611d5b565b600082019050919050565b6000611d8c82611d5e565b9150819050919050565b7f4661696c656420746f2073656e64204574686572000000000000000000000000600082015250565b6000611dcc6014836112ca565b9150611dd782611d96565b602082019050919050565b60006020820190508181036000830152611dfb81611dbf565b905091905056fea26469706673582212201046d5df8398fba48cee8d598fb12430e68f0681afb582b1b97517bb3d7547c664736f6c63430008150033","opcodes":"PUSH1 0x80 PUSH1 0x40 MSTORE PUSH1 0x40 MLOAD DUP1 PUSH1 0x40 ADD PUSH1 0x40 MSTORE DUP1 PUSH1 0xC DUP2 MSTORE PUSH1 0x20 ADD PUSH32 0x6566626C7671687362646C670000000000000000000000000000000000000000 DUP2 MSTORE POP PUSH1 0x0 SWAP1 DUP2 PUSH3 0x4A SWAP2 SWAP1 PUSH3 0x2FC JUMP JUMPDEST POP PUSH1 0x4 PUSH1 0x1 SSTORE PUSH1 0x96 PUSH1 0x2 SSTORE PUSH1 0x32 PUSH1 0x3 SSTORE PUSH1 0x55 PUSH1 0x4 SSTORE PUSH1 0x4B PUSH1 0x5 SSTORE PUSH1 0xA PUSH1 0x6 SSTORE PUSH1 0x1 PUSH1 0x7 SSTORE CALLVALUE DUP1 ISZERO PUSH3 0x7B JUMPI PUSH1 0x0 DUP1 REVERT JUMPDEST POP PUSH3 0x3E3 JUMP JUMPDEST PUSH1 0x0 DUP2 MLOAD SWAP1 POP SWAP2 SWAP1 POP JUMP JUMPDEST PUSH32 0x4E487B7100000000000000000000000000000000000000000000000000000000 PUSH1 0x0 MSTORE PUSH1 0x41 PUSH1 0x4 MSTORE PUSH1 0x24 PUSH1 0x0 REVERT JUMPDEST PUSH32 0x4E487B7100000000000000000000000000000000000000000000000000000000 PUSH1 0x0 MSTORE PUSH1 0x22 PUSH1 0x4 MSTORE PUSH1 0x24 PUSH1 0x0 REVERT JUMPDEST PUSH1 0x0 PUSH1 0x2 DUP3 DIV SWAP1 POP PUSH1 0x1 DUP3 AND DUP1 PUSH3 0x104 JUMPI PUSH1 0x7F DUP3 AND SWAP2 POP JUMPDEST PUSH1 0x20 DUP3 LT DUP2 SUB PUSH3 0x11A JUMPI PUSH3 0x119 PUSH3 0xBC JUMP JUMPDEST JUMPDEST POP SWAP2 SWAP1 POP JUMP JUMPDEST PUSH1 0x0 DUP2 SWAP1 POP DUP2 PUSH1 0x0 MSTORE PUSH1 0x20 PUSH1 0x0 KECCAK256 SWAP1 POP SWAP2 SWAP1 POP JUMP JUMPDEST PUSH1 0x0 PUSH1 0x20 PUSH1 0x1F DUP4 ADD DIV SWAP1 POP SWAP2 SWAP1 POP JUMP JUMPDEST PUSH1 0x0 DUP3 DUP3 SHL SWAP1 POP SWAP3 SWAP2 POP POP JUMP JUMPDEST PUSH1 0x0 PUSH1 0x8 DUP4 MUL PUSH3 0x184 PUSH32 0xFFFFFFFFFFFFFFFFFFFFFFFFFFFFFFFFFFFFFFFFFFFFFFFFFFFFFFFFFFFFFFFF DUP3 PUSH3 0x145 JUMP JUMPDEST PUSH3 0x190 DUP7 DUP4 PUSH3 0x145 JUMP JUMPDEST SWAP6 POP DUP1 NOT DUP5 AND SWAP4 POP DUP1 DUP7 AND DUP5 OR SWAP3 POP POP POP SWAP4 SWAP3 POP POP POP JUMP JUMPDEST PUSH1 0x0 DUP2 SWAP1 POP SWAP2 SWAP1 POP JUMP JUMPDEST PUSH1 0x0 DUP2 SWAP1 POP SWAP2 SWAP1 POP JUMP JUMPDEST PUSH1 0x0 PUSH3 0x1DD PUSH3 0x1D7 PUSH3 0x1D1 DUP5 PUSH3 0x1A8 JUMP JUMPDEST PUSH3 0x1B2 JUMP JUMPDEST PUSH3 0x1A8 JUMP JUMPDEST SWAP1 POP SWAP2 SWAP1 POP JUMP JUMPDEST PUSH1 0x0 DUP2 SWAP1 POP SWAP2 SWAP1 POP JUMP JUMPDEST PUSH3 0x1F9 DUP4 PUSH3 0x1BC JUMP JUMPDEST PUSH3 0x211 PUSH3 0x208 DUP3 PUSH3 0x1E4 JUMP JUMPDEST DUP5 DUP5 SLOAD PUSH3 0x152 JUMP JUMPDEST DUP3 SSTORE POP POP POP POP JUMP JUMPDEST PUSH1 0x0 SWAP1 JUMP JUMPDEST PUSH3 0x228 PUSH3 0x219 JUMP JUMPDEST PUSH3 0x235 DUP2 DUP5 DUP5 PUSH3 0x1EE JUMP JUMPDEST POP POP POP JUMP JUMPDEST JUMPDEST DUP2 DUP2 LT ISZERO PUSH3 0x25D JUMPI PUSH3 0x251 PUSH1 0x0 DUP3 PUSH3 0x21E JUMP JUMPDEST PUSH1 0x1 DUP2 ADD SWAP1 POP PUSH3 0x23B JUMP JUMPDEST POP POP JUMP JUMPDEST PUSH1 0x1F DUP3 GT ISZERO PUSH3 0x2AC JUMPI PUSH3 0x276 DUP2 PUSH3 0x120 JUMP JUMPDEST PUSH3 0x281 DUP5 PUSH3 0x135 JUMP JUMPDEST DUP2 ADD PUSH1 0x20 DUP6 LT ISZERO PUSH3 0x291 JUMPI DUP2 SWAP1 POP JUMPDEST PUSH3 0x2A9 PUSH3 0x2A0 DUP6 PUSH3 0x135 JUMP JUMPDEST DUP4 ADD DUP3 PUSH3 0x23A JUMP JUMPDEST POP POP JUMPDEST POP POP POP JUMP JUMPDEST PUSH1 0x0 DUP3 DUP3 SHR SWAP1 POP SWAP3 SWAP2 POP POP JUMP JUMPDEST PUSH1 0x0 PUSH3 0x2D1 PUSH1 0x0 NOT DUP5 PUSH1 0x8 MUL PUSH3 0x2B1 JUMP JUMPDEST NOT DUP1 DUP4 AND SWAP2 POP POP SWAP3 SWAP2 POP POP JUMP JUMPDEST PUSH1 0x0 PUSH3 0x2EC DUP4 DUP4 PUSH3 0x2BE JUMP JUMPDEST SWAP2 POP DUP3 PUSH1 0x2 MUL DUP3 OR SWAP1 POP SWAP3 SWAP2 POP POP JUMP JUMPDEST PUSH3 0x307 DUP3 PUSH3 0x82 JUMP JUMPDEST PUSH8 0xFFFFFFFFFFFFFFFF DUP2 GT ISZERO PUSH3 0x323 JUMPI PUSH3 0x322 PUSH3 0x8D JUMP JUMPDEST JUMPDEST PUSH3 0x32F DUP3 SLOAD PUSH3 0xEB JUMP JUMPDEST PUSH3 0x33C DUP3 DUP3 DUP6 PUSH3 0x261 JUMP JUMPDEST PUSH1 0x0 PUSH1 0x20 SWAP1 POP PUSH1 0x1F DUP4 GT PUSH1 0x1 DUP2 EQ PUSH3 0x374 JUMPI PUSH1 0x0 DUP5 ISZERO PUSH3 0x35F JUMPI DUP3 DUP8 ADD MLOAD SWAP1 POP JUMPDEST PUSH3 0x36B DUP6 DUP3 PUSH3 0x2DE JUMP JUMPDEST DUP7 SSTORE POP PUSH3 0x3DB JUMP JUMPDEST PUSH1 0x1F NOT DUP5 AND PUSH3 0x384 DUP7 PUSH3 0x120 JUMP JUMPDEST PUSH1 0x0 JUMPDEST DUP3 DUP2 LT ISZERO PUSH3 0x3AE JUMPI DUP5 DUP10 ADD MLOAD DUP3 SSTORE PUSH1 0x1 DUP3 ADD SWAP2 POP PUSH1 0x20 DUP6 ADD SWAP5 POP PUSH1 0x20 DUP2 ADD SWAP1 POP PUSH3 0x387 JUMP JUMPDEST DUP7 DUP4 LT ISZERO PUSH3 0x3CE JUMPI DUP5 DUP10 ADD MLOAD PUSH3 0x3CA PUSH1 0x1F DUP10 AND DUP3 PUSH3 0x2BE JUMP JUMPDEST DUP4 SSTORE POP JUMPDEST PUSH1 0x1 PUSH1 0x2 DUP9 MUL ADD DUP9 SSTORE POP POP POP JUMPDEST POP POP POP POP POP POP JUMP JUMPDEST PUSH2 0x1E38 DUP1 PUSH3 0x3F3 PUSH1 0x0 CODECOPY PUSH1 0x0 RETURN INVALID PUSH1 0x80 PUSH1 0x40 MSTORE PUSH1 0x4 CALLDATASIZE LT PUSH2 0x118 JUMPI PUSH1 0x0 CALLDATALOAD PUSH1 0xE0 SHR DUP1 PUSH4 0x53DB7E77 GT PUSH2 0xA0 JUMPI DUP1 PUSH4 0x9F4216E8 GT PUSH2 0x64 JUMPI DUP1 PUSH4 0x9F4216E8 EQ PUSH2 0x425 JUMPI DUP1 PUSH4 0xC5EE74EB EQ PUSH2 0x462 JUMPI DUP1 PUSH4 0xCB61BD8C EQ PUSH2 0x46C JUMPI DUP1 PUSH4 0xDC070671 EQ PUSH2 0x497 JUMPI DUP1 PUSH4 0xFA52C7D8 EQ PUSH2 0x4A1 JUMPI PUSH2 0x164 JUMP JUMPDEST DUP1 PUSH4 0x53DB7E77 EQ PUSH2 0x33B JUMPI DUP1 PUSH4 0x6694BA61 EQ PUSH2 0x366 JUMPI DUP1 PUSH4 0x72E24FDD EQ PUSH2 0x391 JUMPI DUP1 PUSH4 0x73A8B6C8 EQ PUSH2 0x3BC JUMPI DUP1 PUSH4 0x860734FB EQ PUSH2 0x3E5 JUMPI PUSH2 0x164 JUMP JUMPDEST DUP1 PUSH4 0x194A4E7E GT PUSH2 0xE7 JUMPI DUP1 PUSH4 0x194A4E7E EQ PUSH2 0x268 JUMPI DUP1 PUSH4 0x1B2D6A7C EQ PUSH2 0x293 JUMPI DUP1 PUSH4 0x2B4E8413 EQ PUSH2 0x2BC JUMPI DUP1 PUSH4 0x455C928C EQ PUSH2 0x2E7 JUMPI DUP1 PUSH4 0x53241B4F EQ PUSH2 0x2FE JUMPI PUSH2 0x164 JUMP JUMPDEST DUP1 PUSH4 0xB4805D3 EQ PUSH2 0x1AA JUMPI DUP1 PUSH4 0xB85000D EQ PUSH2 0x1E7 JUMPI DUP1 PUSH4 0xED337AD EQ PUSH2 0x212 JUMPI DUP1 PUSH4 0x139F29A1 EQ PUSH2 0x23D JUMPI PUSH2 0x164 JUMP JUMPDEST CALLDATASIZE PUSH2 0x164 JUMPI PUSH2 0xC350 CALLVALUE LT ISZERO PUSH2 0x162 JUMPI PUSH1 0x40 MLOAD PUSH32 0x8C379A000000000000000000000000000000000000000000000000000000000 DUP2 MSTORE PUSH1 0x4 ADD PUSH2 0x159 SWAP1 PUSH2 0x1327 JUMP JUMPDEST PUSH1 0x40 MLOAD DUP1 SWAP2 SUB SWAP1 REVERT JUMPDEST STOP JUMPDEST PUSH1 0x40 MLOAD DUP1 PUSH1 0x40 ADD PUSH1 0x40 MSTORE DUP1 PUSH1 0x1E DUP2 MSTORE PUSH1 0x20 ADD PUSH32 0x46616C6C6261636B2066756E6374696F6E206973206578656375746564210000 DUP2 MSTORE POP PUSH1 0x0 SWAP1 DUP2 PUSH2 0x1A8 SWAP2 SWAP1 PUSH2 0x1597 JUMP JUMPDEST STOP JUMPDEST CALLVALUE DUP1 ISZERO PUSH2 0x1B6 JUMPI PUSH1 0x0 DUP1 REVERT JUMPDEST POP PUSH2 0x1D1 PUSH1 0x4 DUP1 CALLDATASIZE SUB DUP2 ADD SWAP1 PUSH2 0x1CC SWAP2 SWAP1 PUSH2 0x16CC JUMP JUMPDEST PUSH2 0x4E0 JUMP JUMPDEST PUSH1 0x40 MLOAD PUSH2 0x1DE SWAP2 SWAP1 PUSH2 0x1708 JUMP JUMPDEST PUSH1 0x40 MLOAD DUP1 SWAP2 SUB SWAP1 RETURN JUMPDEST CALLVALUE DUP1 ISZERO PUSH2 0x1F3 JUMPI PUSH1 0x0 DUP1 REVERT JUMPDEST POP PUSH2 0x1FC PUSH2 0x4F8 JUMP JUMPDEST PUSH1 0x40 MLOAD PUSH2 0x209 SWAP2 SWAP1 PUSH2 0x1708 JUMP JUMPDEST PUSH1 0x40 MLOAD DUP1 SWAP2 SUB SWAP1 RETURN JUMPDEST CALLVALUE DUP1 ISZERO PUSH2 0x21E JUMPI PUSH1 0x0 DUP1 REVERT JUMPDEST POP PUSH2 0x227 PUSH2 0x4FE JUMP JUMPDEST PUSH1 0x40 MLOAD PUSH2 0x234 SWAP2 SWAP1 PUSH2 0x1708 JUMP JUMPDEST PUSH1 0x40 MLOAD DUP1 SWAP2 SUB SWAP1 RETURN JUMPDEST CALLVALUE DUP1 ISZERO PUSH2 0x249 JUMPI PUSH1 0x0 DUP1 REVERT JUMPDEST POP PUSH2 0x252 PUSH2 0x504 JUMP JUMPDEST PUSH1 0x40 MLOAD PUSH2 0x25F SWAP2 SWAP1 PUSH2 0x1708 JUMP JUMPDEST PUSH1 0x40 MLOAD DUP1 SWAP2 SUB SWAP1 RETURN JUMPDEST CALLVALUE DUP1 ISZERO PUSH2 0x274 JUMPI PUSH1 0x0 DUP1 REVERT JUMPDEST POP PUSH2 0x27D PUSH2 0x50A JUMP JUMPDEST PUSH1 0x40 MLOAD PUSH2 0x28A SWAP2 SWAP1 PUSH2 0x1708 JUMP JUMPDEST PUSH1 0x40 MLOAD DUP1 SWAP2 SUB SWAP1 RETURN JUMPDEST CALLVALUE DUP1 ISZERO PUSH2 0x29F JUMPI PUSH1 0x0 DUP1 REVERT JUMPDEST POP PUSH2 0x2BA PUSH1 0x4 DUP1 CALLDATASIZE SUB DUP2 ADD SWAP1 PUSH2 0x2B5 SWAP2 SWAP1 PUSH2 0x1774 JUMP JUMPDEST PUSH2 0x510 JUMP JUMPDEST STOP JUMPDEST CALLVALUE DUP1 ISZERO PUSH2 0x2C8 JUMPI PUSH1 0x0 DUP1 REVERT JUMPDEST POP PUSH2 0x2D1 PUSH2 0x64C JUMP JUMPDEST PUSH1 0x40 MLOAD PUSH2 0x2DE SWAP2 SWAP1 PUSH2 0x1708 JUMP JUMPDEST PUSH1 0x40 MLOAD DUP1 SWAP2 SUB SWAP1 RETURN JUMPDEST CALLVALUE DUP1 ISZERO PUSH2 0x2F3 JUMPI PUSH1 0x0 DUP1 REVERT JUMPDEST POP PUSH2 0x2FC PUSH2 0x652 JUMP JUMPDEST STOP JUMPDEST CALLVALUE DUP1 ISZERO PUSH2 0x30A JUMPI PUSH1 0x0 DUP1 REVERT JUMPDEST POP PUSH2 0x325 PUSH1 0x4 DUP1 CALLDATASIZE SUB DUP2 ADD SWAP1 PUSH2 0x320 SWAP2 SWAP1 PUSH2 0x17B4 JUMP JUMPDEST PUSH2 0x7CB JUMP JUMPDEST PUSH1 0x40 MLOAD PUSH2 0x332 SWAP2 SWAP1 PUSH2 0x17FC JUMP JUMPDEST PUSH1 0x40 MLOAD DUP1 SWAP2 SUB SWAP1 RETURN JUMPDEST CALLVALUE DUP1 ISZERO PUSH2 0x347 JUMPI PUSH1 0x0 DUP1 REVERT JUMPDEST POP PUSH2 0x350 PUSH2 0x835 JUMP JUMPDEST PUSH1 0x40 MLOAD PUSH2 0x35D SWAP2 SWAP1 PUSH2 0x1708 JUMP JUMPDEST PUSH1 0x40 MLOAD DUP1 SWAP2 SUB SWAP1 RETURN JUMPDEST CALLVALUE DUP1 ISZERO PUSH2 0x372 JUMPI PUSH1 0x0 DUP1 REVERT JUMPDEST POP PUSH2 0x37B PUSH2 0x83B JUMP JUMPDEST PUSH1 0x40 MLOAD PUSH2 0x388 SWAP2 SWAP1 PUSH2 0x1708 JUMP JUMPDEST PUSH1 0x40 MLOAD DUP1 SWAP2 SUB SWAP1 RETURN JUMPDEST CALLVALUE DUP1 ISZERO PUSH2 0x39D JUMPI PUSH1 0x0 DUP1 REVERT JUMPDEST POP PUSH2 0x3A6 PUSH2 0x841 JUMP JUMPDEST PUSH1 0x40 MLOAD PUSH2 0x3B3 SWAP2 SWAP1 PUSH2 0x1708 JUMP JUMPDEST PUSH1 0x40 MLOAD DUP1 SWAP2 SUB SWAP1 RETURN JUMPDEST CALLVALUE DUP1 ISZERO PUSH2 0x3C8 JUMPI PUSH1 0x0 DUP1 REVERT JUMPDEST POP PUSH2 0x3E3 PUSH1 0x4 DUP1 CALLDATASIZE SUB DUP2 ADD SWAP1 PUSH2 0x3DE SWAP2 SWAP1 PUSH2 0x1817 JUMP JUMPDEST PUSH2 0x847 JUMP JUMPDEST STOP JUMPDEST CALLVALUE DUP1 ISZERO PUSH2 0x3F1 JUMPI PUSH1 0x0 DUP1 REVERT JUMPDEST POP PUSH2 0x40C PUSH1 0x4 DUP1 CALLDATASIZE SUB DUP2 ADD SWAP1 PUSH2 0x407 SWAP2 SWAP1 PUSH2 0x17B4 JUMP JUMPDEST PUSH2 0xB85 JUMP JUMPDEST PUSH1 0x40 MLOAD PUSH2 0x41C SWAP5 SWAP4 SWAP3 SWAP2 SWAP1 PUSH2 0x18CE JUMP JUMPDEST PUSH1 0x40 MLOAD DUP1 SWAP2 SUB SWAP1 RETURN JUMPDEST CALLVALUE DUP1 ISZERO PUSH2 0x431 JUMPI PUSH1 0x0 DUP1 REVERT JUMPDEST POP PUSH2 0x44C PUSH1 0x4 DUP1 CALLDATASIZE SUB DUP2 ADD SWAP1 PUSH2 0x447 SWAP2 SWAP1 PUSH2 0x17B4 JUMP JUMPDEST PUSH2 0xBC2 JUMP JUMPDEST PUSH1 0x40 MLOAD PUSH2 0x459 SWAP2 SWAP1 PUSH2 0x1922 JUMP JUMPDEST PUSH1 0x40 MLOAD DUP1 SWAP2 SUB SWAP1 RETURN JUMPDEST PUSH2 0x46A PUSH2 0xBF5 JUMP JUMPDEST STOP JUMPDEST CALLVALUE DUP1 ISZERO PUSH2 0x478 JUMPI PUSH1 0x0 DUP1 REVERT JUMPDEST POP PUSH2 0x481 PUSH2 0xDD3 JUMP JUMPDEST PUSH1 0x40 MLOAD PUSH2 0x48E SWAP2 SWAP1 PUSH2 0x1708 JUMP JUMPDEST PUSH1 0x40 MLOAD DUP1 SWAP2 SUB SWAP1 RETURN JUMPDEST PUSH2 0x49F PUSH2 0xDD9 JUMP JUMPDEST STOP JUMPDEST CALLVALUE DUP1 ISZERO PUSH2 0x4AD JUMPI PUSH1 0x0 DUP1 REVERT JUMPDEST POP PUSH2 0x4C8 PUSH1 0x4 DUP1 CALLDATASIZE SUB DUP2 ADD SWAP1 PUSH2 0x4C3 SWAP2 SWAP1 PUSH2 0x16CC JUMP JUMPDEST PUSH2 0x106B JUMP JUMPDEST PUSH1 0x40 MLOAD PUSH2 0x4D7 SWAP4 SWAP3 SWAP2 SWAP1 PUSH2 0x195E JUMP JUMPDEST PUSH1 0x40 MLOAD DUP1 SWAP2 SUB SWAP1 RETURN JUMPDEST PUSH1 0xD PUSH1 0x20 MSTORE DUP1 PUSH1 0x0 MSTORE PUSH1 0x40 PUSH1 0x0 KECCAK256 PUSH1 0x0 SWAP2 POP SWAP1 POP SLOAD DUP2 JUMP JUMPDEST PUSH1 0x4 SLOAD DUP2 JUMP JUMPDEST PUSH1 0x9 SLOAD DUP2 JUMP JUMPDEST PUSH1 0x8 SLOAD DUP2 JUMP JUMPDEST PUSH1 0x2 SLOAD DUP2 JUMP JUMPDEST CALLER PUSH20 0xFFFFFFFFFFFFFFFFFFFFFFFFFFFFFFFFFFFFFFFF AND PUSH1 0xB PUSH1 0x0 CALLER PUSH20 0xFFFFFFFFFFFFFFFFFFFFFFFFFFFFFFFFFFFFFFFF AND PUSH20 0xFFFFFFFFFFFFFFFFFFFFFFFFFFFFFFFFFFFFFFFF AND DUP2 MSTORE PUSH1 0x20 ADD SWAP1 DUP2 MSTORE PUSH1 0x20 ADD PUSH1 0x0 KECCAK256 PUSH1 0x0 ADD PUSH1 0x0 SWAP1 SLOAD SWAP1 PUSH2 0x100 EXP SWAP1 DIV PUSH20 0xFFFFFFFFFFFFFFFFFFFFFFFFFFFFFFFFFFFFFFFF AND PUSH20 0xFFFFFFFFFFFFFFFFFFFFFFFFFFFFFFFFFFFFFFFF AND EQ PUSH2 0x5D7 JUMPI PUSH1 0x40 MLOAD PUSH32 0xEC752D2A00000000000000000000000000000000000000000000000000000000 DUP2 MSTORE PUSH1 0x4 ADD PUSH1 0x40 MLOAD DUP1 SWAP2 SUB SWAP1 REVERT JUMPDEST DUP2 PUSH1 0xA PUSH1 0x0 PUSH1 0x9 SLOAD DUP2 MSTORE PUSH1 0x20 ADD SWAP1 DUP2 MSTORE PUSH1 0x20 ADD PUSH1 0x0 KECCAK256 PUSH1 0x0 ADD PUSH1 0x0 PUSH2 0x100 EXP DUP2 SLOAD DUP2 PUSH1 0xFF MUL NOT AND SWAP1 DUP4 PUSH1 0x5 DUP2 GT ISZERO PUSH2 0x612 JUMPI PUSH2 0x611 PUSH2 0x1857 JUMP JUMPDEST JUMPDEST MUL OR SWAP1 SSTORE POP DUP1 PUSH1 0xA PUSH1 0x0 PUSH1 0x9 PUSH1 0x0 DUP2 SLOAD DUP1 SWAP3 SWAP2 SWAP1 PUSH2 0x62F SWAP1 PUSH2 0x19C4 JUMP JUMPDEST SWAP2 SWAP1 POP SSTORE DUP2 MSTORE PUSH1 0x20 ADD SWAP1 DUP2 MSTORE PUSH1 0x20 ADD PUSH1 0x0 KECCAK256 PUSH1 0x3 ADD DUP2 SWAP1 SSTORE POP POP POP JUMP JUMPDEST PUSH1 0x7 SLOAD DUP2 JUMP JUMPDEST PUSH1 0x0 PUSH1 0xD PUSH1 0x0 CALLER PUSH20 0xFFFFFFFFFFFFFFFFFFFFFFFFFFFFFFFFFFFFFFFF AND PUSH20 0xFFFFFFFFFFFFFFFFFFFFFFFFFFFFFFFFFFFFFFFF AND DUP2 MSTORE PUSH1 0x20 ADD SWAP1 DUP2 MSTORE PUSH1 0x20 ADD PUSH1 0x0 KECCAK256 SLOAD EQ PUSH2 0x6D4 JUMPI PUSH1 0x40 MLOAD PUSH32 0x8C379A000000000000000000000000000000000000000000000000000000000 DUP2 MSTORE PUSH1 0x4 ADD PUSH2 0x6CB SWAP1 PUSH2 0x1A58 JUMP JUMPDEST PUSH1 0x40 MLOAD DUP1 SWAP2 SUB SWAP1 REVERT JUMPDEST PUSH1 0x7 SLOAD PUSH1 0xD PUSH1 0x0 CALLER PUSH20 0xFFFFFFFFFFFFFFFFFFFFFFFFFFFFFFFFFFFFFFFF AND PUSH20 0xFFFFFFFFFFFFFFFFFFFFFFFFFFFFFFFFFFFFFFFF AND DUP2 MSTORE PUSH1 0x20 ADD SWAP1 DUP2 MSTORE PUSH1 0x20 ADD PUSH1 0x0 KECCAK256 DUP2 SWAP1 SSTORE POP CALLER PUSH1 0xC PUSH1 0x0 PUSH1 0x7 PUSH1 0x0 DUP2 SLOAD DUP1 SWAP3 SWAP2 SWAP1 PUSH2 0x732 SWAP1 PUSH2 0x19C4 JUMP JUMPDEST SWAP2 SWAP1 POP SSTORE DUP2 MSTORE PUSH1 0x20 ADD SWAP1 DUP2 MSTORE PUSH1 0x20 ADD PUSH1 0x0 KECCAK256 PUSH1 0x0 PUSH2 0x100 EXP DUP2 SLOAD DUP2 PUSH20 0xFFFFFFFFFFFFFFFFFFFFFFFFFFFFFFFFFFFFFFFF MUL NOT AND SWAP1 DUP4 PUSH20 0xFFFFFFFFFFFFFFFFFFFFFFFFFFFFFFFFFFFFFFFF AND MUL OR SWAP1 SSTORE POP PUSH32 0xF9AC505B144A1879609B52F02D3441E478CDD9C19C5D198A2712AC5184ECEF67 CALLER PUSH1 0x1 PUSH1 0x7 SLOAD PUSH2 0x7B3 SWAP2 SWAP1 PUSH2 0x1A78 JUMP JUMPDEST PUSH1 0x40 MLOAD PUSH2 0x7C1 SWAP3 SWAP2 SWAP1 PUSH2 0x1AAC JUMP JUMPDEST PUSH1 0x40 MLOAD DUP1 SWAP2 SUB SWAP1 LOG1 JUMP JUMPDEST PUSH1 0x0 PUSH1 0xA PUSH1 0x0 DUP4 DUP2 MSTORE PUSH1 0x20 ADD SWAP1 DUP2 MSTORE PUSH1 0x20 ADD PUSH1 0x0 KECCAK256 PUSH1 0x4 ADD PUSH1 0x0 CALLER PUSH20 0xFFFFFFFFFFFFFFFFFFFFFFFFFFFFFFFFFFFFFFFF AND PUSH20 0xFFFFFFFFFFFFFFFFFFFFFFFFFFFFFFFFFFFFFFFF AND DUP2 MSTORE PUSH1 0x20 ADD SWAP1 DUP2 MSTORE PUSH1 0x20 ADD PUSH1 0x0 KECCAK256 PUSH1 0x0 SWAP1 SLOAD SWAP1 PUSH2 0x100 EXP SWAP1 DIV PUSH1 0xFF AND SWAP1 POP SWAP2 SWAP1 POP JUMP JUMPDEST PUSH1 0x1 SLOAD DUP2 JUMP JUMPDEST PUSH1 0x3 SLOAD DUP2 JUMP JUMPDEST PUSH1 0x6 SLOAD DUP2 JUMP JUMPDEST CALLER PUSH20 0xFFFFFFFFFFFFFFFFFFFFFFFFFFFFFFFFFFFFFFFF AND PUSH1 0xB PUSH1 0x0 CALLER PUSH20 0xFFFFFFFFFFFFFFFFFFFFFFFFFFFFFFFFFFFFFFFF AND PUSH20 0xFFFFFFFFFFFFFFFFFFFFFFFFFFFFFFFFFFFFFFFF AND DUP2 MSTORE PUSH1 0x20 ADD SWAP1 DUP2 MSTORE PUSH1 0x20 ADD PUSH1 0x0 KECCAK256 PUSH1 0x0 ADD PUSH1 0x0 SWAP1 SLOAD SWAP1 PUSH2 0x100 EXP SWAP1 DIV PUSH20 0xFFFFFFFFFFFFFFFFFFFFFFFFFFFFFFFFFFFFFFFF AND PUSH20 0xFFFFFFFFFFFFFFFFFFFFFFFFFFFFFFFFFFFFFFFF AND EQ PUSH2 0x90E JUMPI PUSH1 0x40 MLOAD PUSH32 0xEC752D2A00000000000000000000000000000000000000000000000000000000 DUP2 MSTORE PUSH1 0x4 ADD PUSH1 0x40 MLOAD DUP1 SWAP2 SUB SWAP1 REVERT JUMPDEST PUSH1 0x0 ISZERO ISZERO PUSH1 0xA PUSH1 0x0 DUP5 DUP2 MSTORE PUSH1 0x20 ADD SWAP1 DUP2 MSTORE PUSH1 0x20 ADD PUSH1 0x0 KECCAK256 PUSH1 0x4 ADD PUSH1 0x0 CALLER PUSH20 0xFFFFFFFFFFFFFFFFFFFFFFFFFFFFFFFFFFFFFFFF AND PUSH20 0xFFFFFFFFFFFFFFFFFFFFFFFFFFFFFFFFFFFFFFFF AND DUP2 MSTORE PUSH1 0x20 ADD SWAP1 DUP2 MSTORE PUSH1 0x20 ADD PUSH1 0x0 KECCAK256 PUSH1 0x0 SWAP1 SLOAD SWAP1 PUSH2 0x100 EXP SWAP1 DIV PUSH1 0xFF AND ISZERO ISZERO EQ PUSH2 0x9B5 JUMPI PUSH1 0x40 MLOAD PUSH32 0x8C379A000000000000000000000000000000000000000000000000000000000 DUP2 MSTORE PUSH1 0x4 ADD PUSH2 0x9AC SWAP1 PUSH2 0x1B21 JUMP JUMPDEST PUSH1 0x40 MLOAD DUP1 SWAP2 SUB SWAP1 REVERT JUMPDEST PUSH1 0x1 DUP2 SUB PUSH2 0x9EE JUMPI PUSH1 0xA PUSH1 0x0 DUP4 DUP2 MSTORE PUSH1 0x20 ADD SWAP1 DUP2 MSTORE PUSH1 0x20 ADD PUSH1 0x0 KECCAK256 PUSH1 0x1 ADD PUSH1 0x0 DUP2 SLOAD DUP1 SWAP3 SWAP2 SWAP1 PUSH2 0x9E4 SWAP1 PUSH2 0x19C4 JUMP JUMPDEST SWAP2 SWAP1 POP SSTORE POP PUSH2 0xA24 JUMP JUMPDEST PUSH1 0x2 DUP2 SUB PUSH2 0xA23 JUMPI PUSH1 0xA PUSH1 0x0 DUP4 DUP2 MSTORE PUSH1 0x20 ADD SWAP1 DUP2 MSTORE PUSH1 0x20 ADD PUSH1 0x0 KECCAK256 PUSH1 0x2 ADD PUSH1 0x0 DUP2 SLOAD DUP1 SWAP3 SWAP2 SWAP1 PUSH2 0xA1D SWAP1 PUSH2 0x19C4 JUMP JUMPDEST SWAP2 SWAP1 POP SSTORE POP JUMPDEST JUMPDEST PUSH1 0x1 PUSH1 0xA PUSH1 0x0 DUP5 DUP2 MSTORE PUSH1 0x20 ADD SWAP1 DUP2 MSTORE PUSH1 0x20 ADD PUSH1 0x0 KECCAK256 PUSH1 0x4 ADD PUSH1 0x0 CALLER PUSH20 0xFFFFFFFFFFFFFFFFFFFFFFFFFFFFFFFFFFFFFFFF AND PUSH20 0xFFFFFFFFFFFFFFFFFFFFFFFFFFFFFFFFFFFFFFFF AND DUP2 MSTORE PUSH1 0x20 ADD SWAP1 DUP2 MSTORE PUSH1 0x20 ADD PUSH1 0x0 KECCAK256 PUSH1 0x0 PUSH2 0x100 EXP DUP2 SLOAD DUP2 PUSH1 0xFF MUL NOT AND SWAP1 DUP4 ISZERO ISZERO MUL OR SWAP1 SSTORE POP PUSH1 0x5 SLOAD PUSH1 0x8 SLOAD PUSH1 0x64 PUSH1 0xA PUSH1 0x0 DUP7 DUP2 MSTORE PUSH1 0x20 ADD SWAP1 DUP2 MSTORE PUSH1 0x20 ADD PUSH1 0x0 KECCAK256 PUSH1 0x1 ADD SLOAD PUSH2 0xAB9 SWAP2 SWAP1 PUSH2 0x1B41 JUMP JUMPDEST PUSH2 0xAC3 SWAP2 SWAP1 PUSH2 0x1BB2 JUMP JUMPDEST LT PUSH2 0xB10 JUMPI PUSH2 0xB0B PUSH1 0xA PUSH1 0x0 DUP5 DUP2 MSTORE PUSH1 0x20 ADD SWAP1 DUP2 MSTORE PUSH1 0x20 ADD PUSH1 0x0 KECCAK256 PUSH1 0x0 ADD PUSH1 0x0 SWAP1 SLOAD SWAP1 PUSH2 0x100 EXP SWAP1 DIV PUSH1 0xFF AND PUSH1 0xA PUSH1 0x0 DUP6 DUP2 MSTORE PUSH1 0x20 ADD SWAP1 DUP2 MSTORE PUSH1 0x20 ADD PUSH1 0x0 KECCAK256 PUSH1 0x3 ADD SLOAD PUSH2 0x10C2 JUMP JUMPDEST PUSH2 0xB81 JUMP JUMPDEST PUSH1 0x5 SLOAD PUSH1 0x8 SLOAD PUSH1 0x64 PUSH1 0xA PUSH1 0x0 DUP7 DUP2 MSTORE PUSH1 0x20 ADD SWAP1 DUP2 MSTORE PUSH1 0x20 ADD PUSH1 0x0 KECCAK256 PUSH1 0x2 ADD SLOAD PUSH2 0xB39 SWAP2 SWAP1 PUSH2 0x1B41 JUMP JUMPDEST PUSH2 0xB43 SWAP2 SWAP1 PUSH2 0x1BB2 JUMP JUMPDEST LT PUSH2 0xB80 JUMPI PUSH32 0x91944425928AF46B7FE486868FBDD04CD88C32637B4C91612CAA1781C1B91F8C DUP3 PUSH1 0x40 MLOAD PUSH2 0xB77 SWAP2 SWAP1 PUSH2 0x1708 JUMP JUMPDEST PUSH1 0x40 MLOAD DUP1 SWAP2 SUB SWAP1 LOG1 JUMPDEST JUMPDEST POP POP JUMP JUMPDEST PUSH1 0xA PUSH1 0x20 MSTORE DUP1 PUSH1 0x0 MSTORE PUSH1 0x40 PUSH1 0x0 KECCAK256 PUSH1 0x0 SWAP2 POP SWAP1 POP DUP1 PUSH1 0x0 ADD PUSH1 0x0 SWAP1 SLOAD SWAP1 PUSH2 0x100 EXP SWAP1 DIV PUSH1 0xFF AND SWAP1 DUP1 PUSH1 0x1 ADD SLOAD SWAP1 DUP1 PUSH1 0x2 ADD SLOAD SWAP1 DUP1 PUSH1 0x3 ADD SLOAD SWAP1 POP DUP5 JUMP JUMPDEST PUSH1 0xC PUSH1 0x20 MSTORE DUP1 PUSH1 0x0 MSTORE PUSH1 0x40 PUSH1 0x0 KECCAK256 PUSH1 0x0 SWAP2 POP SLOAD SWAP1 PUSH2 0x100 EXP SWAP1 DIV PUSH20 0xFFFFFFFFFFFFFFFFFFFFFFFFFFFFFFFFFFFFFFFF AND DUP2 JUMP JUMPDEST ADDRESS PUSH8 0xDE0B6B3A7640000 DUP2 PUSH20 0xFFFFFFFFFFFFFFFFFFFFFFFFFFFFFFFFFFFFFFFF AND BALANCE GT PUSH2 0xC4E JUMPI PUSH1 0x40 MLOAD PUSH32 0x47108E3E00000000000000000000000000000000000000000000000000000000 DUP2 MSTORE PUSH1 0x4 ADD PUSH1 0x40 MLOAD DUP1 SWAP2 SUB SWAP1 REVERT JUMPDEST CALLER PUSH20 0xFFFFFFFFFFFFFFFFFFFFFFFFFFFFFFFFFFFFFFFF AND PUSH1 0xB PUSH1 0x0 CALLER PUSH20 0xFFFFFFFFFFFFFFFFFFFFFFFFFFFFFFFFFFFFFFFF AND PUSH20 0xFFFFFFFFFFFFFFFFFFFFFFFFFFFFFFFFFFFFFFFF AND DUP2 MSTORE PUSH1 0x20 ADD SWAP1 DUP2 MSTORE PUSH1 0x20 ADD PUSH1 0x0 KECCAK256 PUSH1 0x0 ADD PUSH1 0x0 SWAP1 SLOAD SWAP1 PUSH2 0x100 EXP SWAP1 DIV PUSH20 0xFFFFFFFFFFFFFFFFFFFFFFFFFFFFFFFFFFFFFFFF AND PUSH20 0xFFFFFFFFFFFFFFFFFFFFFFFFFFFFFFFFFFFFFFFF AND EQ PUSH2 0xD1E JUMPI PUSH1 0x40 MLOAD PUSH32 0x8C379A000000000000000000000000000000000000000000000000000000000 DUP2 MSTORE PUSH1 0x4 ADD PUSH2 0xD15 SWAP1 PUSH2 0x1C2F JUMP JUMPDEST PUSH1 0x40 MLOAD DUP1 SWAP2 SUB SWAP1 REVERT JUMPDEST PUSH1 0x0 PUSH8 0xDE0B6B3A7640000 SWAP1 POP PUSH2 0xD35 CALLER DUP3 PUSH2 0x1216 JUMP JUMPDEST PUSH1 0x0 PUSH1 0xB PUSH1 0x0 CALLER PUSH20 0xFFFFFFFFFFFFFFFFFFFFFFFFFFFFFFFFFFFFFFFF AND PUSH20 0xFFFFFFFFFFFFFFFFFFFFFFFFFFFFFFFFFFFFFFFF AND DUP2 MSTORE PUSH1 0x20 ADD SWAP1 DUP2 MSTORE PUSH1 0x20 ADD PUSH1 0x0 KECCAK256 PUSH1 0x0 ADD PUSH1 0x0 PUSH2 0x100 EXP DUP2 SLOAD DUP2 PUSH20 0xFFFFFFFFFFFFFFFFFFFFFFFFFFFFFFFFFFFFFFFF MUL NOT AND SWAP1 DUP4 PUSH20 0xFFFFFFFFFFFFFFFFFFFFFFFFFFFFFFFFFFFFFFFF AND MUL OR SWAP1 SSTORE POP PUSH1 0x8 PUSH1 0x0 DUP2 SLOAD DUP1 SWAP3 SWAP2 SWAP1 PUSH2 0xDCA SWAP1 PUSH2 0x1C4F JUMP JUMPDEST SWAP2 SWAP1 POP SSTORE POP POP POP JUMP JUMPDEST PUSH1 0x5 SLOAD DUP2 JUMP JUMPDEST PUSH1 0x0 PUSH1 0xD PUSH1 0x0 CALLER PUSH20 0xFFFFFFFFFFFFFFFFFFFFFFFFFFFFFFFFFFFFFFFF AND PUSH20 0xFFFFFFFFFFFFFFFFFFFFFFFFFFFFFFFFFFFFFFFF AND DUP2 MSTORE PUSH1 0x20 ADD SWAP1 DUP2 MSTORE PUSH1 0x20 ADD PUSH1 0x0 KECCAK256 SLOAD SUB PUSH2 0xE52 JUMPI PUSH1 0x40 MLOAD PUSH32 0x3A70817D00000000000000000000000000000000000000000000000000000000 DUP2 MSTORE PUSH1 0x4 ADD PUSH1 0x40 MLOAD DUP1 SWAP2 SUB SWAP1 REVERT JUMPDEST CALLER PUSH8 0xDE0B6B3A7640000 DUP2 PUSH20 0xFFFFFFFFFFFFFFFFFFFFFFFFFFFFFFFFFFFFFFFF AND BALANCE GT PUSH2 0xEAB JUMPI PUSH1 0x40 MLOAD PUSH32 0x47108E3E00000000000000000000000000000000000000000000000000000000 DUP2 MSTORE PUSH1 0x4 ADD PUSH1 0x40 MLOAD DUP1 SWAP2 SUB SWAP1 REVERT JUMPDEST PUSH8 0xDE0B6B3A7640000 CALLVALUE EQ PUSH2 0xEF5 JUMPI PUSH1 0x40 MLOAD PUSH32 0x8C379A000000000000000000000000000000000000000000000000000000000 DUP2 MSTORE PUSH1 0x4 ADD PUSH2 0xEEC SWAP1 PUSH2 0x1CC4 JUMP JUMPDEST PUSH1 0x40 MLOAD DUP1 SWAP2 SUB SWAP1 REVERT JUMPDEST CALLER PUSH20 0xFFFFFFFFFFFFFFFFFFFFFFFFFFFFFFFFFFFFFFFF AND PUSH1 0xB PUSH1 0x0 CALLER PUSH20 0xFFFFFFFFFFFFFFFFFFFFFFFFFFFFFFFFFFFFFFFF AND PUSH20 0xFFFFFFFFFFFFFFFFFFFFFFFFFFFFFFFFFFFFFFFF AND DUP2 MSTORE PUSH1 0x20 ADD SWAP1 DUP2 MSTORE PUSH1 0x20 ADD PUSH1 0x0 KECCAK256 PUSH1 0x0 ADD PUSH1 0x0 SWAP1 SLOAD SWAP1 PUSH2 0x100 EXP SWAP1 DIV PUSH20 0xFFFFFFFFFFFFFFFFFFFFFFFFFFFFFFFFFFFFFFFF AND PUSH20 0xFFFFFFFFFFFFFFFFFFFFFFFFFFFFFFFFFFFFFFFF AND SUB PUSH2 0xFC5 JUMPI PUSH1 0x40 MLOAD PUSH32 0x8C379A000000000000000000000000000000000000000000000000000000000 DUP2 MSTORE PUSH1 0x4 ADD PUSH2 0xFBC SWAP1 PUSH2 0x1D30 JUMP JUMPDEST PUSH1 0x40 MLOAD DUP1 SWAP2 SUB SWAP1 REVERT JUMPDEST PUSH2 0xFCF ADDRESS CALLVALUE PUSH2 0x1216 JUMP JUMPDEST CALLER PUSH1 0xB PUSH1 0x0 CALLER PUSH20 0xFFFFFFFFFFFFFFFFFFFFFFFFFFFFFFFFFFFFFFFF AND PUSH20 0xFFFFFFFFFFFFFFFFFFFFFFFFFFFFFFFFFFFFFFFF AND DUP2 MSTORE PUSH1 0x20 ADD SWAP1 DUP2 MSTORE PUSH1 0x20 ADD PUSH1 0x0 KECCAK256 PUSH1 0x0 ADD PUSH1 0x0 PUSH2 0x100 EXP DUP2 SLOAD DUP2 PUSH20 0xFFFFFFFFFFFFFFFFFFFFFFFFFFFFFFFFFFFFFFFF MUL NOT AND SWAP1 DUP4 PUSH20 0xFFFFFFFFFFFFFFFFFFFFFFFFFFFFFFFFFFFFFFFF AND MUL OR SWAP1 SSTORE POP PUSH1 0x8 PUSH1 0x0 DUP2 SLOAD DUP1 SWAP3 SWAP2 SWAP1 PUSH2 0x1063 SWAP1 PUSH2 0x19C4 JUMP JUMPDEST SWAP2 SWAP1 POP SSTORE POP POP JUMP JUMPDEST PUSH1 0xB PUSH1 0x20 MSTORE DUP1 PUSH1 0x0 MSTORE PUSH1 0x40 PUSH1 0x0 KECCAK256 PUSH1 0x0 SWAP2 POP SWAP1 POP DUP1 PUSH1 0x0 ADD PUSH1 0x0 SWAP1 SLOAD SWAP1 PUSH2 0x100 EXP SWAP1 DIV PUSH20 0xFFFFFFFFFFFFFFFFFFFFFFFFFFFFFFFFFFFFFFFF AND SWAP1 DUP1 PUSH1 0x0 ADD PUSH1 0x14 SWAP1 SLOAD SWAP1 PUSH2 0x100 EXP SWAP1 DIV PUSH1 0xFF AND SWAP1 DUP1 PUSH1 0x1 ADD SLOAD SWAP1 POP DUP4 JUMP JUMPDEST PUSH1 0x0 PUSH1 0x5 DUP2 GT ISZERO PUSH2 0x10D6 JUMPI PUSH2 0x10D5 PUSH2 0x1857 JUMP JUMPDEST JUMPDEST DUP3 PUSH1 0x5 DUP2 GT ISZERO PUSH2 0x10E9 JUMPI PUSH2 0x10E8 PUSH2 0x1857 JUMP JUMPDEST JUMPDEST SUB PUSH2 0x10FA JUMPI DUP1 PUSH1 0x2 DUP2 SWAP1 SSTORE POP PUSH2 0x1212 JUMP JUMPDEST PUSH1 0x1 PUSH1 0x5 DUP2 GT ISZERO PUSH2 0x110E JUMPI PUSH2 0x110D PUSH2 0x1857 JUMP JUMPDEST JUMPDEST DUP3 PUSH1 0x5 DUP2 GT ISZERO PUSH2 0x1121 JUMPI PUSH2 0x1120 PUSH2 0x1857 JUMP JUMPDEST JUMPDEST SUB PUSH2 0x1132 JUMPI DUP1 PUSH1 0x3 DUP2 SWAP1 SSTORE POP PUSH2 0x1211 JUMP JUMPDEST PUSH1 0x2 PUSH1 0x5 DUP2 GT ISZERO PUSH2 0x1146 JUMPI PUSH2 0x1145 PUSH2 0x1857 JUMP JUMPDEST JUMPDEST DUP3 PUSH1 0x5 DUP2 GT ISZERO PUSH2 0x1159 JUMPI PUSH2 0x1158 PUSH2 0x1857 JUMP JUMPDEST JUMPDEST SUB PUSH2 0x116A JUMPI DUP1 PUSH1 0x4 DUP2 SWAP1 SSTORE POP PUSH2 0x1210 JUMP JUMPDEST PUSH1 0x3 PUSH1 0x5 DUP2 GT ISZERO PUSH2 0x117E JUMPI PUSH2 0x117D PUSH2 0x1857 JUMP JUMPDEST JUMPDEST DUP3 PUSH1 0x5 DUP2 GT ISZERO PUSH2 0x1191 JUMPI PUSH2 0x1190 PUSH2 0x1857 JUMP JUMPDEST JUMPDEST SUB PUSH2 0x11A2 JUMPI DUP1 PUSH1 0x5 DUP2 SWAP1 SSTORE POP PUSH2 0x120F JUMP JUMPDEST PUSH1 0x4 PUSH1 0x5 DUP2 GT ISZERO PUSH2 0x11B6 JUMPI PUSH2 0x11B5 PUSH2 0x1857 JUMP JUMPDEST JUMPDEST DUP3 PUSH1 0x5 DUP2 GT ISZERO PUSH2 0x11C9 JUMPI PUSH2 0x11C8 PUSH2 0x1857 JUMP JUMPDEST JUMPDEST SUB PUSH2 0x11DA JUMPI DUP1 PUSH1 0x1 DUP2 SWAP1 SSTORE POP PUSH2 0x120E JUMP JUMPDEST PUSH1 0x5 DUP1 DUP2 GT ISZERO PUSH2 0x11ED JUMPI PUSH2 0x11EC PUSH2 0x1857 JUMP JUMPDEST JUMPDEST DUP3 PUSH1 0x5 DUP2 GT ISZERO PUSH2 0x1200 JUMPI PUSH2 0x11FF PUSH2 0x1857 JUMP JUMPDEST JUMPDEST SUB PUSH2 0x120D JUMPI DUP1 PUSH1 0x6 DUP2 SWAP1 SSTORE POP JUMPDEST JUMPDEST JUMPDEST JUMPDEST JUMPDEST JUMPDEST POP POP JUMP JUMPDEST PUSH1 0x0 DUP1 DUP4 PUSH20 0xFFFFFFFFFFFFFFFFFFFFFFFFFFFFFFFFFFFFFFFF AND DUP4 PUSH1 0x40 MLOAD PUSH2 0x123D SWAP1 PUSH2 0x1D81 JUMP JUMPDEST PUSH1 0x0 PUSH1 0x40 MLOAD DUP1 DUP4 SUB DUP2 DUP6 DUP8 GAS CALL SWAP3 POP POP POP RETURNDATASIZE DUP1 PUSH1 0x0 DUP2 EQ PUSH2 0x127A JUMPI PUSH1 0x40 MLOAD SWAP2 POP PUSH1 0x1F NOT PUSH1 0x3F RETURNDATASIZE ADD AND DUP3 ADD PUSH1 0x40 MSTORE RETURNDATASIZE DUP3 MSTORE RETURNDATASIZE PUSH1 0x0 PUSH1 0x20 DUP5 ADD RETURNDATACOPY PUSH2 0x127F JUMP JUMPDEST PUSH1 0x60 SWAP2 POP JUMPDEST POP SWAP2 POP SWAP2 POP DUP2 PUSH2 0x12C4 JUMPI PUSH1 0x40 MLOAD PUSH32 0x8C379A000000000000000000000000000000000000000000000000000000000 DUP2 MSTORE PUSH1 0x4 ADD PUSH2 0x12BB SWAP1 PUSH2 0x1DE2 JUMP JUMPDEST PUSH1 0x40 MLOAD DUP1 SWAP2 SUB SWAP1 REVERT JUMPDEST POP POP POP POP JUMP JUMPDEST PUSH1 0x0 DUP3 DUP3 MSTORE PUSH1 0x20 DUP3 ADD SWAP1 POP SWAP3 SWAP2 POP POP JUMP JUMPDEST PUSH32 0x796F752063616E27742073656E64206C657373207468616E2035306B20776569 PUSH1 0x0 DUP3 ADD MSTORE POP JUMP JUMPDEST PUSH1 0x0 PUSH2 0x1311 PUSH1 0x20 DUP4 PUSH2 0x12CA JUMP JUMPDEST SWAP2 POP PUSH2 0x131C DUP3 PUSH2 0x12DB JUMP JUMPDEST PUSH1 0x20 DUP3 ADD SWAP1 POP SWAP2 SWAP1 POP JUMP JUMPDEST PUSH1 0x0 PUSH1 0x20 DUP3 ADD SWAP1 POP DUP2 DUP2 SUB PUSH1 0x0 DUP4 ADD MSTORE PUSH2 0x1340 DUP2 PUSH2 0x1304 JUMP JUMPDEST SWAP1 POP SWAP2 SWAP1 POP JUMP JUMPDEST PUSH1 0x0 DUP2 MLOAD SWAP1 POP SWAP2 SWAP1 POP JUMP JUMPDEST PUSH32 0x4E487B7100000000000000000000000000000000000000000000000000000000 PUSH1 0x0 MSTORE PUSH1 0x41 PUSH1 0x4 MSTORE PUSH1 0x24 PUSH1 0x0 REVERT JUMPDEST PUSH32 0x4E487B7100000000000000000000000000000000000000000000000000000000 PUSH1 0x0 MSTORE PUSH1 0x22 PUSH1 0x4 MSTORE PUSH1 0x24 PUSH1 0x0 REVERT JUMPDEST PUSH1 0x0 PUSH1 0x2 DUP3 DIV SWAP1 POP PUSH1 0x1 DUP3 AND DUP1 PUSH2 0x13C8 JUMPI PUSH1 0x7F DUP3 AND SWAP2 POP JUMPDEST PUSH1 0x20 DUP3 LT DUP2 SUB PUSH2 0x13DB JUMPI PUSH2 0x13DA PUSH2 0x1381 JUMP JUMPDEST JUMPDEST POP SWAP2 SWAP1 POP JUMP JUMPDEST PUSH1 0x0 DUP2 SWAP1 POP DUP2 PUSH1 0x0 MSTORE PUSH1 0x20 PUSH1 0x0 KECCAK256 SWAP1 POP SWAP2 SWAP1 POP JUMP JUMPDEST PUSH1 0x0 PUSH1 0x20 PUSH1 0x1F DUP4 ADD DIV SWAP1 POP SWAP2 SWAP1 POP JUMP JUMPDEST PUSH1 0x0 DUP3 DUP3 SHL SWAP1 POP SWAP3 SWAP2 POP POP JUMP JUMPDEST PUSH1 0x0 PUSH1 0x8 DUP4 MUL PUSH2 0x1443 PUSH32 0xFFFFFFFFFFFFFFFFFFFFFFFFFFFFFFFFFFFFFFFFFFFFFFFFFFFFFFFFFFFFFFFF DUP3 PUSH2 0x1406 JUMP JUMPDEST PUSH2 0x144D DUP7 DUP4 PUSH2 0x1406 JUMP JUMPDEST SWAP6 POP DUP1 NOT DUP5 AND SWAP4 POP DUP1 DUP7 AND DUP5 OR SWAP3 POP POP POP SWAP4 SWAP3 POP POP POP JUMP JUMPDEST PUSH1 0x0 DUP2 SWAP1 POP SWAP2 SWAP1 POP JUMP JUMPDEST PUSH1 0x0 DUP2 SWAP1 POP SWAP2 SWAP1 POP JUMP JUMPDEST PUSH1 0x0 PUSH2 0x1494 PUSH2 0x148F PUSH2 0x148A DUP5 PUSH2 0x1465 JUMP JUMPDEST PUSH2 0x146F JUMP JUMPDEST PUSH2 0x1465 JUMP JUMPDEST SWAP1 POP SWAP2 SWAP1 POP JUMP JUMPDEST PUSH1 0x0 DUP2 SWAP1 POP SWAP2 SWAP1 POP JUMP JUMPDEST PUSH2 0x14AE DUP4 PUSH2 0x1479 JUMP JUMPDEST PUSH2 0x14C2 PUSH2 0x14BA DUP3 PUSH2 0x149B JUMP JUMPDEST DUP5 DUP5 SLOAD PUSH2 0x1413 JUMP JUMPDEST DUP3 SSTORE POP POP POP POP JUMP JUMPDEST PUSH1 0x0 SWAP1 JUMP JUMPDEST PUSH2 0x14D7 PUSH2 0x14CA JUMP JUMPDEST PUSH2 0x14E2 DUP2 DUP5 DUP5 PUSH2 0x14A5 JUMP JUMPDEST POP POP POP JUMP JUMPDEST JUMPDEST DUP2 DUP2 LT ISZERO PUSH2 0x1506 JUMPI PUSH2 0x14FB PUSH1 0x0 DUP3 PUSH2 0x14CF JUMP JUMPDEST PUSH1 0x1 DUP2 ADD SWAP1 POP PUSH2 0x14E8 JUMP JUMPDEST POP POP JUMP JUMPDEST PUSH1 0x1F DUP3 GT ISZERO PUSH2 0x154B JUMPI PUSH2 0x151C DUP2 PUSH2 0x13E1 JUMP JUMPDEST PUSH2 0x1525 DUP5 PUSH2 0x13F6 JUMP JUMPDEST DUP2 ADD PUSH1 0x20 DUP6 LT ISZERO PUSH2 0x1534 JUMPI DUP2 SWAP1 POP JUMPDEST PUSH2 0x1548 PUSH2 0x1540 DUP6 PUSH2 0x13F6 JUMP JUMPDEST DUP4 ADD DUP3 PUSH2 0x14E7 JUMP JUMPDEST POP POP JUMPDEST POP POP POP JUMP JUMPDEST PUSH1 0x0 DUP3 DUP3 SHR SWAP1 POP SWAP3 SWAP2 POP POP JUMP JUMPDEST PUSH1 0x0 PUSH2 0x156E PUSH1 0x0 NOT DUP5 PUSH1 0x8 MUL PUSH2 0x1550 JUMP JUMPDEST NOT DUP1 DUP4 AND SWAP2 POP POP SWAP3 SWAP2 POP POP JUMP JUMPDEST PUSH1 0x0 PUSH2 0x1587 DUP4 DUP4 PUSH2 0x155D JUMP JUMPDEST SWAP2 POP DUP3 PUSH1 0x2 MUL DUP3 OR SWAP1 POP SWAP3 SWAP2 POP POP JUMP JUMPDEST PUSH2 0x15A0 DUP3 PUSH2 0x1347 JUMP JUMPDEST PUSH8 0xFFFFFFFFFFFFFFFF DUP2 GT ISZERO PUSH2 0x15B9 JUMPI PUSH2 0x15B8 PUSH2 0x1352 JUMP JUMPDEST JUMPDEST PUSH2 0x15C3 DUP3 SLOAD PUSH2 0x13B0 JUMP JUMPDEST PUSH2 0x15CE DUP3 DUP3 DUP6 PUSH2 0x150A JUMP JUMPDEST PUSH1 0x0 PUSH1 0x20 SWAP1 POP PUSH1 0x1F DUP4 GT PUSH1 0x1 DUP2 EQ PUSH2 0x1601 JUMPI PUSH1 0x0 DUP5 ISZERO PUSH2 0x15EF JUMPI DUP3 DUP8 ADD MLOAD SWAP1 POP JUMPDEST PUSH2 0x15F9 DUP6 DUP3 PUSH2 0x157B JUMP JUMPDEST DUP7 SSTORE POP PUSH2 0x1661 JUMP JUMPDEST PUSH1 0x1F NOT DUP5 AND PUSH2 0x160F DUP7 PUSH2 0x13E1 JUMP JUMPDEST PUSH1 0x0 JUMPDEST DUP3 DUP2 LT ISZERO PUSH2 0x1637 JUMPI DUP5 DUP10 ADD MLOAD DUP3 SSTORE PUSH1 0x1 DUP3 ADD SWAP2 POP PUSH1 0x20 DUP6 ADD SWAP5 POP PUSH1 0x20 DUP2 ADD SWAP1 POP PUSH2 0x1612 JUMP JUMPDEST DUP7 DUP4 LT ISZERO PUSH2 0x1654 JUMPI DUP5 DUP10 ADD MLOAD PUSH2 0x1650 PUSH1 0x1F DUP10 AND DUP3 PUSH2 0x155D JUMP JUMPDEST DUP4 SSTORE POP JUMPDEST PUSH1 0x1 PUSH1 0x2 DUP9 MUL ADD DUP9 SSTORE POP POP POP JUMPDEST POP POP POP POP POP POP JUMP JUMPDEST PUSH1 0x0 DUP1 REVERT JUMPDEST PUSH1 0x0 PUSH20 0xFFFFFFFFFFFFFFFFFFFFFFFFFFFFFFFFFFFFFFFF DUP3 AND SWAP1 POP SWAP2 SWAP1 POP JUMP JUMPDEST PUSH1 0x0 PUSH2 0x1699 DUP3 PUSH2 0x166E JUMP JUMPDEST SWAP1 POP SWAP2 SWAP1 POP JUMP JUMPDEST PUSH2 0x16A9 DUP2 PUSH2 0x168E JUMP JUMPDEST DUP2 EQ PUSH2 0x16B4 JUMPI PUSH1 0x0 DUP1 REVERT JUMPDEST POP JUMP JUMPDEST PUSH1 0x0 DUP2 CALLDATALOAD SWAP1 POP PUSH2 0x16C6 DUP2 PUSH2 0x16A0 JUMP JUMPDEST SWAP3 SWAP2 POP POP JUMP JUMPDEST PUSH1 0x0 PUSH1 0x20 DUP3 DUP5 SUB SLT ISZERO PUSH2 0x16E2 JUMPI PUSH2 0x16E1 PUSH2 0x1669 JUMP JUMPDEST JUMPDEST PUSH1 0x0 PUSH2 0x16F0 DUP5 DUP3 DUP6 ADD PUSH2 0x16B7 JUMP JUMPDEST SWAP2 POP POP SWAP3 SWAP2 POP POP JUMP JUMPDEST PUSH2 0x1702 DUP2 PUSH2 0x1465 JUMP JUMPDEST DUP3 MSTORE POP POP JUMP JUMPDEST PUSH1 0x0 PUSH1 0x20 DUP3 ADD SWAP1 POP PUSH2 0x171D PUSH1 0x0 DUP4 ADD DUP5 PUSH2 0x16F9 JUMP JUMPDEST SWAP3 SWAP2 POP POP JUMP JUMPDEST PUSH1 0x6 DUP2 LT PUSH2 0x1730 JUMPI PUSH1 0x0 DUP1 REVERT JUMPDEST POP JUMP JUMPDEST PUSH1 0x0 DUP2 CALLDATALOAD SWAP1 POP PUSH2 0x1742 DUP2 PUSH2 0x1723 JUMP JUMPDEST SWAP3 SWAP2 POP POP JUMP JUMPDEST PUSH2 0x1751 DUP2 PUSH2 0x1465 JUMP JUMPDEST DUP2 EQ PUSH2 0x175C JUMPI PUSH1 0x0 DUP1 REVERT JUMPDEST POP JUMP JUMPDEST PUSH1 0x0 DUP2 CALLDATALOAD SWAP1 POP PUSH2 0x176E DUP2 PUSH2 0x1748 JUMP JUMPDEST SWAP3 SWAP2 POP POP JUMP JUMPDEST PUSH1 0x0 DUP1 PUSH1 0x40 DUP4 DUP6 SUB SLT ISZERO PUSH2 0x178B JUMPI PUSH2 0x178A PUSH2 0x1669 JUMP JUMPDEST JUMPDEST PUSH1 0x0 PUSH2 0x1799 DUP6 DUP3 DUP7 ADD PUSH2 0x1733 JUMP JUMPDEST SWAP3 POP POP PUSH1 0x20 PUSH2 0x17AA DUP6 DUP3 DUP7 ADD PUSH2 0x175F JUMP JUMPDEST SWAP2 POP POP SWAP3 POP SWAP3 SWAP1 POP JUMP JUMPDEST PUSH1 0x0 PUSH1 0x20 DUP3 DUP5 SUB SLT ISZERO PUSH2 0x17CA JUMPI PUSH2 0x17C9 PUSH2 0x1669 JUMP JUMPDEST JUMPDEST PUSH1 0x0 PUSH2 0x17D8 DUP5 DUP3 DUP6 ADD PUSH2 0x175F JUMP JUMPDEST SWAP2 POP POP SWAP3 SWAP2 POP POP JUMP JUMPDEST PUSH1 0x0 DUP2 ISZERO ISZERO SWAP1 POP SWAP2 SWAP1 POP JUMP JUMPDEST PUSH2 0x17F6 DUP2 PUSH2 0x17E1 JUMP JUMPDEST DUP3 MSTORE POP POP JUMP JUMPDEST PUSH1 0x0 PUSH1 0x20 DUP3 ADD SWAP1 POP PUSH2 0x1811 PUSH1 0x0 DUP4 ADD DUP5 PUSH2 0x17ED JUMP JUMPDEST SWAP3 SWAP2 POP POP JUMP JUMPDEST PUSH1 0x0 DUP1 PUSH1 0x40 DUP4 DUP6 SUB SLT ISZERO PUSH2 0x182E JUMPI PUSH2 0x182D PUSH2 0x1669 JUMP JUMPDEST JUMPDEST PUSH1 0x0 PUSH2 0x183C DUP6 DUP3 DUP7 ADD PUSH2 0x175F JUMP JUMPDEST SWAP3 POP POP PUSH1 0x20 PUSH2 0x184D DUP6 DUP3 DUP7 ADD PUSH2 0x175F JUMP JUMPDEST SWAP2 POP POP SWAP3 POP SWAP3 SWAP1 POP JUMP JUMPDEST PUSH32 0x4E487B7100000000000000000000000000000000000000000000000000000000 PUSH1 0x0 MSTORE PUSH1 0x21 PUSH1 0x4 MSTORE PUSH1 0x24 PUSH1 0x0 REVERT JUMPDEST PUSH1 0x6 DUP2 LT PUSH2 0x1897 JUMPI PUSH2 0x1896 PUSH2 0x1857 JUMP JUMPDEST JUMPDEST POP JUMP JUMPDEST PUSH1 0x0 DUP2 SWAP1 POP PUSH2 0x18A8 DUP3 PUSH2 0x1886 JUMP JUMPDEST SWAP2 SWAP1 POP JUMP JUMPDEST PUSH1 0x0 PUSH2 0x18B8 DUP3 PUSH2 0x189A JUMP JUMPDEST SWAP1 POP SWAP2 SWAP1 POP JUMP JUMPDEST PUSH2 0x18C8 DUP2 PUSH2 0x18AD JUMP JUMPDEST DUP3 MSTORE POP POP JUMP JUMPDEST PUSH1 0x0 PUSH1 0x80 DUP3 ADD SWAP1 POP PUSH2 0x18E3 PUSH1 0x0 DUP4 ADD DUP8 PUSH2 0x18BF JUMP JUMPDEST PUSH2 0x18F0 PUSH1 0x20 DUP4 ADD DUP7 PUSH2 0x16F9 JUMP JUMPDEST PUSH2 0x18FD PUSH1 0x40 DUP4 ADD DUP6 PUSH2 0x16F9 JUMP JUMPDEST PUSH2 0x190A PUSH1 0x60 DUP4 ADD DUP5 PUSH2 0x16F9 JUMP JUMPDEST SWAP6 SWAP5 POP POP POP POP POP JUMP JUMPDEST PUSH2 0x191C DUP2 PUSH2 0x168E JUMP JUMPDEST DUP3 MSTORE POP POP JUMP JUMPDEST PUSH1 0x0 PUSH1 0x20 DUP3 ADD SWAP1 POP PUSH2 0x1937 PUSH1 0x0 DUP4 ADD DUP5 PUSH2 0x1913 JUMP JUMPDEST SWAP3 SWAP2 POP POP JUMP JUMPDEST PUSH1 0x0 PUSH2 0x1948 DUP3 PUSH2 0x166E JUMP JUMPDEST SWAP1 POP SWAP2 SWAP1 POP JUMP JUMPDEST PUSH2 0x1958 DUP2 PUSH2 0x193D JUMP JUMPDEST DUP3 MSTORE POP POP JUMP JUMPDEST PUSH1 0x0 PUSH1 0x60 DUP3 ADD SWAP1 POP PUSH2 0x1973 PUSH1 0x0 DUP4 ADD DUP7 PUSH2 0x194F JUMP JUMPDEST PUSH2 0x1980 PUSH1 0x20 DUP4 ADD DUP6 PUSH2 0x17ED JUMP JUMPDEST PUSH2 0x198D PUSH1 0x40 DUP4 ADD DUP5 PUSH2 0x16F9 JUMP JUMPDEST SWAP5 SWAP4 POP POP POP POP JUMP JUMPDEST PUSH32 0x4E487B7100000000000000000000000000000000000000000000000000000000 PUSH1 0x0 MSTORE PUSH1 0x11 PUSH1 0x4 MSTORE PUSH1 0x24 PUSH1 0x0 REVERT JUMPDEST PUSH1 0x0 PUSH2 0x19CF DUP3 PUSH2 0x1465 JUMP JUMPDEST SWAP2 POP PUSH32 0xFFFFFFFFFFFFFFFFFFFFFFFFFFFFFFFFFFFFFFFFFFFFFFFFFFFFFFFFFFFFFFFF DUP3 SUB PUSH2 0x1A01 JUMPI PUSH2 0x1A00 PUSH2 0x1995 JUMP JUMPDEST JUMPDEST PUSH1 0x1 DUP3 ADD SWAP1 POP SWAP2 SWAP1 POP JUMP JUMPDEST PUSH32 0x7573657220616C72656164792065786973740000000000000000000000000000 PUSH1 0x0 DUP3 ADD MSTORE POP JUMP JUMPDEST PUSH1 0x0 PUSH2 0x1A42 PUSH1 0x12 DUP4 PUSH2 0x12CA JUMP JUMPDEST SWAP2 POP PUSH2 0x1A4D DUP3 PUSH2 0x1A0C JUMP JUMPDEST PUSH1 0x20 DUP3 ADD SWAP1 POP SWAP2 SWAP1 POP JUMP JUMPDEST PUSH1 0x0 PUSH1 0x20 DUP3 ADD SWAP1 POP DUP2 DUP2 SUB PUSH1 0x0 DUP4 ADD MSTORE PUSH2 0x1A71 DUP2 PUSH2 0x1A35 JUMP JUMPDEST SWAP1 POP SWAP2 SWAP1 POP JUMP JUMPDEST PUSH1 0x0 PUSH2 0x1A83 DUP3 PUSH2 0x1465 JUMP JUMPDEST SWAP2 POP PUSH2 0x1A8E DUP4 PUSH2 0x1465 JUMP JUMPDEST SWAP3 POP DUP3 DUP3 SUB SWAP1 POP DUP2 DUP2 GT ISZERO PUSH2 0x1AA6 JUMPI PUSH2 0x1AA5 PUSH2 0x1995 JUMP JUMPDEST JUMPDEST SWAP3 SWAP2 POP POP JUMP JUMPDEST PUSH1 0x0 PUSH1 0x40 DUP3 ADD SWAP1 POP PUSH2 0x1AC1 PUSH1 0x0 DUP4 ADD DUP6 PUSH2 0x1913 JUMP JUMPDEST PUSH2 0x1ACE PUSH1 0x20 DUP4 ADD DUP5 PUSH2 0x16F9 JUMP JUMPDEST SWAP4 SWAP3 POP POP POP JUMP JUMPDEST PUSH32 0x616C726561647920766F74656400000000000000000000000000000000000000 PUSH1 0x0 DUP3 ADD MSTORE POP JUMP JUMPDEST PUSH1 0x0 PUSH2 0x1B0B PUSH1 0xD DUP4 PUSH2 0x12CA JUMP JUMPDEST SWAP2 POP PUSH2 0x1B16 DUP3 PUSH2 0x1AD5 JUMP JUMPDEST PUSH1 0x20 DUP3 ADD SWAP1 POP SWAP2 SWAP1 POP JUMP JUMPDEST PUSH1 0x0 PUSH1 0x20 DUP3 ADD SWAP1 POP DUP2 DUP2 SUB PUSH1 0x0 DUP4 ADD MSTORE PUSH2 0x1B3A DUP2 PUSH2 0x1AFE JUMP JUMPDEST SWAP1 POP SWAP2 SWAP1 POP JUMP JUMPDEST PUSH1 0x0 PUSH2 0x1B4C DUP3 PUSH2 0x1465 JUMP JUMPDEST SWAP2 POP PUSH2 0x1B57 DUP4 PUSH2 0x1465 JUMP JUMPDEST SWAP3 POP DUP3 DUP3 MUL PUSH2 0x1B65 DUP2 PUSH2 0x1465 JUMP JUMPDEST SWAP2 POP DUP3 DUP3 DIV DUP5 EQ DUP4 ISZERO OR PUSH2 0x1B7C JUMPI PUSH2 0x1B7B PUSH2 0x1995 JUMP JUMPDEST JUMPDEST POP SWAP3 SWAP2 POP POP JUMP JUMPDEST PUSH32 0x4E487B7100000000000000000000000000000000000000000000000000000000 PUSH1 0x0 MSTORE PUSH1 0x12 PUSH1 0x4 MSTORE PUSH1 0x24 PUSH1 0x0 REVERT JUMPDEST PUSH1 0x0 PUSH2 0x1BBD DUP3 PUSH2 0x1465 JUMP JUMPDEST SWAP2 POP PUSH2 0x1BC8 DUP4 PUSH2 0x1465 JUMP JUMPDEST SWAP3 POP DUP3 PUSH2 0x1BD8 JUMPI PUSH2 0x1BD7 PUSH2 0x1B83 JUMP JUMPDEST JUMPDEST DUP3 DUP3 DIV SWAP1 POP SWAP3 SWAP2 POP POP JUMP JUMPDEST PUSH32 0x596F7520617265206E6F742076616C696461746F727300000000000000000000 PUSH1 0x0 DUP3 ADD MSTORE POP JUMP JUMPDEST PUSH1 0x0 PUSH2 0x1C19 PUSH1 0x16 DUP4 PUSH2 0x12CA JUMP JUMPDEST SWAP2 POP PUSH2 0x1C24 DUP3 PUSH2 0x1BE3 JUMP JUMPDEST PUSH1 0x20 DUP3 ADD SWAP1 POP SWAP2 SWAP1 POP JUMP JUMPDEST PUSH1 0x0 PUSH1 0x20 DUP3 ADD SWAP1 POP DUP2 DUP2 SUB PUSH1 0x0 DUP4 ADD MSTORE PUSH2 0x1C48 DUP2 PUSH2 0x1C0C JUMP JUMPDEST SWAP1 POP SWAP2 SWAP1 POP JUMP JUMPDEST PUSH1 0x0 PUSH2 0x1C5A DUP3 PUSH2 0x1465 JUMP JUMPDEST SWAP2 POP PUSH1 0x0 DUP3 SUB PUSH2 0x1C6D JUMPI PUSH2 0x1C6C PUSH2 0x1995 JUMP JUMPDEST JUMPDEST PUSH1 0x1 DUP3 SUB SWAP1 POP SWAP2 SWAP1 POP JUMP JUMPDEST PUSH32 0x73656E6420312065746800000000000000000000000000000000000000000000 PUSH1 0x0 DUP3 ADD MSTORE POP JUMP JUMPDEST PUSH1 0x0 PUSH2 0x1CAE PUSH1 0xA DUP4 PUSH2 0x12CA JUMP JUMPDEST SWAP2 POP PUSH2 0x1CB9 DUP3 PUSH2 0x1C78 JUMP JUMPDEST PUSH1 0x20 DUP3 ADD SWAP1 POP SWAP2 SWAP1 POP JUMP JUMPDEST PUSH1 0x0 PUSH1 0x20 DUP3 ADD SWAP1 POP DUP2 DUP2 SUB PUSH1 0x0 DUP4 ADD MSTORE PUSH2 0x1CDD DUP2 PUSH2 0x1CA1 JUMP JUMPDEST SWAP1 POP SWAP2 SWAP1 POP JUMP JUMPDEST PUSH32 0x596F7520616C7265616479206172650000000000000000000000000000000000 PUSH1 0x0 DUP3 ADD MSTORE POP JUMP JUMPDEST PUSH1 0x0 PUSH2 0x1D1A PUSH1 0xF DUP4 PUSH2 0x12CA JUMP JUMPDEST SWAP2 POP PUSH2 0x1D25 DUP3 PUSH2 0x1CE4 JUMP JUMPDEST PUSH1 0x20 DUP3 ADD SWAP1 POP SWAP2 SWAP1 POP JUMP JUMPDEST PUSH1 0x0 PUSH1 0x20 DUP3 ADD SWAP1 POP DUP2 DUP2 SUB PUSH1 0x0 DUP4 ADD MSTORE PUSH2 0x1D49 DUP2 PUSH2 0x1D0D JUMP JUMPDEST SWAP1 POP SWAP2 SWAP1 POP JUMP JUMPDEST PUSH1 0x0 DUP2 SWAP1 POP SWAP3 SWAP2 POP POP JUMP JUMPDEST POP JUMP JUMPDEST PUSH1 0x0 PUSH2 0x1D6B PUSH1 0x0 DUP4 PUSH2 0x1D50 JUMP JUMPDEST SWAP2 POP PUSH2 0x1D76 DUP3 PUSH2 0x1D5B JUMP JUMPDEST PUSH1 0x0 DUP3 ADD SWAP1 POP SWAP2 SWAP1 POP JUMP JUMPDEST PUSH1 0x0 PUSH2 0x1D8C DUP3 PUSH2 0x1D5E JUMP JUMPDEST SWAP2 POP DUP2 SWAP1 POP SWAP2 SWAP1 POP JUMP JUMPDEST PUSH32 0x4661696C656420746F2073656E64204574686572000000000000000000000000 PUSH1 0x0 DUP3 ADD MSTORE POP JUMP JUMPDEST PUSH1 0x0 PUSH2 0x1DCC PUSH1 0x14 DUP4 PUSH2 0x12CA JUMP JUMPDEST SWAP2 POP PUSH2 0x1DD7 DUP3 PUSH2 0x1D96 JUMP JUMPDEST PUSH1 0x20 DUP3 ADD SWAP1 POP SWAP2 SWAP1 POP JUMP JUMPDEST PUSH1 0x0 PUSH1 0x20 DUP3 ADD SWAP1 POP DUP2 DUP2 SUB PUSH1 0x0 DUP4 ADD MSTORE PUSH2 0x1DFB DUP2 PUSH2 0x1DBF JUMP JUMPDEST SWAP1 POP SWAP2 SWAP1 POP JUMP INVALID LOG2 PUSH5 0x6970667358 0x22 SLT KECCAK256 LT CHAINID 0xD5 0xDF DUP4 SWAP9 0xFB LOG4 DUP13 0xEE DUP14 MSIZE DUP16 0xB1 0x24 ADDRESS 0xE6 DUP16 MOD DUP2 0xAF 0xB5 DUP3 0xB1 0xB9 PUSH22 0x17BB3D7547C664736F6C634300081500330000000000 "},"methodIdentifiers":{"DAOQuorum()":"cb61bd8c","DAOVoteList(uint256)":"860734fb","addUser()":"455c928c","addValidators()":"dc070671","askDAOVote(uint8,uint256)":"1b2d6a7c","betQuorum()":"0b85000d","creatorFees()":"6694ba61","daoVoteNumber()":"0ed337ad","getDaoVoteHasVoted(uint256)":"53241b4f","platformFees()":"194a4e7e","setDaoVote(uint256,uint256)":"73a8b6c8","userList(uint256)":"9f4216e8","userNumber()":"2b4e8413","userToId(address)":"0b4805d3","validatorFees()":"72e24fdd","validatorNumber()":"139f29a1","validatorNumberRequired()":"53db7e77","validators(address)":"fa52c7d8","withdrawFromValidators()":"c5ee74eb"}}}}}