{"contracts/SimpleBet.sol":{"SimpleBet":{"abi":[{"inputs":[{"internalType":"string","name":"_betName","type":"string"},{"internalType":"string","name":"_compName1","type":"string"},{"internalType":"string","name":"_compName2","type":"string"},{"internalType":"address","name":"_betWavesOrganizerAddress","type":"address"},{"internalType":"address","name":"_betWaveDaoAddress","type":"address"}],"stateMutability":"payable","type":"constructor"},{"inputs":[],"name":"ReentrancyGuardReentrantCall","type":"error"},{"inputs":[],"name":"alreadyBet","type":"error"},{"inputs":[],"name":"feesNotPaid","type":"error"},{"inputs":[],"name":"forbidden","type":"error"},{"inputs":[],"name":"insufficientBalance","type":"error"},{"inputs":[],"name":"minimumBetAmount","type":"error"},{"inputs":[],"name":"notRegistered","type":"error"},{"anonymous":false,"inputs":[{"indexed":false,"internalType":"address","name":"","type":"address"},{"indexed":false,"internalType":"uint256","name":"","type":"uint256"},{"indexed":false,"internalType":"uint256","name":"","type":"uint256"},{"indexed":false,"internalType":"uint256","name":"","type":"uint256"},{"indexed":false,"internalType":"uint256","name":"","type":"uint256"},{"indexed":false,"internalType":"uint256","name":"","type":"uint256"},{"indexed":false,"internalType":"uint256","name":"","type":"uint256"}],"name":"newBid","type":"event"},{"stateMutability":"payable","type":"fallback"},{"inputs":[],"name":"beginEventTimestamp","outputs":[{"internalType":"uint256","name":"","type":"uint256"}],"stateMutability":"view","type":"function"},{"inputs":[],"name":"betName","outputs":[{"internalType":"string","name":"","type":"string"}],"stateMutability":"view","type":"function"},{"inputs":[],"name":"betWaveDaoAddress","outputs":[{"internalType":"address","name":"","type":"address"}],"stateMutability":"view","type":"function"},{"inputs":[],"name":"betWavesOrganizerAddress","outputs":[{"internalType":"address","name":"","type":"address"}],"stateMutability":"view","type":"function"},{"inputs":[{"internalType":"address","name":"","type":"address"}],"name":"bettors","outputs":[{"internalType":"address payable","name":"bettorAddress","type":"address"},{"internalType":"uint256","name":"betId","type":"uint256"},{"internalType":"uint256","name":"bettingAmout","type":"uint256"},{"internalType":"uint256","name":"bettingReward","type":"uint256"}],"stateMutability":"view","type":"function"},{"inputs":[{"internalType":"uint256","name":"_validatorFees","type":"uint256"}],"name":"calculateValidatorReward","outputs":[{"internalType":"uint256","name":"","type":"uint256"}],"stateMutability":"view","type":"function"},{"inputs":[{"internalType":"uint256","name":"","type":"uint256"}],"name":"competitors","outputs":[{"internalType":"string","name":"name","type":"string"},{"internalType":"uint256","name":"odd","type":"uint256"},{"internalType":"uint256","name":"betNumber","type":"uint256"},{"internalType":"uint256","name":"betAmount","type":"uint256"}],"stateMutability":"view","type":"function"},{"inputs":[],"name":"endEventTimestamp","outputs":[{"internalType":"uint256","name":"","type":"uint256"}],"stateMutability":"view","type":"function"},{"inputs":[],"name":"redeemToBettor","outputs":[],"stateMutability":"payable","type":"function"},{"inputs":[{"internalType":"uint256","name":"_plateformeFees","type":"uint256"},{"internalType":"uint256","name":"_creatorFees","type":"uint256"},{"internalType":"address","name":"_ownerAddress","type":"address"}],"name":"sendPlatfromAndCreatorFees","outputs":[],"stateMutability":"nonpayable","type":"function"},{"inputs":[{"internalType":"address","name":"_validatorAddress","type":"address"},{"internalType":"uint256","name":"_validatorReward","type":"uint256"}],"name":"sendValidatorFees","outputs":[],"stateMutability":"nonpayable","type":"function"},{"inputs":[{"internalType":"uint256","name":"_betId","type":"uint256"}],"name":"setBet","outputs":[],"stateMutability":"payable","type":"function"},{"inputs":[],"name":"setFeesBooleanToTrue","outputs":[],"stateMutability":"nonpayable","type":"function"},{"inputs":[{"internalType":"uint256","name":"_winnerId","type":"uint256"}],"name":"setWinnerId","outputs":[],"stateMutability":"nonpayable","type":"function"},{"inputs":[],"name":"totalBet","outputs":[{"internalType":"uint256","name":"","type":"uint256"}],"stateMutability":"view","type":"function"},{"inputs":[],"name":"winnerId","outputs":[{"internalType":"uint256","name":"","type":"uint256"}],"stateMutability":"view","type":"function"},{"stateMutability":"payable","type":"receive"}],"evm":{"bytecode":{"linkReferences":{},"object":"60806040526040516200250738038062002507833981810160405281019062000029919062000397565b600160008190555081600260006101000a81548173ffffffffffffffffffffffffffffffffffffffff021916908373ffffffffffffffffffffffffffffffffffffffff16021790555080600360006101000a81548173ffffffffffffffffffffffffffffffffffffffff021916908373ffffffffffffffffffffffffffffffffffffffff1602179055508460019081620000c49190620006c7565b5083600960008081526020019081526020016000206000019081620000ea9190620006c7565b508260096000600181526020019081526020016000206000019081620001119190620006c7565b5081600b60006101000a81548173ffffffffffffffffffffffffffffffffffffffff021916908373ffffffffffffffffffffffffffffffffffffffff16021790555080600c60006101000a81548173ffffffffffffffffffffffffffffffffffffffff021916908373ffffffffffffffffffffffffffffffffffffffff1602179055505050505050620007ae565b6000604051905090565b600080fd5b600080fd5b600080fd5b600080fd5b6000601f19601f8301169050919050565b7f4e487b7100000000000000000000000000000000000000000000000000000000600052604160045260246000fd5b6200020882620001bd565b810181811067ffffffffffffffff821117156200022a5762000229620001ce565b5b80604052505050565b60006200023f6200019f565b90506200024d8282620001fd565b919050565b600067ffffffffffffffff82111562000270576200026f620001ce565b5b6200027b82620001bd565b9050602081019050919050565b60005b83811015620002a85780820151818401526020810190506200028b565b60008484015250505050565b6000620002cb620002c58462000252565b62000233565b905082815260208101848484011115620002ea57620002e9620001b8565b5b620002f784828562000288565b509392505050565b600082601f830112620003175762000316620001b3565b5b815162000329848260208601620002b4565b91505092915050565b600073ffffffffffffffffffffffffffffffffffffffff82169050919050565b60006200035f8262000332565b9050919050565b620003718162000352565b81146200037d57600080fd5b50565b600081519050620003918162000366565b92915050565b600080600080600060a08688031215620003b657620003b5620001a9565b5b600086015167ffffffffffffffff811115620003d757620003d6620001ae565b5b620003e588828901620002ff565b955050602086015167ffffffffffffffff811115620004095762000408620001ae565b5b6200041788828901620002ff565b945050604086015167ffffffffffffffff8111156200043b576200043a620001ae565b5b6200044988828901620002ff565b93505060606200045c8882890162000380565b92505060806200046f8882890162000380565b9150509295509295909350565b600081519050919050565b7f4e487b7100000000000000000000000000000000000000000000000000000000600052602260045260246000fd5b60006002820490506001821680620004cf57607f821691505b602082108103620004e557620004e462000487565b5b50919050565b60008190508160005260206000209050919050565b60006020601f8301049050919050565b600082821b905092915050565b6000600883026200054f7fffffffffffffffffffffffffffffffffffffffffffffffffffffffffffffffff8262000510565b6200055b868362000510565b95508019841693508086168417925050509392505050565b6000819050919050565b6000819050919050565b6000620005a8620005a26200059c8462000573565b6200057d565b62000573565b9050919050565b6000819050919050565b620005c48362000587565b620005dc620005d382620005af565b8484546200051d565b825550505050565b600090565b620005f3620005e4565b62000600818484620005b9565b505050565b5b8181101562000628576200061c600082620005e9565b60018101905062000606565b5050565b601f82111562000677576200064181620004eb565b6200064c8462000500565b810160208510156200065c578190505b620006746200066b8562000500565b83018262000605565b50505b505050565b600082821c905092915050565b60006200069c600019846008026200067c565b1980831691505092915050565b6000620006b7838362000689565b9150826002028217905092915050565b620006d2826200047c565b67ffffffffffffffff811115620006ee57620006ed620001ce565b5b620006fa8254620004b6565b620007078282856200062c565b600060209050601f8311600181146200073f57600084156200072a578287015190505b620007368582620006a9565b865550620007a6565b601f1984166200074f86620004eb565b60005b82811015620007795784890151825560018201915060208501945060208101905062000752565b8683101562000799578489015162000795601f89168262000689565b8355505b6001600288020188555050505b505050505050565b611d4980620007be6000396000f3fe6080604052600436106100f75760003560e01c8063ad05d9c31161008a578063dc09f68211610059578063dc09f682146103be578063e8399cc6146103e7578063ebfb665214610403578063fe5e18531461044057610181565b8063ad05d9c314610335578063c6073c661461033f578063cf9594291461036a578063d93e03b01461039357610181565b80639d86801f116100c65780639d86801f14610288578063a14de028146102c8578063a32b3487146102f3578063a99073ae1461031e57610181565b806322010c1f146101c95780635c3a3e5c14610209578063607075fc1461023257806391e0d5931461025d57610181565b3661018157640b68a0aa00341161013a576040517f78e9f1ba00000000000000000000000000000000000000000000000000000000815260040160405180910390fd5b61c35034101561017f576040517f08c379a00000000000000000000000000000000000000000000000000000000081526004016101769061146f565b60405180910390fd5b005b600080369050146101c7576040517f08c379a00000000000000000000000000000000000000000000000000000000081526004016101be906114db565b60405180910390fd5b005b3480156101d557600080fd5b506101f060048036038101906101eb919061155e565b61046b565b60405161020094939291906115c5565b60405180910390f35b34801561021557600080fd5b50610230600480360381019061022b9190611636565b6104bb565b005b34801561023e57600080fd5b5061024761063f565b6040516102549190611708565b60405180910390f35b34801561026957600080fd5b506102726106cd565b60405161027f919061172a565b60405180910390f35b34801561029457600080fd5b506102af60048036038101906102aa9190611745565b6106d3565b6040516102bf9493929190611772565b60405180910390f35b3480156102d457600080fd5b506102dd61078b565b6040516102ea919061172a565b60405180910390f35b3480156102ff57600080fd5b50610308610791565b604051610315919061172a565b60405180910390f35b34801561032a57600080fd5b50610333610797565b005b61033d610843565b005b34801561034b57600080fd5b50610354610a5e565b60405161036191906117cd565b60405180910390f35b34801561037657600080fd5b50610391600480360381019061038c91906117e8565b610a84565b005b34801561039f57600080fd5b506103a8610b63565b6040516103b591906117cd565b60405180910390f35b3480156103ca57600080fd5b506103e560048036038101906103e09190611745565b610b89565b005b61040160048036038101906103fc9190611745565b610c1a565b005b34801561040f57600080fd5b5061042a60048036038101906104259190611745565b61100b565b604051610437919061172a565b60405180910390f35b34801561044c57600080fd5b506104556110e0565b604051610462919061172a565b60405180910390f35b600a6020528060005260406000206000915090508060000160009054906101000a900473ffffffffffffffffffffffffffffffffffffffff16908060010154908060020154908060030154905084565b6104c36110e6565b600047116104fd576040517f47108e3e00000000000000000000000000000000000000000000000000000000815260040160405180910390fd5b600b60009054906101000a900473ffffffffffffffffffffffffffffffffffffffff1673ffffffffffffffffffffffffffffffffffffffff163373ffffffffffffffffffffffffffffffffffffffff1614610584576040517f8679b0c000000000000000000000000000000000000000000000000000000000815260040160405180910390fd5b600c60149054906101000a900460ff16156105d4576040517f08c379a00000000000000000000000000000000000000000000000000000000081526004016105cb90611874565b60405180910390fd5b6000479050600084826105e791906118f2565b9050600084836105f791906118f2565b9050610625600c60009054906101000a900473ffffffffffffffffffffffffffffffffffffffff168361112c565b61062f848261112c565b50505061063a6111e0565b505050565b6001805461064c90611952565b80601f016020809104026020016040519081016040528092919081815260200182805461067890611952565b80156106c55780601f1061069a576101008083540402835291602001916106c5565b820191906000526020600020905b8154815290600101906020018083116106a857829003601f168201915b505050505081565b60075481565b60096020528060005260406000206000915090508060000180546106f690611952565b80601f016020809104026020016040519081016040528092919081815260200182805461072290611952565b801561076f5780601f106107445761010080835404028352916020019161076f565b820191906000526020600020905b81548152906001019060200180831161075257829003601f168201915b5050505050908060010154908060020154908060030154905084565b60045481565b60055481565b600b60009054906101000a900473ffffffffffffffffffffffffffffffffffffffff1673ffffffffffffffffffffffffffffffffffffffff163373ffffffffffffffffffffffffffffffffffffffff161461081e576040517f8679b0c000000000000000000000000000000000000000000000000000000000815260040160405180910390fd5b6001600c60146101000a81548160ff0219169083151502179055506108416111ea565b565b61084b6110e6565b600c60149054906101000a900460ff16610891576040517f0541f1f000000000000000000000000000000000000000000000000000000000815260040160405180910390fd5b600c60149054906101000a900460ff166108e0576040517f08c379a00000000000000000000000000000000000000000000000000000000081526004016108d7906119cf565b60405180910390fd5b600754600a60003373ffffffffffffffffffffffffffffffffffffffff1673ffffffffffffffffffffffffffffffffffffffff1681526020019081526020016000206001015414610966576040517f08c379a000000000000000000000000000000000000000000000000000000000815260040161095d90611a3b565b60405180910390fd5b6064600854600a60003373ffffffffffffffffffffffffffffffffffffffff1673ffffffffffffffffffffffffffffffffffffffff168152602001908152602001600020600201546109b89190611a5b565b6109c291906118f2565b600a60003373ffffffffffffffffffffffffffffffffffffffff1673ffffffffffffffffffffffffffffffffffffffff16815260200190815260200160002060030181905550610a5433600a60003373ffffffffffffffffffffffffffffffffffffffff1673ffffffffffffffffffffffffffffffffffffffff1681526020019081526020016000206003015461112c565b610a5c6111e0565b565b600b60009054906101000a900473ffffffffffffffffffffffffffffffffffffffff1681565b610a8c6110e6565b600b60009054906101000a900473ffffffffffffffffffffffffffffffffffffffff1673ffffffffffffffffffffffffffffffffffffffff163373ffffffffffffffffffffffffffffffffffffffff1614610b13576040517f8679b0c000000000000000000000000000000000000000000000000000000000815260040160405180910390fd5b60004711610b4d576040517f47108e3e00000000000000000000000000000000000000000000000000000000815260040160405180910390fd5b610b57828261112c565b610b5f6111e0565b5050565b600c60009054906101000a900473ffffffffffffffffffffffffffffffffffffffff1681565b600b60009054906101000a900473ffffffffffffffffffffffffffffffffffffffff1673ffffffffffffffffffffffffffffffffffffffff163373ffffffffffffffffffffffffffffffffffffffff1614610c10576040517f8679b0c000000000000000000000000000000000000000000000000000000000815260040160405180910390fd5b8060078190555050565b610c226110e6565b343373ffffffffffffffffffffffffffffffffffffffff16311015610c73576040517f47108e3e00000000000000000000000000000000000000000000000000000000815260040160405180910390fd5b640b68a0aa003411610cb1576040517f78e9f1ba00000000000000000000000000000000000000000000000000000000815260040160405180910390fd5b3373ffffffffffffffffffffffffffffffffffffffff16600a60003373ffffffffffffffffffffffffffffffffffffffff1673ffffffffffffffffffffffffffffffffffffffff16815260200190815260200160002060000160009054906101000a900473ffffffffffffffffffffffffffffffffffffffff1673ffffffffffffffffffffffffffffffffffffffff1603610d78576040517f8424505800000000000000000000000000000000000000000000000000000000815260040160405180910390fd5b6000600360009054906101000a900473ffffffffffffffffffffffffffffffffffffffff1673ffffffffffffffffffffffffffffffffffffffff16630b4805d3336040518263ffffffff1660e01b8152600401610dd591906117cd565b602060405180830381865afa158015610df2573d6000803e3d6000fd5b505050506040513d601f19601f82011682018060405250810190610e169190611add565b67ffffffffffffffff1603610e57576040517f3a70817d00000000000000000000000000000000000000000000000000000000815260040160405180910390fd5b6001811115610e9b576040517f08c379a0000000000000000000000000000000000000000000000000000000008152600401610e9290611b56565b60405180910390fd5b610ea5303461112c565b60066000815480929190610eb890611b76565b9190505550600960008281526020019081526020016000206002016000815480929190610ee490611b76565b9190505550346009600083815260200190815260200160002060030154610f0b9190611bbe565b6009600083815260200190815260200160002060030181905550610f2d611268565b610f3681611300565b7fbabd4d8ad6be16c6a1ac0b279aaad4eb273f40de86a3c6ac350147fc9bbdbda330600960008081526020019081526020016000206002015460096000808152602001908152602001600020600301546009600080815260200190815260200160002060010154600960006001815260200190815260200160002060020154600960006001815260200190815260200160002060030154600960006001815260200190815260200160002060010154604051610ff89796959493929190611bf2565b60405180910390a16110086111e0565b50565b6000804711611046576040517f47108e3e00000000000000000000000000000000000000000000000000000000815260040160405180910390fd5b600b60009054906101000a900473ffffffffffffffffffffffffffffffffffffffff1673ffffffffffffffffffffffffffffffffffffffff163373ffffffffffffffffffffffffffffffffffffffff16146110cd576040517f8679b0c000000000000000000000000000000000000000000000000000000000815260040160405180910390fd5b81476110d991906118f2565b9050919050565b60065481565b600260005403611122576040517f3ee5aeb500000000000000000000000000000000000000000000000000000000815260040160405180910390fd5b6002600081905550565b6000808373ffffffffffffffffffffffffffffffffffffffff168360405161115390611c92565b60006040518083038185875af1925050503d8060008114611190576040519150601f19603f3d011682016040523d82523d6000602084013e611195565b606091505b5091509150816111da576040517f08c379a00000000000000000000000000000000000000000000000000000000081526004016111d190611cf3565b60405180910390fd5b50505050565b6001600081905550565b600c60149054906101000a900460ff16611230576040517f0541f1f000000000000000000000000000000000000000000000000000000000815260040160405180910390fd5b600960006007548152602001908152602001600020600301546064476112569190611a5b565b61126091906118f2565b600881905550565b6006546064600960008081526020019081526020016000206002015461128e9190611a5b565b61129891906118f2565b600960008081526020019081526020016000206001018190555060065460646009600060018152602001908152602001600020600201546112d99190611a5b565b6112e391906118f2565b600960006001815260200190815260200160002060010181905550565b33600a60003373ffffffffffffffffffffffffffffffffffffffff1673ffffffffffffffffffffffffffffffffffffffff16815260200190815260200160002060000160006101000a81548173ffffffffffffffffffffffffffffffffffffffff021916908373ffffffffffffffffffffffffffffffffffffffff16021790555080600a60003373ffffffffffffffffffffffffffffffffffffffff1673ffffffffffffffffffffffffffffffffffffffff1681526020019081526020016000206001018190555034600a60003373ffffffffffffffffffffffffffffffffffffffff1673ffffffffffffffffffffffffffffffffffffffff1681526020019081526020016000206002018190555050565b600082825260208201905092915050565b7f796f752063616e27742073656e64206c657373207468616e2035306b20776569600082015250565b6000611459602083611412565b915061146482611423565b602082019050919050565b600060208201905081810360008301526114888161144c565b9050919050565b7f4e6f2066616c6c6261636b206465736972656400000000000000000000000000600082015250565b60006114c5601383611412565b91506114d08261148f565b602082019050919050565b600060208201905081810360008301526114f4816114b8565b9050919050565b600080fd5b600073ffffffffffffffffffffffffffffffffffffffff82169050919050565b600061152b82611500565b9050919050565b61153b81611520565b811461154657600080fd5b50565b60008135905061155881611532565b92915050565b600060208284031215611574576115736114fb565b5b600061158284828501611549565b91505092915050565b600061159682611500565b9050919050565b6115a68161158b565b82525050565b6000819050919050565b6115bf816115ac565b82525050565b60006080820190506115da600083018761159d565b6115e760208301866115b6565b6115f460408301856115b6565b61160160608301846115b6565b95945050505050565b611613816115ac565b811461161e57600080fd5b50565b6000813590506116308161160a565b92915050565b60008060006060848603121561164f5761164e6114fb565b5b600061165d86828701611621565b935050602061166e86828701611621565b925050604061167f86828701611549565b9150509250925092565b600081519050919050565b60005b838110156116b2578082015181840152602081019050611697565b60008484015250505050565b6000601f19601f8301169050919050565b60006116da82611689565b6116e48185611412565b93506116f4818560208601611694565b6116fd816116be565b840191505092915050565b6000602082019050818103600083015261172281846116cf565b905092915050565b600060208201905061173f60008301846115b6565b92915050565b60006020828403121561175b5761175a6114fb565b5b600061176984828501611621565b91505092915050565b6000608082019050818103600083015261178c81876116cf565b905061179b60208301866115b6565b6117a860408301856115b6565b6117b560608301846115b6565b95945050505050565b6117c781611520565b82525050565b60006020820190506117e260008301846117be565b92915050565b600080604083850312156117ff576117fe6114fb565b5b600061180d85828601611549565b925050602061181e85828601611621565b9150509250929050565b7f66656520616c7265616479207061696400000000000000000000000000000000600082015250565b600061185e601083611412565b915061186982611828565b602082019050919050565b6000602082019050818103600083015261188d81611851565b9050919050565b7f4e487b7100000000000000000000000000000000000000000000000000000000600052601260045260246000fd5b7f4e487b7100000000000000000000000000000000000000000000000000000000600052601160045260246000fd5b60006118fd826115ac565b9150611908836115ac565b92508261191857611917611894565b5b828204905092915050565b7f4e487b7100000000000000000000000000000000000000000000000000000000600052602260045260246000fd5b6000600282049050600182168061196a57607f821691505b60208210810361197d5761197c611923565b5b50919050565b7f70617920706c6174666f726d2066656520666972737400000000000000000000600082015250565b60006119b9601683611412565b91506119c482611983565b602082019050919050565b600060208201905081810360008301526119e8816119ac565b9050919050565b7f6e6f206761696e00000000000000000000000000000000000000000000000000600082015250565b6000611a25600783611412565b9150611a30826119ef565b602082019050919050565b60006020820190508181036000830152611a5481611a18565b9050919050565b6000611a66826115ac565b9150611a71836115ac565b9250828202611a7f816115ac565b91508282048414831517611a9657611a956118c3565b5b5092915050565b600067ffffffffffffffff82169050919050565b611aba81611a9d565b8114611ac557600080fd5b50565b600081519050611ad781611ab1565b92915050565b600060208284031215611af357611af26114fb565b5b6000611b0184828501611ac8565b91505092915050565b7f636f6d70657469746f7220646f6e277420657869737400000000000000000000600082015250565b6000611b40601683611412565b9150611b4b82611b0a565b602082019050919050565b60006020820190508181036000830152611b6f81611b33565b9050919050565b6000611b81826115ac565b91507fffffffffffffffffffffffffffffffffffffffffffffffffffffffffffffffff8203611bb357611bb26118c3565b5b600182019050919050565b6000611bc9826115ac565b9150611bd4836115ac565b9250828201905080821115611bec57611beb6118c3565b5b92915050565b600060e082019050611c07600083018a6117be565b611c1460208301896115b6565b611c2160408301886115b6565b611c2e60608301876115b6565b611c3b60808301866115b6565b611c4860a08301856115b6565b611c5560c08301846115b6565b98975050505050505050565b600081905092915050565b50565b6000611c7c600083611c61565b9150611c8782611c6c565b600082019050919050565b6000611c9d82611c6f565b9150819050919050565b7f4661696c656420746f2073656e64204574686572000000000000000000000000600082015250565b6000611cdd601483611412565b9150611ce882611ca7565b602082019050919050565b60006020820190508181036000830152611d0c81611cd0565b905091905056fea264697066735822122095ec3522d6a30998b56dc36e1a9dcf0d6181e11488deeaf4a5be2825e7033d3664736f6c63430008150033","opcodes":"PUSH1 0x80 PUSH1 0x40 MSTORE PUSH1 0x40 MLOAD PUSH3 0x2507 CODESIZE SUB DUP1 PUSH3 0x2507 DUP4 CODECOPY DUP2 DUP2 ADD PUSH1 0x40 MSTORE DUP2 ADD SWAP1 PUSH3 0x29 SWAP2 SWAP1 PUSH3 0x397 JUMP JUMPDEST PUSH1 0x1 PUSH1 0x0 DUP2 SWAP1 SSTORE POP DUP2 PUSH1 0x2 PUSH1 0x0 PUSH2 0x100 EXP DUP2 SLOAD DUP2 PUSH20 0xFFFFFFFFFFFFFFFFFFFFFFFFFFFFFFFFFFFFFFFF MUL NOT AND SWAP1 DUP4 PUSH20 0xFFFFFFFFFFFFFFFFFFFFFFFFFFFFFFFFFFFFFFFF AND MUL OR SWAP1 SSTORE POP DUP1 PUSH1 0x3 PUSH1 0x0 PUSH2 0x100 EXP DUP2 SLOAD DUP2 PUSH20 0xFFFFFFFFFFFFFFFFFFFFFFFFFFFFFFFFFFFFFFFF MUL NOT AND SWAP1 DUP4 PUSH20 0xFFFFFFFFFFFFFFFFFFFFFFFFFFFFFFFFFFFFFFFF AND MUL OR SWAP1 SSTORE POP DUP5 PUSH1 0x1 SWAP1 DUP2 PUSH3 0xC4 SWAP2 SWAP1 PUSH3 0x6C7 JUMP JUMPDEST POP DUP4 PUSH1 0x9 PUSH1 0x0 DUP1 DUP2 MSTORE PUSH1 0x20 ADD SWAP1 DUP2 MSTORE PUSH1 0x20 ADD PUSH1 0x0 KECCAK256 PUSH1 0x0 ADD SWAP1 DUP2 PUSH3 0xEA SWAP2 SWAP1 PUSH3 0x6C7 JUMP JUMPDEST POP DUP3 PUSH1 0x9 PUSH1 0x0 PUSH1 0x1 DUP2 MSTORE PUSH1 0x20 ADD SWAP1 DUP2 MSTORE PUSH1 0x20 ADD PUSH1 0x0 KECCAK256 PUSH1 0x0 ADD SWAP1 DUP2 PUSH3 0x111 SWAP2 SWAP1 PUSH3 0x6C7 JUMP JUMPDEST POP DUP2 PUSH1 0xB PUSH1 0x0 PUSH2 0x100 EXP DUP2 SLOAD DUP2 PUSH20 0xFFFFFFFFFFFFFFFFFFFFFFFFFFFFFFFFFFFFFFFF MUL NOT AND SWAP1 DUP4 PUSH20 0xFFFFFFFFFFFFFFFFFFFFFFFFFFFFFFFFFFFFFFFF AND MUL OR SWAP1 SSTORE POP DUP1 PUSH1 0xC PUSH1 0x0 PUSH2 0x100 EXP DUP2 SLOAD DUP2 PUSH20 0xFFFFFFFFFFFFFFFFFFFFFFFFFFFFFFFFFFFFFFFF MUL NOT AND SWAP1 DUP4 PUSH20 0xFFFFFFFFFFFFFFFFFFFFFFFFFFFFFFFFFFFFFFFF AND MUL OR SWAP1 SSTORE POP POP POP POP POP POP PUSH3 0x7AE JUMP JUMPDEST PUSH1 0x0 PUSH1 0x40 MLOAD SWAP1 POP SWAP1 JUMP JUMPDEST PUSH1 0x0 DUP1 REVERT JUMPDEST PUSH1 0x0 DUP1 REVERT JUMPDEST PUSH1 0x0 DUP1 REVERT JUMPDEST PUSH1 0x0 DUP1 REVERT JUMPDEST PUSH1 0x0 PUSH1 0x1F NOT PUSH1 0x1F DUP4 ADD AND SWAP1 POP SWAP2 SWAP1 POP JUMP JUMPDEST PUSH32 0x4E487B7100000000000000000000000000000000000000000000000000000000 PUSH1 0x0 MSTORE PUSH1 0x41 PUSH1 0x4 MSTORE PUSH1 0x24 PUSH1 0x0 REVERT JUMPDEST PUSH3 0x208 DUP3 PUSH3 0x1BD JUMP JUMPDEST DUP2 ADD DUP2 DUP2 LT PUSH8 0xFFFFFFFFFFFFFFFF DUP3 GT OR ISZERO PUSH3 0x22A JUMPI PUSH3 0x229 PUSH3 0x1CE JUMP JUMPDEST JUMPDEST DUP1 PUSH1 0x40 MSTORE POP POP POP JUMP JUMPDEST PUSH1 0x0 PUSH3 0x23F PUSH3 0x19F JUMP JUMPDEST SWAP1 POP PUSH3 0x24D DUP3 DUP3 PUSH3 0x1FD JUMP JUMPDEST SWAP2 SWAP1 POP JUMP JUMPDEST PUSH1 0x0 PUSH8 0xFFFFFFFFFFFFFFFF DUP3 GT ISZERO PUSH3 0x270 JUMPI PUSH3 0x26F PUSH3 0x1CE JUMP JUMPDEST JUMPDEST PUSH3 0x27B DUP3 PUSH3 0x1BD JUMP JUMPDEST SWAP1 POP PUSH1 0x20 DUP2 ADD SWAP1 POP SWAP2 SWAP1 POP JUMP JUMPDEST PUSH1 0x0 JUMPDEST DUP4 DUP2 LT ISZERO PUSH3 0x2A8 JUMPI DUP1 DUP3 ADD MLOAD DUP2 DUP5 ADD MSTORE PUSH1 0x20 DUP2 ADD SWAP1 POP PUSH3 0x28B JUMP JUMPDEST PUSH1 0x0 DUP5 DUP5 ADD MSTORE POP POP POP POP JUMP JUMPDEST PUSH1 0x0 PUSH3 0x2CB PUSH3 0x2C5 DUP5 PUSH3 0x252 JUMP JUMPDEST PUSH3 0x233 JUMP JUMPDEST SWAP1 POP DUP3 DUP2 MSTORE PUSH1 0x20 DUP2 ADD DUP5 DUP5 DUP5 ADD GT ISZERO PUSH3 0x2EA JUMPI PUSH3 0x2E9 PUSH3 0x1B8 JUMP JUMPDEST JUMPDEST PUSH3 0x2F7 DUP5 DUP3 DUP6 PUSH3 0x288 JUMP JUMPDEST POP SWAP4 SWAP3 POP POP POP JUMP JUMPDEST PUSH1 0x0 DUP3 PUSH1 0x1F DUP4 ADD SLT PUSH3 0x317 JUMPI PUSH3 0x316 PUSH3 0x1B3 JUMP JUMPDEST JUMPDEST DUP2 MLOAD PUSH3 0x329 DUP5 DUP3 PUSH1 0x20 DUP7 ADD PUSH3 0x2B4 JUMP JUMPDEST SWAP2 POP POP SWAP3 SWAP2 POP POP JUMP JUMPDEST PUSH1 0x0 PUSH20 0xFFFFFFFFFFFFFFFFFFFFFFFFFFFFFFFFFFFFFFFF DUP3 AND SWAP1 POP SWAP2 SWAP1 POP JUMP JUMPDEST PUSH1 0x0 PUSH3 0x35F DUP3 PUSH3 0x332 JUMP JUMPDEST SWAP1 POP SWAP2 SWAP1 POP JUMP JUMPDEST PUSH3 0x371 DUP2 PUSH3 0x352 JUMP JUMPDEST DUP2 EQ PUSH3 0x37D JUMPI PUSH1 0x0 DUP1 REVERT JUMPDEST POP JUMP JUMPDEST PUSH1 0x0 DUP2 MLOAD SWAP1 POP PUSH3 0x391 DUP2 PUSH3 0x366 JUMP JUMPDEST SWAP3 SWAP2 POP POP JUMP JUMPDEST PUSH1 0x0 DUP1 PUSH1 0x0 DUP1 PUSH1 0x0 PUSH1 0xA0 DUP7 DUP9 SUB SLT ISZERO PUSH3 0x3B6 JUMPI PUSH3 0x3B5 PUSH3 0x1A9 JUMP JUMPDEST JUMPDEST PUSH1 0x0 DUP7 ADD MLOAD PUSH8 0xFFFFFFFFFFFFFFFF DUP2 GT ISZERO PUSH3 0x3D7 JUMPI PUSH3 0x3D6 PUSH3 0x1AE JUMP JUMPDEST JUMPDEST PUSH3 0x3E5 DUP9 DUP3 DUP10 ADD PUSH3 0x2FF JUMP JUMPDEST SWAP6 POP POP PUSH1 0x20 DUP7 ADD MLOAD PUSH8 0xFFFFFFFFFFFFFFFF DUP2 GT ISZERO PUSH3 0x409 JUMPI PUSH3 0x408 PUSH3 0x1AE JUMP JUMPDEST JUMPDEST PUSH3 0x417 DUP9 DUP3 DUP10 ADD PUSH3 0x2FF JUMP JUMPDEST SWAP5 POP POP PUSH1 0x40 DUP7 ADD MLOAD PUSH8 0xFFFFFFFFFFFFFFFF DUP2 GT ISZERO PUSH3 0x43B JUMPI PUSH3 0x43A PUSH3 0x1AE JUMP JUMPDEST JUMPDEST PUSH3 0x449 DUP9 DUP3 DUP10 ADD PUSH3 0x2FF JUMP JUMPDEST SWAP4 POP POP PUSH1 0x60 PUSH3 0x45C DUP9 DUP3 DUP10 ADD PUSH3 0x380 JUMP JUMPDEST SWAP3 POP POP PUSH1 0x80 PUSH3 0x46F DUP9 DUP3 DUP10 ADD PUSH3 0x380 JUMP JUMPDEST SWAP2 POP POP SWAP3 SWAP6 POP SWAP3 SWAP6 SWAP1 SWAP4 POP JUMP JUMPDEST PUSH1 0x0 DUP2 MLOAD SWAP1 POP SWAP2 SWAP1 POP JUMP JUMPDEST PUSH32 0x4E487B7100000000000000000000000000000000000000000000000000000000 PUSH1 0x0 MSTORE PUSH1 0x22 PUSH1 0x4 MSTORE PUSH1 0x24 PUSH1 0x0 REVERT JUMPDEST PUSH1 0x0 PUSH1 0x2 DUP3 DIV SWAP1 POP PUSH1 0x1 DUP3 AND DUP1 PUSH3 0x4CF JUMPI PUSH1 0x7F DUP3 AND SWAP2 POP JUMPDEST PUSH1 0x20 DUP3 LT DUP2 SUB PUSH3 0x4E5 JUMPI PUSH3 0x4E4 PUSH3 0x487 JUMP JUMPDEST JUMPDEST POP SWAP2 SWAP1 POP JUMP JUMPDEST PUSH1 0x0 DUP2 SWAP1 POP DUP2 PUSH1 0x0 MSTORE PUSH1 0x20 PUSH1 0x0 KECCAK256 SWAP1 POP SWAP2 SWAP1 POP JUMP JUMPDEST PUSH1 0x0 PUSH1 0x20 PUSH1 0x1F DUP4 ADD DIV SWAP1 POP SWAP2 SWAP1 POP JUMP JUMPDEST PUSH1 0x0 DUP3 DUP3 SHL SWAP1 POP SWAP3 SWAP2 POP POP JUMP JUMPDEST PUSH1 0x0 PUSH1 0x8 DUP4 MUL PUSH3 0x54F PUSH32 0xFFFFFFFFFFFFFFFFFFFFFFFFFFFFFFFFFFFFFFFFFFFFFFFFFFFFFFFFFFFFFFFF DUP3 PUSH3 0x510 JUMP JUMPDEST PUSH3 0x55B DUP7 DUP4 PUSH3 0x510 JUMP JUMPDEST SWAP6 POP DUP1 NOT DUP5 AND SWAP4 POP DUP1 DUP7 AND DUP5 OR SWAP3 POP POP POP SWAP4 SWAP3 POP POP POP JUMP JUMPDEST PUSH1 0x0 DUP2 SWAP1 POP SWAP2 SWAP1 POP JUMP JUMPDEST PUSH1 0x0 DUP2 SWAP1 POP SWAP2 SWAP1 POP JUMP JUMPDEST PUSH1 0x0 PUSH3 0x5A8 PUSH3 0x5A2 PUSH3 0x59C DUP5 PUSH3 0x573 JUMP JUMPDEST PUSH3 0x57D JUMP JUMPDEST PUSH3 0x573 JUMP JUMPDEST SWAP1 POP SWAP2 SWAP1 POP JUMP JUMPDEST PUSH1 0x0 DUP2 SWAP1 POP SWAP2 SWAP1 POP JUMP JUMPDEST PUSH3 0x5C4 DUP4 PUSH3 0x587 JUMP JUMPDEST PUSH3 0x5DC PUSH3 0x5D3 DUP3 PUSH3 0x5AF JUMP JUMPDEST DUP5 DUP5 SLOAD PUSH3 0x51D JUMP JUMPDEST DUP3 SSTORE POP POP POP POP JUMP JUMPDEST PUSH1 0x0 SWAP1 JUMP JUMPDEST PUSH3 0x5F3 PUSH3 0x5E4 JUMP JUMPDEST PUSH3 0x600 DUP2 DUP5 DUP5 PUSH3 0x5B9 JUMP JUMPDEST POP POP POP JUMP JUMPDEST JUMPDEST DUP2 DUP2 LT ISZERO PUSH3 0x628 JUMPI PUSH3 0x61C PUSH1 0x0 DUP3 PUSH3 0x5E9 JUMP JUMPDEST PUSH1 0x1 DUP2 ADD SWAP1 POP PUSH3 0x606 JUMP JUMPDEST POP POP JUMP JUMPDEST PUSH1 0x1F DUP3 GT ISZERO PUSH3 0x677 JUMPI PUSH3 0x641 DUP2 PUSH3 0x4EB JUMP JUMPDEST PUSH3 0x64C DUP5 PUSH3 0x500 JUMP JUMPDEST DUP2 ADD PUSH1 0x20 DUP6 LT ISZERO PUSH3 0x65C JUMPI DUP2 SWAP1 POP JUMPDEST PUSH3 0x674 PUSH3 0x66B DUP6 PUSH3 0x500 JUMP JUMPDEST DUP4 ADD DUP3 PUSH3 0x605 JUMP JUMPDEST POP POP JUMPDEST POP POP POP JUMP JUMPDEST PUSH1 0x0 DUP3 DUP3 SHR SWAP1 POP SWAP3 SWAP2 POP POP JUMP JUMPDEST PUSH1 0x0 PUSH3 0x69C PUSH1 0x0 NOT DUP5 PUSH1 0x8 MUL PUSH3 0x67C JUMP JUMPDEST NOT DUP1 DUP4 AND SWAP2 POP POP SWAP3 SWAP2 POP POP JUMP JUMPDEST PUSH1 0x0 PUSH3 0x6B7 DUP4 DUP4 PUSH3 0x689 JUMP JUMPDEST SWAP2 POP DUP3 PUSH1 0x2 MUL DUP3 OR SWAP1 POP SWAP3 SWAP2 POP POP JUMP JUMPDEST PUSH3 0x6D2 DUP3 PUSH3 0x47C JUMP JUMPDEST PUSH8 0xFFFFFFFFFFFFFFFF DUP2 GT ISZERO PUSH3 0x6EE JUMPI PUSH3 0x6ED PUSH3 0x1CE JUMP JUMPDEST JUMPDEST PUSH3 0x6FA DUP3 SLOAD PUSH3 0x4B6 JUMP JUMPDEST PUSH3 0x707 DUP3 DUP3 DUP6 PUSH3 0x62C JUMP JUMPDEST PUSH1 0x0 PUSH1 0x20 SWAP1 POP PUSH1 0x1F DUP4 GT PUSH1 0x1 DUP2 EQ PUSH3 0x73F JUMPI PUSH1 0x0 DUP5 ISZERO PUSH3 0x72A JUMPI DUP3 DUP8 ADD MLOAD SWAP1 POP JUMPDEST PUSH3 0x736 DUP6 DUP3 PUSH3 0x6A9 JUMP JUMPDEST DUP7 SSTORE POP PUSH3 0x7A6 JUMP JUMPDEST PUSH1 0x1F NOT DUP5 AND PUSH3 0x74F DUP7 PUSH3 0x4EB JUMP JUMPDEST PUSH1 0x0 JUMPDEST DUP3 DUP2 LT ISZERO PUSH3 0x779 JUMPI DUP5 DUP10 ADD MLOAD DUP3 SSTORE PUSH1 0x1 DUP3 ADD SWAP2 POP PUSH1 0x20 DUP6 ADD SWAP5 POP PUSH1 0x20 DUP2 ADD SWAP1 POP PUSH3 0x752 JUMP JUMPDEST DUP7 DUP4 LT ISZERO PUSH3 0x799 JUMPI DUP5 DUP10 ADD MLOAD PUSH3 0x795 PUSH1 0x1F DUP10 AND DUP3 PUSH3 0x689 JUMP JUMPDEST DUP4 SSTORE POP JUMPDEST PUSH1 0x1 PUSH1 0x2 DUP9 MUL ADD DUP9 SSTORE POP POP POP JUMPDEST POP POP POP POP POP POP JUMP JUMPDEST PUSH2 0x1D49 DUP1 PUSH3 0x7BE PUSH1 0x0 CODECOPY PUSH1 0x0 RETURN INVALID PUSH1 0x80 PUSH1 0x40 MSTORE PUSH1 0x4 CALLDATASIZE LT PUSH2 0xF7 JUMPI PUSH1 0x0 CALLDATALOAD PUSH1 0xE0 SHR DUP1 PUSH4 0xAD05D9C3 GT PUSH2 0x8A JUMPI DUP1 PUSH4 0xDC09F682 GT PUSH2 0x59 JUMPI DUP1 PUSH4 0xDC09F682 EQ PUSH2 0x3BE JUMPI DUP1 PUSH4 0xE8399CC6 EQ PUSH2 0x3E7 JUMPI DUP1 PUSH4 0xEBFB6652 EQ PUSH2 0x403 JUMPI DUP1 PUSH4 0xFE5E1853 EQ PUSH2 0x440 JUMPI PUSH2 0x181 JUMP JUMPDEST DUP1 PUSH4 0xAD05D9C3 EQ PUSH2 0x335 JUMPI DUP1 PUSH4 0xC6073C66 EQ PUSH2 0x33F JUMPI DUP1 PUSH4 0xCF959429 EQ PUSH2 0x36A JUMPI DUP1 PUSH4 0xD93E03B0 EQ PUSH2 0x393 JUMPI PUSH2 0x181 JUMP JUMPDEST DUP1 PUSH4 0x9D86801F GT PUSH2 0xC6 JUMPI DUP1 PUSH4 0x9D86801F EQ PUSH2 0x288 JUMPI DUP1 PUSH4 0xA14DE028 EQ PUSH2 0x2C8 JUMPI DUP1 PUSH4 0xA32B3487 EQ PUSH2 0x2F3 JUMPI DUP1 PUSH4 0xA99073AE EQ PUSH2 0x31E JUMPI PUSH2 0x181 JUMP JUMPDEST DUP1 PUSH4 0x22010C1F EQ PUSH2 0x1C9 JUMPI DUP1 PUSH4 0x5C3A3E5C EQ PUSH2 0x209 JUMPI DUP1 PUSH4 0x607075FC EQ PUSH2 0x232 JUMPI DUP1 PUSH4 0x91E0D593 EQ PUSH2 0x25D JUMPI PUSH2 0x181 JUMP JUMPDEST CALLDATASIZE PUSH2 0x181 JUMPI PUSH5 0xB68A0AA00 CALLVALUE GT PUSH2 0x13A JUMPI PUSH1 0x40 MLOAD PUSH32 0x78E9F1BA00000000000000000000000000000000000000000000000000000000 DUP2 MSTORE PUSH1 0x4 ADD PUSH1 0x40 MLOAD DUP1 SWAP2 SUB SWAP1 REVERT JUMPDEST PUSH2 0xC350 CALLVALUE LT ISZERO PUSH2 0x17F JUMPI PUSH1 0x40 MLOAD PUSH32 0x8C379A000000000000000000000000000000000000000000000000000000000 DUP2 MSTORE PUSH1 0x4 ADD PUSH2 0x176 SWAP1 PUSH2 0x146F JUMP JUMPDEST PUSH1 0x40 MLOAD DUP1 SWAP2 SUB SWAP1 REVERT JUMPDEST STOP JUMPDEST PUSH1 0x0 DUP1 CALLDATASIZE SWAP1 POP EQ PUSH2 0x1C7 JUMPI PUSH1 0x40 MLOAD PUSH32 0x8C379A000000000000000000000000000000000000000000000000000000000 DUP2 MSTORE PUSH1 0x4 ADD PUSH2 0x1BE SWAP1 PUSH2 0x14DB JUMP JUMPDEST PUSH1 0x40 MLOAD DUP1 SWAP2 SUB SWAP1 REVERT JUMPDEST STOP JUMPDEST CALLVALUE DUP1 ISZERO PUSH2 0x1D5 JUMPI PUSH1 0x0 DUP1 REVERT JUMPDEST POP PUSH2 0x1F0 PUSH1 0x4 DUP1 CALLDATASIZE SUB DUP2 ADD SWAP1 PUSH2 0x1EB SWAP2 SWAP1 PUSH2 0x155E JUMP JUMPDEST PUSH2 0x46B JUMP JUMPDEST PUSH1 0x40 MLOAD PUSH2 0x200 SWAP5 SWAP4 SWAP3 SWAP2 SWAP1 PUSH2 0x15C5 JUMP JUMPDEST PUSH1 0x40 MLOAD DUP1 SWAP2 SUB SWAP1 RETURN JUMPDEST CALLVALUE DUP1 ISZERO PUSH2 0x215 JUMPI PUSH1 0x0 DUP1 REVERT JUMPDEST POP PUSH2 0x230 PUSH1 0x4 DUP1 CALLDATASIZE SUB DUP2 ADD SWAP1 PUSH2 0x22B SWAP2 SWAP1 PUSH2 0x1636 JUMP JUMPDEST PUSH2 0x4BB JUMP JUMPDEST STOP JUMPDEST CALLVALUE DUP1 ISZERO PUSH2 0x23E JUMPI PUSH1 0x0 DUP1 REVERT JUMPDEST POP PUSH2 0x247 PUSH2 0x63F JUMP JUMPDEST PUSH1 0x40 MLOAD PUSH2 0x254 SWAP2 SWAP1 PUSH2 0x1708 JUMP JUMPDEST PUSH1 0x40 MLOAD DUP1 SWAP2 SUB SWAP1 RETURN JUMPDEST CALLVALUE DUP1 ISZERO PUSH2 0x269 JUMPI PUSH1 0x0 DUP1 REVERT JUMPDEST POP PUSH2 0x272 PUSH2 0x6CD JUMP JUMPDEST PUSH1 0x40 MLOAD PUSH2 0x27F SWAP2 SWAP1 PUSH2 0x172A JUMP JUMPDEST PUSH1 0x40 MLOAD DUP1 SWAP2 SUB SWAP1 RETURN JUMPDEST CALLVALUE DUP1 ISZERO PUSH2 0x294 JUMPI PUSH1 0x0 DUP1 REVERT JUMPDEST POP PUSH2 0x2AF PUSH1 0x4 DUP1 CALLDATASIZE SUB DUP2 ADD SWAP1 PUSH2 0x2AA SWAP2 SWAP1 PUSH2 0x1745 JUMP JUMPDEST PUSH2 0x6D3 JUMP JUMPDEST PUSH1 0x40 MLOAD PUSH2 0x2BF SWAP5 SWAP4 SWAP3 SWAP2 SWAP1 PUSH2 0x1772 JUMP JUMPDEST PUSH1 0x40 MLOAD DUP1 SWAP2 SUB SWAP1 RETURN JUMPDEST CALLVALUE DUP1 ISZERO PUSH2 0x2D4 JUMPI PUSH1 0x0 DUP1 REVERT JUMPDEST POP PUSH2 0x2DD PUSH2 0x78B JUMP JUMPDEST PUSH1 0x40 MLOAD PUSH2 0x2EA SWAP2 SWAP1 PUSH2 0x172A JUMP JUMPDEST PUSH1 0x40 MLOAD DUP1 SWAP2 SUB SWAP1 RETURN JUMPDEST CALLVALUE DUP1 ISZERO PUSH2 0x2FF JUMPI PUSH1 0x0 DUP1 REVERT JUMPDEST POP PUSH2 0x308 PUSH2 0x791 JUMP JUMPDEST PUSH1 0x40 MLOAD PUSH2 0x315 SWAP2 SWAP1 PUSH2 0x172A JUMP JUMPDEST PUSH1 0x40 MLOAD DUP1 SWAP2 SUB SWAP1 RETURN JUMPDEST CALLVALUE DUP1 ISZERO PUSH2 0x32A JUMPI PUSH1 0x0 DUP1 REVERT JUMPDEST POP PUSH2 0x333 PUSH2 0x797 JUMP JUMPDEST STOP JUMPDEST PUSH2 0x33D PUSH2 0x843 JUMP JUMPDEST STOP JUMPDEST CALLVALUE DUP1 ISZERO PUSH2 0x34B JUMPI PUSH1 0x0 DUP1 REVERT JUMPDEST POP PUSH2 0x354 PUSH2 0xA5E JUMP JUMPDEST PUSH1 0x40 MLOAD PUSH2 0x361 SWAP2 SWAP1 PUSH2 0x17CD JUMP JUMPDEST PUSH1 0x40 MLOAD DUP1 SWAP2 SUB SWAP1 RETURN JUMPDEST CALLVALUE DUP1 ISZERO PUSH2 0x376 JUMPI PUSH1 0x0 DUP1 REVERT JUMPDEST POP PUSH2 0x391 PUSH1 0x4 DUP1 CALLDATASIZE SUB DUP2 ADD SWAP1 PUSH2 0x38C SWAP2 SWAP1 PUSH2 0x17E8 JUMP JUMPDEST PUSH2 0xA84 JUMP JUMPDEST STOP JUMPDEST CALLVALUE DUP1 ISZERO PUSH2 0x39F JUMPI PUSH1 0x0 DUP1 REVERT JUMPDEST POP PUSH2 0x3A8 PUSH2 0xB63 JUMP JUMPDEST PUSH1 0x40 MLOAD PUSH2 0x3B5 SWAP2 SWAP1 PUSH2 0x17CD JUMP JUMPDEST PUSH1 0x40 MLOAD DUP1 SWAP2 SUB SWAP1 RETURN JUMPDEST CALLVALUE DUP1 ISZERO PUSH2 0x3CA JUMPI PUSH1 0x0 DUP1 REVERT JUMPDEST POP PUSH2 0x3E5 PUSH1 0x4 DUP1 CALLDATASIZE SUB DUP2 ADD SWAP1 PUSH2 0x3E0 SWAP2 SWAP1 PUSH2 0x1745 JUMP JUMPDEST PUSH2 0xB89 JUMP JUMPDEST STOP JUMPDEST PUSH2 0x401 PUSH1 0x4 DUP1 CALLDATASIZE SUB DUP2 ADD SWAP1 PUSH2 0x3FC SWAP2 SWAP1 PUSH2 0x1745 JUMP JUMPDEST PUSH2 0xC1A JUMP JUMPDEST STOP JUMPDEST CALLVALUE DUP1 ISZERO PUSH2 0x40F JUMPI PUSH1 0x0 DUP1 REVERT JUMPDEST POP PUSH2 0x42A PUSH1 0x4 DUP1 CALLDATASIZE SUB DUP2 ADD SWAP1 PUSH2 0x425 SWAP2 SWAP1 PUSH2 0x1745 JUMP JUMPDEST PUSH2 0x100B JUMP JUMPDEST PUSH1 0x40 MLOAD PUSH2 0x437 SWAP2 SWAP1 PUSH2 0x172A JUMP JUMPDEST PUSH1 0x40 MLOAD DUP1 SWAP2 SUB SWAP1 RETURN JUMPDEST CALLVALUE DUP1 ISZERO PUSH2 0x44C JUMPI PUSH1 0x0 DUP1 REVERT JUMPDEST POP PUSH2 0x455 PUSH2 0x10E0 JUMP JUMPDEST PUSH1 0x40 MLOAD PUSH2 0x462 SWAP2 SWAP1 PUSH2 0x172A JUMP JUMPDEST PUSH1 0x40 MLOAD DUP1 SWAP2 SUB SWAP1 RETURN JUMPDEST PUSH1 0xA PUSH1 0x20 MSTORE DUP1 PUSH1 0x0 MSTORE PUSH1 0x40 PUSH1 0x0 KECCAK256 PUSH1 0x0 SWAP2 POP SWAP1 POP DUP1 PUSH1 0x0 ADD PUSH1 0x0 SWAP1 SLOAD SWAP1 PUSH2 0x100 EXP SWAP1 DIV PUSH20 0xFFFFFFFFFFFFFFFFFFFFFFFFFFFFFFFFFFFFFFFF AND SWAP1 DUP1 PUSH1 0x1 ADD SLOAD SWAP1 DUP1 PUSH1 0x2 ADD SLOAD SWAP1 DUP1 PUSH1 0x3 ADD SLOAD SWAP1 POP DUP5 JUMP JUMPDEST PUSH2 0x4C3 PUSH2 0x10E6 JUMP JUMPDEST PUSH1 0x0 SELFBALANCE GT PUSH2 0x4FD JUMPI PUSH1 0x40 MLOAD PUSH32 0x47108E3E00000000000000000000000000000000000000000000000000000000 DUP2 MSTORE PUSH1 0x4 ADD PUSH1 0x40 MLOAD DUP1 SWAP2 SUB SWAP1 REVERT JUMPDEST PUSH1 0xB PUSH1 0x0 SWAP1 SLOAD SWAP1 PUSH2 0x100 EXP SWAP1 DIV PUSH20 0xFFFFFFFFFFFFFFFFFFFFFFFFFFFFFFFFFFFFFFFF AND PUSH20 0xFFFFFFFFFFFFFFFFFFFFFFFFFFFFFFFFFFFFFFFF AND CALLER PUSH20 0xFFFFFFFFFFFFFFFFFFFFFFFFFFFFFFFFFFFFFFFF AND EQ PUSH2 0x584 JUMPI PUSH1 0x40 MLOAD PUSH32 0x8679B0C000000000000000000000000000000000000000000000000000000000 DUP2 MSTORE PUSH1 0x4 ADD PUSH1 0x40 MLOAD DUP1 SWAP2 SUB SWAP1 REVERT JUMPDEST PUSH1 0xC PUSH1 0x14 SWAP1 SLOAD SWAP1 PUSH2 0x100 EXP SWAP1 DIV PUSH1 0xFF AND ISZERO PUSH2 0x5D4 JUMPI PUSH1 0x40 MLOAD PUSH32 0x8C379A000000000000000000000000000000000000000000000000000000000 DUP2 MSTORE PUSH1 0x4 ADD PUSH2 0x5CB SWAP1 PUSH2 0x1874 JUMP JUMPDEST PUSH1 0x40 MLOAD DUP1 SWAP2 SUB SWAP1 REVERT JUMPDEST PUSH1 0x0 SELFBALANCE SWAP1 POP PUSH1 0x0 DUP5 DUP3 PUSH2 0x5E7 SWAP2 SWAP1 PUSH2 0x18F2 JUMP JUMPDEST SWAP1 POP PUSH1 0x0 DUP5 DUP4 PUSH2 0x5F7 SWAP2 SWAP1 PUSH2 0x18F2 JUMP JUMPDEST SWAP1 POP PUSH2 0x625 PUSH1 0xC PUSH1 0x0 SWAP1 SLOAD SWAP1 PUSH2 0x100 EXP SWAP1 DIV PUSH20 0xFFFFFFFFFFFFFFFFFFFFFFFFFFFFFFFFFFFFFFFF AND DUP4 PUSH2 0x112C JUMP JUMPDEST PUSH2 0x62F DUP5 DUP3 PUSH2 0x112C JUMP JUMPDEST POP POP POP PUSH2 0x63A PUSH2 0x11E0 JUMP JUMPDEST POP POP POP JUMP JUMPDEST PUSH1 0x1 DUP1 SLOAD PUSH2 0x64C SWAP1 PUSH2 0x1952 JUMP JUMPDEST DUP1 PUSH1 0x1F ADD PUSH1 0x20 DUP1 SWAP2 DIV MUL PUSH1 0x20 ADD PUSH1 0x40 MLOAD SWAP1 DUP2 ADD PUSH1 0x40 MSTORE DUP1 SWAP3 SWAP2 SWAP1 DUP2 DUP2 MSTORE PUSH1 0x20 ADD DUP3 DUP1 SLOAD PUSH2 0x678 SWAP1 PUSH2 0x1952 JUMP JUMPDEST DUP1 ISZERO PUSH2 0x6C5 JUMPI DUP1 PUSH1 0x1F LT PUSH2 0x69A JUMPI PUSH2 0x100 DUP1 DUP4 SLOAD DIV MUL DUP4 MSTORE SWAP2 PUSH1 0x20 ADD SWAP2 PUSH2 0x6C5 JUMP JUMPDEST DUP3 ADD SWAP2 SWAP1 PUSH1 0x0 MSTORE PUSH1 0x20 PUSH1 0x0 KECCAK256 SWAP1 JUMPDEST DUP2 SLOAD DUP2 MSTORE SWAP1 PUSH1 0x1 ADD SWAP1 PUSH1 0x20 ADD DUP1 DUP4 GT PUSH2 0x6A8 JUMPI DUP3 SWAP1 SUB PUSH1 0x1F AND DUP3 ADD SWAP2 JUMPDEST POP POP POP POP POP DUP2 JUMP JUMPDEST PUSH1 0x7 SLOAD DUP2 JUMP JUMPDEST PUSH1 0x9 PUSH1 0x20 MSTORE DUP1 PUSH1 0x0 MSTORE PUSH1 0x40 PUSH1 0x0 KECCAK256 PUSH1 0x0 SWAP2 POP SWAP1 POP DUP1 PUSH1 0x0 ADD DUP1 SLOAD PUSH2 0x6F6 SWAP1 PUSH2 0x1952 JUMP JUMPDEST DUP1 PUSH1 0x1F ADD PUSH1 0x20 DUP1 SWAP2 DIV MUL PUSH1 0x20 ADD PUSH1 0x40 MLOAD SWAP1 DUP2 ADD PUSH1 0x40 MSTORE DUP1 SWAP3 SWAP2 SWAP1 DUP2 DUP2 MSTORE PUSH1 0x20 ADD DUP3 DUP1 SLOAD PUSH2 0x722 SWAP1 PUSH2 0x1952 JUMP JUMPDEST DUP1 ISZERO PUSH2 0x76F JUMPI DUP1 PUSH1 0x1F LT PUSH2 0x744 JUMPI PUSH2 0x100 DUP1 DUP4 SLOAD DIV MUL DUP4 MSTORE SWAP2 PUSH1 0x20 ADD SWAP2 PUSH2 0x76F JUMP JUMPDEST DUP3 ADD SWAP2 SWAP1 PUSH1 0x0 MSTORE PUSH1 0x20 PUSH1 0x0 KECCAK256 SWAP1 JUMPDEST DUP2 SLOAD DUP2 MSTORE SWAP1 PUSH1 0x1 ADD SWAP1 PUSH1 0x20 ADD DUP1 DUP4 GT PUSH2 0x752 JUMPI DUP3 SWAP1 SUB PUSH1 0x1F AND DUP3 ADD SWAP2 JUMPDEST POP POP POP POP POP SWAP1 DUP1 PUSH1 0x1 ADD SLOAD SWAP1 DUP1 PUSH1 0x2 ADD SLOAD SWAP1 DUP1 PUSH1 0x3 ADD SLOAD SWAP1 POP DUP5 JUMP JUMPDEST PUSH1 0x4 SLOAD DUP2 JUMP JUMPDEST PUSH1 0x5 SLOAD DUP2 JUMP JUMPDEST PUSH1 0xB PUSH1 0x0 SWAP1 SLOAD SWAP1 PUSH2 0x100 EXP SWAP1 DIV PUSH20 0xFFFFFFFFFFFFFFFFFFFFFFFFFFFFFFFFFFFFFFFF AND PUSH20 0xFFFFFFFFFFFFFFFFFFFFFFFFFFFFFFFFFFFFFFFF AND CALLER PUSH20 0xFFFFFFFFFFFFFFFFFFFFFFFFFFFFFFFFFFFFFFFF AND EQ PUSH2 0x81E JUMPI PUSH1 0x40 MLOAD PUSH32 0x8679B0C000000000000000000000000000000000000000000000000000000000 DUP2 MSTORE PUSH1 0x4 ADD PUSH1 0x40 MLOAD DUP1 SWAP2 SUB SWAP1 REVERT JUMPDEST PUSH1 0x1 PUSH1 0xC PUSH1 0x14 PUSH2 0x100 EXP DUP2 SLOAD DUP2 PUSH1 0xFF MUL NOT AND SWAP1 DUP4 ISZERO ISZERO MUL OR SWAP1 SSTORE POP PUSH2 0x841 PUSH2 0x11EA JUMP JUMPDEST JUMP JUMPDEST PUSH2 0x84B PUSH2 0x10E6 JUMP JUMPDEST PUSH1 0xC PUSH1 0x14 SWAP1 SLOAD SWAP1 PUSH2 0x100 EXP SWAP1 DIV PUSH1 0xFF AND PUSH2 0x891 JUMPI PUSH1 0x40 MLOAD PUSH32 0x541F1F000000000000000000000000000000000000000000000000000000000 DUP2 MSTORE PUSH1 0x4 ADD PUSH1 0x40 MLOAD DUP1 SWAP2 SUB SWAP1 REVERT JUMPDEST PUSH1 0xC PUSH1 0x14 SWAP1 SLOAD SWAP1 PUSH2 0x100 EXP SWAP1 DIV PUSH1 0xFF AND PUSH2 0x8E0 JUMPI PUSH1 0x40 MLOAD PUSH32 0x8C379A000000000000000000000000000000000000000000000000000000000 DUP2 MSTORE PUSH1 0x4 ADD PUSH2 0x8D7 SWAP1 PUSH2 0x19CF JUMP JUMPDEST PUSH1 0x40 MLOAD DUP1 SWAP2 SUB SWAP1 REVERT JUMPDEST PUSH1 0x7 SLOAD PUSH1 0xA PUSH1 0x0 CALLER PUSH20 0xFFFFFFFFFFFFFFFFFFFFFFFFFFFFFFFFFFFFFFFF AND PUSH20 0xFFFFFFFFFFFFFFFFFFFFFFFFFFFFFFFFFFFFFFFF AND DUP2 MSTORE PUSH1 0x20 ADD SWAP1 DUP2 MSTORE PUSH1 0x20 ADD PUSH1 0x0 KECCAK256 PUSH1 0x1 ADD SLOAD EQ PUSH2 0x966 JUMPI PUSH1 0x40 MLOAD PUSH32 0x8C379A000000000000000000000000000000000000000000000000000000000 DUP2 MSTORE PUSH1 0x4 ADD PUSH2 0x95D SWAP1 PUSH2 0x1A3B JUMP JUMPDEST PUSH1 0x40 MLOAD DUP1 SWAP2 SUB SWAP1 REVERT JUMPDEST PUSH1 0x64 PUSH1 0x8 SLOAD PUSH1 0xA PUSH1 0x0 CALLER PUSH20 0xFFFFFFFFFFFFFFFFFFFFFFFFFFFFFFFFFFFFFFFF AND PUSH20 0xFFFFFFFFFFFFFFFFFFFFFFFFFFFFFFFFFFFFFFFF AND DUP2 MSTORE PUSH1 0x20 ADD SWAP1 DUP2 MSTORE PUSH1 0x20 ADD PUSH1 0x0 KECCAK256 PUSH1 0x2 ADD SLOAD PUSH2 0x9B8 SWAP2 SWAP1 PUSH2 0x1A5B JUMP JUMPDEST PUSH2 0x9C2 SWAP2 SWAP1 PUSH2 0x18F2 JUMP JUMPDEST PUSH1 0xA PUSH1 0x0 CALLER PUSH20 0xFFFFFFFFFFFFFFFFFFFFFFFFFFFFFFFFFFFFFFFF AND PUSH20 0xFFFFFFFFFFFFFFFFFFFFFFFFFFFFFFFFFFFFFFFF AND DUP2 MSTORE PUSH1 0x20 ADD SWAP1 DUP2 MSTORE PUSH1 0x20 ADD PUSH1 0x0 KECCAK256 PUSH1 0x3 ADD DUP2 SWAP1 SSTORE POP PUSH2 0xA54 CALLER PUSH1 0xA PUSH1 0x0 CALLER PUSH20 0xFFFFFFFFFFFFFFFFFFFFFFFFFFFFFFFFFFFFFFFF AND PUSH20 0xFFFFFFFFFFFFFFFFFFFFFFFFFFFFFFFFFFFFFFFF AND DUP2 MSTORE PUSH1 0x20 ADD SWAP1 DUP2 MSTORE PUSH1 0x20 ADD PUSH1 0x0 KECCAK256 PUSH1 0x3 ADD SLOAD PUSH2 0x112C JUMP JUMPDEST PUSH2 0xA5C PUSH2 0x11E0 JUMP JUMPDEST JUMP JUMPDEST PUSH1 0xB PUSH1 0x0 SWAP1 SLOAD SWAP1 PUSH2 0x100 EXP SWAP1 DIV PUSH20 0xFFFFFFFFFFFFFFFFFFFFFFFFFFFFFFFFFFFFFFFF AND DUP2 JUMP JUMPDEST PUSH2 0xA8C PUSH2 0x10E6 JUMP JUMPDEST PUSH1 0xB PUSH1 0x0 SWAP1 SLOAD SWAP1 PUSH2 0x100 EXP SWAP1 DIV PUSH20 0xFFFFFFFFFFFFFFFFFFFFFFFFFFFFFFFFFFFFFFFF AND PUSH20 0xFFFFFFFFFFFFFFFFFFFFFFFFFFFFFFFFFFFFFFFF AND CALLER PUSH20 0xFFFFFFFFFFFFFFFFFFFFFFFFFFFFFFFFFFFFFFFF AND EQ PUSH2 0xB13 JUMPI PUSH1 0x40 MLOAD PUSH32 0x8679B0C000000000000000000000000000000000000000000000000000000000 DUP2 MSTORE PUSH1 0x4 ADD PUSH1 0x40 MLOAD DUP1 SWAP2 SUB SWAP1 REVERT JUMPDEST PUSH1 0x0 SELFBALANCE GT PUSH2 0xB4D JUMPI PUSH1 0x40 MLOAD PUSH32 0x47108E3E00000000000000000000000000000000000000000000000000000000 DUP2 MSTORE PUSH1 0x4 ADD PUSH1 0x40 MLOAD DUP1 SWAP2 SUB SWAP1 REVERT JUMPDEST PUSH2 0xB57 DUP3 DUP3 PUSH2 0x112C JUMP JUMPDEST PUSH2 0xB5F PUSH2 0x11E0 JUMP JUMPDEST POP POP JUMP JUMPDEST PUSH1 0xC PUSH1 0x0 SWAP1 SLOAD SWAP1 PUSH2 0x100 EXP SWAP1 DIV PUSH20 0xFFFFFFFFFFFFFFFFFFFFFFFFFFFFFFFFFFFFFFFF AND DUP2 JUMP JUMPDEST PUSH1 0xB PUSH1 0x0 SWAP1 SLOAD SWAP1 PUSH2 0x100 EXP SWAP1 DIV PUSH20 0xFFFFFFFFFFFFFFFFFFFFFFFFFFFFFFFFFFFFFFFF AND PUSH20 0xFFFFFFFFFFFFFFFFFFFFFFFFFFFFFFFFFFFFFFFF AND CALLER PUSH20 0xFFFFFFFFFFFFFFFFFFFFFFFFFFFFFFFFFFFFFFFF AND EQ PUSH2 0xC10 JUMPI PUSH1 0x40 MLOAD PUSH32 0x8679B0C000000000000000000000000000000000000000000000000000000000 DUP2 MSTORE PUSH1 0x4 ADD PUSH1 0x40 MLOAD DUP1 SWAP2 SUB SWAP1 REVERT JUMPDEST DUP1 PUSH1 0x7 DUP2 SWAP1 SSTORE POP POP JUMP JUMPDEST PUSH2 0xC22 PUSH2 0x10E6 JUMP JUMPDEST CALLVALUE CALLER PUSH20 0xFFFFFFFFFFFFFFFFFFFFFFFFFFFFFFFFFFFFFFFF AND BALANCE LT ISZERO PUSH2 0xC73 JUMPI PUSH1 0x40 MLOAD PUSH32 0x47108E3E00000000000000000000000000000000000000000000000000000000 DUP2 MSTORE PUSH1 0x4 ADD PUSH1 0x40 MLOAD DUP1 SWAP2 SUB SWAP1 REVERT JUMPDEST PUSH5 0xB68A0AA00 CALLVALUE GT PUSH2 0xCB1 JUMPI PUSH1 0x40 MLOAD PUSH32 0x78E9F1BA00000000000000000000000000000000000000000000000000000000 DUP2 MSTORE PUSH1 0x4 ADD PUSH1 0x40 MLOAD DUP1 SWAP2 SUB SWAP1 REVERT JUMPDEST CALLER PUSH20 0xFFFFFFFFFFFFFFFFFFFFFFFFFFFFFFFFFFFFFFFF AND PUSH1 0xA PUSH1 0x0 CALLER PUSH20 0xFFFFFFFFFFFFFFFFFFFFFFFFFFFFFFFFFFFFFFFF AND PUSH20 0xFFFFFFFFFFFFFFFFFFFFFFFFFFFFFFFFFFFFFFFF AND DUP2 MSTORE PUSH1 0x20 ADD SWAP1 DUP2 MSTORE PUSH1 0x20 ADD PUSH1 0x0 KECCAK256 PUSH1 0x0 ADD PUSH1 0x0 SWAP1 SLOAD SWAP1 PUSH2 0x100 EXP SWAP1 DIV PUSH20 0xFFFFFFFFFFFFFFFFFFFFFFFFFFFFFFFFFFFFFFFF AND PUSH20 0xFFFFFFFFFFFFFFFFFFFFFFFFFFFFFFFFFFFFFFFF AND SUB PUSH2 0xD78 JUMPI PUSH1 0x40 MLOAD PUSH32 0x8424505800000000000000000000000000000000000000000000000000000000 DUP2 MSTORE PUSH1 0x4 ADD PUSH1 0x40 MLOAD DUP1 SWAP2 SUB SWAP1 REVERT JUMPDEST PUSH1 0x0 PUSH1 0x3 PUSH1 0x0 SWAP1 SLOAD SWAP1 PUSH2 0x100 EXP SWAP1 DIV PUSH20 0xFFFFFFFFFFFFFFFFFFFFFFFFFFFFFFFFFFFFFFFF AND PUSH20 0xFFFFFFFFFFFFFFFFFFFFFFFFFFFFFFFFFFFFFFFF AND PUSH4 0xB4805D3 CALLER PUSH1 0x40 MLOAD DUP3 PUSH4 0xFFFFFFFF AND PUSH1 0xE0 SHL DUP2 MSTORE PUSH1 0x4 ADD PUSH2 0xDD5 SWAP2 SWAP1 PUSH2 0x17CD JUMP JUMPDEST PUSH1 0x20 PUSH1 0x40 MLOAD DUP1 DUP4 SUB DUP2 DUP7 GAS STATICCALL ISZERO DUP1 ISZERO PUSH2 0xDF2 JUMPI RETURNDATASIZE PUSH1 0x0 DUP1 RETURNDATACOPY RETURNDATASIZE PUSH1 0x0 REVERT JUMPDEST POP POP POP POP PUSH1 0x40 MLOAD RETURNDATASIZE PUSH1 0x1F NOT PUSH1 0x1F DUP3 ADD AND DUP3 ADD DUP1 PUSH1 0x40 MSTORE POP DUP2 ADD SWAP1 PUSH2 0xE16 SWAP2 SWAP1 PUSH2 0x1ADD JUMP JUMPDEST PUSH8 0xFFFFFFFFFFFFFFFF AND SUB PUSH2 0xE57 JUMPI PUSH1 0x40 MLOAD PUSH32 0x3A70817D00000000000000000000000000000000000000000000000000000000 DUP2 MSTORE PUSH1 0x4 ADD PUSH1 0x40 MLOAD DUP1 SWAP2 SUB SWAP1 REVERT JUMPDEST PUSH1 0x1 DUP2 GT ISZERO PUSH2 0xE9B JUMPI PUSH1 0x40 MLOAD PUSH32 0x8C379A000000000000000000000000000000000000000000000000000000000 DUP2 MSTORE PUSH1 0x4 ADD PUSH2 0xE92 SWAP1 PUSH2 0x1B56 JUMP JUMPDEST PUSH1 0x40 MLOAD DUP1 SWAP2 SUB SWAP1 REVERT JUMPDEST PUSH2 0xEA5 ADDRESS CALLVALUE PUSH2 0x112C JUMP JUMPDEST PUSH1 0x6 PUSH1 0x0 DUP2 SLOAD DUP1 SWAP3 SWAP2 SWAP1 PUSH2 0xEB8 SWAP1 PUSH2 0x1B76 JUMP JUMPDEST SWAP2 SWAP1 POP SSTORE POP PUSH1 0x9 PUSH1 0x0 DUP3 DUP2 MSTORE PUSH1 0x20 ADD SWAP1 DUP2 MSTORE PUSH1 0x20 ADD PUSH1 0x0 KECCAK256 PUSH1 0x2 ADD PUSH1 0x0 DUP2 SLOAD DUP1 SWAP3 SWAP2 SWAP1 PUSH2 0xEE4 SWAP1 PUSH2 0x1B76 JUMP JUMPDEST SWAP2 SWAP1 POP SSTORE POP CALLVALUE PUSH1 0x9 PUSH1 0x0 DUP4 DUP2 MSTORE PUSH1 0x20 ADD SWAP1 DUP2 MSTORE PUSH1 0x20 ADD PUSH1 0x0 KECCAK256 PUSH1 0x3 ADD SLOAD PUSH2 0xF0B SWAP2 SWAP1 PUSH2 0x1BBE JUMP JUMPDEST PUSH1 0x9 PUSH1 0x0 DUP4 DUP2 MSTORE PUSH1 0x20 ADD SWAP1 DUP2 MSTORE PUSH1 0x20 ADD PUSH1 0x0 KECCAK256 PUSH1 0x3 ADD DUP2 SWAP1 SSTORE POP PUSH2 0xF2D PUSH2 0x1268 JUMP JUMPDEST PUSH2 0xF36 DUP2 PUSH2 0x1300 JUMP JUMPDEST PUSH32 0xBABD4D8AD6BE16C6A1AC0B279AAAD4EB273F40DE86A3C6AC350147FC9BBDBDA3 ADDRESS PUSH1 0x9 PUSH1 0x0 DUP1 DUP2 MSTORE PUSH1 0x20 ADD SWAP1 DUP2 MSTORE PUSH1 0x20 ADD PUSH1 0x0 KECCAK256 PUSH1 0x2 ADD SLOAD PUSH1 0x9 PUSH1 0x0 DUP1 DUP2 MSTORE PUSH1 0x20 ADD SWAP1 DUP2 MSTORE PUSH1 0x20 ADD PUSH1 0x0 KECCAK256 PUSH1 0x3 ADD SLOAD PUSH1 0x9 PUSH1 0x0 DUP1 DUP2 MSTORE PUSH1 0x20 ADD SWAP1 DUP2 MSTORE PUSH1 0x20 ADD PUSH1 0x0 KECCAK256 PUSH1 0x1 ADD SLOAD PUSH1 0x9 PUSH1 0x0 PUSH1 0x1 DUP2 MSTORE PUSH1 0x20 ADD SWAP1 DUP2 MSTORE PUSH1 0x20 ADD PUSH1 0x0 KECCAK256 PUSH1 0x2 ADD SLOAD PUSH1 0x9 PUSH1 0x0 PUSH1 0x1 DUP2 MSTORE PUSH1 0x20 ADD SWAP1 DUP2 MSTORE PUSH1 0x20 ADD PUSH1 0x0 KECCAK256 PUSH1 0x3 ADD SLOAD PUSH1 0x9 PUSH1 0x0 PUSH1 0x1 DUP2 MSTORE PUSH1 0x20 ADD SWAP1 DUP2 MSTORE PUSH1 0x20 ADD PUSH1 0x0 KECCAK256 PUSH1 0x1 ADD SLOAD PUSH1 0x40 MLOAD PUSH2 0xFF8 SWAP8 SWAP7 SWAP6 SWAP5 SWAP4 SWAP3 SWAP2 SWAP1 PUSH2 0x1BF2 JUMP JUMPDEST PUSH1 0x40 MLOAD DUP1 SWAP2 SUB SWAP1 LOG1 PUSH2 0x1008 PUSH2 0x11E0 JUMP JUMPDEST POP JUMP JUMPDEST PUSH1 0x0 DUP1 SELFBALANCE GT PUSH2 0x1046 JUMPI PUSH1 0x40 MLOAD PUSH32 0x47108E3E00000000000000000000000000000000000000000000000000000000 DUP2 MSTORE PUSH1 0x4 ADD PUSH1 0x40 MLOAD DUP1 SWAP2 SUB SWAP1 REVERT JUMPDEST PUSH1 0xB PUSH1 0x0 SWAP1 SLOAD SWAP1 PUSH2 0x100 EXP SWAP1 DIV PUSH20 0xFFFFFFFFFFFFFFFFFFFFFFFFFFFFFFFFFFFFFFFF AND PUSH20 0xFFFFFFFFFFFFFFFFFFFFFFFFFFFFFFFFFFFFFFFF AND CALLER PUSH20 0xFFFFFFFFFFFFFFFFFFFFFFFFFFFFFFFFFFFFFFFF AND EQ PUSH2 0x10CD JUMPI PUSH1 0x40 MLOAD PUSH32 0x8679B0C000000000000000000000000000000000000000000000000000000000 DUP2 MSTORE PUSH1 0x4 ADD PUSH1 0x40 MLOAD DUP1 SWAP2 SUB SWAP1 REVERT JUMPDEST DUP2 SELFBALANCE PUSH2 0x10D9 SWAP2 SWAP1 PUSH2 0x18F2 JUMP JUMPDEST SWAP1 POP SWAP2 SWAP1 POP JUMP JUMPDEST PUSH1 0x6 SLOAD DUP2 JUMP JUMPDEST PUSH1 0x2 PUSH1 0x0 SLOAD SUB PUSH2 0x1122 JUMPI PUSH1 0x40 MLOAD PUSH32 0x3EE5AEB500000000000000000000000000000000000000000000000000000000 DUP2 MSTORE PUSH1 0x4 ADD PUSH1 0x40 MLOAD DUP1 SWAP2 SUB SWAP1 REVERT JUMPDEST PUSH1 0x2 PUSH1 0x0 DUP2 SWAP1 SSTORE POP JUMP JUMPDEST PUSH1 0x0 DUP1 DUP4 PUSH20 0xFFFFFFFFFFFFFFFFFFFFFFFFFFFFFFFFFFFFFFFF AND DUP4 PUSH1 0x40 MLOAD PUSH2 0x1153 SWAP1 PUSH2 0x1C92 JUMP JUMPDEST PUSH1 0x0 PUSH1 0x40 MLOAD DUP1 DUP4 SUB DUP2 DUP6 DUP8 GAS CALL SWAP3 POP POP POP RETURNDATASIZE DUP1 PUSH1 0x0 DUP2 EQ PUSH2 0x1190 JUMPI PUSH1 0x40 MLOAD SWAP2 POP PUSH1 0x1F NOT PUSH1 0x3F RETURNDATASIZE ADD AND DUP3 ADD PUSH1 0x40 MSTORE RETURNDATASIZE DUP3 MSTORE RETURNDATASIZE PUSH1 0x0 PUSH1 0x20 DUP5 ADD RETURNDATACOPY PUSH2 0x1195 JUMP JUMPDEST PUSH1 0x60 SWAP2 POP JUMPDEST POP SWAP2 POP SWAP2 POP DUP2 PUSH2 0x11DA JUMPI PUSH1 0x40 MLOAD PUSH32 0x8C379A000000000000000000000000000000000000000000000000000000000 DUP2 MSTORE PUSH1 0x4 ADD PUSH2 0x11D1 SWAP1 PUSH2 0x1CF3 JUMP JUMPDEST PUSH1 0x40 MLOAD DUP1 SWAP2 SUB SWAP1 REVERT JUMPDEST POP POP POP POP JUMP JUMPDEST PUSH1 0x1 PUSH1 0x0 DUP2 SWAP1 SSTORE POP JUMP JUMPDEST PUSH1 0xC PUSH1 0x14 SWAP1 SLOAD SWAP1 PUSH2 0x100 EXP SWAP1 DIV PUSH1 0xFF AND PUSH2 0x1230 JUMPI PUSH1 0x40 MLOAD PUSH32 0x541F1F000000000000000000000000000000000000000000000000000000000 DUP2 MSTORE PUSH1 0x4 ADD PUSH1 0x40 MLOAD DUP1 SWAP2 SUB SWAP1 REVERT JUMPDEST PUSH1 0x9 PUSH1 0x0 PUSH1 0x7 SLOAD DUP2 MSTORE PUSH1 0x20 ADD SWAP1 DUP2 MSTORE PUSH1 0x20 ADD PUSH1 0x0 KECCAK256 PUSH1 0x3 ADD SLOAD PUSH1 0x64 SELFBALANCE PUSH2 0x1256 SWAP2 SWAP1 PUSH2 0x1A5B JUMP JUMPDEST PUSH2 0x1260 SWAP2 SWAP1 PUSH2 0x18F2 JUMP JUMPDEST PUSH1 0x8 DUP2 SWAP1 SSTORE POP JUMP JUMPDEST PUSH1 0x6 SLOAD PUSH1 0x64 PUSH1 0x9 PUSH1 0x0 DUP1 DUP2 MSTORE PUSH1 0x20 ADD SWAP1 DUP2 MSTORE PUSH1 0x20 ADD PUSH1 0x0 KECCAK256 PUSH1 0x2 ADD SLOAD PUSH2 0x128E SWAP2 SWAP1 PUSH2 0x1A5B JUMP JUMPDEST PUSH2 0x1298 SWAP2 SWAP1 PUSH2 0x18F2 JUMP JUMPDEST PUSH1 0x9 PUSH1 0x0 DUP1 DUP2 MSTORE PUSH1 0x20 ADD SWAP1 DUP2 MSTORE PUSH1 0x20 ADD PUSH1 0x0 KECCAK256 PUSH1 0x1 ADD DUP2 SWAP1 SSTORE POP PUSH1 0x6 SLOAD PUSH1 0x64 PUSH1 0x9 PUSH1 0x0 PUSH1 0x1 DUP2 MSTORE PUSH1 0x20 ADD SWAP1 DUP2 MSTORE PUSH1 0x20 ADD PUSH1 0x0 KECCAK256 PUSH1 0x2 ADD SLOAD PUSH2 0x12D9 SWAP2 SWAP1 PUSH2 0x1A5B JUMP JUMPDEST PUSH2 0x12E3 SWAP2 SWAP1 PUSH2 0x18F2 JUMP JUMPDEST PUSH1 0x9 PUSH1 0x0 PUSH1 0x1 DUP2 MSTORE PUSH1 0x20 ADD SWAP1 DUP2 MSTORE PUSH1 0x20 ADD PUSH1 0x0 KECCAK256 PUSH1 0x1 ADD DUP2 SWAP1 SSTORE POP JUMP JUMPDEST CALLER PUSH1 0xA PUSH1 0x0 CALLER PUSH20 0xFFFFFFFFFFFFFFFFFFFFFFFFFFFFFFFFFFFFFFFF AND PUSH20 0xFFFFFFFFFFFFFFFFFFFFFFFFFFFFFFFFFFFFFFFF AND DUP2 MSTORE PUSH1 0x20 ADD SWAP1 DUP2 MSTORE PUSH1 0x20 ADD PUSH1 0x0 KECCAK256 PUSH1 0x0 ADD PUSH1 0x0 PUSH2 0x100 EXP DUP2 SLOAD DUP2 PUSH20 0xFFFFFFFFFFFFFFFFFFFFFFFFFFFFFFFFFFFFFFFF MUL NOT AND SWAP1 DUP4 PUSH20 0xFFFFFFFFFFFFFFFFFFFFFFFFFFFFFFFFFFFFFFFF AND MUL OR SWAP1 SSTORE POP DUP1 PUSH1 0xA PUSH1 0x0 CALLER PUSH20 0xFFFFFFFFFFFFFFFFFFFFFFFFFFFFFFFFFFFFFFFF AND PUSH20 0xFFFFFFFFFFFFFFFFFFFFFFFFFFFFFFFFFFFFFFFF AND DUP2 MSTORE PUSH1 0x20 ADD SWAP1 DUP2 MSTORE PUSH1 0x20 ADD PUSH1 0x0 KECCAK256 PUSH1 0x1 ADD DUP2 SWAP1 SSTORE POP CALLVALUE PUSH1 0xA PUSH1 0x0 CALLER PUSH20 0xFFFFFFFFFFFFFFFFFFFFFFFFFFFFFFFFFFFFFFFF AND PUSH20 0xFFFFFFFFFFFFFFFFFFFFFFFFFFFFFFFFFFFFFFFF AND DUP2 MSTORE PUSH1 0x20 ADD SWAP1 DUP2 MSTORE PUSH1 0x20 ADD PUSH1 0x0 KECCAK256 PUSH1 0x2 ADD DUP2 SWAP1 SSTORE POP POP JUMP JUMPDEST PUSH1 0x0 DUP3 DUP3 MSTORE PUSH1 0x20 DUP3 ADD SWAP1 POP SWAP3 SWAP2 POP POP JUMP JUMPDEST PUSH32 0x796F752063616E27742073656E64206C657373207468616E2035306B20776569 PUSH1 0x0 DUP3 ADD MSTORE POP JUMP JUMPDEST PUSH1 0x0 PUSH2 0x1459 PUSH1 0x20 DUP4 PUSH2 0x1412 JUMP JUMPDEST SWAP2 POP PUSH2 0x1464 DUP3 PUSH2 0x1423 JUMP JUMPDEST PUSH1 0x20 DUP3 ADD SWAP1 POP SWAP2 SWAP1 POP JUMP JUMPDEST PUSH1 0x0 PUSH1 0x20 DUP3 ADD SWAP1 POP DUP2 DUP2 SUB PUSH1 0x0 DUP4 ADD MSTORE PUSH2 0x1488 DUP2 PUSH2 0x144C JUMP JUMPDEST SWAP1 POP SWAP2 SWAP1 POP JUMP JUMPDEST PUSH32 0x4E6F2066616C6C6261636B206465736972656400000000000000000000000000 PUSH1 0x0 DUP3 ADD MSTORE POP JUMP JUMPDEST PUSH1 0x0 PUSH2 0x14C5 PUSH1 0x13 DUP4 PUSH2 0x1412 JUMP JUMPDEST SWAP2 POP PUSH2 0x14D0 DUP3 PUSH2 0x148F JUMP JUMPDEST PUSH1 0x20 DUP3 ADD SWAP1 POP SWAP2 SWAP1 POP JUMP JUMPDEST PUSH1 0x0 PUSH1 0x20 DUP3 ADD SWAP1 POP DUP2 DUP2 SUB PUSH1 0x0 DUP4 ADD MSTORE PUSH2 0x14F4 DUP2 PUSH2 0x14B8 JUMP JUMPDEST SWAP1 POP SWAP2 SWAP1 POP JUMP JUMPDEST PUSH1 0x0 DUP1 REVERT JUMPDEST PUSH1 0x0 PUSH20 0xFFFFFFFFFFFFFFFFFFFFFFFFFFFFFFFFFFFFFFFF DUP3 AND SWAP1 POP SWAP2 SWAP1 POP JUMP JUMPDEST PUSH1 0x0 PUSH2 0x152B DUP3 PUSH2 0x1500 JUMP JUMPDEST SWAP1 POP SWAP2 SWAP1 POP JUMP JUMPDEST PUSH2 0x153B DUP2 PUSH2 0x1520 JUMP JUMPDEST DUP2 EQ PUSH2 0x1546 JUMPI PUSH1 0x0 DUP1 REVERT JUMPDEST POP JUMP JUMPDEST PUSH1 0x0 DUP2 CALLDATALOAD SWAP1 POP PUSH2 0x1558 DUP2 PUSH2 0x1532 JUMP JUMPDEST SWAP3 SWAP2 POP POP JUMP JUMPDEST PUSH1 0x0 PUSH1 0x20 DUP3 DUP5 SUB SLT ISZERO PUSH2 0x1574 JUMPI PUSH2 0x1573 PUSH2 0x14FB JUMP JUMPDEST JUMPDEST PUSH1 0x0 PUSH2 0x1582 DUP5 DUP3 DUP6 ADD PUSH2 0x1549 JUMP JUMPDEST SWAP2 POP POP SWAP3 SWAP2 POP POP JUMP JUMPDEST PUSH1 0x0 PUSH2 0x1596 DUP3 PUSH2 0x1500 JUMP JUMPDEST SWAP1 POP SWAP2 SWAP1 POP JUMP JUMPDEST PUSH2 0x15A6 DUP2 PUSH2 0x158B JUMP JUMPDEST DUP3 MSTORE POP POP JUMP JUMPDEST PUSH1 0x0 DUP2 SWAP1 POP SWAP2 SWAP1 POP JUMP JUMPDEST PUSH2 0x15BF DUP2 PUSH2 0x15AC JUMP JUMPDEST DUP3 MSTORE POP POP JUMP JUMPDEST PUSH1 0x0 PUSH1 0x80 DUP3 ADD SWAP1 POP PUSH2 0x15DA PUSH1 0x0 DUP4 ADD DUP8 PUSH2 0x159D JUMP JUMPDEST PUSH2 0x15E7 PUSH1 0x20 DUP4 ADD DUP7 PUSH2 0x15B6 JUMP JUMPDEST PUSH2 0x15F4 PUSH1 0x40 DUP4 ADD DUP6 PUSH2 0x15B6 JUMP JUMPDEST PUSH2 0x1601 PUSH1 0x60 DUP4 ADD DUP5 PUSH2 0x15B6 JUMP JUMPDEST SWAP6 SWAP5 POP POP POP POP POP JUMP JUMPDEST PUSH2 0x1613 DUP2 PUSH2 0x15AC JUMP JUMPDEST DUP2 EQ PUSH2 0x161E JUMPI PUSH1 0x0 DUP1 REVERT JUMPDEST POP JUMP JUMPDEST PUSH1 0x0 DUP2 CALLDATALOAD SWAP1 POP PUSH2 0x1630 DUP2 PUSH2 0x160A JUMP JUMPDEST SWAP3 SWAP2 POP POP JUMP JUMPDEST PUSH1 0x0 DUP1 PUSH1 0x0 PUSH1 0x60 DUP5 DUP7 SUB SLT ISZERO PUSH2 0x164F JUMPI PUSH2 0x164E PUSH2 0x14FB JUMP JUMPDEST JUMPDEST PUSH1 0x0 PUSH2 0x165D DUP7 DUP3 DUP8 ADD PUSH2 0x1621 JUMP JUMPDEST SWAP4 POP POP PUSH1 0x20 PUSH2 0x166E DUP7 DUP3 DUP8 ADD PUSH2 0x1621 JUMP JUMPDEST SWAP3 POP POP PUSH1 0x40 PUSH2 0x167F DUP7 DUP3 DUP8 ADD PUSH2 0x1549 JUMP JUMPDEST SWAP2 POP POP SWAP3 POP SWAP3 POP SWAP3 JUMP JUMPDEST PUSH1 0x0 DUP2 MLOAD SWAP1 POP SWAP2 SWAP1 POP JUMP JUMPDEST PUSH1 0x0 JUMPDEST DUP4 DUP2 LT ISZERO PUSH2 0x16B2 JUMPI DUP1 DUP3 ADD MLOAD DUP2 DUP5 ADD MSTORE PUSH1 0x20 DUP2 ADD SWAP1 POP PUSH2 0x1697 JUMP JUMPDEST PUSH1 0x0 DUP5 DUP5 ADD MSTORE POP POP POP POP JUMP JUMPDEST PUSH1 0x0 PUSH1 0x1F NOT PUSH1 0x1F DUP4 ADD AND SWAP1 POP SWAP2 SWAP1 POP JUMP JUMPDEST PUSH1 0x0 PUSH2 0x16DA DUP3 PUSH2 0x1689 JUMP JUMPDEST PUSH2 0x16E4 DUP2 DUP6 PUSH2 0x1412 JUMP JUMPDEST SWAP4 POP PUSH2 0x16F4 DUP2 DUP6 PUSH1 0x20 DUP7 ADD PUSH2 0x1694 JUMP JUMPDEST PUSH2 0x16FD DUP2 PUSH2 0x16BE JUMP JUMPDEST DUP5 ADD SWAP2 POP POP SWAP3 SWAP2 POP POP JUMP JUMPDEST PUSH1 0x0 PUSH1 0x20 DUP3 ADD SWAP1 POP DUP2 DUP2 SUB PUSH1 0x0 DUP4 ADD MSTORE PUSH2 0x1722 DUP2 DUP5 PUSH2 0x16CF JUMP JUMPDEST SWAP1 POP SWAP3 SWAP2 POP POP JUMP JUMPDEST PUSH1 0x0 PUSH1 0x20 DUP3 ADD SWAP1 POP PUSH2 0x173F PUSH1 0x0 DUP4 ADD DUP5 PUSH2 0x15B6 JUMP JUMPDEST SWAP3 SWAP2 POP POP JUMP JUMPDEST PUSH1 0x0 PUSH1 0x20 DUP3 DUP5 SUB SLT ISZERO PUSH2 0x175B JUMPI PUSH2 0x175A PUSH2 0x14FB JUMP JUMPDEST JUMPDEST PUSH1 0x0 PUSH2 0x1769 DUP5 DUP3 DUP6 ADD PUSH2 0x1621 JUMP JUMPDEST SWAP2 POP POP SWAP3 SWAP2 POP POP JUMP JUMPDEST PUSH1 0x0 PUSH1 0x80 DUP3 ADD SWAP1 POP DUP2 DUP2 SUB PUSH1 0x0 DUP4 ADD MSTORE PUSH2 0x178C DUP2 DUP8 PUSH2 0x16CF JUMP JUMPDEST SWAP1 POP PUSH2 0x179B PUSH1 0x20 DUP4 ADD DUP7 PUSH2 0x15B6 JUMP JUMPDEST PUSH2 0x17A8 PUSH1 0x40 DUP4 ADD DUP6 PUSH2 0x15B6 JUMP JUMPDEST PUSH2 0x17B5 PUSH1 0x60 DUP4 ADD DUP5 PUSH2 0x15B6 JUMP JUMPDEST SWAP6 SWAP5 POP POP POP POP POP JUMP JUMPDEST PUSH2 0x17C7 DUP2 PUSH2 0x1520 JUMP JUMPDEST DUP3 MSTORE POP POP JUMP JUMPDEST PUSH1 0x0 PUSH1 0x20 DUP3 ADD SWAP1 POP PUSH2 0x17E2 PUSH1 0x0 DUP4 ADD DUP5 PUSH2 0x17BE JUMP JUMPDEST SWAP3 SWAP2 POP POP JUMP JUMPDEST PUSH1 0x0 DUP1 PUSH1 0x40 DUP4 DUP6 SUB SLT ISZERO PUSH2 0x17FF JUMPI PUSH2 0x17FE PUSH2 0x14FB JUMP JUMPDEST JUMPDEST PUSH1 0x0 PUSH2 0x180D DUP6 DUP3 DUP7 ADD PUSH2 0x1549 JUMP JUMPDEST SWAP3 POP POP PUSH1 0x20 PUSH2 0x181E DUP6 DUP3 DUP7 ADD PUSH2 0x1621 JUMP JUMPDEST SWAP2 POP POP SWAP3 POP SWAP3 SWAP1 POP JUMP JUMPDEST PUSH32 0x66656520616C7265616479207061696400000000000000000000000000000000 PUSH1 0x0 DUP3 ADD MSTORE POP JUMP JUMPDEST PUSH1 0x0 PUSH2 0x185E PUSH1 0x10 DUP4 PUSH2 0x1412 JUMP JUMPDEST SWAP2 POP PUSH2 0x1869 DUP3 PUSH2 0x1828 JUMP JUMPDEST PUSH1 0x20 DUP3 ADD SWAP1 POP SWAP2 SWAP1 POP JUMP JUMPDEST PUSH1 0x0 PUSH1 0x20 DUP3 ADD SWAP1 POP DUP2 DUP2 SUB PUSH1 0x0 DUP4 ADD MSTORE PUSH2 0x188D DUP2 PUSH2 0x1851 JUMP JUMPDEST SWAP1 POP SWAP2 SWAP1 POP JUMP JUMPDEST PUSH32 0x4E487B7100000000000000000000000000000000000000000000000000000000 PUSH1 0x0 MSTORE PUSH1 0x12 PUSH1 0x4 MSTORE PUSH1 0x24 PUSH1 0x0 REVERT JUMPDEST PUSH32 0x4E487B7100000000000000000000000000000000000000000000000000000000 PUSH1 0x0 MSTORE PUSH1 0x11 PUSH1 0x4 MSTORE PUSH1 0x24 PUSH1 0x0 REVERT JUMPDEST PUSH1 0x0 PUSH2 0x18FD DUP3 PUSH2 0x15AC JUMP JUMPDEST SWAP2 POP PUSH2 0x1908 DUP4 PUSH2 0x15AC JUMP JUMPDEST SWAP3 POP DUP3 PUSH2 0x1918 JUMPI PUSH2 0x1917 PUSH2 0x1894 JUMP JUMPDEST JUMPDEST DUP3 DUP3 DIV SWAP1 POP SWAP3 SWAP2 POP POP JUMP JUMPDEST PUSH32 0x4E487B7100000000000000000000000000000000000000000000000000000000 PUSH1 0x0 MSTORE PUSH1 0x22 PUSH1 0x4 MSTORE PUSH1 0x24 PUSH1 0x0 REVERT JUMPDEST PUSH1 0x0 PUSH1 0x2 DUP3 DIV SWAP1 POP PUSH1 0x1 DUP3 AND DUP1 PUSH2 0x196A JUMPI PUSH1 0x7F DUP3 AND SWAP2 POP JUMPDEST PUSH1 0x20 DUP3 LT DUP2 SUB PUSH2 0x197D JUMPI PUSH2 0x197C PUSH2 0x1923 JUMP JUMPDEST JUMPDEST POP SWAP2 SWAP1 POP JUMP JUMPDEST PUSH32 0x70617920706C6174666F726D2066656520666972737400000000000000000000 PUSH1 0x0 DUP3 ADD MSTORE POP JUMP JUMPDEST PUSH1 0x0 PUSH2 0x19B9 PUSH1 0x16 DUP4 PUSH2 0x1412 JUMP JUMPDEST SWAP2 POP PUSH2 0x19C4 DUP3 PUSH2 0x1983 JUMP JUMPDEST PUSH1 0x20 DUP3 ADD SWAP1 POP SWAP2 SWAP1 POP JUMP JUMPDEST PUSH1 0x0 PUSH1 0x20 DUP3 ADD SWAP1 POP DUP2 DUP2 SUB PUSH1 0x0 DUP4 ADD MSTORE PUSH2 0x19E8 DUP2 PUSH2 0x19AC JUMP JUMPDEST SWAP1 POP SWAP2 SWAP1 POP JUMP JUMPDEST PUSH32 0x6E6F206761696E00000000000000000000000000000000000000000000000000 PUSH1 0x0 DUP3 ADD MSTORE POP JUMP JUMPDEST PUSH1 0x0 PUSH2 0x1A25 PUSH1 0x7 DUP4 PUSH2 0x1412 JUMP JUMPDEST SWAP2 POP PUSH2 0x1A30 DUP3 PUSH2 0x19EF JUMP JUMPDEST PUSH1 0x20 DUP3 ADD SWAP1 POP SWAP2 SWAP1 POP JUMP JUMPDEST PUSH1 0x0 PUSH1 0x20 DUP3 ADD SWAP1 POP DUP2 DUP2 SUB PUSH1 0x0 DUP4 ADD MSTORE PUSH2 0x1A54 DUP2 PUSH2 0x1A18 JUMP JUMPDEST SWAP1 POP SWAP2 SWAP1 POP JUMP JUMPDEST PUSH1 0x0 PUSH2 0x1A66 DUP3 PUSH2 0x15AC JUMP JUMPDEST SWAP2 POP PUSH2 0x1A71 DUP4 PUSH2 0x15AC JUMP JUMPDEST SWAP3 POP DUP3 DUP3 MUL PUSH2 0x1A7F DUP2 PUSH2 0x15AC JUMP JUMPDEST SWAP2 POP DUP3 DUP3 DIV DUP5 EQ DUP4 ISZERO OR PUSH2 0x1A96 JUMPI PUSH2 0x1A95 PUSH2 0x18C3 JUMP JUMPDEST JUMPDEST POP SWAP3 SWAP2 POP POP JUMP JUMPDEST PUSH1 0x0 PUSH8 0xFFFFFFFFFFFFFFFF DUP3 AND SWAP1 POP SWAP2 SWAP1 POP JUMP JUMPDEST PUSH2 0x1ABA DUP2 PUSH2 0x1A9D JUMP JUMPDEST DUP2 EQ PUSH2 0x1AC5 JUMPI PUSH1 0x0 DUP1 REVERT JUMPDEST POP JUMP JUMPDEST PUSH1 0x0 DUP2 MLOAD SWAP1 POP PUSH2 0x1AD7 DUP2 PUSH2 0x1AB1 JUMP JUMPDEST SWAP3 SWAP2 POP POP JUMP JUMPDEST PUSH1 0x0 PUSH1 0x20 DUP3 DUP5 SUB SLT ISZERO PUSH2 0x1AF3 JUMPI PUSH2 0x1AF2 PUSH2 0x14FB JUMP JUMPDEST JUMPDEST PUSH1 0x0 PUSH2 0x1B01 DUP5 DUP3 DUP6 ADD PUSH2 0x1AC8 JUMP JUMPDEST SWAP2 POP POP SWAP3 SWAP2 POP POP JUMP JUMPDEST PUSH32 0x636F6D70657469746F7220646F6E277420657869737400000000000000000000 PUSH1 0x0 DUP3 ADD MSTORE POP JUMP JUMPDEST PUSH1 0x0 PUSH2 0x1B40 PUSH1 0x16 DUP4 PUSH2 0x1412 JUMP JUMPDEST SWAP2 POP PUSH2 0x1B4B DUP3 PUSH2 0x1B0A JUMP JUMPDEST PUSH1 0x20 DUP3 ADD SWAP1 POP SWAP2 SWAP1 POP JUMP JUMPDEST PUSH1 0x0 PUSH1 0x20 DUP3 ADD SWAP1 POP DUP2 DUP2 SUB PUSH1 0x0 DUP4 ADD MSTORE PUSH2 0x1B6F DUP2 PUSH2 0x1B33 JUMP JUMPDEST SWAP1 POP SWAP2 SWAP1 POP JUMP JUMPDEST PUSH1 0x0 PUSH2 0x1B81 DUP3 PUSH2 0x15AC JUMP JUMPDEST SWAP2 POP PUSH32 0xFFFFFFFFFFFFFFFFFFFFFFFFFFFFFFFFFFFFFFFFFFFFFFFFFFFFFFFFFFFFFFFF DUP3 SUB PUSH2 0x1BB3 JUMPI PUSH2 0x1BB2 PUSH2 0x18C3 JUMP JUMPDEST JUMPDEST PUSH1 0x1 DUP3 ADD SWAP1 POP SWAP2 SWAP1 POP JUMP JUMPDEST PUSH1 0x0 PUSH2 0x1BC9 DUP3 PUSH2 0x15AC JUMP JUMPDEST SWAP2 POP PUSH2 0x1BD4 DUP4 PUSH2 0x15AC JUMP JUMPDEST SWAP3 POP DUP3 DUP3 ADD SWAP1 POP DUP1 DUP3 GT ISZERO PUSH2 0x1BEC JUMPI PUSH2 0x1BEB PUSH2 0x18C3 JUMP JUMPDEST JUMPDEST SWAP3 SWAP2 POP POP JUMP JUMPDEST PUSH1 0x0 PUSH1 0xE0 DUP3 ADD SWAP1 POP PUSH2 0x1C07 PUSH1 0x0 DUP4 ADD DUP11 PUSH2 0x17BE JUMP JUMPDEST PUSH2 0x1C14 PUSH1 0x20 DUP4 ADD DUP10 PUSH2 0x15B6 JUMP JUMPDEST PUSH2 0x1C21 PUSH1 0x40 DUP4 ADD DUP9 PUSH2 0x15B6 JUMP JUMPDEST PUSH2 0x1C2E PUSH1 0x60 DUP4 ADD DUP8 PUSH2 0x15B6 JUMP JUMPDEST PUSH2 0x1C3B PUSH1 0x80 DUP4 ADD DUP7 PUSH2 0x15B6 JUMP JUMPDEST PUSH2 0x1C48 PUSH1 0xA0 DUP4 ADD DUP6 PUSH2 0x15B6 JUMP JUMPDEST PUSH2 0x1C55 PUSH1 0xC0 DUP4 ADD DUP5 PUSH2 0x15B6 JUMP JUMPDEST SWAP9 SWAP8 POP POP POP POP POP POP POP POP JUMP JUMPDEST PUSH1 0x0 DUP2 SWAP1 POP SWAP3 SWAP2 POP POP JUMP JUMPDEST POP JUMP JUMPDEST PUSH1 0x0 PUSH2 0x1C7C PUSH1 0x0 DUP4 PUSH2 0x1C61 JUMP JUMPDEST SWAP2 POP PUSH2 0x1C87 DUP3 PUSH2 0x1C6C JUMP JUMPDEST PUSH1 0x0 DUP3 ADD SWAP1 POP SWAP2 SWAP1 POP JUMP JUMPDEST PUSH1 0x0 PUSH2 0x1C9D DUP3 PUSH2 0x1C6F JUMP JUMPDEST SWAP2 POP DUP2 SWAP1 POP SWAP2 SWAP1 POP JUMP JUMPDEST PUSH32 0x4661696C656420746F2073656E64204574686572000000000000000000000000 PUSH1 0x0 DUP3 ADD MSTORE POP JUMP JUMPDEST PUSH1 0x0 PUSH2 0x1CDD PUSH1 0x14 DUP4 PUSH2 0x1412 JUMP JUMPDEST SWAP2 POP PUSH2 0x1CE8 DUP3 PUSH2 0x1CA7 JUMP JUMPDEST PUSH1 0x20 DUP3 ADD SWAP1 POP SWAP2 SWAP1 POP JUMP JUMPDEST PUSH1 0x0 PUSH1 0x20 DUP3 ADD SWAP1 POP DUP2 DUP2 SUB PUSH1 0x0 DUP4 ADD MSTORE PUSH2 0x1D0C DUP2 PUSH2 0x1CD0 JUMP JUMPDEST SWAP1 POP SWAP2 SWAP1 POP JUMP INVALID LOG2 PUSH5 0x6970667358 0x22 SLT KECCAK256 SWAP6 0xEC CALLDATALOAD 0x22 0xD6 LOG3 MULMOD SWAP9 0xB5 PUSH14 0xC36E1A9DCF0D6181E11488DEEAF4 0xA5 0xBE 0x28 0x25 0xE7 SUB RETURNDATASIZE CALLDATASIZE PUSH5 0x736F6C6343 STOP ADDMOD ISZERO STOP CALLER "},"methodIdentifiers":{"beginEventTimestamp()":"a14de028","betName()":"607075fc","betWaveDaoAddress()":"d93e03b0","betWavesOrganizerAddress()":"c6073c66","bettors(address)":"22010c1f","calculateValidatorReward(uint256)":"ebfb6652","competitors(uint256)":"9d86801f","endEventTimestamp()":"a32b3487","redeemToBettor()":"ad05d9c3","sendPlatfromAndCreatorFees(uint256,uint256,address)":"5c3a3e5c","sendValidatorFees(address,uint256)":"cf959429","setBet(uint256)":"e8399cc6","setFeesBooleanToTrue()":"a99073ae","setWinnerId(uint256)":"dc09f682","totalBet()":"fe5e1853","winnerId()":"91e0d593"}}}}}