{"contracts/SimpleBet.sol":{"SimpleBet":{"abi":[{"inputs":[{"internalType":"string","name":"_compName1","type":"string"},{"internalType":"string","name":"_compName2","type":"string"},{"internalType":"address","name":"_betWavesOrganizerAddress","type":"address"},{"internalType":"address","name":"_betWaveDaoAddress","type":"address"}],"stateMutability":"payable","type":"constructor"},{"inputs":[],"name":"alreadyBet","type":"error"},{"inputs":[],"name":"feesNotPaid","type":"error"},{"inputs":[],"name":"forbidden","type":"error"},{"inputs":[],"name":"insufficientBalance","type":"error"},{"inputs":[],"name":"minimumBetAmount","type":"error"},{"inputs":[],"name":"notRegistered","type":"error"},{"stateMutability":"payable","type":"fallback"},{"inputs":[],"name":"beginEventTimestamp","outputs":[{"internalType":"uint256","name":"","type":"uint256"}],"stateMutability":"view","type":"function"},{"inputs":[],"name":"betWaveDaoAddress","outputs":[{"internalType":"address","name":"","type":"address"}],"stateMutability":"view","type":"function"},{"inputs":[],"name":"betWavesOrganizerAddress","outputs":[{"internalType":"address","name":"","type":"address"}],"stateMutability":"view","type":"function"},{"inputs":[{"internalType":"address","name":"","type":"address"}],"name":"bettors","outputs":[{"internalType":"address payable","name":"bettorAddress","type":"address"},{"internalType":"uint256","name":"betId","type":"uint256"},{"internalType":"uint256","name":"bettingAmout","type":"uint256"},{"internalType":"uint256","name":"bettingReward","type":"uint256"}],"stateMutability":"view","type":"function"},{"inputs":[{"internalType":"uint256","name":"_validatorFees","type":"uint256"}],"name":"calculateValidatorReward","outputs":[{"internalType":"uint256","name":"","type":"uint256"}],"stateMutability":"nonpayable","type":"function"},{"inputs":[{"internalType":"uint256","name":"","type":"uint256"}],"name":"competitors","outputs":[{"internalType":"string","name":"name","type":"string"},{"internalType":"uint256","name":"odd","type":"uint256"},{"internalType":"uint256","name":"betNumber","type":"uint256"},{"internalType":"uint256","name":"betAmount","type":"uint256"}],"stateMutability":"view","type":"function"},{"inputs":[],"name":"endEventTimestamp","outputs":[{"internalType":"uint256","name":"","type":"uint256"}],"stateMutability":"view","type":"function"},{"inputs":[],"name":"getContractBalance","outputs":[{"internalType":"uint256","name":"","type":"uint256"}],"stateMutability":"view","type":"function"},{"inputs":[],"name":"redeemToBettor","outputs":[],"stateMutability":"payable","type":"function"},{"inputs":[{"internalType":"uint256","name":"_plateformeFees","type":"uint256"},{"internalType":"uint256","name":"_creatorFees","type":"uint256"},{"internalType":"address","name":"_ownerAddress","type":"address"}],"name":"sendPlatfromAndCreatorFees","outputs":[],"stateMutability":"nonpayable","type":"function"},{"inputs":[{"internalType":"address","name":"_validatorAddress","type":"address"},{"internalType":"uint256","name":"_validatorReward","type":"uint256"}],"name":"sendValidatorFees","outputs":[],"stateMutability":"nonpayable","type":"function"},{"inputs":[{"internalType":"uint256","name":"_betId","type":"uint256"}],"name":"setBet","outputs":[],"stateMutability":"payable","type":"function"},{"inputs":[],"name":"setFeesBooleanToTrue","outputs":[],"stateMutability":"nonpayable","type":"function"},{"inputs":[],"name":"test","outputs":[{"internalType":"uint256","name":"","type":"uint256"}],"stateMutability":"view","type":"function"},{"inputs":[],"name":"totalBet","outputs":[{"internalType":"uint256","name":"","type":"uint256"}],"stateMutability":"view","type":"function"},{"stateMutability":"payable","type":"receive"}],"evm":{"bytecode":{"linkReferences":{},"object":"60806040526040516200331538038062003315833981810160405281019062000029919062000443565b62000045673880fe76a92d674f60c01b6200024860201b60201c565b6200006167d370d7552a8ba41460c01b6200024860201b60201c565b81600260006101000a81548173ffffffffffffffffffffffffffffffffffffffff021916908373ffffffffffffffffffffffffffffffffffffffff160217905550620000be670e6f88412f2a500a60c01b6200024860201b60201c565b80600360006101000a81548173ffffffffffffffffffffffffffffffffffffffff021916908373ffffffffffffffffffffffffffffffffffffffff1602179055506200011b6792416254f3f5f39260c01b6200024860201b60201c565b836009600080815260200190815260200160002060000190816200014091906200073e565b506200015d6771fad64d18f364c260c01b6200024860201b60201c565b82600960006001815260200190815260200160002060000190816200018391906200073e565b50620001a06780d820ec3fe7565360c01b6200024860201b60201c565b81600b60006101000a81548173ffffffffffffffffffffffffffffffffffffffff021916908373ffffffffffffffffffffffffffffffffffffffff160217905550620001fd67778c36277c14216c60c01b6200024860201b60201c565b80600c60006101000a81548173ffffffffffffffffffffffffffffffffffffffff021916908373ffffffffffffffffffffffffffffffffffffffff1602179055505050505062000825565b50565b6000604051905090565b600080fd5b600080fd5b600080fd5b600080fd5b6000601f19601f8301169050919050565b7f4e487b7100000000000000000000000000000000000000000000000000000000600052604160045260246000fd5b620002b48262000269565b810181811067ffffffffffffffff82111715620002d657620002d56200027a565b5b80604052505050565b6000620002eb6200024b565b9050620002f98282620002a9565b919050565b600067ffffffffffffffff8211156200031c576200031b6200027a565b5b620003278262000269565b9050602081019050919050565b60005b838110156200035457808201518184015260208101905062000337565b60008484015250505050565b6000620003776200037184620002fe565b620002df565b90508281526020810184848401111562000396576200039562000264565b5b620003a384828562000334565b509392505050565b600082601f830112620003c357620003c26200025f565b5b8151620003d584826020860162000360565b91505092915050565b600073ffffffffffffffffffffffffffffffffffffffff82169050919050565b60006200040b82620003de565b9050919050565b6200041d81620003fe565b81146200042957600080fd5b50565b6000815190506200043d8162000412565b92915050565b6000806000806080858703121562000460576200045f62000255565b5b600085015167ffffffffffffffff8111156200048157620004806200025a565b5b6200048f87828801620003ab565b945050602085015167ffffffffffffffff811115620004b357620004b26200025a565b5b620004c187828801620003ab565b9350506040620004d4878288016200042c565b9250506060620004e7878288016200042c565b91505092959194509250565b600081519050919050565b7f4e487b7100000000000000000000000000000000000000000000000000000000600052602260045260246000fd5b600060028204905060018216806200054657607f821691505b6020821081036200055c576200055b620004fe565b5b50919050565b60008190508160005260206000209050919050565b60006020601f8301049050919050565b600082821b905092915050565b600060088302620005c67fffffffffffffffffffffffffffffffffffffffffffffffffffffffffffffffff8262000587565b620005d2868362000587565b95508019841693508086168417925050509392505050565b6000819050919050565b6000819050919050565b60006200061f620006196200061384620005ea565b620005f4565b620005ea565b9050919050565b6000819050919050565b6200063b83620005fe565b620006536200064a8262000626565b84845462000594565b825550505050565b600090565b6200066a6200065b565b6200067781848462000630565b505050565b5b818110156200069f576200069360008262000660565b6001810190506200067d565b5050565b601f821115620006ee57620006b88162000562565b620006c38462000577565b81016020851015620006d3578190505b620006eb620006e28562000577565b8301826200067c565b50505b505050565b600082821c905092915050565b60006200071360001984600802620006f3565b1980831691505092915050565b60006200072e838362000700565b9150826002028217905092915050565b6200074982620004f3565b67ffffffffffffffff8111156200076557620007646200027a565b5b6200077182546200052d565b6200077e828285620006a3565b600060209050601f831160018114620007b65760008415620007a1578287015190505b620007ad858262000720565b8655506200081d565b601f198416620007c68662000562565b60005b82811015620007f057848901518255600182019150602085019450602081019050620007c9565b868310156200081057848901516200080c601f89168262000700565b8355505b6001600288020188555050505b505050505050565b612ae080620008356000396000f3fe6080604052600436106100ec5760003560e01c8063ad05d9c31161008a578063e8399cc611610059578063e8399cc614610462578063ebfb66521461047e578063f8a8fd6d146104bb578063fe5e1853146104e65761022a565b8063ad05d9c3146103d9578063c6073c66146103e3578063cf9594291461040e578063d93e03b0146104375761022a565b80639d86801f116100c65780639d86801f1461032c578063a14de0281461036c578063a32b348714610397578063a99073ae146103c25761022a565b806322010c1f146102985780635c3a3e5c146102d85780636f9fb98a146103015761022a565b3661022a57610105677a245f6148412ddb60c01b610511565b61011967b84de5277767965d60c01b610511565b61012d6712cc2603b5b2e29d60c01b610511565b640b68a0aa00341161017f5761014d678f8e33d99c66770d60c01b610511565b6040517f78e9f1ba00000000000000000000000000000000000000000000000000000000815260040160405180910390fd5b610193675e3f871480821b4960c01b610511565b6101a7676812f97330221e6d60c01b610511565b6101bb67c6be74cdde27ffc960c01b610511565b6101cf67f80bf3b10e6a5eee60c01b610511565b61c350341015610214576040517f08c379a000000000000000000000000000000000000000000000000000000000815260040161020b90612081565b60405180910390fd5b61022867112fdbfa84dc6a3060c01b610511565b005b61023e67842cb75314fa904d60c01b610511565b61025267497259b76d8a65fd60c01b610511565b6040518060400160405280601e81526020017f46616c6c6261636b2066756e6374696f6e2069732065786563757465642100008152506000908161029691906122f1565b005b3480156102a457600080fd5b506102bf60048036038101906102ba9190612426565b610514565b6040516102cf9493929190612483565b60405180910390f35b3480156102e457600080fd5b506102ff60048036038101906102fa91906124f4565b610564565b005b34801561030d57600080fd5b5061031661094b565b6040516103239190612547565b60405180910390f35b34801561033857600080fd5b50610353600480360381019061034e9190612562565b61098f565b6040516103639493929190612603565b60405180910390f35b34801561037857600080fd5b50610381610a47565b60405161038e9190612547565b60405180910390f35b3480156103a357600080fd5b506103ac610a4d565b6040516103b99190612547565b60405180910390f35b3480156103ce57600080fd5b506103d7610a53565b005b6103e1610bef565b005b3480156103ef57600080fd5b506103f8610f8a565b604051610405919061265e565b60405180910390f35b34801561041a57600080fd5b5061043560048036038101906104309190612679565b610fb0565b005b34801561044357600080fd5b5061044c611217565b604051610459919061265e565b60405180910390f35b61047c60048036038101906104779190612562565b61123d565b005b34801561048a57600080fd5b506104a560048036038101906104a09190612562565b61190a565b6040516104b29190612547565b60405180910390f35b3480156104c757600080fd5b506104d0611b5c565b6040516104dd9190612547565b60405180910390f35b3480156104f257600080fd5b506104fb611b62565b6040516105089190612547565b60405180910390f35b50565b600a6020528060005260406000206000915090508060000160009054906101000a900473ffffffffffffffffffffffffffffffffffffffff16908060010154908060020154908060030154905084565b610578676fb55fc867f496e460c01b610511565b61058c674a3f504aedaadb3960c01b610511565b6105a067b6b8fdae206bcbf060c01b610511565b6105b467703a5cfa23fd47e460c01b610511565b60004711610602576105d067fc4f2ff22208851e60c01b610511565b6040517f47108e3e00000000000000000000000000000000000000000000000000000000815260040160405180910390fd5b61061667c9aaa878a83e103960c01b610511565b61062a675e2d6fa3a618635f60c01b610511565b61063e67f90a619496be4d8460c01b610511565b610652673a6aa172235a4c1c60c01b610511565b61066667c2d2dcba7866d44760c01b610511565b61067a67024dd3ff4045dd9960c01b610511565b61068e674f2a86fb35cd86e560c01b610511565b600b60009054906101000a900473ffffffffffffffffffffffffffffffffffffffff1673ffffffffffffffffffffffffffffffffffffffff163373ffffffffffffffffffffffffffffffffffffffff1614610729576106f7674b3ff8817c4dcc8e60c01b610511565b6040517f8679b0c000000000000000000000000000000000000000000000000000000000815260040160405180910390fd5b61073d67d7556efa17e0745160c01b610511565b61075167dcdae9d18e29cd9860c01b610511565b61076567b6a30b52d7c9c8a160c01b610511565b61077967e47e8ab56f4e441160c01b610511565b61078d674ae95d39cd38678660c01b610511565b6107a1674a4bfaf50706ca7b60c01b610511565b6107b5670fdf4ac60a9e7e1560c01b610511565b600c60149054906101000a900460ff1615610805576040517f08c379a00000000000000000000000000000000000000000000000000000000081526004016107fc90612705565b60405180910390fd5b6108196766f5dda09482896f60c01b610511565b61082d67c4b03493abe2156360c01b610511565b61084167590a4197a67574c160c01b610511565b600061084b61094b565b90506108616705922466f1c4e7e360c01b610511565b61087567c0e958e40105a33460c01b610511565b600084826108839190612783565b905061089967df25ef21b9074d5f60c01b610511565b6108ad6746c3f04a4334f51760c01b610511565b600084836108bb9190612783565b90506108d16772bcc64897a19d5260c01b610511565b6108e56775adc06e7cbd273a60c01b610511565b610911600c60009054906101000a900473ffffffffffffffffffffffffffffffffffffffff1683611b68565b61092567c5cf6a138dd2df9e60c01b610511565b610939678d9ce24b07d3448660c01b610511565b6109438482611b68565b505050505050565b6000610961671ae065f67493a9f060c01b610511565b6109756718802ec8ac08a86660c01b610511565b61098967f594723c62f57de360c01b610511565b47905090565b60096020528060005260406000206000915090508060000180546109b29061210a565b80601f01602080910402602001604051908101604052809291908181526020018280546109de9061210a565b8015610a2b5780601f10610a0057610100808354040283529160200191610a2b565b820191906000526020600020905b815481529060010190602001808311610a0e57829003601f168201915b5050505050908060010154908060020154908060030154905084565b60045481565b60055481565b610a6767e7b0405549c6c5bb60c01b610511565b610a7b67c2d2dcba7866d44760c01b610511565b610a8f67024dd3ff4045dd9960c01b610511565b610aa3674f2a86fb35cd86e560c01b610511565b600b60009054906101000a900473ffffffffffffffffffffffffffffffffffffffff1673ffffffffffffffffffffffffffffffffffffffff163373ffffffffffffffffffffffffffffffffffffffff1614610b3e57610b0c674b3ff8817c4dcc8e60c01b610511565b6040517f8679b0c000000000000000000000000000000000000000000000000000000000815260040160405180910390fd5b610b5267d7556efa17e0745160c01b610511565b610b6667dcdae9d18e29cd9860c01b610511565b610b7a67747be599609615d960c01b610511565b610b8e6792d59493b53a1beb60c01b610511565b610ba267a4b332afb43ae6f360c01b610511565b6001600c60146101000a81548160ff021916908315150217905550610bd16783afdea2d2fb0fe160c01b610511565b610be5675de0d9e53a020fab60c01b610511565b610bed611ca8565b565b610c03675e9aef25c362106860c01b610511565b610c17678912d1796af006b060c01b610511565b610c2b677eac87a1e0949e8660c01b610511565b610c3f67e74ff6fcd0f08ca660c01b610511565b600c60149054906101000a900460ff16610c9957610c6767485cbf8e35bb6b6960c01b610511565b6040517f0541f1f000000000000000000000000000000000000000000000000000000000815260040160405180910390fd5b610cad67feb909de3d5aafeb60c01b610511565b610cc1673aa5af05e897f65060c01b610511565b610cd567ed19f2977735470860c01b610511565b610ce9675e40841fbf020af260c01b610511565b610cfd67819dbe880bc1071860c01b610511565b610d1167dc869c47f0d5b16f60c01b610511565b610d25677e87afa7da809c2660c01b610511565b600c60149054906101000a900460ff16610d74576040517f08c379a0000000000000000000000000000000000000000000000000000000008152600401610d6b90612800565b60405180910390fd5b610d8867ca37594536d9c47e60c01b610511565b610d9c67dd23c844588525d060c01b610511565b610db0671e9f9a68a41f34f660c01b610511565b610dc4673c7cde1dc7156f0b60c01b610511565b600754600a60003373ffffffffffffffffffffffffffffffffffffffff1673ffffffffffffffffffffffffffffffffffffffff1681526020019081526020016000206001015414610e4a576040517f08c379a0000000000000000000000000000000000000000000000000000000008152600401610e419061286c565b60405180910390fd5b610e5e67e6b9b3385702204660c01b610511565b610e7267f43df02a913d4ce960c01b610511565b6064600854600a60003373ffffffffffffffffffffffffffffffffffffffff1673ffffffffffffffffffffffffffffffffffffffff16815260200190815260200160002060020154610ec4919061288c565b610ece9190612783565b600a60003373ffffffffffffffffffffffffffffffffffffffff1673ffffffffffffffffffffffffffffffffffffffff16815260200190815260200160002060030181905550610f286702229733223f4ff860c01b610511565b610f3c67f45af4e37a2f4aa460c01b610511565b610f8833600a60003373ffffffffffffffffffffffffffffffffffffffff1673ffffffffffffffffffffffffffffffffffffffff16815260200190815260200160002060030154611b68565b565b600b60009054906101000a900473ffffffffffffffffffffffffffffffffffffffff1681565b610fc467abe0825008d943c660c01b610511565b610fd867c2d2dcba7866d44760c01b610511565b610fec67024dd3ff4045dd9960c01b610511565b611000674f2a86fb35cd86e560c01b610511565b600b60009054906101000a900473ffffffffffffffffffffffffffffffffffffffff1673ffffffffffffffffffffffffffffffffffffffff163373ffffffffffffffffffffffffffffffffffffffff161461109b57611069674b3ff8817c4dcc8e60c01b610511565b6040517f8679b0c000000000000000000000000000000000000000000000000000000000815260040160405180910390fd5b6110af67d7556efa17e0745160c01b610511565b6110c367dcdae9d18e29cd9860c01b610511565b6110d7671444885072c8251160c01b610511565b6110eb6738ba07092691a5c860c01b610511565b6110ff674a3f504aedaadb3960c01b610511565b61111367b6b8fdae206bcbf060c01b610511565b61112767703a5cfa23fd47e460c01b610511565b600047116111755761114367fc4f2ff22208851e60c01b610511565b6040517f47108e3e00000000000000000000000000000000000000000000000000000000815260040160405180910390fd5b61118967c9aaa878a83e103960c01b610511565b61119d675e2d6fa3a618635f60c01b610511565b6111b167485210bc64b0980f60c01b610511565b6111c567f8860e22e4da57e160c01b610511565b6111d9679714be1be2d3c95e60c01b610511565b6111ed6787b0a100e5eb9aad60c01b610511565b6111f78282611b68565b61120b671215d68a640bc4bf60c01b610511565b6002600d819055505050565b600c60009054906101000a900473ffffffffffffffffffffffffffffffffffffffff1681565b61125167b959726c747216b360c01b610511565b611265676b5d767f9ba39de160c01b610511565b6112796755398537b4c6ec9c60c01b610511565b61128d676c3f4f578d8222b060c01b610511565b343373ffffffffffffffffffffffffffffffffffffffff163110156112f2576112c067e1ae4143159aa6af60c01b610511565b6040517f47108e3e00000000000000000000000000000000000000000000000000000000815260040160405180910390fd5b61130667c6bb87e4cc2da5fc60c01b610511565b61131a6719acf6420e1ac1f260c01b610511565b61132e67f2311fb6ac3ed3ec60c01b610511565b61134267d27fab3e0c505c7e60c01b610511565b611356677a245f6148412ddb60c01b610511565b61136a67b84de5277767965d60c01b610511565b61137e6712cc2603b5b2e29d60c01b610511565b640b68a0aa0034116113d05761139e678f8e33d99c66770d60c01b610511565b6040517f78e9f1ba00000000000000000000000000000000000000000000000000000000815260040160405180910390fd5b6113e4675e3f871480821b4960c01b610511565b6113f8676812f97330221e6d60c01b610511565b61140c679569ff1bb69bc7ba60c01b610511565b61142067a21bd7cc99fc63de60c01b610511565b6114346739c6a9c0c401c01e60c01b610511565b61144867071e2ed143bc581b60c01b610511565b61145c670ef97a26126c57a760c01b610511565b3373ffffffffffffffffffffffffffffffffffffffff16600a60003373ffffffffffffffffffffffffffffffffffffffff1673ffffffffffffffffffffffffffffffffffffffff16815260200190815260200160002060000160009054906101000a900473ffffffffffffffffffffffffffffffffffffffff1673ffffffffffffffffffffffffffffffffffffffff160361154b5761150567ac0d63dfa374b0c560c01b610511565b611519679b6cef1a70d2fda560c01b610511565b6040517f8424505800000000000000000000000000000000000000000000000000000000815260040160405180910390fd5b61155f67233ad61f64e3313560c01b610511565b6115736756f1c15ab8a3a47b60c01b610511565b6115876707fb9a15754bfd4a60c01b610511565b61159b67afac4194645c9c8960c01b610511565b6115af67a9989d08d4a0ac1960c01b610511565b6115c36771dadaad48ca409d60c01b610511565b6115d76707623a5eacbc904560c01b610511565b6000600360009054906101000a900473ffffffffffffffffffffffffffffffffffffffff1673ffffffffffffffffffffffffffffffffffffffff16630b4805d3336040518263ffffffff1660e01b8152600401611634919061265e565b602060405180830381865afa158015611651573d6000803e3d6000fd5b505050506040513d601f19601f8201168201806040525081019061167591906128e3565b036116d45761168e677f943d31914e0d0b60c01b610511565b6116a26780fbc1021c4809f960c01b610511565b6040517f3a70817d00000000000000000000000000000000000000000000000000000000815260040160405180910390fd5b6116e867dd1878dd8bab9ec960c01b610511565b6116fc67499637d15d11b8ad60c01b610511565b61171067a0bb5002a13755e060c01b610511565b6117246760964f858316fb7860c01b610511565b61173867d86956e44f2b951a60c01b610511565b61174c679c4345fa03e7255b60c01b610511565b61176067d16d962622064b1360c01b610511565b60018111156117a4576040517f08c379a000000000000000000000000000000000000000000000000000000000815260040161179b9061295c565b60405180910390fd5b6117b867a8e53e19bf8d45cd60c01b610511565b6117cc671a8a5167347b76d460c01b610511565b6117e067510316ab606d16f160c01b610511565b6117ea3034611b68565b6117fe671b41f3eeef2c461860c01b610511565b600660008154809291906118119061297c565b919050555061182a67d301c13fd27a001560c01b610511565b6009600082815260200190815260200160002060020160008154809291906118519061297c565b919050555061186a67597bb8f25a7959b260c01b610511565b34600960008381526020019081526020016000206003015461188c91906129c4565b60096000838152602001908152602001600020600301819055506118ba677036b7533fcf9cce60c01b610511565b6118ce6773ecff5826e1a21b60c01b610511565b6118d6611dee565b6118ea670f337603154b6e9560c01b610511565b6118fe67bf3fe7eb6e42083560c01b610511565b61190781611ec2565b50565b600061192067387cfe2da3a3536b60c01b610511565b611934674a3f504aedaadb3960c01b610511565b61194867b6b8fdae206bcbf060c01b610511565b61195c67703a5cfa23fd47e460c01b610511565b600047116119aa5761197867fc4f2ff22208851e60c01b610511565b6040517f47108e3e00000000000000000000000000000000000000000000000000000000815260040160405180910390fd5b6119be67c9aaa878a83e103960c01b610511565b6119d2675e2d6fa3a618635f60c01b610511565b6119e6679c05b7b1d1c6d5bf60c01b610511565b6119fa6779162328c7b07e0e60c01b610511565b611a0e67c2d2dcba7866d44760c01b610511565b611a2267024dd3ff4045dd9960c01b610511565b611a36674f2a86fb35cd86e560c01b610511565b600b60009054906101000a900473ffffffffffffffffffffffffffffffffffffffff1673ffffffffffffffffffffffffffffffffffffffff163373ffffffffffffffffffffffffffffffffffffffff1614611ad157611a9f674b3ff8817c4dcc8e60c01b610511565b6040517f8679b0c000000000000000000000000000000000000000000000000000000000815260040160405180910390fd5b611ae567d7556efa17e0745160c01b610511565b611af967dcdae9d18e29cd9860c01b610511565b611b0d6722785441bcab6b6e60c01b610511565b611b2167d843e5b69679218060c01b610511565b611b3567ff4a1f460033b03160c01b610511565b611b4967d687015831fb3c6460c01b610511565b8147611b559190612783565b9050919050565b600d5481565b60065481565b611b7c6766b164eb6413f16c60c01b610511565b611b90679e8f3afdcb85835a60c01b610511565b611ba4675e7ea7c80a123e0360c01b610511565b6000808373ffffffffffffffffffffffffffffffffffffffff1683604051611bcb90612a29565b60006040518083038185875af1925050503d8060008114611c08576040519150601f19603f3d011682016040523d82523d6000602084013e611c0d565b606091505b5091509150611c26672f891e15d04adf0760c01b610511565b611c3a673e86a90d476db8a860c01b610511565b611c4e6730066836f597776060c01b610511565b81611c8e576040517f08c379a0000000000000000000000000000000000000000000000000000000008152600401611c8590612a8a565b60405180910390fd5b611ca26759d75cc18cbf3c4d60c01b610511565b50505050565b611cbc671fa434171190f94560c01b610511565b611cd0678912d1796af006b060c01b610511565b611ce4677eac87a1e0949e8660c01b610511565b611cf867e74ff6fcd0f08ca660c01b610511565b600c60149054906101000a900460ff16611d5257611d2067485cbf8e35bb6b6960c01b610511565b6040517f0541f1f000000000000000000000000000000000000000000000000000000000815260040160405180910390fd5b611d6667feb909de3d5aafeb60c01b610511565b611d7a673aa5af05e897f65060c01b610511565b611d8e67595a75ac3e31cfe660c01b610511565b611da267a23d1148f21b7da860c01b610511565b611db66750f0565ef191661b60c01b610511565b60096000600754815260200190815260200160002060030154606447611ddc919061288c565b611de69190612783565b600881905550565b611e026789fcbbf4e17b77a560c01b610511565b611e1667927137bc5687fe8860c01b610511565b60065460646009600080815260200190815260200160002060020154611e3c919061288c565b611e469190612783565b6009600080815260200190815260200160002060010181905550611e74672992ae469deb20e960c01b610511565b6006546064600960006001815260200190815260200160002060020154611e9b919061288c565b611ea59190612783565b600960006001815260200190815260200160002060010181905550565b611ed66702ec26ec9be2374d60c01b610511565b611eea67cd551c12e7c7717a60c01b610511565b33600a60003373ffffffffffffffffffffffffffffffffffffffff1673ffffffffffffffffffffffffffffffffffffffff16815260200190815260200160002060000160006101000a81548173ffffffffffffffffffffffffffffffffffffffff021916908373ffffffffffffffffffffffffffffffffffffffff160217905550611f7f67ccab0a1c885ec6ef60c01b610511565b80600a60003373ffffffffffffffffffffffffffffffffffffffff1673ffffffffffffffffffffffffffffffffffffffff16815260200190815260200160002060010181905550611fda67e1ccacf34c004f0e60c01b610511565b34600a60003373ffffffffffffffffffffffffffffffffffffffff1673ffffffffffffffffffffffffffffffffffffffff1681526020019081526020016000206002018190555050565b600082825260208201905092915050565b7f796f752063616e27742073656e64206c657373207468616e2035306b20776569600082015250565b600061206b602083612024565b915061207682612035565b602082019050919050565b6000602082019050818103600083015261209a8161205e565b9050919050565b600081519050919050565b7f4e487b7100000000000000000000000000000000000000000000000000000000600052604160045260246000fd5b7f4e487b7100000000000000000000000000000000000000000000000000000000600052602260045260246000fd5b6000600282049050600182168061212257607f821691505b602082108103612135576121346120db565b5b50919050565b60008190508160005260206000209050919050565b60006020601f8301049050919050565b600082821b905092915050565b60006008830261219d7fffffffffffffffffffffffffffffffffffffffffffffffffffffffffffffffff82612160565b6121a78683612160565b95508019841693508086168417925050509392505050565b6000819050919050565b6000819050919050565b60006121ee6121e96121e4846121bf565b6121c9565b6121bf565b9050919050565b6000819050919050565b612208836121d3565b61221c612214826121f5565b84845461216d565b825550505050565b600090565b612231612224565b61223c8184846121ff565b505050565b5b8181101561226057612255600082612229565b600181019050612242565b5050565b601f8211156122a5576122768161213b565b61227f84612150565b8101602085101561228e578190505b6122a261229a85612150565b830182612241565b50505b505050565b600082821c905092915050565b60006122c8600019846008026122aa565b1980831691505092915050565b60006122e183836122b7565b9150826002028217905092915050565b6122fa826120a1565b67ffffffffffffffff811115612313576123126120ac565b5b61231d825461210a565b612328828285612264565b600060209050601f83116001811461235b5760008415612349578287015190505b61235385826122d5565b8655506123bb565b601f1984166123698661213b565b60005b828110156123915784890151825560018201915060208501945060208101905061236c565b868310156123ae57848901516123aa601f8916826122b7565b8355505b6001600288020188555050505b505050505050565b600080fd5b600073ffffffffffffffffffffffffffffffffffffffff82169050919050565b60006123f3826123c8565b9050919050565b612403816123e8565b811461240e57600080fd5b50565b600081359050612420816123fa565b92915050565b60006020828403121561243c5761243b6123c3565b5b600061244a84828501612411565b91505092915050565b600061245e826123c8565b9050919050565b61246e81612453565b82525050565b61247d816121bf565b82525050565b60006080820190506124986000830187612465565b6124a56020830186612474565b6124b26040830185612474565b6124bf6060830184612474565b95945050505050565b6124d1816121bf565b81146124dc57600080fd5b50565b6000813590506124ee816124c8565b92915050565b60008060006060848603121561250d5761250c6123c3565b5b600061251b868287016124df565b935050602061252c868287016124df565b925050604061253d86828701612411565b9150509250925092565b600060208201905061255c6000830184612474565b92915050565b600060208284031215612578576125776123c3565b5b6000612586848285016124df565b91505092915050565b60005b838110156125ad578082015181840152602081019050612592565b60008484015250505050565b6000601f19601f8301169050919050565b60006125d5826120a1565b6125df8185612024565b93506125ef81856020860161258f565b6125f8816125b9565b840191505092915050565b6000608082019050818103600083015261261d81876125ca565b905061262c6020830186612474565b6126396040830185612474565b6126466060830184612474565b95945050505050565b612658816123e8565b82525050565b6000602082019050612673600083018461264f565b92915050565b600080604083850312156126905761268f6123c3565b5b600061269e85828601612411565b92505060206126af858286016124df565b9150509250929050565b7f66656520616c7265616479207061696400000000000000000000000000000000600082015250565b60006126ef601083612024565b91506126fa826126b9565b602082019050919050565b6000602082019050818103600083015261271e816126e2565b9050919050565b7f4e487b7100000000000000000000000000000000000000000000000000000000600052601260045260246000fd5b7f4e487b7100000000000000000000000000000000000000000000000000000000600052601160045260246000fd5b600061278e826121bf565b9150612799836121bf565b9250826127a9576127a8612725565b5b828204905092915050565b7f70617920706c6174666f726d2066656520666972737400000000000000000000600082015250565b60006127ea601683612024565b91506127f5826127b4565b602082019050919050565b60006020820190508181036000830152612819816127dd565b9050919050565b7f6e6f206761696e00000000000000000000000000000000000000000000000000600082015250565b6000612856600783612024565b915061286182612820565b602082019050919050565b6000602082019050818103600083015261288581612849565b9050919050565b6000612897826121bf565b91506128a2836121bf565b92508282026128b0816121bf565b915082820484148315176128c7576128c6612754565b5b5092915050565b6000815190506128dd816124c8565b92915050565b6000602082840312156128f9576128f86123c3565b5b6000612907848285016128ce565b91505092915050565b7f636f6d70657469746f7220646f6e277420657869737400000000000000000000600082015250565b6000612946601683612024565b915061295182612910565b602082019050919050565b6000602082019050818103600083015261297581612939565b9050919050565b6000612987826121bf565b91507fffffffffffffffffffffffffffffffffffffffffffffffffffffffffffffffff82036129b9576129b8612754565b5b600182019050919050565b60006129cf826121bf565b91506129da836121bf565b92508282019050808211156129f2576129f1612754565b5b92915050565b600081905092915050565b50565b6000612a136000836129f8565b9150612a1e82612a03565b600082019050919050565b6000612a3482612a06565b9150819050919050565b7f4661696c656420746f2073656e64204574686572000000000000000000000000600082015250565b6000612a74601483612024565b9150612a7f82612a3e565b602082019050919050565b60006020820190508181036000830152612aa381612a67565b905091905056fea2646970667358221220044580523586d9e8dc8ca61b857a2420d345e40ad1c04a9ef2caad44b0c7ae0064736f6c63430008150033","opcodes":"PUSH1 0x80 PUSH1 0x40 MSTORE PUSH1 0x40 MLOAD PUSH3 0x3315 CODESIZE SUB DUP1 PUSH3 0x3315 DUP4 CODECOPY DUP2 DUP2 ADD PUSH1 0x40 MSTORE DUP2 ADD SWAP1 PUSH3 0x29 SWAP2 SWAP1 PUSH3 0x443 JUMP JUMPDEST PUSH3 0x45 PUSH8 0x3880FE76A92D674F PUSH1 0xC0 SHL PUSH3 0x248 PUSH1 0x20 SHL PUSH1 0x20 SHR JUMP JUMPDEST PUSH3 0x61 PUSH8 0xD370D7552A8BA414 PUSH1 0xC0 SHL PUSH3 0x248 PUSH1 0x20 SHL PUSH1 0x20 SHR JUMP JUMPDEST DUP2 PUSH1 0x2 PUSH1 0x0 PUSH2 0x100 EXP DUP2 SLOAD DUP2 PUSH20 0xFFFFFFFFFFFFFFFFFFFFFFFFFFFFFFFFFFFFFFFF MUL NOT AND SWAP1 DUP4 PUSH20 0xFFFFFFFFFFFFFFFFFFFFFFFFFFFFFFFFFFFFFFFF AND MUL OR SWAP1 SSTORE POP PUSH3 0xBE PUSH8 0xE6F88412F2A500A PUSH1 0xC0 SHL PUSH3 0x248 PUSH1 0x20 SHL PUSH1 0x20 SHR JUMP JUMPDEST DUP1 PUSH1 0x3 PUSH1 0x0 PUSH2 0x100 EXP DUP2 SLOAD DUP2 PUSH20 0xFFFFFFFFFFFFFFFFFFFFFFFFFFFFFFFFFFFFFFFF MUL NOT AND SWAP1 DUP4 PUSH20 0xFFFFFFFFFFFFFFFFFFFFFFFFFFFFFFFFFFFFFFFF AND MUL OR SWAP1 SSTORE POP PUSH3 0x11B PUSH8 0x92416254F3F5F392 PUSH1 0xC0 SHL PUSH3 0x248 PUSH1 0x20 SHL PUSH1 0x20 SHR JUMP JUMPDEST DUP4 PUSH1 0x9 PUSH1 0x0 DUP1 DUP2 MSTORE PUSH1 0x20 ADD SWAP1 DUP2 MSTORE PUSH1 0x20 ADD PUSH1 0x0 KECCAK256 PUSH1 0x0 ADD SWAP1 DUP2 PUSH3 0x140 SWAP2 SWAP1 PUSH3 0x73E JUMP JUMPDEST POP PUSH3 0x15D PUSH8 0x71FAD64D18F364C2 PUSH1 0xC0 SHL PUSH3 0x248 PUSH1 0x20 SHL PUSH1 0x20 SHR JUMP JUMPDEST DUP3 PUSH1 0x9 PUSH1 0x0 PUSH1 0x1 DUP2 MSTORE PUSH1 0x20 ADD SWAP1 DUP2 MSTORE PUSH1 0x20 ADD PUSH1 0x0 KECCAK256 PUSH1 0x0 ADD SWAP1 DUP2 PUSH3 0x183 SWAP2 SWAP1 PUSH3 0x73E JUMP JUMPDEST POP PUSH3 0x1A0 PUSH8 0x80D820EC3FE75653 PUSH1 0xC0 SHL PUSH3 0x248 PUSH1 0x20 SHL PUSH1 0x20 SHR JUMP JUMPDEST DUP2 PUSH1 0xB PUSH1 0x0 PUSH2 0x100 EXP DUP2 SLOAD DUP2 PUSH20 0xFFFFFFFFFFFFFFFFFFFFFFFFFFFFFFFFFFFFFFFF MUL NOT AND SWAP1 DUP4 PUSH20 0xFFFFFFFFFFFFFFFFFFFFFFFFFFFFFFFFFFFFFFFF AND MUL OR SWAP1 SSTORE POP PUSH3 0x1FD PUSH8 0x778C36277C14216C PUSH1 0xC0 SHL PUSH3 0x248 PUSH1 0x20 SHL PUSH1 0x20 SHR JUMP JUMPDEST DUP1 PUSH1 0xC PUSH1 0x0 PUSH2 0x100 EXP DUP2 SLOAD DUP2 PUSH20 0xFFFFFFFFFFFFFFFFFFFFFFFFFFFFFFFFFFFFFFFF MUL NOT AND SWAP1 DUP4 PUSH20 0xFFFFFFFFFFFFFFFFFFFFFFFFFFFFFFFFFFFFFFFF AND MUL OR SWAP1 SSTORE POP POP POP POP POP PUSH3 0x825 JUMP JUMPDEST POP JUMP JUMPDEST PUSH1 0x0 PUSH1 0x40 MLOAD SWAP1 POP SWAP1 JUMP JUMPDEST PUSH1 0x0 DUP1 REVERT JUMPDEST PUSH1 0x0 DUP1 REVERT JUMPDEST PUSH1 0x0 DUP1 REVERT JUMPDEST PUSH1 0x0 DUP1 REVERT JUMPDEST PUSH1 0x0 PUSH1 0x1F NOT PUSH1 0x1F DUP4 ADD AND SWAP1 POP SWAP2 SWAP1 POP JUMP JUMPDEST PUSH32 0x4E487B7100000000000000000000000000000000000000000000000000000000 PUSH1 0x0 MSTORE PUSH1 0x41 PUSH1 0x4 MSTORE PUSH1 0x24 PUSH1 0x0 REVERT JUMPDEST PUSH3 0x2B4 DUP3 PUSH3 0x269 JUMP JUMPDEST DUP2 ADD DUP2 DUP2 LT PUSH8 0xFFFFFFFFFFFFFFFF DUP3 GT OR ISZERO PUSH3 0x2D6 JUMPI PUSH3 0x2D5 PUSH3 0x27A JUMP JUMPDEST JUMPDEST DUP1 PUSH1 0x40 MSTORE POP POP POP JUMP JUMPDEST PUSH1 0x0 PUSH3 0x2EB PUSH3 0x24B JUMP JUMPDEST SWAP1 POP PUSH3 0x2F9 DUP3 DUP3 PUSH3 0x2A9 JUMP JUMPDEST SWAP2 SWAP1 POP JUMP JUMPDEST PUSH1 0x0 PUSH8 0xFFFFFFFFFFFFFFFF DUP3 GT ISZERO PUSH3 0x31C JUMPI PUSH3 0x31B PUSH3 0x27A JUMP JUMPDEST JUMPDEST PUSH3 0x327 DUP3 PUSH3 0x269 JUMP JUMPDEST SWAP1 POP PUSH1 0x20 DUP2 ADD SWAP1 POP SWAP2 SWAP1 POP JUMP JUMPDEST PUSH1 0x0 JUMPDEST DUP4 DUP2 LT ISZERO PUSH3 0x354 JUMPI DUP1 DUP3 ADD MLOAD DUP2 DUP5 ADD MSTORE PUSH1 0x20 DUP2 ADD SWAP1 POP PUSH3 0x337 JUMP JUMPDEST PUSH1 0x0 DUP5 DUP5 ADD MSTORE POP POP POP POP JUMP JUMPDEST PUSH1 0x0 PUSH3 0x377 PUSH3 0x371 DUP5 PUSH3 0x2FE JUMP JUMPDEST PUSH3 0x2DF JUMP JUMPDEST SWAP1 POP DUP3 DUP2 MSTORE PUSH1 0x20 DUP2 ADD DUP5 DUP5 DUP5 ADD GT ISZERO PUSH3 0x396 JUMPI PUSH3 0x395 PUSH3 0x264 JUMP JUMPDEST JUMPDEST PUSH3 0x3A3 DUP5 DUP3 DUP6 PUSH3 0x334 JUMP JUMPDEST POP SWAP4 SWAP3 POP POP POP JUMP JUMPDEST PUSH1 0x0 DUP3 PUSH1 0x1F DUP4 ADD SLT PUSH3 0x3C3 JUMPI PUSH3 0x3C2 PUSH3 0x25F JUMP JUMPDEST JUMPDEST DUP2 MLOAD PUSH3 0x3D5 DUP5 DUP3 PUSH1 0x20 DUP7 ADD PUSH3 0x360 JUMP JUMPDEST SWAP2 POP POP SWAP3 SWAP2 POP POP JUMP JUMPDEST PUSH1 0x0 PUSH20 0xFFFFFFFFFFFFFFFFFFFFFFFFFFFFFFFFFFFFFFFF DUP3 AND SWAP1 POP SWAP2 SWAP1 POP JUMP JUMPDEST PUSH1 0x0 PUSH3 0x40B DUP3 PUSH3 0x3DE JUMP JUMPDEST SWAP1 POP SWAP2 SWAP1 POP JUMP JUMPDEST PUSH3 0x41D DUP2 PUSH3 0x3FE JUMP JUMPDEST DUP2 EQ PUSH3 0x429 JUMPI PUSH1 0x0 DUP1 REVERT JUMPDEST POP JUMP JUMPDEST PUSH1 0x0 DUP2 MLOAD SWAP1 POP PUSH3 0x43D DUP2 PUSH3 0x412 JUMP JUMPDEST SWAP3 SWAP2 POP POP JUMP JUMPDEST PUSH1 0x0 DUP1 PUSH1 0x0 DUP1 PUSH1 0x80 DUP6 DUP8 SUB SLT ISZERO PUSH3 0x460 JUMPI PUSH3 0x45F PUSH3 0x255 JUMP JUMPDEST JUMPDEST PUSH1 0x0 DUP6 ADD MLOAD PUSH8 0xFFFFFFFFFFFFFFFF DUP2 GT ISZERO PUSH3 0x481 JUMPI PUSH3 0x480 PUSH3 0x25A JUMP JUMPDEST JUMPDEST PUSH3 0x48F DUP8 DUP3 DUP9 ADD PUSH3 0x3AB JUMP JUMPDEST SWAP5 POP POP PUSH1 0x20 DUP6 ADD MLOAD PUSH8 0xFFFFFFFFFFFFFFFF DUP2 GT ISZERO PUSH3 0x4B3 JUMPI PUSH3 0x4B2 PUSH3 0x25A JUMP JUMPDEST JUMPDEST PUSH3 0x4C1 DUP8 DUP3 DUP9 ADD PUSH3 0x3AB JUMP JUMPDEST SWAP4 POP POP PUSH1 0x40 PUSH3 0x4D4 DUP8 DUP3 DUP9 ADD PUSH3 0x42C JUMP JUMPDEST SWAP3 POP POP PUSH1 0x60 PUSH3 0x4E7 DUP8 DUP3 DUP9 ADD PUSH3 0x42C JUMP JUMPDEST SWAP2 POP POP SWAP3 SWAP6 SWAP2 SWAP5 POP SWAP3 POP JUMP JUMPDEST PUSH1 0x0 DUP2 MLOAD SWAP1 POP SWAP2 SWAP1 POP JUMP JUMPDEST PUSH32 0x4E487B7100000000000000000000000000000000000000000000000000000000 PUSH1 0x0 MSTORE PUSH1 0x22 PUSH1 0x4 MSTORE PUSH1 0x24 PUSH1 0x0 REVERT JUMPDEST PUSH1 0x0 PUSH1 0x2 DUP3 DIV SWAP1 POP PUSH1 0x1 DUP3 AND DUP1 PUSH3 0x546 JUMPI PUSH1 0x7F DUP3 AND SWAP2 POP JUMPDEST PUSH1 0x20 DUP3 LT DUP2 SUB PUSH3 0x55C JUMPI PUSH3 0x55B PUSH3 0x4FE JUMP JUMPDEST JUMPDEST POP SWAP2 SWAP1 POP JUMP JUMPDEST PUSH1 0x0 DUP2 SWAP1 POP DUP2 PUSH1 0x0 MSTORE PUSH1 0x20 PUSH1 0x0 KECCAK256 SWAP1 POP SWAP2 SWAP1 POP JUMP JUMPDEST PUSH1 0x0 PUSH1 0x20 PUSH1 0x1F DUP4 ADD DIV SWAP1 POP SWAP2 SWAP1 POP JUMP JUMPDEST PUSH1 0x0 DUP3 DUP3 SHL SWAP1 POP SWAP3 SWAP2 POP POP JUMP JUMPDEST PUSH1 0x0 PUSH1 0x8 DUP4 MUL PUSH3 0x5C6 PUSH32 0xFFFFFFFFFFFFFFFFFFFFFFFFFFFFFFFFFFFFFFFFFFFFFFFFFFFFFFFFFFFFFFFF DUP3 PUSH3 0x587 JUMP JUMPDEST PUSH3 0x5D2 DUP7 DUP4 PUSH3 0x587 JUMP JUMPDEST SWAP6 POP DUP1 NOT DUP5 AND SWAP4 POP DUP1 DUP7 AND DUP5 OR SWAP3 POP POP POP SWAP4 SWAP3 POP POP POP JUMP JUMPDEST PUSH1 0x0 DUP2 SWAP1 POP SWAP2 SWAP1 POP JUMP JUMPDEST PUSH1 0x0 DUP2 SWAP1 POP SWAP2 SWAP1 POP JUMP JUMPDEST PUSH1 0x0 PUSH3 0x61F PUSH3 0x619 PUSH3 0x613 DUP5 PUSH3 0x5EA JUMP JUMPDEST PUSH3 0x5F4 JUMP JUMPDEST PUSH3 0x5EA JUMP JUMPDEST SWAP1 POP SWAP2 SWAP1 POP JUMP JUMPDEST PUSH1 0x0 DUP2 SWAP1 POP SWAP2 SWAP1 POP JUMP JUMPDEST PUSH3 0x63B DUP4 PUSH3 0x5FE JUMP JUMPDEST PUSH3 0x653 PUSH3 0x64A DUP3 PUSH3 0x626 JUMP JUMPDEST DUP5 DUP5 SLOAD PUSH3 0x594 JUMP JUMPDEST DUP3 SSTORE POP POP POP POP JUMP JUMPDEST PUSH1 0x0 SWAP1 JUMP JUMPDEST PUSH3 0x66A PUSH3 0x65B JUMP JUMPDEST PUSH3 0x677 DUP2 DUP5 DUP5 PUSH3 0x630 JUMP JUMPDEST POP POP POP JUMP JUMPDEST JUMPDEST DUP2 DUP2 LT ISZERO PUSH3 0x69F JUMPI PUSH3 0x693 PUSH1 0x0 DUP3 PUSH3 0x660 JUMP JUMPDEST PUSH1 0x1 DUP2 ADD SWAP1 POP PUSH3 0x67D JUMP JUMPDEST POP POP JUMP JUMPDEST PUSH1 0x1F DUP3 GT ISZERO PUSH3 0x6EE JUMPI PUSH3 0x6B8 DUP2 PUSH3 0x562 JUMP JUMPDEST PUSH3 0x6C3 DUP5 PUSH3 0x577 JUMP JUMPDEST DUP2 ADD PUSH1 0x20 DUP6 LT ISZERO PUSH3 0x6D3 JUMPI DUP2 SWAP1 POP JUMPDEST PUSH3 0x6EB PUSH3 0x6E2 DUP6 PUSH3 0x577 JUMP JUMPDEST DUP4 ADD DUP3 PUSH3 0x67C JUMP JUMPDEST POP POP JUMPDEST POP POP POP JUMP JUMPDEST PUSH1 0x0 DUP3 DUP3 SHR SWAP1 POP SWAP3 SWAP2 POP POP JUMP JUMPDEST PUSH1 0x0 PUSH3 0x713 PUSH1 0x0 NOT DUP5 PUSH1 0x8 MUL PUSH3 0x6F3 JUMP JUMPDEST NOT DUP1 DUP4 AND SWAP2 POP POP SWAP3 SWAP2 POP POP JUMP JUMPDEST PUSH1 0x0 PUSH3 0x72E DUP4 DUP4 PUSH3 0x700 JUMP JUMPDEST SWAP2 POP DUP3 PUSH1 0x2 MUL DUP3 OR SWAP1 POP SWAP3 SWAP2 POP POP JUMP JUMPDEST PUSH3 0x749 DUP3 PUSH3 0x4F3 JUMP JUMPDEST PUSH8 0xFFFFFFFFFFFFFFFF DUP2 GT ISZERO PUSH3 0x765 JUMPI PUSH3 0x764 PUSH3 0x27A JUMP JUMPDEST JUMPDEST PUSH3 0x771 DUP3 SLOAD PUSH3 0x52D JUMP JUMPDEST PUSH3 0x77E DUP3 DUP3 DUP6 PUSH3 0x6A3 JUMP JUMPDEST PUSH1 0x0 PUSH1 0x20 SWAP1 POP PUSH1 0x1F DUP4 GT PUSH1 0x1 DUP2 EQ PUSH3 0x7B6 JUMPI PUSH1 0x0 DUP5 ISZERO PUSH3 0x7A1 JUMPI DUP3 DUP8 ADD MLOAD SWAP1 POP JUMPDEST PUSH3 0x7AD DUP6 DUP3 PUSH3 0x720 JUMP JUMPDEST DUP7 SSTORE POP PUSH3 0x81D JUMP JUMPDEST PUSH1 0x1F NOT DUP5 AND PUSH3 0x7C6 DUP7 PUSH3 0x562 JUMP JUMPDEST PUSH1 0x0 JUMPDEST DUP3 DUP2 LT ISZERO PUSH3 0x7F0 JUMPI DUP5 DUP10 ADD MLOAD DUP3 SSTORE PUSH1 0x1 DUP3 ADD SWAP2 POP PUSH1 0x20 DUP6 ADD SWAP5 POP PUSH1 0x20 DUP2 ADD SWAP1 POP PUSH3 0x7C9 JUMP JUMPDEST DUP7 DUP4 LT ISZERO PUSH3 0x810 JUMPI DUP5 DUP10 ADD MLOAD PUSH3 0x80C PUSH1 0x1F DUP10 AND DUP3 PUSH3 0x700 JUMP JUMPDEST DUP4 SSTORE POP JUMPDEST PUSH1 0x1 PUSH1 0x2 DUP9 MUL ADD DUP9 SSTORE POP POP POP JUMPDEST POP POP POP POP POP POP JUMP JUMPDEST PUSH2 0x2AE0 DUP1 PUSH3 0x835 PUSH1 0x0 CODECOPY PUSH1 0x0 RETURN INVALID PUSH1 0x80 PUSH1 0x40 MSTORE PUSH1 0x4 CALLDATASIZE LT PUSH2 0xEC JUMPI PUSH1 0x0 CALLDATALOAD PUSH1 0xE0 SHR DUP1 PUSH4 0xAD05D9C3 GT PUSH2 0x8A JUMPI DUP1 PUSH4 0xE8399CC6 GT PUSH2 0x59 JUMPI DUP1 PUSH4 0xE8399CC6 EQ PUSH2 0x462 JUMPI DUP1 PUSH4 0xEBFB6652 EQ PUSH2 0x47E JUMPI DUP1 PUSH4 0xF8A8FD6D EQ PUSH2 0x4BB JUMPI DUP1 PUSH4 0xFE5E1853 EQ PUSH2 0x4E6 JUMPI PUSH2 0x22A JUMP JUMPDEST DUP1 PUSH4 0xAD05D9C3 EQ PUSH2 0x3D9 JUMPI DUP1 PUSH4 0xC6073C66 EQ PUSH2 0x3E3 JUMPI DUP1 PUSH4 0xCF959429 EQ PUSH2 0x40E JUMPI DUP1 PUSH4 0xD93E03B0 EQ PUSH2 0x437 JUMPI PUSH2 0x22A JUMP JUMPDEST DUP1 PUSH4 0x9D86801F GT PUSH2 0xC6 JUMPI DUP1 PUSH4 0x9D86801F EQ PUSH2 0x32C JUMPI DUP1 PUSH4 0xA14DE028 EQ PUSH2 0x36C JUMPI DUP1 PUSH4 0xA32B3487 EQ PUSH2 0x397 JUMPI DUP1 PUSH4 0xA99073AE EQ PUSH2 0x3C2 JUMPI PUSH2 0x22A JUMP JUMPDEST DUP1 PUSH4 0x22010C1F EQ PUSH2 0x298 JUMPI DUP1 PUSH4 0x5C3A3E5C EQ PUSH2 0x2D8 JUMPI DUP1 PUSH4 0x6F9FB98A EQ PUSH2 0x301 JUMPI PUSH2 0x22A JUMP JUMPDEST CALLDATASIZE PUSH2 0x22A JUMPI PUSH2 0x105 PUSH8 0x7A245F6148412DDB PUSH1 0xC0 SHL PUSH2 0x511 JUMP JUMPDEST PUSH2 0x119 PUSH8 0xB84DE5277767965D PUSH1 0xC0 SHL PUSH2 0x511 JUMP JUMPDEST PUSH2 0x12D PUSH8 0x12CC2603B5B2E29D PUSH1 0xC0 SHL PUSH2 0x511 JUMP JUMPDEST PUSH5 0xB68A0AA00 CALLVALUE GT PUSH2 0x17F JUMPI PUSH2 0x14D PUSH8 0x8F8E33D99C66770D PUSH1 0xC0 SHL PUSH2 0x511 JUMP JUMPDEST PUSH1 0x40 MLOAD PUSH32 0x78E9F1BA00000000000000000000000000000000000000000000000000000000 DUP2 MSTORE PUSH1 0x4 ADD PUSH1 0x40 MLOAD DUP1 SWAP2 SUB SWAP1 REVERT JUMPDEST PUSH2 0x193 PUSH8 0x5E3F871480821B49 PUSH1 0xC0 SHL PUSH2 0x511 JUMP JUMPDEST PUSH2 0x1A7 PUSH8 0x6812F97330221E6D PUSH1 0xC0 SHL PUSH2 0x511 JUMP JUMPDEST PUSH2 0x1BB PUSH8 0xC6BE74CDDE27FFC9 PUSH1 0xC0 SHL PUSH2 0x511 JUMP JUMPDEST PUSH2 0x1CF PUSH8 0xF80BF3B10E6A5EEE PUSH1 0xC0 SHL PUSH2 0x511 JUMP JUMPDEST PUSH2 0xC350 CALLVALUE LT ISZERO PUSH2 0x214 JUMPI PUSH1 0x40 MLOAD PUSH32 0x8C379A000000000000000000000000000000000000000000000000000000000 DUP2 MSTORE PUSH1 0x4 ADD PUSH2 0x20B SWAP1 PUSH2 0x2081 JUMP JUMPDEST PUSH1 0x40 MLOAD DUP1 SWAP2 SUB SWAP1 REVERT JUMPDEST PUSH2 0x228 PUSH8 0x112FDBFA84DC6A30 PUSH1 0xC0 SHL PUSH2 0x511 JUMP JUMPDEST STOP JUMPDEST PUSH2 0x23E PUSH8 0x842CB75314FA904D PUSH1 0xC0 SHL PUSH2 0x511 JUMP JUMPDEST PUSH2 0x252 PUSH8 0x497259B76D8A65FD PUSH1 0xC0 SHL PUSH2 0x511 JUMP JUMPDEST PUSH1 0x40 MLOAD DUP1 PUSH1 0x40 ADD PUSH1 0x40 MSTORE DUP1 PUSH1 0x1E DUP2 MSTORE PUSH1 0x20 ADD PUSH32 0x46616C6C6261636B2066756E6374696F6E206973206578656375746564210000 DUP2 MSTORE POP PUSH1 0x0 SWAP1 DUP2 PUSH2 0x296 SWAP2 SWAP1 PUSH2 0x22F1 JUMP JUMPDEST STOP JUMPDEST CALLVALUE DUP1 ISZERO PUSH2 0x2A4 JUMPI PUSH1 0x0 DUP1 REVERT JUMPDEST POP PUSH2 0x2BF PUSH1 0x4 DUP1 CALLDATASIZE SUB DUP2 ADD SWAP1 PUSH2 0x2BA SWAP2 SWAP1 PUSH2 0x2426 JUMP JUMPDEST PUSH2 0x514 JUMP JUMPDEST PUSH1 0x40 MLOAD PUSH2 0x2CF SWAP5 SWAP4 SWAP3 SWAP2 SWAP1 PUSH2 0x2483 JUMP JUMPDEST PUSH1 0x40 MLOAD DUP1 SWAP2 SUB SWAP1 RETURN JUMPDEST CALLVALUE DUP1 ISZERO PUSH2 0x2E4 JUMPI PUSH1 0x0 DUP1 REVERT JUMPDEST POP PUSH2 0x2FF PUSH1 0x4 DUP1 CALLDATASIZE SUB DUP2 ADD SWAP1 PUSH2 0x2FA SWAP2 SWAP1 PUSH2 0x24F4 JUMP JUMPDEST PUSH2 0x564 JUMP JUMPDEST STOP JUMPDEST CALLVALUE DUP1 ISZERO PUSH2 0x30D JUMPI PUSH1 0x0 DUP1 REVERT JUMPDEST POP PUSH2 0x316 PUSH2 0x94B JUMP JUMPDEST PUSH1 0x40 MLOAD PUSH2 0x323 SWAP2 SWAP1 PUSH2 0x2547 JUMP JUMPDEST PUSH1 0x40 MLOAD DUP1 SWAP2 SUB SWAP1 RETURN JUMPDEST CALLVALUE DUP1 ISZERO PUSH2 0x338 JUMPI PUSH1 0x0 DUP1 REVERT JUMPDEST POP PUSH2 0x353 PUSH1 0x4 DUP1 CALLDATASIZE SUB DUP2 ADD SWAP1 PUSH2 0x34E SWAP2 SWAP1 PUSH2 0x2562 JUMP JUMPDEST PUSH2 0x98F JUMP JUMPDEST PUSH1 0x40 MLOAD PUSH2 0x363 SWAP5 SWAP4 SWAP3 SWAP2 SWAP1 PUSH2 0x2603 JUMP JUMPDEST PUSH1 0x40 MLOAD DUP1 SWAP2 SUB SWAP1 RETURN JUMPDEST CALLVALUE DUP1 ISZERO PUSH2 0x378 JUMPI PUSH1 0x0 DUP1 REVERT JUMPDEST POP PUSH2 0x381 PUSH2 0xA47 JUMP JUMPDEST PUSH1 0x40 MLOAD PUSH2 0x38E SWAP2 SWAP1 PUSH2 0x2547 JUMP JUMPDEST PUSH1 0x40 MLOAD DUP1 SWAP2 SUB SWAP1 RETURN JUMPDEST CALLVALUE DUP1 ISZERO PUSH2 0x3A3 JUMPI PUSH1 0x0 DUP1 REVERT JUMPDEST POP PUSH2 0x3AC PUSH2 0xA4D JUMP JUMPDEST PUSH1 0x40 MLOAD PUSH2 0x3B9 SWAP2 SWAP1 PUSH2 0x2547 JUMP JUMPDEST PUSH1 0x40 MLOAD DUP1 SWAP2 SUB SWAP1 RETURN JUMPDEST CALLVALUE DUP1 ISZERO PUSH2 0x3CE JUMPI PUSH1 0x0 DUP1 REVERT JUMPDEST POP PUSH2 0x3D7 PUSH2 0xA53 JUMP JUMPDEST STOP JUMPDEST PUSH2 0x3E1 PUSH2 0xBEF JUMP JUMPDEST STOP JUMPDEST CALLVALUE DUP1 ISZERO PUSH2 0x3EF JUMPI PUSH1 0x0 DUP1 REVERT JUMPDEST POP PUSH2 0x3F8 PUSH2 0xF8A JUMP JUMPDEST PUSH1 0x40 MLOAD PUSH2 0x405 SWAP2 SWAP1 PUSH2 0x265E JUMP JUMPDEST PUSH1 0x40 MLOAD DUP1 SWAP2 SUB SWAP1 RETURN JUMPDEST CALLVALUE DUP1 ISZERO PUSH2 0x41A JUMPI PUSH1 0x0 DUP1 REVERT JUMPDEST POP PUSH2 0x435 PUSH1 0x4 DUP1 CALLDATASIZE SUB DUP2 ADD SWAP1 PUSH2 0x430 SWAP2 SWAP1 PUSH2 0x2679 JUMP JUMPDEST PUSH2 0xFB0 JUMP JUMPDEST STOP JUMPDEST CALLVALUE DUP1 ISZERO PUSH2 0x443 JUMPI PUSH1 0x0 DUP1 REVERT JUMPDEST POP PUSH2 0x44C PUSH2 0x1217 JUMP JUMPDEST PUSH1 0x40 MLOAD PUSH2 0x459 SWAP2 SWAP1 PUSH2 0x265E JUMP JUMPDEST PUSH1 0x40 MLOAD DUP1 SWAP2 SUB SWAP1 RETURN JUMPDEST PUSH2 0x47C PUSH1 0x4 DUP1 CALLDATASIZE SUB DUP2 ADD SWAP1 PUSH2 0x477 SWAP2 SWAP1 PUSH2 0x2562 JUMP JUMPDEST PUSH2 0x123D JUMP JUMPDEST STOP JUMPDEST CALLVALUE DUP1 ISZERO PUSH2 0x48A JUMPI PUSH1 0x0 DUP1 REVERT JUMPDEST POP PUSH2 0x4A5 PUSH1 0x4 DUP1 CALLDATASIZE SUB DUP2 ADD SWAP1 PUSH2 0x4A0 SWAP2 SWAP1 PUSH2 0x2562 JUMP JUMPDEST PUSH2 0x190A JUMP JUMPDEST PUSH1 0x40 MLOAD PUSH2 0x4B2 SWAP2 SWAP1 PUSH2 0x2547 JUMP JUMPDEST PUSH1 0x40 MLOAD DUP1 SWAP2 SUB SWAP1 RETURN JUMPDEST CALLVALUE DUP1 ISZERO PUSH2 0x4C7 JUMPI PUSH1 0x0 DUP1 REVERT JUMPDEST POP PUSH2 0x4D0 PUSH2 0x1B5C JUMP JUMPDEST PUSH1 0x40 MLOAD PUSH2 0x4DD SWAP2 SWAP1 PUSH2 0x2547 JUMP JUMPDEST PUSH1 0x40 MLOAD DUP1 SWAP2 SUB SWAP1 RETURN JUMPDEST CALLVALUE DUP1 ISZERO PUSH2 0x4F2 JUMPI PUSH1 0x0 DUP1 REVERT JUMPDEST POP PUSH2 0x4FB PUSH2 0x1B62 JUMP JUMPDEST PUSH1 0x40 MLOAD PUSH2 0x508 SWAP2 SWAP1 PUSH2 0x2547 JUMP JUMPDEST PUSH1 0x40 MLOAD DUP1 SWAP2 SUB SWAP1 RETURN JUMPDEST POP JUMP JUMPDEST PUSH1 0xA PUSH1 0x20 MSTORE DUP1 PUSH1 0x0 MSTORE PUSH1 0x40 PUSH1 0x0 KECCAK256 PUSH1 0x0 SWAP2 POP SWAP1 POP DUP1 PUSH1 0x0 ADD PUSH1 0x0 SWAP1 SLOAD SWAP1 PUSH2 0x100 EXP SWAP1 DIV PUSH20 0xFFFFFFFFFFFFFFFFFFFFFFFFFFFFFFFFFFFFFFFF AND SWAP1 DUP1 PUSH1 0x1 ADD SLOAD SWAP1 DUP1 PUSH1 0x2 ADD SLOAD SWAP1 DUP1 PUSH1 0x3 ADD SLOAD SWAP1 POP DUP5 JUMP JUMPDEST PUSH2 0x578 PUSH8 0x6FB55FC867F496E4 PUSH1 0xC0 SHL PUSH2 0x511 JUMP JUMPDEST PUSH2 0x58C PUSH8 0x4A3F504AEDAADB39 PUSH1 0xC0 SHL PUSH2 0x511 JUMP JUMPDEST PUSH2 0x5A0 PUSH8 0xB6B8FDAE206BCBF0 PUSH1 0xC0 SHL PUSH2 0x511 JUMP JUMPDEST PUSH2 0x5B4 PUSH8 0x703A5CFA23FD47E4 PUSH1 0xC0 SHL PUSH2 0x511 JUMP JUMPDEST PUSH1 0x0 SELFBALANCE GT PUSH2 0x602 JUMPI PUSH2 0x5D0 PUSH8 0xFC4F2FF22208851E PUSH1 0xC0 SHL PUSH2 0x511 JUMP JUMPDEST PUSH1 0x40 MLOAD PUSH32 0x47108E3E00000000000000000000000000000000000000000000000000000000 DUP2 MSTORE PUSH1 0x4 ADD PUSH1 0x40 MLOAD DUP1 SWAP2 SUB SWAP1 REVERT JUMPDEST PUSH2 0x616 PUSH8 0xC9AAA878A83E1039 PUSH1 0xC0 SHL PUSH2 0x511 JUMP JUMPDEST PUSH2 0x62A PUSH8 0x5E2D6FA3A618635F PUSH1 0xC0 SHL PUSH2 0x511 JUMP JUMPDEST PUSH2 0x63E PUSH8 0xF90A619496BE4D84 PUSH1 0xC0 SHL PUSH2 0x511 JUMP JUMPDEST PUSH2 0x652 PUSH8 0x3A6AA172235A4C1C PUSH1 0xC0 SHL PUSH2 0x511 JUMP JUMPDEST PUSH2 0x666 PUSH8 0xC2D2DCBA7866D447 PUSH1 0xC0 SHL PUSH2 0x511 JUMP JUMPDEST PUSH2 0x67A PUSH8 0x24DD3FF4045DD99 PUSH1 0xC0 SHL PUSH2 0x511 JUMP JUMPDEST PUSH2 0x68E PUSH8 0x4F2A86FB35CD86E5 PUSH1 0xC0 SHL PUSH2 0x511 JUMP JUMPDEST PUSH1 0xB PUSH1 0x0 SWAP1 SLOAD SWAP1 PUSH2 0x100 EXP SWAP1 DIV PUSH20 0xFFFFFFFFFFFFFFFFFFFFFFFFFFFFFFFFFFFFFFFF AND PUSH20 0xFFFFFFFFFFFFFFFFFFFFFFFFFFFFFFFFFFFFFFFF AND CALLER PUSH20 0xFFFFFFFFFFFFFFFFFFFFFFFFFFFFFFFFFFFFFFFF AND EQ PUSH2 0x729 JUMPI PUSH2 0x6F7 PUSH8 0x4B3FF8817C4DCC8E PUSH1 0xC0 SHL PUSH2 0x511 JUMP JUMPDEST PUSH1 0x40 MLOAD PUSH32 0x8679B0C000000000000000000000000000000000000000000000000000000000 DUP2 MSTORE PUSH1 0x4 ADD PUSH1 0x40 MLOAD DUP1 SWAP2 SUB SWAP1 REVERT JUMPDEST PUSH2 0x73D PUSH8 0xD7556EFA17E07451 PUSH1 0xC0 SHL PUSH2 0x511 JUMP JUMPDEST PUSH2 0x751 PUSH8 0xDCDAE9D18E29CD98 PUSH1 0xC0 SHL PUSH2 0x511 JUMP JUMPDEST PUSH2 0x765 PUSH8 0xB6A30B52D7C9C8A1 PUSH1 0xC0 SHL PUSH2 0x511 JUMP JUMPDEST PUSH2 0x779 PUSH8 0xE47E8AB56F4E4411 PUSH1 0xC0 SHL PUSH2 0x511 JUMP JUMPDEST PUSH2 0x78D PUSH8 0x4AE95D39CD386786 PUSH1 0xC0 SHL PUSH2 0x511 JUMP JUMPDEST PUSH2 0x7A1 PUSH8 0x4A4BFAF50706CA7B PUSH1 0xC0 SHL PUSH2 0x511 JUMP JUMPDEST PUSH2 0x7B5 PUSH8 0xFDF4AC60A9E7E15 PUSH1 0xC0 SHL PUSH2 0x511 JUMP JUMPDEST PUSH1 0xC PUSH1 0x14 SWAP1 SLOAD SWAP1 PUSH2 0x100 EXP SWAP1 DIV PUSH1 0xFF AND ISZERO PUSH2 0x805 JUMPI PUSH1 0x40 MLOAD PUSH32 0x8C379A000000000000000000000000000000000000000000000000000000000 DUP2 MSTORE PUSH1 0x4 ADD PUSH2 0x7FC SWAP1 PUSH2 0x2705 JUMP JUMPDEST PUSH1 0x40 MLOAD DUP1 SWAP2 SUB SWAP1 REVERT JUMPDEST PUSH2 0x819 PUSH8 0x66F5DDA09482896F PUSH1 0xC0 SHL PUSH2 0x511 JUMP JUMPDEST PUSH2 0x82D PUSH8 0xC4B03493ABE21563 PUSH1 0xC0 SHL PUSH2 0x511 JUMP JUMPDEST PUSH2 0x841 PUSH8 0x590A4197A67574C1 PUSH1 0xC0 SHL PUSH2 0x511 JUMP JUMPDEST PUSH1 0x0 PUSH2 0x84B PUSH2 0x94B JUMP JUMPDEST SWAP1 POP PUSH2 0x861 PUSH8 0x5922466F1C4E7E3 PUSH1 0xC0 SHL PUSH2 0x511 JUMP JUMPDEST PUSH2 0x875 PUSH8 0xC0E958E40105A334 PUSH1 0xC0 SHL PUSH2 0x511 JUMP JUMPDEST PUSH1 0x0 DUP5 DUP3 PUSH2 0x883 SWAP2 SWAP1 PUSH2 0x2783 JUMP JUMPDEST SWAP1 POP PUSH2 0x899 PUSH8 0xDF25EF21B9074D5F PUSH1 0xC0 SHL PUSH2 0x511 JUMP JUMPDEST PUSH2 0x8AD PUSH8 0x46C3F04A4334F517 PUSH1 0xC0 SHL PUSH2 0x511 JUMP JUMPDEST PUSH1 0x0 DUP5 DUP4 PUSH2 0x8BB SWAP2 SWAP1 PUSH2 0x2783 JUMP JUMPDEST SWAP1 POP PUSH2 0x8D1 PUSH8 0x72BCC64897A19D52 PUSH1 0xC0 SHL PUSH2 0x511 JUMP JUMPDEST PUSH2 0x8E5 PUSH8 0x75ADC06E7CBD273A PUSH1 0xC0 SHL PUSH2 0x511 JUMP JUMPDEST PUSH2 0x911 PUSH1 0xC PUSH1 0x0 SWAP1 SLOAD SWAP1 PUSH2 0x100 EXP SWAP1 DIV PUSH20 0xFFFFFFFFFFFFFFFFFFFFFFFFFFFFFFFFFFFFFFFF AND DUP4 PUSH2 0x1B68 JUMP JUMPDEST PUSH2 0x925 PUSH8 0xC5CF6A138DD2DF9E PUSH1 0xC0 SHL PUSH2 0x511 JUMP JUMPDEST PUSH2 0x939 PUSH8 0x8D9CE24B07D34486 PUSH1 0xC0 SHL PUSH2 0x511 JUMP JUMPDEST PUSH2 0x943 DUP5 DUP3 PUSH2 0x1B68 JUMP JUMPDEST POP POP POP POP POP POP JUMP JUMPDEST PUSH1 0x0 PUSH2 0x961 PUSH8 0x1AE065F67493A9F0 PUSH1 0xC0 SHL PUSH2 0x511 JUMP JUMPDEST PUSH2 0x975 PUSH8 0x18802EC8AC08A866 PUSH1 0xC0 SHL PUSH2 0x511 JUMP JUMPDEST PUSH2 0x989 PUSH8 0xF594723C62F57DE3 PUSH1 0xC0 SHL PUSH2 0x511 JUMP JUMPDEST SELFBALANCE SWAP1 POP SWAP1 JUMP JUMPDEST PUSH1 0x9 PUSH1 0x20 MSTORE DUP1 PUSH1 0x0 MSTORE PUSH1 0x40 PUSH1 0x0 KECCAK256 PUSH1 0x0 SWAP2 POP SWAP1 POP DUP1 PUSH1 0x0 ADD DUP1 SLOAD PUSH2 0x9B2 SWAP1 PUSH2 0x210A JUMP JUMPDEST DUP1 PUSH1 0x1F ADD PUSH1 0x20 DUP1 SWAP2 DIV MUL PUSH1 0x20 ADD PUSH1 0x40 MLOAD SWAP1 DUP2 ADD PUSH1 0x40 MSTORE DUP1 SWAP3 SWAP2 SWAP1 DUP2 DUP2 MSTORE PUSH1 0x20 ADD DUP3 DUP1 SLOAD PUSH2 0x9DE SWAP1 PUSH2 0x210A JUMP JUMPDEST DUP1 ISZERO PUSH2 0xA2B JUMPI DUP1 PUSH1 0x1F LT PUSH2 0xA00 JUMPI PUSH2 0x100 DUP1 DUP4 SLOAD DIV MUL DUP4 MSTORE SWAP2 PUSH1 0x20 ADD SWAP2 PUSH2 0xA2B JUMP JUMPDEST DUP3 ADD SWAP2 SWAP1 PUSH1 0x0 MSTORE PUSH1 0x20 PUSH1 0x0 KECCAK256 SWAP1 JUMPDEST DUP2 SLOAD DUP2 MSTORE SWAP1 PUSH1 0x1 ADD SWAP1 PUSH1 0x20 ADD DUP1 DUP4 GT PUSH2 0xA0E JUMPI DUP3 SWAP1 SUB PUSH1 0x1F AND DUP3 ADD SWAP2 JUMPDEST POP POP POP POP POP SWAP1 DUP1 PUSH1 0x1 ADD SLOAD SWAP1 DUP1 PUSH1 0x2 ADD SLOAD SWAP1 DUP1 PUSH1 0x3 ADD SLOAD SWAP1 POP DUP5 JUMP JUMPDEST PUSH1 0x4 SLOAD DUP2 JUMP JUMPDEST PUSH1 0x5 SLOAD DUP2 JUMP JUMPDEST PUSH2 0xA67 PUSH8 0xE7B0405549C6C5BB PUSH1 0xC0 SHL PUSH2 0x511 JUMP JUMPDEST PUSH2 0xA7B PUSH8 0xC2D2DCBA7866D447 PUSH1 0xC0 SHL PUSH2 0x511 JUMP JUMPDEST PUSH2 0xA8F PUSH8 0x24DD3FF4045DD99 PUSH1 0xC0 SHL PUSH2 0x511 JUMP JUMPDEST PUSH2 0xAA3 PUSH8 0x4F2A86FB35CD86E5 PUSH1 0xC0 SHL PUSH2 0x511 JUMP JUMPDEST PUSH1 0xB PUSH1 0x0 SWAP1 SLOAD SWAP1 PUSH2 0x100 EXP SWAP1 DIV PUSH20 0xFFFFFFFFFFFFFFFFFFFFFFFFFFFFFFFFFFFFFFFF AND PUSH20 0xFFFFFFFFFFFFFFFFFFFFFFFFFFFFFFFFFFFFFFFF AND CALLER PUSH20 0xFFFFFFFFFFFFFFFFFFFFFFFFFFFFFFFFFFFFFFFF AND EQ PUSH2 0xB3E JUMPI PUSH2 0xB0C PUSH8 0x4B3FF8817C4DCC8E PUSH1 0xC0 SHL PUSH2 0x511 JUMP JUMPDEST PUSH1 0x40 MLOAD PUSH32 0x8679B0C000000000000000000000000000000000000000000000000000000000 DUP2 MSTORE PUSH1 0x4 ADD PUSH1 0x40 MLOAD DUP1 SWAP2 SUB SWAP1 REVERT JUMPDEST PUSH2 0xB52 PUSH8 0xD7556EFA17E07451 PUSH1 0xC0 SHL PUSH2 0x511 JUMP JUMPDEST PUSH2 0xB66 PUSH8 0xDCDAE9D18E29CD98 PUSH1 0xC0 SHL PUSH2 0x511 JUMP JUMPDEST PUSH2 0xB7A PUSH8 0x747BE599609615D9 PUSH1 0xC0 SHL PUSH2 0x511 JUMP JUMPDEST PUSH2 0xB8E PUSH8 0x92D59493B53A1BEB PUSH1 0xC0 SHL PUSH2 0x511 JUMP JUMPDEST PUSH2 0xBA2 PUSH8 0xA4B332AFB43AE6F3 PUSH1 0xC0 SHL PUSH2 0x511 JUMP JUMPDEST PUSH1 0x1 PUSH1 0xC PUSH1 0x14 PUSH2 0x100 EXP DUP2 SLOAD DUP2 PUSH1 0xFF MUL NOT AND SWAP1 DUP4 ISZERO ISZERO MUL OR SWAP1 SSTORE POP PUSH2 0xBD1 PUSH8 0x83AFDEA2D2FB0FE1 PUSH1 0xC0 SHL PUSH2 0x511 JUMP JUMPDEST PUSH2 0xBE5 PUSH8 0x5DE0D9E53A020FAB PUSH1 0xC0 SHL PUSH2 0x511 JUMP JUMPDEST PUSH2 0xBED PUSH2 0x1CA8 JUMP JUMPDEST JUMP JUMPDEST PUSH2 0xC03 PUSH8 0x5E9AEF25C3621068 PUSH1 0xC0 SHL PUSH2 0x511 JUMP JUMPDEST PUSH2 0xC17 PUSH8 0x8912D1796AF006B0 PUSH1 0xC0 SHL PUSH2 0x511 JUMP JUMPDEST PUSH2 0xC2B PUSH8 0x7EAC87A1E0949E86 PUSH1 0xC0 SHL PUSH2 0x511 JUMP JUMPDEST PUSH2 0xC3F PUSH8 0xE74FF6FCD0F08CA6 PUSH1 0xC0 SHL PUSH2 0x511 JUMP JUMPDEST PUSH1 0xC PUSH1 0x14 SWAP1 SLOAD SWAP1 PUSH2 0x100 EXP SWAP1 DIV PUSH1 0xFF AND PUSH2 0xC99 JUMPI PUSH2 0xC67 PUSH8 0x485CBF8E35BB6B69 PUSH1 0xC0 SHL PUSH2 0x511 JUMP JUMPDEST PUSH1 0x40 MLOAD PUSH32 0x541F1F000000000000000000000000000000000000000000000000000000000 DUP2 MSTORE PUSH1 0x4 ADD PUSH1 0x40 MLOAD DUP1 SWAP2 SUB SWAP1 REVERT JUMPDEST PUSH2 0xCAD PUSH8 0xFEB909DE3D5AAFEB PUSH1 0xC0 SHL PUSH2 0x511 JUMP JUMPDEST PUSH2 0xCC1 PUSH8 0x3AA5AF05E897F650 PUSH1 0xC0 SHL PUSH2 0x511 JUMP JUMPDEST PUSH2 0xCD5 PUSH8 0xED19F29777354708 PUSH1 0xC0 SHL PUSH2 0x511 JUMP JUMPDEST PUSH2 0xCE9 PUSH8 0x5E40841FBF020AF2 PUSH1 0xC0 SHL PUSH2 0x511 JUMP JUMPDEST PUSH2 0xCFD PUSH8 0x819DBE880BC10718 PUSH1 0xC0 SHL PUSH2 0x511 JUMP JUMPDEST PUSH2 0xD11 PUSH8 0xDC869C47F0D5B16F PUSH1 0xC0 SHL PUSH2 0x511 JUMP JUMPDEST PUSH2 0xD25 PUSH8 0x7E87AFA7DA809C26 PUSH1 0xC0 SHL PUSH2 0x511 JUMP JUMPDEST PUSH1 0xC PUSH1 0x14 SWAP1 SLOAD SWAP1 PUSH2 0x100 EXP SWAP1 DIV PUSH1 0xFF AND PUSH2 0xD74 JUMPI PUSH1 0x40 MLOAD PUSH32 0x8C379A000000000000000000000000000000000000000000000000000000000 DUP2 MSTORE PUSH1 0x4 ADD PUSH2 0xD6B SWAP1 PUSH2 0x2800 JUMP JUMPDEST PUSH1 0x40 MLOAD DUP1 SWAP2 SUB SWAP1 REVERT JUMPDEST PUSH2 0xD88 PUSH8 0xCA37594536D9C47E PUSH1 0xC0 SHL PUSH2 0x511 JUMP JUMPDEST PUSH2 0xD9C PUSH8 0xDD23C844588525D0 PUSH1 0xC0 SHL PUSH2 0x511 JUMP JUMPDEST PUSH2 0xDB0 PUSH8 0x1E9F9A68A41F34F6 PUSH1 0xC0 SHL PUSH2 0x511 JUMP JUMPDEST PUSH2 0xDC4 PUSH8 0x3C7CDE1DC7156F0B PUSH1 0xC0 SHL PUSH2 0x511 JUMP JUMPDEST PUSH1 0x7 SLOAD PUSH1 0xA PUSH1 0x0 CALLER PUSH20 0xFFFFFFFFFFFFFFFFFFFFFFFFFFFFFFFFFFFFFFFF AND PUSH20 0xFFFFFFFFFFFFFFFFFFFFFFFFFFFFFFFFFFFFFFFF AND DUP2 MSTORE PUSH1 0x20 ADD SWAP1 DUP2 MSTORE PUSH1 0x20 ADD PUSH1 0x0 KECCAK256 PUSH1 0x1 ADD SLOAD EQ PUSH2 0xE4A JUMPI PUSH1 0x40 MLOAD PUSH32 0x8C379A000000000000000000000000000000000000000000000000000000000 DUP2 MSTORE PUSH1 0x4 ADD PUSH2 0xE41 SWAP1 PUSH2 0x286C JUMP JUMPDEST PUSH1 0x40 MLOAD DUP1 SWAP2 SUB SWAP1 REVERT JUMPDEST PUSH2 0xE5E PUSH8 0xE6B9B33857022046 PUSH1 0xC0 SHL PUSH2 0x511 JUMP JUMPDEST PUSH2 0xE72 PUSH8 0xF43DF02A913D4CE9 PUSH1 0xC0 SHL PUSH2 0x511 JUMP JUMPDEST PUSH1 0x64 PUSH1 0x8 SLOAD PUSH1 0xA PUSH1 0x0 CALLER PUSH20 0xFFFFFFFFFFFFFFFFFFFFFFFFFFFFFFFFFFFFFFFF AND PUSH20 0xFFFFFFFFFFFFFFFFFFFFFFFFFFFFFFFFFFFFFFFF AND DUP2 MSTORE PUSH1 0x20 ADD SWAP1 DUP2 MSTORE PUSH1 0x20 ADD PUSH1 0x0 KECCAK256 PUSH1 0x2 ADD SLOAD PUSH2 0xEC4 SWAP2 SWAP1 PUSH2 0x288C JUMP JUMPDEST PUSH2 0xECE SWAP2 SWAP1 PUSH2 0x2783 JUMP JUMPDEST PUSH1 0xA PUSH1 0x0 CALLER PUSH20 0xFFFFFFFFFFFFFFFFFFFFFFFFFFFFFFFFFFFFFFFF AND PUSH20 0xFFFFFFFFFFFFFFFFFFFFFFFFFFFFFFFFFFFFFFFF AND DUP2 MSTORE PUSH1 0x20 ADD SWAP1 DUP2 MSTORE PUSH1 0x20 ADD PUSH1 0x0 KECCAK256 PUSH1 0x3 ADD DUP2 SWAP1 SSTORE POP PUSH2 0xF28 PUSH8 0x2229733223F4FF8 PUSH1 0xC0 SHL PUSH2 0x511 JUMP JUMPDEST PUSH2 0xF3C PUSH8 0xF45AF4E37A2F4AA4 PUSH1 0xC0 SHL PUSH2 0x511 JUMP JUMPDEST PUSH2 0xF88 CALLER PUSH1 0xA PUSH1 0x0 CALLER PUSH20 0xFFFFFFFFFFFFFFFFFFFFFFFFFFFFFFFFFFFFFFFF AND PUSH20 0xFFFFFFFFFFFFFFFFFFFFFFFFFFFFFFFFFFFFFFFF AND DUP2 MSTORE PUSH1 0x20 ADD SWAP1 DUP2 MSTORE PUSH1 0x20 ADD PUSH1 0x0 KECCAK256 PUSH1 0x3 ADD SLOAD PUSH2 0x1B68 JUMP JUMPDEST JUMP JUMPDEST PUSH1 0xB PUSH1 0x0 SWAP1 SLOAD SWAP1 PUSH2 0x100 EXP SWAP1 DIV PUSH20 0xFFFFFFFFFFFFFFFFFFFFFFFFFFFFFFFFFFFFFFFF AND DUP2 JUMP JUMPDEST PUSH2 0xFC4 PUSH8 0xABE0825008D943C6 PUSH1 0xC0 SHL PUSH2 0x511 JUMP JUMPDEST PUSH2 0xFD8 PUSH8 0xC2D2DCBA7866D447 PUSH1 0xC0 SHL PUSH2 0x511 JUMP JUMPDEST PUSH2 0xFEC PUSH8 0x24DD3FF4045DD99 PUSH1 0xC0 SHL PUSH2 0x511 JUMP JUMPDEST PUSH2 0x1000 PUSH8 0x4F2A86FB35CD86E5 PUSH1 0xC0 SHL PUSH2 0x511 JUMP JUMPDEST PUSH1 0xB PUSH1 0x0 SWAP1 SLOAD SWAP1 PUSH2 0x100 EXP SWAP1 DIV PUSH20 0xFFFFFFFFFFFFFFFFFFFFFFFFFFFFFFFFFFFFFFFF AND PUSH20 0xFFFFFFFFFFFFFFFFFFFFFFFFFFFFFFFFFFFFFFFF AND CALLER PUSH20 0xFFFFFFFFFFFFFFFFFFFFFFFFFFFFFFFFFFFFFFFF AND EQ PUSH2 0x109B JUMPI PUSH2 0x1069 PUSH8 0x4B3FF8817C4DCC8E PUSH1 0xC0 SHL PUSH2 0x511 JUMP JUMPDEST PUSH1 0x40 MLOAD PUSH32 0x8679B0C000000000000000000000000000000000000000000000000000000000 DUP2 MSTORE PUSH1 0x4 ADD PUSH1 0x40 MLOAD DUP1 SWAP2 SUB SWAP1 REVERT JUMPDEST PUSH2 0x10AF PUSH8 0xD7556EFA17E07451 PUSH1 0xC0 SHL PUSH2 0x511 JUMP JUMPDEST PUSH2 0x10C3 PUSH8 0xDCDAE9D18E29CD98 PUSH1 0xC0 SHL PUSH2 0x511 JUMP JUMPDEST PUSH2 0x10D7 PUSH8 0x1444885072C82511 PUSH1 0xC0 SHL PUSH2 0x511 JUMP JUMPDEST PUSH2 0x10EB PUSH8 0x38BA07092691A5C8 PUSH1 0xC0 SHL PUSH2 0x511 JUMP JUMPDEST PUSH2 0x10FF PUSH8 0x4A3F504AEDAADB39 PUSH1 0xC0 SHL PUSH2 0x511 JUMP JUMPDEST PUSH2 0x1113 PUSH8 0xB6B8FDAE206BCBF0 PUSH1 0xC0 SHL PUSH2 0x511 JUMP JUMPDEST PUSH2 0x1127 PUSH8 0x703A5CFA23FD47E4 PUSH1 0xC0 SHL PUSH2 0x511 JUMP JUMPDEST PUSH1 0x0 SELFBALANCE GT PUSH2 0x1175 JUMPI PUSH2 0x1143 PUSH8 0xFC4F2FF22208851E PUSH1 0xC0 SHL PUSH2 0x511 JUMP JUMPDEST PUSH1 0x40 MLOAD PUSH32 0x47108E3E00000000000000000000000000000000000000000000000000000000 DUP2 MSTORE PUSH1 0x4 ADD PUSH1 0x40 MLOAD DUP1 SWAP2 SUB SWAP1 REVERT JUMPDEST PUSH2 0x1189 PUSH8 0xC9AAA878A83E1039 PUSH1 0xC0 SHL PUSH2 0x511 JUMP JUMPDEST PUSH2 0x119D PUSH8 0x5E2D6FA3A618635F PUSH1 0xC0 SHL PUSH2 0x511 JUMP JUMPDEST PUSH2 0x11B1 PUSH8 0x485210BC64B0980F PUSH1 0xC0 SHL PUSH2 0x511 JUMP JUMPDEST PUSH2 0x11C5 PUSH8 0xF8860E22E4DA57E1 PUSH1 0xC0 SHL PUSH2 0x511 JUMP JUMPDEST PUSH2 0x11D9 PUSH8 0x9714BE1BE2D3C95E PUSH1 0xC0 SHL PUSH2 0x511 JUMP JUMPDEST PUSH2 0x11ED PUSH8 0x87B0A100E5EB9AAD PUSH1 0xC0 SHL PUSH2 0x511 JUMP JUMPDEST PUSH2 0x11F7 DUP3 DUP3 PUSH2 0x1B68 JUMP JUMPDEST PUSH2 0x120B PUSH8 0x1215D68A640BC4BF PUSH1 0xC0 SHL PUSH2 0x511 JUMP JUMPDEST PUSH1 0x2 PUSH1 0xD DUP2 SWAP1 SSTORE POP POP POP JUMP JUMPDEST PUSH1 0xC PUSH1 0x0 SWAP1 SLOAD SWAP1 PUSH2 0x100 EXP SWAP1 DIV PUSH20 0xFFFFFFFFFFFFFFFFFFFFFFFFFFFFFFFFFFFFFFFF AND DUP2 JUMP JUMPDEST PUSH2 0x1251 PUSH8 0xB959726C747216B3 PUSH1 0xC0 SHL PUSH2 0x511 JUMP JUMPDEST PUSH2 0x1265 PUSH8 0x6B5D767F9BA39DE1 PUSH1 0xC0 SHL PUSH2 0x511 JUMP JUMPDEST PUSH2 0x1279 PUSH8 0x55398537B4C6EC9C PUSH1 0xC0 SHL PUSH2 0x511 JUMP JUMPDEST PUSH2 0x128D PUSH8 0x6C3F4F578D8222B0 PUSH1 0xC0 SHL PUSH2 0x511 JUMP JUMPDEST CALLVALUE CALLER PUSH20 0xFFFFFFFFFFFFFFFFFFFFFFFFFFFFFFFFFFFFFFFF AND BALANCE LT ISZERO PUSH2 0x12F2 JUMPI PUSH2 0x12C0 PUSH8 0xE1AE4143159AA6AF PUSH1 0xC0 SHL PUSH2 0x511 JUMP JUMPDEST PUSH1 0x40 MLOAD PUSH32 0x47108E3E00000000000000000000000000000000000000000000000000000000 DUP2 MSTORE PUSH1 0x4 ADD PUSH1 0x40 MLOAD DUP1 SWAP2 SUB SWAP1 REVERT JUMPDEST PUSH2 0x1306 PUSH8 0xC6BB87E4CC2DA5FC PUSH1 0xC0 SHL PUSH2 0x511 JUMP JUMPDEST PUSH2 0x131A PUSH8 0x19ACF6420E1AC1F2 PUSH1 0xC0 SHL PUSH2 0x511 JUMP JUMPDEST PUSH2 0x132E PUSH8 0xF2311FB6AC3ED3EC PUSH1 0xC0 SHL PUSH2 0x511 JUMP JUMPDEST PUSH2 0x1342 PUSH8 0xD27FAB3E0C505C7E PUSH1 0xC0 SHL PUSH2 0x511 JUMP JUMPDEST PUSH2 0x1356 PUSH8 0x7A245F6148412DDB PUSH1 0xC0 SHL PUSH2 0x511 JUMP JUMPDEST PUSH2 0x136A PUSH8 0xB84DE5277767965D PUSH1 0xC0 SHL PUSH2 0x511 JUMP JUMPDEST PUSH2 0x137E PUSH8 0x12CC2603B5B2E29D PUSH1 0xC0 SHL PUSH2 0x511 JUMP JUMPDEST PUSH5 0xB68A0AA00 CALLVALUE GT PUSH2 0x13D0 JUMPI PUSH2 0x139E PUSH8 0x8F8E33D99C66770D PUSH1 0xC0 SHL PUSH2 0x511 JUMP JUMPDEST PUSH1 0x40 MLOAD PUSH32 0x78E9F1BA00000000000000000000000000000000000000000000000000000000 DUP2 MSTORE PUSH1 0x4 ADD PUSH1 0x40 MLOAD DUP1 SWAP2 SUB SWAP1 REVERT JUMPDEST PUSH2 0x13E4 PUSH8 0x5E3F871480821B49 PUSH1 0xC0 SHL PUSH2 0x511 JUMP JUMPDEST PUSH2 0x13F8 PUSH8 0x6812F97330221E6D PUSH1 0xC0 SHL PUSH2 0x511 JUMP JUMPDEST PUSH2 0x140C PUSH8 0x9569FF1BB69BC7BA PUSH1 0xC0 SHL PUSH2 0x511 JUMP JUMPDEST PUSH2 0x1420 PUSH8 0xA21BD7CC99FC63DE PUSH1 0xC0 SHL PUSH2 0x511 JUMP JUMPDEST PUSH2 0x1434 PUSH8 0x39C6A9C0C401C01E PUSH1 0xC0 SHL PUSH2 0x511 JUMP JUMPDEST PUSH2 0x1448 PUSH8 0x71E2ED143BC581B PUSH1 0xC0 SHL PUSH2 0x511 JUMP JUMPDEST PUSH2 0x145C PUSH8 0xEF97A26126C57A7 PUSH1 0xC0 SHL PUSH2 0x511 JUMP JUMPDEST CALLER PUSH20 0xFFFFFFFFFFFFFFFFFFFFFFFFFFFFFFFFFFFFFFFF AND PUSH1 0xA PUSH1 0x0 CALLER PUSH20 0xFFFFFFFFFFFFFFFFFFFFFFFFFFFFFFFFFFFFFFFF AND PUSH20 0xFFFFFFFFFFFFFFFFFFFFFFFFFFFFFFFFFFFFFFFF AND DUP2 MSTORE PUSH1 0x20 ADD SWAP1 DUP2 MSTORE PUSH1 0x20 ADD PUSH1 0x0 KECCAK256 PUSH1 0x0 ADD PUSH1 0x0 SWAP1 SLOAD SWAP1 PUSH2 0x100 EXP SWAP1 DIV PUSH20 0xFFFFFFFFFFFFFFFFFFFFFFFFFFFFFFFFFFFFFFFF AND PUSH20 0xFFFFFFFFFFFFFFFFFFFFFFFFFFFFFFFFFFFFFFFF AND SUB PUSH2 0x154B JUMPI PUSH2 0x1505 PUSH8 0xAC0D63DFA374B0C5 PUSH1 0xC0 SHL PUSH2 0x511 JUMP JUMPDEST PUSH2 0x1519 PUSH8 0x9B6CEF1A70D2FDA5 PUSH1 0xC0 SHL PUSH2 0x511 JUMP JUMPDEST PUSH1 0x40 MLOAD PUSH32 0x8424505800000000000000000000000000000000000000000000000000000000 DUP2 MSTORE PUSH1 0x4 ADD PUSH1 0x40 MLOAD DUP1 SWAP2 SUB SWAP1 REVERT JUMPDEST PUSH2 0x155F PUSH8 0x233AD61F64E33135 PUSH1 0xC0 SHL PUSH2 0x511 JUMP JUMPDEST PUSH2 0x1573 PUSH8 0x56F1C15AB8A3A47B PUSH1 0xC0 SHL PUSH2 0x511 JUMP JUMPDEST PUSH2 0x1587 PUSH8 0x7FB9A15754BFD4A PUSH1 0xC0 SHL PUSH2 0x511 JUMP JUMPDEST PUSH2 0x159B PUSH8 0xAFAC4194645C9C89 PUSH1 0xC0 SHL PUSH2 0x511 JUMP JUMPDEST PUSH2 0x15AF PUSH8 0xA9989D08D4A0AC19 PUSH1 0xC0 SHL PUSH2 0x511 JUMP JUMPDEST PUSH2 0x15C3 PUSH8 0x71DADAAD48CA409D PUSH1 0xC0 SHL PUSH2 0x511 JUMP JUMPDEST PUSH2 0x15D7 PUSH8 0x7623A5EACBC9045 PUSH1 0xC0 SHL PUSH2 0x511 JUMP JUMPDEST PUSH1 0x0 PUSH1 0x3 PUSH1 0x0 SWAP1 SLOAD SWAP1 PUSH2 0x100 EXP SWAP1 DIV PUSH20 0xFFFFFFFFFFFFFFFFFFFFFFFFFFFFFFFFFFFFFFFF AND PUSH20 0xFFFFFFFFFFFFFFFFFFFFFFFFFFFFFFFFFFFFFFFF AND PUSH4 0xB4805D3 CALLER PUSH1 0x40 MLOAD DUP3 PUSH4 0xFFFFFFFF AND PUSH1 0xE0 SHL DUP2 MSTORE PUSH1 0x4 ADD PUSH2 0x1634 SWAP2 SWAP1 PUSH2 0x265E JUMP JUMPDEST PUSH1 0x20 PUSH1 0x40 MLOAD DUP1 DUP4 SUB DUP2 DUP7 GAS STATICCALL ISZERO DUP1 ISZERO PUSH2 0x1651 JUMPI RETURNDATASIZE PUSH1 0x0 DUP1 RETURNDATACOPY RETURNDATASIZE PUSH1 0x0 REVERT JUMPDEST POP POP POP POP PUSH1 0x40 MLOAD RETURNDATASIZE PUSH1 0x1F NOT PUSH1 0x1F DUP3 ADD AND DUP3 ADD DUP1 PUSH1 0x40 MSTORE POP DUP2 ADD SWAP1 PUSH2 0x1675 SWAP2 SWAP1 PUSH2 0x28E3 JUMP JUMPDEST SUB PUSH2 0x16D4 JUMPI PUSH2 0x168E PUSH8 0x7F943D31914E0D0B PUSH1 0xC0 SHL PUSH2 0x511 JUMP JUMPDEST PUSH2 0x16A2 PUSH8 0x80FBC1021C4809F9 PUSH1 0xC0 SHL PUSH2 0x511 JUMP JUMPDEST PUSH1 0x40 MLOAD PUSH32 0x3A70817D00000000000000000000000000000000000000000000000000000000 DUP2 MSTORE PUSH1 0x4 ADD PUSH1 0x40 MLOAD DUP1 SWAP2 SUB SWAP1 REVERT JUMPDEST PUSH2 0x16E8 PUSH8 0xDD1878DD8BAB9EC9 PUSH1 0xC0 SHL PUSH2 0x511 JUMP JUMPDEST PUSH2 0x16FC PUSH8 0x499637D15D11B8AD PUSH1 0xC0 SHL PUSH2 0x511 JUMP JUMPDEST PUSH2 0x1710 PUSH8 0xA0BB5002A13755E0 PUSH1 0xC0 SHL PUSH2 0x511 JUMP JUMPDEST PUSH2 0x1724 PUSH8 0x60964F858316FB78 PUSH1 0xC0 SHL PUSH2 0x511 JUMP JUMPDEST PUSH2 0x1738 PUSH8 0xD86956E44F2B951A PUSH1 0xC0 SHL PUSH2 0x511 JUMP JUMPDEST PUSH2 0x174C PUSH8 0x9C4345FA03E7255B PUSH1 0xC0 SHL PUSH2 0x511 JUMP JUMPDEST PUSH2 0x1760 PUSH8 0xD16D962622064B13 PUSH1 0xC0 SHL PUSH2 0x511 JUMP JUMPDEST PUSH1 0x1 DUP2 GT ISZERO PUSH2 0x17A4 JUMPI PUSH1 0x40 MLOAD PUSH32 0x8C379A000000000000000000000000000000000000000000000000000000000 DUP2 MSTORE PUSH1 0x4 ADD PUSH2 0x179B SWAP1 PUSH2 0x295C JUMP JUMPDEST PUSH1 0x40 MLOAD DUP1 SWAP2 SUB SWAP1 REVERT JUMPDEST PUSH2 0x17B8 PUSH8 0xA8E53E19BF8D45CD PUSH1 0xC0 SHL PUSH2 0x511 JUMP JUMPDEST PUSH2 0x17CC PUSH8 0x1A8A5167347B76D4 PUSH1 0xC0 SHL PUSH2 0x511 JUMP JUMPDEST PUSH2 0x17E0 PUSH8 0x510316AB606D16F1 PUSH1 0xC0 SHL PUSH2 0x511 JUMP JUMPDEST PUSH2 0x17EA ADDRESS CALLVALUE PUSH2 0x1B68 JUMP JUMPDEST PUSH2 0x17FE PUSH8 0x1B41F3EEEF2C4618 PUSH1 0xC0 SHL PUSH2 0x511 JUMP JUMPDEST PUSH1 0x6 PUSH1 0x0 DUP2 SLOAD DUP1 SWAP3 SWAP2 SWAP1 PUSH2 0x1811 SWAP1 PUSH2 0x297C JUMP JUMPDEST SWAP2 SWAP1 POP SSTORE POP PUSH2 0x182A PUSH8 0xD301C13FD27A0015 PUSH1 0xC0 SHL PUSH2 0x511 JUMP JUMPDEST PUSH1 0x9 PUSH1 0x0 DUP3 DUP2 MSTORE PUSH1 0x20 ADD SWAP1 DUP2 MSTORE PUSH1 0x20 ADD PUSH1 0x0 KECCAK256 PUSH1 0x2 ADD PUSH1 0x0 DUP2 SLOAD DUP1 SWAP3 SWAP2 SWAP1 PUSH2 0x1851 SWAP1 PUSH2 0x297C JUMP JUMPDEST SWAP2 SWAP1 POP SSTORE POP PUSH2 0x186A PUSH8 0x597BB8F25A7959B2 PUSH1 0xC0 SHL PUSH2 0x511 JUMP JUMPDEST CALLVALUE PUSH1 0x9 PUSH1 0x0 DUP4 DUP2 MSTORE PUSH1 0x20 ADD SWAP1 DUP2 MSTORE PUSH1 0x20 ADD PUSH1 0x0 KECCAK256 PUSH1 0x3 ADD SLOAD PUSH2 0x188C SWAP2 SWAP1 PUSH2 0x29C4 JUMP JUMPDEST PUSH1 0x9 PUSH1 0x0 DUP4 DUP2 MSTORE PUSH1 0x20 ADD SWAP1 DUP2 MSTORE PUSH1 0x20 ADD PUSH1 0x0 KECCAK256 PUSH1 0x3 ADD DUP2 SWAP1 SSTORE POP PUSH2 0x18BA PUSH8 0x7036B7533FCF9CCE PUSH1 0xC0 SHL PUSH2 0x511 JUMP JUMPDEST PUSH2 0x18CE PUSH8 0x73ECFF5826E1A21B PUSH1 0xC0 SHL PUSH2 0x511 JUMP JUMPDEST PUSH2 0x18D6 PUSH2 0x1DEE JUMP JUMPDEST PUSH2 0x18EA PUSH8 0xF337603154B6E95 PUSH1 0xC0 SHL PUSH2 0x511 JUMP JUMPDEST PUSH2 0x18FE PUSH8 0xBF3FE7EB6E420835 PUSH1 0xC0 SHL PUSH2 0x511 JUMP JUMPDEST PUSH2 0x1907 DUP2 PUSH2 0x1EC2 JUMP JUMPDEST POP JUMP JUMPDEST PUSH1 0x0 PUSH2 0x1920 PUSH8 0x387CFE2DA3A3536B PUSH1 0xC0 SHL PUSH2 0x511 JUMP JUMPDEST PUSH2 0x1934 PUSH8 0x4A3F504AEDAADB39 PUSH1 0xC0 SHL PUSH2 0x511 JUMP JUMPDEST PUSH2 0x1948 PUSH8 0xB6B8FDAE206BCBF0 PUSH1 0xC0 SHL PUSH2 0x511 JUMP JUMPDEST PUSH2 0x195C PUSH8 0x703A5CFA23FD47E4 PUSH1 0xC0 SHL PUSH2 0x511 JUMP JUMPDEST PUSH1 0x0 SELFBALANCE GT PUSH2 0x19AA JUMPI PUSH2 0x1978 PUSH8 0xFC4F2FF22208851E PUSH1 0xC0 SHL PUSH2 0x511 JUMP JUMPDEST PUSH1 0x40 MLOAD PUSH32 0x47108E3E00000000000000000000000000000000000000000000000000000000 DUP2 MSTORE PUSH1 0x4 ADD PUSH1 0x40 MLOAD DUP1 SWAP2 SUB SWAP1 REVERT JUMPDEST PUSH2 0x19BE PUSH8 0xC9AAA878A83E1039 PUSH1 0xC0 SHL PUSH2 0x511 JUMP JUMPDEST PUSH2 0x19D2 PUSH8 0x5E2D6FA3A618635F PUSH1 0xC0 SHL PUSH2 0x511 JUMP JUMPDEST PUSH2 0x19E6 PUSH8 0x9C05B7B1D1C6D5BF PUSH1 0xC0 SHL PUSH2 0x511 JUMP JUMPDEST PUSH2 0x19FA PUSH8 0x79162328C7B07E0E PUSH1 0xC0 SHL PUSH2 0x511 JUMP JUMPDEST PUSH2 0x1A0E PUSH8 0xC2D2DCBA7866D447 PUSH1 0xC0 SHL PUSH2 0x511 JUMP JUMPDEST PUSH2 0x1A22 PUSH8 0x24DD3FF4045DD99 PUSH1 0xC0 SHL PUSH2 0x511 JUMP JUMPDEST PUSH2 0x1A36 PUSH8 0x4F2A86FB35CD86E5 PUSH1 0xC0 SHL PUSH2 0x511 JUMP JUMPDEST PUSH1 0xB PUSH1 0x0 SWAP1 SLOAD SWAP1 PUSH2 0x100 EXP SWAP1 DIV PUSH20 0xFFFFFFFFFFFFFFFFFFFFFFFFFFFFFFFFFFFFFFFF AND PUSH20 0xFFFFFFFFFFFFFFFFFFFFFFFFFFFFFFFFFFFFFFFF AND CALLER PUSH20 0xFFFFFFFFFFFFFFFFFFFFFFFFFFFFFFFFFFFFFFFF AND EQ PUSH2 0x1AD1 JUMPI PUSH2 0x1A9F PUSH8 0x4B3FF8817C4DCC8E PUSH1 0xC0 SHL PUSH2 0x511 JUMP JUMPDEST PUSH1 0x40 MLOAD PUSH32 0x8679B0C000000000000000000000000000000000000000000000000000000000 DUP2 MSTORE PUSH1 0x4 ADD PUSH1 0x40 MLOAD DUP1 SWAP2 SUB SWAP1 REVERT JUMPDEST PUSH2 0x1AE5 PUSH8 0xD7556EFA17E07451 PUSH1 0xC0 SHL PUSH2 0x511 JUMP JUMPDEST PUSH2 0x1AF9 PUSH8 0xDCDAE9D18E29CD98 PUSH1 0xC0 SHL PUSH2 0x511 JUMP JUMPDEST PUSH2 0x1B0D PUSH8 0x22785441BCAB6B6E PUSH1 0xC0 SHL PUSH2 0x511 JUMP JUMPDEST PUSH2 0x1B21 PUSH8 0xD843E5B696792180 PUSH1 0xC0 SHL PUSH2 0x511 JUMP JUMPDEST PUSH2 0x1B35 PUSH8 0xFF4A1F460033B031 PUSH1 0xC0 SHL PUSH2 0x511 JUMP JUMPDEST PUSH2 0x1B49 PUSH8 0xD687015831FB3C64 PUSH1 0xC0 SHL PUSH2 0x511 JUMP JUMPDEST DUP2 SELFBALANCE PUSH2 0x1B55 SWAP2 SWAP1 PUSH2 0x2783 JUMP JUMPDEST SWAP1 POP SWAP2 SWAP1 POP JUMP JUMPDEST PUSH1 0xD SLOAD DUP2 JUMP JUMPDEST PUSH1 0x6 SLOAD DUP2 JUMP JUMPDEST PUSH2 0x1B7C PUSH8 0x66B164EB6413F16C PUSH1 0xC0 SHL PUSH2 0x511 JUMP JUMPDEST PUSH2 0x1B90 PUSH8 0x9E8F3AFDCB85835A PUSH1 0xC0 SHL PUSH2 0x511 JUMP JUMPDEST PUSH2 0x1BA4 PUSH8 0x5E7EA7C80A123E03 PUSH1 0xC0 SHL PUSH2 0x511 JUMP JUMPDEST PUSH1 0x0 DUP1 DUP4 PUSH20 0xFFFFFFFFFFFFFFFFFFFFFFFFFFFFFFFFFFFFFFFF AND DUP4 PUSH1 0x40 MLOAD PUSH2 0x1BCB SWAP1 PUSH2 0x2A29 JUMP JUMPDEST PUSH1 0x0 PUSH1 0x40 MLOAD DUP1 DUP4 SUB DUP2 DUP6 DUP8 GAS CALL SWAP3 POP POP POP RETURNDATASIZE DUP1 PUSH1 0x0 DUP2 EQ PUSH2 0x1C08 JUMPI PUSH1 0x40 MLOAD SWAP2 POP PUSH1 0x1F NOT PUSH1 0x3F RETURNDATASIZE ADD AND DUP3 ADD PUSH1 0x40 MSTORE RETURNDATASIZE DUP3 MSTORE RETURNDATASIZE PUSH1 0x0 PUSH1 0x20 DUP5 ADD RETURNDATACOPY PUSH2 0x1C0D JUMP JUMPDEST PUSH1 0x60 SWAP2 POP JUMPDEST POP SWAP2 POP SWAP2 POP PUSH2 0x1C26 PUSH8 0x2F891E15D04ADF07 PUSH1 0xC0 SHL PUSH2 0x511 JUMP JUMPDEST PUSH2 0x1C3A PUSH8 0x3E86A90D476DB8A8 PUSH1 0xC0 SHL PUSH2 0x511 JUMP JUMPDEST PUSH2 0x1C4E PUSH8 0x30066836F5977760 PUSH1 0xC0 SHL PUSH2 0x511 JUMP JUMPDEST DUP2 PUSH2 0x1C8E JUMPI PUSH1 0x40 MLOAD PUSH32 0x8C379A000000000000000000000000000000000000000000000000000000000 DUP2 MSTORE PUSH1 0x4 ADD PUSH2 0x1C85 SWAP1 PUSH2 0x2A8A JUMP JUMPDEST PUSH1 0x40 MLOAD DUP1 SWAP2 SUB SWAP1 REVERT JUMPDEST PUSH2 0x1CA2 PUSH8 0x59D75CC18CBF3C4D PUSH1 0xC0 SHL PUSH2 0x511 JUMP JUMPDEST POP POP POP POP JUMP JUMPDEST PUSH2 0x1CBC PUSH8 0x1FA434171190F945 PUSH1 0xC0 SHL PUSH2 0x511 JUMP JUMPDEST PUSH2 0x1CD0 PUSH8 0x8912D1796AF006B0 PUSH1 0xC0 SHL PUSH2 0x511 JUMP JUMPDEST PUSH2 0x1CE4 PUSH8 0x7EAC87A1E0949E86 PUSH1 0xC0 SHL PUSH2 0x511 JUMP JUMPDEST PUSH2 0x1CF8 PUSH8 0xE74FF6FCD0F08CA6 PUSH1 0xC0 SHL PUSH2 0x511 JUMP JUMPDEST PUSH1 0xC PUSH1 0x14 SWAP1 SLOAD SWAP1 PUSH2 0x100 EXP SWAP1 DIV PUSH1 0xFF AND PUSH2 0x1D52 JUMPI PUSH2 0x1D20 PUSH8 0x485CBF8E35BB6B69 PUSH1 0xC0 SHL PUSH2 0x511 JUMP JUMPDEST PUSH1 0x40 MLOAD PUSH32 0x541F1F000000000000000000000000000000000000000000000000000000000 DUP2 MSTORE PUSH1 0x4 ADD PUSH1 0x40 MLOAD DUP1 SWAP2 SUB SWAP1 REVERT JUMPDEST PUSH2 0x1D66 PUSH8 0xFEB909DE3D5AAFEB PUSH1 0xC0 SHL PUSH2 0x511 JUMP JUMPDEST PUSH2 0x1D7A PUSH8 0x3AA5AF05E897F650 PUSH1 0xC0 SHL PUSH2 0x511 JUMP JUMPDEST PUSH2 0x1D8E PUSH8 0x595A75AC3E31CFE6 PUSH1 0xC0 SHL PUSH2 0x511 JUMP JUMPDEST PUSH2 0x1DA2 PUSH8 0xA23D1148F21B7DA8 PUSH1 0xC0 SHL PUSH2 0x511 JUMP JUMPDEST PUSH2 0x1DB6 PUSH8 0x50F0565EF191661B PUSH1 0xC0 SHL PUSH2 0x511 JUMP JUMPDEST PUSH1 0x9 PUSH1 0x0 PUSH1 0x7 SLOAD DUP2 MSTORE PUSH1 0x20 ADD SWAP1 DUP2 MSTORE PUSH1 0x20 ADD PUSH1 0x0 KECCAK256 PUSH1 0x3 ADD SLOAD PUSH1 0x64 SELFBALANCE PUSH2 0x1DDC SWAP2 SWAP1 PUSH2 0x288C JUMP JUMPDEST PUSH2 0x1DE6 SWAP2 SWAP1 PUSH2 0x2783 JUMP JUMPDEST PUSH1 0x8 DUP2 SWAP1 SSTORE POP JUMP JUMPDEST PUSH2 0x1E02 PUSH8 0x89FCBBF4E17B77A5 PUSH1 0xC0 SHL PUSH2 0x511 JUMP JUMPDEST PUSH2 0x1E16 PUSH8 0x927137BC5687FE88 PUSH1 0xC0 SHL PUSH2 0x511 JUMP JUMPDEST PUSH1 0x6 SLOAD PUSH1 0x64 PUSH1 0x9 PUSH1 0x0 DUP1 DUP2 MSTORE PUSH1 0x20 ADD SWAP1 DUP2 MSTORE PUSH1 0x20 ADD PUSH1 0x0 KECCAK256 PUSH1 0x2 ADD SLOAD PUSH2 0x1E3C SWAP2 SWAP1 PUSH2 0x288C JUMP JUMPDEST PUSH2 0x1E46 SWAP2 SWAP1 PUSH2 0x2783 JUMP JUMPDEST PUSH1 0x9 PUSH1 0x0 DUP1 DUP2 MSTORE PUSH1 0x20 ADD SWAP1 DUP2 MSTORE PUSH1 0x20 ADD PUSH1 0x0 KECCAK256 PUSH1 0x1 ADD DUP2 SWAP1 SSTORE POP PUSH2 0x1E74 PUSH8 0x2992AE469DEB20E9 PUSH1 0xC0 SHL PUSH2 0x511 JUMP JUMPDEST PUSH1 0x6 SLOAD PUSH1 0x64 PUSH1 0x9 PUSH1 0x0 PUSH1 0x1 DUP2 MSTORE PUSH1 0x20 ADD SWAP1 DUP2 MSTORE PUSH1 0x20 ADD PUSH1 0x0 KECCAK256 PUSH1 0x2 ADD SLOAD PUSH2 0x1E9B SWAP2 SWAP1 PUSH2 0x288C JUMP JUMPDEST PUSH2 0x1EA5 SWAP2 SWAP1 PUSH2 0x2783 JUMP JUMPDEST PUSH1 0x9 PUSH1 0x0 PUSH1 0x1 DUP2 MSTORE PUSH1 0x20 ADD SWAP1 DUP2 MSTORE PUSH1 0x20 ADD PUSH1 0x0 KECCAK256 PUSH1 0x1 ADD DUP2 SWAP1 SSTORE POP JUMP JUMPDEST PUSH2 0x1ED6 PUSH8 0x2EC26EC9BE2374D PUSH1 0xC0 SHL PUSH2 0x511 JUMP JUMPDEST PUSH2 0x1EEA PUSH8 0xCD551C12E7C7717A PUSH1 0xC0 SHL PUSH2 0x511 JUMP JUMPDEST CALLER PUSH1 0xA PUSH1 0x0 CALLER PUSH20 0xFFFFFFFFFFFFFFFFFFFFFFFFFFFFFFFFFFFFFFFF AND PUSH20 0xFFFFFFFFFFFFFFFFFFFFFFFFFFFFFFFFFFFFFFFF AND DUP2 MSTORE PUSH1 0x20 ADD SWAP1 DUP2 MSTORE PUSH1 0x20 ADD PUSH1 0x0 KECCAK256 PUSH1 0x0 ADD PUSH1 0x0 PUSH2 0x100 EXP DUP2 SLOAD DUP2 PUSH20 0xFFFFFFFFFFFFFFFFFFFFFFFFFFFFFFFFFFFFFFFF MUL NOT AND SWAP1 DUP4 PUSH20 0xFFFFFFFFFFFFFFFFFFFFFFFFFFFFFFFFFFFFFFFF AND MUL OR SWAP1 SSTORE POP PUSH2 0x1F7F PUSH8 0xCCAB0A1C885EC6EF PUSH1 0xC0 SHL PUSH2 0x511 JUMP JUMPDEST DUP1 PUSH1 0xA PUSH1 0x0 CALLER PUSH20 0xFFFFFFFFFFFFFFFFFFFFFFFFFFFFFFFFFFFFFFFF AND PUSH20 0xFFFFFFFFFFFFFFFFFFFFFFFFFFFFFFFFFFFFFFFF AND DUP2 MSTORE PUSH1 0x20 ADD SWAP1 DUP2 MSTORE PUSH1 0x20 ADD PUSH1 0x0 KECCAK256 PUSH1 0x1 ADD DUP2 SWAP1 SSTORE POP PUSH2 0x1FDA PUSH8 0xE1CCACF34C004F0E PUSH1 0xC0 SHL PUSH2 0x511 JUMP JUMPDEST CALLVALUE PUSH1 0xA PUSH1 0x0 CALLER PUSH20 0xFFFFFFFFFFFFFFFFFFFFFFFFFFFFFFFFFFFFFFFF AND PUSH20 0xFFFFFFFFFFFFFFFFFFFFFFFFFFFFFFFFFFFFFFFF AND DUP2 MSTORE PUSH1 0x20 ADD SWAP1 DUP2 MSTORE PUSH1 0x20 ADD PUSH1 0x0 KECCAK256 PUSH1 0x2 ADD DUP2 SWAP1 SSTORE POP POP JUMP JUMPDEST PUSH1 0x0 DUP3 DUP3 MSTORE PUSH1 0x20 DUP3 ADD SWAP1 POP SWAP3 SWAP2 POP POP JUMP JUMPDEST PUSH32 0x796F752063616E27742073656E64206C657373207468616E2035306B20776569 PUSH1 0x0 DUP3 ADD MSTORE POP JUMP JUMPDEST PUSH1 0x0 PUSH2 0x206B PUSH1 0x20 DUP4 PUSH2 0x2024 JUMP JUMPDEST SWAP2 POP PUSH2 0x2076 DUP3 PUSH2 0x2035 JUMP JUMPDEST PUSH1 0x20 DUP3 ADD SWAP1 POP SWAP2 SWAP1 POP JUMP JUMPDEST PUSH1 0x0 PUSH1 0x20 DUP3 ADD SWAP1 POP DUP2 DUP2 SUB PUSH1 0x0 DUP4 ADD MSTORE PUSH2 0x209A DUP2 PUSH2 0x205E JUMP JUMPDEST SWAP1 POP SWAP2 SWAP1 POP JUMP JUMPDEST PUSH1 0x0 DUP2 MLOAD SWAP1 POP SWAP2 SWAP1 POP JUMP JUMPDEST PUSH32 0x4E487B7100000000000000000000000000000000000000000000000000000000 PUSH1 0x0 MSTORE PUSH1 0x41 PUSH1 0x4 MSTORE PUSH1 0x24 PUSH1 0x0 REVERT JUMPDEST PUSH32 0x4E487B7100000000000000000000000000000000000000000000000000000000 PUSH1 0x0 MSTORE PUSH1 0x22 PUSH1 0x4 MSTORE PUSH1 0x24 PUSH1 0x0 REVERT JUMPDEST PUSH1 0x0 PUSH1 0x2 DUP3 DIV SWAP1 POP PUSH1 0x1 DUP3 AND DUP1 PUSH2 0x2122 JUMPI PUSH1 0x7F DUP3 AND SWAP2 POP JUMPDEST PUSH1 0x20 DUP3 LT DUP2 SUB PUSH2 0x2135 JUMPI PUSH2 0x2134 PUSH2 0x20DB JUMP JUMPDEST JUMPDEST POP SWAP2 SWAP1 POP JUMP JUMPDEST PUSH1 0x0 DUP2 SWAP1 POP DUP2 PUSH1 0x0 MSTORE PUSH1 0x20 PUSH1 0x0 KECCAK256 SWAP1 POP SWAP2 SWAP1 POP JUMP JUMPDEST PUSH1 0x0 PUSH1 0x20 PUSH1 0x1F DUP4 ADD DIV SWAP1 POP SWAP2 SWAP1 POP JUMP JUMPDEST PUSH1 0x0 DUP3 DUP3 SHL SWAP1 POP SWAP3 SWAP2 POP POP JUMP JUMPDEST PUSH1 0x0 PUSH1 0x8 DUP4 MUL PUSH2 0x219D PUSH32 0xFFFFFFFFFFFFFFFFFFFFFFFFFFFFFFFFFFFFFFFFFFFFFFFFFFFFFFFFFFFFFFFF DUP3 PUSH2 0x2160 JUMP JUMPDEST PUSH2 0x21A7 DUP7 DUP4 PUSH2 0x2160 JUMP JUMPDEST SWAP6 POP DUP1 NOT DUP5 AND SWAP4 POP DUP1 DUP7 AND DUP5 OR SWAP3 POP POP POP SWAP4 SWAP3 POP POP POP JUMP JUMPDEST PUSH1 0x0 DUP2 SWAP1 POP SWAP2 SWAP1 POP JUMP JUMPDEST PUSH1 0x0 DUP2 SWAP1 POP SWAP2 SWAP1 POP JUMP JUMPDEST PUSH1 0x0 PUSH2 0x21EE PUSH2 0x21E9 PUSH2 0x21E4 DUP5 PUSH2 0x21BF JUMP JUMPDEST PUSH2 0x21C9 JUMP JUMPDEST PUSH2 0x21BF JUMP JUMPDEST SWAP1 POP SWAP2 SWAP1 POP JUMP JUMPDEST PUSH1 0x0 DUP2 SWAP1 POP SWAP2 SWAP1 POP JUMP JUMPDEST PUSH2 0x2208 DUP4 PUSH2 0x21D3 JUMP JUMPDEST PUSH2 0x221C PUSH2 0x2214 DUP3 PUSH2 0x21F5 JUMP JUMPDEST DUP5 DUP5 SLOAD PUSH2 0x216D JUMP JUMPDEST DUP3 SSTORE POP POP POP POP JUMP JUMPDEST PUSH1 0x0 SWAP1 JUMP JUMPDEST PUSH2 0x2231 PUSH2 0x2224 JUMP JUMPDEST PUSH2 0x223C DUP2 DUP5 DUP5 PUSH2 0x21FF JUMP JUMPDEST POP POP POP JUMP JUMPDEST JUMPDEST DUP2 DUP2 LT ISZERO PUSH2 0x2260 JUMPI PUSH2 0x2255 PUSH1 0x0 DUP3 PUSH2 0x2229 JUMP JUMPDEST PUSH1 0x1 DUP2 ADD SWAP1 POP PUSH2 0x2242 JUMP JUMPDEST POP POP JUMP JUMPDEST PUSH1 0x1F DUP3 GT ISZERO PUSH2 0x22A5 JUMPI PUSH2 0x2276 DUP2 PUSH2 0x213B JUMP JUMPDEST PUSH2 0x227F DUP5 PUSH2 0x2150 JUMP JUMPDEST DUP2 ADD PUSH1 0x20 DUP6 LT ISZERO PUSH2 0x228E JUMPI DUP2 SWAP1 POP JUMPDEST PUSH2 0x22A2 PUSH2 0x229A DUP6 PUSH2 0x2150 JUMP JUMPDEST DUP4 ADD DUP3 PUSH2 0x2241 JUMP JUMPDEST POP POP JUMPDEST POP POP POP JUMP JUMPDEST PUSH1 0x0 DUP3 DUP3 SHR SWAP1 POP SWAP3 SWAP2 POP POP JUMP JUMPDEST PUSH1 0x0 PUSH2 0x22C8 PUSH1 0x0 NOT DUP5 PUSH1 0x8 MUL PUSH2 0x22AA JUMP JUMPDEST NOT DUP1 DUP4 AND SWAP2 POP POP SWAP3 SWAP2 POP POP JUMP JUMPDEST PUSH1 0x0 PUSH2 0x22E1 DUP4 DUP4 PUSH2 0x22B7 JUMP JUMPDEST SWAP2 POP DUP3 PUSH1 0x2 MUL DUP3 OR SWAP1 POP SWAP3 SWAP2 POP POP JUMP JUMPDEST PUSH2 0x22FA DUP3 PUSH2 0x20A1 JUMP JUMPDEST PUSH8 0xFFFFFFFFFFFFFFFF DUP2 GT ISZERO PUSH2 0x2313 JUMPI PUSH2 0x2312 PUSH2 0x20AC JUMP JUMPDEST JUMPDEST PUSH2 0x231D DUP3 SLOAD PUSH2 0x210A JUMP JUMPDEST PUSH2 0x2328 DUP3 DUP3 DUP6 PUSH2 0x2264 JUMP JUMPDEST PUSH1 0x0 PUSH1 0x20 SWAP1 POP PUSH1 0x1F DUP4 GT PUSH1 0x1 DUP2 EQ PUSH2 0x235B JUMPI PUSH1 0x0 DUP5 ISZERO PUSH2 0x2349 JUMPI DUP3 DUP8 ADD MLOAD SWAP1 POP JUMPDEST PUSH2 0x2353 DUP6 DUP3 PUSH2 0x22D5 JUMP JUMPDEST DUP7 SSTORE POP PUSH2 0x23BB JUMP JUMPDEST PUSH1 0x1F NOT DUP5 AND PUSH2 0x2369 DUP7 PUSH2 0x213B JUMP JUMPDEST PUSH1 0x0 JUMPDEST DUP3 DUP2 LT ISZERO PUSH2 0x2391 JUMPI DUP5 DUP10 ADD MLOAD DUP3 SSTORE PUSH1 0x1 DUP3 ADD SWAP2 POP PUSH1 0x20 DUP6 ADD SWAP5 POP PUSH1 0x20 DUP2 ADD SWAP1 POP PUSH2 0x236C JUMP JUMPDEST DUP7 DUP4 LT ISZERO PUSH2 0x23AE JUMPI DUP5 DUP10 ADD MLOAD PUSH2 0x23AA PUSH1 0x1F DUP10 AND DUP3 PUSH2 0x22B7 JUMP JUMPDEST DUP4 SSTORE POP JUMPDEST PUSH1 0x1 PUSH1 0x2 DUP9 MUL ADD DUP9 SSTORE POP POP POP JUMPDEST POP POP POP POP POP POP JUMP JUMPDEST PUSH1 0x0 DUP1 REVERT JUMPDEST PUSH1 0x0 PUSH20 0xFFFFFFFFFFFFFFFFFFFFFFFFFFFFFFFFFFFFFFFF DUP3 AND SWAP1 POP SWAP2 SWAP1 POP JUMP JUMPDEST PUSH1 0x0 PUSH2 0x23F3 DUP3 PUSH2 0x23C8 JUMP JUMPDEST SWAP1 POP SWAP2 SWAP1 POP JUMP JUMPDEST PUSH2 0x2403 DUP2 PUSH2 0x23E8 JUMP JUMPDEST DUP2 EQ PUSH2 0x240E JUMPI PUSH1 0x0 DUP1 REVERT JUMPDEST POP JUMP JUMPDEST PUSH1 0x0 DUP2 CALLDATALOAD SWAP1 POP PUSH2 0x2420 DUP2 PUSH2 0x23FA JUMP JUMPDEST SWAP3 SWAP2 POP POP JUMP JUMPDEST PUSH1 0x0 PUSH1 0x20 DUP3 DUP5 SUB SLT ISZERO PUSH2 0x243C JUMPI PUSH2 0x243B PUSH2 0x23C3 JUMP JUMPDEST JUMPDEST PUSH1 0x0 PUSH2 0x244A DUP5 DUP3 DUP6 ADD PUSH2 0x2411 JUMP JUMPDEST SWAP2 POP POP SWAP3 SWAP2 POP POP JUMP JUMPDEST PUSH1 0x0 PUSH2 0x245E DUP3 PUSH2 0x23C8 JUMP JUMPDEST SWAP1 POP SWAP2 SWAP1 POP JUMP JUMPDEST PUSH2 0x246E DUP2 PUSH2 0x2453 JUMP JUMPDEST DUP3 MSTORE POP POP JUMP JUMPDEST PUSH2 0x247D DUP2 PUSH2 0x21BF JUMP JUMPDEST DUP3 MSTORE POP POP JUMP JUMPDEST PUSH1 0x0 PUSH1 0x80 DUP3 ADD SWAP1 POP PUSH2 0x2498 PUSH1 0x0 DUP4 ADD DUP8 PUSH2 0x2465 JUMP JUMPDEST PUSH2 0x24A5 PUSH1 0x20 DUP4 ADD DUP7 PUSH2 0x2474 JUMP JUMPDEST PUSH2 0x24B2 PUSH1 0x40 DUP4 ADD DUP6 PUSH2 0x2474 JUMP JUMPDEST PUSH2 0x24BF PUSH1 0x60 DUP4 ADD DUP5 PUSH2 0x2474 JUMP JUMPDEST SWAP6 SWAP5 POP POP POP POP POP JUMP JUMPDEST PUSH2 0x24D1 DUP2 PUSH2 0x21BF JUMP JUMPDEST DUP2 EQ PUSH2 0x24DC JUMPI PUSH1 0x0 DUP1 REVERT JUMPDEST POP JUMP JUMPDEST PUSH1 0x0 DUP2 CALLDATALOAD SWAP1 POP PUSH2 0x24EE DUP2 PUSH2 0x24C8 JUMP JUMPDEST SWAP3 SWAP2 POP POP JUMP JUMPDEST PUSH1 0x0 DUP1 PUSH1 0x0 PUSH1 0x60 DUP5 DUP7 SUB SLT ISZERO PUSH2 0x250D JUMPI PUSH2 0x250C PUSH2 0x23C3 JUMP JUMPDEST JUMPDEST PUSH1 0x0 PUSH2 0x251B DUP7 DUP3 DUP8 ADD PUSH2 0x24DF JUMP JUMPDEST SWAP4 POP POP PUSH1 0x20 PUSH2 0x252C DUP7 DUP3 DUP8 ADD PUSH2 0x24DF JUMP JUMPDEST SWAP3 POP POP PUSH1 0x40 PUSH2 0x253D DUP7 DUP3 DUP8 ADD PUSH2 0x2411 JUMP JUMPDEST SWAP2 POP POP SWAP3 POP SWAP3 POP SWAP3 JUMP JUMPDEST PUSH1 0x0 PUSH1 0x20 DUP3 ADD SWAP1 POP PUSH2 0x255C PUSH1 0x0 DUP4 ADD DUP5 PUSH2 0x2474 JUMP JUMPDEST SWAP3 SWAP2 POP POP JUMP JUMPDEST PUSH1 0x0 PUSH1 0x20 DUP3 DUP5 SUB SLT ISZERO PUSH2 0x2578 JUMPI PUSH2 0x2577 PUSH2 0x23C3 JUMP JUMPDEST JUMPDEST PUSH1 0x0 PUSH2 0x2586 DUP5 DUP3 DUP6 ADD PUSH2 0x24DF JUMP JUMPDEST SWAP2 POP POP SWAP3 SWAP2 POP POP JUMP JUMPDEST PUSH1 0x0 JUMPDEST DUP4 DUP2 LT ISZERO PUSH2 0x25AD JUMPI DUP1 DUP3 ADD MLOAD DUP2 DUP5 ADD MSTORE PUSH1 0x20 DUP2 ADD SWAP1 POP PUSH2 0x2592 JUMP JUMPDEST PUSH1 0x0 DUP5 DUP5 ADD MSTORE POP POP POP POP JUMP JUMPDEST PUSH1 0x0 PUSH1 0x1F NOT PUSH1 0x1F DUP4 ADD AND SWAP1 POP SWAP2 SWAP1 POP JUMP JUMPDEST PUSH1 0x0 PUSH2 0x25D5 DUP3 PUSH2 0x20A1 JUMP JUMPDEST PUSH2 0x25DF DUP2 DUP6 PUSH2 0x2024 JUMP JUMPDEST SWAP4 POP PUSH2 0x25EF DUP2 DUP6 PUSH1 0x20 DUP7 ADD PUSH2 0x258F JUMP JUMPDEST PUSH2 0x25F8 DUP2 PUSH2 0x25B9 JUMP JUMPDEST DUP5 ADD SWAP2 POP POP SWAP3 SWAP2 POP POP JUMP JUMPDEST PUSH1 0x0 PUSH1 0x80 DUP3 ADD SWAP1 POP DUP2 DUP2 SUB PUSH1 0x0 DUP4 ADD MSTORE PUSH2 0x261D DUP2 DUP8 PUSH2 0x25CA JUMP JUMPDEST SWAP1 POP PUSH2 0x262C PUSH1 0x20 DUP4 ADD DUP7 PUSH2 0x2474 JUMP JUMPDEST PUSH2 0x2639 PUSH1 0x40 DUP4 ADD DUP6 PUSH2 0x2474 JUMP JUMPDEST PUSH2 0x2646 PUSH1 0x60 DUP4 ADD DUP5 PUSH2 0x2474 JUMP JUMPDEST SWAP6 SWAP5 POP POP POP POP POP JUMP JUMPDEST PUSH2 0x2658 DUP2 PUSH2 0x23E8 JUMP JUMPDEST DUP3 MSTORE POP POP JUMP JUMPDEST PUSH1 0x0 PUSH1 0x20 DUP3 ADD SWAP1 POP PUSH2 0x2673 PUSH1 0x0 DUP4 ADD DUP5 PUSH2 0x264F JUMP JUMPDEST SWAP3 SWAP2 POP POP JUMP JUMPDEST PUSH1 0x0 DUP1 PUSH1 0x40 DUP4 DUP6 SUB SLT ISZERO PUSH2 0x2690 JUMPI PUSH2 0x268F PUSH2 0x23C3 JUMP JUMPDEST JUMPDEST PUSH1 0x0 PUSH2 0x269E DUP6 DUP3 DUP7 ADD PUSH2 0x2411 JUMP JUMPDEST SWAP3 POP POP PUSH1 0x20 PUSH2 0x26AF DUP6 DUP3 DUP7 ADD PUSH2 0x24DF JUMP JUMPDEST SWAP2 POP POP SWAP3 POP SWAP3 SWAP1 POP JUMP JUMPDEST PUSH32 0x66656520616C7265616479207061696400000000000000000000000000000000 PUSH1 0x0 DUP3 ADD MSTORE POP JUMP JUMPDEST PUSH1 0x0 PUSH2 0x26EF PUSH1 0x10 DUP4 PUSH2 0x2024 JUMP JUMPDEST SWAP2 POP PUSH2 0x26FA DUP3 PUSH2 0x26B9 JUMP JUMPDEST PUSH1 0x20 DUP3 ADD SWAP1 POP SWAP2 SWAP1 POP JUMP JUMPDEST PUSH1 0x0 PUSH1 0x20 DUP3 ADD SWAP1 POP DUP2 DUP2 SUB PUSH1 0x0 DUP4 ADD MSTORE PUSH2 0x271E DUP2 PUSH2 0x26E2 JUMP JUMPDEST SWAP1 POP SWAP2 SWAP1 POP JUMP JUMPDEST PUSH32 0x4E487B7100000000000000000000000000000000000000000000000000000000 PUSH1 0x0 MSTORE PUSH1 0x12 PUSH1 0x4 MSTORE PUSH1 0x24 PUSH1 0x0 REVERT JUMPDEST PUSH32 0x4E487B7100000000000000000000000000000000000000000000000000000000 PUSH1 0x0 MSTORE PUSH1 0x11 PUSH1 0x4 MSTORE PUSH1 0x24 PUSH1 0x0 REVERT JUMPDEST PUSH1 0x0 PUSH2 0x278E DUP3 PUSH2 0x21BF JUMP JUMPDEST SWAP2 POP PUSH2 0x2799 DUP4 PUSH2 0x21BF JUMP JUMPDEST SWAP3 POP DUP3 PUSH2 0x27A9 JUMPI PUSH2 0x27A8 PUSH2 0x2725 JUMP JUMPDEST JUMPDEST DUP3 DUP3 DIV SWAP1 POP SWAP3 SWAP2 POP POP JUMP JUMPDEST PUSH32 0x70617920706C6174666F726D2066656520666972737400000000000000000000 PUSH1 0x0 DUP3 ADD MSTORE POP JUMP JUMPDEST PUSH1 0x0 PUSH2 0x27EA PUSH1 0x16 DUP4 PUSH2 0x2024 JUMP JUMPDEST SWAP2 POP PUSH2 0x27F5 DUP3 PUSH2 0x27B4 JUMP JUMPDEST PUSH1 0x20 DUP3 ADD SWAP1 POP SWAP2 SWAP1 POP JUMP JUMPDEST PUSH1 0x0 PUSH1 0x20 DUP3 ADD SWAP1 POP DUP2 DUP2 SUB PUSH1 0x0 DUP4 ADD MSTORE PUSH2 0x2819 DUP2 PUSH2 0x27DD JUMP JUMPDEST SWAP1 POP SWAP2 SWAP1 POP JUMP JUMPDEST PUSH32 0x6E6F206761696E00000000000000000000000000000000000000000000000000 PUSH1 0x0 DUP3 ADD MSTORE POP JUMP JUMPDEST PUSH1 0x0 PUSH2 0x2856 PUSH1 0x7 DUP4 PUSH2 0x2024 JUMP JUMPDEST SWAP2 POP PUSH2 0x2861 DUP3 PUSH2 0x2820 JUMP JUMPDEST PUSH1 0x20 DUP3 ADD SWAP1 POP SWAP2 SWAP1 POP JUMP JUMPDEST PUSH1 0x0 PUSH1 0x20 DUP3 ADD SWAP1 POP DUP2 DUP2 SUB PUSH1 0x0 DUP4 ADD MSTORE PUSH2 0x2885 DUP2 PUSH2 0x2849 JUMP JUMPDEST SWAP1 POP SWAP2 SWAP1 POP JUMP JUMPDEST PUSH1 0x0 PUSH2 0x2897 DUP3 PUSH2 0x21BF JUMP JUMPDEST SWAP2 POP PUSH2 0x28A2 DUP4 PUSH2 0x21BF JUMP JUMPDEST SWAP3 POP DUP3 DUP3 MUL PUSH2 0x28B0 DUP2 PUSH2 0x21BF JUMP JUMPDEST SWAP2 POP DUP3 DUP3 DIV DUP5 EQ DUP4 ISZERO OR PUSH2 0x28C7 JUMPI PUSH2 0x28C6 PUSH2 0x2754 JUMP JUMPDEST JUMPDEST POP SWAP3 SWAP2 POP POP JUMP JUMPDEST PUSH1 0x0 DUP2 MLOAD SWAP1 POP PUSH2 0x28DD DUP2 PUSH2 0x24C8 JUMP JUMPDEST SWAP3 SWAP2 POP POP JUMP JUMPDEST PUSH1 0x0 PUSH1 0x20 DUP3 DUP5 SUB SLT ISZERO PUSH2 0x28F9 JUMPI PUSH2 0x28F8 PUSH2 0x23C3 JUMP JUMPDEST JUMPDEST PUSH1 0x0 PUSH2 0x2907 DUP5 DUP3 DUP6 ADD PUSH2 0x28CE JUMP JUMPDEST SWAP2 POP POP SWAP3 SWAP2 POP POP JUMP JUMPDEST PUSH32 0x636F6D70657469746F7220646F6E277420657869737400000000000000000000 PUSH1 0x0 DUP3 ADD MSTORE POP JUMP JUMPDEST PUSH1 0x0 PUSH2 0x2946 PUSH1 0x16 DUP4 PUSH2 0x2024 JUMP JUMPDEST SWAP2 POP PUSH2 0x2951 DUP3 PUSH2 0x2910 JUMP JUMPDEST PUSH1 0x20 DUP3 ADD SWAP1 POP SWAP2 SWAP1 POP JUMP JUMPDEST PUSH1 0x0 PUSH1 0x20 DUP3 ADD SWAP1 POP DUP2 DUP2 SUB PUSH1 0x0 DUP4 ADD MSTORE PUSH2 0x2975 DUP2 PUSH2 0x2939 JUMP JUMPDEST SWAP1 POP SWAP2 SWAP1 POP JUMP JUMPDEST PUSH1 0x0 PUSH2 0x2987 DUP3 PUSH2 0x21BF JUMP JUMPDEST SWAP2 POP PUSH32 0xFFFFFFFFFFFFFFFFFFFFFFFFFFFFFFFFFFFFFFFFFFFFFFFFFFFFFFFFFFFFFFFF DUP3 SUB PUSH2 0x29B9 JUMPI PUSH2 0x29B8 PUSH2 0x2754 JUMP JUMPDEST JUMPDEST PUSH1 0x1 DUP3 ADD SWAP1 POP SWAP2 SWAP1 POP JUMP JUMPDEST PUSH1 0x0 PUSH2 0x29CF DUP3 PUSH2 0x21BF JUMP JUMPDEST SWAP2 POP PUSH2 0x29DA DUP4 PUSH2 0x21BF JUMP JUMPDEST SWAP3 POP DUP3 DUP3 ADD SWAP1 POP DUP1 DUP3 GT ISZERO PUSH2 0x29F2 JUMPI PUSH2 0x29F1 PUSH2 0x2754 JUMP JUMPDEST JUMPDEST SWAP3 SWAP2 POP POP JUMP JUMPDEST PUSH1 0x0 DUP2 SWAP1 POP SWAP3 SWAP2 POP POP JUMP JUMPDEST POP JUMP JUMPDEST PUSH1 0x0 PUSH2 0x2A13 PUSH1 0x0 DUP4 PUSH2 0x29F8 JUMP JUMPDEST SWAP2 POP PUSH2 0x2A1E DUP3 PUSH2 0x2A03 JUMP JUMPDEST PUSH1 0x0 DUP3 ADD SWAP1 POP SWAP2 SWAP1 POP JUMP JUMPDEST PUSH1 0x0 PUSH2 0x2A34 DUP3 PUSH2 0x2A06 JUMP JUMPDEST SWAP2 POP DUP2 SWAP1 POP SWAP2 SWAP1 POP JUMP JUMPDEST PUSH32 0x4661696C656420746F2073656E64204574686572000000000000000000000000 PUSH1 0x0 DUP3 ADD MSTORE POP JUMP JUMPDEST PUSH1 0x0 PUSH2 0x2A74 PUSH1 0x14 DUP4 PUSH2 0x2024 JUMP JUMPDEST SWAP2 POP PUSH2 0x2A7F DUP3 PUSH2 0x2A3E JUMP JUMPDEST PUSH1 0x20 DUP3 ADD SWAP1 POP SWAP2 SWAP1 POP JUMP JUMPDEST PUSH1 0x0 PUSH1 0x20 DUP3 ADD SWAP1 POP DUP2 DUP2 SUB PUSH1 0x0 DUP4 ADD MSTORE PUSH2 0x2AA3 DUP2 PUSH2 0x2A67 JUMP JUMPDEST SWAP1 POP SWAP2 SWAP1 POP JUMP INVALID LOG2 PUSH5 0x6970667358 0x22 SLT KECCAK256 DIV GASLIMIT DUP1 MSTORE CALLDATALOAD DUP7 0xD9 0xE8 0xDC DUP13 0xA6 SHL DUP6 PUSH27 0x2420D345E40AD1C04A9EF2CAAD44B0C7AE0064736F6C6343000815 STOP CALLER "},"methodIdentifiers":{"beginEventTimestamp()":"a14de028","betWaveDaoAddress()":"d93e03b0","betWavesOrganizerAddress()":"c6073c66","bettors(address)":"22010c1f","calculateValidatorReward(uint256)":"ebfb6652","competitors(uint256)":"9d86801f","endEventTimestamp()":"a32b3487","getContractBalance()":"6f9fb98a","redeemToBettor()":"ad05d9c3","sendPlatfromAndCreatorFees(uint256,uint256,address)":"5c3a3e5c","sendValidatorFees(address,uint256)":"cf959429","setBet(uint256)":"e8399cc6","setFeesBooleanToTrue()":"a99073ae","test()":"f8a8fd6d","totalBet()":"fe5e1853"}}}}}