{"contracts/BetWaveDAO.sol":{"BetWaveDAO":{"abi":[{"inputs":[],"name":"insufficientBalance","type":"error"},{"inputs":[],"name":"notRegistered","type":"error"},{"inputs":[],"name":"notValidator","type":"error"},{"anonymous":false,"inputs":[{"indexed":false,"internalType":"address","name":"","type":"address"},{"indexed":false,"internalType":"uint256","name":"","type":"uint256"}],"name":"newUser","type":"event"},{"anonymous":false,"inputs":[{"indexed":false,"internalType":"uint256","name":"","type":"uint256"}],"name":"voteRejected","type":"event"},{"stateMutability":"payable","type":"fallback"},{"inputs":[],"name":"DAOQuorum","outputs":[{"internalType":"uint256","name":"","type":"uint256"}],"stateMutability":"view","type":"function"},{"inputs":[{"internalType":"uint256","name":"","type":"uint256"}],"name":"DAOVoteList","outputs":[{"internalType":"enum BetWaveDAO.VoteType","name":"voteType","type":"uint8"},{"internalType":"uint256","name":"voteFor","type":"uint256"},{"internalType":"uint256","name":"voteAgainst","type":"uint256"},{"internalType":"uint256","name":"newValue","type":"uint256"}],"stateMutability":"view","type":"function"},{"inputs":[],"name":"addUser","outputs":[],"stateMutability":"nonpayable","type":"function"},{"inputs":[],"name":"addValidators","outputs":[],"stateMutability":"payable","type":"function"},{"inputs":[{"internalType":"enum BetWaveDAO.VoteType","name":"_voteType","type":"uint8"},{"internalType":"uint256","name":"_newValue","type":"uint256"}],"name":"askDAOVote","outputs":[],"stateMutability":"nonpayable","type":"function"},{"inputs":[],"name":"betQuorum","outputs":[{"internalType":"uint256","name":"","type":"uint256"}],"stateMutability":"view","type":"function"},{"inputs":[],"name":"creatorFees","outputs":[{"internalType":"uint256","name":"","type":"uint256"}],"stateMutability":"view","type":"function"},{"inputs":[],"name":"daoVoteNumber","outputs":[{"internalType":"uint256","name":"","type":"uint256"}],"stateMutability":"view","type":"function"},{"inputs":[{"internalType":"uint256","name":"_id","type":"uint256"}],"name":"getDaoVoteHasVoted","outputs":[{"internalType":"bool","name":"","type":"bool"}],"stateMutability":"view","type":"function"},{"inputs":[],"name":"platformFees","outputs":[{"internalType":"uint256","name":"","type":"uint256"}],"stateMutability":"view","type":"function"},{"inputs":[{"internalType":"uint256","name":"_id","type":"uint256"},{"internalType":"uint256","name":"_option","type":"uint256"}],"name":"setDaoVote","outputs":[],"stateMutability":"nonpayable","type":"function"},{"inputs":[{"internalType":"uint256","name":"","type":"uint256"}],"name":"userList","outputs":[{"internalType":"address","name":"","type":"address"}],"stateMutability":"view","type":"function"},{"inputs":[],"name":"userNumber","outputs":[{"internalType":"uint256","name":"","type":"uint256"}],"stateMutability":"view","type":"function"},{"inputs":[{"internalType":"address","name":"","type":"address"}],"name":"userToId","outputs":[{"internalType":"uint256","name":"","type":"uint256"}],"stateMutability":"view","type":"function"},{"inputs":[],"name":"validatorFees","outputs":[{"internalType":"uint256","name":"","type":"uint256"}],"stateMutability":"view","type":"function"},{"inputs":[],"name":"validatorNumber","outputs":[{"internalType":"uint256","name":"","type":"uint256"}],"stateMutability":"view","type":"function"},{"inputs":[],"name":"validatorNumberRequired","outputs":[{"internalType":"uint256","name":"","type":"uint256"}],"stateMutability":"view","type":"function"},{"inputs":[{"internalType":"address","name":"","type":"address"}],"name":"validators","outputs":[{"internalType":"address payable","name":"userAddress","type":"address"},{"internalType":"bool","name":"isBlacklisted","type":"bool"},{"internalType":"uint256","name":"strike","type":"uint256"}],"stateMutability":"view","type":"function"},{"inputs":[],"name":"withdrawFromValidators","outputs":[],"stateMutability":"payable","type":"function"},{"stateMutability":"payable","type":"receive"}],"evm":{"bytecode":{"linkReferences":{},"object":"60806040526040518060400160405280600c81526020017f6566626c7671687362646c670000000000000000000000000000000000000000815250600090816200004a9190620002fc565b50600460015560966002556032600355604b600455604b600555600a60065560016007553480156200007b57600080fd5b50620003e3565b600081519050919050565b7f4e487b7100000000000000000000000000000000000000000000000000000000600052604160045260246000fd5b7f4e487b7100000000000000000000000000000000000000000000000000000000600052602260045260246000fd5b600060028204905060018216806200010457607f821691505b6020821081036200011a5762000119620000bc565b5b50919050565b60008190508160005260206000209050919050565b60006020601f8301049050919050565b600082821b905092915050565b600060088302620001847fffffffffffffffffffffffffffffffffffffffffffffffffffffffffffffffff8262000145565b62000190868362000145565b95508019841693508086168417925050509392505050565b6000819050919050565b6000819050919050565b6000620001dd620001d7620001d184620001a8565b620001b2565b620001a8565b9050919050565b6000819050919050565b620001f983620001bc565b620002116200020882620001e4565b84845462000152565b825550505050565b600090565b6200022862000219565b62000235818484620001ee565b505050565b5b818110156200025d57620002516000826200021e565b6001810190506200023b565b5050565b601f821115620002ac57620002768162000120565b620002818462000135565b8101602085101562000291578190505b620002a9620002a08562000135565b8301826200023a565b50505b505050565b600082821c905092915050565b6000620002d160001984600802620002b1565b1980831691505092915050565b6000620002ec8383620002be565b9150826002028217905092915050565b620003078262000082565b67ffffffffffffffff8111156200032357620003226200008d565b5b6200032f8254620000eb565b6200033c82828562000261565b600060209050601f8311600181146200037457600084156200035f578287015190505b6200036b8582620002de565b865550620003db565b601f198416620003848662000120565b60005b82811015620003ae5784890151825560018201915060208501945060208101905062000387565b86831015620003ce5784890151620003ca601f891682620002be565b8355505b6001600288020188555050505b505050505050565b6129d980620003f36000396000f3fe6080604052600436106101185760003560e01c806353db7e77116100a05780639f4216e8116100645780639f4216e814610489578063c5ee74eb146104c6578063cb61bd8c146104d0578063dc070671146104fb578063fa52c7d814610505576101a0565b806353db7e771461039f5780636694ba61146103ca57806372e24fdd146103f557806373a8b6c814610420578063860734fb14610449576101a0565b8063194a4e7e116100e7578063194a4e7e146102cc5780631b2d6a7c146102f75780632b4e841314610320578063455c928c1461034b57806353241b4f14610362576101a0565b80630b4805d31461020e5780630b85000d1461024b5780630ed337ad14610276578063139f29a1146102a1576101a0565b366101a05761013167a15aaf0bbfcb443860c01b610544565b61014567fe6683a37682b9be60c01b610544565b61c35034101561018a576040517f08c379a000000000000000000000000000000000000000000000000000000000815260040161018190611ec8565b60405180910390fd5b61019e679143a76a5e0bfa0760c01b610544565b005b6101b467a740b0399ea588ac60c01b610544565b6101c86755c6fb07053bdcd560c01b610544565b6040518060400160405280601e81526020017f46616c6c6261636b2066756e6374696f6e2069732065786563757465642100008152506000908161020c9190612138565b005b34801561021a57600080fd5b506102356004803603810190610230919061226d565b610547565b60405161024291906122a9565b60405180910390f35b34801561025757600080fd5b5061026061055f565b60405161026d91906122a9565b60405180910390f35b34801561028257600080fd5b5061028b610565565b60405161029891906122a9565b60405180910390f35b3480156102ad57600080fd5b506102b661056b565b6040516102c391906122a9565b60405180910390f35b3480156102d857600080fd5b506102e1610571565b6040516102ee91906122a9565b60405180910390f35b34801561030357600080fd5b5061031e60048036038101906103199190612315565b610577565b005b34801561032c57600080fd5b506103356107a3565b60405161034291906122a9565b60405180910390f35b34801561035757600080fd5b506103606107a9565b005b34801561036e57600080fd5b5061038960048036038101906103849190612355565b6109d5565b604051610396919061239d565b60405180910390f35b3480156103ab57600080fd5b506103b4610a7b565b6040516103c191906122a9565b60405180910390f35b3480156103d657600080fd5b506103df610a81565b6040516103ec91906122a9565b60405180910390f35b34801561040157600080fd5b5061040a610a87565b60405161041791906122a9565b60405180910390f35b34801561042c57600080fd5b50610447600480360381019061044291906123b8565b610a8d565b005b34801561045557600080fd5b50610470600480360381019061046b9190612355565b611091565b604051610480949392919061246f565b60405180910390f35b34801561049557600080fd5b506104b060048036038101906104ab9190612355565b6110ce565b6040516104bd91906124c3565b60405180910390f35b6104ce611101565b005b3480156104dc57600080fd5b506104e561146f565b6040516104f291906122a9565b60405180910390f35b610503611475565b005b34801561051157600080fd5b5061052c6004803603810190610527919061226d565b611973565b60405161053b939291906124ff565b60405180910390f35b50565b600d6020528060005260406000206000915090505481565b60045481565b60095481565b60085481565b60025481565b61058b67db4d5f2e879e39d060c01b610544565b61059f67d128787db894d25460c01b610544565b6105b367e184f23922037a0e60c01b610544565b6105c767cb1a2e565054844a60c01b610544565b3373ffffffffffffffffffffffffffffffffffffffff16600b60003373ffffffffffffffffffffffffffffffffffffffff1673ffffffffffffffffffffffffffffffffffffffff16815260200190815260200160002060000160009054906101000a900473ffffffffffffffffffffffffffffffffffffffff1673ffffffffffffffffffffffffffffffffffffffff16146106b65761067067e66ace9d32e7c0c160c01b610544565b61068467a614531cc29ea75460c01b610544565b6040517fec752d2a00000000000000000000000000000000000000000000000000000000815260040160405180910390fd5b6106ca6742220e1cf1a9492c60c01b610544565b6106de67f5b4cf851b722a2b60c01b610544565b6106f267308ca2c36b55225e60c01b610544565b61070667cec3fe638a40899a60c01b610544565b61071a67feed15e9668b292c60c01b610544565b81600a6000600954815260200190815260200160002060000160006101000a81548160ff02191690836005811115610755576107546123f8565b5b021790555061076e6751e909a117112d3c60c01b610544565b80600a60006009600081548092919061078690612565565b919050558152602001908152602001600020600301819055505050565b60075481565b6107bd672e5230ba4a0a8a8560c01b610544565b6107d1677e15e77c9221f6c460c01b610544565b6107e56709cfb8565e2a251260c01b610544565b6107f967394dad0379fb5ffb60c01b610544565b6000600d60003373ffffffffffffffffffffffffffffffffffffffff1673ffffffffffffffffffffffffffffffffffffffff168152602001908152602001600020541461087b576040517f08c379a0000000000000000000000000000000000000000000000000000000008152600401610872906125f9565b60405180910390fd5b61088f67c592c5f5db7e06eb60c01b610544565b6108a2660a266c5110f12a60c01b610544565b600754600d60003373ffffffffffffffffffffffffffffffffffffffff1673ffffffffffffffffffffffffffffffffffffffff168152602001908152602001600020819055506108fc671267d372323f7ba660c01b610544565b33600c60006007600081548092919061091490612565565b91905055815260200190815260200160002060006101000a81548173ffffffffffffffffffffffffffffffffffffffff021916908373ffffffffffffffffffffffffffffffffffffffff1602179055506109786748da7ae8482148e660c01b610544565b61098c678610c3982be03d1a60c01b610544565b7ff9ac505b144a1879609b52f02d3441e478cdd9c19c5d198a2712ac5184ecef673360016007546109bd9190612619565b6040516109cb92919061264d565b60405180910390a1565b60006109eb67c7ed9156dad3070c60c01b610544565b6109ff67e2287e9255d683a360c01b610544565b610a13678edad1148e0d446b60c01b610544565b600a600083815260200190815260200160002060040160003373ffffffffffffffffffffffffffffffffffffffff1673ffffffffffffffffffffffffffffffffffffffff16815260200190815260200160002060009054906101000a900460ff169050919050565b60015481565b60035481565b60065481565b610aa1672f9e5a5558cbee3260c01b610544565b610ab567d128787db894d25460c01b610544565b610ac967e184f23922037a0e60c01b610544565b610add67cb1a2e565054844a60c01b610544565b3373ffffffffffffffffffffffffffffffffffffffff16600b60003373ffffffffffffffffffffffffffffffffffffffff1673ffffffffffffffffffffffffffffffffffffffff16815260200190815260200160002060000160009054906101000a900473ffffffffffffffffffffffffffffffffffffffff1673ffffffffffffffffffffffffffffffffffffffff1614610bcc57610b8667e66ace9d32e7c0c160c01b610544565b610b9a67a614531cc29ea75460c01b610544565b6040517fec752d2a00000000000000000000000000000000000000000000000000000000815260040160405180910390fd5b610be06742220e1cf1a9492c60c01b610544565b610bf467f5b4cf851b722a2b60c01b610544565b610c08671dfbd9162729f0d260c01b610544565b610c1c67c6e19879b04f2c5960c01b610544565b610c306776f2a2b33ccbb26560c01b610544565b610c44671aa8c0d9fd302aea60c01b610544565b610c5867dcb76502ad76029660c01b610544565b60001515600a600084815260200190815260200160002060040160003373ffffffffffffffffffffffffffffffffffffffff1673ffffffffffffffffffffffffffffffffffffffff16815260200190815260200160002060009054906101000a900460ff16151514610cff576040517f08c379a0000000000000000000000000000000000000000000000000000000008152600401610cf6906126c2565b60405180910390fd5b610d1367cee68a04a349556d60c01b610544565b610d27673af5bc2f559738ff60c01b610544565b610d3b67c7a41fa2204b46e360c01b610544565b60018103610d9c57610d5767a139ab45d3792c8760c01b610544565b610d6b675e172f339e4652ef60c01b610544565b600a60008381526020019081526020016000206001016000815480929190610d9290612565565b9190505550610e3b565b610db067f505c9b75f45f68460c01b610544565b610dc4673b9d201c6e23fc8b60c01b610544565b60028103610e2557610de067756b84d3ff88f91460c01b610544565b610df4674b6c7c9854c1067460c01b610544565b600a60008381526020019081526020016000206002016000815480929190610e1b90612565565b9190505550610e3a565b610e396770974aed5e7fabac60c01b610544565b5b5b610e4f67e00d5d12d1a51e4e60c01b610544565b6001600a600084815260200190815260200160002060040160003373ffffffffffffffffffffffffffffffffffffffff1673ffffffffffffffffffffffffffffffffffffffff16815260200190815260200160002060006101000a81548160ff021916908315150217905550610ecf6779034a807b8c808e60c01b610544565b610ee36786b35554fd59437360c01b610544565b6005546008546064600a600086815260200190815260200160002060010154610f0c91906126e2565b610f169190612753565b10610f9f57610f2f6776deaa75c44473c560c01b610544565b610f4367de36849b1b404f6c60c01b610544565b610f57671abcd73d20eece6360c01b610544565b610f9a600a600084815260200190815260200160002060000160009054906101000a900460ff16600a6000858152602001908152602001600020600301546119ca565b61108d565b610fb36770b8792710ef0cea60c01b610544565b610fc7674079a66ed84da98960c01b610544565b6005546008546064600a600086815260200190815260200160002060020154610ff091906126e2565b610ffa9190612753565b106110775761101367f4974313327c3adb60c01b610544565b61102767856ef94a9c69e23e60c01b610544565b61103b67eab327910d0e62b960c01b610544565b7f91944425928af46b7fe486868fbdd04cd88c32637b4c91612caa1781c1b91f8c8260405161106a91906122a9565b60405180910390a161108c565b61108b67872ba8a7e92c5fa860c01b610544565b5b5b5050565b600a6020528060005260406000206000915090508060000160009054906101000a900460ff16908060010154908060020154908060030154905084565b600c6020528060005260406000206000915054906101000a900473ffffffffffffffffffffffffffffffffffffffff1681565b61111567074bc74ca1d4e5b160c01b610544565b3061112a67136da02e533b82cd60c01b610544565b61113e67209b55f8b320547560c01b610544565b611152676a28261d9943a9d960c01b610544565b670de0b6b3a76400008173ffffffffffffffffffffffffffffffffffffffff1631116111d25761118c67389c049825b9fa5460c01b610544565b6111a067a2c8751e8e2daa7160c01b610544565b6040517f47108e3e00000000000000000000000000000000000000000000000000000000815260040160405180910390fd5b6111e6675497109226d52ea260c01b610544565b6111fa67bb0738733438747960c01b610544565b61120e67d9ce2405fb82b25460c01b610544565b61122267e82cb70725545fd760c01b610544565b61123667c4b37ad433d2d68e60c01b610544565b61124a67b8e64898db16fa0d60c01b610544565b61125e6764240195e7c901fb60c01b610544565b3373ffffffffffffffffffffffffffffffffffffffff16600b60003373ffffffffffffffffffffffffffffffffffffffff1673ffffffffffffffffffffffffffffffffffffffff16815260200190815260200160002060000160009054906101000a900473ffffffffffffffffffffffffffffffffffffffff1673ffffffffffffffffffffffffffffffffffffffff161461132e576040517f08c379a0000000000000000000000000000000000000000000000000000000008152600401611325906127d0565b60405180910390fd5b61134267f378894da803dcf260c01b610544565b611356676f1156f3b1f0c86060c01b610544565b61136a670c78e2b7436e079060c01b610544565b6000670de0b6b3a7640000905061138b67674493d77298967c60c01b610544565b61139f67d64d6d195cd51b1a60c01b610544565b6113a93382611d2b565b6113bd67f585eea6435ab33c60c01b610544565b6000600b60003373ffffffffffffffffffffffffffffffffffffffff1673ffffffffffffffffffffffffffffffffffffffff16815260200190815260200160002060000160006101000a81548173ffffffffffffffffffffffffffffffffffffffff021916908373ffffffffffffffffffffffffffffffffffffffff16021790555061145367bc3d876f667579b160c01b610544565b60086000815480929190611466906127f0565b91905055505050565b60055481565b6114896714db2310befc488060c01b610544565b61149d67698f3e0ee90c387160c01b610544565b6114b1678c349b55b730988860c01b610544565b6114c5671aca70163851570e60c01b610544565b6000600d60003373ffffffffffffffffffffffffffffffffffffffff1673ffffffffffffffffffffffffffffffffffffffff168152602001908152602001600020540361156657611520679d30861a492e9cda60c01b610544565b611534678c9d06dd0e14763560c01b610544565b6040517f3a70817d00000000000000000000000000000000000000000000000000000000815260040160405180910390fd5b61157a67b4ef19437ab44d4a60c01b610544565b61158e67693c450d850bbf4560c01b610544565b6115a26795404e0b63c2435560c01b610544565b6115b66744f5c8dc1c9b853f60c01b610544565b336115cb67136da02e533b82cd60c01b610544565b6115df67209b55f8b320547560c01b610544565b6115f3676a28261d9943a9d960c01b610544565b670de0b6b3a76400008173ffffffffffffffffffffffffffffffffffffffff1631116116735761162d67389c049825b9fa5460c01b610544565b61164167a2c8751e8e2daa7160c01b610544565b6040517f47108e3e00000000000000000000000000000000000000000000000000000000815260040160405180910390fd5b611687675497109226d52ea260c01b610544565b61169b67bb0738733438747960c01b610544565b6116af673e04b6e7511aaa9260c01b610544565b6116c3670179fd82c7f6eccb60c01b610544565b6116d76725194325dcfd1f5e60c01b610544565b6116eb67600648dc8f445dcb60c01b610544565b6116ff67fcbe4e829641c80d60c01b610544565b670de0b6b3a76400003414611749576040517f08c379a000000000000000000000000000000000000000000000000000000000815260040161174090612865565b60405180910390fd5b61175d67f42c02d644e9755f60c01b610544565b6117716710439ef341cd73de60c01b610544565b611785676818fcea189ede9660c01b610544565b61179967664945351de7a4e960c01b610544565b3373ffffffffffffffffffffffffffffffffffffffff16600b60003373ffffffffffffffffffffffffffffffffffffffff1673ffffffffffffffffffffffffffffffffffffffff16815260200190815260200160002060000160009054906101000a900473ffffffffffffffffffffffffffffffffffffffff1673ffffffffffffffffffffffffffffffffffffffff1603611869576040517f08c379a0000000000000000000000000000000000000000000000000000000008152600401611860906128d1565b60405180910390fd5b61187d6709864cd3bfeaaadd60c01b610544565b611891676fca4fd3ad8b9c5860c01b610544565b6118a5676a89bc144a93d89e60c01b610544565b6118af3034611d2b565b6118c36797e9dae473b4410f60c01b610544565b33600b60003373ffffffffffffffffffffffffffffffffffffffff1673ffffffffffffffffffffffffffffffffffffffff16815260200190815260200160002060000160006101000a81548173ffffffffffffffffffffffffffffffffffffffff021916908373ffffffffffffffffffffffffffffffffffffffff160217905550611958674b2296909b4ddc3160c01b610544565b6008600081548092919061196b90612565565b919050555050565b600b6020528060005260406000206000915090508060000160009054906101000a900473ffffffffffffffffffffffffffffffffffffffff16908060000160149054906101000a900460ff16908060010154905083565b6119de6765e7a79278d5bf7260c01b610544565b6119f2673420c6820c9ed3c760c01b610544565b611a06678390c81b49a5e62360c01b610544565b60006005811115611a1a57611a196123f8565b5b826005811115611a2d57611a2c6123f8565b5b03611a6657611a46679def52038bc1b38d60c01b610544565b611a5a672b26d78186b1bb0860c01b610544565b80600281905550611d27565b611a7a677346c6f75e467a3c60c01b610544565b611a8e6737bf1cbf8acb34e860c01b610544565b60016005811115611aa257611aa16123f8565b5b826005811115611ab557611ab46123f8565b5b03611aee57611ace6769aa217d2115783760c01b610544565b611ae2672f39790983672c9b60c01b610544565b80600381905550611d26565b611b0267288142a055b76c8a60c01b610544565b611b1667a049a38731ec224660c01b610544565b60026005811115611b2a57611b296123f8565b5b826005811115611b3d57611b3c6123f8565b5b03611b7657611b566768052db4b406e36a60c01b610544565b611b6a673686c77991ea3d9260c01b610544565b80600481905550611d25565b611b8a67dab5cee8678d61e560c01b610544565b611b9e671c00f0ca30a1901960c01b610544565b60036005811115611bb257611bb16123f8565b5b826005811115611bc557611bc46123f8565b5b03611bfe57611bde6704081b8fca38e3cb60c01b610544565b611bf2673992ba92eded57b760c01b610544565b80600581905550611d24565b611c1267316ca1e2171abcfa60c01b610544565b611c2667802f32b07f4b322160c01b610544565b60046005811115611c3a57611c396123f8565b5b826005811115611c4d57611c4c6123f8565b5b03611c8657611c6667d18a2824bfa870d860c01b610544565b611c7a67c96f807082e192cc60c01b610544565b80600181905550611d23565b611c9a67d83f938f7f69220f60c01b610544565b611cae6726703521036ec41460c01b610544565b600580811115611cc157611cc06123f8565b5b826005811115611cd457611cd36123f8565b5b03611d0d57611ced678bbcc1b73e42aa8060c01b610544565b611d016784fc27a7ac9c410b60c01b610544565b80600681905550611d22565b611d2167a5b390bcc1fbacdd60c01b610544565b5b5b5b5b5b5b5050565b611d3f67c2d731a4a0a90d5d60c01b610544565b611d5367246fac22a72adb5760c01b610544565b611d67679734d76458b4889f60c01b610544565b6000808373ffffffffffffffffffffffffffffffffffffffff1683604051611d8e90612922565b60006040518083038185875af1925050503d8060008114611dcb576040519150601f19603f3d011682016040523d82523d6000602084013e611dd0565b606091505b5091509150611de967b93f12f57981ea3b60c01b610544565b611dfd67c788f4ab91ca5b4460c01b610544565b611e1167fd1b5f9b8d26a86d60c01b610544565b81611e51576040517f08c379a0000000000000000000000000000000000000000000000000000000008152600401611e4890612983565b60405180910390fd5b611e65671dea001f363b935960c01b610544565b50505050565b600082825260208201905092915050565b7f796f752063616e27742073656e64206c657373207468616e2035306b20776569600082015250565b6000611eb2602083611e6b565b9150611ebd82611e7c565b602082019050919050565b60006020820190508181036000830152611ee181611ea5565b9050919050565b600081519050919050565b7f4e487b7100000000000000000000000000000000000000000000000000000000600052604160045260246000fd5b7f4e487b7100000000000000000000000000000000000000000000000000000000600052602260045260246000fd5b60006002820490506001821680611f6957607f821691505b602082108103611f7c57611f7b611f22565b5b50919050565b60008190508160005260206000209050919050565b60006020601f8301049050919050565b600082821b905092915050565b600060088302611fe47fffffffffffffffffffffffffffffffffffffffffffffffffffffffffffffffff82611fa7565b611fee8683611fa7565b95508019841693508086168417925050509392505050565b6000819050919050565b6000819050919050565b600061203561203061202b84612006565b612010565b612006565b9050919050565b6000819050919050565b61204f8361201a565b61206361205b8261203c565b848454611fb4565b825550505050565b600090565b61207861206b565b612083818484612046565b505050565b5b818110156120a75761209c600082612070565b600181019050612089565b5050565b601f8211156120ec576120bd81611f82565b6120c684611f97565b810160208510156120d5578190505b6120e96120e185611f97565b830182612088565b50505b505050565b600082821c905092915050565b600061210f600019846008026120f1565b1980831691505092915050565b600061212883836120fe565b9150826002028217905092915050565b61214182611ee8565b67ffffffffffffffff81111561215a57612159611ef3565b5b6121648254611f51565b61216f8282856120ab565b600060209050601f8311600181146121a25760008415612190578287015190505b61219a858261211c565b865550612202565b601f1984166121b086611f82565b60005b828110156121d8578489015182556001820191506020850194506020810190506121b3565b868310156121f557848901516121f1601f8916826120fe565b8355505b6001600288020188555050505b505050505050565b600080fd5b600073ffffffffffffffffffffffffffffffffffffffff82169050919050565b600061223a8261220f565b9050919050565b61224a8161222f565b811461225557600080fd5b50565b60008135905061226781612241565b92915050565b6000602082840312156122835761228261220a565b5b600061229184828501612258565b91505092915050565b6122a381612006565b82525050565b60006020820190506122be600083018461229a565b92915050565b600681106122d157600080fd5b50565b6000813590506122e3816122c4565b92915050565b6122f281612006565b81146122fd57600080fd5b50565b60008135905061230f816122e9565b92915050565b6000806040838503121561232c5761232b61220a565b5b600061233a858286016122d4565b925050602061234b85828601612300565b9150509250929050565b60006020828403121561236b5761236a61220a565b5b600061237984828501612300565b91505092915050565b60008115159050919050565b61239781612382565b82525050565b60006020820190506123b2600083018461238e565b92915050565b600080604083850312156123cf576123ce61220a565b5b60006123dd85828601612300565b92505060206123ee85828601612300565b9150509250929050565b7f4e487b7100000000000000000000000000000000000000000000000000000000600052602160045260246000fd5b60068110612438576124376123f8565b5b50565b600081905061244982612427565b919050565b60006124598261243b565b9050919050565b6124698161244e565b82525050565b60006080820190506124846000830187612460565b612491602083018661229a565b61249e604083018561229a565b6124ab606083018461229a565b95945050505050565b6124bd8161222f565b82525050565b60006020820190506124d860008301846124b4565b92915050565b60006124e98261220f565b9050919050565b6124f9816124de565b82525050565b600060608201905061251460008301866124f0565b612521602083018561238e565b61252e604083018461229a565b949350505050565b7f4e487b7100000000000000000000000000000000000000000000000000000000600052601160045260246000fd5b600061257082612006565b91507fffffffffffffffffffffffffffffffffffffffffffffffffffffffffffffffff82036125a2576125a1612536565b5b600182019050919050565b7f7573657220616c72656164792065786973740000000000000000000000000000600082015250565b60006125e3601283611e6b565b91506125ee826125ad565b602082019050919050565b60006020820190508181036000830152612612816125d6565b9050919050565b600061262482612006565b915061262f83612006565b925082820390508181111561264757612646612536565b5b92915050565b600060408201905061266260008301856124b4565b61266f602083018461229a565b9392505050565b7f616c726561647920766f74656400000000000000000000000000000000000000600082015250565b60006126ac600d83611e6b565b91506126b782612676565b602082019050919050565b600060208201905081810360008301526126db8161269f565b9050919050565b60006126ed82612006565b91506126f883612006565b925082820261270681612006565b9150828204841483151761271d5761271c612536565b5b5092915050565b7f4e487b7100000000000000000000000000000000000000000000000000000000600052601260045260246000fd5b600061275e82612006565b915061276983612006565b92508261277957612778612724565b5b828204905092915050565b7f596f7520617265206e6f742076616c696461746f727300000000000000000000600082015250565b60006127ba601683611e6b565b91506127c582612784565b602082019050919050565b600060208201905081810360008301526127e9816127ad565b9050919050565b60006127fb82612006565b91506000820361280e5761280d612536565b5b600182039050919050565b7f73656e6420312065746800000000000000000000000000000000000000000000600082015250565b600061284f600a83611e6b565b915061285a82612819565b602082019050919050565b6000602082019050818103600083015261287e81612842565b9050919050565b7f596f7520616c7265616479206172650000000000000000000000000000000000600082015250565b60006128bb600f83611e6b565b91506128c682612885565b602082019050919050565b600060208201905081810360008301526128ea816128ae565b9050919050565b600081905092915050565b50565b600061290c6000836128f1565b9150612917826128fc565b600082019050919050565b600061292d826128ff565b9150819050919050565b7f4661696c656420746f2073656e64204574686572000000000000000000000000600082015250565b600061296d601483611e6b565b915061297882612937565b602082019050919050565b6000602082019050818103600083015261299c81612960565b905091905056fea264697066735822122075674e21f2a1e9d9f59ab0fee5f8f9fa6ac369a4e45250bf2dafb52a1821f21964736f6c63430008150033","opcodes":"PUSH1 0x80 PUSH1 0x40 MSTORE PUSH1 0x40 MLOAD DUP1 PUSH1 0x40 ADD PUSH1 0x40 MSTORE DUP1 PUSH1 0xC DUP2 MSTORE PUSH1 0x20 ADD PUSH32 0x6566626C7671687362646C670000000000000000000000000000000000000000 DUP2 MSTORE POP PUSH1 0x0 SWAP1 DUP2 PUSH3 0x4A SWAP2 SWAP1 PUSH3 0x2FC JUMP JUMPDEST POP PUSH1 0x4 PUSH1 0x1 SSTORE PUSH1 0x96 PUSH1 0x2 SSTORE PUSH1 0x32 PUSH1 0x3 SSTORE PUSH1 0x4B PUSH1 0x4 SSTORE PUSH1 0x4B PUSH1 0x5 SSTORE PUSH1 0xA PUSH1 0x6 SSTORE PUSH1 0x1 PUSH1 0x7 SSTORE CALLVALUE DUP1 ISZERO PUSH3 0x7B JUMPI PUSH1 0x0 DUP1 REVERT JUMPDEST POP PUSH3 0x3E3 JUMP JUMPDEST PUSH1 0x0 DUP2 MLOAD SWAP1 POP SWAP2 SWAP1 POP JUMP JUMPDEST PUSH32 0x4E487B7100000000000000000000000000000000000000000000000000000000 PUSH1 0x0 MSTORE PUSH1 0x41 PUSH1 0x4 MSTORE PUSH1 0x24 PUSH1 0x0 REVERT JUMPDEST PUSH32 0x4E487B7100000000000000000000000000000000000000000000000000000000 PUSH1 0x0 MSTORE PUSH1 0x22 PUSH1 0x4 MSTORE PUSH1 0x24 PUSH1 0x0 REVERT JUMPDEST PUSH1 0x0 PUSH1 0x2 DUP3 DIV SWAP1 POP PUSH1 0x1 DUP3 AND DUP1 PUSH3 0x104 JUMPI PUSH1 0x7F DUP3 AND SWAP2 POP JUMPDEST PUSH1 0x20 DUP3 LT DUP2 SUB PUSH3 0x11A JUMPI PUSH3 0x119 PUSH3 0xBC JUMP JUMPDEST JUMPDEST POP SWAP2 SWAP1 POP JUMP JUMPDEST PUSH1 0x0 DUP2 SWAP1 POP DUP2 PUSH1 0x0 MSTORE PUSH1 0x20 PUSH1 0x0 KECCAK256 SWAP1 POP SWAP2 SWAP1 POP JUMP JUMPDEST PUSH1 0x0 PUSH1 0x20 PUSH1 0x1F DUP4 ADD DIV SWAP1 POP SWAP2 SWAP1 POP JUMP JUMPDEST PUSH1 0x0 DUP3 DUP3 SHL SWAP1 POP SWAP3 SWAP2 POP POP JUMP JUMPDEST PUSH1 0x0 PUSH1 0x8 DUP4 MUL PUSH3 0x184 PUSH32 0xFFFFFFFFFFFFFFFFFFFFFFFFFFFFFFFFFFFFFFFFFFFFFFFFFFFFFFFFFFFFFFFF DUP3 PUSH3 0x145 JUMP JUMPDEST PUSH3 0x190 DUP7 DUP4 PUSH3 0x145 JUMP JUMPDEST SWAP6 POP DUP1 NOT DUP5 AND SWAP4 POP DUP1 DUP7 AND DUP5 OR SWAP3 POP POP POP SWAP4 SWAP3 POP POP POP JUMP JUMPDEST PUSH1 0x0 DUP2 SWAP1 POP SWAP2 SWAP1 POP JUMP JUMPDEST PUSH1 0x0 DUP2 SWAP1 POP SWAP2 SWAP1 POP JUMP JUMPDEST PUSH1 0x0 PUSH3 0x1DD PUSH3 0x1D7 PUSH3 0x1D1 DUP5 PUSH3 0x1A8 JUMP JUMPDEST PUSH3 0x1B2 JUMP JUMPDEST PUSH3 0x1A8 JUMP JUMPDEST SWAP1 POP SWAP2 SWAP1 POP JUMP JUMPDEST PUSH1 0x0 DUP2 SWAP1 POP SWAP2 SWAP1 POP JUMP JUMPDEST PUSH3 0x1F9 DUP4 PUSH3 0x1BC JUMP JUMPDEST PUSH3 0x211 PUSH3 0x208 DUP3 PUSH3 0x1E4 JUMP JUMPDEST DUP5 DUP5 SLOAD PUSH3 0x152 JUMP JUMPDEST DUP3 SSTORE POP POP POP POP JUMP JUMPDEST PUSH1 0x0 SWAP1 JUMP JUMPDEST PUSH3 0x228 PUSH3 0x219 JUMP JUMPDEST PUSH3 0x235 DUP2 DUP5 DUP5 PUSH3 0x1EE JUMP JUMPDEST POP POP POP JUMP JUMPDEST JUMPDEST DUP2 DUP2 LT ISZERO PUSH3 0x25D JUMPI PUSH3 0x251 PUSH1 0x0 DUP3 PUSH3 0x21E JUMP JUMPDEST PUSH1 0x1 DUP2 ADD SWAP1 POP PUSH3 0x23B JUMP JUMPDEST POP POP JUMP JUMPDEST PUSH1 0x1F DUP3 GT ISZERO PUSH3 0x2AC JUMPI PUSH3 0x276 DUP2 PUSH3 0x120 JUMP JUMPDEST PUSH3 0x281 DUP5 PUSH3 0x135 JUMP JUMPDEST DUP2 ADD PUSH1 0x20 DUP6 LT ISZERO PUSH3 0x291 JUMPI DUP2 SWAP1 POP JUMPDEST PUSH3 0x2A9 PUSH3 0x2A0 DUP6 PUSH3 0x135 JUMP JUMPDEST DUP4 ADD DUP3 PUSH3 0x23A JUMP JUMPDEST POP POP JUMPDEST POP POP POP JUMP JUMPDEST PUSH1 0x0 DUP3 DUP3 SHR SWAP1 POP SWAP3 SWAP2 POP POP JUMP JUMPDEST PUSH1 0x0 PUSH3 0x2D1 PUSH1 0x0 NOT DUP5 PUSH1 0x8 MUL PUSH3 0x2B1 JUMP JUMPDEST NOT DUP1 DUP4 AND SWAP2 POP POP SWAP3 SWAP2 POP POP JUMP JUMPDEST PUSH1 0x0 PUSH3 0x2EC DUP4 DUP4 PUSH3 0x2BE JUMP JUMPDEST SWAP2 POP DUP3 PUSH1 0x2 MUL DUP3 OR SWAP1 POP SWAP3 SWAP2 POP POP JUMP JUMPDEST PUSH3 0x307 DUP3 PUSH3 0x82 JUMP JUMPDEST PUSH8 0xFFFFFFFFFFFFFFFF DUP2 GT ISZERO PUSH3 0x323 JUMPI PUSH3 0x322 PUSH3 0x8D JUMP JUMPDEST JUMPDEST PUSH3 0x32F DUP3 SLOAD PUSH3 0xEB JUMP JUMPDEST PUSH3 0x33C DUP3 DUP3 DUP6 PUSH3 0x261 JUMP JUMPDEST PUSH1 0x0 PUSH1 0x20 SWAP1 POP PUSH1 0x1F DUP4 GT PUSH1 0x1 DUP2 EQ PUSH3 0x374 JUMPI PUSH1 0x0 DUP5 ISZERO PUSH3 0x35F JUMPI DUP3 DUP8 ADD MLOAD SWAP1 POP JUMPDEST PUSH3 0x36B DUP6 DUP3 PUSH3 0x2DE JUMP JUMPDEST DUP7 SSTORE POP PUSH3 0x3DB JUMP JUMPDEST PUSH1 0x1F NOT DUP5 AND PUSH3 0x384 DUP7 PUSH3 0x120 JUMP JUMPDEST PUSH1 0x0 JUMPDEST DUP3 DUP2 LT ISZERO PUSH3 0x3AE JUMPI DUP5 DUP10 ADD MLOAD DUP3 SSTORE PUSH1 0x1 DUP3 ADD SWAP2 POP PUSH1 0x20 DUP6 ADD SWAP5 POP PUSH1 0x20 DUP2 ADD SWAP1 POP PUSH3 0x387 JUMP JUMPDEST DUP7 DUP4 LT ISZERO PUSH3 0x3CE JUMPI DUP5 DUP10 ADD MLOAD PUSH3 0x3CA PUSH1 0x1F DUP10 AND DUP3 PUSH3 0x2BE JUMP JUMPDEST DUP4 SSTORE POP JUMPDEST PUSH1 0x1 PUSH1 0x2 DUP9 MUL ADD DUP9 SSTORE POP POP POP JUMPDEST POP POP POP POP POP POP JUMP JUMPDEST PUSH2 0x29D9 DUP1 PUSH3 0x3F3 PUSH1 0x0 CODECOPY PUSH1 0x0 RETURN INVALID PUSH1 0x80 PUSH1 0x40 MSTORE PUSH1 0x4 CALLDATASIZE LT PUSH2 0x118 JUMPI PUSH1 0x0 CALLDATALOAD PUSH1 0xE0 SHR DUP1 PUSH4 0x53DB7E77 GT PUSH2 0xA0 JUMPI DUP1 PUSH4 0x9F4216E8 GT PUSH2 0x64 JUMPI DUP1 PUSH4 0x9F4216E8 EQ PUSH2 0x489 JUMPI DUP1 PUSH4 0xC5EE74EB EQ PUSH2 0x4C6 JUMPI DUP1 PUSH4 0xCB61BD8C EQ PUSH2 0x4D0 JUMPI DUP1 PUSH4 0xDC070671 EQ PUSH2 0x4FB JUMPI DUP1 PUSH4 0xFA52C7D8 EQ PUSH2 0x505 JUMPI PUSH2 0x1A0 JUMP JUMPDEST DUP1 PUSH4 0x53DB7E77 EQ PUSH2 0x39F JUMPI DUP1 PUSH4 0x6694BA61 EQ PUSH2 0x3CA JUMPI DUP1 PUSH4 0x72E24FDD EQ PUSH2 0x3F5 JUMPI DUP1 PUSH4 0x73A8B6C8 EQ PUSH2 0x420 JUMPI DUP1 PUSH4 0x860734FB EQ PUSH2 0x449 JUMPI PUSH2 0x1A0 JUMP JUMPDEST DUP1 PUSH4 0x194A4E7E GT PUSH2 0xE7 JUMPI DUP1 PUSH4 0x194A4E7E EQ PUSH2 0x2CC JUMPI DUP1 PUSH4 0x1B2D6A7C EQ PUSH2 0x2F7 JUMPI DUP1 PUSH4 0x2B4E8413 EQ PUSH2 0x320 JUMPI DUP1 PUSH4 0x455C928C EQ PUSH2 0x34B JUMPI DUP1 PUSH4 0x53241B4F EQ PUSH2 0x362 JUMPI PUSH2 0x1A0 JUMP JUMPDEST DUP1 PUSH4 0xB4805D3 EQ PUSH2 0x20E JUMPI DUP1 PUSH4 0xB85000D EQ PUSH2 0x24B JUMPI DUP1 PUSH4 0xED337AD EQ PUSH2 0x276 JUMPI DUP1 PUSH4 0x139F29A1 EQ PUSH2 0x2A1 JUMPI PUSH2 0x1A0 JUMP JUMPDEST CALLDATASIZE PUSH2 0x1A0 JUMPI PUSH2 0x131 PUSH8 0xA15AAF0BBFCB4438 PUSH1 0xC0 SHL PUSH2 0x544 JUMP JUMPDEST PUSH2 0x145 PUSH8 0xFE6683A37682B9BE PUSH1 0xC0 SHL PUSH2 0x544 JUMP JUMPDEST PUSH2 0xC350 CALLVALUE LT ISZERO PUSH2 0x18A JUMPI PUSH1 0x40 MLOAD PUSH32 0x8C379A000000000000000000000000000000000000000000000000000000000 DUP2 MSTORE PUSH1 0x4 ADD PUSH2 0x181 SWAP1 PUSH2 0x1EC8 JUMP JUMPDEST PUSH1 0x40 MLOAD DUP1 SWAP2 SUB SWAP1 REVERT JUMPDEST PUSH2 0x19E PUSH8 0x9143A76A5E0BFA07 PUSH1 0xC0 SHL PUSH2 0x544 JUMP JUMPDEST STOP JUMPDEST PUSH2 0x1B4 PUSH8 0xA740B0399EA588AC PUSH1 0xC0 SHL PUSH2 0x544 JUMP JUMPDEST PUSH2 0x1C8 PUSH8 0x55C6FB07053BDCD5 PUSH1 0xC0 SHL PUSH2 0x544 JUMP JUMPDEST PUSH1 0x40 MLOAD DUP1 PUSH1 0x40 ADD PUSH1 0x40 MSTORE DUP1 PUSH1 0x1E DUP2 MSTORE PUSH1 0x20 ADD PUSH32 0x46616C6C6261636B2066756E6374696F6E206973206578656375746564210000 DUP2 MSTORE POP PUSH1 0x0 SWAP1 DUP2 PUSH2 0x20C SWAP2 SWAP1 PUSH2 0x2138 JUMP JUMPDEST STOP JUMPDEST CALLVALUE DUP1 ISZERO PUSH2 0x21A JUMPI PUSH1 0x0 DUP1 REVERT JUMPDEST POP PUSH2 0x235 PUSH1 0x4 DUP1 CALLDATASIZE SUB DUP2 ADD SWAP1 PUSH2 0x230 SWAP2 SWAP1 PUSH2 0x226D JUMP JUMPDEST PUSH2 0x547 JUMP JUMPDEST PUSH1 0x40 MLOAD PUSH2 0x242 SWAP2 SWAP1 PUSH2 0x22A9 JUMP JUMPDEST PUSH1 0x40 MLOAD DUP1 SWAP2 SUB SWAP1 RETURN JUMPDEST CALLVALUE DUP1 ISZERO PUSH2 0x257 JUMPI PUSH1 0x0 DUP1 REVERT JUMPDEST POP PUSH2 0x260 PUSH2 0x55F JUMP JUMPDEST PUSH1 0x40 MLOAD PUSH2 0x26D SWAP2 SWAP1 PUSH2 0x22A9 JUMP JUMPDEST PUSH1 0x40 MLOAD DUP1 SWAP2 SUB SWAP1 RETURN JUMPDEST CALLVALUE DUP1 ISZERO PUSH2 0x282 JUMPI PUSH1 0x0 DUP1 REVERT JUMPDEST POP PUSH2 0x28B PUSH2 0x565 JUMP JUMPDEST PUSH1 0x40 MLOAD PUSH2 0x298 SWAP2 SWAP1 PUSH2 0x22A9 JUMP JUMPDEST PUSH1 0x40 MLOAD DUP1 SWAP2 SUB SWAP1 RETURN JUMPDEST CALLVALUE DUP1 ISZERO PUSH2 0x2AD JUMPI PUSH1 0x0 DUP1 REVERT JUMPDEST POP PUSH2 0x2B6 PUSH2 0x56B JUMP JUMPDEST PUSH1 0x40 MLOAD PUSH2 0x2C3 SWAP2 SWAP1 PUSH2 0x22A9 JUMP JUMPDEST PUSH1 0x40 MLOAD DUP1 SWAP2 SUB SWAP1 RETURN JUMPDEST CALLVALUE DUP1 ISZERO PUSH2 0x2D8 JUMPI PUSH1 0x0 DUP1 REVERT JUMPDEST POP PUSH2 0x2E1 PUSH2 0x571 JUMP JUMPDEST PUSH1 0x40 MLOAD PUSH2 0x2EE SWAP2 SWAP1 PUSH2 0x22A9 JUMP JUMPDEST PUSH1 0x40 MLOAD DUP1 SWAP2 SUB SWAP1 RETURN JUMPDEST CALLVALUE DUP1 ISZERO PUSH2 0x303 JUMPI PUSH1 0x0 DUP1 REVERT JUMPDEST POP PUSH2 0x31E PUSH1 0x4 DUP1 CALLDATASIZE SUB DUP2 ADD SWAP1 PUSH2 0x319 SWAP2 SWAP1 PUSH2 0x2315 JUMP JUMPDEST PUSH2 0x577 JUMP JUMPDEST STOP JUMPDEST CALLVALUE DUP1 ISZERO PUSH2 0x32C JUMPI PUSH1 0x0 DUP1 REVERT JUMPDEST POP PUSH2 0x335 PUSH2 0x7A3 JUMP JUMPDEST PUSH1 0x40 MLOAD PUSH2 0x342 SWAP2 SWAP1 PUSH2 0x22A9 JUMP JUMPDEST PUSH1 0x40 MLOAD DUP1 SWAP2 SUB SWAP1 RETURN JUMPDEST CALLVALUE DUP1 ISZERO PUSH2 0x357 JUMPI PUSH1 0x0 DUP1 REVERT JUMPDEST POP PUSH2 0x360 PUSH2 0x7A9 JUMP JUMPDEST STOP JUMPDEST CALLVALUE DUP1 ISZERO PUSH2 0x36E JUMPI PUSH1 0x0 DUP1 REVERT JUMPDEST POP PUSH2 0x389 PUSH1 0x4 DUP1 CALLDATASIZE SUB DUP2 ADD SWAP1 PUSH2 0x384 SWAP2 SWAP1 PUSH2 0x2355 JUMP JUMPDEST PUSH2 0x9D5 JUMP JUMPDEST PUSH1 0x40 MLOAD PUSH2 0x396 SWAP2 SWAP1 PUSH2 0x239D JUMP JUMPDEST PUSH1 0x40 MLOAD DUP1 SWAP2 SUB SWAP1 RETURN JUMPDEST CALLVALUE DUP1 ISZERO PUSH2 0x3AB JUMPI PUSH1 0x0 DUP1 REVERT JUMPDEST POP PUSH2 0x3B4 PUSH2 0xA7B JUMP JUMPDEST PUSH1 0x40 MLOAD PUSH2 0x3C1 SWAP2 SWAP1 PUSH2 0x22A9 JUMP JUMPDEST PUSH1 0x40 MLOAD DUP1 SWAP2 SUB SWAP1 RETURN JUMPDEST CALLVALUE DUP1 ISZERO PUSH2 0x3D6 JUMPI PUSH1 0x0 DUP1 REVERT JUMPDEST POP PUSH2 0x3DF PUSH2 0xA81 JUMP JUMPDEST PUSH1 0x40 MLOAD PUSH2 0x3EC SWAP2 SWAP1 PUSH2 0x22A9 JUMP JUMPDEST PUSH1 0x40 MLOAD DUP1 SWAP2 SUB SWAP1 RETURN JUMPDEST CALLVALUE DUP1 ISZERO PUSH2 0x401 JUMPI PUSH1 0x0 DUP1 REVERT JUMPDEST POP PUSH2 0x40A PUSH2 0xA87 JUMP JUMPDEST PUSH1 0x40 MLOAD PUSH2 0x417 SWAP2 SWAP1 PUSH2 0x22A9 JUMP JUMPDEST PUSH1 0x40 MLOAD DUP1 SWAP2 SUB SWAP1 RETURN JUMPDEST CALLVALUE DUP1 ISZERO PUSH2 0x42C JUMPI PUSH1 0x0 DUP1 REVERT JUMPDEST POP PUSH2 0x447 PUSH1 0x4 DUP1 CALLDATASIZE SUB DUP2 ADD SWAP1 PUSH2 0x442 SWAP2 SWAP1 PUSH2 0x23B8 JUMP JUMPDEST PUSH2 0xA8D JUMP JUMPDEST STOP JUMPDEST CALLVALUE DUP1 ISZERO PUSH2 0x455 JUMPI PUSH1 0x0 DUP1 REVERT JUMPDEST POP PUSH2 0x470 PUSH1 0x4 DUP1 CALLDATASIZE SUB DUP2 ADD SWAP1 PUSH2 0x46B SWAP2 SWAP1 PUSH2 0x2355 JUMP JUMPDEST PUSH2 0x1091 JUMP JUMPDEST PUSH1 0x40 MLOAD PUSH2 0x480 SWAP5 SWAP4 SWAP3 SWAP2 SWAP1 PUSH2 0x246F JUMP JUMPDEST PUSH1 0x40 MLOAD DUP1 SWAP2 SUB SWAP1 RETURN JUMPDEST CALLVALUE DUP1 ISZERO PUSH2 0x495 JUMPI PUSH1 0x0 DUP1 REVERT JUMPDEST POP PUSH2 0x4B0 PUSH1 0x4 DUP1 CALLDATASIZE SUB DUP2 ADD SWAP1 PUSH2 0x4AB SWAP2 SWAP1 PUSH2 0x2355 JUMP JUMPDEST PUSH2 0x10CE JUMP JUMPDEST PUSH1 0x40 MLOAD PUSH2 0x4BD SWAP2 SWAP1 PUSH2 0x24C3 JUMP JUMPDEST PUSH1 0x40 MLOAD DUP1 SWAP2 SUB SWAP1 RETURN JUMPDEST PUSH2 0x4CE PUSH2 0x1101 JUMP JUMPDEST STOP JUMPDEST CALLVALUE DUP1 ISZERO PUSH2 0x4DC JUMPI PUSH1 0x0 DUP1 REVERT JUMPDEST POP PUSH2 0x4E5 PUSH2 0x146F JUMP JUMPDEST PUSH1 0x40 MLOAD PUSH2 0x4F2 SWAP2 SWAP1 PUSH2 0x22A9 JUMP JUMPDEST PUSH1 0x40 MLOAD DUP1 SWAP2 SUB SWAP1 RETURN JUMPDEST PUSH2 0x503 PUSH2 0x1475 JUMP JUMPDEST STOP JUMPDEST CALLVALUE DUP1 ISZERO PUSH2 0x511 JUMPI PUSH1 0x0 DUP1 REVERT JUMPDEST POP PUSH2 0x52C PUSH1 0x4 DUP1 CALLDATASIZE SUB DUP2 ADD SWAP1 PUSH2 0x527 SWAP2 SWAP1 PUSH2 0x226D JUMP JUMPDEST PUSH2 0x1973 JUMP JUMPDEST PUSH1 0x40 MLOAD PUSH2 0x53B SWAP4 SWAP3 SWAP2 SWAP1 PUSH2 0x24FF JUMP JUMPDEST PUSH1 0x40 MLOAD DUP1 SWAP2 SUB SWAP1 RETURN JUMPDEST POP JUMP JUMPDEST PUSH1 0xD PUSH1 0x20 MSTORE DUP1 PUSH1 0x0 MSTORE PUSH1 0x40 PUSH1 0x0 KECCAK256 PUSH1 0x0 SWAP2 POP SWAP1 POP SLOAD DUP2 JUMP JUMPDEST PUSH1 0x4 SLOAD DUP2 JUMP JUMPDEST PUSH1 0x9 SLOAD DUP2 JUMP JUMPDEST PUSH1 0x8 SLOAD DUP2 JUMP JUMPDEST PUSH1 0x2 SLOAD DUP2 JUMP JUMPDEST PUSH2 0x58B PUSH8 0xDB4D5F2E879E39D0 PUSH1 0xC0 SHL PUSH2 0x544 JUMP JUMPDEST PUSH2 0x59F PUSH8 0xD128787DB894D254 PUSH1 0xC0 SHL PUSH2 0x544 JUMP JUMPDEST PUSH2 0x5B3 PUSH8 0xE184F23922037A0E PUSH1 0xC0 SHL PUSH2 0x544 JUMP JUMPDEST PUSH2 0x5C7 PUSH8 0xCB1A2E565054844A PUSH1 0xC0 SHL PUSH2 0x544 JUMP JUMPDEST CALLER PUSH20 0xFFFFFFFFFFFFFFFFFFFFFFFFFFFFFFFFFFFFFFFF AND PUSH1 0xB PUSH1 0x0 CALLER PUSH20 0xFFFFFFFFFFFFFFFFFFFFFFFFFFFFFFFFFFFFFFFF AND PUSH20 0xFFFFFFFFFFFFFFFFFFFFFFFFFFFFFFFFFFFFFFFF AND DUP2 MSTORE PUSH1 0x20 ADD SWAP1 DUP2 MSTORE PUSH1 0x20 ADD PUSH1 0x0 KECCAK256 PUSH1 0x0 ADD PUSH1 0x0 SWAP1 SLOAD SWAP1 PUSH2 0x100 EXP SWAP1 DIV PUSH20 0xFFFFFFFFFFFFFFFFFFFFFFFFFFFFFFFFFFFFFFFF AND PUSH20 0xFFFFFFFFFFFFFFFFFFFFFFFFFFFFFFFFFFFFFFFF AND EQ PUSH2 0x6B6 JUMPI PUSH2 0x670 PUSH8 0xE66ACE9D32E7C0C1 PUSH1 0xC0 SHL PUSH2 0x544 JUMP JUMPDEST PUSH2 0x684 PUSH8 0xA614531CC29EA754 PUSH1 0xC0 SHL PUSH2 0x544 JUMP JUMPDEST PUSH1 0x40 MLOAD PUSH32 0xEC752D2A00000000000000000000000000000000000000000000000000000000 DUP2 MSTORE PUSH1 0x4 ADD PUSH1 0x40 MLOAD DUP1 SWAP2 SUB SWAP1 REVERT JUMPDEST PUSH2 0x6CA PUSH8 0x42220E1CF1A9492C PUSH1 0xC0 SHL PUSH2 0x544 JUMP JUMPDEST PUSH2 0x6DE PUSH8 0xF5B4CF851B722A2B PUSH1 0xC0 SHL PUSH2 0x544 JUMP JUMPDEST PUSH2 0x6F2 PUSH8 0x308CA2C36B55225E PUSH1 0xC0 SHL PUSH2 0x544 JUMP JUMPDEST PUSH2 0x706 PUSH8 0xCEC3FE638A40899A PUSH1 0xC0 SHL PUSH2 0x544 JUMP JUMPDEST PUSH2 0x71A PUSH8 0xFEED15E9668B292C PUSH1 0xC0 SHL PUSH2 0x544 JUMP JUMPDEST DUP2 PUSH1 0xA PUSH1 0x0 PUSH1 0x9 SLOAD DUP2 MSTORE PUSH1 0x20 ADD SWAP1 DUP2 MSTORE PUSH1 0x20 ADD PUSH1 0x0 KECCAK256 PUSH1 0x0 ADD PUSH1 0x0 PUSH2 0x100 EXP DUP2 SLOAD DUP2 PUSH1 0xFF MUL NOT AND SWAP1 DUP4 PUSH1 0x5 DUP2 GT ISZERO PUSH2 0x755 JUMPI PUSH2 0x754 PUSH2 0x23F8 JUMP JUMPDEST JUMPDEST MUL OR SWAP1 SSTORE POP PUSH2 0x76E PUSH8 0x51E909A117112D3C PUSH1 0xC0 SHL PUSH2 0x544 JUMP JUMPDEST DUP1 PUSH1 0xA PUSH1 0x0 PUSH1 0x9 PUSH1 0x0 DUP2 SLOAD DUP1 SWAP3 SWAP2 SWAP1 PUSH2 0x786 SWAP1 PUSH2 0x2565 JUMP JUMPDEST SWAP2 SWAP1 POP SSTORE DUP2 MSTORE PUSH1 0x20 ADD SWAP1 DUP2 MSTORE PUSH1 0x20 ADD PUSH1 0x0 KECCAK256 PUSH1 0x3 ADD DUP2 SWAP1 SSTORE POP POP POP JUMP JUMPDEST PUSH1 0x7 SLOAD DUP2 JUMP JUMPDEST PUSH2 0x7BD PUSH8 0x2E5230BA4A0A8A85 PUSH1 0xC0 SHL PUSH2 0x544 JUMP JUMPDEST PUSH2 0x7D1 PUSH8 0x7E15E77C9221F6C4 PUSH1 0xC0 SHL PUSH2 0x544 JUMP JUMPDEST PUSH2 0x7E5 PUSH8 0x9CFB8565E2A2512 PUSH1 0xC0 SHL PUSH2 0x544 JUMP JUMPDEST PUSH2 0x7F9 PUSH8 0x394DAD0379FB5FFB PUSH1 0xC0 SHL PUSH2 0x544 JUMP JUMPDEST PUSH1 0x0 PUSH1 0xD PUSH1 0x0 CALLER PUSH20 0xFFFFFFFFFFFFFFFFFFFFFFFFFFFFFFFFFFFFFFFF AND PUSH20 0xFFFFFFFFFFFFFFFFFFFFFFFFFFFFFFFFFFFFFFFF AND DUP2 MSTORE PUSH1 0x20 ADD SWAP1 DUP2 MSTORE PUSH1 0x20 ADD PUSH1 0x0 KECCAK256 SLOAD EQ PUSH2 0x87B JUMPI PUSH1 0x40 MLOAD PUSH32 0x8C379A000000000000000000000000000000000000000000000000000000000 DUP2 MSTORE PUSH1 0x4 ADD PUSH2 0x872 SWAP1 PUSH2 0x25F9 JUMP JUMPDEST PUSH1 0x40 MLOAD DUP1 SWAP2 SUB SWAP1 REVERT JUMPDEST PUSH2 0x88F PUSH8 0xC592C5F5DB7E06EB PUSH1 0xC0 SHL PUSH2 0x544 JUMP JUMPDEST PUSH2 0x8A2 PUSH7 0xA266C5110F12A PUSH1 0xC0 SHL PUSH2 0x544 JUMP JUMPDEST PUSH1 0x7 SLOAD PUSH1 0xD PUSH1 0x0 CALLER PUSH20 0xFFFFFFFFFFFFFFFFFFFFFFFFFFFFFFFFFFFFFFFF AND PUSH20 0xFFFFFFFFFFFFFFFFFFFFFFFFFFFFFFFFFFFFFFFF AND DUP2 MSTORE PUSH1 0x20 ADD SWAP1 DUP2 MSTORE PUSH1 0x20 ADD PUSH1 0x0 KECCAK256 DUP2 SWAP1 SSTORE POP PUSH2 0x8FC PUSH8 0x1267D372323F7BA6 PUSH1 0xC0 SHL PUSH2 0x544 JUMP JUMPDEST CALLER PUSH1 0xC PUSH1 0x0 PUSH1 0x7 PUSH1 0x0 DUP2 SLOAD DUP1 SWAP3 SWAP2 SWAP1 PUSH2 0x914 SWAP1 PUSH2 0x2565 JUMP JUMPDEST SWAP2 SWAP1 POP SSTORE DUP2 MSTORE PUSH1 0x20 ADD SWAP1 DUP2 MSTORE PUSH1 0x20 ADD PUSH1 0x0 KECCAK256 PUSH1 0x0 PUSH2 0x100 EXP DUP2 SLOAD DUP2 PUSH20 0xFFFFFFFFFFFFFFFFFFFFFFFFFFFFFFFFFFFFFFFF MUL NOT AND SWAP1 DUP4 PUSH20 0xFFFFFFFFFFFFFFFFFFFFFFFFFFFFFFFFFFFFFFFF AND MUL OR SWAP1 SSTORE POP PUSH2 0x978 PUSH8 0x48DA7AE8482148E6 PUSH1 0xC0 SHL PUSH2 0x544 JUMP JUMPDEST PUSH2 0x98C PUSH8 0x8610C3982BE03D1A PUSH1 0xC0 SHL PUSH2 0x544 JUMP JUMPDEST PUSH32 0xF9AC505B144A1879609B52F02D3441E478CDD9C19C5D198A2712AC5184ECEF67 CALLER PUSH1 0x1 PUSH1 0x7 SLOAD PUSH2 0x9BD SWAP2 SWAP1 PUSH2 0x2619 JUMP JUMPDEST PUSH1 0x40 MLOAD PUSH2 0x9CB SWAP3 SWAP2 SWAP1 PUSH2 0x264D JUMP JUMPDEST PUSH1 0x40 MLOAD DUP1 SWAP2 SUB SWAP1 LOG1 JUMP JUMPDEST PUSH1 0x0 PUSH2 0x9EB PUSH8 0xC7ED9156DAD3070C PUSH1 0xC0 SHL PUSH2 0x544 JUMP JUMPDEST PUSH2 0x9FF PUSH8 0xE2287E9255D683A3 PUSH1 0xC0 SHL PUSH2 0x544 JUMP JUMPDEST PUSH2 0xA13 PUSH8 0x8EDAD1148E0D446B PUSH1 0xC0 SHL PUSH2 0x544 JUMP JUMPDEST PUSH1 0xA PUSH1 0x0 DUP4 DUP2 MSTORE PUSH1 0x20 ADD SWAP1 DUP2 MSTORE PUSH1 0x20 ADD PUSH1 0x0 KECCAK256 PUSH1 0x4 ADD PUSH1 0x0 CALLER PUSH20 0xFFFFFFFFFFFFFFFFFFFFFFFFFFFFFFFFFFFFFFFF AND PUSH20 0xFFFFFFFFFFFFFFFFFFFFFFFFFFFFFFFFFFFFFFFF AND DUP2 MSTORE PUSH1 0x20 ADD SWAP1 DUP2 MSTORE PUSH1 0x20 ADD PUSH1 0x0 KECCAK256 PUSH1 0x0 SWAP1 SLOAD SWAP1 PUSH2 0x100 EXP SWAP1 DIV PUSH1 0xFF AND SWAP1 POP SWAP2 SWAP1 POP JUMP JUMPDEST PUSH1 0x1 SLOAD DUP2 JUMP JUMPDEST PUSH1 0x3 SLOAD DUP2 JUMP JUMPDEST PUSH1 0x6 SLOAD DUP2 JUMP JUMPDEST PUSH2 0xAA1 PUSH8 0x2F9E5A5558CBEE32 PUSH1 0xC0 SHL PUSH2 0x544 JUMP JUMPDEST PUSH2 0xAB5 PUSH8 0xD128787DB894D254 PUSH1 0xC0 SHL PUSH2 0x544 JUMP JUMPDEST PUSH2 0xAC9 PUSH8 0xE184F23922037A0E PUSH1 0xC0 SHL PUSH2 0x544 JUMP JUMPDEST PUSH2 0xADD PUSH8 0xCB1A2E565054844A PUSH1 0xC0 SHL PUSH2 0x544 JUMP JUMPDEST CALLER PUSH20 0xFFFFFFFFFFFFFFFFFFFFFFFFFFFFFFFFFFFFFFFF AND PUSH1 0xB PUSH1 0x0 CALLER PUSH20 0xFFFFFFFFFFFFFFFFFFFFFFFFFFFFFFFFFFFFFFFF AND PUSH20 0xFFFFFFFFFFFFFFFFFFFFFFFFFFFFFFFFFFFFFFFF AND DUP2 MSTORE PUSH1 0x20 ADD SWAP1 DUP2 MSTORE PUSH1 0x20 ADD PUSH1 0x0 KECCAK256 PUSH1 0x0 ADD PUSH1 0x0 SWAP1 SLOAD SWAP1 PUSH2 0x100 EXP SWAP1 DIV PUSH20 0xFFFFFFFFFFFFFFFFFFFFFFFFFFFFFFFFFFFFFFFF AND PUSH20 0xFFFFFFFFFFFFFFFFFFFFFFFFFFFFFFFFFFFFFFFF AND EQ PUSH2 0xBCC JUMPI PUSH2 0xB86 PUSH8 0xE66ACE9D32E7C0C1 PUSH1 0xC0 SHL PUSH2 0x544 JUMP JUMPDEST PUSH2 0xB9A PUSH8 0xA614531CC29EA754 PUSH1 0xC0 SHL PUSH2 0x544 JUMP JUMPDEST PUSH1 0x40 MLOAD PUSH32 0xEC752D2A00000000000000000000000000000000000000000000000000000000 DUP2 MSTORE PUSH1 0x4 ADD PUSH1 0x40 MLOAD DUP1 SWAP2 SUB SWAP1 REVERT JUMPDEST PUSH2 0xBE0 PUSH8 0x42220E1CF1A9492C PUSH1 0xC0 SHL PUSH2 0x544 JUMP JUMPDEST PUSH2 0xBF4 PUSH8 0xF5B4CF851B722A2B PUSH1 0xC0 SHL PUSH2 0x544 JUMP JUMPDEST PUSH2 0xC08 PUSH8 0x1DFBD9162729F0D2 PUSH1 0xC0 SHL PUSH2 0x544 JUMP JUMPDEST PUSH2 0xC1C PUSH8 0xC6E19879B04F2C59 PUSH1 0xC0 SHL PUSH2 0x544 JUMP JUMPDEST PUSH2 0xC30 PUSH8 0x76F2A2B33CCBB265 PUSH1 0xC0 SHL PUSH2 0x544 JUMP JUMPDEST PUSH2 0xC44 PUSH8 0x1AA8C0D9FD302AEA PUSH1 0xC0 SHL PUSH2 0x544 JUMP JUMPDEST PUSH2 0xC58 PUSH8 0xDCB76502AD760296 PUSH1 0xC0 SHL PUSH2 0x544 JUMP JUMPDEST PUSH1 0x0 ISZERO ISZERO PUSH1 0xA PUSH1 0x0 DUP5 DUP2 MSTORE PUSH1 0x20 ADD SWAP1 DUP2 MSTORE PUSH1 0x20 ADD PUSH1 0x0 KECCAK256 PUSH1 0x4 ADD PUSH1 0x0 CALLER PUSH20 0xFFFFFFFFFFFFFFFFFFFFFFFFFFFFFFFFFFFFFFFF AND PUSH20 0xFFFFFFFFFFFFFFFFFFFFFFFFFFFFFFFFFFFFFFFF AND DUP2 MSTORE PUSH1 0x20 ADD SWAP1 DUP2 MSTORE PUSH1 0x20 ADD PUSH1 0x0 KECCAK256 PUSH1 0x0 SWAP1 SLOAD SWAP1 PUSH2 0x100 EXP SWAP1 DIV PUSH1 0xFF AND ISZERO ISZERO EQ PUSH2 0xCFF JUMPI PUSH1 0x40 MLOAD PUSH32 0x8C379A000000000000000000000000000000000000000000000000000000000 DUP2 MSTORE PUSH1 0x4 ADD PUSH2 0xCF6 SWAP1 PUSH2 0x26C2 JUMP JUMPDEST PUSH1 0x40 MLOAD DUP1 SWAP2 SUB SWAP1 REVERT JUMPDEST PUSH2 0xD13 PUSH8 0xCEE68A04A349556D PUSH1 0xC0 SHL PUSH2 0x544 JUMP JUMPDEST PUSH2 0xD27 PUSH8 0x3AF5BC2F559738FF PUSH1 0xC0 SHL PUSH2 0x544 JUMP JUMPDEST PUSH2 0xD3B PUSH8 0xC7A41FA2204B46E3 PUSH1 0xC0 SHL PUSH2 0x544 JUMP JUMPDEST PUSH1 0x1 DUP2 SUB PUSH2 0xD9C JUMPI PUSH2 0xD57 PUSH8 0xA139AB45D3792C87 PUSH1 0xC0 SHL PUSH2 0x544 JUMP JUMPDEST PUSH2 0xD6B PUSH8 0x5E172F339E4652EF PUSH1 0xC0 SHL PUSH2 0x544 JUMP JUMPDEST PUSH1 0xA PUSH1 0x0 DUP4 DUP2 MSTORE PUSH1 0x20 ADD SWAP1 DUP2 MSTORE PUSH1 0x20 ADD PUSH1 0x0 KECCAK256 PUSH1 0x1 ADD PUSH1 0x0 DUP2 SLOAD DUP1 SWAP3 SWAP2 SWAP1 PUSH2 0xD92 SWAP1 PUSH2 0x2565 JUMP JUMPDEST SWAP2 SWAP1 POP SSTORE POP PUSH2 0xE3B JUMP JUMPDEST PUSH2 0xDB0 PUSH8 0xF505C9B75F45F684 PUSH1 0xC0 SHL PUSH2 0x544 JUMP JUMPDEST PUSH2 0xDC4 PUSH8 0x3B9D201C6E23FC8B PUSH1 0xC0 SHL PUSH2 0x544 JUMP JUMPDEST PUSH1 0x2 DUP2 SUB PUSH2 0xE25 JUMPI PUSH2 0xDE0 PUSH8 0x756B84D3FF88F914 PUSH1 0xC0 SHL PUSH2 0x544 JUMP JUMPDEST PUSH2 0xDF4 PUSH8 0x4B6C7C9854C10674 PUSH1 0xC0 SHL PUSH2 0x544 JUMP JUMPDEST PUSH1 0xA PUSH1 0x0 DUP4 DUP2 MSTORE PUSH1 0x20 ADD SWAP1 DUP2 MSTORE PUSH1 0x20 ADD PUSH1 0x0 KECCAK256 PUSH1 0x2 ADD PUSH1 0x0 DUP2 SLOAD DUP1 SWAP3 SWAP2 SWAP1 PUSH2 0xE1B SWAP1 PUSH2 0x2565 JUMP JUMPDEST SWAP2 SWAP1 POP SSTORE POP PUSH2 0xE3A JUMP JUMPDEST PUSH2 0xE39 PUSH8 0x70974AED5E7FABAC PUSH1 0xC0 SHL PUSH2 0x544 JUMP JUMPDEST JUMPDEST JUMPDEST PUSH2 0xE4F PUSH8 0xE00D5D12D1A51E4E PUSH1 0xC0 SHL PUSH2 0x544 JUMP JUMPDEST PUSH1 0x1 PUSH1 0xA PUSH1 0x0 DUP5 DUP2 MSTORE PUSH1 0x20 ADD SWAP1 DUP2 MSTORE PUSH1 0x20 ADD PUSH1 0x0 KECCAK256 PUSH1 0x4 ADD PUSH1 0x0 CALLER PUSH20 0xFFFFFFFFFFFFFFFFFFFFFFFFFFFFFFFFFFFFFFFF AND PUSH20 0xFFFFFFFFFFFFFFFFFFFFFFFFFFFFFFFFFFFFFFFF AND DUP2 MSTORE PUSH1 0x20 ADD SWAP1 DUP2 MSTORE PUSH1 0x20 ADD PUSH1 0x0 KECCAK256 PUSH1 0x0 PUSH2 0x100 EXP DUP2 SLOAD DUP2 PUSH1 0xFF MUL NOT AND SWAP1 DUP4 ISZERO ISZERO MUL OR SWAP1 SSTORE POP PUSH2 0xECF PUSH8 0x79034A807B8C808E PUSH1 0xC0 SHL PUSH2 0x544 JUMP JUMPDEST PUSH2 0xEE3 PUSH8 0x86B35554FD594373 PUSH1 0xC0 SHL PUSH2 0x544 JUMP JUMPDEST PUSH1 0x5 SLOAD PUSH1 0x8 SLOAD PUSH1 0x64 PUSH1 0xA PUSH1 0x0 DUP7 DUP2 MSTORE PUSH1 0x20 ADD SWAP1 DUP2 MSTORE PUSH1 0x20 ADD PUSH1 0x0 KECCAK256 PUSH1 0x1 ADD SLOAD PUSH2 0xF0C SWAP2 SWAP1 PUSH2 0x26E2 JUMP JUMPDEST PUSH2 0xF16 SWAP2 SWAP1 PUSH2 0x2753 JUMP JUMPDEST LT PUSH2 0xF9F JUMPI PUSH2 0xF2F PUSH8 0x76DEAA75C44473C5 PUSH1 0xC0 SHL PUSH2 0x544 JUMP JUMPDEST PUSH2 0xF43 PUSH8 0xDE36849B1B404F6C PUSH1 0xC0 SHL PUSH2 0x544 JUMP JUMPDEST PUSH2 0xF57 PUSH8 0x1ABCD73D20EECE63 PUSH1 0xC0 SHL PUSH2 0x544 JUMP JUMPDEST PUSH2 0xF9A PUSH1 0xA PUSH1 0x0 DUP5 DUP2 MSTORE PUSH1 0x20 ADD SWAP1 DUP2 MSTORE PUSH1 0x20 ADD PUSH1 0x0 KECCAK256 PUSH1 0x0 ADD PUSH1 0x0 SWAP1 SLOAD SWAP1 PUSH2 0x100 EXP SWAP1 DIV PUSH1 0xFF AND PUSH1 0xA PUSH1 0x0 DUP6 DUP2 MSTORE PUSH1 0x20 ADD SWAP1 DUP2 MSTORE PUSH1 0x20 ADD PUSH1 0x0 KECCAK256 PUSH1 0x3 ADD SLOAD PUSH2 0x19CA JUMP JUMPDEST PUSH2 0x108D JUMP JUMPDEST PUSH2 0xFB3 PUSH8 0x70B8792710EF0CEA PUSH1 0xC0 SHL PUSH2 0x544 JUMP JUMPDEST PUSH2 0xFC7 PUSH8 0x4079A66ED84DA989 PUSH1 0xC0 SHL PUSH2 0x544 JUMP JUMPDEST PUSH1 0x5 SLOAD PUSH1 0x8 SLOAD PUSH1 0x64 PUSH1 0xA PUSH1 0x0 DUP7 DUP2 MSTORE PUSH1 0x20 ADD SWAP1 DUP2 MSTORE PUSH1 0x20 ADD PUSH1 0x0 KECCAK256 PUSH1 0x2 ADD SLOAD PUSH2 0xFF0 SWAP2 SWAP1 PUSH2 0x26E2 JUMP JUMPDEST PUSH2 0xFFA SWAP2 SWAP1 PUSH2 0x2753 JUMP JUMPDEST LT PUSH2 0x1077 JUMPI PUSH2 0x1013 PUSH8 0xF4974313327C3ADB PUSH1 0xC0 SHL PUSH2 0x544 JUMP JUMPDEST PUSH2 0x1027 PUSH8 0x856EF94A9C69E23E PUSH1 0xC0 SHL PUSH2 0x544 JUMP JUMPDEST PUSH2 0x103B PUSH8 0xEAB327910D0E62B9 PUSH1 0xC0 SHL PUSH2 0x544 JUMP JUMPDEST PUSH32 0x91944425928AF46B7FE486868FBDD04CD88C32637B4C91612CAA1781C1B91F8C DUP3 PUSH1 0x40 MLOAD PUSH2 0x106A SWAP2 SWAP1 PUSH2 0x22A9 JUMP JUMPDEST PUSH1 0x40 MLOAD DUP1 SWAP2 SUB SWAP1 LOG1 PUSH2 0x108C JUMP JUMPDEST PUSH2 0x108B PUSH8 0x872BA8A7E92C5FA8 PUSH1 0xC0 SHL PUSH2 0x544 JUMP JUMPDEST JUMPDEST JUMPDEST POP POP JUMP JUMPDEST PUSH1 0xA PUSH1 0x20 MSTORE DUP1 PUSH1 0x0 MSTORE PUSH1 0x40 PUSH1 0x0 KECCAK256 PUSH1 0x0 SWAP2 POP SWAP1 POP DUP1 PUSH1 0x0 ADD PUSH1 0x0 SWAP1 SLOAD SWAP1 PUSH2 0x100 EXP SWAP1 DIV PUSH1 0xFF AND SWAP1 DUP1 PUSH1 0x1 ADD SLOAD SWAP1 DUP1 PUSH1 0x2 ADD SLOAD SWAP1 DUP1 PUSH1 0x3 ADD SLOAD SWAP1 POP DUP5 JUMP JUMPDEST PUSH1 0xC PUSH1 0x20 MSTORE DUP1 PUSH1 0x0 MSTORE PUSH1 0x40 PUSH1 0x0 KECCAK256 PUSH1 0x0 SWAP2 POP SLOAD SWAP1 PUSH2 0x100 EXP SWAP1 DIV PUSH20 0xFFFFFFFFFFFFFFFFFFFFFFFFFFFFFFFFFFFFFFFF AND DUP2 JUMP JUMPDEST PUSH2 0x1115 PUSH8 0x74BC74CA1D4E5B1 PUSH1 0xC0 SHL PUSH2 0x544 JUMP JUMPDEST ADDRESS PUSH2 0x112A PUSH8 0x136DA02E533B82CD PUSH1 0xC0 SHL PUSH2 0x544 JUMP JUMPDEST PUSH2 0x113E PUSH8 0x209B55F8B3205475 PUSH1 0xC0 SHL PUSH2 0x544 JUMP JUMPDEST PUSH2 0x1152 PUSH8 0x6A28261D9943A9D9 PUSH1 0xC0 SHL PUSH2 0x544 JUMP JUMPDEST PUSH8 0xDE0B6B3A7640000 DUP2 PUSH20 0xFFFFFFFFFFFFFFFFFFFFFFFFFFFFFFFFFFFFFFFF AND BALANCE GT PUSH2 0x11D2 JUMPI PUSH2 0x118C PUSH8 0x389C049825B9FA54 PUSH1 0xC0 SHL PUSH2 0x544 JUMP JUMPDEST PUSH2 0x11A0 PUSH8 0xA2C8751E8E2DAA71 PUSH1 0xC0 SHL PUSH2 0x544 JUMP JUMPDEST PUSH1 0x40 MLOAD PUSH32 0x47108E3E00000000000000000000000000000000000000000000000000000000 DUP2 MSTORE PUSH1 0x4 ADD PUSH1 0x40 MLOAD DUP1 SWAP2 SUB SWAP1 REVERT JUMPDEST PUSH2 0x11E6 PUSH8 0x5497109226D52EA2 PUSH1 0xC0 SHL PUSH2 0x544 JUMP JUMPDEST PUSH2 0x11FA PUSH8 0xBB07387334387479 PUSH1 0xC0 SHL PUSH2 0x544 JUMP JUMPDEST PUSH2 0x120E PUSH8 0xD9CE2405FB82B254 PUSH1 0xC0 SHL PUSH2 0x544 JUMP JUMPDEST PUSH2 0x1222 PUSH8 0xE82CB70725545FD7 PUSH1 0xC0 SHL PUSH2 0x544 JUMP JUMPDEST PUSH2 0x1236 PUSH8 0xC4B37AD433D2D68E PUSH1 0xC0 SHL PUSH2 0x544 JUMP JUMPDEST PUSH2 0x124A PUSH8 0xB8E64898DB16FA0D PUSH1 0xC0 SHL PUSH2 0x544 JUMP JUMPDEST PUSH2 0x125E PUSH8 0x64240195E7C901FB PUSH1 0xC0 SHL PUSH2 0x544 JUMP JUMPDEST CALLER PUSH20 0xFFFFFFFFFFFFFFFFFFFFFFFFFFFFFFFFFFFFFFFF AND PUSH1 0xB PUSH1 0x0 CALLER PUSH20 0xFFFFFFFFFFFFFFFFFFFFFFFFFFFFFFFFFFFFFFFF AND PUSH20 0xFFFFFFFFFFFFFFFFFFFFFFFFFFFFFFFFFFFFFFFF AND DUP2 MSTORE PUSH1 0x20 ADD SWAP1 DUP2 MSTORE PUSH1 0x20 ADD PUSH1 0x0 KECCAK256 PUSH1 0x0 ADD PUSH1 0x0 SWAP1 SLOAD SWAP1 PUSH2 0x100 EXP SWAP1 DIV PUSH20 0xFFFFFFFFFFFFFFFFFFFFFFFFFFFFFFFFFFFFFFFF AND PUSH20 0xFFFFFFFFFFFFFFFFFFFFFFFFFFFFFFFFFFFFFFFF AND EQ PUSH2 0x132E JUMPI PUSH1 0x40 MLOAD PUSH32 0x8C379A000000000000000000000000000000000000000000000000000000000 DUP2 MSTORE PUSH1 0x4 ADD PUSH2 0x1325 SWAP1 PUSH2 0x27D0 JUMP JUMPDEST PUSH1 0x40 MLOAD DUP1 SWAP2 SUB SWAP1 REVERT JUMPDEST PUSH2 0x1342 PUSH8 0xF378894DA803DCF2 PUSH1 0xC0 SHL PUSH2 0x544 JUMP JUMPDEST PUSH2 0x1356 PUSH8 0x6F1156F3B1F0C860 PUSH1 0xC0 SHL PUSH2 0x544 JUMP JUMPDEST PUSH2 0x136A PUSH8 0xC78E2B7436E0790 PUSH1 0xC0 SHL PUSH2 0x544 JUMP JUMPDEST PUSH1 0x0 PUSH8 0xDE0B6B3A7640000 SWAP1 POP PUSH2 0x138B PUSH8 0x674493D77298967C PUSH1 0xC0 SHL PUSH2 0x544 JUMP JUMPDEST PUSH2 0x139F PUSH8 0xD64D6D195CD51B1A PUSH1 0xC0 SHL PUSH2 0x544 JUMP JUMPDEST PUSH2 0x13A9 CALLER DUP3 PUSH2 0x1D2B JUMP JUMPDEST PUSH2 0x13BD PUSH8 0xF585EEA6435AB33C PUSH1 0xC0 SHL PUSH2 0x544 JUMP JUMPDEST PUSH1 0x0 PUSH1 0xB PUSH1 0x0 CALLER PUSH20 0xFFFFFFFFFFFFFFFFFFFFFFFFFFFFFFFFFFFFFFFF AND PUSH20 0xFFFFFFFFFFFFFFFFFFFFFFFFFFFFFFFFFFFFFFFF AND DUP2 MSTORE PUSH1 0x20 ADD SWAP1 DUP2 MSTORE PUSH1 0x20 ADD PUSH1 0x0 KECCAK256 PUSH1 0x0 ADD PUSH1 0x0 PUSH2 0x100 EXP DUP2 SLOAD DUP2 PUSH20 0xFFFFFFFFFFFFFFFFFFFFFFFFFFFFFFFFFFFFFFFF MUL NOT AND SWAP1 DUP4 PUSH20 0xFFFFFFFFFFFFFFFFFFFFFFFFFFFFFFFFFFFFFFFF AND MUL OR SWAP1 SSTORE POP PUSH2 0x1453 PUSH8 0xBC3D876F667579B1 PUSH1 0xC0 SHL PUSH2 0x544 JUMP JUMPDEST PUSH1 0x8 PUSH1 0x0 DUP2 SLOAD DUP1 SWAP3 SWAP2 SWAP1 PUSH2 0x1466 SWAP1 PUSH2 0x27F0 JUMP JUMPDEST SWAP2 SWAP1 POP SSTORE POP POP POP JUMP JUMPDEST PUSH1 0x5 SLOAD DUP2 JUMP JUMPDEST PUSH2 0x1489 PUSH8 0x14DB2310BEFC4880 PUSH1 0xC0 SHL PUSH2 0x544 JUMP JUMPDEST PUSH2 0x149D PUSH8 0x698F3E0EE90C3871 PUSH1 0xC0 SHL PUSH2 0x544 JUMP JUMPDEST PUSH2 0x14B1 PUSH8 0x8C349B55B7309888 PUSH1 0xC0 SHL PUSH2 0x544 JUMP JUMPDEST PUSH2 0x14C5 PUSH8 0x1ACA70163851570E PUSH1 0xC0 SHL PUSH2 0x544 JUMP JUMPDEST PUSH1 0x0 PUSH1 0xD PUSH1 0x0 CALLER PUSH20 0xFFFFFFFFFFFFFFFFFFFFFFFFFFFFFFFFFFFFFFFF AND PUSH20 0xFFFFFFFFFFFFFFFFFFFFFFFFFFFFFFFFFFFFFFFF AND DUP2 MSTORE PUSH1 0x20 ADD SWAP1 DUP2 MSTORE PUSH1 0x20 ADD PUSH1 0x0 KECCAK256 SLOAD SUB PUSH2 0x1566 JUMPI PUSH2 0x1520 PUSH8 0x9D30861A492E9CDA PUSH1 0xC0 SHL PUSH2 0x544 JUMP JUMPDEST PUSH2 0x1534 PUSH8 0x8C9D06DD0E147635 PUSH1 0xC0 SHL PUSH2 0x544 JUMP JUMPDEST PUSH1 0x40 MLOAD PUSH32 0x3A70817D00000000000000000000000000000000000000000000000000000000 DUP2 MSTORE PUSH1 0x4 ADD PUSH1 0x40 MLOAD DUP1 SWAP2 SUB SWAP1 REVERT JUMPDEST PUSH2 0x157A PUSH8 0xB4EF19437AB44D4A PUSH1 0xC0 SHL PUSH2 0x544 JUMP JUMPDEST PUSH2 0x158E PUSH8 0x693C450D850BBF45 PUSH1 0xC0 SHL PUSH2 0x544 JUMP JUMPDEST PUSH2 0x15A2 PUSH8 0x95404E0B63C24355 PUSH1 0xC0 SHL PUSH2 0x544 JUMP JUMPDEST PUSH2 0x15B6 PUSH8 0x44F5C8DC1C9B853F PUSH1 0xC0 SHL PUSH2 0x544 JUMP JUMPDEST CALLER PUSH2 0x15CB PUSH8 0x136DA02E533B82CD PUSH1 0xC0 SHL PUSH2 0x544 JUMP JUMPDEST PUSH2 0x15DF PUSH8 0x209B55F8B3205475 PUSH1 0xC0 SHL PUSH2 0x544 JUMP JUMPDEST PUSH2 0x15F3 PUSH8 0x6A28261D9943A9D9 PUSH1 0xC0 SHL PUSH2 0x544 JUMP JUMPDEST PUSH8 0xDE0B6B3A7640000 DUP2 PUSH20 0xFFFFFFFFFFFFFFFFFFFFFFFFFFFFFFFFFFFFFFFF AND BALANCE GT PUSH2 0x1673 JUMPI PUSH2 0x162D PUSH8 0x389C049825B9FA54 PUSH1 0xC0 SHL PUSH2 0x544 JUMP JUMPDEST PUSH2 0x1641 PUSH8 0xA2C8751E8E2DAA71 PUSH1 0xC0 SHL PUSH2 0x544 JUMP JUMPDEST PUSH1 0x40 MLOAD PUSH32 0x47108E3E00000000000000000000000000000000000000000000000000000000 DUP2 MSTORE PUSH1 0x4 ADD PUSH1 0x40 MLOAD DUP1 SWAP2 SUB SWAP1 REVERT JUMPDEST PUSH2 0x1687 PUSH8 0x5497109226D52EA2 PUSH1 0xC0 SHL PUSH2 0x544 JUMP JUMPDEST PUSH2 0x169B PUSH8 0xBB07387334387479 PUSH1 0xC0 SHL PUSH2 0x544 JUMP JUMPDEST PUSH2 0x16AF PUSH8 0x3E04B6E7511AAA92 PUSH1 0xC0 SHL PUSH2 0x544 JUMP JUMPDEST PUSH2 0x16C3 PUSH8 0x179FD82C7F6ECCB PUSH1 0xC0 SHL PUSH2 0x544 JUMP JUMPDEST PUSH2 0x16D7 PUSH8 0x25194325DCFD1F5E PUSH1 0xC0 SHL PUSH2 0x544 JUMP JUMPDEST PUSH2 0x16EB PUSH8 0x600648DC8F445DCB PUSH1 0xC0 SHL PUSH2 0x544 JUMP JUMPDEST PUSH2 0x16FF PUSH8 0xFCBE4E829641C80D PUSH1 0xC0 SHL PUSH2 0x544 JUMP JUMPDEST PUSH8 0xDE0B6B3A7640000 CALLVALUE EQ PUSH2 0x1749 JUMPI PUSH1 0x40 MLOAD PUSH32 0x8C379A000000000000000000000000000000000000000000000000000000000 DUP2 MSTORE PUSH1 0x4 ADD PUSH2 0x1740 SWAP1 PUSH2 0x2865 JUMP JUMPDEST PUSH1 0x40 MLOAD DUP1 SWAP2 SUB SWAP1 REVERT JUMPDEST PUSH2 0x175D PUSH8 0xF42C02D644E9755F PUSH1 0xC0 SHL PUSH2 0x544 JUMP JUMPDEST PUSH2 0x1771 PUSH8 0x10439EF341CD73DE PUSH1 0xC0 SHL PUSH2 0x544 JUMP JUMPDEST PUSH2 0x1785 PUSH8 0x6818FCEA189EDE96 PUSH1 0xC0 SHL PUSH2 0x544 JUMP JUMPDEST PUSH2 0x1799 PUSH8 0x664945351DE7A4E9 PUSH1 0xC0 SHL PUSH2 0x544 JUMP JUMPDEST CALLER PUSH20 0xFFFFFFFFFFFFFFFFFFFFFFFFFFFFFFFFFFFFFFFF AND PUSH1 0xB PUSH1 0x0 CALLER PUSH20 0xFFFFFFFFFFFFFFFFFFFFFFFFFFFFFFFFFFFFFFFF AND PUSH20 0xFFFFFFFFFFFFFFFFFFFFFFFFFFFFFFFFFFFFFFFF AND DUP2 MSTORE PUSH1 0x20 ADD SWAP1 DUP2 MSTORE PUSH1 0x20 ADD PUSH1 0x0 KECCAK256 PUSH1 0x0 ADD PUSH1 0x0 SWAP1 SLOAD SWAP1 PUSH2 0x100 EXP SWAP1 DIV PUSH20 0xFFFFFFFFFFFFFFFFFFFFFFFFFFFFFFFFFFFFFFFF AND PUSH20 0xFFFFFFFFFFFFFFFFFFFFFFFFFFFFFFFFFFFFFFFF AND SUB PUSH2 0x1869 JUMPI PUSH1 0x40 MLOAD PUSH32 0x8C379A000000000000000000000000000000000000000000000000000000000 DUP2 MSTORE PUSH1 0x4 ADD PUSH2 0x1860 SWAP1 PUSH2 0x28D1 JUMP JUMPDEST PUSH1 0x40 MLOAD DUP1 SWAP2 SUB SWAP1 REVERT JUMPDEST PUSH2 0x187D PUSH8 0x9864CD3BFEAAADD PUSH1 0xC0 SHL PUSH2 0x544 JUMP JUMPDEST PUSH2 0x1891 PUSH8 0x6FCA4FD3AD8B9C58 PUSH1 0xC0 SHL PUSH2 0x544 JUMP JUMPDEST PUSH2 0x18A5 PUSH8 0x6A89BC144A93D89E PUSH1 0xC0 SHL PUSH2 0x544 JUMP JUMPDEST PUSH2 0x18AF ADDRESS CALLVALUE PUSH2 0x1D2B JUMP JUMPDEST PUSH2 0x18C3 PUSH8 0x97E9DAE473B4410F PUSH1 0xC0 SHL PUSH2 0x544 JUMP JUMPDEST CALLER PUSH1 0xB PUSH1 0x0 CALLER PUSH20 0xFFFFFFFFFFFFFFFFFFFFFFFFFFFFFFFFFFFFFFFF AND PUSH20 0xFFFFFFFFFFFFFFFFFFFFFFFFFFFFFFFFFFFFFFFF AND DUP2 MSTORE PUSH1 0x20 ADD SWAP1 DUP2 MSTORE PUSH1 0x20 ADD PUSH1 0x0 KECCAK256 PUSH1 0x0 ADD PUSH1 0x0 PUSH2 0x100 EXP DUP2 SLOAD DUP2 PUSH20 0xFFFFFFFFFFFFFFFFFFFFFFFFFFFFFFFFFFFFFFFF MUL NOT AND SWAP1 DUP4 PUSH20 0xFFFFFFFFFFFFFFFFFFFFFFFFFFFFFFFFFFFFFFFF AND MUL OR SWAP1 SSTORE POP PUSH2 0x1958 PUSH8 0x4B2296909B4DDC31 PUSH1 0xC0 SHL PUSH2 0x544 JUMP JUMPDEST PUSH1 0x8 PUSH1 0x0 DUP2 SLOAD DUP1 SWAP3 SWAP2 SWAP1 PUSH2 0x196B SWAP1 PUSH2 0x2565 JUMP JUMPDEST SWAP2 SWAP1 POP SSTORE POP POP JUMP JUMPDEST PUSH1 0xB PUSH1 0x20 MSTORE DUP1 PUSH1 0x0 MSTORE PUSH1 0x40 PUSH1 0x0 KECCAK256 PUSH1 0x0 SWAP2 POP SWAP1 POP DUP1 PUSH1 0x0 ADD PUSH1 0x0 SWAP1 SLOAD SWAP1 PUSH2 0x100 EXP SWAP1 DIV PUSH20 0xFFFFFFFFFFFFFFFFFFFFFFFFFFFFFFFFFFFFFFFF AND SWAP1 DUP1 PUSH1 0x0 ADD PUSH1 0x14 SWAP1 SLOAD SWAP1 PUSH2 0x100 EXP SWAP1 DIV PUSH1 0xFF AND SWAP1 DUP1 PUSH1 0x1 ADD SLOAD SWAP1 POP DUP4 JUMP JUMPDEST PUSH2 0x19DE PUSH8 0x65E7A79278D5BF72 PUSH1 0xC0 SHL PUSH2 0x544 JUMP JUMPDEST PUSH2 0x19F2 PUSH8 0x3420C6820C9ED3C7 PUSH1 0xC0 SHL PUSH2 0x544 JUMP JUMPDEST PUSH2 0x1A06 PUSH8 0x8390C81B49A5E623 PUSH1 0xC0 SHL PUSH2 0x544 JUMP JUMPDEST PUSH1 0x0 PUSH1 0x5 DUP2 GT ISZERO PUSH2 0x1A1A JUMPI PUSH2 0x1A19 PUSH2 0x23F8 JUMP JUMPDEST JUMPDEST DUP3 PUSH1 0x5 DUP2 GT ISZERO PUSH2 0x1A2D JUMPI PUSH2 0x1A2C PUSH2 0x23F8 JUMP JUMPDEST JUMPDEST SUB PUSH2 0x1A66 JUMPI PUSH2 0x1A46 PUSH8 0x9DEF52038BC1B38D PUSH1 0xC0 SHL PUSH2 0x544 JUMP JUMPDEST PUSH2 0x1A5A PUSH8 0x2B26D78186B1BB08 PUSH1 0xC0 SHL PUSH2 0x544 JUMP JUMPDEST DUP1 PUSH1 0x2 DUP2 SWAP1 SSTORE POP PUSH2 0x1D27 JUMP JUMPDEST PUSH2 0x1A7A PUSH8 0x7346C6F75E467A3C PUSH1 0xC0 SHL PUSH2 0x544 JUMP JUMPDEST PUSH2 0x1A8E PUSH8 0x37BF1CBF8ACB34E8 PUSH1 0xC0 SHL PUSH2 0x544 JUMP JUMPDEST PUSH1 0x1 PUSH1 0x5 DUP2 GT ISZERO PUSH2 0x1AA2 JUMPI PUSH2 0x1AA1 PUSH2 0x23F8 JUMP JUMPDEST JUMPDEST DUP3 PUSH1 0x5 DUP2 GT ISZERO PUSH2 0x1AB5 JUMPI PUSH2 0x1AB4 PUSH2 0x23F8 JUMP JUMPDEST JUMPDEST SUB PUSH2 0x1AEE JUMPI PUSH2 0x1ACE PUSH8 0x69AA217D21157837 PUSH1 0xC0 SHL PUSH2 0x544 JUMP JUMPDEST PUSH2 0x1AE2 PUSH8 0x2F39790983672C9B PUSH1 0xC0 SHL PUSH2 0x544 JUMP JUMPDEST DUP1 PUSH1 0x3 DUP2 SWAP1 SSTORE POP PUSH2 0x1D26 JUMP JUMPDEST PUSH2 0x1B02 PUSH8 0x288142A055B76C8A PUSH1 0xC0 SHL PUSH2 0x544 JUMP JUMPDEST PUSH2 0x1B16 PUSH8 0xA049A38731EC2246 PUSH1 0xC0 SHL PUSH2 0x544 JUMP JUMPDEST PUSH1 0x2 PUSH1 0x5 DUP2 GT ISZERO PUSH2 0x1B2A JUMPI PUSH2 0x1B29 PUSH2 0x23F8 JUMP JUMPDEST JUMPDEST DUP3 PUSH1 0x5 DUP2 GT ISZERO PUSH2 0x1B3D JUMPI PUSH2 0x1B3C PUSH2 0x23F8 JUMP JUMPDEST JUMPDEST SUB PUSH2 0x1B76 JUMPI PUSH2 0x1B56 PUSH8 0x68052DB4B406E36A PUSH1 0xC0 SHL PUSH2 0x544 JUMP JUMPDEST PUSH2 0x1B6A PUSH8 0x3686C77991EA3D92 PUSH1 0xC0 SHL PUSH2 0x544 JUMP JUMPDEST DUP1 PUSH1 0x4 DUP2 SWAP1 SSTORE POP PUSH2 0x1D25 JUMP JUMPDEST PUSH2 0x1B8A PUSH8 0xDAB5CEE8678D61E5 PUSH1 0xC0 SHL PUSH2 0x544 JUMP JUMPDEST PUSH2 0x1B9E PUSH8 0x1C00F0CA30A19019 PUSH1 0xC0 SHL PUSH2 0x544 JUMP JUMPDEST PUSH1 0x3 PUSH1 0x5 DUP2 GT ISZERO PUSH2 0x1BB2 JUMPI PUSH2 0x1BB1 PUSH2 0x23F8 JUMP JUMPDEST JUMPDEST DUP3 PUSH1 0x5 DUP2 GT ISZERO PUSH2 0x1BC5 JUMPI PUSH2 0x1BC4 PUSH2 0x23F8 JUMP JUMPDEST JUMPDEST SUB PUSH2 0x1BFE JUMPI PUSH2 0x1BDE PUSH8 0x4081B8FCA38E3CB PUSH1 0xC0 SHL PUSH2 0x544 JUMP JUMPDEST PUSH2 0x1BF2 PUSH8 0x3992BA92EDED57B7 PUSH1 0xC0 SHL PUSH2 0x544 JUMP JUMPDEST DUP1 PUSH1 0x5 DUP2 SWAP1 SSTORE POP PUSH2 0x1D24 JUMP JUMPDEST PUSH2 0x1C12 PUSH8 0x316CA1E2171ABCFA PUSH1 0xC0 SHL PUSH2 0x544 JUMP JUMPDEST PUSH2 0x1C26 PUSH8 0x802F32B07F4B3221 PUSH1 0xC0 SHL PUSH2 0x544 JUMP JUMPDEST PUSH1 0x4 PUSH1 0x5 DUP2 GT ISZERO PUSH2 0x1C3A JUMPI PUSH2 0x1C39 PUSH2 0x23F8 JUMP JUMPDEST JUMPDEST DUP3 PUSH1 0x5 DUP2 GT ISZERO PUSH2 0x1C4D JUMPI PUSH2 0x1C4C PUSH2 0x23F8 JUMP JUMPDEST JUMPDEST SUB PUSH2 0x1C86 JUMPI PUSH2 0x1C66 PUSH8 0xD18A2824BFA870D8 PUSH1 0xC0 SHL PUSH2 0x544 JUMP JUMPDEST PUSH2 0x1C7A PUSH8 0xC96F807082E192CC PUSH1 0xC0 SHL PUSH2 0x544 JUMP JUMPDEST DUP1 PUSH1 0x1 DUP2 SWAP1 SSTORE POP PUSH2 0x1D23 JUMP JUMPDEST PUSH2 0x1C9A PUSH8 0xD83F938F7F69220F PUSH1 0xC0 SHL PUSH2 0x544 JUMP JUMPDEST PUSH2 0x1CAE PUSH8 0x26703521036EC414 PUSH1 0xC0 SHL PUSH2 0x544 JUMP JUMPDEST PUSH1 0x5 DUP1 DUP2 GT ISZERO PUSH2 0x1CC1 JUMPI PUSH2 0x1CC0 PUSH2 0x23F8 JUMP JUMPDEST JUMPDEST DUP3 PUSH1 0x5 DUP2 GT ISZERO PUSH2 0x1CD4 JUMPI PUSH2 0x1CD3 PUSH2 0x23F8 JUMP JUMPDEST JUMPDEST SUB PUSH2 0x1D0D JUMPI PUSH2 0x1CED PUSH8 0x8BBCC1B73E42AA80 PUSH1 0xC0 SHL PUSH2 0x544 JUMP JUMPDEST PUSH2 0x1D01 PUSH8 0x84FC27A7AC9C410B PUSH1 0xC0 SHL PUSH2 0x544 JUMP JUMPDEST DUP1 PUSH1 0x6 DUP2 SWAP1 SSTORE POP PUSH2 0x1D22 JUMP JUMPDEST PUSH2 0x1D21 PUSH8 0xA5B390BCC1FBACDD PUSH1 0xC0 SHL PUSH2 0x544 JUMP JUMPDEST JUMPDEST JUMPDEST JUMPDEST JUMPDEST JUMPDEST JUMPDEST POP POP JUMP JUMPDEST PUSH2 0x1D3F PUSH8 0xC2D731A4A0A90D5D PUSH1 0xC0 SHL PUSH2 0x544 JUMP JUMPDEST PUSH2 0x1D53 PUSH8 0x246FAC22A72ADB57 PUSH1 0xC0 SHL PUSH2 0x544 JUMP JUMPDEST PUSH2 0x1D67 PUSH8 0x9734D76458B4889F PUSH1 0xC0 SHL PUSH2 0x544 JUMP JUMPDEST PUSH1 0x0 DUP1 DUP4 PUSH20 0xFFFFFFFFFFFFFFFFFFFFFFFFFFFFFFFFFFFFFFFF AND DUP4 PUSH1 0x40 MLOAD PUSH2 0x1D8E SWAP1 PUSH2 0x2922 JUMP JUMPDEST PUSH1 0x0 PUSH1 0x40 MLOAD DUP1 DUP4 SUB DUP2 DUP6 DUP8 GAS CALL SWAP3 POP POP POP RETURNDATASIZE DUP1 PUSH1 0x0 DUP2 EQ PUSH2 0x1DCB JUMPI PUSH1 0x40 MLOAD SWAP2 POP PUSH1 0x1F NOT PUSH1 0x3F RETURNDATASIZE ADD AND DUP3 ADD PUSH1 0x40 MSTORE RETURNDATASIZE DUP3 MSTORE RETURNDATASIZE PUSH1 0x0 PUSH1 0x20 DUP5 ADD RETURNDATACOPY PUSH2 0x1DD0 JUMP JUMPDEST PUSH1 0x60 SWAP2 POP JUMPDEST POP SWAP2 POP SWAP2 POP PUSH2 0x1DE9 PUSH8 0xB93F12F57981EA3B PUSH1 0xC0 SHL PUSH2 0x544 JUMP JUMPDEST PUSH2 0x1DFD PUSH8 0xC788F4AB91CA5B44 PUSH1 0xC0 SHL PUSH2 0x544 JUMP JUMPDEST PUSH2 0x1E11 PUSH8 0xFD1B5F9B8D26A86D PUSH1 0xC0 SHL PUSH2 0x544 JUMP JUMPDEST DUP2 PUSH2 0x1E51 JUMPI PUSH1 0x40 MLOAD PUSH32 0x8C379A000000000000000000000000000000000000000000000000000000000 DUP2 MSTORE PUSH1 0x4 ADD PUSH2 0x1E48 SWAP1 PUSH2 0x2983 JUMP JUMPDEST PUSH1 0x40 MLOAD DUP1 SWAP2 SUB SWAP1 REVERT JUMPDEST PUSH2 0x1E65 PUSH8 0x1DEA001F363B9359 PUSH1 0xC0 SHL PUSH2 0x544 JUMP JUMPDEST POP POP POP POP JUMP JUMPDEST PUSH1 0x0 DUP3 DUP3 MSTORE PUSH1 0x20 DUP3 ADD SWAP1 POP SWAP3 SWAP2 POP POP JUMP JUMPDEST PUSH32 0x796F752063616E27742073656E64206C657373207468616E2035306B20776569 PUSH1 0x0 DUP3 ADD MSTORE POP JUMP JUMPDEST PUSH1 0x0 PUSH2 0x1EB2 PUSH1 0x20 DUP4 PUSH2 0x1E6B JUMP JUMPDEST SWAP2 POP PUSH2 0x1EBD DUP3 PUSH2 0x1E7C JUMP JUMPDEST PUSH1 0x20 DUP3 ADD SWAP1 POP SWAP2 SWAP1 POP JUMP JUMPDEST PUSH1 0x0 PUSH1 0x20 DUP3 ADD SWAP1 POP DUP2 DUP2 SUB PUSH1 0x0 DUP4 ADD MSTORE PUSH2 0x1EE1 DUP2 PUSH2 0x1EA5 JUMP JUMPDEST SWAP1 POP SWAP2 SWAP1 POP JUMP JUMPDEST PUSH1 0x0 DUP2 MLOAD SWAP1 POP SWAP2 SWAP1 POP JUMP JUMPDEST PUSH32 0x4E487B7100000000000000000000000000000000000000000000000000000000 PUSH1 0x0 MSTORE PUSH1 0x41 PUSH1 0x4 MSTORE PUSH1 0x24 PUSH1 0x0 REVERT JUMPDEST PUSH32 0x4E487B7100000000000000000000000000000000000000000000000000000000 PUSH1 0x0 MSTORE PUSH1 0x22 PUSH1 0x4 MSTORE PUSH1 0x24 PUSH1 0x0 REVERT JUMPDEST PUSH1 0x0 PUSH1 0x2 DUP3 DIV SWAP1 POP PUSH1 0x1 DUP3 AND DUP1 PUSH2 0x1F69 JUMPI PUSH1 0x7F DUP3 AND SWAP2 POP JUMPDEST PUSH1 0x20 DUP3 LT DUP2 SUB PUSH2 0x1F7C JUMPI PUSH2 0x1F7B PUSH2 0x1F22 JUMP JUMPDEST JUMPDEST POP SWAP2 SWAP1 POP JUMP JUMPDEST PUSH1 0x0 DUP2 SWAP1 POP DUP2 PUSH1 0x0 MSTORE PUSH1 0x20 PUSH1 0x0 KECCAK256 SWAP1 POP SWAP2 SWAP1 POP JUMP JUMPDEST PUSH1 0x0 PUSH1 0x20 PUSH1 0x1F DUP4 ADD DIV SWAP1 POP SWAP2 SWAP1 POP JUMP JUMPDEST PUSH1 0x0 DUP3 DUP3 SHL SWAP1 POP SWAP3 SWAP2 POP POP JUMP JUMPDEST PUSH1 0x0 PUSH1 0x8 DUP4 MUL PUSH2 0x1FE4 PUSH32 0xFFFFFFFFFFFFFFFFFFFFFFFFFFFFFFFFFFFFFFFFFFFFFFFFFFFFFFFFFFFFFFFF DUP3 PUSH2 0x1FA7 JUMP JUMPDEST PUSH2 0x1FEE DUP7 DUP4 PUSH2 0x1FA7 JUMP JUMPDEST SWAP6 POP DUP1 NOT DUP5 AND SWAP4 POP DUP1 DUP7 AND DUP5 OR SWAP3 POP POP POP SWAP4 SWAP3 POP POP POP JUMP JUMPDEST PUSH1 0x0 DUP2 SWAP1 POP SWAP2 SWAP1 POP JUMP JUMPDEST PUSH1 0x0 DUP2 SWAP1 POP SWAP2 SWAP1 POP JUMP JUMPDEST PUSH1 0x0 PUSH2 0x2035 PUSH2 0x2030 PUSH2 0x202B DUP5 PUSH2 0x2006 JUMP JUMPDEST PUSH2 0x2010 JUMP JUMPDEST PUSH2 0x2006 JUMP JUMPDEST SWAP1 POP SWAP2 SWAP1 POP JUMP JUMPDEST PUSH1 0x0 DUP2 SWAP1 POP SWAP2 SWAP1 POP JUMP JUMPDEST PUSH2 0x204F DUP4 PUSH2 0x201A JUMP JUMPDEST PUSH2 0x2063 PUSH2 0x205B DUP3 PUSH2 0x203C JUMP JUMPDEST DUP5 DUP5 SLOAD PUSH2 0x1FB4 JUMP JUMPDEST DUP3 SSTORE POP POP POP POP JUMP JUMPDEST PUSH1 0x0 SWAP1 JUMP JUMPDEST PUSH2 0x2078 PUSH2 0x206B JUMP JUMPDEST PUSH2 0x2083 DUP2 DUP5 DUP5 PUSH2 0x2046 JUMP JUMPDEST POP POP POP JUMP JUMPDEST JUMPDEST DUP2 DUP2 LT ISZERO PUSH2 0x20A7 JUMPI PUSH2 0x209C PUSH1 0x0 DUP3 PUSH2 0x2070 JUMP JUMPDEST PUSH1 0x1 DUP2 ADD SWAP1 POP PUSH2 0x2089 JUMP JUMPDEST POP POP JUMP JUMPDEST PUSH1 0x1F DUP3 GT ISZERO PUSH2 0x20EC JUMPI PUSH2 0x20BD DUP2 PUSH2 0x1F82 JUMP JUMPDEST PUSH2 0x20C6 DUP5 PUSH2 0x1F97 JUMP JUMPDEST DUP2 ADD PUSH1 0x20 DUP6 LT ISZERO PUSH2 0x20D5 JUMPI DUP2 SWAP1 POP JUMPDEST PUSH2 0x20E9 PUSH2 0x20E1 DUP6 PUSH2 0x1F97 JUMP JUMPDEST DUP4 ADD DUP3 PUSH2 0x2088 JUMP JUMPDEST POP POP JUMPDEST POP POP POP JUMP JUMPDEST PUSH1 0x0 DUP3 DUP3 SHR SWAP1 POP SWAP3 SWAP2 POP POP JUMP JUMPDEST PUSH1 0x0 PUSH2 0x210F PUSH1 0x0 NOT DUP5 PUSH1 0x8 MUL PUSH2 0x20F1 JUMP JUMPDEST NOT DUP1 DUP4 AND SWAP2 POP POP SWAP3 SWAP2 POP POP JUMP JUMPDEST PUSH1 0x0 PUSH2 0x2128 DUP4 DUP4 PUSH2 0x20FE JUMP JUMPDEST SWAP2 POP DUP3 PUSH1 0x2 MUL DUP3 OR SWAP1 POP SWAP3 SWAP2 POP POP JUMP JUMPDEST PUSH2 0x2141 DUP3 PUSH2 0x1EE8 JUMP JUMPDEST PUSH8 0xFFFFFFFFFFFFFFFF DUP2 GT ISZERO PUSH2 0x215A JUMPI PUSH2 0x2159 PUSH2 0x1EF3 JUMP JUMPDEST JUMPDEST PUSH2 0x2164 DUP3 SLOAD PUSH2 0x1F51 JUMP JUMPDEST PUSH2 0x216F DUP3 DUP3 DUP6 PUSH2 0x20AB JUMP JUMPDEST PUSH1 0x0 PUSH1 0x20 SWAP1 POP PUSH1 0x1F DUP4 GT PUSH1 0x1 DUP2 EQ PUSH2 0x21A2 JUMPI PUSH1 0x0 DUP5 ISZERO PUSH2 0x2190 JUMPI DUP3 DUP8 ADD MLOAD SWAP1 POP JUMPDEST PUSH2 0x219A DUP6 DUP3 PUSH2 0x211C JUMP JUMPDEST DUP7 SSTORE POP PUSH2 0x2202 JUMP JUMPDEST PUSH1 0x1F NOT DUP5 AND PUSH2 0x21B0 DUP7 PUSH2 0x1F82 JUMP JUMPDEST PUSH1 0x0 JUMPDEST DUP3 DUP2 LT ISZERO PUSH2 0x21D8 JUMPI DUP5 DUP10 ADD MLOAD DUP3 SSTORE PUSH1 0x1 DUP3 ADD SWAP2 POP PUSH1 0x20 DUP6 ADD SWAP5 POP PUSH1 0x20 DUP2 ADD SWAP1 POP PUSH2 0x21B3 JUMP JUMPDEST DUP7 DUP4 LT ISZERO PUSH2 0x21F5 JUMPI DUP5 DUP10 ADD MLOAD PUSH2 0x21F1 PUSH1 0x1F DUP10 AND DUP3 PUSH2 0x20FE JUMP JUMPDEST DUP4 SSTORE POP JUMPDEST PUSH1 0x1 PUSH1 0x2 DUP9 MUL ADD DUP9 SSTORE POP POP POP JUMPDEST POP POP POP POP POP POP JUMP JUMPDEST PUSH1 0x0 DUP1 REVERT JUMPDEST PUSH1 0x0 PUSH20 0xFFFFFFFFFFFFFFFFFFFFFFFFFFFFFFFFFFFFFFFF DUP3 AND SWAP1 POP SWAP2 SWAP1 POP JUMP JUMPDEST PUSH1 0x0 PUSH2 0x223A DUP3 PUSH2 0x220F JUMP JUMPDEST SWAP1 POP SWAP2 SWAP1 POP JUMP JUMPDEST PUSH2 0x224A DUP2 PUSH2 0x222F JUMP JUMPDEST DUP2 EQ PUSH2 0x2255 JUMPI PUSH1 0x0 DUP1 REVERT JUMPDEST POP JUMP JUMPDEST PUSH1 0x0 DUP2 CALLDATALOAD SWAP1 POP PUSH2 0x2267 DUP2 PUSH2 0x2241 JUMP JUMPDEST SWAP3 SWAP2 POP POP JUMP JUMPDEST PUSH1 0x0 PUSH1 0x20 DUP3 DUP5 SUB SLT ISZERO PUSH2 0x2283 JUMPI PUSH2 0x2282 PUSH2 0x220A JUMP JUMPDEST JUMPDEST PUSH1 0x0 PUSH2 0x2291 DUP5 DUP3 DUP6 ADD PUSH2 0x2258 JUMP JUMPDEST SWAP2 POP POP SWAP3 SWAP2 POP POP JUMP JUMPDEST PUSH2 0x22A3 DUP2 PUSH2 0x2006 JUMP JUMPDEST DUP3 MSTORE POP POP JUMP JUMPDEST PUSH1 0x0 PUSH1 0x20 DUP3 ADD SWAP1 POP PUSH2 0x22BE PUSH1 0x0 DUP4 ADD DUP5 PUSH2 0x229A JUMP JUMPDEST SWAP3 SWAP2 POP POP JUMP JUMPDEST PUSH1 0x6 DUP2 LT PUSH2 0x22D1 JUMPI PUSH1 0x0 DUP1 REVERT JUMPDEST POP JUMP JUMPDEST PUSH1 0x0 DUP2 CALLDATALOAD SWAP1 POP PUSH2 0x22E3 DUP2 PUSH2 0x22C4 JUMP JUMPDEST SWAP3 SWAP2 POP POP JUMP JUMPDEST PUSH2 0x22F2 DUP2 PUSH2 0x2006 JUMP JUMPDEST DUP2 EQ PUSH2 0x22FD JUMPI PUSH1 0x0 DUP1 REVERT JUMPDEST POP JUMP JUMPDEST PUSH1 0x0 DUP2 CALLDATALOAD SWAP1 POP PUSH2 0x230F DUP2 PUSH2 0x22E9 JUMP JUMPDEST SWAP3 SWAP2 POP POP JUMP JUMPDEST PUSH1 0x0 DUP1 PUSH1 0x40 DUP4 DUP6 SUB SLT ISZERO PUSH2 0x232C JUMPI PUSH2 0x232B PUSH2 0x220A JUMP JUMPDEST JUMPDEST PUSH1 0x0 PUSH2 0x233A DUP6 DUP3 DUP7 ADD PUSH2 0x22D4 JUMP JUMPDEST SWAP3 POP POP PUSH1 0x20 PUSH2 0x234B DUP6 DUP3 DUP7 ADD PUSH2 0x2300 JUMP JUMPDEST SWAP2 POP POP SWAP3 POP SWAP3 SWAP1 POP JUMP JUMPDEST PUSH1 0x0 PUSH1 0x20 DUP3 DUP5 SUB SLT ISZERO PUSH2 0x236B JUMPI PUSH2 0x236A PUSH2 0x220A JUMP JUMPDEST JUMPDEST PUSH1 0x0 PUSH2 0x2379 DUP5 DUP3 DUP6 ADD PUSH2 0x2300 JUMP JUMPDEST SWAP2 POP POP SWAP3 SWAP2 POP POP JUMP JUMPDEST PUSH1 0x0 DUP2 ISZERO ISZERO SWAP1 POP SWAP2 SWAP1 POP JUMP JUMPDEST PUSH2 0x2397 DUP2 PUSH2 0x2382 JUMP JUMPDEST DUP3 MSTORE POP POP JUMP JUMPDEST PUSH1 0x0 PUSH1 0x20 DUP3 ADD SWAP1 POP PUSH2 0x23B2 PUSH1 0x0 DUP4 ADD DUP5 PUSH2 0x238E JUMP JUMPDEST SWAP3 SWAP2 POP POP JUMP JUMPDEST PUSH1 0x0 DUP1 PUSH1 0x40 DUP4 DUP6 SUB SLT ISZERO PUSH2 0x23CF JUMPI PUSH2 0x23CE PUSH2 0x220A JUMP JUMPDEST JUMPDEST PUSH1 0x0 PUSH2 0x23DD DUP6 DUP3 DUP7 ADD PUSH2 0x2300 JUMP JUMPDEST SWAP3 POP POP PUSH1 0x20 PUSH2 0x23EE DUP6 DUP3 DUP7 ADD PUSH2 0x2300 JUMP JUMPDEST SWAP2 POP POP SWAP3 POP SWAP3 SWAP1 POP JUMP JUMPDEST PUSH32 0x4E487B7100000000000000000000000000000000000000000000000000000000 PUSH1 0x0 MSTORE PUSH1 0x21 PUSH1 0x4 MSTORE PUSH1 0x24 PUSH1 0x0 REVERT JUMPDEST PUSH1 0x6 DUP2 LT PUSH2 0x2438 JUMPI PUSH2 0x2437 PUSH2 0x23F8 JUMP JUMPDEST JUMPDEST POP JUMP JUMPDEST PUSH1 0x0 DUP2 SWAP1 POP PUSH2 0x2449 DUP3 PUSH2 0x2427 JUMP JUMPDEST SWAP2 SWAP1 POP JUMP JUMPDEST PUSH1 0x0 PUSH2 0x2459 DUP3 PUSH2 0x243B JUMP JUMPDEST SWAP1 POP SWAP2 SWAP1 POP JUMP JUMPDEST PUSH2 0x2469 DUP2 PUSH2 0x244E JUMP JUMPDEST DUP3 MSTORE POP POP JUMP JUMPDEST PUSH1 0x0 PUSH1 0x80 DUP3 ADD SWAP1 POP PUSH2 0x2484 PUSH1 0x0 DUP4 ADD DUP8 PUSH2 0x2460 JUMP JUMPDEST PUSH2 0x2491 PUSH1 0x20 DUP4 ADD DUP7 PUSH2 0x229A JUMP JUMPDEST PUSH2 0x249E PUSH1 0x40 DUP4 ADD DUP6 PUSH2 0x229A JUMP JUMPDEST PUSH2 0x24AB PUSH1 0x60 DUP4 ADD DUP5 PUSH2 0x229A JUMP JUMPDEST SWAP6 SWAP5 POP POP POP POP POP JUMP JUMPDEST PUSH2 0x24BD DUP2 PUSH2 0x222F JUMP JUMPDEST DUP3 MSTORE POP POP JUMP JUMPDEST PUSH1 0x0 PUSH1 0x20 DUP3 ADD SWAP1 POP PUSH2 0x24D8 PUSH1 0x0 DUP4 ADD DUP5 PUSH2 0x24B4 JUMP JUMPDEST SWAP3 SWAP2 POP POP JUMP JUMPDEST PUSH1 0x0 PUSH2 0x24E9 DUP3 PUSH2 0x220F JUMP JUMPDEST SWAP1 POP SWAP2 SWAP1 POP JUMP JUMPDEST PUSH2 0x24F9 DUP2 PUSH2 0x24DE JUMP JUMPDEST DUP3 MSTORE POP POP JUMP JUMPDEST PUSH1 0x0 PUSH1 0x60 DUP3 ADD SWAP1 POP PUSH2 0x2514 PUSH1 0x0 DUP4 ADD DUP7 PUSH2 0x24F0 JUMP JUMPDEST PUSH2 0x2521 PUSH1 0x20 DUP4 ADD DUP6 PUSH2 0x238E JUMP JUMPDEST PUSH2 0x252E PUSH1 0x40 DUP4 ADD DUP5 PUSH2 0x229A JUMP JUMPDEST SWAP5 SWAP4 POP POP POP POP JUMP JUMPDEST PUSH32 0x4E487B7100000000000000000000000000000000000000000000000000000000 PUSH1 0x0 MSTORE PUSH1 0x11 PUSH1 0x4 MSTORE PUSH1 0x24 PUSH1 0x0 REVERT JUMPDEST PUSH1 0x0 PUSH2 0x2570 DUP3 PUSH2 0x2006 JUMP JUMPDEST SWAP2 POP PUSH32 0xFFFFFFFFFFFFFFFFFFFFFFFFFFFFFFFFFFFFFFFFFFFFFFFFFFFFFFFFFFFFFFFF DUP3 SUB PUSH2 0x25A2 JUMPI PUSH2 0x25A1 PUSH2 0x2536 JUMP JUMPDEST JUMPDEST PUSH1 0x1 DUP3 ADD SWAP1 POP SWAP2 SWAP1 POP JUMP JUMPDEST PUSH32 0x7573657220616C72656164792065786973740000000000000000000000000000 PUSH1 0x0 DUP3 ADD MSTORE POP JUMP JUMPDEST PUSH1 0x0 PUSH2 0x25E3 PUSH1 0x12 DUP4 PUSH2 0x1E6B JUMP JUMPDEST SWAP2 POP PUSH2 0x25EE DUP3 PUSH2 0x25AD JUMP JUMPDEST PUSH1 0x20 DUP3 ADD SWAP1 POP SWAP2 SWAP1 POP JUMP JUMPDEST PUSH1 0x0 PUSH1 0x20 DUP3 ADD SWAP1 POP DUP2 DUP2 SUB PUSH1 0x0 DUP4 ADD MSTORE PUSH2 0x2612 DUP2 PUSH2 0x25D6 JUMP JUMPDEST SWAP1 POP SWAP2 SWAP1 POP JUMP JUMPDEST PUSH1 0x0 PUSH2 0x2624 DUP3 PUSH2 0x2006 JUMP JUMPDEST SWAP2 POP PUSH2 0x262F DUP4 PUSH2 0x2006 JUMP JUMPDEST SWAP3 POP DUP3 DUP3 SUB SWAP1 POP DUP2 DUP2 GT ISZERO PUSH2 0x2647 JUMPI PUSH2 0x2646 PUSH2 0x2536 JUMP JUMPDEST JUMPDEST SWAP3 SWAP2 POP POP JUMP JUMPDEST PUSH1 0x0 PUSH1 0x40 DUP3 ADD SWAP1 POP PUSH2 0x2662 PUSH1 0x0 DUP4 ADD DUP6 PUSH2 0x24B4 JUMP JUMPDEST PUSH2 0x266F PUSH1 0x20 DUP4 ADD DUP5 PUSH2 0x229A JUMP JUMPDEST SWAP4 SWAP3 POP POP POP JUMP JUMPDEST PUSH32 0x616C726561647920766F74656400000000000000000000000000000000000000 PUSH1 0x0 DUP3 ADD MSTORE POP JUMP JUMPDEST PUSH1 0x0 PUSH2 0x26AC PUSH1 0xD DUP4 PUSH2 0x1E6B JUMP JUMPDEST SWAP2 POP PUSH2 0x26B7 DUP3 PUSH2 0x2676 JUMP JUMPDEST PUSH1 0x20 DUP3 ADD SWAP1 POP SWAP2 SWAP1 POP JUMP JUMPDEST PUSH1 0x0 PUSH1 0x20 DUP3 ADD SWAP1 POP DUP2 DUP2 SUB PUSH1 0x0 DUP4 ADD MSTORE PUSH2 0x26DB DUP2 PUSH2 0x269F JUMP JUMPDEST SWAP1 POP SWAP2 SWAP1 POP JUMP JUMPDEST PUSH1 0x0 PUSH2 0x26ED DUP3 PUSH2 0x2006 JUMP JUMPDEST SWAP2 POP PUSH2 0x26F8 DUP4 PUSH2 0x2006 JUMP JUMPDEST SWAP3 POP DUP3 DUP3 MUL PUSH2 0x2706 DUP2 PUSH2 0x2006 JUMP JUMPDEST SWAP2 POP DUP3 DUP3 DIV DUP5 EQ DUP4 ISZERO OR PUSH2 0x271D JUMPI PUSH2 0x271C PUSH2 0x2536 JUMP JUMPDEST JUMPDEST POP SWAP3 SWAP2 POP POP JUMP JUMPDEST PUSH32 0x4E487B7100000000000000000000000000000000000000000000000000000000 PUSH1 0x0 MSTORE PUSH1 0x12 PUSH1 0x4 MSTORE PUSH1 0x24 PUSH1 0x0 REVERT JUMPDEST PUSH1 0x0 PUSH2 0x275E DUP3 PUSH2 0x2006 JUMP JUMPDEST SWAP2 POP PUSH2 0x2769 DUP4 PUSH2 0x2006 JUMP JUMPDEST SWAP3 POP DUP3 PUSH2 0x2779 JUMPI PUSH2 0x2778 PUSH2 0x2724 JUMP JUMPDEST JUMPDEST DUP3 DUP3 DIV SWAP1 POP SWAP3 SWAP2 POP POP JUMP JUMPDEST PUSH32 0x596F7520617265206E6F742076616C696461746F727300000000000000000000 PUSH1 0x0 DUP3 ADD MSTORE POP JUMP JUMPDEST PUSH1 0x0 PUSH2 0x27BA PUSH1 0x16 DUP4 PUSH2 0x1E6B JUMP JUMPDEST SWAP2 POP PUSH2 0x27C5 DUP3 PUSH2 0x2784 JUMP JUMPDEST PUSH1 0x20 DUP3 ADD SWAP1 POP SWAP2 SWAP1 POP JUMP JUMPDEST PUSH1 0x0 PUSH1 0x20 DUP3 ADD SWAP1 POP DUP2 DUP2 SUB PUSH1 0x0 DUP4 ADD MSTORE PUSH2 0x27E9 DUP2 PUSH2 0x27AD JUMP JUMPDEST SWAP1 POP SWAP2 SWAP1 POP JUMP JUMPDEST PUSH1 0x0 PUSH2 0x27FB DUP3 PUSH2 0x2006 JUMP JUMPDEST SWAP2 POP PUSH1 0x0 DUP3 SUB PUSH2 0x280E JUMPI PUSH2 0x280D PUSH2 0x2536 JUMP JUMPDEST JUMPDEST PUSH1 0x1 DUP3 SUB SWAP1 POP SWAP2 SWAP1 POP JUMP JUMPDEST PUSH32 0x73656E6420312065746800000000000000000000000000000000000000000000 PUSH1 0x0 DUP3 ADD MSTORE POP JUMP JUMPDEST PUSH1 0x0 PUSH2 0x284F PUSH1 0xA DUP4 PUSH2 0x1E6B JUMP JUMPDEST SWAP2 POP PUSH2 0x285A DUP3 PUSH2 0x2819 JUMP JUMPDEST PUSH1 0x20 DUP3 ADD SWAP1 POP SWAP2 SWAP1 POP JUMP JUMPDEST PUSH1 0x0 PUSH1 0x20 DUP3 ADD SWAP1 POP DUP2 DUP2 SUB PUSH1 0x0 DUP4 ADD MSTORE PUSH2 0x287E DUP2 PUSH2 0x2842 JUMP JUMPDEST SWAP1 POP SWAP2 SWAP1 POP JUMP JUMPDEST PUSH32 0x596F7520616C7265616479206172650000000000000000000000000000000000 PUSH1 0x0 DUP3 ADD MSTORE POP JUMP JUMPDEST PUSH1 0x0 PUSH2 0x28BB PUSH1 0xF DUP4 PUSH2 0x1E6B JUMP JUMPDEST SWAP2 POP PUSH2 0x28C6 DUP3 PUSH2 0x2885 JUMP JUMPDEST PUSH1 0x20 DUP3 ADD SWAP1 POP SWAP2 SWAP1 POP JUMP JUMPDEST PUSH1 0x0 PUSH1 0x20 DUP3 ADD SWAP1 POP DUP2 DUP2 SUB PUSH1 0x0 DUP4 ADD MSTORE PUSH2 0x28EA DUP2 PUSH2 0x28AE JUMP JUMPDEST SWAP1 POP SWAP2 SWAP1 POP JUMP JUMPDEST PUSH1 0x0 DUP2 SWAP1 POP SWAP3 SWAP2 POP POP JUMP JUMPDEST POP JUMP JUMPDEST PUSH1 0x0 PUSH2 0x290C PUSH1 0x0 DUP4 PUSH2 0x28F1 JUMP JUMPDEST SWAP2 POP PUSH2 0x2917 DUP3 PUSH2 0x28FC JUMP JUMPDEST PUSH1 0x0 DUP3 ADD SWAP1 POP SWAP2 SWAP1 POP JUMP JUMPDEST PUSH1 0x0 PUSH2 0x292D DUP3 PUSH2 0x28FF JUMP JUMPDEST SWAP2 POP DUP2 SWAP1 POP SWAP2 SWAP1 POP JUMP JUMPDEST PUSH32 0x4661696C656420746F2073656E64204574686572000000000000000000000000 PUSH1 0x0 DUP3 ADD MSTORE POP JUMP JUMPDEST PUSH1 0x0 PUSH2 0x296D PUSH1 0x14 DUP4 PUSH2 0x1E6B JUMP JUMPDEST SWAP2 POP PUSH2 0x2978 DUP3 PUSH2 0x2937 JUMP JUMPDEST PUSH1 0x20 DUP3 ADD SWAP1 POP SWAP2 SWAP1 POP JUMP JUMPDEST PUSH1 0x0 PUSH1 0x20 DUP3 ADD SWAP1 POP DUP2 DUP2 SUB PUSH1 0x0 DUP4 ADD MSTORE PUSH2 0x299C DUP2 PUSH2 0x2960 JUMP JUMPDEST SWAP1 POP SWAP2 SWAP1 POP JUMP INVALID LOG2 PUSH5 0x6970667358 0x22 SLT KECCAK256 PUSH22 0x674E21F2A1E9D9F59AB0FEE5F8F9FA6AC369A4E45250 0xBF 0x2D 0xAF 0xB5 0x2A XOR 0x21 CALLCODE NOT PUSH5 0x736F6C6343 STOP ADDMOD ISZERO STOP CALLER "},"methodIdentifiers":{"DAOQuorum()":"cb61bd8c","DAOVoteList(uint256)":"860734fb","addUser()":"455c928c","addValidators()":"dc070671","askDAOVote(uint8,uint256)":"1b2d6a7c","betQuorum()":"0b85000d","creatorFees()":"6694ba61","daoVoteNumber()":"0ed337ad","getDaoVoteHasVoted(uint256)":"53241b4f","platformFees()":"194a4e7e","setDaoVote(uint256,uint256)":"73a8b6c8","userList(uint256)":"9f4216e8","userNumber()":"2b4e8413","userToId(address)":"0b4805d3","validatorFees()":"72e24fdd","validatorNumber()":"139f29a1","validatorNumberRequired()":"53db7e77","validators(address)":"fa52c7d8","withdrawFromValidators()":"c5ee74eb"}}}}}